{
	"contracts/PlayerMarket.sol": {
		"PlayerMarket": {
			"abi": [
				{
					"inputs": [
						{
							"internalType": "address",
							"name": "_ftk",
							"type": "address"
						},
						{
							"internalType": "address",
							"name": "_shareManager",
							"type": "address"
						},
						{
							"internalType": "address",
							"name": "_treasury",
							"type": "address"
						},
						{
							"internalType": "address",
							"name": "admin",
							"type": "address"
						}
					],
					"stateMutability": "nonpayable",
					"type": "constructor"
				},
				{
					"inputs": [],
					"name": "AccessControlBadConfirmation",
					"type": "error"
				},
				{
					"inputs": [
						{
							"internalType": "address",
							"name": "account",
							"type": "address"
						},
						{
							"internalType": "bytes32",
							"name": "neededRole",
							"type": "bytes32"
						}
					],
					"name": "AccessControlUnauthorizedAccount",
					"type": "error"
				},
				{
					"inputs": [],
					"name": "ReentrancyGuardReentrantCall",
					"type": "error"
				},
				{
					"anonymous": false,
					"inputs": [
						{
							"indexed": false,
							"internalType": "uint256",
							"name": "playerId",
							"type": "uint256"
						},
						{
							"indexed": true,
							"internalType": "address",
							"name": "user",
							"type": "address"
						},
						{
							"indexed": false,
							"internalType": "uint256",
							"name": "ftkSpent",
							"type": "uint256"
						},
						{
							"indexed": false,
							"internalType": "uint256",
							"name": "sharesBought",
							"type": "uint256"
						},
						{
							"indexed": false,
							"internalType": "uint256",
							"name": "fee",
							"type": "uint256"
						}
					],
					"name": "BoughtShares",
					"type": "event"
				},
				{
					"anonymous": false,
					"inputs": [
						{
							"indexed": false,
							"internalType": "uint256",
							"name": "playerId",
							"type": "uint256"
						}
					],
					"name": "PlayerAdded",
					"type": "event"
				},
				{
					"anonymous": false,
					"inputs": [
						{
							"indexed": true,
							"internalType": "bytes32",
							"name": "role",
							"type": "bytes32"
						},
						{
							"indexed": true,
							"internalType": "bytes32",
							"name": "previousAdminRole",
							"type": "bytes32"
						},
						{
							"indexed": true,
							"internalType": "bytes32",
							"name": "newAdminRole",
							"type": "bytes32"
						}
					],
					"name": "RoleAdminChanged",
					"type": "event"
				},
				{
					"anonymous": false,
					"inputs": [
						{
							"indexed": true,
							"internalType": "bytes32",
							"name": "role",
							"type": "bytes32"
						},
						{
							"indexed": true,
							"internalType": "address",
							"name": "account",
							"type": "address"
						},
						{
							"indexed": true,
							"internalType": "address",
							"name": "sender",
							"type": "address"
						}
					],
					"name": "RoleGranted",
					"type": "event"
				},
				{
					"anonymous": false,
					"inputs": [
						{
							"indexed": true,
							"internalType": "bytes32",
							"name": "role",
							"type": "bytes32"
						},
						{
							"indexed": true,
							"internalType": "address",
							"name": "account",
							"type": "address"
						},
						{
							"indexed": true,
							"internalType": "address",
							"name": "sender",
							"type": "address"
						}
					],
					"name": "RoleRevoked",
					"type": "event"
				},
				{
					"anonymous": false,
					"inputs": [
						{
							"indexed": false,
							"internalType": "uint256",
							"name": "playerId",
							"type": "uint256"
						},
						{
							"indexed": true,
							"internalType": "address",
							"name": "user",
							"type": "address"
						},
						{
							"indexed": false,
							"internalType": "uint256",
							"name": "sharesSold",
							"type": "uint256"
						},
						{
							"indexed": false,
							"internalType": "uint256",
							"name": "ftkReturned",
							"type": "uint256"
						},
						{
							"indexed": false,
							"internalType": "uint256",
							"name": "fee",
							"type": "uint256"
						}
					],
					"name": "SoldShares",
					"type": "event"
				},
				{
					"anonymous": false,
					"inputs": [
						{
							"indexed": false,
							"internalType": "uint256",
							"name": "newFeeBps",
							"type": "uint256"
						}
					],
					"name": "TradingFeeUpdated",
					"type": "event"
				},
				{
					"anonymous": false,
					"inputs": [
						{
							"indexed": false,
							"internalType": "address",
							"name": "newTreasury",
							"type": "address"
						}
					],
					"name": "TreasuryUpdated",
					"type": "event"
				},
				{
					"inputs": [],
					"name": "ADMIN_ROLE",
					"outputs": [
						{
							"internalType": "bytes32",
							"name": "",
							"type": "bytes32"
						}
					],
					"stateMutability": "view",
					"type": "function"
				},
				{
					"inputs": [],
					"name": "BPS_DENOMINATOR",
					"outputs": [
						{
							"internalType": "uint256",
							"name": "",
							"type": "uint256"
						}
					],
					"stateMutability": "view",
					"type": "function"
				},
				{
					"inputs": [],
					"name": "DEFAULT_ADMIN_ROLE",
					"outputs": [
						{
							"internalType": "bytes32",
							"name": "",
							"type": "bytes32"
						}
					],
					"stateMutability": "view",
					"type": "function"
				},
				{
					"inputs": [
						{
							"internalType": "uint256",
							"name": "playerId",
							"type": "uint256"
						}
					],
					"name": "addPlayer",
					"outputs": [],
					"stateMutability": "nonpayable",
					"type": "function"
				},
				{
					"inputs": [
						{
							"internalType": "uint256",
							"name": "playerId",
							"type": "uint256"
						},
						{
							"internalType": "uint256",
							"name": "ftkAmount",
							"type": "uint256"
						},
						{
							"internalType": "uint256",
							"name": "minShares",
							"type": "uint256"
						}
					],
					"name": "buyShares",
					"outputs": [],
					"stateMutability": "nonpayable",
					"type": "function"
				},
				{
					"inputs": [],
					"name": "ftk",
					"outputs": [
						{
							"internalType": "contract IFantasyToken",
							"name": "",
							"type": "address"
						}
					],
					"stateMutability": "view",
					"type": "function"
				},
				{
					"inputs": [
						{
							"internalType": "bytes32",
							"name": "role",
							"type": "bytes32"
						}
					],
					"name": "getRoleAdmin",
					"outputs": [
						{
							"internalType": "bytes32",
							"name": "",
							"type": "bytes32"
						}
					],
					"stateMutability": "view",
					"type": "function"
				},
				{
					"inputs": [
						{
							"internalType": "uint256",
							"name": "playerId",
							"type": "uint256"
						}
					],
					"name": "getSharePrice",
					"outputs": [
						{
							"internalType": "uint256",
							"name": "",
							"type": "uint256"
						}
					],
					"stateMutability": "view",
					"type": "function"
				},
				{
					"inputs": [
						{
							"internalType": "bytes32",
							"name": "role",
							"type": "bytes32"
						},
						{
							"internalType": "address",
							"name": "account",
							"type": "address"
						}
					],
					"name": "grantRole",
					"outputs": [],
					"stateMutability": "nonpayable",
					"type": "function"
				},
				{
					"inputs": [
						{
							"internalType": "bytes32",
							"name": "role",
							"type": "bytes32"
						},
						{
							"internalType": "address",
							"name": "account",
							"type": "address"
						}
					],
					"name": "hasRole",
					"outputs": [
						{
							"internalType": "bool",
							"name": "",
							"type": "bool"
						}
					],
					"stateMutability": "view",
					"type": "function"
				},
				{
					"inputs": [
						{
							"internalType": "uint256",
							"name": "",
							"type": "uint256"
						}
					],
					"name": "players",
					"outputs": [
						{
							"internalType": "uint256",
							"name": "totalShares",
							"type": "uint256"
						},
						{
							"internalType": "uint256",
							"name": "ftkLiquidity",
							"type": "uint256"
						},
						{
							"internalType": "bool",
							"name": "exists",
							"type": "bool"
						}
					],
					"stateMutability": "view",
					"type": "function"
				},
				{
					"inputs": [
						{
							"internalType": "bytes32",
							"name": "role",
							"type": "bytes32"
						},
						{
							"internalType": "address",
							"name": "callerConfirmation",
							"type": "address"
						}
					],
					"name": "renounceRole",
					"outputs": [],
					"stateMutability": "nonpayable",
					"type": "function"
				},
				{
					"inputs": [
						{
							"internalType": "bytes32",
							"name": "role",
							"type": "bytes32"
						},
						{
							"internalType": "address",
							"name": "account",
							"type": "address"
						}
					],
					"name": "revokeRole",
					"outputs": [],
					"stateMutability": "nonpayable",
					"type": "function"
				},
				{
					"inputs": [
						{
							"internalType": "uint256",
							"name": "playerId",
							"type": "uint256"
						},
						{
							"internalType": "uint256",
							"name": "shares",
							"type": "uint256"
						},
						{
							"internalType": "uint256",
							"name": "minFTK",
							"type": "uint256"
						}
					],
					"name": "sellShares",
					"outputs": [],
					"stateMutability": "nonpayable",
					"type": "function"
				},
				{
					"inputs": [
						{
							"internalType": "uint256",
							"name": "feeBps",
							"type": "uint256"
						}
					],
					"name": "setTradingFee",
					"outputs": [],
					"stateMutability": "nonpayable",
					"type": "function"
				},
				{
					"inputs": [
						{
							"internalType": "address",
							"name": "_treasury",
							"type": "address"
						}
					],
					"name": "setTreasury",
					"outputs": [],
					"stateMutability": "nonpayable",
					"type": "function"
				},
				{
					"inputs": [],
					"name": "shareManager",
					"outputs": [
						{
							"internalType": "contract IPlayerShareManager",
							"name": "",
							"type": "address"
						}
					],
					"stateMutability": "view",
					"type": "function"
				},
				{
					"inputs": [
						{
							"internalType": "bytes4",
							"name": "interfaceId",
							"type": "bytes4"
						}
					],
					"name": "supportsInterface",
					"outputs": [
						{
							"internalType": "bool",
							"name": "",
							"type": "bool"
						}
					],
					"stateMutability": "view",
					"type": "function"
				},
				{
					"inputs": [],
					"name": "tradingFeeBps",
					"outputs": [
						{
							"internalType": "uint256",
							"name": "",
							"type": "uint256"
						}
					],
					"stateMutability": "view",
					"type": "function"
				},
				{
					"inputs": [],
					"name": "treasury",
					"outputs": [
						{
							"internalType": "address",
							"name": "",
							"type": "address"
						}
					],
					"stateMutability": "view",
					"type": "function"
				},
				{
					"inputs": [
						{
							"internalType": "uint256",
							"name": "playerId",
							"type": "uint256"
						},
						{
							"internalType": "address",
							"name": "user",
							"type": "address"
						}
					],
					"name": "userBalance",
					"outputs": [
						{
							"internalType": "uint256",
							"name": "",
							"type": "uint256"
						}
					],
					"stateMutability": "view",
					"type": "function"
				},
				{
					"inputs": [
						{
							"internalType": "uint256",
							"name": "",
							"type": "uint256"
						},
						{
							"internalType": "address",
							"name": "",
							"type": "address"
						}
					],
					"name": "userShares",
					"outputs": [
						{
							"internalType": "uint256",
							"name": "",
							"type": "uint256"
						}
					],
					"stateMutability": "view",
					"type": "function"
				}
			],
			"devdoc": {
				"errors": {
					"AccessControlBadConfirmation()": [
						{
							"details": "The caller of a function is not the expected one. NOTE: Don't confuse with {AccessControlUnauthorizedAccount}."
						}
					],
					"AccessControlUnauthorizedAccount(address,bytes32)": [
						{
							"details": "The `account` is missing a role."
						}
					],
					"ReentrancyGuardReentrantCall()": [
						{
							"details": "Unauthorized reentrant call."
						}
					]
				},
				"events": {
					"RoleAdminChanged(bytes32,bytes32,bytes32)": {
						"details": "Emitted when `newAdminRole` is set as ``role``'s admin role, replacing `previousAdminRole` `DEFAULT_ADMIN_ROLE` is the starting admin for all roles, despite {RoleAdminChanged} not being emitted to signal this."
					},
					"RoleGranted(bytes32,address,address)": {
						"details": "Emitted when `account` is granted `role`. `sender` is the account that originated the contract call. This account bears the admin role (for the granted role). Expected in cases where the role was granted using the internal {AccessControl-_grantRole}."
					},
					"RoleRevoked(bytes32,address,address)": {
						"details": "Emitted when `account` is revoked `role`. `sender` is the account that originated the contract call:   - if using `revokeRole`, it is the admin role bearer   - if using `renounceRole`, it is the role bearer (i.e. `account`)"
					}
				},
				"kind": "dev",
				"methods": {
					"getRoleAdmin(bytes32)": {
						"details": "Returns the admin role that controls `role`. See {grantRole} and {revokeRole}. To change a role's admin, use {_setRoleAdmin}."
					},
					"grantRole(bytes32,address)": {
						"details": "Grants `role` to `account`. If `account` had not been already granted `role`, emits a {RoleGranted} event. Requirements: - the caller must have ``role``'s admin role. May emit a {RoleGranted} event."
					},
					"hasRole(bytes32,address)": {
						"details": "Returns `true` if `account` has been granted `role`."
					},
					"renounceRole(bytes32,address)": {
						"details": "Revokes `role` from the calling account. Roles are often managed via {grantRole} and {revokeRole}: this function's purpose is to provide a mechanism for accounts to lose their privileges if they are compromised (such as when a trusted device is misplaced). If the calling account had been revoked `role`, emits a {RoleRevoked} event. Requirements: - the caller must be `callerConfirmation`. May emit a {RoleRevoked} event."
					},
					"revokeRole(bytes32,address)": {
						"details": "Revokes `role` from `account`. If `account` had been granted `role`, emits a {RoleRevoked} event. Requirements: - the caller must have ``role``'s admin role. May emit a {RoleRevoked} event."
					},
					"supportsInterface(bytes4)": {
						"details": "Returns true if this contract implements the interface defined by `interfaceId`. See the corresponding https://eips.ethereum.org/EIPS/eip-165#how-interfaces-are-identified[ERC section] to learn more about how these ids are created. This function call must use less than 30 000 gas."
					}
				},
				"version": 1
			},
			"evm": {
				"assembly": "    /* \"contracts/PlayerMarket.sol\":646:5488  contract PlayerMarket is ReentrancyGuard, AccessControl {... */\n  mstore(0x40, 0xa0)\n    /* \"contracts/PlayerMarket.sol\":921:924  200 */\n  0xc8\n    /* \"contracts/PlayerMarket.sol\":890:924  uint256 public tradingFeeBps = 200 */\n  0x04\n  sstore\n    /* \"contracts/PlayerMarket.sol\":1629:2014  constructor(address _ftk, address _shareManager, address _treasury, address admin) {... */\n  callvalue\n  dup1\n  iszero\n  tag_1\n  jumpi\n  revert(0x00, 0x00)\ntag_1:\n  pop\n  mload(0x40)\n  sub(codesize, bytecodeSize)\n  dup1\n  bytecodeSize\n  dup4\n  codecopy\n  dup2\n  dup2\n  add\n  0x40\n  mstore\n  dup2\n  add\n  swap1\n  tag_2\n  swap2\n  swap1\n  tag_3\n  jump\t// in\ntag_2:\n    /* \"@openzeppelin/contracts/utils/ReentrancyGuard.sol\":1857:1858  1 */\n  0x01\n    /* \"@openzeppelin/contracts/utils/ReentrancyGuard.sol\":2061:2068  _status */\n  0x00\n    /* \"@openzeppelin/contracts/utils/ReentrancyGuard.sol\":2061:2082  _status = NOT_ENTERED */\n  dup2\n  swap1\n  sstore\n  pop\n    /* \"contracts/PlayerMarket.sol\":1746:1747  0 */\n  0x00\n    /* \"contracts/PlayerMarket.sol\":1730:1748  _ftk != address(0) */\n  0xffffffffffffffffffffffffffffffffffffffff\n  and\n    /* \"contracts/PlayerMarket.sol\":1730:1734  _ftk */\n  dup5\n    /* \"contracts/PlayerMarket.sol\":1730:1748  _ftk != address(0) */\n  0xffffffffffffffffffffffffffffffffffffffff\n  and\n  eq\n  iszero\n    /* \"contracts/PlayerMarket.sol\":1730:1775  _ftk != address(0) && _treasury != address(0) */\n  dup1\n  iszero\n  tag_8\n  jumpi\n  pop\n    /* \"contracts/PlayerMarket.sol\":1773:1774  0 */\n  0x00\n    /* \"contracts/PlayerMarket.sol\":1752:1775  _treasury != address(0) */\n  0xffffffffffffffffffffffffffffffffffffffff\n  and\n    /* \"contracts/PlayerMarket.sol\":1752:1761  _treasury */\n  dup3\n    /* \"contracts/PlayerMarket.sol\":1752:1775  _treasury != address(0) */\n  0xffffffffffffffffffffffffffffffffffffffff\n  and\n  eq\n  iszero\n    /* \"contracts/PlayerMarket.sol\":1730:1775  _ftk != address(0) && _treasury != address(0) */\ntag_8:\n    /* \"contracts/PlayerMarket.sol\":1722:1797  require(_ftk != address(0) && _treasury != address(0), \"Invalid addresses\") */\n  tag_9\n  jumpi\n  mload(0x40)\n  0x08c379a000000000000000000000000000000000000000000000000000000000\n  dup2\n  mstore\n  0x04\n  add\n  tag_10\n  swap1\n  tag_11\n  jump\t// in\ntag_10:\n  mload(0x40)\n  dup1\n  swap2\n  sub\n  swap1\n  revert\ntag_9:\n    /* \"contracts/PlayerMarket.sol\":1827:1831  _ftk */\n  dup4\n    /* \"contracts/PlayerMarket.sol\":1807:1832  ftk = IFantasyToken(_ftk) */\n  0xffffffffffffffffffffffffffffffffffffffff\n  and\n  0x80\n  dup2\n  0xffffffffffffffffffffffffffffffffffffffff\n  and\n  dup2\n  mstore\n  pop\n  pop\n    /* \"contracts/PlayerMarket.sol\":1877:1890  _shareManager */\n  dup3\n    /* \"contracts/PlayerMarket.sol\":1842:1854  shareManager */\n  0x02\n  0x00\n    /* \"contracts/PlayerMarket.sol\":1842:1891  shareManager = IPlayerShareManager(_shareManager) */\n  0x0100\n  exp\n  dup2\n  sload\n  dup2\n  0xffffffffffffffffffffffffffffffffffffffff\n  mul\n  not\n  and\n  swap1\n  dup4\n  0xffffffffffffffffffffffffffffffffffffffff\n  and\n  mul\n  or\n  swap1\n  sstore\n  pop\n    /* \"contracts/PlayerMarket.sol\":1912:1921  _treasury */\n  dup2\n    /* \"contracts/PlayerMarket.sol\":1901:1909  treasury */\n  0x03\n  0x00\n    /* \"contracts/PlayerMarket.sol\":1901:1921  treasury = _treasury */\n  0x0100\n  exp\n  dup2\n  sload\n  dup2\n  0xffffffffffffffffffffffffffffffffffffffff\n  mul\n  not\n  and\n  swap1\n  dup4\n  0xffffffffffffffffffffffffffffffffffffffff\n  and\n  mul\n  or\n  swap1\n  sstore\n  pop\n    /* \"contracts/PlayerMarket.sol\":1931:1968  _grantRole(DEFAULT_ADMIN_ROLE, admin) */\n  tag_12\n    /* \"@openzeppelin/contracts/access/AccessControl.sol\":2241:2245  0x00 */\n  0x00\n    /* \"contracts/PlayerMarket.sol\":1942:1960  DEFAULT_ADMIN_ROLE */\n  0x00\n  shl\n    /* \"contracts/PlayerMarket.sol\":1962:1967  admin */\n  dup3\n    /* \"contracts/PlayerMarket.sol\":1931:1941  _grantRole */\n  shl(0x20, tag_13)\n    /* \"contracts/PlayerMarket.sol\":1931:1968  _grantRole(DEFAULT_ADMIN_ROLE, admin) */\n  0x20\n  shr\n  jump\t// in\ntag_12:\n  pop\n    /* \"contracts/PlayerMarket.sol\":1978:2007  _grantRole(ADMIN_ROLE, admin) */\n  tag_14\n    /* \"contracts/PlayerMarket.sol\":745:768  keccak256(\"ADMIN_ROLE\") */\n  0xa49807205ce4d355092ef5a8a18f56e8913cf4a201fbe287825b095693c21775\n    /* \"contracts/PlayerMarket.sol\":2001:2006  admin */\n  dup3\n    /* \"contracts/PlayerMarket.sol\":1978:1988  _grantRole */\n  shl(0x20, tag_13)\n    /* \"contracts/PlayerMarket.sol\":1978:2007  _grantRole(ADMIN_ROLE, admin) */\n  0x20\n  shr\n  jump\t// in\ntag_14:\n  pop\n    /* \"contracts/PlayerMarket.sol\":1629:2014  constructor(address _ftk, address _shareManager, address _treasury, address admin) {... */\n  pop\n  pop\n  pop\n  pop\n    /* \"contracts/PlayerMarket.sol\":646:5488  contract PlayerMarket is ReentrancyGuard, AccessControl {... */\n  jump(tag_15)\n    /* \"@openzeppelin/contracts/access/AccessControl.sol\":6155:6471  function _grantRole(bytes32 role, address account) internal virtual returns (bool) {... */\ntag_13:\n    /* \"@openzeppelin/contracts/access/AccessControl.sol\":6232:6236  bool */\n  0x00\n    /* \"@openzeppelin/contracts/access/AccessControl.sol\":6253:6275  hasRole(role, account) */\n  tag_17\n    /* \"@openzeppelin/contracts/access/AccessControl.sol\":6261:6265  role */\n  dup4\n    /* \"@openzeppelin/contracts/access/AccessControl.sol\":6267:6274  account */\n  dup4\n    /* \"@openzeppelin/contracts/access/AccessControl.sol\":6253:6260  hasRole */\n  shl(0x20, tag_18)\n    /* \"@openzeppelin/contracts/access/AccessControl.sol\":6253:6275  hasRole(role, account) */\n  0x20\n  shr\n  jump\t// in\ntag_17:\n    /* \"@openzeppelin/contracts/access/AccessControl.sol\":6248:6465  if (!hasRole(role, account)) {... */\n  tag_19\n  jumpi\n    /* \"@openzeppelin/contracts/access/AccessControl.sol\":6323:6327  true */\n  0x01\n    /* \"@openzeppelin/contracts/access/AccessControl.sol\":6291:6297  _roles */\n  dup1\n    /* \"@openzeppelin/contracts/access/AccessControl.sol\":6291:6303  _roles[role] */\n  0x00\n    /* \"@openzeppelin/contracts/access/AccessControl.sol\":6298:6302  role */\n  dup6\n    /* \"@openzeppelin/contracts/access/AccessControl.sol\":6291:6303  _roles[role] */\n  dup2\n  mstore\n  0x20\n  add\n  swap1\n  dup2\n  mstore\n  0x20\n  add\n  0x00\n  keccak256\n    /* \"@openzeppelin/contracts/access/AccessControl.sol\":6291:6311  _roles[role].hasRole */\n  0x00\n  add\n    /* \"@openzeppelin/contracts/access/AccessControl.sol\":6291:6320  _roles[role].hasRole[account] */\n  0x00\n    /* \"@openzeppelin/contracts/access/AccessControl.sol\":6312:6319  account */\n  dup5\n    /* \"@openzeppelin/contracts/access/AccessControl.sol\":6291:6320  _roles[role].hasRole[account] */\n  0xffffffffffffffffffffffffffffffffffffffff\n  and\n  0xffffffffffffffffffffffffffffffffffffffff\n  and\n  dup2\n  mstore\n  0x20\n  add\n  swap1\n  dup2\n  mstore\n  0x20\n  add\n  0x00\n  keccak256\n  0x00\n    /* \"@openzeppelin/contracts/access/AccessControl.sol\":6291:6327  _roles[role].hasRole[account] = true */\n  0x0100\n  exp\n  dup2\n  sload\n  dup2\n  0xff\n  mul\n  not\n  and\n  swap1\n  dup4\n  iszero\n  iszero\n  mul\n  or\n  swap1\n  sstore\n  pop\n    /* \"@openzeppelin/contracts/access/AccessControl.sol\":6373:6385  _msgSender() */\n  tag_20\n    /* \"@openzeppelin/contracts/access/AccessControl.sol\":6373:6383  _msgSender */\n  shl(0x20, tag_21)\n    /* \"@openzeppelin/contracts/access/AccessControl.sol\":6373:6385  _msgSender() */\n  0x20\n  shr\n  jump\t// in\ntag_20:\n    /* \"@openzeppelin/contracts/access/AccessControl.sol\":6346:6386  RoleGranted(role, account, _msgSender()) */\n  0xffffffffffffffffffffffffffffffffffffffff\n  and\n    /* \"@openzeppelin/contracts/access/AccessControl.sol\":6364:6371  account */\n  dup3\n    /* \"@openzeppelin/contracts/access/AccessControl.sol\":6346:6386  RoleGranted(role, account, _msgSender()) */\n  0xffffffffffffffffffffffffffffffffffffffff\n  and\n    /* \"@openzeppelin/contracts/access/AccessControl.sol\":6358:6362  role */\n  dup5\n    /* \"@openzeppelin/contracts/access/AccessControl.sol\":6346:6386  RoleGranted(role, account, _msgSender()) */\n  0x2f8788117e7eff1d82e926ec794901d17c78024a50270940304540a733656f0d\n  mload(0x40)\n  mload(0x40)\n  dup1\n  swap2\n  sub\n  swap1\n  log4\n    /* \"@openzeppelin/contracts/access/AccessControl.sol\":6407:6411  true */\n  0x01\n    /* \"@openzeppelin/contracts/access/AccessControl.sol\":6400:6411  return true */\n  swap1\n  pop\n  jump(tag_16)\n    /* \"@openzeppelin/contracts/access/AccessControl.sol\":6248:6465  if (!hasRole(role, account)) {... */\ntag_19:\n    /* \"@openzeppelin/contracts/access/AccessControl.sol\":6449:6454  false */\n  0x00\n    /* \"@openzeppelin/contracts/access/AccessControl.sol\":6442:6454  return false */\n  swap1\n  pop\n    /* \"@openzeppelin/contracts/access/AccessControl.sol\":6155:6471  function _grantRole(bytes32 role, address account) internal virtual returns (bool) {... */\ntag_16:\n  swap3\n  swap2\n  pop\n  pop\n  jump\t// out\n    /* \"@openzeppelin/contracts/access/AccessControl.sol\":2830:2966  function hasRole(bytes32 role, address account) public view virtual returns (bool) {... */\ntag_18:\n    /* \"@openzeppelin/contracts/access/AccessControl.sol\":2907:2911  bool */\n  0x00\n    /* \"@openzeppelin/contracts/access/AccessControl.sol\":2930:2936  _roles */\n  0x01\n    /* \"@openzeppelin/contracts/access/AccessControl.sol\":2930:2942  _roles[role] */\n  0x00\n    /* \"@openzeppelin/contracts/access/AccessControl.sol\":2937:2941  role */\n  dup5\n    /* \"@openzeppelin/contracts/access/AccessControl.sol\":2930:2942  _roles[role] */\n  dup2\n  mstore\n  0x20\n  add\n  swap1\n  dup2\n  mstore\n  0x20\n  add\n  0x00\n  keccak256\n    /* \"@openzeppelin/contracts/access/AccessControl.sol\":2930:2950  _roles[role].hasRole */\n  0x00\n  add\n    /* \"@openzeppelin/contracts/access/AccessControl.sol\":2930:2959  _roles[role].hasRole[account] */\n  0x00\n    /* \"@openzeppelin/contracts/access/AccessControl.sol\":2951:2958  account */\n  dup4\n    /* \"@openzeppelin/contracts/access/AccessControl.sol\":2930:2959  _roles[role].hasRole[account] */\n  0xffffffffffffffffffffffffffffffffffffffff\n  and\n  0xffffffffffffffffffffffffffffffffffffffff\n  and\n  dup2\n  mstore\n  0x20\n  add\n  swap1\n  dup2\n  mstore\n  0x20\n  add\n  0x00\n  keccak256\n  0x00\n  swap1\n  sload\n  swap1\n  0x0100\n  exp\n  swap1\n  div\n  0xff\n  and\n    /* \"@openzeppelin/contracts/access/AccessControl.sol\":2923:2959  return _roles[role].hasRole[account] */\n  swap1\n  pop\n    /* \"@openzeppelin/contracts/access/AccessControl.sol\":2830:2966  function hasRole(bytes32 role, address account) public view virtual returns (bool) {... */\n  swap3\n  swap2\n  pop\n  pop\n  jump\t// out\n    /* \"@openzeppelin/contracts/utils/Context.sol\":656:752  function _msgSender() internal view virtual returns (address) {... */\ntag_21:\n    /* \"@openzeppelin/contracts/utils/Context.sol\":709:716  address */\n  0x00\n    /* \"@openzeppelin/contracts/utils/Context.sol\":735:745  msg.sender */\n  caller\n    /* \"@openzeppelin/contracts/utils/Context.sol\":728:745  return msg.sender */\n  swap1\n  pop\n    /* \"@openzeppelin/contracts/utils/Context.sol\":656:752  function _msgSender() internal view virtual returns (address) {... */\n  swap1\n  jump\t// out\n    /* \"#utility.yul\":88:205   */\ntag_26:\n    /* \"#utility.yul\":197:198   */\n  0x00\n    /* \"#utility.yul\":194:195   */\n  0x00\n    /* \"#utility.yul\":187:199   */\n  revert\n    /* \"#utility.yul\":334:460   */\ntag_28:\n    /* \"#utility.yul\":371:378   */\n  0x00\n    /* \"#utility.yul\":411:453   */\n  0xffffffffffffffffffffffffffffffffffffffff\n    /* \"#utility.yul\":404:409   */\n  dup3\n    /* \"#utility.yul\":400:454   */\n  and\n    /* \"#utility.yul\":389:454   */\n  swap1\n  pop\n    /* \"#utility.yul\":334:460   */\n  swap2\n  swap1\n  pop\n  jump\t// out\n    /* \"#utility.yul\":466:562   */\ntag_29:\n    /* \"#utility.yul\":503:510   */\n  0x00\n    /* \"#utility.yul\":532:556   */\n  tag_41\n    /* \"#utility.yul\":550:555   */\n  dup3\n    /* \"#utility.yul\":532:556   */\n  tag_28\n  jump\t// in\ntag_41:\n    /* \"#utility.yul\":521:556   */\n  swap1\n  pop\n    /* \"#utility.yul\":466:562   */\n  swap2\n  swap1\n  pop\n  jump\t// out\n    /* \"#utility.yul\":568:690   */\ntag_30:\n    /* \"#utility.yul\":641:665   */\n  tag_43\n    /* \"#utility.yul\":659:664   */\n  dup2\n    /* \"#utility.yul\":641:665   */\n  tag_29\n  jump\t// in\ntag_43:\n    /* \"#utility.yul\":634:639   */\n  dup2\n    /* \"#utility.yul\":631:666   */\n  eq\n    /* \"#utility.yul\":621:684   */\n  tag_44\n  jumpi\n    /* \"#utility.yul\":680:681   */\n  0x00\n    /* \"#utility.yul\":677:678   */\n  0x00\n    /* \"#utility.yul\":670:682   */\n  revert\n    /* \"#utility.yul\":621:684   */\ntag_44:\n    /* \"#utility.yul\":568:690   */\n  pop\n  jump\t// out\n    /* \"#utility.yul\":696:839   */\ntag_31:\n    /* \"#utility.yul\":753:758   */\n  0x00\n    /* \"#utility.yul\":784:790   */\n  dup2\n    /* \"#utility.yul\":778:791   */\n  mload\n    /* \"#utility.yul\":769:791   */\n  swap1\n  pop\n    /* \"#utility.yul\":800:833   */\n  tag_46\n    /* \"#utility.yul\":827:832   */\n  dup2\n    /* \"#utility.yul\":800:833   */\n  tag_30\n  jump\t// in\ntag_46:\n    /* \"#utility.yul\":696:839   */\n  swap3\n  swap2\n  pop\n  pop\n  jump\t// out\n    /* \"#utility.yul\":845:1665   */\ntag_3:\n    /* \"#utility.yul\":942:948   */\n  0x00\n    /* \"#utility.yul\":950:956   */\n  0x00\n    /* \"#utility.yul\":958:964   */\n  0x00\n    /* \"#utility.yul\":966:972   */\n  0x00\n    /* \"#utility.yul\":1015:1018   */\n  0x80\n    /* \"#utility.yul\":1003:1012   */\n  dup6\n    /* \"#utility.yul\":994:1001   */\n  dup8\n    /* \"#utility.yul\":990:1013   */\n  sub\n    /* \"#utility.yul\":986:1019   */\n  slt\n    /* \"#utility.yul\":983:1103   */\n  iszero\n  tag_48\n  jumpi\n    /* \"#utility.yul\":1022:1101   */\n  tag_49\n  tag_26\n  jump\t// in\ntag_49:\n    /* \"#utility.yul\":983:1103   */\ntag_48:\n    /* \"#utility.yul\":1142:1143   */\n  0x00\n    /* \"#utility.yul\":1167:1231   */\n  tag_50\n    /* \"#utility.yul\":1223:1230   */\n  dup8\n    /* \"#utility.yul\":1214:1220   */\n  dup3\n    /* \"#utility.yul\":1203:1212   */\n  dup9\n    /* \"#utility.yul\":1199:1221   */\n  add\n    /* \"#utility.yul\":1167:1231   */\n  tag_31\n  jump\t// in\ntag_50:\n    /* \"#utility.yul\":1157:1231   */\n  swap5\n  pop\n    /* \"#utility.yul\":1113:1241   */\n  pop\n    /* \"#utility.yul\":1280:1282   */\n  0x20\n    /* \"#utility.yul\":1306:1370   */\n  tag_51\n    /* \"#utility.yul\":1362:1369   */\n  dup8\n    /* \"#utility.yul\":1353:1359   */\n  dup3\n    /* \"#utility.yul\":1342:1351   */\n  dup9\n    /* \"#utility.yul\":1338:1360   */\n  add\n    /* \"#utility.yul\":1306:1370   */\n  tag_31\n  jump\t// in\ntag_51:\n    /* \"#utility.yul\":1296:1370   */\n  swap4\n  pop\n    /* \"#utility.yul\":1251:1380   */\n  pop\n    /* \"#utility.yul\":1419:1421   */\n  0x40\n    /* \"#utility.yul\":1445:1509   */\n  tag_52\n    /* \"#utility.yul\":1501:1508   */\n  dup8\n    /* \"#utility.yul\":1492:1498   */\n  dup3\n    /* \"#utility.yul\":1481:1490   */\n  dup9\n    /* \"#utility.yul\":1477:1499   */\n  add\n    /* \"#utility.yul\":1445:1509   */\n  tag_31\n  jump\t// in\ntag_52:\n    /* \"#utility.yul\":1435:1509   */\n  swap3\n  pop\n    /* \"#utility.yul\":1390:1519   */\n  pop\n    /* \"#utility.yul\":1558:1560   */\n  0x60\n    /* \"#utility.yul\":1584:1648   */\n  tag_53\n    /* \"#utility.yul\":1640:1647   */\n  dup8\n    /* \"#utility.yul\":1631:1637   */\n  dup3\n    /* \"#utility.yul\":1620:1629   */\n  dup9\n    /* \"#utility.yul\":1616:1638   */\n  add\n    /* \"#utility.yul\":1584:1648   */\n  tag_31\n  jump\t// in\ntag_53:\n    /* \"#utility.yul\":1574:1648   */\n  swap2\n  pop\n    /* \"#utility.yul\":1529:1658   */\n  pop\n    /* \"#utility.yul\":845:1665   */\n  swap3\n  swap6\n  swap2\n  swap5\n  pop\n  swap3\n  pop\n  jump\t// out\n    /* \"#utility.yul\":1671:1840   */\ntag_32:\n    /* \"#utility.yul\":1755:1766   */\n  0x00\n    /* \"#utility.yul\":1789:1795   */\n  dup3\n    /* \"#utility.yul\":1784:1787   */\n  dup3\n    /* \"#utility.yul\":1777:1796   */\n  mstore\n    /* \"#utility.yul\":1829:1833   */\n  0x20\n    /* \"#utility.yul\":1824:1827   */\n  dup3\n    /* \"#utility.yul\":1820:1834   */\n  add\n    /* \"#utility.yul\":1805:1834   */\n  swap1\n  pop\n    /* \"#utility.yul\":1671:1840   */\n  swap3\n  swap2\n  pop\n  pop\n  jump\t// out\n    /* \"#utility.yul\":1846:2013   */\ntag_33:\n    /* \"#utility.yul\":1986:2005   */\n  0x496e76616c696420616464726573736573000000000000000000000000000000\n    /* \"#utility.yul\":1982:1983   */\n  0x00\n    /* \"#utility.yul\":1974:1980   */\n  dup3\n    /* \"#utility.yul\":1970:1984   */\n  add\n    /* \"#utility.yul\":1963:2006   */\n  mstore\n    /* \"#utility.yul\":1846:2013   */\n  pop\n  jump\t// out\n    /* \"#utility.yul\":2019:2385   */\ntag_34:\n    /* \"#utility.yul\":2161:2164   */\n  0x00\n    /* \"#utility.yul\":2182:2249   */\n  tag_57\n    /* \"#utility.yul\":2246:2248   */\n  0x11\n    /* \"#utility.yul\":2241:2244   */\n  dup4\n    /* \"#utility.yul\":2182:2249   */\n  tag_32\n  jump\t// in\ntag_57:\n    /* \"#utility.yul\":2175:2249   */\n  swap2\n  pop\n    /* \"#utility.yul\":2258:2351   */\n  tag_58\n    /* \"#utility.yul\":2347:2350   */\n  dup3\n    /* \"#utility.yul\":2258:2351   */\n  tag_33\n  jump\t// in\ntag_58:\n    /* \"#utility.yul\":2376:2378   */\n  0x20\n    /* \"#utility.yul\":2371:2374   */\n  dup3\n    /* \"#utility.yul\":2367:2379   */\n  add\n    /* \"#utility.yul\":2360:2379   */\n  swap1\n  pop\n    /* \"#utility.yul\":2019:2385   */\n  swap2\n  swap1\n  pop\n  jump\t// out\n    /* \"#utility.yul\":2391:2810   */\ntag_11:\n    /* \"#utility.yul\":2557:2561   */\n  0x00\n    /* \"#utility.yul\":2595:2597   */\n  0x20\n    /* \"#utility.yul\":2584:2593   */\n  dup3\n    /* \"#utility.yul\":2580:2598   */\n  add\n    /* \"#utility.yul\":2572:2598   */\n  swap1\n  pop\n    /* \"#utility.yul\":2644:2653   */\n  dup2\n    /* \"#utility.yul\":2638:2642   */\n  dup2\n    /* \"#utility.yul\":2634:2654   */\n  sub\n    /* \"#utility.yul\":2630:2631   */\n  0x00\n    /* \"#utility.yul\":2619:2628   */\n  dup4\n    /* \"#utility.yul\":2615:2632   */\n  add\n    /* \"#utility.yul\":2608:2655   */\n  mstore\n    /* \"#utility.yul\":2672:2803   */\n  tag_60\n    /* \"#utility.yul\":2798:2802   */\n  dup2\n    /* \"#utility.yul\":2672:2803   */\n  tag_34\n  jump\t// in\ntag_60:\n    /* \"#utility.yul\":2664:2803   */\n  swap1\n  pop\n    /* \"#utility.yul\":2391:2810   */\n  swap2\n  swap1\n  pop\n  jump\t// out\n    /* \"contracts/PlayerMarket.sol\":646:5488  contract PlayerMarket is ReentrancyGuard, AccessControl {... */\ntag_15:\n  mload(0x80)\n  codecopy(0x00, dataOffset(sub_0), dataSize(sub_0))\n  0x00\n  assignImmutable(\"0x42fa20e8c2fc174121a60bb5704cfd8579fc4a2698f9ae487d1310659094676e\")\n  return(0x00, dataSize(sub_0))\nstop\n\nsub_0: assembly {\n        /* \"contracts/PlayerMarket.sol\":646:5488  contract PlayerMarket is ReentrancyGuard, AccessControl {... */\n      mstore(0x40, 0x80)\n      callvalue\n      dup1\n      iszero\n      tag_1\n      jumpi\n      revert(0x00, 0x00)\n    tag_1:\n      pop\n      jumpi(tag_2, lt(calldatasize, 0x04))\n      shr(0xe0, calldataload(0x00))\n      dup1\n      0x924cca9a\n      gt\n      tag_25\n      jumpi\n      dup1\n      0xd547741f\n      gt\n      tag_26\n      jumpi\n      dup1\n      0xd547741f\n      eq\n      tag_19\n      jumpi\n      dup1\n      0xd67c6872\n      eq\n      tag_20\n      jumpi\n      dup1\n      0xe1a45218\n      eq\n      tag_21\n      jumpi\n      dup1\n      0xec4a8b17\n      eq\n      tag_22\n      jumpi\n      dup1\n      0xf0f44260\n      eq\n      tag_23\n      jumpi\n      dup1\n      0xf71d96cb\n      eq\n      tag_24\n      jumpi\n      jump(tag_2)\n    tag_26:\n      dup1\n      0x924cca9a\n      eq\n      tag_14\n      jumpi\n      dup1\n      0xa217fddf\n      eq\n      tag_15\n      jumpi\n      dup1\n      0xad954878\n      eq\n      tag_16\n      jumpi\n      dup1\n      0xb0d54bcf\n      eq\n      tag_17\n      jumpi\n      dup1\n      0xbca7d4e1\n      eq\n      tag_18\n      jumpi\n      jump(tag_2)\n    tag_25:\n      dup1\n      0x61d027b3\n      gt\n      tag_27\n      jumpi\n      dup1\n      0x61d027b3\n      eq\n      tag_8\n      jumpi\n      dup1\n      0x75b238fc\n      eq\n      tag_9\n      jumpi\n      dup1\n      0x7aabf58a\n      eq\n      tag_10\n      jumpi\n      dup1\n      0x8301b93d\n      eq\n      tag_11\n      jumpi\n      dup1\n      0x85198705\n      eq\n      tag_12\n      jumpi\n      dup1\n      0x91d14854\n      eq\n      tag_13\n      jumpi\n      jump(tag_2)\n    tag_27:\n      dup1\n      0x01ffc9a7\n      eq\n      tag_3\n      jumpi\n      dup1\n      0x248a9ca3\n      eq\n      tag_4\n      jumpi\n      dup1\n      0x2f2ff15d\n      eq\n      tag_5\n      jumpi\n      dup1\n      0x36568abe\n      eq\n      tag_6\n      jumpi\n      dup1\n      0x5c60173d\n      eq\n      tag_7\n      jumpi\n    tag_2:\n      revert(0x00, 0x00)\n        /* \"@openzeppelin/contracts/access/AccessControl.sol\":2541:2743  function supportsInterface(bytes4 interfaceId) public view virtual override returns (bool) {... */\n    tag_3:\n      tag_28\n      0x04\n      dup1\n      calldatasize\n      sub\n      dup2\n      add\n      swap1\n      tag_29\n      swap2\n      swap1\n      tag_30\n      jump\t// in\n    tag_29:\n      tag_31\n      jump\t// in\n    tag_28:\n      mload(0x40)\n      tag_32\n      swap2\n      swap1\n      tag_33\n      jump\t// in\n    tag_32:\n      mload(0x40)\n      dup1\n      swap2\n      sub\n      swap1\n      return\n        /* \"@openzeppelin/contracts/access/AccessControl.sol\":3786:3906  function getRoleAdmin(bytes32 role) public view virtual returns (bytes32) {... */\n    tag_4:\n      tag_34\n      0x04\n      dup1\n      calldatasize\n      sub\n      dup2\n      add\n      swap1\n      tag_35\n      swap2\n      swap1\n      tag_36\n      jump\t// in\n    tag_35:\n      tag_37\n      jump\t// in\n    tag_34:\n      mload(0x40)\n      tag_38\n      swap2\n      swap1\n      tag_39\n      jump\t// in\n    tag_38:\n      mload(0x40)\n      dup1\n      swap2\n      sub\n      swap1\n      return\n        /* \"@openzeppelin/contracts/access/AccessControl.sol\":4202:4338  function grantRole(bytes32 role, address account) public virtual onlyRole(getRoleAdmin(role)) {... */\n    tag_5:\n      tag_40\n      0x04\n      dup1\n      calldatasize\n      sub\n      dup2\n      add\n      swap1\n      tag_41\n      swap2\n      swap1\n      tag_42\n      jump\t// in\n    tag_41:\n      tag_43\n      jump\t// in\n    tag_40:\n      stop\n        /* \"@openzeppelin/contracts/access/AccessControl.sol\":5304:5549  function renounceRole(bytes32 role, address callerConfirmation) public virtual {... */\n    tag_6:\n      tag_44\n      0x04\n      dup1\n      calldatasize\n      sub\n      dup2\n      add\n      swap1\n      tag_45\n      swap2\n      swap1\n      tag_42\n      jump\t// in\n    tag_45:\n      tag_46\n      jump\t// in\n    tag_44:\n      stop\n        /* \"contracts/PlayerMarket.sol\":815:854  IPlayerShareManager public shareManager */\n    tag_7:\n      tag_47\n      tag_48\n      jump\t// in\n    tag_47:\n      mload(0x40)\n      tag_49\n      swap2\n      swap1\n      tag_50\n      jump\t// in\n    tag_49:\n      mload(0x40)\n      dup1\n      swap2\n      sub\n      swap1\n      return\n        /* \"contracts/PlayerMarket.sol\":860:883  address public treasury */\n    tag_8:\n      tag_51\n      tag_52\n      jump\t// in\n    tag_51:\n      mload(0x40)\n      tag_53\n      swap2\n      swap1\n      tag_54\n      jump\t// in\n    tag_53:\n      mload(0x40)\n      dup1\n      swap2\n      sub\n      swap1\n      return\n        /* \"contracts/PlayerMarket.sol\":708:768  bytes32 public constant ADMIN_ROLE = keccak256(\"ADMIN_ROLE\") */\n    tag_9:\n      tag_55\n      tag_56\n      jump\t// in\n    tag_55:\n      mload(0x40)\n      tag_57\n      swap2\n      swap1\n      tag_39\n      jump\t// in\n    tag_57:\n      mload(0x40)\n      dup1\n      swap2\n      sub\n      swap1\n      return\n        /* \"contracts/PlayerMarket.sol\":2705:4091  function buyShares(uint256 playerId, uint256 ftkAmount, uint256 minShares) external nonReentrant {... */\n    tag_10:\n      tag_58\n      0x04\n      dup1\n      calldatasize\n      sub\n      dup2\n      add\n      swap1\n      tag_59\n      swap2\n      swap1\n      tag_60\n      jump\t// in\n    tag_59:\n      tag_61\n      jump\t// in\n    tag_58:\n      stop\n        /* \"contracts/PlayerMarket.sol\":775:809  IFantasyToken public immutable ftk */\n    tag_11:\n      tag_62\n      tag_63\n      jump\t// in\n    tag_62:\n      mload(0x40)\n      tag_64\n      swap2\n      swap1\n      tag_65\n      jump\t// in\n    tag_64:\n      mload(0x40)\n      dup1\n      swap2\n      sub\n      swap1\n      return\n        /* \"contracts/PlayerMarket.sol\":5075:5210  function userBalance(uint256 playerId, address user) external view returns (uint256) {... */\n    tag_12:\n      tag_66\n      0x04\n      dup1\n      calldatasize\n      sub\n      dup2\n      add\n      swap1\n      tag_67\n      swap2\n      swap1\n      tag_68\n      jump\t// in\n    tag_67:\n      tag_69\n      jump\t// in\n    tag_66:\n      mload(0x40)\n      tag_70\n      swap2\n      swap1\n      tag_71\n      jump\t// in\n    tag_70:\n      mload(0x40)\n      dup1\n      swap2\n      sub\n      swap1\n      return\n        /* \"@openzeppelin/contracts/access/AccessControl.sol\":2830:2966  function hasRole(bytes32 role, address account) public view virtual returns (bool) {... */\n    tag_13:\n      tag_72\n      0x04\n      dup1\n      calldatasize\n      sub\n      dup2\n      add\n      swap1\n      tag_73\n      swap2\n      swap1\n      tag_42\n      jump\t// in\n    tag_73:\n      tag_74\n      jump\t// in\n    tag_72:\n      mload(0x40)\n      tag_75\n      swap2\n      swap1\n      tag_33\n      jump\t// in\n    tag_75:\n      mload(0x40)\n      dup1\n      swap2\n      sub\n      swap1\n      return\n        /* \"contracts/PlayerMarket.sol\":890:924  uint256 public tradingFeeBps = 200 */\n    tag_14:\n      tag_76\n      tag_77\n      jump\t// in\n    tag_76:\n      mload(0x40)\n      tag_78\n      swap2\n      swap1\n      tag_71\n      jump\t// in\n    tag_78:\n      mload(0x40)\n      dup1\n      swap2\n      sub\n      swap1\n      return\n        /* \"@openzeppelin/contracts/access/AccessControl.sol\":2196:2245  bytes32 public constant DEFAULT_ADMIN_ROLE = 0x00 */\n    tag_15:\n      tag_79\n      tag_80\n      jump\t// in\n    tag_79:\n      mload(0x40)\n      tag_81\n      swap2\n      swap1\n      tag_39\n      jump\t// in\n    tag_81:\n      mload(0x40)\n      dup1\n      swap2\n      sub\n      swap1\n      return\n        /* \"contracts/PlayerMarket.sol\":1172:1237  mapping(uint256 => mapping(address => uint256)) public userShares */\n    tag_16:\n      tag_82\n      0x04\n      dup1\n      calldatasize\n      sub\n      dup2\n      add\n      swap1\n      tag_83\n      swap2\n      swap1\n      tag_68\n      jump\t// in\n    tag_83:\n      tag_84\n      jump\t// in\n    tag_82:\n      mload(0x40)\n      tag_85\n      swap2\n      swap1\n      tag_71\n      jump\t// in\n    tag_85:\n      mload(0x40)\n      dup1\n      swap2\n      sub\n      swap1\n      return\n        /* \"contracts/PlayerMarket.sol\":2502:2699  function setTradingFee(uint256 feeBps) external onlyRole(ADMIN_ROLE) {... */\n    tag_17:\n      tag_86\n      0x04\n      dup1\n      calldatasize\n      sub\n      dup2\n      add\n      swap1\n      tag_87\n      swap2\n      swap1\n      tag_88\n      jump\t// in\n    tag_87:\n      tag_89\n      jump\t// in\n    tag_86:\n      stop\n        /* \"contracts/PlayerMarket.sol\":5216:5486  function getSharePrice(uint256 playerId) external view returns (uint256) {... */\n    tag_18:\n      tag_90\n      0x04\n      dup1\n      calldatasize\n      sub\n      dup2\n      add\n      swap1\n      tag_91\n      swap2\n      swap1\n      tag_88\n      jump\t// in\n    tag_91:\n      tag_92\n      jump\t// in\n    tag_90:\n      mload(0x40)\n      tag_93\n      swap2\n      swap1\n      tag_71\n      jump\t// in\n    tag_93:\n      mload(0x40)\n      dup1\n      swap2\n      sub\n      swap1\n      return\n        /* \"@openzeppelin/contracts/access/AccessControl.sol\":4618:4756  function revokeRole(bytes32 role, address account) public virtual onlyRole(getRoleAdmin(role)) {... */\n    tag_19:\n      tag_94\n      0x04\n      dup1\n      calldatasize\n      sub\n      dup2\n      add\n      swap1\n      tag_95\n      swap2\n      swap1\n      tag_42\n      jump\t// in\n    tag_95:\n      tag_96\n      jump\t// in\n    tag_94:\n      stop\n        /* \"contracts/PlayerMarket.sol\":4097:5069  function sellShares(uint256 playerId, uint256 shares, uint256 minFTK) external nonReentrant {... */\n    tag_20:\n      tag_97\n      0x04\n      dup1\n      calldatasize\n      sub\n      dup2\n      add\n      swap1\n      tag_98\n      swap2\n      swap1\n      tag_60\n      jump\t// in\n    tag_98:\n      tag_99\n      jump\t// in\n    tag_97:\n      stop\n        /* \"contracts/PlayerMarket.sol\":930:977  uint256 public constant BPS_DENOMINATOR = 10000 */\n    tag_21:\n      tag_100\n      tag_101\n      jump\t// in\n    tag_100:\n      mload(0x40)\n      tag_102\n      swap2\n      swap1\n      tag_71\n      jump\t// in\n    tag_102:\n      mload(0x40)\n      dup1\n      swap2\n      sub\n      swap1\n      return\n        /* \"contracts/PlayerMarket.sol\":2020:2280  function addPlayer(uint256 playerId) external onlyRole(ADMIN_ROLE) {... */\n    tag_22:\n      tag_103\n      0x04\n      dup1\n      calldatasize\n      sub\n      dup2\n      add\n      swap1\n      tag_104\n      swap2\n      swap1\n      tag_88\n      jump\t// in\n    tag_104:\n      tag_105\n      jump\t// in\n    tag_103:\n      stop\n        /* \"contracts/PlayerMarket.sol\":2286:2496  function setTreasury(address _treasury) external onlyRole(ADMIN_ROLE) {... */\n    tag_23:\n      tag_106\n      0x04\n      dup1\n      calldatasize\n      sub\n      dup2\n      add\n      swap1\n      tag_107\n      swap2\n      swap1\n      tag_108\n      jump\t// in\n    tag_107:\n      tag_109\n      jump\t// in\n    tag_106:\n      stop\n        /* \"contracts/PlayerMarket.sol\":1095:1140  mapping(uint256 => PlayerPool) public players */\n    tag_24:\n      tag_110\n      0x04\n      dup1\n      calldatasize\n      sub\n      dup2\n      add\n      swap1\n      tag_111\n      swap2\n      swap1\n      tag_88\n      jump\t// in\n    tag_111:\n      tag_112\n      jump\t// in\n    tag_110:\n      mload(0x40)\n      tag_113\n      swap4\n      swap3\n      swap2\n      swap1\n      tag_114\n      jump\t// in\n    tag_113:\n      mload(0x40)\n      dup1\n      swap2\n      sub\n      swap1\n      return\n        /* \"@openzeppelin/contracts/access/AccessControl.sol\":2541:2743  function supportsInterface(bytes4 interfaceId) public view virtual override returns (bool) {... */\n    tag_31:\n        /* \"@openzeppelin/contracts/access/AccessControl.sol\":2626:2630  bool */\n      0x00\n        /* \"@openzeppelin/contracts/access/AccessControl.sol\":2664:2696  type(IAccessControl).interfaceId */\n      0x7965db0b00000000000000000000000000000000000000000000000000000000\n        /* \"@openzeppelin/contracts/access/AccessControl.sol\":2649:2696  interfaceId == type(IAccessControl).interfaceId */\n      not(0xffffffffffffffffffffffffffffffffffffffffffffffffffffffff)\n      and\n        /* \"@openzeppelin/contracts/access/AccessControl.sol\":2649:2660  interfaceId */\n      dup3\n        /* \"@openzeppelin/contracts/access/AccessControl.sol\":2649:2696  interfaceId == type(IAccessControl).interfaceId */\n      not(0xffffffffffffffffffffffffffffffffffffffffffffffffffffffff)\n      and\n      eq\n        /* \"@openzeppelin/contracts/access/AccessControl.sol\":2649:2736  interfaceId == type(IAccessControl).interfaceId || super.supportsInterface(interfaceId) */\n      dup1\n      tag_116\n      jumpi\n      pop\n        /* \"@openzeppelin/contracts/access/AccessControl.sol\":2700:2736  super.supportsInterface(interfaceId) */\n      tag_117\n        /* \"@openzeppelin/contracts/access/AccessControl.sol\":2724:2735  interfaceId */\n      dup3\n        /* \"@openzeppelin/contracts/access/AccessControl.sol\":2700:2723  super.supportsInterface */\n      tag_118\n        /* \"@openzeppelin/contracts/access/AccessControl.sol\":2700:2736  super.supportsInterface(interfaceId) */\n      jump\t// in\n    tag_117:\n        /* \"@openzeppelin/contracts/access/AccessControl.sol\":2649:2736  interfaceId == type(IAccessControl).interfaceId || super.supportsInterface(interfaceId) */\n    tag_116:\n        /* \"@openzeppelin/contracts/access/AccessControl.sol\":2642:2736  return interfaceId == type(IAccessControl).interfaceId || super.supportsInterface(interfaceId) */\n      swap1\n      pop\n        /* \"@openzeppelin/contracts/access/AccessControl.sol\":2541:2743  function supportsInterface(bytes4 interfaceId) public view virtual override returns (bool) {... */\n      swap2\n      swap1\n      pop\n      jump\t// out\n        /* \"@openzeppelin/contracts/access/AccessControl.sol\":3786:3906  function getRoleAdmin(bytes32 role) public view virtual returns (bytes32) {... */\n    tag_37:\n        /* \"@openzeppelin/contracts/access/AccessControl.sol\":3851:3858  bytes32 */\n      0x00\n        /* \"@openzeppelin/contracts/access/AccessControl.sol\":3877:3883  _roles */\n      0x01\n        /* \"@openzeppelin/contracts/access/AccessControl.sol\":3877:3889  _roles[role] */\n      0x00\n        /* \"@openzeppelin/contracts/access/AccessControl.sol\":3884:3888  role */\n      dup4\n        /* \"@openzeppelin/contracts/access/AccessControl.sol\":3877:3889  _roles[role] */\n      dup2\n      mstore\n      0x20\n      add\n      swap1\n      dup2\n      mstore\n      0x20\n      add\n      0x00\n      keccak256\n        /* \"@openzeppelin/contracts/access/AccessControl.sol\":3877:3899  _roles[role].adminRole */\n      0x01\n      add\n      sload\n        /* \"@openzeppelin/contracts/access/AccessControl.sol\":3870:3899  return _roles[role].adminRole */\n      swap1\n      pop\n        /* \"@openzeppelin/contracts/access/AccessControl.sol\":3786:3906  function getRoleAdmin(bytes32 role) public view virtual returns (bytes32) {... */\n      swap2\n      swap1\n      pop\n      jump\t// out\n        /* \"@openzeppelin/contracts/access/AccessControl.sol\":4202:4338  function grantRole(bytes32 role, address account) public virtual onlyRole(getRoleAdmin(role)) {... */\n    tag_43:\n        /* \"@openzeppelin/contracts/access/AccessControl.sol\":4276:4294  getRoleAdmin(role) */\n      tag_120\n        /* \"@openzeppelin/contracts/access/AccessControl.sol\":4289:4293  role */\n      dup3\n        /* \"@openzeppelin/contracts/access/AccessControl.sol\":4276:4288  getRoleAdmin */\n      tag_37\n        /* \"@openzeppelin/contracts/access/AccessControl.sol\":4276:4294  getRoleAdmin(role) */\n      jump\t// in\n    tag_120:\n        /* \"@openzeppelin/contracts/access/AccessControl.sol\":2473:2489  _checkRole(role) */\n      tag_122\n        /* \"@openzeppelin/contracts/access/AccessControl.sol\":2484:2488  role */\n      dup2\n        /* \"@openzeppelin/contracts/access/AccessControl.sol\":2473:2483  _checkRole */\n      tag_123\n        /* \"@openzeppelin/contracts/access/AccessControl.sol\":2473:2489  _checkRole(role) */\n      jump\t// in\n    tag_122:\n        /* \"@openzeppelin/contracts/access/AccessControl.sol\":4306:4331  _grantRole(role, account) */\n      tag_125\n        /* \"@openzeppelin/contracts/access/AccessControl.sol\":4317:4321  role */\n      dup4\n        /* \"@openzeppelin/contracts/access/AccessControl.sol\":4323:4330  account */\n      dup4\n        /* \"@openzeppelin/contracts/access/AccessControl.sol\":4306:4316  _grantRole */\n      tag_126\n        /* \"@openzeppelin/contracts/access/AccessControl.sol\":4306:4331  _grantRole(role, account) */\n      jump\t// in\n    tag_125:\n      pop\n        /* \"@openzeppelin/contracts/access/AccessControl.sol\":4202:4338  function grantRole(bytes32 role, address account) public virtual onlyRole(getRoleAdmin(role)) {... */\n      pop\n      pop\n      pop\n      jump\t// out\n        /* \"@openzeppelin/contracts/access/AccessControl.sol\":5304:5549  function renounceRole(bytes32 role, address callerConfirmation) public virtual {... */\n    tag_46:\n        /* \"@openzeppelin/contracts/access/AccessControl.sol\":5419:5431  _msgSender() */\n      tag_128\n        /* \"@openzeppelin/contracts/access/AccessControl.sol\":5419:5429  _msgSender */\n      tag_129\n        /* \"@openzeppelin/contracts/access/AccessControl.sol\":5419:5431  _msgSender() */\n      jump\t// in\n    tag_128:\n        /* \"@openzeppelin/contracts/access/AccessControl.sol\":5397:5431  callerConfirmation != _msgSender() */\n      0xffffffffffffffffffffffffffffffffffffffff\n      and\n        /* \"@openzeppelin/contracts/access/AccessControl.sol\":5397:5415  callerConfirmation */\n      dup2\n        /* \"@openzeppelin/contracts/access/AccessControl.sol\":5397:5431  callerConfirmation != _msgSender() */\n      0xffffffffffffffffffffffffffffffffffffffff\n      and\n      eq\n        /* \"@openzeppelin/contracts/access/AccessControl.sol\":5393:5495  if (callerConfirmation != _msgSender()) {... */\n      tag_130\n      jumpi\n        /* \"@openzeppelin/contracts/access/AccessControl.sol\":5454:5484  AccessControlBadConfirmation() */\n      mload(0x40)\n      0x6697b23200000000000000000000000000000000000000000000000000000000\n      dup2\n      mstore\n      0x04\n      add\n      mload(0x40)\n      dup1\n      swap2\n      sub\n      swap1\n      revert\n        /* \"@openzeppelin/contracts/access/AccessControl.sol\":5393:5495  if (callerConfirmation != _msgSender()) {... */\n    tag_130:\n        /* \"@openzeppelin/contracts/access/AccessControl.sol\":5505:5542  _revokeRole(role, callerConfirmation) */\n      tag_131\n        /* \"@openzeppelin/contracts/access/AccessControl.sol\":5517:5521  role */\n      dup3\n        /* \"@openzeppelin/contracts/access/AccessControl.sol\":5523:5541  callerConfirmation */\n      dup3\n        /* \"@openzeppelin/contracts/access/AccessControl.sol\":5505:5516  _revokeRole */\n      tag_132\n        /* \"@openzeppelin/contracts/access/AccessControl.sol\":5505:5542  _revokeRole(role, callerConfirmation) */\n      jump\t// in\n    tag_131:\n      pop\n        /* \"@openzeppelin/contracts/access/AccessControl.sol\":5304:5549  function renounceRole(bytes32 role, address callerConfirmation) public virtual {... */\n      pop\n      pop\n      jump\t// out\n        /* \"contracts/PlayerMarket.sol\":815:854  IPlayerShareManager public shareManager */\n    tag_48:\n      0x02\n      0x00\n      swap1\n      sload\n      swap1\n      0x0100\n      exp\n      swap1\n      div\n      0xffffffffffffffffffffffffffffffffffffffff\n      and\n      dup2\n      jump\t// out\n        /* \"contracts/PlayerMarket.sol\":860:883  address public treasury */\n    tag_52:\n      0x03\n      0x00\n      swap1\n      sload\n      swap1\n      0x0100\n      exp\n      swap1\n      div\n      0xffffffffffffffffffffffffffffffffffffffff\n      and\n      dup2\n      jump\t// out\n        /* \"contracts/PlayerMarket.sol\":708:768  bytes32 public constant ADMIN_ROLE = keccak256(\"ADMIN_ROLE\") */\n    tag_56:\n        /* \"contracts/PlayerMarket.sol\":745:768  keccak256(\"ADMIN_ROLE\") */\n      0xa49807205ce4d355092ef5a8a18f56e8913cf4a201fbe287825b095693c21775\n        /* \"contracts/PlayerMarket.sol\":708:768  bytes32 public constant ADMIN_ROLE = keccak256(\"ADMIN_ROLE\") */\n      dup2\n      jump\t// out\n        /* \"contracts/PlayerMarket.sol\":2705:4091  function buyShares(uint256 playerId, uint256 ftkAmount, uint256 minShares) external nonReentrant {... */\n    tag_61:\n        /* \"@openzeppelin/contracts/utils/ReentrancyGuard.sol\":2500:2521  _nonReentrantBefore() */\n      tag_134\n        /* \"@openzeppelin/contracts/utils/ReentrancyGuard.sol\":2500:2519  _nonReentrantBefore */\n      tag_135\n        /* \"@openzeppelin/contracts/utils/ReentrancyGuard.sol\":2500:2521  _nonReentrantBefore() */\n      jump\t// in\n    tag_134:\n        /* \"contracts/PlayerMarket.sol\":2812:2835  PlayerPool storage pool */\n      0x00\n        /* \"contracts/PlayerMarket.sol\":2838:2845  players */\n      0x05\n        /* \"contracts/PlayerMarket.sol\":2838:2855  players[playerId] */\n      0x00\n        /* \"contracts/PlayerMarket.sol\":2846:2854  playerId */\n      dup6\n        /* \"contracts/PlayerMarket.sol\":2838:2855  players[playerId] */\n      dup2\n      mstore\n      0x20\n      add\n      swap1\n      dup2\n      mstore\n      0x20\n      add\n      0x00\n      keccak256\n        /* \"contracts/PlayerMarket.sol\":2812:2855  PlayerPool storage pool = players[playerId] */\n      swap1\n      pop\n        /* \"contracts/PlayerMarket.sol\":2873:2877  pool */\n      dup1\n        /* \"contracts/PlayerMarket.sol\":2873:2884  pool.exists */\n      0x02\n      add\n      0x00\n      swap1\n      sload\n      swap1\n      0x0100\n      exp\n      swap1\n      div\n      0xff\n      and\n        /* \"contracts/PlayerMarket.sol\":2865:2905  require(pool.exists, \"Player not found\") */\n      tag_137\n      jumpi\n      mload(0x40)\n      0x08c379a000000000000000000000000000000000000000000000000000000000\n      dup2\n      mstore\n      0x04\n      add\n      tag_138\n      swap1\n      tag_139\n      jump\t// in\n    tag_138:\n      mload(0x40)\n      dup1\n      swap2\n      sub\n      swap1\n      revert\n    tag_137:\n        /* \"contracts/PlayerMarket.sol\":2935:2936  0 */\n      0x00\n        /* \"contracts/PlayerMarket.sol\":2923:2932  ftkAmount */\n      dup4\n        /* \"contracts/PlayerMarket.sol\":2923:2936  ftkAmount > 0 */\n      gt\n        /* \"contracts/PlayerMarket.sol\":2915:2949  require(ftkAmount > 0, \"Zero FTK\") */\n      tag_140\n      jumpi\n      mload(0x40)\n      0x08c379a000000000000000000000000000000000000000000000000000000000\n      dup2\n      mstore\n      0x04\n      add\n      tag_141\n      swap1\n      tag_142\n      jump\t// in\n    tag_141:\n      mload(0x40)\n      dup1\n      swap2\n      sub\n      swap1\n      revert\n    tag_140:\n        /* \"contracts/PlayerMarket.sol\":2994:2997  ftk */\n      immutable(\"0x42fa20e8c2fc174121a60bb5704cfd8579fc4a2698f9ae487d1310659094676e\")\n        /* \"contracts/PlayerMarket.sol\":2994:3010  ftk.transferFrom */\n      0xffffffffffffffffffffffffffffffffffffffff\n      and\n      0x23b872dd\n        /* \"contracts/PlayerMarket.sol\":3011:3021  msg.sender */\n      caller\n        /* \"contracts/PlayerMarket.sol\":3031:3035  this */\n      address\n        /* \"contracts/PlayerMarket.sol\":3038:3047  ftkAmount */\n      dup7\n        /* \"contracts/PlayerMarket.sol\":2994:3048  ftk.transferFrom(msg.sender, address(this), ftkAmount) */\n      mload(0x40)\n      dup5\n      0xffffffff\n      and\n      0xe0\n      shl\n      dup2\n      mstore\n      0x04\n      add\n      tag_143\n      swap4\n      swap3\n      swap2\n      swap1\n      tag_144\n      jump\t// in\n    tag_143:\n      0x20\n      mload(0x40)\n      dup1\n      dup4\n      sub\n      dup2\n      0x00\n      dup8\n      gas\n      call\n      iszero\n      dup1\n      iszero\n      tag_146\n      jumpi\n      returndatacopy(0x00, 0x00, returndatasize)\n      revert(0x00, returndatasize)\n    tag_146:\n      pop\n      pop\n      pop\n      pop\n      mload(0x40)\n      returndatasize\n      not(0x1f)\n      0x1f\n      dup3\n      add\n      and\n      dup3\n      add\n      dup1\n      0x40\n      mstore\n      pop\n      dup2\n      add\n      swap1\n      tag_147\n      swap2\n      swap1\n      tag_148\n      jump\t// in\n    tag_147:\n      pop\n        /* \"contracts/PlayerMarket.sol\":3092:3103  uint256 fee */\n      0x00\n        /* \"contracts/PlayerMarket.sol\":972:977  10000 */\n      0x2710\n        /* \"contracts/PlayerMarket.sol\":3119:3132  tradingFeeBps */\n      sload(0x04)\n        /* \"contracts/PlayerMarket.sol\":3107:3116  ftkAmount */\n      dup6\n        /* \"contracts/PlayerMarket.sol\":3107:3132  ftkAmount * tradingFeeBps */\n      tag_149\n      swap2\n      swap1\n      tag_150\n      jump\t// in\n    tag_149:\n        /* \"contracts/PlayerMarket.sol\":3106:3151  (ftkAmount * tradingFeeBps) / BPS_DENOMINATOR */\n      tag_151\n      swap2\n      swap1\n      tag_152\n      jump\t// in\n    tag_151:\n        /* \"contracts/PlayerMarket.sol\":3092:3151  uint256 fee = (ftkAmount * tradingFeeBps) / BPS_DENOMINATOR */\n      swap1\n      pop\n        /* \"contracts/PlayerMarket.sol\":3161:3175  uint256 netFTK */\n      0x00\n        /* \"contracts/PlayerMarket.sol\":3190:3193  fee */\n      dup2\n        /* \"contracts/PlayerMarket.sol\":3178:3187  ftkAmount */\n      dup6\n        /* \"contracts/PlayerMarket.sol\":3178:3193  ftkAmount - fee */\n      tag_153\n      swap2\n      swap1\n      tag_154\n      jump\t// in\n    tag_153:\n        /* \"contracts/PlayerMarket.sol\":3161:3193  uint256 netFTK = ftkAmount - fee */\n      swap1\n      pop\n        /* \"contracts/PlayerMarket.sol\":3246:3247  0 */\n      0x00\n        /* \"contracts/PlayerMarket.sol\":3240:3243  fee */\n      dup3\n        /* \"contracts/PlayerMarket.sol\":3240:3247  fee > 0 */\n      gt\n        /* \"contracts/PlayerMarket.sol\":3236:3301  if (fee > 0) {... */\n      iszero\n      tag_155\n      jumpi\n        /* \"contracts/PlayerMarket.sol\":3263:3266  ftk */\n      immutable(\"0x42fa20e8c2fc174121a60bb5704cfd8579fc4a2698f9ae487d1310659094676e\")\n        /* \"contracts/PlayerMarket.sol\":3263:3275  ftk.transfer */\n      0xffffffffffffffffffffffffffffffffffffffff\n      and\n      0xa9059cbb\n        /* \"contracts/PlayerMarket.sol\":3276:3284  treasury */\n      0x03\n      0x00\n      swap1\n      sload\n      swap1\n      0x0100\n      exp\n      swap1\n      div\n      0xffffffffffffffffffffffffffffffffffffffff\n      and\n        /* \"contracts/PlayerMarket.sol\":3286:3289  fee */\n      dup5\n        /* \"contracts/PlayerMarket.sol\":3263:3290  ftk.transfer(treasury, fee) */\n      mload(0x40)\n      dup4\n      0xffffffff\n      and\n      0xe0\n      shl\n      dup2\n      mstore\n      0x04\n      add\n      tag_156\n      swap3\n      swap2\n      swap1\n      tag_157\n      jump\t// in\n    tag_156:\n      0x20\n      mload(0x40)\n      dup1\n      dup4\n      sub\n      dup2\n      0x00\n      dup8\n      gas\n      call\n      iszero\n      dup1\n      iszero\n      tag_159\n      jumpi\n      returndatacopy(0x00, 0x00, returndatasize)\n      revert(0x00, returndatasize)\n    tag_159:\n      pop\n      pop\n      pop\n      pop\n      mload(0x40)\n      returndatasize\n      not(0x1f)\n      0x1f\n      dup3\n      add\n      and\n      dup3\n      add\n      dup1\n      0x40\n      mstore\n      pop\n      dup2\n      add\n      swap1\n      tag_160\n      swap2\n      swap1\n      tag_148\n      jump\t// in\n    tag_160:\n      pop\n        /* \"contracts/PlayerMarket.sol\":3236:3301  if (fee > 0) {... */\n    tag_155:\n        /* \"contracts/PlayerMarket.sol\":3363:3383  uint256 sharesToMint */\n      0x00\n        /* \"contracts/PlayerMarket.sol\":3417:3418  0 */\n      0x00\n        /* \"contracts/PlayerMarket.sol\":3397:3401  pool */\n      dup5\n        /* \"contracts/PlayerMarket.sol\":3397:3413  pool.totalShares */\n      0x00\n      add\n      sload\n        /* \"contracts/PlayerMarket.sol\":3397:3418  pool.totalShares == 0 */\n      sub\n        /* \"contracts/PlayerMarket.sol\":3393:3677  if (pool.totalShares == 0) {... */\n      tag_161\n      jumpi\n        /* \"contracts/PlayerMarket.sol\":3500:3506  netFTK */\n      dup2\n        /* \"contracts/PlayerMarket.sol\":3485:3506  sharesToMint = netFTK */\n      swap1\n      pop\n        /* \"contracts/PlayerMarket.sol\":3393:3677  if (pool.totalShares == 0) {... */\n      jump(tag_162)\n    tag_161:\n        /* \"contracts/PlayerMarket.sol\":3649:3653  pool */\n      dup4\n        /* \"contracts/PlayerMarket.sol\":3649:3666  pool.ftkLiquidity */\n      0x01\n      add\n      sload\n        /* \"contracts/PlayerMarket.sol\":3629:3633  pool */\n      dup5\n        /* \"contracts/PlayerMarket.sol\":3629:3645  pool.totalShares */\n      0x00\n      add\n      sload\n        /* \"contracts/PlayerMarket.sol\":3620:3626  netFTK */\n      dup4\n        /* \"contracts/PlayerMarket.sol\":3620:3645  netFTK * pool.totalShares */\n      tag_163\n      swap2\n      swap1\n      tag_150\n      jump\t// in\n    tag_163:\n        /* \"contracts/PlayerMarket.sol\":3619:3666  (netFTK * pool.totalShares) / pool.ftkLiquidity */\n      tag_164\n      swap2\n      swap1\n      tag_152\n      jump\t// in\n    tag_164:\n        /* \"contracts/PlayerMarket.sol\":3604:3666  sharesToMint = (netFTK * pool.totalShares) / pool.ftkLiquidity */\n      swap1\n      pop\n        /* \"contracts/PlayerMarket.sol\":3393:3677  if (pool.totalShares == 0) {... */\n    tag_162:\n        /* \"contracts/PlayerMarket.sol\":3711:3720  minShares */\n      dup5\n        /* \"contracts/PlayerMarket.sol\":3695:3707  sharesToMint */\n      dup2\n        /* \"contracts/PlayerMarket.sol\":3695:3720  sharesToMint >= minShares */\n      lt\n      iszero\n        /* \"contracts/PlayerMarket.sol\":3687:3742  require(sharesToMint >= minShares, \"Slippage exceeded\") */\n      tag_165\n      jumpi\n      mload(0x40)\n      0x08c379a000000000000000000000000000000000000000000000000000000000\n      dup2\n      mstore\n      0x04\n      add\n      tag_166\n      swap1\n      tag_167\n      jump\t// in\n    tag_166:\n      mload(0x40)\n      dup1\n      swap2\n      sub\n      swap1\n      revert\n    tag_165:\n        /* \"contracts/PlayerMarket.sol\":3796:3808  sharesToMint */\n      dup1\n        /* \"contracts/PlayerMarket.sol\":3776:3780  pool */\n      dup5\n        /* \"contracts/PlayerMarket.sol\":3776:3792  pool.totalShares */\n      0x00\n      add\n      0x00\n        /* \"contracts/PlayerMarket.sol\":3776:3808  pool.totalShares += sharesToMint */\n      dup3\n      dup3\n      sload\n      tag_168\n      swap2\n      swap1\n      tag_169\n      jump\t// in\n    tag_168:\n      swap3\n      pop\n      pop\n      dup2\n      swap1\n      sstore\n      pop\n        /* \"contracts/PlayerMarket.sol\":3839:3845  netFTK */\n      dup2\n        /* \"contracts/PlayerMarket.sol\":3818:3822  pool */\n      dup5\n        /* \"contracts/PlayerMarket.sol\":3818:3835  pool.ftkLiquidity */\n      0x01\n      add\n      0x00\n        /* \"contracts/PlayerMarket.sol\":3818:3845  pool.ftkLiquidity += netFTK */\n      dup3\n      dup3\n      sload\n      tag_170\n      swap2\n      swap1\n      tag_169\n      jump\t// in\n    tag_170:\n      swap3\n      pop\n      pop\n      dup2\n      swap1\n      sstore\n      pop\n        /* \"contracts/PlayerMarket.sol\":3923:3935  sharesToMint */\n      dup1\n        /* \"contracts/PlayerMarket.sol\":3887:3897  userShares */\n      0x06\n        /* \"contracts/PlayerMarket.sol\":3887:3907  userShares[playerId] */\n      0x00\n        /* \"contracts/PlayerMarket.sol\":3898:3906  playerId */\n      dup10\n        /* \"contracts/PlayerMarket.sol\":3887:3907  userShares[playerId] */\n      dup2\n      mstore\n      0x20\n      add\n      swap1\n      dup2\n      mstore\n      0x20\n      add\n      0x00\n      keccak256\n        /* \"contracts/PlayerMarket.sol\":3887:3919  userShares[playerId][msg.sender] */\n      0x00\n        /* \"contracts/PlayerMarket.sol\":3908:3918  msg.sender */\n      caller\n        /* \"contracts/PlayerMarket.sol\":3887:3919  userShares[playerId][msg.sender] */\n      0xffffffffffffffffffffffffffffffffffffffff\n      and\n      0xffffffffffffffffffffffffffffffffffffffff\n      and\n      dup2\n      mstore\n      0x20\n      add\n      swap1\n      dup2\n      mstore\n      0x20\n      add\n      0x00\n      keccak256\n      0x00\n        /* \"contracts/PlayerMarket.sol\":3887:3935  userShares[playerId][msg.sender] += sharesToMint */\n      dup3\n      dup3\n      sload\n      tag_171\n      swap2\n      swap1\n      tag_169\n      jump\t// in\n    tag_171:\n      swap3\n      pop\n      pop\n      dup2\n      swap1\n      sstore\n      pop\n        /* \"contracts/PlayerMarket.sol\":3945:3957  shareManager */\n      0x02\n      0x00\n      swap1\n      sload\n      swap1\n      0x0100\n      exp\n      swap1\n      div\n      0xffffffffffffffffffffffffffffffffffffffff\n      and\n        /* \"contracts/PlayerMarket.sol\":3945:3968  shareManager.mintShares */\n      0xffffffffffffffffffffffffffffffffffffffff\n      and\n      0xf576c938\n        /* \"contracts/PlayerMarket.sol\":3969:3977  playerId */\n      dup9\n        /* \"contracts/PlayerMarket.sol\":3979:3989  msg.sender */\n      caller\n        /* \"contracts/PlayerMarket.sol\":3991:4003  sharesToMint */\n      dup5\n        /* \"contracts/PlayerMarket.sol\":3945:4004  shareManager.mintShares(playerId, msg.sender, sharesToMint) */\n      mload(0x40)\n      dup5\n      0xffffffff\n      and\n      0xe0\n      shl\n      dup2\n      mstore\n      0x04\n      add\n      tag_172\n      swap4\n      swap3\n      swap2\n      swap1\n      tag_173\n      jump\t// in\n    tag_172:\n      0x00\n      mload(0x40)\n      dup1\n      dup4\n      sub\n      dup2\n      0x00\n      dup8\n      dup1\n      extcodesize\n      iszero\n      dup1\n      iszero\n      tag_174\n      jumpi\n      revert(0x00, 0x00)\n    tag_174:\n      pop\n      gas\n      call\n      iszero\n      dup1\n      iszero\n      tag_176\n      jumpi\n      returndatacopy(0x00, 0x00, returndatasize)\n      revert(0x00, returndatasize)\n    tag_176:\n      pop\n      pop\n      pop\n      pop\n        /* \"contracts/PlayerMarket.sol\":4043:4053  msg.sender */\n      caller\n        /* \"contracts/PlayerMarket.sol\":4020:4084  BoughtShares(playerId, msg.sender, ftkAmount, sharesToMint, fee) */\n      0xffffffffffffffffffffffffffffffffffffffff\n      and\n      0xe64e13a60f1ed7c5d8e721fe57012e0227812f9fc5b0538a9aa611ea8507c655\n        /* \"contracts/PlayerMarket.sol\":4033:4041  playerId */\n      dup9\n        /* \"contracts/PlayerMarket.sol\":4055:4064  ftkAmount */\n      dup9\n        /* \"contracts/PlayerMarket.sol\":4066:4078  sharesToMint */\n      dup5\n        /* \"contracts/PlayerMarket.sol\":4080:4083  fee */\n      dup8\n        /* \"contracts/PlayerMarket.sol\":4020:4084  BoughtShares(playerId, msg.sender, ftkAmount, sharesToMint, fee) */\n      mload(0x40)\n      tag_177\n      swap5\n      swap4\n      swap3\n      swap2\n      swap1\n      tag_178\n      jump\t// in\n    tag_177:\n      mload(0x40)\n      dup1\n      swap2\n      sub\n      swap1\n      log2\n        /* \"contracts/PlayerMarket.sol\":2802:4091  {... */\n      pop\n      pop\n      pop\n      pop\n        /* \"@openzeppelin/contracts/utils/ReentrancyGuard.sol\":2542:2562  _nonReentrantAfter() */\n      tag_179\n        /* \"@openzeppelin/contracts/utils/ReentrancyGuard.sol\":2542:2560  _nonReentrantAfter */\n      tag_180\n        /* \"@openzeppelin/contracts/utils/ReentrancyGuard.sol\":2542:2562  _nonReentrantAfter() */\n      jump\t// in\n    tag_179:\n        /* \"contracts/PlayerMarket.sol\":2705:4091  function buyShares(uint256 playerId, uint256 ftkAmount, uint256 minShares) external nonReentrant {... */\n      pop\n      pop\n      pop\n      jump\t// out\n        /* \"contracts/PlayerMarket.sol\":775:809  IFantasyToken public immutable ftk */\n    tag_63:\n      immutable(\"0x42fa20e8c2fc174121a60bb5704cfd8579fc4a2698f9ae487d1310659094676e\")\n      dup2\n      jump\t// out\n        /* \"contracts/PlayerMarket.sol\":5075:5210  function userBalance(uint256 playerId, address user) external view returns (uint256) {... */\n    tag_69:\n        /* \"contracts/PlayerMarket.sol\":5151:5158  uint256 */\n      0x00\n        /* \"contracts/PlayerMarket.sol\":5177:5187  userShares */\n      0x06\n        /* \"contracts/PlayerMarket.sol\":5177:5197  userShares[playerId] */\n      0x00\n        /* \"contracts/PlayerMarket.sol\":5188:5196  playerId */\n      dup5\n        /* \"contracts/PlayerMarket.sol\":5177:5197  userShares[playerId] */\n      dup2\n      mstore\n      0x20\n      add\n      swap1\n      dup2\n      mstore\n      0x20\n      add\n      0x00\n      keccak256\n        /* \"contracts/PlayerMarket.sol\":5177:5203  userShares[playerId][user] */\n      0x00\n        /* \"contracts/PlayerMarket.sol\":5198:5202  user */\n      dup4\n        /* \"contracts/PlayerMarket.sol\":5177:5203  userShares[playerId][user] */\n      0xffffffffffffffffffffffffffffffffffffffff\n      and\n      0xffffffffffffffffffffffffffffffffffffffff\n      and\n      dup2\n      mstore\n      0x20\n      add\n      swap1\n      dup2\n      mstore\n      0x20\n      add\n      0x00\n      keccak256\n      sload\n        /* \"contracts/PlayerMarket.sol\":5170:5203  return userShares[playerId][user] */\n      swap1\n      pop\n        /* \"contracts/PlayerMarket.sol\":5075:5210  function userBalance(uint256 playerId, address user) external view returns (uint256) {... */\n      swap3\n      swap2\n      pop\n      pop\n      jump\t// out\n        /* \"@openzeppelin/contracts/access/AccessControl.sol\":2830:2966  function hasRole(bytes32 role, address account) public view virtual returns (bool) {... */\n    tag_74:\n        /* \"@openzeppelin/contracts/access/AccessControl.sol\":2907:2911  bool */\n      0x00\n        /* \"@openzeppelin/contracts/access/AccessControl.sol\":2930:2936  _roles */\n      0x01\n        /* \"@openzeppelin/contracts/access/AccessControl.sol\":2930:2942  _roles[role] */\n      0x00\n        /* \"@openzeppelin/contracts/access/AccessControl.sol\":2937:2941  role */\n      dup5\n        /* \"@openzeppelin/contracts/access/AccessControl.sol\":2930:2942  _roles[role] */\n      dup2\n      mstore\n      0x20\n      add\n      swap1\n      dup2\n      mstore\n      0x20\n      add\n      0x00\n      keccak256\n        /* \"@openzeppelin/contracts/access/AccessControl.sol\":2930:2950  _roles[role].hasRole */\n      0x00\n      add\n        /* \"@openzeppelin/contracts/access/AccessControl.sol\":2930:2959  _roles[role].hasRole[account] */\n      0x00\n        /* \"@openzeppelin/contracts/access/AccessControl.sol\":2951:2958  account */\n      dup4\n        /* \"@openzeppelin/contracts/access/AccessControl.sol\":2930:2959  _roles[role].hasRole[account] */\n      0xffffffffffffffffffffffffffffffffffffffff\n      and\n      0xffffffffffffffffffffffffffffffffffffffff\n      and\n      dup2\n      mstore\n      0x20\n      add\n      swap1\n      dup2\n      mstore\n      0x20\n      add\n      0x00\n      keccak256\n      0x00\n      swap1\n      sload\n      swap1\n      0x0100\n      exp\n      swap1\n      div\n      0xff\n      and\n        /* \"@openzeppelin/contracts/access/AccessControl.sol\":2923:2959  return _roles[role].hasRole[account] */\n      swap1\n      pop\n        /* \"@openzeppelin/contracts/access/AccessControl.sol\":2830:2966  function hasRole(bytes32 role, address account) public view virtual returns (bool) {... */\n      swap3\n      swap2\n      pop\n      pop\n      jump\t// out\n        /* \"contracts/PlayerMarket.sol\":890:924  uint256 public tradingFeeBps = 200 */\n    tag_77:\n      sload(0x04)\n      dup2\n      jump\t// out\n        /* \"@openzeppelin/contracts/access/AccessControl.sol\":2196:2245  bytes32 public constant DEFAULT_ADMIN_ROLE = 0x00 */\n    tag_80:\n        /* \"@openzeppelin/contracts/access/AccessControl.sol\":2241:2245  0x00 */\n      0x00\n        /* \"@openzeppelin/contracts/access/AccessControl.sol\":2196:2245  bytes32 public constant DEFAULT_ADMIN_ROLE = 0x00 */\n      0x00\n      shl\n      dup2\n      jump\t// out\n        /* \"contracts/PlayerMarket.sol\":1172:1237  mapping(uint256 => mapping(address => uint256)) public userShares */\n    tag_84:\n      mstore(0x20, 0x06)\n      dup2\n      0x00\n      mstore\n      mstore(0x20, keccak256(0x00, 0x40))\n      dup1\n      0x00\n      mstore\n      keccak256(0x00, 0x40)\n      0x00\n      swap2\n      pop\n      swap2\n      pop\n      pop\n      sload\n      dup2\n      jump\t// out\n        /* \"contracts/PlayerMarket.sol\":2502:2699  function setTradingFee(uint256 feeBps) external onlyRole(ADMIN_ROLE) {... */\n    tag_89:\n        /* \"contracts/PlayerMarket.sol\":745:768  keccak256(\"ADMIN_ROLE\") */\n      0xa49807205ce4d355092ef5a8a18f56e8913cf4a201fbe287825b095693c21775\n        /* \"@openzeppelin/contracts/access/AccessControl.sol\":2473:2489  _checkRole(role) */\n      tag_184\n        /* \"@openzeppelin/contracts/access/AccessControl.sol\":2484:2488  role */\n      dup2\n        /* \"@openzeppelin/contracts/access/AccessControl.sol\":2473:2483  _checkRole */\n      tag_123\n        /* \"@openzeppelin/contracts/access/AccessControl.sol\":2473:2489  _checkRole(role) */\n      jump\t// in\n    tag_184:\n        /* \"contracts/PlayerMarket.sol\":2599:2603  1000 */\n      0x03e8\n        /* \"contracts/PlayerMarket.sol\":2589:2595  feeBps */\n      dup3\n        /* \"contracts/PlayerMarket.sol\":2589:2603  feeBps <= 1000 */\n      gt\n      iszero\n        /* \"contracts/PlayerMarket.sol\":2581:2620  require(feeBps <= 1000, \"Fee too high\") */\n      tag_186\n      jumpi\n      mload(0x40)\n      0x08c379a000000000000000000000000000000000000000000000000000000000\n      dup2\n      mstore\n      0x04\n      add\n      tag_187\n      swap1\n      tag_188\n      jump\t// in\n    tag_187:\n      mload(0x40)\n      dup1\n      swap2\n      sub\n      swap1\n      revert\n    tag_186:\n        /* \"contracts/PlayerMarket.sol\":2646:2652  feeBps */\n      dup2\n        /* \"contracts/PlayerMarket.sol\":2630:2643  tradingFeeBps */\n      0x04\n        /* \"contracts/PlayerMarket.sol\":2630:2652  tradingFeeBps = feeBps */\n      dup2\n      swap1\n      sstore\n      pop\n        /* \"contracts/PlayerMarket.sol\":2667:2692  TradingFeeUpdated(feeBps) */\n      0xa3dfe13986da4bcfdc32f544ebe130cb8ec20a2afc45e7c3994975076a08e578\n        /* \"contracts/PlayerMarket.sol\":2685:2691  feeBps */\n      dup3\n        /* \"contracts/PlayerMarket.sol\":2667:2692  TradingFeeUpdated(feeBps) */\n      mload(0x40)\n      tag_189\n      swap2\n      swap1\n      tag_71\n      jump\t// in\n    tag_189:\n      mload(0x40)\n      dup1\n      swap2\n      sub\n      swap1\n      log1\n        /* \"contracts/PlayerMarket.sol\":2502:2699  function setTradingFee(uint256 feeBps) external onlyRole(ADMIN_ROLE) {... */\n      pop\n      pop\n      jump\t// out\n        /* \"contracts/PlayerMarket.sol\":5216:5486  function getSharePrice(uint256 playerId) external view returns (uint256) {... */\n    tag_92:\n        /* \"contracts/PlayerMarket.sol\":5280:5287  uint256 */\n      0x00\n        /* \"contracts/PlayerMarket.sol\":5299:5322  PlayerPool storage pool */\n      0x00\n        /* \"contracts/PlayerMarket.sol\":5325:5332  players */\n      0x05\n        /* \"contracts/PlayerMarket.sol\":5325:5342  players[playerId] */\n      0x00\n        /* \"contracts/PlayerMarket.sol\":5333:5341  playerId */\n      dup5\n        /* \"contracts/PlayerMarket.sol\":5325:5342  players[playerId] */\n      dup2\n      mstore\n      0x20\n      add\n      swap1\n      dup2\n      mstore\n      0x20\n      add\n      0x00\n      keccak256\n        /* \"contracts/PlayerMarket.sol\":5299:5342  PlayerPool storage pool = players[playerId] */\n      swap1\n      pop\n        /* \"contracts/PlayerMarket.sol\":5376:5377  0 */\n      0x00\n        /* \"contracts/PlayerMarket.sol\":5356:5360  pool */\n      dup2\n        /* \"contracts/PlayerMarket.sol\":5356:5372  pool.totalShares */\n      0x00\n      add\n      sload\n        /* \"contracts/PlayerMarket.sol\":5356:5377  pool.totalShares == 0 */\n      sub\n        /* \"contracts/PlayerMarket.sol\":5352:5390  if (pool.totalShares == 0) return 1e18 */\n      tag_191\n      jumpi\n        /* \"contracts/PlayerMarket.sol\":5386:5390  1e18 */\n      0x0de0b6b3a7640000\n        /* \"contracts/PlayerMarket.sol\":5379:5390  return 1e18 */\n      swap2\n      pop\n      pop\n      jump(tag_190)\n        /* \"contracts/PlayerMarket.sol\":5352:5390  if (pool.totalShares == 0) return 1e18 */\n    tag_191:\n        /* \"contracts/PlayerMarket.sol\":5463:5467  pool */\n      dup1\n        /* \"contracts/PlayerMarket.sol\":5463:5479  pool.totalShares */\n      0x00\n      add\n      sload\n        /* \"contracts/PlayerMarket.sol\":5455:5459  1e18 */\n      0x0de0b6b3a7640000\n        /* \"contracts/PlayerMarket.sol\":5435:5439  pool */\n      dup3\n        /* \"contracts/PlayerMarket.sol\":5435:5452  pool.ftkLiquidity */\n      0x01\n      add\n      sload\n        /* \"contracts/PlayerMarket.sol\":5435:5459  pool.ftkLiquidity * 1e18 */\n      tag_192\n      swap2\n      swap1\n      tag_150\n      jump\t// in\n    tag_192:\n        /* \"contracts/PlayerMarket.sol\":5434:5479  (pool.ftkLiquidity * 1e18) / pool.totalShares */\n      tag_193\n      swap2\n      swap1\n      tag_152\n      jump\t// in\n    tag_193:\n        /* \"contracts/PlayerMarket.sol\":5427:5479  return (pool.ftkLiquidity * 1e18) / pool.totalShares */\n      swap2\n      pop\n      pop\n        /* \"contracts/PlayerMarket.sol\":5216:5486  function getSharePrice(uint256 playerId) external view returns (uint256) {... */\n    tag_190:\n      swap2\n      swap1\n      pop\n      jump\t// out\n        /* \"@openzeppelin/contracts/access/AccessControl.sol\":4618:4756  function revokeRole(bytes32 role, address account) public virtual onlyRole(getRoleAdmin(role)) {... */\n    tag_96:\n        /* \"@openzeppelin/contracts/access/AccessControl.sol\":4693:4711  getRoleAdmin(role) */\n      tag_194\n        /* \"@openzeppelin/contracts/access/AccessControl.sol\":4706:4710  role */\n      dup3\n        /* \"@openzeppelin/contracts/access/AccessControl.sol\":4693:4705  getRoleAdmin */\n      tag_37\n        /* \"@openzeppelin/contracts/access/AccessControl.sol\":4693:4711  getRoleAdmin(role) */\n      jump\t// in\n    tag_194:\n        /* \"@openzeppelin/contracts/access/AccessControl.sol\":2473:2489  _checkRole(role) */\n      tag_196\n        /* \"@openzeppelin/contracts/access/AccessControl.sol\":2484:2488  role */\n      dup2\n        /* \"@openzeppelin/contracts/access/AccessControl.sol\":2473:2483  _checkRole */\n      tag_123\n        /* \"@openzeppelin/contracts/access/AccessControl.sol\":2473:2489  _checkRole(role) */\n      jump\t// in\n    tag_196:\n        /* \"@openzeppelin/contracts/access/AccessControl.sol\":4723:4749  _revokeRole(role, account) */\n      tag_198\n        /* \"@openzeppelin/contracts/access/AccessControl.sol\":4735:4739  role */\n      dup4\n        /* \"@openzeppelin/contracts/access/AccessControl.sol\":4741:4748  account */\n      dup4\n        /* \"@openzeppelin/contracts/access/AccessControl.sol\":4723:4734  _revokeRole */\n      tag_132\n        /* \"@openzeppelin/contracts/access/AccessControl.sol\":4723:4749  _revokeRole(role, account) */\n      jump\t// in\n    tag_198:\n      pop\n        /* \"@openzeppelin/contracts/access/AccessControl.sol\":4618:4756  function revokeRole(bytes32 role, address account) public virtual onlyRole(getRoleAdmin(role)) {... */\n      pop\n      pop\n      pop\n      jump\t// out\n        /* \"contracts/PlayerMarket.sol\":4097:5069  function sellShares(uint256 playerId, uint256 shares, uint256 minFTK) external nonReentrant {... */\n    tag_99:\n        /* \"@openzeppelin/contracts/utils/ReentrancyGuard.sol\":2500:2521  _nonReentrantBefore() */\n      tag_200\n        /* \"@openzeppelin/contracts/utils/ReentrancyGuard.sol\":2500:2519  _nonReentrantBefore */\n      tag_135\n        /* \"@openzeppelin/contracts/utils/ReentrancyGuard.sol\":2500:2521  _nonReentrantBefore() */\n      jump\t// in\n    tag_200:\n        /* \"contracts/PlayerMarket.sol\":4199:4222  PlayerPool storage pool */\n      0x00\n        /* \"contracts/PlayerMarket.sol\":4225:4232  players */\n      0x05\n        /* \"contracts/PlayerMarket.sol\":4225:4242  players[playerId] */\n      0x00\n        /* \"contracts/PlayerMarket.sol\":4233:4241  playerId */\n      dup6\n        /* \"contracts/PlayerMarket.sol\":4225:4242  players[playerId] */\n      dup2\n      mstore\n      0x20\n      add\n      swap1\n      dup2\n      mstore\n      0x20\n      add\n      0x00\n      keccak256\n        /* \"contracts/PlayerMarket.sol\":4199:4242  PlayerPool storage pool = players[playerId] */\n      swap1\n      pop\n        /* \"contracts/PlayerMarket.sol\":4260:4264  pool */\n      dup1\n        /* \"contracts/PlayerMarket.sol\":4260:4271  pool.exists */\n      0x02\n      add\n      0x00\n      swap1\n      sload\n      swap1\n      0x0100\n      exp\n      swap1\n      div\n      0xff\n      and\n        /* \"contracts/PlayerMarket.sol\":4252:4292  require(pool.exists, \"Player not found\") */\n      tag_202\n      jumpi\n      mload(0x40)\n      0x08c379a000000000000000000000000000000000000000000000000000000000\n      dup2\n      mstore\n      0x04\n      add\n      tag_203\n      swap1\n      tag_139\n      jump\t// in\n    tag_203:\n      mload(0x40)\n      dup1\n      swap2\n      sub\n      swap1\n      revert\n    tag_202:\n        /* \"contracts/PlayerMarket.sol\":4346:4352  shares */\n      dup3\n        /* \"contracts/PlayerMarket.sol\":4310:4320  userShares */\n      0x06\n        /* \"contracts/PlayerMarket.sol\":4310:4330  userShares[playerId] */\n      0x00\n        /* \"contracts/PlayerMarket.sol\":4321:4329  playerId */\n      dup7\n        /* \"contracts/PlayerMarket.sol\":4310:4330  userShares[playerId] */\n      dup2\n      mstore\n      0x20\n      add\n      swap1\n      dup2\n      mstore\n      0x20\n      add\n      0x00\n      keccak256\n        /* \"contracts/PlayerMarket.sol\":4310:4342  userShares[playerId][msg.sender] */\n      0x00\n        /* \"contracts/PlayerMarket.sol\":4331:4341  msg.sender */\n      caller\n        /* \"contracts/PlayerMarket.sol\":4310:4342  userShares[playerId][msg.sender] */\n      0xffffffffffffffffffffffffffffffffffffffff\n      and\n      0xffffffffffffffffffffffffffffffffffffffff\n      and\n      dup2\n      mstore\n      0x20\n      add\n      swap1\n      dup2\n      mstore\n      0x20\n      add\n      0x00\n      keccak256\n      sload\n        /* \"contracts/PlayerMarket.sol\":4310:4352  userShares[playerId][msg.sender] >= shares */\n      lt\n      iszero\n        /* \"contracts/PlayerMarket.sol\":4302:4376  require(userShares[playerId][msg.sender] >= shares, \"Insufficient shares\") */\n      tag_204\n      jumpi\n      mload(0x40)\n      0x08c379a000000000000000000000000000000000000000000000000000000000\n      dup2\n      mstore\n      0x04\n      add\n      tag_205\n      swap1\n      tag_206\n      jump\t// in\n    tag_205:\n      mload(0x40)\n      dup1\n      swap2\n      sub\n      swap1\n      revert\n    tag_204:\n        /* \"contracts/PlayerMarket.sol\":4446:4463  uint256 ftkReturn */\n      0x00\n        /* \"contracts/PlayerMarket.sol\":4497:4501  pool */\n      dup2\n        /* \"contracts/PlayerMarket.sol\":4497:4513  pool.totalShares */\n      0x00\n      add\n      sload\n        /* \"contracts/PlayerMarket.sol\":4476:4480  pool */\n      dup3\n        /* \"contracts/PlayerMarket.sol\":4476:4493  pool.ftkLiquidity */\n      0x01\n      add\n      sload\n        /* \"contracts/PlayerMarket.sol\":4467:4473  shares */\n      dup6\n        /* \"contracts/PlayerMarket.sol\":4467:4493  shares * pool.ftkLiquidity */\n      tag_207\n      swap2\n      swap1\n      tag_150\n      jump\t// in\n    tag_207:\n        /* \"contracts/PlayerMarket.sol\":4466:4513  (shares * pool.ftkLiquidity) / pool.totalShares */\n      tag_208\n      swap2\n      swap1\n      tag_152\n      jump\t// in\n    tag_208:\n        /* \"contracts/PlayerMarket.sol\":4446:4513  uint256 ftkReturn = (shares * pool.ftkLiquidity) / pool.totalShares */\n      swap1\n      pop\n        /* \"contracts/PlayerMarket.sol\":4524:4535  uint256 fee */\n      0x00\n        /* \"contracts/PlayerMarket.sol\":972:977  10000 */\n      0x2710\n        /* \"contracts/PlayerMarket.sol\":4551:4564  tradingFeeBps */\n      sload(0x04)\n        /* \"contracts/PlayerMarket.sol\":4539:4548  ftkReturn */\n      dup4\n        /* \"contracts/PlayerMarket.sol\":4539:4564  ftkReturn * tradingFeeBps */\n      tag_209\n      swap2\n      swap1\n      tag_150\n      jump\t// in\n    tag_209:\n        /* \"contracts/PlayerMarket.sol\":4538:4583  (ftkReturn * tradingFeeBps) / BPS_DENOMINATOR */\n      tag_210\n      swap2\n      swap1\n      tag_152\n      jump\t// in\n    tag_210:\n        /* \"contracts/PlayerMarket.sol\":4524:4583  uint256 fee = (ftkReturn * tradingFeeBps) / BPS_DENOMINATOR */\n      swap1\n      pop\n        /* \"contracts/PlayerMarket.sol\":4593:4607  uint256 netFTK */\n      0x00\n        /* \"contracts/PlayerMarket.sol\":4622:4625  fee */\n      dup2\n        /* \"contracts/PlayerMarket.sol\":4610:4619  ftkReturn */\n      dup4\n        /* \"contracts/PlayerMarket.sol\":4610:4625  ftkReturn - fee */\n      tag_211\n      swap2\n      swap1\n      tag_154\n      jump\t// in\n    tag_211:\n        /* \"contracts/PlayerMarket.sol\":4593:4625  uint256 netFTK = ftkReturn - fee */\n      swap1\n      pop\n        /* \"contracts/PlayerMarket.sol\":4654:4660  minFTK */\n      dup5\n        /* \"contracts/PlayerMarket.sol\":4644:4650  netFTK */\n      dup2\n        /* \"contracts/PlayerMarket.sol\":4644:4660  netFTK >= minFTK */\n      lt\n      iszero\n        /* \"contracts/PlayerMarket.sol\":4636:4682  require(netFTK >= minFTK, \"Slippage exceeded\") */\n      tag_212\n      jumpi\n      mload(0x40)\n      0x08c379a000000000000000000000000000000000000000000000000000000000\n      dup2\n      mstore\n      0x04\n      add\n      tag_213\n      swap1\n      tag_167\n      jump\t// in\n    tag_213:\n      mload(0x40)\n      dup1\n      swap2\n      sub\n      swap1\n      revert\n    tag_212:\n        /* \"contracts/PlayerMarket.sol\":4713:4719  shares */\n      dup6\n        /* \"contracts/PlayerMarket.sol\":4693:4697  pool */\n      dup5\n        /* \"contracts/PlayerMarket.sol\":4693:4709  pool.totalShares */\n      0x00\n      add\n      0x00\n        /* \"contracts/PlayerMarket.sol\":4693:4719  pool.totalShares -= shares */\n      dup3\n      dup3\n      sload\n      tag_214\n      swap2\n      swap1\n      tag_154\n      jump\t// in\n    tag_214:\n      swap3\n      pop\n      pop\n      dup2\n      swap1\n      sstore\n      pop\n        /* \"contracts/PlayerMarket.sol\":4750:4759  ftkReturn */\n      dup3\n        /* \"contracts/PlayerMarket.sol\":4729:4733  pool */\n      dup5\n        /* \"contracts/PlayerMarket.sol\":4729:4746  pool.ftkLiquidity */\n      0x01\n      add\n      0x00\n        /* \"contracts/PlayerMarket.sol\":4729:4759  pool.ftkLiquidity -= ftkReturn */\n      dup3\n      dup3\n      sload\n      tag_215\n      swap2\n      swap1\n      tag_154\n      jump\t// in\n    tag_215:\n      swap3\n      pop\n      pop\n      dup2\n      swap1\n      sstore\n      pop\n        /* \"contracts/PlayerMarket.sol\":4806:4812  shares */\n      dup6\n        /* \"contracts/PlayerMarket.sol\":4770:4780  userShares */\n      0x06\n        /* \"contracts/PlayerMarket.sol\":4770:4790  userShares[playerId] */\n      0x00\n        /* \"contracts/PlayerMarket.sol\":4781:4789  playerId */\n      dup10\n        /* \"contracts/PlayerMarket.sol\":4770:4790  userShares[playerId] */\n      dup2\n      mstore\n      0x20\n      add\n      swap1\n      dup2\n      mstore\n      0x20\n      add\n      0x00\n      keccak256\n        /* \"contracts/PlayerMarket.sol\":4770:4802  userShares[playerId][msg.sender] */\n      0x00\n        /* \"contracts/PlayerMarket.sol\":4791:4801  msg.sender */\n      caller\n        /* \"contracts/PlayerMarket.sol\":4770:4802  userShares[playerId][msg.sender] */\n      0xffffffffffffffffffffffffffffffffffffffff\n      and\n      0xffffffffffffffffffffffffffffffffffffffff\n      and\n      dup2\n      mstore\n      0x20\n      add\n      swap1\n      dup2\n      mstore\n      0x20\n      add\n      0x00\n      keccak256\n      0x00\n        /* \"contracts/PlayerMarket.sol\":4770:4812  userShares[playerId][msg.sender] -= shares */\n      dup3\n      dup3\n      sload\n      tag_216\n      swap2\n      swap1\n      tag_154\n      jump\t// in\n    tag_216:\n      swap3\n      pop\n      pop\n      dup2\n      swap1\n      sstore\n      pop\n        /* \"contracts/PlayerMarket.sol\":4822:4834  shareManager */\n      0x02\n      0x00\n      swap1\n      sload\n      swap1\n      0x0100\n      exp\n      swap1\n      div\n      0xffffffffffffffffffffffffffffffffffffffff\n      and\n        /* \"contracts/PlayerMarket.sol\":4822:4845  shareManager.burnShares */\n      0xffffffffffffffffffffffffffffffffffffffff\n      and\n      0xd9881acc\n        /* \"contracts/PlayerMarket.sol\":4846:4854  playerId */\n      dup9\n        /* \"contracts/PlayerMarket.sol\":4856:4866  msg.sender */\n      caller\n        /* \"contracts/PlayerMarket.sol\":4868:4874  shares */\n      dup10\n        /* \"contracts/PlayerMarket.sol\":4822:4875  shareManager.burnShares(playerId, msg.sender, shares) */\n      mload(0x40)\n      dup5\n      0xffffffff\n      and\n      0xe0\n      shl\n      dup2\n      mstore\n      0x04\n      add\n      tag_217\n      swap4\n      swap3\n      swap2\n      swap1\n      tag_173\n      jump\t// in\n    tag_217:\n      0x00\n      mload(0x40)\n      dup1\n      dup4\n      sub\n      dup2\n      0x00\n      dup8\n      dup1\n      extcodesize\n      iszero\n      dup1\n      iszero\n      tag_218\n      jumpi\n      revert(0x00, 0x00)\n    tag_218:\n      pop\n      gas\n      call\n      iszero\n      dup1\n      iszero\n      tag_220\n      jumpi\n      returndatacopy(0x00, 0x00, returndatasize)\n      revert(0x00, returndatasize)\n    tag_220:\n      pop\n      pop\n      pop\n      pop\n        /* \"contracts/PlayerMarket.sol\":4886:4889  ftk */\n      immutable(\"0x42fa20e8c2fc174121a60bb5704cfd8579fc4a2698f9ae487d1310659094676e\")\n        /* \"contracts/PlayerMarket.sol\":4886:4898  ftk.transfer */\n      0xffffffffffffffffffffffffffffffffffffffff\n      and\n      0xa9059cbb\n        /* \"contracts/PlayerMarket.sol\":4899:4909  msg.sender */\n      caller\n        /* \"contracts/PlayerMarket.sol\":4911:4917  netFTK */\n      dup4\n        /* \"contracts/PlayerMarket.sol\":4886:4918  ftk.transfer(msg.sender, netFTK) */\n      mload(0x40)\n      dup4\n      0xffffffff\n      and\n      0xe0\n      shl\n      dup2\n      mstore\n      0x04\n      add\n      tag_221\n      swap3\n      swap2\n      swap1\n      tag_157\n      jump\t// in\n    tag_221:\n      0x20\n      mload(0x40)\n      dup1\n      dup4\n      sub\n      dup2\n      0x00\n      dup8\n      gas\n      call\n      iszero\n      dup1\n      iszero\n      tag_223\n      jumpi\n      returndatacopy(0x00, 0x00, returndatasize)\n      revert(0x00, returndatasize)\n    tag_223:\n      pop\n      pop\n      pop\n      pop\n      mload(0x40)\n      returndatasize\n      not(0x1f)\n      0x1f\n      dup3\n      add\n      and\n      dup3\n      add\n      dup1\n      0x40\n      mstore\n      pop\n      dup2\n      add\n      swap1\n      tag_224\n      swap2\n      swap1\n      tag_148\n      jump\t// in\n    tag_224:\n      pop\n        /* \"contracts/PlayerMarket.sol\":4939:4940  0 */\n      0x00\n        /* \"contracts/PlayerMarket.sol\":4933:4936  fee */\n      dup3\n        /* \"contracts/PlayerMarket.sol\":4933:4940  fee > 0 */\n      gt\n        /* \"contracts/PlayerMarket.sol\":4929:4994  if (fee > 0) {... */\n      iszero\n      tag_225\n      jumpi\n        /* \"contracts/PlayerMarket.sol\":4956:4959  ftk */\n      immutable(\"0x42fa20e8c2fc174121a60bb5704cfd8579fc4a2698f9ae487d1310659094676e\")\n        /* \"contracts/PlayerMarket.sol\":4956:4968  ftk.transfer */\n      0xffffffffffffffffffffffffffffffffffffffff\n      and\n      0xa9059cbb\n        /* \"contracts/PlayerMarket.sol\":4969:4977  treasury */\n      0x03\n      0x00\n      swap1\n      sload\n      swap1\n      0x0100\n      exp\n      swap1\n      div\n      0xffffffffffffffffffffffffffffffffffffffff\n      and\n        /* \"contracts/PlayerMarket.sol\":4979:4982  fee */\n      dup5\n        /* \"contracts/PlayerMarket.sol\":4956:4983  ftk.transfer(treasury, fee) */\n      mload(0x40)\n      dup4\n      0xffffffff\n      and\n      0xe0\n      shl\n      dup2\n      mstore\n      0x04\n      add\n      tag_226\n      swap3\n      swap2\n      swap1\n      tag_157\n      jump\t// in\n    tag_226:\n      0x20\n      mload(0x40)\n      dup1\n      dup4\n      sub\n      dup2\n      0x00\n      dup8\n      gas\n      call\n      iszero\n      dup1\n      iszero\n      tag_228\n      jumpi\n      returndatacopy(0x00, 0x00, returndatasize)\n      revert(0x00, returndatasize)\n    tag_228:\n      pop\n      pop\n      pop\n      pop\n      mload(0x40)\n      returndatasize\n      not(0x1f)\n      0x1f\n      dup3\n      add\n      and\n      dup3\n      add\n      dup1\n      0x40\n      mstore\n      pop\n      dup2\n      add\n      swap1\n      tag_229\n      swap2\n      swap1\n      tag_148\n      jump\t// in\n    tag_229:\n      pop\n        /* \"contracts/PlayerMarket.sol\":4929:4994  if (fee > 0) {... */\n    tag_225:\n        /* \"contracts/PlayerMarket.sol\":5030:5040  msg.sender */\n      caller\n        /* \"contracts/PlayerMarket.sol\":5009:5062  SoldShares(playerId, msg.sender, shares, netFTK, fee) */\n      0xffffffffffffffffffffffffffffffffffffffff\n      and\n      0x2c68d33e5c92efc182eec06ac794258dfedcc114aac3b5fa9bdc19a4b7871f1a\n        /* \"contracts/PlayerMarket.sol\":5020:5028  playerId */\n      dup9\n        /* \"contracts/PlayerMarket.sol\":5042:5048  shares */\n      dup9\n        /* \"contracts/PlayerMarket.sol\":5050:5056  netFTK */\n      dup5\n        /* \"contracts/PlayerMarket.sol\":5058:5061  fee */\n      dup7\n        /* \"contracts/PlayerMarket.sol\":5009:5062  SoldShares(playerId, msg.sender, shares, netFTK, fee) */\n      mload(0x40)\n      tag_230\n      swap5\n      swap4\n      swap3\n      swap2\n      swap1\n      tag_178\n      jump\t// in\n    tag_230:\n      mload(0x40)\n      dup1\n      swap2\n      sub\n      swap1\n      log2\n        /* \"contracts/PlayerMarket.sol\":4189:5069  {... */\n      pop\n      pop\n      pop\n      pop\n        /* \"@openzeppelin/contracts/utils/ReentrancyGuard.sol\":2542:2562  _nonReentrantAfter() */\n      tag_231\n        /* \"@openzeppelin/contracts/utils/ReentrancyGuard.sol\":2542:2560  _nonReentrantAfter */\n      tag_180\n        /* \"@openzeppelin/contracts/utils/ReentrancyGuard.sol\":2542:2562  _nonReentrantAfter() */\n      jump\t// in\n    tag_231:\n        /* \"contracts/PlayerMarket.sol\":4097:5069  function sellShares(uint256 playerId, uint256 shares, uint256 minFTK) external nonReentrant {... */\n      pop\n      pop\n      pop\n      jump\t// out\n        /* \"contracts/PlayerMarket.sol\":930:977  uint256 public constant BPS_DENOMINATOR = 10000 */\n    tag_101:\n        /* \"contracts/PlayerMarket.sol\":972:977  10000 */\n      0x2710\n        /* \"contracts/PlayerMarket.sol\":930:977  uint256 public constant BPS_DENOMINATOR = 10000 */\n      dup2\n      jump\t// out\n        /* \"contracts/PlayerMarket.sol\":2020:2280  function addPlayer(uint256 playerId) external onlyRole(ADMIN_ROLE) {... */\n    tag_105:\n        /* \"contracts/PlayerMarket.sol\":745:768  keccak256(\"ADMIN_ROLE\") */\n      0xa49807205ce4d355092ef5a8a18f56e8913cf4a201fbe287825b095693c21775\n        /* \"@openzeppelin/contracts/access/AccessControl.sol\":2473:2489  _checkRole(role) */\n      tag_233\n        /* \"@openzeppelin/contracts/access/AccessControl.sol\":2484:2488  role */\n      dup2\n        /* \"@openzeppelin/contracts/access/AccessControl.sol\":2473:2483  _checkRole */\n      tag_123\n        /* \"@openzeppelin/contracts/access/AccessControl.sol\":2473:2489  _checkRole(role) */\n      jump\t// in\n    tag_233:\n        /* \"contracts/PlayerMarket.sol\":2106:2113  players */\n      0x05\n        /* \"contracts/PlayerMarket.sol\":2106:2123  players[playerId] */\n      0x00\n        /* \"contracts/PlayerMarket.sol\":2114:2122  playerId */\n      dup4\n        /* \"contracts/PlayerMarket.sol\":2106:2123  players[playerId] */\n      dup2\n      mstore\n      0x20\n      add\n      swap1\n      dup2\n      mstore\n      0x20\n      add\n      0x00\n      keccak256\n        /* \"contracts/PlayerMarket.sol\":2106:2130  players[playerId].exists */\n      0x02\n      add\n      0x00\n      swap1\n      sload\n      swap1\n      0x0100\n      exp\n      swap1\n      div\n      0xff\n      and\n        /* \"contracts/PlayerMarket.sol\":2105:2130  !players[playerId].exists */\n      iszero\n        /* \"contracts/PlayerMarket.sol\":2097:2148  require(!players[playerId].exists, \"Player exists\") */\n      tag_235\n      jumpi\n      mload(0x40)\n      0x08c379a000000000000000000000000000000000000000000000000000000000\n      dup2\n      mstore\n      0x04\n      add\n      tag_236\n      swap1\n      tag_237\n      jump\t// in\n    tag_236:\n      mload(0x40)\n      dup1\n      swap2\n      sub\n      swap1\n      revert\n    tag_235:\n        /* \"contracts/PlayerMarket.sol\":2178:2237  PlayerPool({totalShares: 0, ftkLiquidity: 0, exists: true}) */\n      mload(0x40)\n      dup1\n      0x60\n      add\n      0x40\n      mstore\n      dup1\n        /* \"contracts/PlayerMarket.sol\":2203:2204  0 */\n      0x00\n        /* \"contracts/PlayerMarket.sol\":2178:2237  PlayerPool({totalShares: 0, ftkLiquidity: 0, exists: true}) */\n      dup2\n      mstore\n      0x20\n      add\n        /* \"contracts/PlayerMarket.sol\":2220:2221  0 */\n      0x00\n        /* \"contracts/PlayerMarket.sol\":2178:2237  PlayerPool({totalShares: 0, ftkLiquidity: 0, exists: true}) */\n      dup2\n      mstore\n      0x20\n      add\n        /* \"contracts/PlayerMarket.sol\":2231:2235  true */\n      0x01\n        /* \"contracts/PlayerMarket.sol\":2178:2237  PlayerPool({totalShares: 0, ftkLiquidity: 0, exists: true}) */\n      iszero\n      iszero\n      dup2\n      mstore\n      pop\n        /* \"contracts/PlayerMarket.sol\":2158:2165  players */\n      0x05\n        /* \"contracts/PlayerMarket.sol\":2158:2175  players[playerId] */\n      0x00\n        /* \"contracts/PlayerMarket.sol\":2166:2174  playerId */\n      dup5\n        /* \"contracts/PlayerMarket.sol\":2158:2175  players[playerId] */\n      dup2\n      mstore\n      0x20\n      add\n      swap1\n      dup2\n      mstore\n      0x20\n      add\n      0x00\n      keccak256\n        /* \"contracts/PlayerMarket.sol\":2158:2237  players[playerId] = PlayerPool({totalShares: 0, ftkLiquidity: 0, exists: true}) */\n      0x00\n      dup3\n      add\n      mload\n      dup2\n      0x00\n      add\n      sstore\n      0x20\n      dup3\n      add\n      mload\n      dup2\n      0x01\n      add\n      sstore\n      0x40\n      dup3\n      add\n      mload\n      dup2\n      0x02\n      add\n      exp(0x0100, 0x00)\n      dup2\n      sload\n      dup2\n      0xff\n      mul\n      not\n      and\n      swap1\n      dup4\n      iszero\n      iszero\n      mul\n      or\n      swap1\n      sstore\n      pop\n      swap1\n      pop\n      pop\n        /* \"contracts/PlayerMarket.sol\":2252:2273  PlayerAdded(playerId) */\n      0x5af403e238a3f8f7d43c05ff2fac53c833e031e8fb8ec011b3c8e073d870ad7b\n        /* \"contracts/PlayerMarket.sol\":2264:2272  playerId */\n      dup3\n        /* \"contracts/PlayerMarket.sol\":2252:2273  PlayerAdded(playerId) */\n      mload(0x40)\n      tag_238\n      swap2\n      swap1\n      tag_71\n      jump\t// in\n    tag_238:\n      mload(0x40)\n      dup1\n      swap2\n      sub\n      swap1\n      log1\n        /* \"contracts/PlayerMarket.sol\":2020:2280  function addPlayer(uint256 playerId) external onlyRole(ADMIN_ROLE) {... */\n      pop\n      pop\n      jump\t// out\n        /* \"contracts/PlayerMarket.sol\":2286:2496  function setTreasury(address _treasury) external onlyRole(ADMIN_ROLE) {... */\n    tag_109:\n        /* \"contracts/PlayerMarket.sol\":745:768  keccak256(\"ADMIN_ROLE\") */\n      0xa49807205ce4d355092ef5a8a18f56e8913cf4a201fbe287825b095693c21775\n        /* \"@openzeppelin/contracts/access/AccessControl.sol\":2473:2489  _checkRole(role) */\n      tag_240\n        /* \"@openzeppelin/contracts/access/AccessControl.sol\":2484:2488  role */\n      dup2\n        /* \"@openzeppelin/contracts/access/AccessControl.sol\":2473:2483  _checkRole */\n      tag_123\n        /* \"@openzeppelin/contracts/access/AccessControl.sol\":2473:2489  _checkRole(role) */\n      jump\t// in\n    tag_240:\n        /* \"contracts/PlayerMarket.sol\":2395:2396  0 */\n      0x00\n        /* \"contracts/PlayerMarket.sol\":2374:2397  _treasury != address(0) */\n      0xffffffffffffffffffffffffffffffffffffffff\n      and\n        /* \"contracts/PlayerMarket.sol\":2374:2383  _treasury */\n      dup3\n        /* \"contracts/PlayerMarket.sol\":2374:2397  _treasury != address(0) */\n      0xffffffffffffffffffffffffffffffffffffffff\n      and\n      sub\n        /* \"contracts/PlayerMarket.sol\":2366:2418  require(_treasury != address(0), \"Invalid treasury\") */\n      tag_242\n      jumpi\n      mload(0x40)\n      0x08c379a000000000000000000000000000000000000000000000000000000000\n      dup2\n      mstore\n      0x04\n      add\n      tag_243\n      swap1\n      tag_244\n      jump\t// in\n    tag_243:\n      mload(0x40)\n      dup1\n      swap2\n      sub\n      swap1\n      revert\n    tag_242:\n        /* \"contracts/PlayerMarket.sol\":2439:2448  _treasury */\n      dup2\n        /* \"contracts/PlayerMarket.sol\":2428:2436  treasury */\n      0x03\n      0x00\n        /* \"contracts/PlayerMarket.sol\":2428:2448  treasury = _treasury */\n      0x0100\n      exp\n      dup2\n      sload\n      dup2\n      0xffffffffffffffffffffffffffffffffffffffff\n      mul\n      not\n      and\n      swap1\n      dup4\n      0xffffffffffffffffffffffffffffffffffffffff\n      and\n      mul\n      or\n      swap1\n      sstore\n      pop\n        /* \"contracts/PlayerMarket.sol\":2463:2489  TreasuryUpdated(_treasury) */\n      0x7dae230f18360d76a040c81f050aa14eb9d6dc7901b20fc5d855e2a20fe814d1\n        /* \"contracts/PlayerMarket.sol\":2479:2488  _treasury */\n      dup3\n        /* \"contracts/PlayerMarket.sol\":2463:2489  TreasuryUpdated(_treasury) */\n      mload(0x40)\n      tag_245\n      swap2\n      swap1\n      tag_54\n      jump\t// in\n    tag_245:\n      mload(0x40)\n      dup1\n      swap2\n      sub\n      swap1\n      log1\n        /* \"contracts/PlayerMarket.sol\":2286:2496  function setTreasury(address _treasury) external onlyRole(ADMIN_ROLE) {... */\n      pop\n      pop\n      jump\t// out\n        /* \"contracts/PlayerMarket.sol\":1095:1140  mapping(uint256 => PlayerPool) public players */\n    tag_112:\n      mstore(0x20, 0x05)\n      dup1\n      0x00\n      mstore\n      keccak256(0x00, 0x40)\n      0x00\n      swap2\n      pop\n      swap1\n      pop\n      dup1\n      0x00\n      add\n      sload\n      swap1\n      dup1\n      0x01\n      add\n      sload\n      swap1\n      dup1\n      0x02\n      add\n      0x00\n      swap1\n      sload\n      swap1\n      0x0100\n      exp\n      swap1\n      div\n      0xff\n      and\n      swap1\n      pop\n      dup4\n      jump\t// out\n        /* \"@openzeppelin/contracts/utils/introspection/ERC165.sol\":730:876  function supportsInterface(bytes4 interfaceId) public view virtual returns (bool) {... */\n    tag_118:\n        /* \"@openzeppelin/contracts/utils/introspection/ERC165.sol\":806:810  bool */\n      0x00\n        /* \"@openzeppelin/contracts/utils/introspection/ERC165.sol\":844:869  type(IERC165).interfaceId */\n      0x01ffc9a700000000000000000000000000000000000000000000000000000000\n        /* \"@openzeppelin/contracts/utils/introspection/ERC165.sol\":829:869  interfaceId == type(IERC165).interfaceId */\n      not(0xffffffffffffffffffffffffffffffffffffffffffffffffffffffff)\n      and\n        /* \"@openzeppelin/contracts/utils/introspection/ERC165.sol\":829:840  interfaceId */\n      dup3\n        /* \"@openzeppelin/contracts/utils/introspection/ERC165.sol\":829:869  interfaceId == type(IERC165).interfaceId */\n      not(0xffffffffffffffffffffffffffffffffffffffffffffffffffffffff)\n      and\n      eq\n        /* \"@openzeppelin/contracts/utils/introspection/ERC165.sol\":822:869  return interfaceId == type(IERC165).interfaceId */\n      swap1\n      pop\n        /* \"@openzeppelin/contracts/utils/introspection/ERC165.sol\":730:876  function supportsInterface(bytes4 interfaceId) public view virtual returns (bool) {... */\n      swap2\n      swap1\n      pop\n      jump\t// out\n        /* \"@openzeppelin/contracts/access/AccessControl.sol\":3175:3278  function _checkRole(bytes32 role) internal view virtual {... */\n    tag_123:\n        /* \"@openzeppelin/contracts/access/AccessControl.sol\":3241:3271  _checkRole(role, _msgSender()) */\n      tag_248\n        /* \"@openzeppelin/contracts/access/AccessControl.sol\":3252:3256  role */\n      dup2\n        /* \"@openzeppelin/contracts/access/AccessControl.sol\":3258:3270  _msgSender() */\n      tag_249\n        /* \"@openzeppelin/contracts/access/AccessControl.sol\":3258:3268  _msgSender */\n      tag_129\n        /* \"@openzeppelin/contracts/access/AccessControl.sol\":3258:3270  _msgSender() */\n      jump\t// in\n    tag_249:\n        /* \"@openzeppelin/contracts/access/AccessControl.sol\":3241:3251  _checkRole */\n      tag_250\n        /* \"@openzeppelin/contracts/access/AccessControl.sol\":3241:3271  _checkRole(role, _msgSender()) */\n      jump\t// in\n    tag_248:\n        /* \"@openzeppelin/contracts/access/AccessControl.sol\":3175:3278  function _checkRole(bytes32 role) internal view virtual {... */\n      pop\n      jump\t// out\n        /* \"@openzeppelin/contracts/access/AccessControl.sol\":6155:6471  function _grantRole(bytes32 role, address account) internal virtual returns (bool) {... */\n    tag_126:\n        /* \"@openzeppelin/contracts/access/AccessControl.sol\":6232:6236  bool */\n      0x00\n        /* \"@openzeppelin/contracts/access/AccessControl.sol\":6253:6275  hasRole(role, account) */\n      tag_252\n        /* \"@openzeppelin/contracts/access/AccessControl.sol\":6261:6265  role */\n      dup4\n        /* \"@openzeppelin/contracts/access/AccessControl.sol\":6267:6274  account */\n      dup4\n        /* \"@openzeppelin/contracts/access/AccessControl.sol\":6253:6260  hasRole */\n      tag_74\n        /* \"@openzeppelin/contracts/access/AccessControl.sol\":6253:6275  hasRole(role, account) */\n      jump\t// in\n    tag_252:\n        /* \"@openzeppelin/contracts/access/AccessControl.sol\":6248:6465  if (!hasRole(role, account)) {... */\n      tag_253\n      jumpi\n        /* \"@openzeppelin/contracts/access/AccessControl.sol\":6323:6327  true */\n      0x01\n        /* \"@openzeppelin/contracts/access/AccessControl.sol\":6291:6297  _roles */\n      dup1\n        /* \"@openzeppelin/contracts/access/AccessControl.sol\":6291:6303  _roles[role] */\n      0x00\n        /* \"@openzeppelin/contracts/access/AccessControl.sol\":6298:6302  role */\n      dup6\n        /* \"@openzeppelin/contracts/access/AccessControl.sol\":6291:6303  _roles[role] */\n      dup2\n      mstore\n      0x20\n      add\n      swap1\n      dup2\n      mstore\n      0x20\n      add\n      0x00\n      keccak256\n        /* \"@openzeppelin/contracts/access/AccessControl.sol\":6291:6311  _roles[role].hasRole */\n      0x00\n      add\n        /* \"@openzeppelin/contracts/access/AccessControl.sol\":6291:6320  _roles[role].hasRole[account] */\n      0x00\n        /* \"@openzeppelin/contracts/access/AccessControl.sol\":6312:6319  account */\n      dup5\n        /* \"@openzeppelin/contracts/access/AccessControl.sol\":6291:6320  _roles[role].hasRole[account] */\n      0xffffffffffffffffffffffffffffffffffffffff\n      and\n      0xffffffffffffffffffffffffffffffffffffffff\n      and\n      dup2\n      mstore\n      0x20\n      add\n      swap1\n      dup2\n      mstore\n      0x20\n      add\n      0x00\n      keccak256\n      0x00\n        /* \"@openzeppelin/contracts/access/AccessControl.sol\":6291:6327  _roles[role].hasRole[account] = true */\n      0x0100\n      exp\n      dup2\n      sload\n      dup2\n      0xff\n      mul\n      not\n      and\n      swap1\n      dup4\n      iszero\n      iszero\n      mul\n      or\n      swap1\n      sstore\n      pop\n        /* \"@openzeppelin/contracts/access/AccessControl.sol\":6373:6385  _msgSender() */\n      tag_254\n        /* \"@openzeppelin/contracts/access/AccessControl.sol\":6373:6383  _msgSender */\n      tag_129\n        /* \"@openzeppelin/contracts/access/AccessControl.sol\":6373:6385  _msgSender() */\n      jump\t// in\n    tag_254:\n        /* \"@openzeppelin/contracts/access/AccessControl.sol\":6346:6386  RoleGranted(role, account, _msgSender()) */\n      0xffffffffffffffffffffffffffffffffffffffff\n      and\n        /* \"@openzeppelin/contracts/access/AccessControl.sol\":6364:6371  account */\n      dup3\n        /* \"@openzeppelin/contracts/access/AccessControl.sol\":6346:6386  RoleGranted(role, account, _msgSender()) */\n      0xffffffffffffffffffffffffffffffffffffffff\n      and\n        /* \"@openzeppelin/contracts/access/AccessControl.sol\":6358:6362  role */\n      dup5\n        /* \"@openzeppelin/contracts/access/AccessControl.sol\":6346:6386  RoleGranted(role, account, _msgSender()) */\n      0x2f8788117e7eff1d82e926ec794901d17c78024a50270940304540a733656f0d\n      mload(0x40)\n      mload(0x40)\n      dup1\n      swap2\n      sub\n      swap1\n      log4\n        /* \"@openzeppelin/contracts/access/AccessControl.sol\":6407:6411  true */\n      0x01\n        /* \"@openzeppelin/contracts/access/AccessControl.sol\":6400:6411  return true */\n      swap1\n      pop\n      jump(tag_251)\n        /* \"@openzeppelin/contracts/access/AccessControl.sol\":6248:6465  if (!hasRole(role, account)) {... */\n    tag_253:\n        /* \"@openzeppelin/contracts/access/AccessControl.sol\":6449:6454  false */\n      0x00\n        /* \"@openzeppelin/contracts/access/AccessControl.sol\":6442:6454  return false */\n      swap1\n      pop\n        /* \"@openzeppelin/contracts/access/AccessControl.sol\":6155:6471  function _grantRole(bytes32 role, address account) internal virtual returns (bool) {... */\n    tag_251:\n      swap3\n      swap2\n      pop\n      pop\n      jump\t// out\n        /* \"@openzeppelin/contracts/utils/Context.sol\":656:752  function _msgSender() internal view virtual returns (address) {... */\n    tag_129:\n        /* \"@openzeppelin/contracts/utils/Context.sol\":709:716  address */\n      0x00\n        /* \"@openzeppelin/contracts/utils/Context.sol\":735:745  msg.sender */\n      caller\n        /* \"@openzeppelin/contracts/utils/Context.sol\":728:745  return msg.sender */\n      swap1\n      pop\n        /* \"@openzeppelin/contracts/utils/Context.sol\":656:752  function _msgSender() internal view virtual returns (address) {... */\n      swap1\n      jump\t// out\n        /* \"@openzeppelin/contracts/access/AccessControl.sol\":6708:7025  function _revokeRole(bytes32 role, address account) internal virtual returns (bool) {... */\n    tag_132:\n        /* \"@openzeppelin/contracts/access/AccessControl.sol\":6786:6790  bool */\n      0x00\n        /* \"@openzeppelin/contracts/access/AccessControl.sol\":6806:6828  hasRole(role, account) */\n      tag_258\n        /* \"@openzeppelin/contracts/access/AccessControl.sol\":6814:6818  role */\n      dup4\n        /* \"@openzeppelin/contracts/access/AccessControl.sol\":6820:6827  account */\n      dup4\n        /* \"@openzeppelin/contracts/access/AccessControl.sol\":6806:6813  hasRole */\n      tag_74\n        /* \"@openzeppelin/contracts/access/AccessControl.sol\":6806:6828  hasRole(role, account) */\n      jump\t// in\n    tag_258:\n        /* \"@openzeppelin/contracts/access/AccessControl.sol\":6802:7019  if (hasRole(role, account)) {... */\n      iszero\n      tag_259\n      jumpi\n        /* \"@openzeppelin/contracts/access/AccessControl.sol\":6876:6881  false */\n      0x00\n        /* \"@openzeppelin/contracts/access/AccessControl.sol\":6844:6850  _roles */\n      0x01\n        /* \"@openzeppelin/contracts/access/AccessControl.sol\":6844:6856  _roles[role] */\n      0x00\n        /* \"@openzeppelin/contracts/access/AccessControl.sol\":6851:6855  role */\n      dup6\n        /* \"@openzeppelin/contracts/access/AccessControl.sol\":6844:6856  _roles[role] */\n      dup2\n      mstore\n      0x20\n      add\n      swap1\n      dup2\n      mstore\n      0x20\n      add\n      0x00\n      keccak256\n        /* \"@openzeppelin/contracts/access/AccessControl.sol\":6844:6864  _roles[role].hasRole */\n      0x00\n      add\n        /* \"@openzeppelin/contracts/access/AccessControl.sol\":6844:6873  _roles[role].hasRole[account] */\n      0x00\n        /* \"@openzeppelin/contracts/access/AccessControl.sol\":6865:6872  account */\n      dup5\n        /* \"@openzeppelin/contracts/access/AccessControl.sol\":6844:6873  _roles[role].hasRole[account] */\n      0xffffffffffffffffffffffffffffffffffffffff\n      and\n      0xffffffffffffffffffffffffffffffffffffffff\n      and\n      dup2\n      mstore\n      0x20\n      add\n      swap1\n      dup2\n      mstore\n      0x20\n      add\n      0x00\n      keccak256\n      0x00\n        /* \"@openzeppelin/contracts/access/AccessControl.sol\":6844:6881  _roles[role].hasRole[account] = false */\n      0x0100\n      exp\n      dup2\n      sload\n      dup2\n      0xff\n      mul\n      not\n      and\n      swap1\n      dup4\n      iszero\n      iszero\n      mul\n      or\n      swap1\n      sstore\n      pop\n        /* \"@openzeppelin/contracts/access/AccessControl.sol\":6927:6939  _msgSender() */\n      tag_260\n        /* \"@openzeppelin/contracts/access/AccessControl.sol\":6927:6937  _msgSender */\n      tag_129\n        /* \"@openzeppelin/contracts/access/AccessControl.sol\":6927:6939  _msgSender() */\n      jump\t// in\n    tag_260:\n        /* \"@openzeppelin/contracts/access/AccessControl.sol\":6900:6940  RoleRevoked(role, account, _msgSender()) */\n      0xffffffffffffffffffffffffffffffffffffffff\n      and\n        /* \"@openzeppelin/contracts/access/AccessControl.sol\":6918:6925  account */\n      dup3\n        /* \"@openzeppelin/contracts/access/AccessControl.sol\":6900:6940  RoleRevoked(role, account, _msgSender()) */\n      0xffffffffffffffffffffffffffffffffffffffff\n      and\n        /* \"@openzeppelin/contracts/access/AccessControl.sol\":6912:6916  role */\n      dup5\n        /* \"@openzeppelin/contracts/access/AccessControl.sol\":6900:6940  RoleRevoked(role, account, _msgSender()) */\n      0xf6391f5c32d9c69d2a47ea670b442974b53935d1edc7fd64eb21e047a839171b\n      mload(0x40)\n      mload(0x40)\n      dup1\n      swap2\n      sub\n      swap1\n      log4\n        /* \"@openzeppelin/contracts/access/AccessControl.sol\":6961:6965  true */\n      0x01\n        /* \"@openzeppelin/contracts/access/AccessControl.sol\":6954:6965  return true */\n      swap1\n      pop\n      jump(tag_257)\n        /* \"@openzeppelin/contracts/access/AccessControl.sol\":6802:7019  if (hasRole(role, account)) {... */\n    tag_259:\n        /* \"@openzeppelin/contracts/access/AccessControl.sol\":7003:7008  false */\n      0x00\n        /* \"@openzeppelin/contracts/access/AccessControl.sol\":6996:7008  return false */\n      swap1\n      pop\n        /* \"@openzeppelin/contracts/access/AccessControl.sol\":6708:7025  function _revokeRole(bytes32 role, address account) internal virtual returns (bool) {... */\n    tag_257:\n      swap3\n      swap2\n      pop\n      pop\n      jump\t// out\n        /* \"@openzeppelin/contracts/utils/ReentrancyGuard.sol\":2575:2882  function _nonReentrantBefore() private {... */\n    tag_135:\n        /* \"@openzeppelin/contracts/utils/ReentrancyGuard.sol\":1899:1900  2 */\n      0x02\n        /* \"@openzeppelin/contracts/utils/ReentrancyGuard.sol\":2702:2709  _status */\n      sload(0x00)\n        /* \"@openzeppelin/contracts/utils/ReentrancyGuard.sol\":2702:2720  _status == ENTERED */\n      sub\n        /* \"@openzeppelin/contracts/utils/ReentrancyGuard.sol\":2698:2784  if (_status == ENTERED) {... */\n      tag_263\n      jumpi\n        /* \"@openzeppelin/contracts/utils/ReentrancyGuard.sol\":2743:2773  ReentrancyGuardReentrantCall() */\n      mload(0x40)\n      0x3ee5aeb500000000000000000000000000000000000000000000000000000000\n      dup2\n      mstore\n      0x04\n      add\n      mload(0x40)\n      dup1\n      swap2\n      sub\n      swap1\n      revert\n        /* \"@openzeppelin/contracts/utils/ReentrancyGuard.sol\":2698:2784  if (_status == ENTERED) {... */\n    tag_263:\n        /* \"@openzeppelin/contracts/utils/ReentrancyGuard.sol\":1899:1900  2 */\n      0x02\n        /* \"@openzeppelin/contracts/utils/ReentrancyGuard.sol\":2858:2865  _status */\n      0x00\n        /* \"@openzeppelin/contracts/utils/ReentrancyGuard.sol\":2858:2875  _status = ENTERED */\n      dup2\n      swap1\n      sstore\n      pop\n        /* \"@openzeppelin/contracts/utils/ReentrancyGuard.sol\":2575:2882  function _nonReentrantBefore() private {... */\n      jump\t// out\n        /* \"@openzeppelin/contracts/utils/ReentrancyGuard.sol\":2888:3096  function _nonReentrantAfter() private {... */\n    tag_180:\n        /* \"@openzeppelin/contracts/utils/ReentrancyGuard.sol\":1857:1858  1 */\n      0x01\n        /* \"@openzeppelin/contracts/utils/ReentrancyGuard.sol\":3068:3075  _status */\n      0x00\n        /* \"@openzeppelin/contracts/utils/ReentrancyGuard.sol\":3068:3089  _status = NOT_ENTERED */\n      dup2\n      swap1\n      sstore\n      pop\n        /* \"@openzeppelin/contracts/utils/ReentrancyGuard.sol\":2888:3096  function _nonReentrantAfter() private {... */\n      jump\t// out\n        /* \"@openzeppelin/contracts/access/AccessControl.sol\":3408:3605  function _checkRole(bytes32 role, address account) internal view virtual {... */\n    tag_250:\n        /* \"@openzeppelin/contracts/access/AccessControl.sol\":3496:3518  hasRole(role, account) */\n      tag_266\n        /* \"@openzeppelin/contracts/access/AccessControl.sol\":3504:3508  role */\n      dup3\n        /* \"@openzeppelin/contracts/access/AccessControl.sol\":3510:3517  account */\n      dup3\n        /* \"@openzeppelin/contracts/access/AccessControl.sol\":3496:3503  hasRole */\n      tag_74\n        /* \"@openzeppelin/contracts/access/AccessControl.sol\":3496:3518  hasRole(role, account) */\n      jump\t// in\n    tag_266:\n        /* \"@openzeppelin/contracts/access/AccessControl.sol\":3491:3599  if (!hasRole(role, account)) {... */\n      tag_267\n      jumpi\n        /* \"@openzeppelin/contracts/access/AccessControl.sol\":3574:3581  account */\n      dup1\n        /* \"@openzeppelin/contracts/access/AccessControl.sol\":3583:3587  role */\n      dup3\n        /* \"@openzeppelin/contracts/access/AccessControl.sol\":3541:3588  AccessControlUnauthorizedAccount(account, role) */\n      mload(0x40)\n      0xe2517d3f00000000000000000000000000000000000000000000000000000000\n      dup2\n      mstore\n      0x04\n      add\n      tag_268\n      swap3\n      swap2\n      swap1\n      tag_269\n      jump\t// in\n    tag_268:\n      mload(0x40)\n      dup1\n      swap2\n      sub\n      swap1\n      revert\n        /* \"@openzeppelin/contracts/access/AccessControl.sol\":3491:3599  if (!hasRole(role, account)) {... */\n    tag_267:\n        /* \"@openzeppelin/contracts/access/AccessControl.sol\":3408:3605  function _checkRole(bytes32 role, address account) internal view virtual {... */\n      pop\n      pop\n      jump\t// out\n        /* \"#utility.yul\":88:205   */\n    tag_271:\n        /* \"#utility.yul\":197:198   */\n      0x00\n        /* \"#utility.yul\":194:195   */\n      0x00\n        /* \"#utility.yul\":187:199   */\n      revert\n        /* \"#utility.yul\":334:483   */\n    tag_273:\n        /* \"#utility.yul\":370:377   */\n      0x00\n        /* \"#utility.yul\":410:476   */\n      0xffffffff00000000000000000000000000000000000000000000000000000000\n        /* \"#utility.yul\":403:408   */\n      dup3\n        /* \"#utility.yul\":399:477   */\n      and\n        /* \"#utility.yul\":388:477   */\n      swap1\n      pop\n        /* \"#utility.yul\":334:483   */\n      swap2\n      swap1\n      pop\n      jump\t// out\n        /* \"#utility.yul\":489:609   */\n    tag_274:\n        /* \"#utility.yul\":561:584   */\n      tag_323\n        /* \"#utility.yul\":578:583   */\n      dup2\n        /* \"#utility.yul\":561:584   */\n      tag_273\n      jump\t// in\n    tag_323:\n        /* \"#utility.yul\":554:559   */\n      dup2\n        /* \"#utility.yul\":551:585   */\n      eq\n        /* \"#utility.yul\":541:603   */\n      tag_324\n      jumpi\n        /* \"#utility.yul\":599:600   */\n      0x00\n        /* \"#utility.yul\":596:597   */\n      0x00\n        /* \"#utility.yul\":589:601   */\n      revert\n        /* \"#utility.yul\":541:603   */\n    tag_324:\n        /* \"#utility.yul\":489:609   */\n      pop\n      jump\t// out\n        /* \"#utility.yul\":615:752   */\n    tag_275:\n        /* \"#utility.yul\":660:665   */\n      0x00\n        /* \"#utility.yul\":698:704   */\n      dup2\n        /* \"#utility.yul\":685:705   */\n      calldataload\n        /* \"#utility.yul\":676:705   */\n      swap1\n      pop\n        /* \"#utility.yul\":714:746   */\n      tag_326\n        /* \"#utility.yul\":740:745   */\n      dup2\n        /* \"#utility.yul\":714:746   */\n      tag_274\n      jump\t// in\n    tag_326:\n        /* \"#utility.yul\":615:752   */\n      swap3\n      swap2\n      pop\n      pop\n      jump\t// out\n        /* \"#utility.yul\":758:1085   */\n    tag_30:\n        /* \"#utility.yul\":816:822   */\n      0x00\n        /* \"#utility.yul\":865:867   */\n      0x20\n        /* \"#utility.yul\":853:862   */\n      dup3\n        /* \"#utility.yul\":844:851   */\n      dup5\n        /* \"#utility.yul\":840:863   */\n      sub\n        /* \"#utility.yul\":836:868   */\n      slt\n        /* \"#utility.yul\":833:952   */\n      iszero\n      tag_328\n      jumpi\n        /* \"#utility.yul\":871:950   */\n      tag_329\n      tag_271\n      jump\t// in\n    tag_329:\n        /* \"#utility.yul\":833:952   */\n    tag_328:\n        /* \"#utility.yul\":991:992   */\n      0x00\n        /* \"#utility.yul\":1016:1068   */\n      tag_330\n        /* \"#utility.yul\":1060:1067   */\n      dup5\n        /* \"#utility.yul\":1051:1057   */\n      dup3\n        /* \"#utility.yul\":1040:1049   */\n      dup6\n        /* \"#utility.yul\":1036:1058   */\n      add\n        /* \"#utility.yul\":1016:1068   */\n      tag_275\n      jump\t// in\n    tag_330:\n        /* \"#utility.yul\":1006:1068   */\n      swap2\n      pop\n        /* \"#utility.yul\":962:1078   */\n      pop\n        /* \"#utility.yul\":758:1085   */\n      swap3\n      swap2\n      pop\n      pop\n      jump\t// out\n        /* \"#utility.yul\":1091:1181   */\n    tag_276:\n        /* \"#utility.yul\":1125:1132   */\n      0x00\n        /* \"#utility.yul\":1168:1173   */\n      dup2\n        /* \"#utility.yul\":1161:1174   */\n      iszero\n        /* \"#utility.yul\":1154:1175   */\n      iszero\n        /* \"#utility.yul\":1143:1175   */\n      swap1\n      pop\n        /* \"#utility.yul\":1091:1181   */\n      swap2\n      swap1\n      pop\n      jump\t// out\n        /* \"#utility.yul\":1187:1296   */\n    tag_277:\n        /* \"#utility.yul\":1268:1289   */\n      tag_333\n        /* \"#utility.yul\":1283:1288   */\n      dup2\n        /* \"#utility.yul\":1268:1289   */\n      tag_276\n      jump\t// in\n    tag_333:\n        /* \"#utility.yul\":1263:1266   */\n      dup3\n        /* \"#utility.yul\":1256:1290   */\n      mstore\n        /* \"#utility.yul\":1187:1296   */\n      pop\n      pop\n      jump\t// out\n        /* \"#utility.yul\":1302:1512   */\n    tag_33:\n        /* \"#utility.yul\":1389:1393   */\n      0x00\n        /* \"#utility.yul\":1427:1429   */\n      0x20\n        /* \"#utility.yul\":1416:1425   */\n      dup3\n        /* \"#utility.yul\":1412:1430   */\n      add\n        /* \"#utility.yul\":1404:1430   */\n      swap1\n      pop\n        /* \"#utility.yul\":1440:1505   */\n      tag_335\n        /* \"#utility.yul\":1502:1503   */\n      0x00\n        /* \"#utility.yul\":1491:1500   */\n      dup4\n        /* \"#utility.yul\":1487:1504   */\n      add\n        /* \"#utility.yul\":1478:1484   */\n      dup5\n        /* \"#utility.yul\":1440:1505   */\n      tag_277\n      jump\t// in\n    tag_335:\n        /* \"#utility.yul\":1302:1512   */\n      swap3\n      swap2\n      pop\n      pop\n      jump\t// out\n        /* \"#utility.yul\":1518:1595   */\n    tag_278:\n        /* \"#utility.yul\":1555:1562   */\n      0x00\n        /* \"#utility.yul\":1584:1589   */\n      dup2\n        /* \"#utility.yul\":1573:1589   */\n      swap1\n      pop\n        /* \"#utility.yul\":1518:1595   */\n      swap2\n      swap1\n      pop\n      jump\t// out\n        /* \"#utility.yul\":1601:1723   */\n    tag_279:\n        /* \"#utility.yul\":1674:1698   */\n      tag_338\n        /* \"#utility.yul\":1692:1697   */\n      dup2\n        /* \"#utility.yul\":1674:1698   */\n      tag_278\n      jump\t// in\n    tag_338:\n        /* \"#utility.yul\":1667:1672   */\n      dup2\n        /* \"#utility.yul\":1664:1699   */\n      eq\n        /* \"#utility.yul\":1654:1717   */\n      tag_339\n      jumpi\n        /* \"#utility.yul\":1713:1714   */\n      0x00\n        /* \"#utility.yul\":1710:1711   */\n      0x00\n        /* \"#utility.yul\":1703:1715   */\n      revert\n        /* \"#utility.yul\":1654:1717   */\n    tag_339:\n        /* \"#utility.yul\":1601:1723   */\n      pop\n      jump\t// out\n        /* \"#utility.yul\":1729:1868   */\n    tag_280:\n        /* \"#utility.yul\":1775:1780   */\n      0x00\n        /* \"#utility.yul\":1813:1819   */\n      dup2\n        /* \"#utility.yul\":1800:1820   */\n      calldataload\n        /* \"#utility.yul\":1791:1820   */\n      swap1\n      pop\n        /* \"#utility.yul\":1829:1862   */\n      tag_341\n        /* \"#utility.yul\":1856:1861   */\n      dup2\n        /* \"#utility.yul\":1829:1862   */\n      tag_279\n      jump\t// in\n    tag_341:\n        /* \"#utility.yul\":1729:1868   */\n      swap3\n      swap2\n      pop\n      pop\n      jump\t// out\n        /* \"#utility.yul\":1874:2203   */\n    tag_36:\n        /* \"#utility.yul\":1933:1939   */\n      0x00\n        /* \"#utility.yul\":1982:1984   */\n      0x20\n        /* \"#utility.yul\":1970:1979   */\n      dup3\n        /* \"#utility.yul\":1961:1968   */\n      dup5\n        /* \"#utility.yul\":1957:1980   */\n      sub\n        /* \"#utility.yul\":1953:1985   */\n      slt\n        /* \"#utility.yul\":1950:2069   */\n      iszero\n      tag_343\n      jumpi\n        /* \"#utility.yul\":1988:2067   */\n      tag_344\n      tag_271\n      jump\t// in\n    tag_344:\n        /* \"#utility.yul\":1950:2069   */\n    tag_343:\n        /* \"#utility.yul\":2108:2109   */\n      0x00\n        /* \"#utility.yul\":2133:2186   */\n      tag_345\n        /* \"#utility.yul\":2178:2185   */\n      dup5\n        /* \"#utility.yul\":2169:2175   */\n      dup3\n        /* \"#utility.yul\":2158:2167   */\n      dup6\n        /* \"#utility.yul\":2154:2176   */\n      add\n        /* \"#utility.yul\":2133:2186   */\n      tag_280\n      jump\t// in\n    tag_345:\n        /* \"#utility.yul\":2123:2186   */\n      swap2\n      pop\n        /* \"#utility.yul\":2079:2196   */\n      pop\n        /* \"#utility.yul\":1874:2203   */\n      swap3\n      swap2\n      pop\n      pop\n      jump\t// out\n        /* \"#utility.yul\":2209:2327   */\n    tag_281:\n        /* \"#utility.yul\":2296:2320   */\n      tag_347\n        /* \"#utility.yul\":2314:2319   */\n      dup2\n        /* \"#utility.yul\":2296:2320   */\n      tag_278\n      jump\t// in\n    tag_347:\n        /* \"#utility.yul\":2291:2294   */\n      dup3\n        /* \"#utility.yul\":2284:2321   */\n      mstore\n        /* \"#utility.yul\":2209:2327   */\n      pop\n      pop\n      jump\t// out\n        /* \"#utility.yul\":2333:2555   */\n    tag_39:\n        /* \"#utility.yul\":2426:2430   */\n      0x00\n        /* \"#utility.yul\":2464:2466   */\n      0x20\n        /* \"#utility.yul\":2453:2462   */\n      dup3\n        /* \"#utility.yul\":2449:2467   */\n      add\n        /* \"#utility.yul\":2441:2467   */\n      swap1\n      pop\n        /* \"#utility.yul\":2477:2548   */\n      tag_349\n        /* \"#utility.yul\":2545:2546   */\n      0x00\n        /* \"#utility.yul\":2534:2543   */\n      dup4\n        /* \"#utility.yul\":2530:2547   */\n      add\n        /* \"#utility.yul\":2521:2527   */\n      dup5\n        /* \"#utility.yul\":2477:2548   */\n      tag_281\n      jump\t// in\n    tag_349:\n        /* \"#utility.yul\":2333:2555   */\n      swap3\n      swap2\n      pop\n      pop\n      jump\t// out\n        /* \"#utility.yul\":2561:2687   */\n    tag_282:\n        /* \"#utility.yul\":2598:2605   */\n      0x00\n        /* \"#utility.yul\":2638:2680   */\n      0xffffffffffffffffffffffffffffffffffffffff\n        /* \"#utility.yul\":2631:2636   */\n      dup3\n        /* \"#utility.yul\":2627:2681   */\n      and\n        /* \"#utility.yul\":2616:2681   */\n      swap1\n      pop\n        /* \"#utility.yul\":2561:2687   */\n      swap2\n      swap1\n      pop\n      jump\t// out\n        /* \"#utility.yul\":2693:2789   */\n    tag_283:\n        /* \"#utility.yul\":2730:2737   */\n      0x00\n        /* \"#utility.yul\":2759:2783   */\n      tag_352\n        /* \"#utility.yul\":2777:2782   */\n      dup3\n        /* \"#utility.yul\":2759:2783   */\n      tag_282\n      jump\t// in\n    tag_352:\n        /* \"#utility.yul\":2748:2783   */\n      swap1\n      pop\n        /* \"#utility.yul\":2693:2789   */\n      swap2\n      swap1\n      pop\n      jump\t// out\n        /* \"#utility.yul\":2795:2917   */\n    tag_284:\n        /* \"#utility.yul\":2868:2892   */\n      tag_354\n        /* \"#utility.yul\":2886:2891   */\n      dup2\n        /* \"#utility.yul\":2868:2892   */\n      tag_283\n      jump\t// in\n    tag_354:\n        /* \"#utility.yul\":2861:2866   */\n      dup2\n        /* \"#utility.yul\":2858:2893   */\n      eq\n        /* \"#utility.yul\":2848:2911   */\n      tag_355\n      jumpi\n        /* \"#utility.yul\":2907:2908   */\n      0x00\n        /* \"#utility.yul\":2904:2905   */\n      0x00\n        /* \"#utility.yul\":2897:2909   */\n      revert\n        /* \"#utility.yul\":2848:2911   */\n    tag_355:\n        /* \"#utility.yul\":2795:2917   */\n      pop\n      jump\t// out\n        /* \"#utility.yul\":2923:3062   */\n    tag_285:\n        /* \"#utility.yul\":2969:2974   */\n      0x00\n        /* \"#utility.yul\":3007:3013   */\n      dup2\n        /* \"#utility.yul\":2994:3014   */\n      calldataload\n        /* \"#utility.yul\":2985:3014   */\n      swap1\n      pop\n        /* \"#utility.yul\":3023:3056   */\n      tag_357\n        /* \"#utility.yul\":3050:3055   */\n      dup2\n        /* \"#utility.yul\":3023:3056   */\n      tag_284\n      jump\t// in\n    tag_357:\n        /* \"#utility.yul\":2923:3062   */\n      swap3\n      swap2\n      pop\n      pop\n      jump\t// out\n        /* \"#utility.yul\":3068:3542   */\n    tag_42:\n        /* \"#utility.yul\":3136:3142   */\n      0x00\n        /* \"#utility.yul\":3144:3150   */\n      0x00\n        /* \"#utility.yul\":3193:3195   */\n      0x40\n        /* \"#utility.yul\":3181:3190   */\n      dup4\n        /* \"#utility.yul\":3172:3179   */\n      dup6\n        /* \"#utility.yul\":3168:3191   */\n      sub\n        /* \"#utility.yul\":3164:3196   */\n      slt\n        /* \"#utility.yul\":3161:3280   */\n      iszero\n      tag_359\n      jumpi\n        /* \"#utility.yul\":3199:3278   */\n      tag_360\n      tag_271\n      jump\t// in\n    tag_360:\n        /* \"#utility.yul\":3161:3280   */\n    tag_359:\n        /* \"#utility.yul\":3319:3320   */\n      0x00\n        /* \"#utility.yul\":3344:3397   */\n      tag_361\n        /* \"#utility.yul\":3389:3396   */\n      dup6\n        /* \"#utility.yul\":3380:3386   */\n      dup3\n        /* \"#utility.yul\":3369:3378   */\n      dup7\n        /* \"#utility.yul\":3365:3387   */\n      add\n        /* \"#utility.yul\":3344:3397   */\n      tag_280\n      jump\t// in\n    tag_361:\n        /* \"#utility.yul\":3334:3397   */\n      swap3\n      pop\n        /* \"#utility.yul\":3290:3407   */\n      pop\n        /* \"#utility.yul\":3446:3448   */\n      0x20\n        /* \"#utility.yul\":3472:3525   */\n      tag_362\n        /* \"#utility.yul\":3517:3524   */\n      dup6\n        /* \"#utility.yul\":3508:3514   */\n      dup3\n        /* \"#utility.yul\":3497:3506   */\n      dup7\n        /* \"#utility.yul\":3493:3515   */\n      add\n        /* \"#utility.yul\":3472:3525   */\n      tag_285\n      jump\t// in\n    tag_362:\n        /* \"#utility.yul\":3462:3525   */\n      swap2\n      pop\n        /* \"#utility.yul\":3417:3535   */\n      pop\n        /* \"#utility.yul\":3068:3542   */\n      swap3\n      pop\n      swap3\n      swap1\n      pop\n      jump\t// out\n        /* \"#utility.yul\":3548:3608   */\n    tag_286:\n        /* \"#utility.yul\":3576:3579   */\n      0x00\n        /* \"#utility.yul\":3597:3602   */\n      dup2\n        /* \"#utility.yul\":3590:3602   */\n      swap1\n      pop\n        /* \"#utility.yul\":3548:3608   */\n      swap2\n      swap1\n      pop\n      jump\t// out\n        /* \"#utility.yul\":3614:3756   */\n    tag_287:\n        /* \"#utility.yul\":3664:3673   */\n      0x00\n        /* \"#utility.yul\":3697:3750   */\n      tag_365\n        /* \"#utility.yul\":3715:3749   */\n      tag_366\n        /* \"#utility.yul\":3724:3748   */\n      tag_367\n        /* \"#utility.yul\":3742:3747   */\n      dup5\n        /* \"#utility.yul\":3724:3748   */\n      tag_282\n      jump\t// in\n    tag_367:\n        /* \"#utility.yul\":3715:3749   */\n      tag_286\n      jump\t// in\n    tag_366:\n        /* \"#utility.yul\":3697:3750   */\n      tag_282\n      jump\t// in\n    tag_365:\n        /* \"#utility.yul\":3684:3750   */\n      swap1\n      pop\n        /* \"#utility.yul\":3614:3756   */\n      swap2\n      swap1\n      pop\n      jump\t// out\n        /* \"#utility.yul\":3762:3888   */\n    tag_288:\n        /* \"#utility.yul\":3812:3821   */\n      0x00\n        /* \"#utility.yul\":3845:3882   */\n      tag_369\n        /* \"#utility.yul\":3876:3881   */\n      dup3\n        /* \"#utility.yul\":3845:3882   */\n      tag_287\n      jump\t// in\n    tag_369:\n        /* \"#utility.yul\":3832:3882   */\n      swap1\n      pop\n        /* \"#utility.yul\":3762:3888   */\n      swap2\n      swap1\n      pop\n      jump\t// out\n        /* \"#utility.yul\":3894:4047   */\n    tag_289:\n        /* \"#utility.yul\":3971:3980   */\n      0x00\n        /* \"#utility.yul\":4004:4041   */\n      tag_371\n        /* \"#utility.yul\":4035:4040   */\n      dup3\n        /* \"#utility.yul\":4004:4041   */\n      tag_288\n      jump\t// in\n    tag_371:\n        /* \"#utility.yul\":3991:4041   */\n      swap1\n      pop\n        /* \"#utility.yul\":3894:4047   */\n      swap2\n      swap1\n      pop\n      jump\t// out\n        /* \"#utility.yul\":4053:4238   */\n    tag_290:\n        /* \"#utility.yul\":4167:4231   */\n      tag_373\n        /* \"#utility.yul\":4225:4230   */\n      dup2\n        /* \"#utility.yul\":4167:4231   */\n      tag_289\n      jump\t// in\n    tag_373:\n        /* \"#utility.yul\":4162:4165   */\n      dup3\n        /* \"#utility.yul\":4155:4232   */\n      mstore\n        /* \"#utility.yul\":4053:4238   */\n      pop\n      pop\n      jump\t// out\n        /* \"#utility.yul\":4244:4520   */\n    tag_50:\n        /* \"#utility.yul\":4364:4368   */\n      0x00\n        /* \"#utility.yul\":4402:4404   */\n      0x20\n        /* \"#utility.yul\":4391:4400   */\n      dup3\n        /* \"#utility.yul\":4387:4405   */\n      add\n        /* \"#utility.yul\":4379:4405   */\n      swap1\n      pop\n        /* \"#utility.yul\":4415:4513   */\n      tag_375\n        /* \"#utility.yul\":4510:4511   */\n      0x00\n        /* \"#utility.yul\":4499:4508   */\n      dup4\n        /* \"#utility.yul\":4495:4512   */\n      add\n        /* \"#utility.yul\":4486:4492   */\n      dup5\n        /* \"#utility.yul\":4415:4513   */\n      tag_290\n      jump\t// in\n    tag_375:\n        /* \"#utility.yul\":4244:4520   */\n      swap3\n      swap2\n      pop\n      pop\n      jump\t// out\n        /* \"#utility.yul\":4526:4644   */\n    tag_291:\n        /* \"#utility.yul\":4613:4637   */\n      tag_377\n        /* \"#utility.yul\":4631:4636   */\n      dup2\n        /* \"#utility.yul\":4613:4637   */\n      tag_283\n      jump\t// in\n    tag_377:\n        /* \"#utility.yul\":4608:4611   */\n      dup3\n        /* \"#utility.yul\":4601:4638   */\n      mstore\n        /* \"#utility.yul\":4526:4644   */\n      pop\n      pop\n      jump\t// out\n        /* \"#utility.yul\":4650:4872   */\n    tag_54:\n        /* \"#utility.yul\":4743:4747   */\n      0x00\n        /* \"#utility.yul\":4781:4783   */\n      0x20\n        /* \"#utility.yul\":4770:4779   */\n      dup3\n        /* \"#utility.yul\":4766:4784   */\n      add\n        /* \"#utility.yul\":4758:4784   */\n      swap1\n      pop\n        /* \"#utility.yul\":4794:4865   */\n      tag_379\n        /* \"#utility.yul\":4862:4863   */\n      0x00\n        /* \"#utility.yul\":4851:4860   */\n      dup4\n        /* \"#utility.yul\":4847:4864   */\n      add\n        /* \"#utility.yul\":4838:4844   */\n      dup5\n        /* \"#utility.yul\":4794:4865   */\n      tag_291\n      jump\t// in\n    tag_379:\n        /* \"#utility.yul\":4650:4872   */\n      swap3\n      swap2\n      pop\n      pop\n      jump\t// out\n        /* \"#utility.yul\":4878:4955   */\n    tag_292:\n        /* \"#utility.yul\":4915:4922   */\n      0x00\n        /* \"#utility.yul\":4944:4949   */\n      dup2\n        /* \"#utility.yul\":4933:4949   */\n      swap1\n      pop\n        /* \"#utility.yul\":4878:4955   */\n      swap2\n      swap1\n      pop\n      jump\t// out\n        /* \"#utility.yul\":4961:5083   */\n    tag_293:\n        /* \"#utility.yul\":5034:5058   */\n      tag_382\n        /* \"#utility.yul\":5052:5057   */\n      dup2\n        /* \"#utility.yul\":5034:5058   */\n      tag_292\n      jump\t// in\n    tag_382:\n        /* \"#utility.yul\":5027:5032   */\n      dup2\n        /* \"#utility.yul\":5024:5059   */\n      eq\n        /* \"#utility.yul\":5014:5077   */\n      tag_383\n      jumpi\n        /* \"#utility.yul\":5073:5074   */\n      0x00\n        /* \"#utility.yul\":5070:5071   */\n      0x00\n        /* \"#utility.yul\":5063:5075   */\n      revert\n        /* \"#utility.yul\":5014:5077   */\n    tag_383:\n        /* \"#utility.yul\":4961:5083   */\n      pop\n      jump\t// out\n        /* \"#utility.yul\":5089:5228   */\n    tag_294:\n        /* \"#utility.yul\":5135:5140   */\n      0x00\n        /* \"#utility.yul\":5173:5179   */\n      dup2\n        /* \"#utility.yul\":5160:5180   */\n      calldataload\n        /* \"#utility.yul\":5151:5180   */\n      swap1\n      pop\n        /* \"#utility.yul\":5189:5222   */\n      tag_385\n        /* \"#utility.yul\":5216:5221   */\n      dup2\n        /* \"#utility.yul\":5189:5222   */\n      tag_293\n      jump\t// in\n    tag_385:\n        /* \"#utility.yul\":5089:5228   */\n      swap3\n      swap2\n      pop\n      pop\n      jump\t// out\n        /* \"#utility.yul\":5234:5853   */\n    tag_60:\n        /* \"#utility.yul\":5311:5317   */\n      0x00\n        /* \"#utility.yul\":5319:5325   */\n      0x00\n        /* \"#utility.yul\":5327:5333   */\n      0x00\n        /* \"#utility.yul\":5376:5378   */\n      0x60\n        /* \"#utility.yul\":5364:5373   */\n      dup5\n        /* \"#utility.yul\":5355:5362   */\n      dup7\n        /* \"#utility.yul\":5351:5374   */\n      sub\n        /* \"#utility.yul\":5347:5379   */\n      slt\n        /* \"#utility.yul\":5344:5463   */\n      iszero\n      tag_387\n      jumpi\n        /* \"#utility.yul\":5382:5461   */\n      tag_388\n      tag_271\n      jump\t// in\n    tag_388:\n        /* \"#utility.yul\":5344:5463   */\n    tag_387:\n        /* \"#utility.yul\":5502:5503   */\n      0x00\n        /* \"#utility.yul\":5527:5580   */\n      tag_389\n        /* \"#utility.yul\":5572:5579   */\n      dup7\n        /* \"#utility.yul\":5563:5569   */\n      dup3\n        /* \"#utility.yul\":5552:5561   */\n      dup8\n        /* \"#utility.yul\":5548:5570   */\n      add\n        /* \"#utility.yul\":5527:5580   */\n      tag_294\n      jump\t// in\n    tag_389:\n        /* \"#utility.yul\":5517:5580   */\n      swap4\n      pop\n        /* \"#utility.yul\":5473:5590   */\n      pop\n        /* \"#utility.yul\":5629:5631   */\n      0x20\n        /* \"#utility.yul\":5655:5708   */\n      tag_390\n        /* \"#utility.yul\":5700:5707   */\n      dup7\n        /* \"#utility.yul\":5691:5697   */\n      dup3\n        /* \"#utility.yul\":5680:5689   */\n      dup8\n        /* \"#utility.yul\":5676:5698   */\n      add\n        /* \"#utility.yul\":5655:5708   */\n      tag_294\n      jump\t// in\n    tag_390:\n        /* \"#utility.yul\":5645:5708   */\n      swap3\n      pop\n        /* \"#utility.yul\":5600:5718   */\n      pop\n        /* \"#utility.yul\":5757:5759   */\n      0x40\n        /* \"#utility.yul\":5783:5836   */\n      tag_391\n        /* \"#utility.yul\":5828:5835   */\n      dup7\n        /* \"#utility.yul\":5819:5825   */\n      dup3\n        /* \"#utility.yul\":5808:5817   */\n      dup8\n        /* \"#utility.yul\":5804:5826   */\n      add\n        /* \"#utility.yul\":5783:5836   */\n      tag_294\n      jump\t// in\n    tag_391:\n        /* \"#utility.yul\":5773:5836   */\n      swap2\n      pop\n        /* \"#utility.yul\":5728:5846   */\n      pop\n        /* \"#utility.yul\":5234:5853   */\n      swap3\n      pop\n      swap3\n      pop\n      swap3\n      jump\t// out\n        /* \"#utility.yul\":5859:6006   */\n    tag_295:\n        /* \"#utility.yul\":5930:5939   */\n      0x00\n        /* \"#utility.yul\":5963:6000   */\n      tag_393\n        /* \"#utility.yul\":5994:5999   */\n      dup3\n        /* \"#utility.yul\":5963:6000   */\n      tag_288\n      jump\t// in\n    tag_393:\n        /* \"#utility.yul\":5950:6000   */\n      swap1\n      pop\n        /* \"#utility.yul\":5859:6006   */\n      swap2\n      swap1\n      pop\n      jump\t// out\n        /* \"#utility.yul\":6012:6185   */\n    tag_296:\n        /* \"#utility.yul\":6120:6178   */\n      tag_395\n        /* \"#utility.yul\":6172:6177   */\n      dup2\n        /* \"#utility.yul\":6120:6178   */\n      tag_295\n      jump\t// in\n    tag_395:\n        /* \"#utility.yul\":6115:6118   */\n      dup3\n        /* \"#utility.yul\":6108:6179   */\n      mstore\n        /* \"#utility.yul\":6012:6185   */\n      pop\n      pop\n      jump\t// out\n        /* \"#utility.yul\":6191:6455   */\n    tag_65:\n        /* \"#utility.yul\":6305:6309   */\n      0x00\n        /* \"#utility.yul\":6343:6345   */\n      0x20\n        /* \"#utility.yul\":6332:6341   */\n      dup3\n        /* \"#utility.yul\":6328:6346   */\n      add\n        /* \"#utility.yul\":6320:6346   */\n      swap1\n      pop\n        /* \"#utility.yul\":6356:6448   */\n      tag_397\n        /* \"#utility.yul\":6445:6446   */\n      0x00\n        /* \"#utility.yul\":6434:6443   */\n      dup4\n        /* \"#utility.yul\":6430:6447   */\n      add\n        /* \"#utility.yul\":6421:6427   */\n      dup5\n        /* \"#utility.yul\":6356:6448   */\n      tag_296\n      jump\t// in\n    tag_397:\n        /* \"#utility.yul\":6191:6455   */\n      swap3\n      swap2\n      pop\n      pop\n      jump\t// out\n        /* \"#utility.yul\":6461:6935   */\n    tag_68:\n        /* \"#utility.yul\":6529:6535   */\n      0x00\n        /* \"#utility.yul\":6537:6543   */\n      0x00\n        /* \"#utility.yul\":6586:6588   */\n      0x40\n        /* \"#utility.yul\":6574:6583   */\n      dup4\n        /* \"#utility.yul\":6565:6572   */\n      dup6\n        /* \"#utility.yul\":6561:6584   */\n      sub\n        /* \"#utility.yul\":6557:6589   */\n      slt\n        /* \"#utility.yul\":6554:6673   */\n      iszero\n      tag_399\n      jumpi\n        /* \"#utility.yul\":6592:6671   */\n      tag_400\n      tag_271\n      jump\t// in\n    tag_400:\n        /* \"#utility.yul\":6554:6673   */\n    tag_399:\n        /* \"#utility.yul\":6712:6713   */\n      0x00\n        /* \"#utility.yul\":6737:6790   */\n      tag_401\n        /* \"#utility.yul\":6782:6789   */\n      dup6\n        /* \"#utility.yul\":6773:6779   */\n      dup3\n        /* \"#utility.yul\":6762:6771   */\n      dup7\n        /* \"#utility.yul\":6758:6780   */\n      add\n        /* \"#utility.yul\":6737:6790   */\n      tag_294\n      jump\t// in\n    tag_401:\n        /* \"#utility.yul\":6727:6790   */\n      swap3\n      pop\n        /* \"#utility.yul\":6683:6800   */\n      pop\n        /* \"#utility.yul\":6839:6841   */\n      0x20\n        /* \"#utility.yul\":6865:6918   */\n      tag_402\n        /* \"#utility.yul\":6910:6917   */\n      dup6\n        /* \"#utility.yul\":6901:6907   */\n      dup3\n        /* \"#utility.yul\":6890:6899   */\n      dup7\n        /* \"#utility.yul\":6886:6908   */\n      add\n        /* \"#utility.yul\":6865:6918   */\n      tag_285\n      jump\t// in\n    tag_402:\n        /* \"#utility.yul\":6855:6918   */\n      swap2\n      pop\n        /* \"#utility.yul\":6810:6928   */\n      pop\n        /* \"#utility.yul\":6461:6935   */\n      swap3\n      pop\n      swap3\n      swap1\n      pop\n      jump\t// out\n        /* \"#utility.yul\":6941:7059   */\n    tag_297:\n        /* \"#utility.yul\":7028:7052   */\n      tag_404\n        /* \"#utility.yul\":7046:7051   */\n      dup2\n        /* \"#utility.yul\":7028:7052   */\n      tag_292\n      jump\t// in\n    tag_404:\n        /* \"#utility.yul\":7023:7026   */\n      dup3\n        /* \"#utility.yul\":7016:7053   */\n      mstore\n        /* \"#utility.yul\":6941:7059   */\n      pop\n      pop\n      jump\t// out\n        /* \"#utility.yul\":7065:7287   */\n    tag_71:\n        /* \"#utility.yul\":7158:7162   */\n      0x00\n        /* \"#utility.yul\":7196:7198   */\n      0x20\n        /* \"#utility.yul\":7185:7194   */\n      dup3\n        /* \"#utility.yul\":7181:7199   */\n      add\n        /* \"#utility.yul\":7173:7199   */\n      swap1\n      pop\n        /* \"#utility.yul\":7209:7280   */\n      tag_406\n        /* \"#utility.yul\":7277:7278   */\n      0x00\n        /* \"#utility.yul\":7266:7275   */\n      dup4\n        /* \"#utility.yul\":7262:7279   */\n      add\n        /* \"#utility.yul\":7253:7259   */\n      dup5\n        /* \"#utility.yul\":7209:7280   */\n      tag_297\n      jump\t// in\n    tag_406:\n        /* \"#utility.yul\":7065:7287   */\n      swap3\n      swap2\n      pop\n      pop\n      jump\t// out\n        /* \"#utility.yul\":7293:7622   */\n    tag_88:\n        /* \"#utility.yul\":7352:7358   */\n      0x00\n        /* \"#utility.yul\":7401:7403   */\n      0x20\n        /* \"#utility.yul\":7389:7398   */\n      dup3\n        /* \"#utility.yul\":7380:7387   */\n      dup5\n        /* \"#utility.yul\":7376:7399   */\n      sub\n        /* \"#utility.yul\":7372:7404   */\n      slt\n        /* \"#utility.yul\":7369:7488   */\n      iszero\n      tag_408\n      jumpi\n        /* \"#utility.yul\":7407:7486   */\n      tag_409\n      tag_271\n      jump\t// in\n    tag_409:\n        /* \"#utility.yul\":7369:7488   */\n    tag_408:\n        /* \"#utility.yul\":7527:7528   */\n      0x00\n        /* \"#utility.yul\":7552:7605   */\n      tag_410\n        /* \"#utility.yul\":7597:7604   */\n      dup5\n        /* \"#utility.yul\":7588:7594   */\n      dup3\n        /* \"#utility.yul\":7577:7586   */\n      dup6\n        /* \"#utility.yul\":7573:7595   */\n      add\n        /* \"#utility.yul\":7552:7605   */\n      tag_294\n      jump\t// in\n    tag_410:\n        /* \"#utility.yul\":7542:7605   */\n      swap2\n      pop\n        /* \"#utility.yul\":7498:7615   */\n      pop\n        /* \"#utility.yul\":7293:7622   */\n      swap3\n      swap2\n      pop\n      pop\n      jump\t// out\n        /* \"#utility.yul\":7628:7957   */\n    tag_108:\n        /* \"#utility.yul\":7687:7693   */\n      0x00\n        /* \"#utility.yul\":7736:7738   */\n      0x20\n        /* \"#utility.yul\":7724:7733   */\n      dup3\n        /* \"#utility.yul\":7715:7722   */\n      dup5\n        /* \"#utility.yul\":7711:7734   */\n      sub\n        /* \"#utility.yul\":7707:7739   */\n      slt\n        /* \"#utility.yul\":7704:7823   */\n      iszero\n      tag_412\n      jumpi\n        /* \"#utility.yul\":7742:7821   */\n      tag_413\n      tag_271\n      jump\t// in\n    tag_413:\n        /* \"#utility.yul\":7704:7823   */\n    tag_412:\n        /* \"#utility.yul\":7862:7863   */\n      0x00\n        /* \"#utility.yul\":7887:7940   */\n      tag_414\n        /* \"#utility.yul\":7932:7939   */\n      dup5\n        /* \"#utility.yul\":7923:7929   */\n      dup3\n        /* \"#utility.yul\":7912:7921   */\n      dup6\n        /* \"#utility.yul\":7908:7930   */\n      add\n        /* \"#utility.yul\":7887:7940   */\n      tag_285\n      jump\t// in\n    tag_414:\n        /* \"#utility.yul\":7877:7940   */\n      swap2\n      pop\n        /* \"#utility.yul\":7833:7950   */\n      pop\n        /* \"#utility.yul\":7628:7957   */\n      swap3\n      swap2\n      pop\n      pop\n      jump\t// out\n        /* \"#utility.yul\":7963:8393   */\n    tag_114:\n        /* \"#utility.yul\":8106:8110   */\n      0x00\n        /* \"#utility.yul\":8144:8146   */\n      0x60\n        /* \"#utility.yul\":8133:8142   */\n      dup3\n        /* \"#utility.yul\":8129:8147   */\n      add\n        /* \"#utility.yul\":8121:8147   */\n      swap1\n      pop\n        /* \"#utility.yul\":8157:8228   */\n      tag_416\n        /* \"#utility.yul\":8225:8226   */\n      0x00\n        /* \"#utility.yul\":8214:8223   */\n      dup4\n        /* \"#utility.yul\":8210:8227   */\n      add\n        /* \"#utility.yul\":8201:8207   */\n      dup7\n        /* \"#utility.yul\":8157:8228   */\n      tag_297\n      jump\t// in\n    tag_416:\n        /* \"#utility.yul\":8238:8310   */\n      tag_417\n        /* \"#utility.yul\":8306:8308   */\n      0x20\n        /* \"#utility.yul\":8295:8304   */\n      dup4\n        /* \"#utility.yul\":8291:8309   */\n      add\n        /* \"#utility.yul\":8282:8288   */\n      dup6\n        /* \"#utility.yul\":8238:8310   */\n      tag_297\n      jump\t// in\n    tag_417:\n        /* \"#utility.yul\":8320:8386   */\n      tag_418\n        /* \"#utility.yul\":8382:8384   */\n      0x40\n        /* \"#utility.yul\":8371:8380   */\n      dup4\n        /* \"#utility.yul\":8367:8385   */\n      add\n        /* \"#utility.yul\":8358:8364   */\n      dup5\n        /* \"#utility.yul\":8320:8386   */\n      tag_277\n      jump\t// in\n    tag_418:\n        /* \"#utility.yul\":7963:8393   */\n      swap5\n      swap4\n      pop\n      pop\n      pop\n      pop\n      jump\t// out\n        /* \"#utility.yul\":8399:8568   */\n    tag_298:\n        /* \"#utility.yul\":8483:8494   */\n      0x00\n        /* \"#utility.yul\":8517:8523   */\n      dup3\n        /* \"#utility.yul\":8512:8515   */\n      dup3\n        /* \"#utility.yul\":8505:8524   */\n      mstore\n        /* \"#utility.yul\":8557:8561   */\n      0x20\n        /* \"#utility.yul\":8552:8555   */\n      dup3\n        /* \"#utility.yul\":8548:8562   */\n      add\n        /* \"#utility.yul\":8533:8562   */\n      swap1\n      pop\n        /* \"#utility.yul\":8399:8568   */\n      swap3\n      swap2\n      pop\n      pop\n      jump\t// out\n        /* \"#utility.yul\":8574:8740   */\n    tag_299:\n        /* \"#utility.yul\":8714:8732   */\n      0x506c61796572206e6f7420666f756e6400000000000000000000000000000000\n        /* \"#utility.yul\":8710:8711   */\n      0x00\n        /* \"#utility.yul\":8702:8708   */\n      dup3\n        /* \"#utility.yul\":8698:8712   */\n      add\n        /* \"#utility.yul\":8691:8733   */\n      mstore\n        /* \"#utility.yul\":8574:8740   */\n      pop\n      jump\t// out\n        /* \"#utility.yul\":8746:9112   */\n    tag_300:\n        /* \"#utility.yul\":8888:8891   */\n      0x00\n        /* \"#utility.yul\":8909:8976   */\n      tag_422\n        /* \"#utility.yul\":8973:8975   */\n      0x10\n        /* \"#utility.yul\":8968:8971   */\n      dup4\n        /* \"#utility.yul\":8909:8976   */\n      tag_298\n      jump\t// in\n    tag_422:\n        /* \"#utility.yul\":8902:8976   */\n      swap2\n      pop\n        /* \"#utility.yul\":8985:9078   */\n      tag_423\n        /* \"#utility.yul\":9074:9077   */\n      dup3\n        /* \"#utility.yul\":8985:9078   */\n      tag_299\n      jump\t// in\n    tag_423:\n        /* \"#utility.yul\":9103:9105   */\n      0x20\n        /* \"#utility.yul\":9098:9101   */\n      dup3\n        /* \"#utility.yul\":9094:9106   */\n      add\n        /* \"#utility.yul\":9087:9106   */\n      swap1\n      pop\n        /* \"#utility.yul\":8746:9112   */\n      swap2\n      swap1\n      pop\n      jump\t// out\n        /* \"#utility.yul\":9118:9537   */\n    tag_139:\n        /* \"#utility.yul\":9284:9288   */\n      0x00\n        /* \"#utility.yul\":9322:9324   */\n      0x20\n        /* \"#utility.yul\":9311:9320   */\n      dup3\n        /* \"#utility.yul\":9307:9325   */\n      add\n        /* \"#utility.yul\":9299:9325   */\n      swap1\n      pop\n        /* \"#utility.yul\":9371:9380   */\n      dup2\n        /* \"#utility.yul\":9365:9369   */\n      dup2\n        /* \"#utility.yul\":9361:9381   */\n      sub\n        /* \"#utility.yul\":9357:9358   */\n      0x00\n        /* \"#utility.yul\":9346:9355   */\n      dup4\n        /* \"#utility.yul\":9342:9359   */\n      add\n        /* \"#utility.yul\":9335:9382   */\n      mstore\n        /* \"#utility.yul\":9399:9530   */\n      tag_425\n        /* \"#utility.yul\":9525:9529   */\n      dup2\n        /* \"#utility.yul\":9399:9530   */\n      tag_300\n      jump\t// in\n    tag_425:\n        /* \"#utility.yul\":9391:9530   */\n      swap1\n      pop\n        /* \"#utility.yul\":9118:9537   */\n      swap2\n      swap1\n      pop\n      jump\t// out\n        /* \"#utility.yul\":9543:9701   */\n    tag_301:\n        /* \"#utility.yul\":9683:9693   */\n      0x5a65726f2046544b000000000000000000000000000000000000000000000000\n        /* \"#utility.yul\":9679:9680   */\n      0x00\n        /* \"#utility.yul\":9671:9677   */\n      dup3\n        /* \"#utility.yul\":9667:9681   */\n      add\n        /* \"#utility.yul\":9660:9694   */\n      mstore\n        /* \"#utility.yul\":9543:9701   */\n      pop\n      jump\t// out\n        /* \"#utility.yul\":9707:10072   */\n    tag_302:\n        /* \"#utility.yul\":9849:9852   */\n      0x00\n        /* \"#utility.yul\":9870:9936   */\n      tag_428\n        /* \"#utility.yul\":9934:9935   */\n      0x08\n        /* \"#utility.yul\":9929:9932   */\n      dup4\n        /* \"#utility.yul\":9870:9936   */\n      tag_298\n      jump\t// in\n    tag_428:\n        /* \"#utility.yul\":9863:9936   */\n      swap2\n      pop\n        /* \"#utility.yul\":9945:10038   */\n      tag_429\n        /* \"#utility.yul\":10034:10037   */\n      dup3\n        /* \"#utility.yul\":9945:10038   */\n      tag_301\n      jump\t// in\n    tag_429:\n        /* \"#utility.yul\":10063:10065   */\n      0x20\n        /* \"#utility.yul\":10058:10061   */\n      dup3\n        /* \"#utility.yul\":10054:10066   */\n      add\n        /* \"#utility.yul\":10047:10066   */\n      swap1\n      pop\n        /* \"#utility.yul\":9707:10072   */\n      swap2\n      swap1\n      pop\n      jump\t// out\n        /* \"#utility.yul\":10078:10497   */\n    tag_142:\n        /* \"#utility.yul\":10244:10248   */\n      0x00\n        /* \"#utility.yul\":10282:10284   */\n      0x20\n        /* \"#utility.yul\":10271:10280   */\n      dup3\n        /* \"#utility.yul\":10267:10285   */\n      add\n        /* \"#utility.yul\":10259:10285   */\n      swap1\n      pop\n        /* \"#utility.yul\":10331:10340   */\n      dup2\n        /* \"#utility.yul\":10325:10329   */\n      dup2\n        /* \"#utility.yul\":10321:10341   */\n      sub\n        /* \"#utility.yul\":10317:10318   */\n      0x00\n        /* \"#utility.yul\":10306:10315   */\n      dup4\n        /* \"#utility.yul\":10302:10319   */\n      add\n        /* \"#utility.yul\":10295:10342   */\n      mstore\n        /* \"#utility.yul\":10359:10490   */\n      tag_431\n        /* \"#utility.yul\":10485:10489   */\n      dup2\n        /* \"#utility.yul\":10359:10490   */\n      tag_302\n      jump\t// in\n    tag_431:\n        /* \"#utility.yul\":10351:10490   */\n      swap1\n      pop\n        /* \"#utility.yul\":10078:10497   */\n      swap2\n      swap1\n      pop\n      jump\t// out\n        /* \"#utility.yul\":10503:10945   */\n    tag_144:\n        /* \"#utility.yul\":10652:10656   */\n      0x00\n        /* \"#utility.yul\":10690:10692   */\n      0x60\n        /* \"#utility.yul\":10679:10688   */\n      dup3\n        /* \"#utility.yul\":10675:10693   */\n      add\n        /* \"#utility.yul\":10667:10693   */\n      swap1\n      pop\n        /* \"#utility.yul\":10703:10774   */\n      tag_433\n        /* \"#utility.yul\":10771:10772   */\n      0x00\n        /* \"#utility.yul\":10760:10769   */\n      dup4\n        /* \"#utility.yul\":10756:10773   */\n      add\n        /* \"#utility.yul\":10747:10753   */\n      dup7\n        /* \"#utility.yul\":10703:10774   */\n      tag_291\n      jump\t// in\n    tag_433:\n        /* \"#utility.yul\":10784:10856   */\n      tag_434\n        /* \"#utility.yul\":10852:10854   */\n      0x20\n        /* \"#utility.yul\":10841:10850   */\n      dup4\n        /* \"#utility.yul\":10837:10855   */\n      add\n        /* \"#utility.yul\":10828:10834   */\n      dup6\n        /* \"#utility.yul\":10784:10856   */\n      tag_291\n      jump\t// in\n    tag_434:\n        /* \"#utility.yul\":10866:10938   */\n      tag_435\n        /* \"#utility.yul\":10934:10936   */\n      0x40\n        /* \"#utility.yul\":10923:10932   */\n      dup4\n        /* \"#utility.yul\":10919:10937   */\n      add\n        /* \"#utility.yul\":10910:10916   */\n      dup5\n        /* \"#utility.yul\":10866:10938   */\n      tag_297\n      jump\t// in\n    tag_435:\n        /* \"#utility.yul\":10503:10945   */\n      swap5\n      swap4\n      pop\n      pop\n      pop\n      pop\n      jump\t// out\n        /* \"#utility.yul\":10951:11067   */\n    tag_303:\n        /* \"#utility.yul\":11021:11042   */\n      tag_437\n        /* \"#utility.yul\":11036:11041   */\n      dup2\n        /* \"#utility.yul\":11021:11042   */\n      tag_276\n      jump\t// in\n    tag_437:\n        /* \"#utility.yul\":11014:11019   */\n      dup2\n        /* \"#utility.yul\":11011:11043   */\n      eq\n        /* \"#utility.yul\":11001:11061   */\n      tag_438\n      jumpi\n        /* \"#utility.yul\":11057:11058   */\n      0x00\n        /* \"#utility.yul\":11054:11055   */\n      0x00\n        /* \"#utility.yul\":11047:11059   */\n      revert\n        /* \"#utility.yul\":11001:11061   */\n    tag_438:\n        /* \"#utility.yul\":10951:11067   */\n      pop\n      jump\t// out\n        /* \"#utility.yul\":11073:11210   */\n    tag_304:\n        /* \"#utility.yul\":11127:11132   */\n      0x00\n        /* \"#utility.yul\":11158:11164   */\n      dup2\n        /* \"#utility.yul\":11152:11165   */\n      mload\n        /* \"#utility.yul\":11143:11165   */\n      swap1\n      pop\n        /* \"#utility.yul\":11174:11204   */\n      tag_440\n        /* \"#utility.yul\":11198:11203   */\n      dup2\n        /* \"#utility.yul\":11174:11204   */\n      tag_303\n      jump\t// in\n    tag_440:\n        /* \"#utility.yul\":11073:11210   */\n      swap3\n      swap2\n      pop\n      pop\n      jump\t// out\n        /* \"#utility.yul\":11216:11561   */\n    tag_148:\n        /* \"#utility.yul\":11283:11289   */\n      0x00\n        /* \"#utility.yul\":11332:11334   */\n      0x20\n        /* \"#utility.yul\":11320:11329   */\n      dup3\n        /* \"#utility.yul\":11311:11318   */\n      dup5\n        /* \"#utility.yul\":11307:11330   */\n      sub\n        /* \"#utility.yul\":11303:11335   */\n      slt\n        /* \"#utility.yul\":11300:11419   */\n      iszero\n      tag_442\n      jumpi\n        /* \"#utility.yul\":11338:11417   */\n      tag_443\n      tag_271\n      jump\t// in\n    tag_443:\n        /* \"#utility.yul\":11300:11419   */\n    tag_442:\n        /* \"#utility.yul\":11458:11459   */\n      0x00\n        /* \"#utility.yul\":11483:11544   */\n      tag_444\n        /* \"#utility.yul\":11536:11543   */\n      dup5\n        /* \"#utility.yul\":11527:11533   */\n      dup3\n        /* \"#utility.yul\":11516:11525   */\n      dup6\n        /* \"#utility.yul\":11512:11534   */\n      add\n        /* \"#utility.yul\":11483:11544   */\n      tag_304\n      jump\t// in\n    tag_444:\n        /* \"#utility.yul\":11473:11544   */\n      swap2\n      pop\n        /* \"#utility.yul\":11429:11554   */\n      pop\n        /* \"#utility.yul\":11216:11561   */\n      swap3\n      swap2\n      pop\n      pop\n      jump\t// out\n        /* \"#utility.yul\":11567:11747   */\n    tag_305:\n        /* \"#utility.yul\":11615:11692   */\n      0x4e487b7100000000000000000000000000000000000000000000000000000000\n        /* \"#utility.yul\":11612:11613   */\n      0x00\n        /* \"#utility.yul\":11605:11693   */\n      mstore\n        /* \"#utility.yul\":11712:11716   */\n      0x11\n        /* \"#utility.yul\":11709:11710   */\n      0x04\n        /* \"#utility.yul\":11702:11717   */\n      mstore\n        /* \"#utility.yul\":11736:11740   */\n      0x24\n        /* \"#utility.yul\":11733:11734   */\n      0x00\n        /* \"#utility.yul\":11726:11741   */\n      revert\n        /* \"#utility.yul\":11753:12163   */\n    tag_150:\n        /* \"#utility.yul\":11793:11800   */\n      0x00\n        /* \"#utility.yul\":11816:11836   */\n      tag_447\n        /* \"#utility.yul\":11834:11835   */\n      dup3\n        /* \"#utility.yul\":11816:11836   */\n      tag_292\n      jump\t// in\n    tag_447:\n        /* \"#utility.yul\":11811:11836   */\n      swap2\n      pop\n        /* \"#utility.yul\":11850:11870   */\n      tag_448\n        /* \"#utility.yul\":11868:11869   */\n      dup4\n        /* \"#utility.yul\":11850:11870   */\n      tag_292\n      jump\t// in\n    tag_448:\n        /* \"#utility.yul\":11845:11870   */\n      swap3\n      pop\n        /* \"#utility.yul\":11905:11906   */\n      dup3\n        /* \"#utility.yul\":11902:11903   */\n      dup3\n        /* \"#utility.yul\":11898:11907   */\n      mul\n        /* \"#utility.yul\":11927:11957   */\n      tag_449\n        /* \"#utility.yul\":11945:11956   */\n      dup2\n        /* \"#utility.yul\":11927:11957   */\n      tag_292\n      jump\t// in\n    tag_449:\n        /* \"#utility.yul\":11916:11957   */\n      swap2\n      pop\n        /* \"#utility.yul\":12106:12107   */\n      dup3\n        /* \"#utility.yul\":12097:12104   */\n      dup3\n        /* \"#utility.yul\":12093:12108   */\n      div\n        /* \"#utility.yul\":12090:12091   */\n      dup5\n        /* \"#utility.yul\":12087:12109   */\n      eq\n        /* \"#utility.yul\":12067:12068   */\n      dup4\n        /* \"#utility.yul\":12060:12069   */\n      iszero\n        /* \"#utility.yul\":12040:12123   */\n      or\n        /* \"#utility.yul\":12017:12156   */\n      tag_450\n      jumpi\n        /* \"#utility.yul\":12136:12154   */\n      tag_451\n      tag_305\n      jump\t// in\n    tag_451:\n        /* \"#utility.yul\":12017:12156   */\n    tag_450:\n        /* \"#utility.yul\":11801:12163   */\n      pop\n        /* \"#utility.yul\":11753:12163   */\n      swap3\n      swap2\n      pop\n      pop\n      jump\t// out\n        /* \"#utility.yul\":12169:12349   */\n    tag_306:\n        /* \"#utility.yul\":12217:12294   */\n      0x4e487b7100000000000000000000000000000000000000000000000000000000\n        /* \"#utility.yul\":12214:12215   */\n      0x00\n        /* \"#utility.yul\":12207:12295   */\n      mstore\n        /* \"#utility.yul\":12314:12318   */\n      0x12\n        /* \"#utility.yul\":12311:12312   */\n      0x04\n        /* \"#utility.yul\":12304:12319   */\n      mstore\n        /* \"#utility.yul\":12338:12342   */\n      0x24\n        /* \"#utility.yul\":12335:12336   */\n      0x00\n        /* \"#utility.yul\":12328:12343   */\n      revert\n        /* \"#utility.yul\":12355:12540   */\n    tag_152:\n        /* \"#utility.yul\":12395:12396   */\n      0x00\n        /* \"#utility.yul\":12412:12432   */\n      tag_454\n        /* \"#utility.yul\":12430:12431   */\n      dup3\n        /* \"#utility.yul\":12412:12432   */\n      tag_292\n      jump\t// in\n    tag_454:\n        /* \"#utility.yul\":12407:12432   */\n      swap2\n      pop\n        /* \"#utility.yul\":12446:12466   */\n      tag_455\n        /* \"#utility.yul\":12464:12465   */\n      dup4\n        /* \"#utility.yul\":12446:12466   */\n      tag_292\n      jump\t// in\n    tag_455:\n        /* \"#utility.yul\":12441:12466   */\n      swap3\n      pop\n        /* \"#utility.yul\":12485:12486   */\n      dup3\n        /* \"#utility.yul\":12475:12510   */\n      tag_456\n      jumpi\n        /* \"#utility.yul\":12490:12508   */\n      tag_457\n      tag_306\n      jump\t// in\n    tag_457:\n        /* \"#utility.yul\":12475:12510   */\n    tag_456:\n        /* \"#utility.yul\":12532:12533   */\n      dup3\n        /* \"#utility.yul\":12529:12530   */\n      dup3\n        /* \"#utility.yul\":12525:12534   */\n      div\n        /* \"#utility.yul\":12520:12534   */\n      swap1\n      pop\n        /* \"#utility.yul\":12355:12540   */\n      swap3\n      swap2\n      pop\n      pop\n      jump\t// out\n        /* \"#utility.yul\":12546:12740   */\n    tag_154:\n        /* \"#utility.yul\":12586:12590   */\n      0x00\n        /* \"#utility.yul\":12606:12626   */\n      tag_459\n        /* \"#utility.yul\":12624:12625   */\n      dup3\n        /* \"#utility.yul\":12606:12626   */\n      tag_292\n      jump\t// in\n    tag_459:\n        /* \"#utility.yul\":12601:12626   */\n      swap2\n      pop\n        /* \"#utility.yul\":12640:12660   */\n      tag_460\n        /* \"#utility.yul\":12658:12659   */\n      dup4\n        /* \"#utility.yul\":12640:12660   */\n      tag_292\n      jump\t// in\n    tag_460:\n        /* \"#utility.yul\":12635:12660   */\n      swap3\n      pop\n        /* \"#utility.yul\":12684:12685   */\n      dup3\n        /* \"#utility.yul\":12681:12682   */\n      dup3\n        /* \"#utility.yul\":12677:12686   */\n      sub\n        /* \"#utility.yul\":12669:12686   */\n      swap1\n      pop\n        /* \"#utility.yul\":12708:12709   */\n      dup2\n        /* \"#utility.yul\":12702:12706   */\n      dup2\n        /* \"#utility.yul\":12699:12710   */\n      gt\n        /* \"#utility.yul\":12696:12733   */\n      iszero\n      tag_461\n      jumpi\n        /* \"#utility.yul\":12713:12731   */\n      tag_462\n      tag_305\n      jump\t// in\n    tag_462:\n        /* \"#utility.yul\":12696:12733   */\n    tag_461:\n        /* \"#utility.yul\":12546:12740   */\n      swap3\n      swap2\n      pop\n      pop\n      jump\t// out\n        /* \"#utility.yul\":12746:13078   */\n    tag_157:\n        /* \"#utility.yul\":12867:12871   */\n      0x00\n        /* \"#utility.yul\":12905:12907   */\n      0x40\n        /* \"#utility.yul\":12894:12903   */\n      dup3\n        /* \"#utility.yul\":12890:12908   */\n      add\n        /* \"#utility.yul\":12882:12908   */\n      swap1\n      pop\n        /* \"#utility.yul\":12918:12989   */\n      tag_464\n        /* \"#utility.yul\":12986:12987   */\n      0x00\n        /* \"#utility.yul\":12975:12984   */\n      dup4\n        /* \"#utility.yul\":12971:12988   */\n      add\n        /* \"#utility.yul\":12962:12968   */\n      dup6\n        /* \"#utility.yul\":12918:12989   */\n      tag_291\n      jump\t// in\n    tag_464:\n        /* \"#utility.yul\":12999:13071   */\n      tag_465\n        /* \"#utility.yul\":13067:13069   */\n      0x20\n        /* \"#utility.yul\":13056:13065   */\n      dup4\n        /* \"#utility.yul\":13052:13070   */\n      add\n        /* \"#utility.yul\":13043:13049   */\n      dup5\n        /* \"#utility.yul\":12999:13071   */\n      tag_297\n      jump\t// in\n    tag_465:\n        /* \"#utility.yul\":12746:13078   */\n      swap4\n      swap3\n      pop\n      pop\n      pop\n      jump\t// out\n        /* \"#utility.yul\":13084:13251   */\n    tag_307:\n        /* \"#utility.yul\":13224:13243   */\n      0x536c697070616765206578636565646564000000000000000000000000000000\n        /* \"#utility.yul\":13220:13221   */\n      0x00\n        /* \"#utility.yul\":13212:13218   */\n      dup3\n        /* \"#utility.yul\":13208:13222   */\n      add\n        /* \"#utility.yul\":13201:13244   */\n      mstore\n        /* \"#utility.yul\":13084:13251   */\n      pop\n      jump\t// out\n        /* \"#utility.yul\":13257:13623   */\n    tag_308:\n        /* \"#utility.yul\":13399:13402   */\n      0x00\n        /* \"#utility.yul\":13420:13487   */\n      tag_468\n        /* \"#utility.yul\":13484:13486   */\n      0x11\n        /* \"#utility.yul\":13479:13482   */\n      dup4\n        /* \"#utility.yul\":13420:13487   */\n      tag_298\n      jump\t// in\n    tag_468:\n        /* \"#utility.yul\":13413:13487   */\n      swap2\n      pop\n        /* \"#utility.yul\":13496:13589   */\n      tag_469\n        /* \"#utility.yul\":13585:13588   */\n      dup3\n        /* \"#utility.yul\":13496:13589   */\n      tag_307\n      jump\t// in\n    tag_469:\n        /* \"#utility.yul\":13614:13616   */\n      0x20\n        /* \"#utility.yul\":13609:13612   */\n      dup3\n        /* \"#utility.yul\":13605:13617   */\n      add\n        /* \"#utility.yul\":13598:13617   */\n      swap1\n      pop\n        /* \"#utility.yul\":13257:13623   */\n      swap2\n      swap1\n      pop\n      jump\t// out\n        /* \"#utility.yul\":13629:14048   */\n    tag_167:\n        /* \"#utility.yul\":13795:13799   */\n      0x00\n        /* \"#utility.yul\":13833:13835   */\n      0x20\n        /* \"#utility.yul\":13822:13831   */\n      dup3\n        /* \"#utility.yul\":13818:13836   */\n      add\n        /* \"#utility.yul\":13810:13836   */\n      swap1\n      pop\n        /* \"#utility.yul\":13882:13891   */\n      dup2\n        /* \"#utility.yul\":13876:13880   */\n      dup2\n        /* \"#utility.yul\":13872:13892   */\n      sub\n        /* \"#utility.yul\":13868:13869   */\n      0x00\n        /* \"#utility.yul\":13857:13866   */\n      dup4\n        /* \"#utility.yul\":13853:13870   */\n      add\n        /* \"#utility.yul\":13846:13893   */\n      mstore\n        /* \"#utility.yul\":13910:14041   */\n      tag_471\n        /* \"#utility.yul\":14036:14040   */\n      dup2\n        /* \"#utility.yul\":13910:14041   */\n      tag_308\n      jump\t// in\n    tag_471:\n        /* \"#utility.yul\":13902:14041   */\n      swap1\n      pop\n        /* \"#utility.yul\":13629:14048   */\n      swap2\n      swap1\n      pop\n      jump\t// out\n        /* \"#utility.yul\":14054:14245   */\n    tag_169:\n        /* \"#utility.yul\":14094:14097   */\n      0x00\n        /* \"#utility.yul\":14113:14133   */\n      tag_473\n        /* \"#utility.yul\":14131:14132   */\n      dup3\n        /* \"#utility.yul\":14113:14133   */\n      tag_292\n      jump\t// in\n    tag_473:\n        /* \"#utility.yul\":14108:14133   */\n      swap2\n      pop\n        /* \"#utility.yul\":14147:14167   */\n      tag_474\n        /* \"#utility.yul\":14165:14166   */\n      dup4\n        /* \"#utility.yul\":14147:14167   */\n      tag_292\n      jump\t// in\n    tag_474:\n        /* \"#utility.yul\":14142:14167   */\n      swap3\n      pop\n        /* \"#utility.yul\":14190:14191   */\n      dup3\n        /* \"#utility.yul\":14187:14188   */\n      dup3\n        /* \"#utility.yul\":14183:14192   */\n      add\n        /* \"#utility.yul\":14176:14192   */\n      swap1\n      pop\n        /* \"#utility.yul\":14211:14214   */\n      dup1\n        /* \"#utility.yul\":14208:14209   */\n      dup3\n        /* \"#utility.yul\":14205:14215   */\n      gt\n        /* \"#utility.yul\":14202:14238   */\n      iszero\n      tag_475\n      jumpi\n        /* \"#utility.yul\":14218:14236   */\n      tag_476\n      tag_305\n      jump\t// in\n    tag_476:\n        /* \"#utility.yul\":14202:14238   */\n    tag_475:\n        /* \"#utility.yul\":14054:14245   */\n      swap3\n      swap2\n      pop\n      pop\n      jump\t// out\n        /* \"#utility.yul\":14251:14693   */\n    tag_173:\n        /* \"#utility.yul\":14400:14404   */\n      0x00\n        /* \"#utility.yul\":14438:14440   */\n      0x60\n        /* \"#utility.yul\":14427:14436   */\n      dup3\n        /* \"#utility.yul\":14423:14441   */\n      add\n        /* \"#utility.yul\":14415:14441   */\n      swap1\n      pop\n        /* \"#utility.yul\":14451:14522   */\n      tag_478\n        /* \"#utility.yul\":14519:14520   */\n      0x00\n        /* \"#utility.yul\":14508:14517   */\n      dup4\n        /* \"#utility.yul\":14504:14521   */\n      add\n        /* \"#utility.yul\":14495:14501   */\n      dup7\n        /* \"#utility.yul\":14451:14522   */\n      tag_297\n      jump\t// in\n    tag_478:\n        /* \"#utility.yul\":14532:14604   */\n      tag_479\n        /* \"#utility.yul\":14600:14602   */\n      0x20\n        /* \"#utility.yul\":14589:14598   */\n      dup4\n        /* \"#utility.yul\":14585:14603   */\n      add\n        /* \"#utility.yul\":14576:14582   */\n      dup6\n        /* \"#utility.yul\":14532:14604   */\n      tag_291\n      jump\t// in\n    tag_479:\n        /* \"#utility.yul\":14614:14686   */\n      tag_480\n        /* \"#utility.yul\":14682:14684   */\n      0x40\n        /* \"#utility.yul\":14671:14680   */\n      dup4\n        /* \"#utility.yul\":14667:14685   */\n      add\n        /* \"#utility.yul\":14658:14664   */\n      dup5\n        /* \"#utility.yul\":14614:14686   */\n      tag_297\n      jump\t// in\n    tag_480:\n        /* \"#utility.yul\":14251:14693   */\n      swap5\n      swap4\n      pop\n      pop\n      pop\n      pop\n      jump\t// out\n        /* \"#utility.yul\":14699:15252   */\n    tag_178:\n        /* \"#utility.yul\":14876:14880   */\n      0x00\n        /* \"#utility.yul\":14914:14917   */\n      0x80\n        /* \"#utility.yul\":14903:14912   */\n      dup3\n        /* \"#utility.yul\":14899:14918   */\n      add\n        /* \"#utility.yul\":14891:14918   */\n      swap1\n      pop\n        /* \"#utility.yul\":14928:14999   */\n      tag_482\n        /* \"#utility.yul\":14996:14997   */\n      0x00\n        /* \"#utility.yul\":14985:14994   */\n      dup4\n        /* \"#utility.yul\":14981:14998   */\n      add\n        /* \"#utility.yul\":14972:14978   */\n      dup8\n        /* \"#utility.yul\":14928:14999   */\n      tag_297\n      jump\t// in\n    tag_482:\n        /* \"#utility.yul\":15009:15081   */\n      tag_483\n        /* \"#utility.yul\":15077:15079   */\n      0x20\n        /* \"#utility.yul\":15066:15075   */\n      dup4\n        /* \"#utility.yul\":15062:15080   */\n      add\n        /* \"#utility.yul\":15053:15059   */\n      dup7\n        /* \"#utility.yul\":15009:15081   */\n      tag_297\n      jump\t// in\n    tag_483:\n        /* \"#utility.yul\":15091:15163   */\n      tag_484\n        /* \"#utility.yul\":15159:15161   */\n      0x40\n        /* \"#utility.yul\":15148:15157   */\n      dup4\n        /* \"#utility.yul\":15144:15162   */\n      add\n        /* \"#utility.yul\":15135:15141   */\n      dup6\n        /* \"#utility.yul\":15091:15163   */\n      tag_297\n      jump\t// in\n    tag_484:\n        /* \"#utility.yul\":15173:15245   */\n      tag_485\n        /* \"#utility.yul\":15241:15243   */\n      0x60\n        /* \"#utility.yul\":15230:15239   */\n      dup4\n        /* \"#utility.yul\":15226:15244   */\n      add\n        /* \"#utility.yul\":15217:15223   */\n      dup5\n        /* \"#utility.yul\":15173:15245   */\n      tag_297\n      jump\t// in\n    tag_485:\n        /* \"#utility.yul\":14699:15252   */\n      swap6\n      swap5\n      pop\n      pop\n      pop\n      pop\n      pop\n      jump\t// out\n        /* \"#utility.yul\":15258:15420   */\n    tag_309:\n        /* \"#utility.yul\":15398:15412   */\n      0x46656520746f6f20686967680000000000000000000000000000000000000000\n        /* \"#utility.yul\":15394:15395   */\n      0x00\n        /* \"#utility.yul\":15386:15392   */\n      dup3\n        /* \"#utility.yul\":15382:15396   */\n      add\n        /* \"#utility.yul\":15375:15413   */\n      mstore\n        /* \"#utility.yul\":15258:15420   */\n      pop\n      jump\t// out\n        /* \"#utility.yul\":15426:15792   */\n    tag_310:\n        /* \"#utility.yul\":15568:15571   */\n      0x00\n        /* \"#utility.yul\":15589:15656   */\n      tag_488\n        /* \"#utility.yul\":15653:15655   */\n      0x0c\n        /* \"#utility.yul\":15648:15651   */\n      dup4\n        /* \"#utility.yul\":15589:15656   */\n      tag_298\n      jump\t// in\n    tag_488:\n        /* \"#utility.yul\":15582:15656   */\n      swap2\n      pop\n        /* \"#utility.yul\":15665:15758   */\n      tag_489\n        /* \"#utility.yul\":15754:15757   */\n      dup3\n        /* \"#utility.yul\":15665:15758   */\n      tag_309\n      jump\t// in\n    tag_489:\n        /* \"#utility.yul\":15783:15785   */\n      0x20\n        /* \"#utility.yul\":15778:15781   */\n      dup3\n        /* \"#utility.yul\":15774:15786   */\n      add\n        /* \"#utility.yul\":15767:15786   */\n      swap1\n      pop\n        /* \"#utility.yul\":15426:15792   */\n      swap2\n      swap1\n      pop\n      jump\t// out\n        /* \"#utility.yul\":15798:16217   */\n    tag_188:\n        /* \"#utility.yul\":15964:15968   */\n      0x00\n        /* \"#utility.yul\":16002:16004   */\n      0x20\n        /* \"#utility.yul\":15991:16000   */\n      dup3\n        /* \"#utility.yul\":15987:16005   */\n      add\n        /* \"#utility.yul\":15979:16005   */\n      swap1\n      pop\n        /* \"#utility.yul\":16051:16060   */\n      dup2\n        /* \"#utility.yul\":16045:16049   */\n      dup2\n        /* \"#utility.yul\":16041:16061   */\n      sub\n        /* \"#utility.yul\":16037:16038   */\n      0x00\n        /* \"#utility.yul\":16026:16035   */\n      dup4\n        /* \"#utility.yul\":16022:16039   */\n      add\n        /* \"#utility.yul\":16015:16062   */\n      mstore\n        /* \"#utility.yul\":16079:16210   */\n      tag_491\n        /* \"#utility.yul\":16205:16209   */\n      dup2\n        /* \"#utility.yul\":16079:16210   */\n      tag_310\n      jump\t// in\n    tag_491:\n        /* \"#utility.yul\":16071:16210   */\n      swap1\n      pop\n        /* \"#utility.yul\":15798:16217   */\n      swap2\n      swap1\n      pop\n      jump\t// out\n        /* \"#utility.yul\":16223:16392   */\n    tag_311:\n        /* \"#utility.yul\":16363:16384   */\n      0x496e73756666696369656e742073686172657300000000000000000000000000\n        /* \"#utility.yul\":16359:16360   */\n      0x00\n        /* \"#utility.yul\":16351:16357   */\n      dup3\n        /* \"#utility.yul\":16347:16361   */\n      add\n        /* \"#utility.yul\":16340:16385   */\n      mstore\n        /* \"#utility.yul\":16223:16392   */\n      pop\n      jump\t// out\n        /* \"#utility.yul\":16398:16764   */\n    tag_312:\n        /* \"#utility.yul\":16540:16543   */\n      0x00\n        /* \"#utility.yul\":16561:16628   */\n      tag_494\n        /* \"#utility.yul\":16625:16627   */\n      0x13\n        /* \"#utility.yul\":16620:16623   */\n      dup4\n        /* \"#utility.yul\":16561:16628   */\n      tag_298\n      jump\t// in\n    tag_494:\n        /* \"#utility.yul\":16554:16628   */\n      swap2\n      pop\n        /* \"#utility.yul\":16637:16730   */\n      tag_495\n        /* \"#utility.yul\":16726:16729   */\n      dup3\n        /* \"#utility.yul\":16637:16730   */\n      tag_311\n      jump\t// in\n    tag_495:\n        /* \"#utility.yul\":16755:16757   */\n      0x20\n        /* \"#utility.yul\":16750:16753   */\n      dup3\n        /* \"#utility.yul\":16746:16758   */\n      add\n        /* \"#utility.yul\":16739:16758   */\n      swap1\n      pop\n        /* \"#utility.yul\":16398:16764   */\n      swap2\n      swap1\n      pop\n      jump\t// out\n        /* \"#utility.yul\":16770:17189   */\n    tag_206:\n        /* \"#utility.yul\":16936:16940   */\n      0x00\n        /* \"#utility.yul\":16974:16976   */\n      0x20\n        /* \"#utility.yul\":16963:16972   */\n      dup3\n        /* \"#utility.yul\":16959:16977   */\n      add\n        /* \"#utility.yul\":16951:16977   */\n      swap1\n      pop\n        /* \"#utility.yul\":17023:17032   */\n      dup2\n        /* \"#utility.yul\":17017:17021   */\n      dup2\n        /* \"#utility.yul\":17013:17033   */\n      sub\n        /* \"#utility.yul\":17009:17010   */\n      0x00\n        /* \"#utility.yul\":16998:17007   */\n      dup4\n        /* \"#utility.yul\":16994:17011   */\n      add\n        /* \"#utility.yul\":16987:17034   */\n      mstore\n        /* \"#utility.yul\":17051:17182   */\n      tag_497\n        /* \"#utility.yul\":17177:17181   */\n      dup2\n        /* \"#utility.yul\":17051:17182   */\n      tag_312\n      jump\t// in\n    tag_497:\n        /* \"#utility.yul\":17043:17182   */\n      swap1\n      pop\n        /* \"#utility.yul\":16770:17189   */\n      swap2\n      swap1\n      pop\n      jump\t// out\n        /* \"#utility.yul\":17195:17358   */\n    tag_313:\n        /* \"#utility.yul\":17335:17350   */\n      0x506c617965722065786973747300000000000000000000000000000000000000\n        /* \"#utility.yul\":17331:17332   */\n      0x00\n        /* \"#utility.yul\":17323:17329   */\n      dup3\n        /* \"#utility.yul\":17319:17333   */\n      add\n        /* \"#utility.yul\":17312:17351   */\n      mstore\n        /* \"#utility.yul\":17195:17358   */\n      pop\n      jump\t// out\n        /* \"#utility.yul\":17364:17730   */\n    tag_314:\n        /* \"#utility.yul\":17506:17509   */\n      0x00\n        /* \"#utility.yul\":17527:17594   */\n      tag_500\n        /* \"#utility.yul\":17591:17593   */\n      0x0d\n        /* \"#utility.yul\":17586:17589   */\n      dup4\n        /* \"#utility.yul\":17527:17594   */\n      tag_298\n      jump\t// in\n    tag_500:\n        /* \"#utility.yul\":17520:17594   */\n      swap2\n      pop\n        /* \"#utility.yul\":17603:17696   */\n      tag_501\n        /* \"#utility.yul\":17692:17695   */\n      dup3\n        /* \"#utility.yul\":17603:17696   */\n      tag_313\n      jump\t// in\n    tag_501:\n        /* \"#utility.yul\":17721:17723   */\n      0x20\n        /* \"#utility.yul\":17716:17719   */\n      dup3\n        /* \"#utility.yul\":17712:17724   */\n      add\n        /* \"#utility.yul\":17705:17724   */\n      swap1\n      pop\n        /* \"#utility.yul\":17364:17730   */\n      swap2\n      swap1\n      pop\n      jump\t// out\n        /* \"#utility.yul\":17736:18155   */\n    tag_237:\n        /* \"#utility.yul\":17902:17906   */\n      0x00\n        /* \"#utility.yul\":17940:17942   */\n      0x20\n        /* \"#utility.yul\":17929:17938   */\n      dup3\n        /* \"#utility.yul\":17925:17943   */\n      add\n        /* \"#utility.yul\":17917:17943   */\n      swap1\n      pop\n        /* \"#utility.yul\":17989:17998   */\n      dup2\n        /* \"#utility.yul\":17983:17987   */\n      dup2\n        /* \"#utility.yul\":17979:17999   */\n      sub\n        /* \"#utility.yul\":17975:17976   */\n      0x00\n        /* \"#utility.yul\":17964:17973   */\n      dup4\n        /* \"#utility.yul\":17960:17977   */\n      add\n        /* \"#utility.yul\":17953:18000   */\n      mstore\n        /* \"#utility.yul\":18017:18148   */\n      tag_503\n        /* \"#utility.yul\":18143:18147   */\n      dup2\n        /* \"#utility.yul\":18017:18148   */\n      tag_314\n      jump\t// in\n    tag_503:\n        /* \"#utility.yul\":18009:18148   */\n      swap1\n      pop\n        /* \"#utility.yul\":17736:18155   */\n      swap2\n      swap1\n      pop\n      jump\t// out\n        /* \"#utility.yul\":18161:18327   */\n    tag_315:\n        /* \"#utility.yul\":18301:18319   */\n      0x496e76616c696420747265617375727900000000000000000000000000000000\n        /* \"#utility.yul\":18297:18298   */\n      0x00\n        /* \"#utility.yul\":18289:18295   */\n      dup3\n        /* \"#utility.yul\":18285:18299   */\n      add\n        /* \"#utility.yul\":18278:18320   */\n      mstore\n        /* \"#utility.yul\":18161:18327   */\n      pop\n      jump\t// out\n        /* \"#utility.yul\":18333:18699   */\n    tag_316:\n        /* \"#utility.yul\":18475:18478   */\n      0x00\n        /* \"#utility.yul\":18496:18563   */\n      tag_506\n        /* \"#utility.yul\":18560:18562   */\n      0x10\n        /* \"#utility.yul\":18555:18558   */\n      dup4\n        /* \"#utility.yul\":18496:18563   */\n      tag_298\n      jump\t// in\n    tag_506:\n        /* \"#utility.yul\":18489:18563   */\n      swap2\n      pop\n        /* \"#utility.yul\":18572:18665   */\n      tag_507\n        /* \"#utility.yul\":18661:18664   */\n      dup3\n        /* \"#utility.yul\":18572:18665   */\n      tag_315\n      jump\t// in\n    tag_507:\n        /* \"#utility.yul\":18690:18692   */\n      0x20\n        /* \"#utility.yul\":18685:18688   */\n      dup3\n        /* \"#utility.yul\":18681:18693   */\n      add\n        /* \"#utility.yul\":18674:18693   */\n      swap1\n      pop\n        /* \"#utility.yul\":18333:18699   */\n      swap2\n      swap1\n      pop\n      jump\t// out\n        /* \"#utility.yul\":18705:19124   */\n    tag_244:\n        /* \"#utility.yul\":18871:18875   */\n      0x00\n        /* \"#utility.yul\":18909:18911   */\n      0x20\n        /* \"#utility.yul\":18898:18907   */\n      dup3\n        /* \"#utility.yul\":18894:18912   */\n      add\n        /* \"#utility.yul\":18886:18912   */\n      swap1\n      pop\n        /* \"#utility.yul\":18958:18967   */\n      dup2\n        /* \"#utility.yul\":18952:18956   */\n      dup2\n        /* \"#utility.yul\":18948:18968   */\n      sub\n        /* \"#utility.yul\":18944:18945   */\n      0x00\n        /* \"#utility.yul\":18933:18942   */\n      dup4\n        /* \"#utility.yul\":18929:18946   */\n      add\n        /* \"#utility.yul\":18922:18969   */\n      mstore\n        /* \"#utility.yul\":18986:19117   */\n      tag_509\n        /* \"#utility.yul\":19112:19116   */\n      dup2\n        /* \"#utility.yul\":18986:19117   */\n      tag_316\n      jump\t// in\n    tag_509:\n        /* \"#utility.yul\":18978:19117   */\n      swap1\n      pop\n        /* \"#utility.yul\":18705:19124   */\n      swap2\n      swap1\n      pop\n      jump\t// out\n        /* \"#utility.yul\":19130:19462   */\n    tag_269:\n        /* \"#utility.yul\":19251:19255   */\n      0x00\n        /* \"#utility.yul\":19289:19291   */\n      0x40\n        /* \"#utility.yul\":19278:19287   */\n      dup3\n        /* \"#utility.yul\":19274:19292   */\n      add\n        /* \"#utility.yul\":19266:19292   */\n      swap1\n      pop\n        /* \"#utility.yul\":19302:19373   */\n      tag_511\n        /* \"#utility.yul\":19370:19371   */\n      0x00\n        /* \"#utility.yul\":19359:19368   */\n      dup4\n        /* \"#utility.yul\":19355:19372   */\n      add\n        /* \"#utility.yul\":19346:19352   */\n      dup6\n        /* \"#utility.yul\":19302:19373   */\n      tag_291\n      jump\t// in\n    tag_511:\n        /* \"#utility.yul\":19383:19455   */\n      tag_512\n        /* \"#utility.yul\":19451:19453   */\n      0x20\n        /* \"#utility.yul\":19440:19449   */\n      dup4\n        /* \"#utility.yul\":19436:19454   */\n      add\n        /* \"#utility.yul\":19427:19433   */\n      dup5\n        /* \"#utility.yul\":19383:19455   */\n      tag_281\n      jump\t// in\n    tag_512:\n        /* \"#utility.yul\":19130:19462   */\n      swap4\n      swap3\n      pop\n      pop\n      pop\n      jump\t// out\n\n    auxdata: 0xa2646970667358221220fee4fc82b8cba82f5a05c1e90817d8e15d881bd84d5430312b37207f6a46488a64736f6c634300081b0033\n}\n",
				"bytecode": {
					"linkReferences": {},
					"object": "60a060405260c8600455348015610014575f5ffd5b506040516124ac3803806124ac833981810160405281019061003691906103a3565b60015f819055505f73ffffffffffffffffffffffffffffffffffffffff168473ffffffffffffffffffffffffffffffffffffffff16141580156100a557505f73ffffffffffffffffffffffffffffffffffffffff168273ffffffffffffffffffffffffffffffffffffffff1614155b6100e4576040517f08c379a00000000000000000000000000000000000000000000000000000000081526004016100db90610461565b60405180910390fd5b8373ffffffffffffffffffffffffffffffffffffffff1660808173ffffffffffffffffffffffffffffffffffffffff16815250508260025f6101000a81548173ffffffffffffffffffffffffffffffffffffffff021916908373ffffffffffffffffffffffffffffffffffffffff1602179055508160035f6101000a81548173ffffffffffffffffffffffffffffffffffffffff021916908373ffffffffffffffffffffffffffffffffffffffff1602179055506101aa5f5f1b826101e560201b60201c565b506101db7fa49807205ce4d355092ef5a8a18f56e8913cf4a201fbe287825b095693c21775826101e560201b60201c565b505050505061047f565b5f6101f683836102da60201b60201c565b6102d0576001805f8581526020019081526020015f205f015f8473ffffffffffffffffffffffffffffffffffffffff1673ffffffffffffffffffffffffffffffffffffffff1681526020019081526020015f205f6101000a81548160ff02191690831515021790555061026d61033e60201b60201c565b73ffffffffffffffffffffffffffffffffffffffff168273ffffffffffffffffffffffffffffffffffffffff16847f2f8788117e7eff1d82e926ec794901d17c78024a50270940304540a733656f0d60405160405180910390a4600190506102d4565b5f90505b92915050565b5f60015f8481526020019081526020015f205f015f8373ffffffffffffffffffffffffffffffffffffffff1673ffffffffffffffffffffffffffffffffffffffff1681526020019081526020015f205f9054906101000a900460ff16905092915050565b5f33905090565b5f5ffd5b5f73ffffffffffffffffffffffffffffffffffffffff82169050919050565b5f61037282610349565b9050919050565b61038281610368565b811461038c575f5ffd5b50565b5f8151905061039d81610379565b92915050565b5f5f5f5f608085870312156103bb576103ba610345565b5b5f6103c88782880161038f565b94505060206103d98782880161038f565b93505060406103ea8782880161038f565b92505060606103fb8782880161038f565b91505092959194509250565b5f82825260208201905092915050565b7f496e76616c6964206164647265737365730000000000000000000000000000005f82015250565b5f61044b601183610407565b915061045682610417565b602082019050919050565b5f6020820190508181035f8301526104788161043f565b9050919050565b608051611ff96104b35f395f81816106990152818161076c01528181610a2601528181610f0e0152610fb20152611ff95ff3fe608060405234801561000f575f5ffd5b5060043610610140575f3560e01c8063924cca9a116100b6578063d547741f1161007a578063d547741f14610388578063d67c6872146103a4578063e1a45218146103c0578063ec4a8b17146103de578063f0f44260146103fa578063f71d96cb1461041657610140565b8063924cca9a146102d0578063a217fddf146102ee578063ad9548781461030c578063b0d54bcf1461033c578063bca7d4e11461035857610140565b806361d027b31161010857806361d027b3146101fa57806375b238fc146102185780637aabf58a146102365780638301b93d14610252578063851987051461027057806391d14854146102a057610140565b806301ffc9a714610144578063248a9ca3146101745780632f2ff15d146101a457806336568abe146101c05780635c60173d146101dc575b5f5ffd5b61015e60048036038101906101599190611695565b610448565b60405161016b91906116da565b60405180910390f35b61018e60048036038101906101899190611726565b6104c1565b60405161019b9190611760565b60405180910390f35b6101be60048036038101906101b991906117d3565b6104de565b005b6101da60048036038101906101d591906117d3565b610500565b005b6101e461057b565b6040516101f1919061186c565b60405180910390f35b6102026105a0565b60405161020f9190611894565b60405180910390f35b6102206105c5565b60405161022d9190611760565b60405180910390f35b610250600480360381019061024b91906118e0565b6105e9565b005b61025a610a24565b6040516102679190611950565b60405180910390f35b61028a60048036038101906102859190611969565b610a48565b60405161029791906119b6565b60405180910390f35b6102ba60048036038101906102b591906117d3565b610a9e565b6040516102c791906116da565b60405180910390f35b6102d8610b02565b6040516102e591906119b6565b60405180910390f35b6102f6610b08565b6040516103039190611760565b60405180910390f35b61032660048036038101906103219190611969565b610b0e565b60405161033391906119b6565b60405180910390f35b610356600480360381019061035191906119cf565b610b2e565b005b610372600480360381019061036d91906119cf565b610bdf565b60405161037f91906119b6565b60405180910390f35b6103a2600480360381019061039d91906117d3565b610c3e565b005b6103be60048036038101906103b991906118e0565b610c60565b005b6103c86110d3565b6040516103d591906119b6565b60405180910390f35b6103f860048036038101906103f391906119cf565b6110d9565b005b610414600480360381019061040f91906119fa565b611202565b005b610430600480360381019061042b91906119cf565b611315565b60405161043f93929190611a25565b60405180910390f35b5f7f7965db0b000000000000000000000000000000000000000000000000000000007bffffffffffffffffffffffffffffffffffffffffffffffffffffffff1916827bffffffffffffffffffffffffffffffffffffffffffffffffffffffff191614806104ba57506104b982611347565b5b9050919050565b5f60015f8381526020019081526020015f20600101549050919050565b6104e7826104c1565b6104f0816113b0565b6104fa83836113c4565b50505050565b6105086114ad565b73ffffffffffffffffffffffffffffffffffffffff168173ffffffffffffffffffffffffffffffffffffffff161461056c576040517f6697b23200000000000000000000000000000000000000000000000000000000815260040160405180910390fd5b61057682826114b4565b505050565b60025f9054906101000a900473ffffffffffffffffffffffffffffffffffffffff1681565b60035f9054906101000a900473ffffffffffffffffffffffffffffffffffffffff1681565b7fa49807205ce4d355092ef5a8a18f56e8913cf4a201fbe287825b095693c2177581565b6105f161159e565b5f60055f8581526020019081526020015f209050806002015f9054906101000a900460ff16610655576040517f08c379a000000000000000000000000000000000000000000000000000000000815260040161064c90611ab4565b60405180910390fd5b5f8311610697576040517f08c379a000000000000000000000000000000000000000000000000000000000815260040161068e90611b1c565b60405180910390fd5b7f000000000000000000000000000000000000000000000000000000000000000073ffffffffffffffffffffffffffffffffffffffff166323b872dd3330866040518463ffffffff1660e01b81526004016106f493929190611b3a565b6020604051808303815f875af1158015610710573d5f5f3e3d5ffd5b505050506040513d601f19601f820116820180604052508101906107349190611b99565b505f612710600454856107479190611bf1565b6107519190611c5f565b90505f81856107609190611c8f565b90505f821115610828577f000000000000000000000000000000000000000000000000000000000000000073ffffffffffffffffffffffffffffffffffffffff1663a9059cbb60035f9054906101000a900473ffffffffffffffffffffffffffffffffffffffff16846040518363ffffffff1660e01b81526004016107e6929190611cc2565b6020604051808303815f875af1158015610802573d5f5f3e3d5ffd5b505050506040513d601f19601f820116820180604052508101906108269190611b99565b505b5f5f845f01540361083b5781905061085c565b8360010154845f01548361084f9190611bf1565b6108599190611c5f565b90505b8481101561089f576040517f08c379a000000000000000000000000000000000000000000000000000000000815260040161089690611d33565b60405180910390fd5b80845f015f8282546108b19190611d51565b9250508190555081846001015f8282546108cb9190611d51565b925050819055508060065f8981526020019081526020015f205f3373ffffffffffffffffffffffffffffffffffffffff1673ffffffffffffffffffffffffffffffffffffffff1681526020019081526020015f205f82825461092d9190611d51565b9250508190555060025f9054906101000a900473ffffffffffffffffffffffffffffffffffffffff1673ffffffffffffffffffffffffffffffffffffffff1663f576c9388833846040518463ffffffff1660e01b815260040161099293929190611d84565b5f604051808303815f87803b1580156109a9575f5ffd5b505af11580156109bb573d5f5f3e3d5ffd5b505050503373ffffffffffffffffffffffffffffffffffffffff167fe64e13a60f1ed7c5d8e721fe57012e0227812f9fc5b0538a9aa611ea8507c65588888487604051610a0b9493929190611db9565b60405180910390a250505050610a1f6115e2565b505050565b7f000000000000000000000000000000000000000000000000000000000000000081565b5f60065f8481526020019081526020015f205f8373ffffffffffffffffffffffffffffffffffffffff1673ffffffffffffffffffffffffffffffffffffffff1681526020019081526020015f2054905092915050565b5f60015f8481526020019081526020015f205f015f8373ffffffffffffffffffffffffffffffffffffffff1673ffffffffffffffffffffffffffffffffffffffff1681526020019081526020015f205f9054906101000a900460ff16905092915050565b60045481565b5f5f1b81565b6006602052815f5260405f20602052805f5260405f205f91509150505481565b7fa49807205ce4d355092ef5a8a18f56e8913cf4a201fbe287825b095693c21775610b58816113b0565b6103e8821115610b9d576040517f08c379a0000000000000000000000000000000000000000000000000000000008152600401610b9490611e46565b60405180910390fd5b816004819055507fa3dfe13986da4bcfdc32f544ebe130cb8ec20a2afc45e7c3994975076a08e57882604051610bd391906119b6565b60405180910390a15050565b5f5f60055f8481526020019081526020015f2090505f815f015403610c0f57670de0b6b3a7640000915050610c39565b805f0154670de0b6b3a76400008260010154610c2b9190611bf1565b610c359190611c5f565b9150505b919050565b610c47826104c1565b610c50816113b0565b610c5a83836114b4565b50505050565b610c6861159e565b5f60055f8581526020019081526020015f209050806002015f9054906101000a900460ff16610ccc576040517f08c379a0000000000000000000000000000000000000000000000000000000008152600401610cc390611ab4565b60405180910390fd5b8260065f8681526020019081526020015f205f3373ffffffffffffffffffffffffffffffffffffffff1673ffffffffffffffffffffffffffffffffffffffff1681526020019081526020015f20541015610d5b576040517f08c379a0000000000000000000000000000000000000000000000000000000008152600401610d5290611eae565b60405180910390fd5b5f815f0154826001015485610d709190611bf1565b610d7a9190611c5f565b90505f61271060045483610d8e9190611bf1565b610d989190611c5f565b90505f8183610da79190611c8f565b905084811015610dec576040517f08c379a0000000000000000000000000000000000000000000000000000000008152600401610de390611d33565b60405180910390fd5b85845f015f828254610dfe9190611c8f565b9250508190555082846001015f828254610e189190611c8f565b925050819055508560065f8981526020019081526020015f205f3373ffffffffffffffffffffffffffffffffffffffff1673ffffffffffffffffffffffffffffffffffffffff1681526020019081526020015f205f828254610e7a9190611c8f565b9250508190555060025f9054906101000a900473ffffffffffffffffffffffffffffffffffffffff1673ffffffffffffffffffffffffffffffffffffffff1663d9881acc8833896040518463ffffffff1660e01b8152600401610edf93929190611d84565b5f604051808303815f87803b158015610ef6575f5ffd5b505af1158015610f08573d5f5f3e3d5ffd5b505050507f000000000000000000000000000000000000000000000000000000000000000073ffffffffffffffffffffffffffffffffffffffff1663a9059cbb33836040518363ffffffff1660e01b8152600401610f67929190611cc2565b6020604051808303815f875af1158015610f83573d5f5f3e3d5ffd5b505050506040513d601f19601f82011682018060405250810190610fa79190611b99565b505f82111561106e577f000000000000000000000000000000000000000000000000000000000000000073ffffffffffffffffffffffffffffffffffffffff1663a9059cbb60035f9054906101000a900473ffffffffffffffffffffffffffffffffffffffff16846040518363ffffffff1660e01b815260040161102c929190611cc2565b6020604051808303815f875af1158015611048573d5f5f3e3d5ffd5b505050506040513d601f19601f8201168201806040525081019061106c9190611b99565b505b3373ffffffffffffffffffffffffffffffffffffffff167f2c68d33e5c92efc182eec06ac794258dfedcc114aac3b5fa9bdc19a4b7871f1a888884866040516110ba9493929190611db9565b60405180910390a2505050506110ce6115e2565b505050565b61271081565b7fa49807205ce4d355092ef5a8a18f56e8913cf4a201fbe287825b095693c21775611103816113b0565b60055f8381526020019081526020015f206002015f9054906101000a900460ff1615611164576040517f08c379a000000000000000000000000000000000000000000000000000000000815260040161115b90611f16565b60405180910390fd5b60405180606001604052805f81526020015f81526020016001151581525060055f8481526020019081526020015f205f820151815f0155602082015181600101556040820151816002015f6101000a81548160ff0219169083151502179055509050507f5af403e238a3f8f7d43c05ff2fac53c833e031e8fb8ec011b3c8e073d870ad7b826040516111f691906119b6565b60405180910390a15050565b7fa49807205ce4d355092ef5a8a18f56e8913cf4a201fbe287825b095693c2177561122c816113b0565b5f73ffffffffffffffffffffffffffffffffffffffff168273ffffffffffffffffffffffffffffffffffffffff160361129a576040517f08c379a000000000000000000000000000000000000000000000000000000000815260040161129190611f7e565b60405180910390fd5b8160035f6101000a81548173ffffffffffffffffffffffffffffffffffffffff021916908373ffffffffffffffffffffffffffffffffffffffff1602179055507f7dae230f18360d76a040c81f050aa14eb9d6dc7901b20fc5d855e2a20fe814d1826040516113099190611894565b60405180910390a15050565b6005602052805f5260405f205f91509050805f015490806001015490806002015f9054906101000a900460ff16905083565b5f7f01ffc9a7000000000000000000000000000000000000000000000000000000007bffffffffffffffffffffffffffffffffffffffffffffffffffffffff1916827bffffffffffffffffffffffffffffffffffffffffffffffffffffffff1916149050919050565b6113c1816113bc6114ad565b6115eb565b50565b5f6113cf8383610a9e565b6114a3576001805f8581526020019081526020015f205f015f8473ffffffffffffffffffffffffffffffffffffffff1673ffffffffffffffffffffffffffffffffffffffff1681526020019081526020015f205f6101000a81548160ff0219169083151502179055506114406114ad565b73ffffffffffffffffffffffffffffffffffffffff168273ffffffffffffffffffffffffffffffffffffffff16847f2f8788117e7eff1d82e926ec794901d17c78024a50270940304540a733656f0d60405160405180910390a4600190506114a7565b5f90505b92915050565b5f33905090565b5f6114bf8383610a9e565b15611594575f60015f8581526020019081526020015f205f015f8473ffffffffffffffffffffffffffffffffffffffff1673ffffffffffffffffffffffffffffffffffffffff1681526020019081526020015f205f6101000a81548160ff0219169083151502179055506115316114ad565b73ffffffffffffffffffffffffffffffffffffffff168273ffffffffffffffffffffffffffffffffffffffff16847ff6391f5c32d9c69d2a47ea670b442974b53935d1edc7fd64eb21e047a839171b60405160405180910390a460019050611598565b5f90505b92915050565b60025f54036115d9576040517f3ee5aeb500000000000000000000000000000000000000000000000000000000815260040160405180910390fd5b60025f81905550565b60015f81905550565b6115f58282610a9e565b6116385780826040517fe2517d3f00000000000000000000000000000000000000000000000000000000815260040161162f929190611f9c565b60405180910390fd5b5050565b5f5ffd5b5f7fffffffff0000000000000000000000000000000000000000000000000000000082169050919050565b61167481611640565b811461167e575f5ffd5b50565b5f8135905061168f8161166b565b92915050565b5f602082840312156116aa576116a961163c565b5b5f6116b784828501611681565b91505092915050565b5f8115159050919050565b6116d4816116c0565b82525050565b5f6020820190506116ed5f8301846116cb565b92915050565b5f819050919050565b611705816116f3565b811461170f575f5ffd5b50565b5f81359050611720816116fc565b92915050565b5f6020828403121561173b5761173a61163c565b5b5f61174884828501611712565b91505092915050565b61175a816116f3565b82525050565b5f6020820190506117735f830184611751565b92915050565b5f73ffffffffffffffffffffffffffffffffffffffff82169050919050565b5f6117a282611779565b9050919050565b6117b281611798565b81146117bc575f5ffd5b50565b5f813590506117cd816117a9565b92915050565b5f5f604083850312156117e9576117e861163c565b5b5f6117f685828601611712565b9250506020611807858286016117bf565b9150509250929050565b5f819050919050565b5f61183461182f61182a84611779565b611811565b611779565b9050919050565b5f6118458261181a565b9050919050565b5f6118568261183b565b9050919050565b6118668161184c565b82525050565b5f60208201905061187f5f83018461185d565b92915050565b61188e81611798565b82525050565b5f6020820190506118a75f830184611885565b92915050565b5f819050919050565b6118bf816118ad565b81146118c9575f5ffd5b50565b5f813590506118da816118b6565b92915050565b5f5f5f606084860312156118f7576118f661163c565b5b5f611904868287016118cc565b9350506020611915868287016118cc565b9250506040611926868287016118cc565b9150509250925092565b5f61193a8261183b565b9050919050565b61194a81611930565b82525050565b5f6020820190506119635f830184611941565b92915050565b5f5f6040838503121561197f5761197e61163c565b5b5f61198c858286016118cc565b925050602061199d858286016117bf565b9150509250929050565b6119b0816118ad565b82525050565b5f6020820190506119c95f8301846119a7565b92915050565b5f602082840312156119e4576119e361163c565b5b5f6119f1848285016118cc565b91505092915050565b5f60208284031215611a0f57611a0e61163c565b5b5f611a1c848285016117bf565b91505092915050565b5f606082019050611a385f8301866119a7565b611a4560208301856119a7565b611a5260408301846116cb565b949350505050565b5f82825260208201905092915050565b7f506c61796572206e6f7420666f756e64000000000000000000000000000000005f82015250565b5f611a9e601083611a5a565b9150611aa982611a6a565b602082019050919050565b5f6020820190508181035f830152611acb81611a92565b9050919050565b7f5a65726f2046544b0000000000000000000000000000000000000000000000005f82015250565b5f611b06600883611a5a565b9150611b1182611ad2565b602082019050919050565b5f6020820190508181035f830152611b3381611afa565b9050919050565b5f606082019050611b4d5f830186611885565b611b5a6020830185611885565b611b6760408301846119a7565b949350505050565b611b78816116c0565b8114611b82575f5ffd5b50565b5f81519050611b9381611b6f565b92915050565b5f60208284031215611bae57611bad61163c565b5b5f611bbb84828501611b85565b91505092915050565b7f4e487b71000000000000000000000000000000000000000000000000000000005f52601160045260245ffd5b5f611bfb826118ad565b9150611c06836118ad565b9250828202611c14816118ad565b91508282048414831517611c2b57611c2a611bc4565b5b5092915050565b7f4e487b71000000000000000000000000000000000000000000000000000000005f52601260045260245ffd5b5f611c69826118ad565b9150611c74836118ad565b925082611c8457611c83611c32565b5b828204905092915050565b5f611c99826118ad565b9150611ca4836118ad565b9250828203905081811115611cbc57611cbb611bc4565b5b92915050565b5f604082019050611cd55f830185611885565b611ce260208301846119a7565b9392505050565b7f536c6970706167652065786365656465640000000000000000000000000000005f82015250565b5f611d1d601183611a5a565b9150611d2882611ce9565b602082019050919050565b5f6020820190508181035f830152611d4a81611d11565b9050919050565b5f611d5b826118ad565b9150611d66836118ad565b9250828201905080821115611d7e57611d7d611bc4565b5b92915050565b5f606082019050611d975f8301866119a7565b611da46020830185611885565b611db160408301846119a7565b949350505050565b5f608082019050611dcc5f8301876119a7565b611dd960208301866119a7565b611de660408301856119a7565b611df360608301846119a7565b95945050505050565b7f46656520746f6f206869676800000000000000000000000000000000000000005f82015250565b5f611e30600c83611a5a565b9150611e3b82611dfc565b602082019050919050565b5f6020820190508181035f830152611e5d81611e24565b9050919050565b7f496e73756666696369656e7420736861726573000000000000000000000000005f82015250565b5f611e98601383611a5a565b9150611ea382611e64565b602082019050919050565b5f6020820190508181035f830152611ec581611e8c565b9050919050565b7f506c6179657220657869737473000000000000000000000000000000000000005f82015250565b5f611f00600d83611a5a565b9150611f0b82611ecc565b602082019050919050565b5f6020820190508181035f830152611f2d81611ef4565b9050919050565b7f496e76616c6964207472656173757279000000000000000000000000000000005f82015250565b5f611f68601083611a5a565b9150611f7382611f34565b602082019050919050565b5f6020820190508181035f830152611f9581611f5c565b9050919050565b5f604082019050611faf5f830185611885565b611fbc6020830184611751565b939250505056fea2646970667358221220fee4fc82b8cba82f5a05c1e90817d8e15d881bd84d5430312b37207f6a46488a64736f6c634300081b0033",
					"opcodes": "PUSH1 0xA0 PUSH1 0x40 MSTORE PUSH1 0xC8 PUSH1 0x4 SSTORE CALLVALUE DUP1 ISZERO PUSH2 0x14 JUMPI PUSH0 PUSH0 REVERT JUMPDEST POP PUSH1 0x40 MLOAD PUSH2 0x24AC CODESIZE SUB DUP1 PUSH2 0x24AC DUP4 CODECOPY DUP2 DUP2 ADD PUSH1 0x40 MSTORE DUP2 ADD SWAP1 PUSH2 0x36 SWAP2 SWAP1 PUSH2 0x3A3 JUMP JUMPDEST PUSH1 0x1 PUSH0 DUP2 SWAP1 SSTORE POP PUSH0 PUSH20 0xFFFFFFFFFFFFFFFFFFFFFFFFFFFFFFFFFFFFFFFF AND DUP5 PUSH20 0xFFFFFFFFFFFFFFFFFFFFFFFFFFFFFFFFFFFFFFFF AND EQ ISZERO DUP1 ISZERO PUSH2 0xA5 JUMPI POP PUSH0 PUSH20 0xFFFFFFFFFFFFFFFFFFFFFFFFFFFFFFFFFFFFFFFF AND DUP3 PUSH20 0xFFFFFFFFFFFFFFFFFFFFFFFFFFFFFFFFFFFFFFFF AND EQ ISZERO JUMPDEST PUSH2 0xE4 JUMPI PUSH1 0x40 MLOAD PUSH32 0x8C379A000000000000000000000000000000000000000000000000000000000 DUP2 MSTORE PUSH1 0x4 ADD PUSH2 0xDB SWAP1 PUSH2 0x461 JUMP JUMPDEST PUSH1 0x40 MLOAD DUP1 SWAP2 SUB SWAP1 REVERT JUMPDEST DUP4 PUSH20 0xFFFFFFFFFFFFFFFFFFFFFFFFFFFFFFFFFFFFFFFF AND PUSH1 0x80 DUP2 PUSH20 0xFFFFFFFFFFFFFFFFFFFFFFFFFFFFFFFFFFFFFFFF AND DUP2 MSTORE POP POP DUP3 PUSH1 0x2 PUSH0 PUSH2 0x100 EXP DUP2 SLOAD DUP2 PUSH20 0xFFFFFFFFFFFFFFFFFFFFFFFFFFFFFFFFFFFFFFFF MUL NOT AND SWAP1 DUP4 PUSH20 0xFFFFFFFFFFFFFFFFFFFFFFFFFFFFFFFFFFFFFFFF AND MUL OR SWAP1 SSTORE POP DUP2 PUSH1 0x3 PUSH0 PUSH2 0x100 EXP DUP2 SLOAD DUP2 PUSH20 0xFFFFFFFFFFFFFFFFFFFFFFFFFFFFFFFFFFFFFFFF MUL NOT AND SWAP1 DUP4 PUSH20 0xFFFFFFFFFFFFFFFFFFFFFFFFFFFFFFFFFFFFFFFF AND MUL OR SWAP1 SSTORE POP PUSH2 0x1AA PUSH0 PUSH0 SHL DUP3 PUSH2 0x1E5 PUSH1 0x20 SHL PUSH1 0x20 SHR JUMP JUMPDEST POP PUSH2 0x1DB PUSH32 0xA49807205CE4D355092EF5A8A18F56E8913CF4A201FBE287825B095693C21775 DUP3 PUSH2 0x1E5 PUSH1 0x20 SHL PUSH1 0x20 SHR JUMP JUMPDEST POP POP POP POP POP PUSH2 0x47F JUMP JUMPDEST PUSH0 PUSH2 0x1F6 DUP4 DUP4 PUSH2 0x2DA PUSH1 0x20 SHL PUSH1 0x20 SHR JUMP JUMPDEST PUSH2 0x2D0 JUMPI PUSH1 0x1 DUP1 PUSH0 DUP6 DUP2 MSTORE PUSH1 0x20 ADD SWAP1 DUP2 MSTORE PUSH1 0x20 ADD PUSH0 KECCAK256 PUSH0 ADD PUSH0 DUP5 PUSH20 0xFFFFFFFFFFFFFFFFFFFFFFFFFFFFFFFFFFFFFFFF AND PUSH20 0xFFFFFFFFFFFFFFFFFFFFFFFFFFFFFFFFFFFFFFFF AND DUP2 MSTORE PUSH1 0x20 ADD SWAP1 DUP2 MSTORE PUSH1 0x20 ADD PUSH0 KECCAK256 PUSH0 PUSH2 0x100 EXP DUP2 SLOAD DUP2 PUSH1 0xFF MUL NOT AND SWAP1 DUP4 ISZERO ISZERO MUL OR SWAP1 SSTORE POP PUSH2 0x26D PUSH2 0x33E PUSH1 0x20 SHL PUSH1 0x20 SHR JUMP JUMPDEST PUSH20 0xFFFFFFFFFFFFFFFFFFFFFFFFFFFFFFFFFFFFFFFF AND DUP3 PUSH20 0xFFFFFFFFFFFFFFFFFFFFFFFFFFFFFFFFFFFFFFFF AND DUP5 PUSH32 0x2F8788117E7EFF1D82E926EC794901D17C78024A50270940304540A733656F0D PUSH1 0x40 MLOAD PUSH1 0x40 MLOAD DUP1 SWAP2 SUB SWAP1 LOG4 PUSH1 0x1 SWAP1 POP PUSH2 0x2D4 JUMP JUMPDEST PUSH0 SWAP1 POP JUMPDEST SWAP3 SWAP2 POP POP JUMP JUMPDEST PUSH0 PUSH1 0x1 PUSH0 DUP5 DUP2 MSTORE PUSH1 0x20 ADD SWAP1 DUP2 MSTORE PUSH1 0x20 ADD PUSH0 KECCAK256 PUSH0 ADD PUSH0 DUP4 PUSH20 0xFFFFFFFFFFFFFFFFFFFFFFFFFFFFFFFFFFFFFFFF AND PUSH20 0xFFFFFFFFFFFFFFFFFFFFFFFFFFFFFFFFFFFFFFFF AND DUP2 MSTORE PUSH1 0x20 ADD SWAP1 DUP2 MSTORE PUSH1 0x20 ADD PUSH0 KECCAK256 PUSH0 SWAP1 SLOAD SWAP1 PUSH2 0x100 EXP SWAP1 DIV PUSH1 0xFF AND SWAP1 POP SWAP3 SWAP2 POP POP JUMP JUMPDEST PUSH0 CALLER SWAP1 POP SWAP1 JUMP JUMPDEST PUSH0 PUSH0 REVERT JUMPDEST PUSH0 PUSH20 0xFFFFFFFFFFFFFFFFFFFFFFFFFFFFFFFFFFFFFFFF DUP3 AND SWAP1 POP SWAP2 SWAP1 POP JUMP JUMPDEST PUSH0 PUSH2 0x372 DUP3 PUSH2 0x349 JUMP JUMPDEST SWAP1 POP SWAP2 SWAP1 POP JUMP JUMPDEST PUSH2 0x382 DUP2 PUSH2 0x368 JUMP JUMPDEST DUP2 EQ PUSH2 0x38C JUMPI PUSH0 PUSH0 REVERT JUMPDEST POP JUMP JUMPDEST PUSH0 DUP2 MLOAD SWAP1 POP PUSH2 0x39D DUP2 PUSH2 0x379 JUMP JUMPDEST SWAP3 SWAP2 POP POP JUMP JUMPDEST PUSH0 PUSH0 PUSH0 PUSH0 PUSH1 0x80 DUP6 DUP8 SUB SLT ISZERO PUSH2 0x3BB JUMPI PUSH2 0x3BA PUSH2 0x345 JUMP JUMPDEST JUMPDEST PUSH0 PUSH2 0x3C8 DUP8 DUP3 DUP9 ADD PUSH2 0x38F JUMP JUMPDEST SWAP5 POP POP PUSH1 0x20 PUSH2 0x3D9 DUP8 DUP3 DUP9 ADD PUSH2 0x38F JUMP JUMPDEST SWAP4 POP POP PUSH1 0x40 PUSH2 0x3EA DUP8 DUP3 DUP9 ADD PUSH2 0x38F JUMP JUMPDEST SWAP3 POP POP PUSH1 0x60 PUSH2 0x3FB DUP8 DUP3 DUP9 ADD PUSH2 0x38F JUMP JUMPDEST SWAP2 POP POP SWAP3 SWAP6 SWAP2 SWAP5 POP SWAP3 POP JUMP JUMPDEST PUSH0 DUP3 DUP3 MSTORE PUSH1 0x20 DUP3 ADD SWAP1 POP SWAP3 SWAP2 POP POP JUMP JUMPDEST PUSH32 0x496E76616C696420616464726573736573000000000000000000000000000000 PUSH0 DUP3 ADD MSTORE POP JUMP JUMPDEST PUSH0 PUSH2 0x44B PUSH1 0x11 DUP4 PUSH2 0x407 JUMP JUMPDEST SWAP2 POP PUSH2 0x456 DUP3 PUSH2 0x417 JUMP JUMPDEST PUSH1 0x20 DUP3 ADD SWAP1 POP SWAP2 SWAP1 POP JUMP JUMPDEST PUSH0 PUSH1 0x20 DUP3 ADD SWAP1 POP DUP2 DUP2 SUB PUSH0 DUP4 ADD MSTORE PUSH2 0x478 DUP2 PUSH2 0x43F JUMP JUMPDEST SWAP1 POP SWAP2 SWAP1 POP JUMP JUMPDEST PUSH1 0x80 MLOAD PUSH2 0x1FF9 PUSH2 0x4B3 PUSH0 CODECOPY PUSH0 DUP2 DUP2 PUSH2 0x699 ADD MSTORE DUP2 DUP2 PUSH2 0x76C ADD MSTORE DUP2 DUP2 PUSH2 0xA26 ADD MSTORE DUP2 DUP2 PUSH2 0xF0E ADD MSTORE PUSH2 0xFB2 ADD MSTORE PUSH2 0x1FF9 PUSH0 RETURN INVALID PUSH1 0x80 PUSH1 0x40 MSTORE CALLVALUE DUP1 ISZERO PUSH2 0xF JUMPI PUSH0 PUSH0 REVERT JUMPDEST POP PUSH1 0x4 CALLDATASIZE LT PUSH2 0x140 JUMPI PUSH0 CALLDATALOAD PUSH1 0xE0 SHR DUP1 PUSH4 0x924CCA9A GT PUSH2 0xB6 JUMPI DUP1 PUSH4 0xD547741F GT PUSH2 0x7A JUMPI DUP1 PUSH4 0xD547741F EQ PUSH2 0x388 JUMPI DUP1 PUSH4 0xD67C6872 EQ PUSH2 0x3A4 JUMPI DUP1 PUSH4 0xE1A45218 EQ PUSH2 0x3C0 JUMPI DUP1 PUSH4 0xEC4A8B17 EQ PUSH2 0x3DE JUMPI DUP1 PUSH4 0xF0F44260 EQ PUSH2 0x3FA JUMPI DUP1 PUSH4 0xF71D96CB EQ PUSH2 0x416 JUMPI PUSH2 0x140 JUMP JUMPDEST DUP1 PUSH4 0x924CCA9A EQ PUSH2 0x2D0 JUMPI DUP1 PUSH4 0xA217FDDF EQ PUSH2 0x2EE JUMPI DUP1 PUSH4 0xAD954878 EQ PUSH2 0x30C JUMPI DUP1 PUSH4 0xB0D54BCF EQ PUSH2 0x33C JUMPI DUP1 PUSH4 0xBCA7D4E1 EQ PUSH2 0x358 JUMPI PUSH2 0x140 JUMP JUMPDEST DUP1 PUSH4 0x61D027B3 GT PUSH2 0x108 JUMPI DUP1 PUSH4 0x61D027B3 EQ PUSH2 0x1FA JUMPI DUP1 PUSH4 0x75B238FC EQ PUSH2 0x218 JUMPI DUP1 PUSH4 0x7AABF58A EQ PUSH2 0x236 JUMPI DUP1 PUSH4 0x8301B93D EQ PUSH2 0x252 JUMPI DUP1 PUSH4 0x85198705 EQ PUSH2 0x270 JUMPI DUP1 PUSH4 0x91D14854 EQ PUSH2 0x2A0 JUMPI PUSH2 0x140 JUMP JUMPDEST DUP1 PUSH4 0x1FFC9A7 EQ PUSH2 0x144 JUMPI DUP1 PUSH4 0x248A9CA3 EQ PUSH2 0x174 JUMPI DUP1 PUSH4 0x2F2FF15D EQ PUSH2 0x1A4 JUMPI DUP1 PUSH4 0x36568ABE EQ PUSH2 0x1C0 JUMPI DUP1 PUSH4 0x5C60173D EQ PUSH2 0x1DC JUMPI JUMPDEST PUSH0 PUSH0 REVERT JUMPDEST PUSH2 0x15E PUSH1 0x4 DUP1 CALLDATASIZE SUB DUP2 ADD SWAP1 PUSH2 0x159 SWAP2 SWAP1 PUSH2 0x1695 JUMP JUMPDEST PUSH2 0x448 JUMP JUMPDEST PUSH1 0x40 MLOAD PUSH2 0x16B SWAP2 SWAP1 PUSH2 0x16DA JUMP JUMPDEST PUSH1 0x40 MLOAD DUP1 SWAP2 SUB SWAP1 RETURN JUMPDEST PUSH2 0x18E PUSH1 0x4 DUP1 CALLDATASIZE SUB DUP2 ADD SWAP1 PUSH2 0x189 SWAP2 SWAP1 PUSH2 0x1726 JUMP JUMPDEST PUSH2 0x4C1 JUMP JUMPDEST PUSH1 0x40 MLOAD PUSH2 0x19B SWAP2 SWAP1 PUSH2 0x1760 JUMP JUMPDEST PUSH1 0x40 MLOAD DUP1 SWAP2 SUB SWAP1 RETURN JUMPDEST PUSH2 0x1BE PUSH1 0x4 DUP1 CALLDATASIZE SUB DUP2 ADD SWAP1 PUSH2 0x1B9 SWAP2 SWAP1 PUSH2 0x17D3 JUMP JUMPDEST PUSH2 0x4DE JUMP JUMPDEST STOP JUMPDEST PUSH2 0x1DA PUSH1 0x4 DUP1 CALLDATASIZE SUB DUP2 ADD SWAP1 PUSH2 0x1D5 SWAP2 SWAP1 PUSH2 0x17D3 JUMP JUMPDEST PUSH2 0x500 JUMP JUMPDEST STOP JUMPDEST PUSH2 0x1E4 PUSH2 0x57B JUMP JUMPDEST PUSH1 0x40 MLOAD PUSH2 0x1F1 SWAP2 SWAP1 PUSH2 0x186C JUMP JUMPDEST PUSH1 0x40 MLOAD DUP1 SWAP2 SUB SWAP1 RETURN JUMPDEST PUSH2 0x202 PUSH2 0x5A0 JUMP JUMPDEST PUSH1 0x40 MLOAD PUSH2 0x20F SWAP2 SWAP1 PUSH2 0x1894 JUMP JUMPDEST PUSH1 0x40 MLOAD DUP1 SWAP2 SUB SWAP1 RETURN JUMPDEST PUSH2 0x220 PUSH2 0x5C5 JUMP JUMPDEST PUSH1 0x40 MLOAD PUSH2 0x22D SWAP2 SWAP1 PUSH2 0x1760 JUMP JUMPDEST PUSH1 0x40 MLOAD DUP1 SWAP2 SUB SWAP1 RETURN JUMPDEST PUSH2 0x250 PUSH1 0x4 DUP1 CALLDATASIZE SUB DUP2 ADD SWAP1 PUSH2 0x24B SWAP2 SWAP1 PUSH2 0x18E0 JUMP JUMPDEST PUSH2 0x5E9 JUMP JUMPDEST STOP JUMPDEST PUSH2 0x25A PUSH2 0xA24 JUMP JUMPDEST PUSH1 0x40 MLOAD PUSH2 0x267 SWAP2 SWAP1 PUSH2 0x1950 JUMP JUMPDEST PUSH1 0x40 MLOAD DUP1 SWAP2 SUB SWAP1 RETURN JUMPDEST PUSH2 0x28A PUSH1 0x4 DUP1 CALLDATASIZE SUB DUP2 ADD SWAP1 PUSH2 0x285 SWAP2 SWAP1 PUSH2 0x1969 JUMP JUMPDEST PUSH2 0xA48 JUMP JUMPDEST PUSH1 0x40 MLOAD PUSH2 0x297 SWAP2 SWAP1 PUSH2 0x19B6 JUMP JUMPDEST PUSH1 0x40 MLOAD DUP1 SWAP2 SUB SWAP1 RETURN JUMPDEST PUSH2 0x2BA PUSH1 0x4 DUP1 CALLDATASIZE SUB DUP2 ADD SWAP1 PUSH2 0x2B5 SWAP2 SWAP1 PUSH2 0x17D3 JUMP JUMPDEST PUSH2 0xA9E JUMP JUMPDEST PUSH1 0x40 MLOAD PUSH2 0x2C7 SWAP2 SWAP1 PUSH2 0x16DA JUMP JUMPDEST PUSH1 0x40 MLOAD DUP1 SWAP2 SUB SWAP1 RETURN JUMPDEST PUSH2 0x2D8 PUSH2 0xB02 JUMP JUMPDEST PUSH1 0x40 MLOAD PUSH2 0x2E5 SWAP2 SWAP1 PUSH2 0x19B6 JUMP JUMPDEST PUSH1 0x40 MLOAD DUP1 SWAP2 SUB SWAP1 RETURN JUMPDEST PUSH2 0x2F6 PUSH2 0xB08 JUMP JUMPDEST PUSH1 0x40 MLOAD PUSH2 0x303 SWAP2 SWAP1 PUSH2 0x1760 JUMP JUMPDEST PUSH1 0x40 MLOAD DUP1 SWAP2 SUB SWAP1 RETURN JUMPDEST PUSH2 0x326 PUSH1 0x4 DUP1 CALLDATASIZE SUB DUP2 ADD SWAP1 PUSH2 0x321 SWAP2 SWAP1 PUSH2 0x1969 JUMP JUMPDEST PUSH2 0xB0E JUMP JUMPDEST PUSH1 0x40 MLOAD PUSH2 0x333 SWAP2 SWAP1 PUSH2 0x19B6 JUMP JUMPDEST PUSH1 0x40 MLOAD DUP1 SWAP2 SUB SWAP1 RETURN JUMPDEST PUSH2 0x356 PUSH1 0x4 DUP1 CALLDATASIZE SUB DUP2 ADD SWAP1 PUSH2 0x351 SWAP2 SWAP1 PUSH2 0x19CF JUMP JUMPDEST PUSH2 0xB2E JUMP JUMPDEST STOP JUMPDEST PUSH2 0x372 PUSH1 0x4 DUP1 CALLDATASIZE SUB DUP2 ADD SWAP1 PUSH2 0x36D SWAP2 SWAP1 PUSH2 0x19CF JUMP JUMPDEST PUSH2 0xBDF JUMP JUMPDEST PUSH1 0x40 MLOAD PUSH2 0x37F SWAP2 SWAP1 PUSH2 0x19B6 JUMP JUMPDEST PUSH1 0x40 MLOAD DUP1 SWAP2 SUB SWAP1 RETURN JUMPDEST PUSH2 0x3A2 PUSH1 0x4 DUP1 CALLDATASIZE SUB DUP2 ADD SWAP1 PUSH2 0x39D SWAP2 SWAP1 PUSH2 0x17D3 JUMP JUMPDEST PUSH2 0xC3E JUMP JUMPDEST STOP JUMPDEST PUSH2 0x3BE PUSH1 0x4 DUP1 CALLDATASIZE SUB DUP2 ADD SWAP1 PUSH2 0x3B9 SWAP2 SWAP1 PUSH2 0x18E0 JUMP JUMPDEST PUSH2 0xC60 JUMP JUMPDEST STOP JUMPDEST PUSH2 0x3C8 PUSH2 0x10D3 JUMP JUMPDEST PUSH1 0x40 MLOAD PUSH2 0x3D5 SWAP2 SWAP1 PUSH2 0x19B6 JUMP JUMPDEST PUSH1 0x40 MLOAD DUP1 SWAP2 SUB SWAP1 RETURN JUMPDEST PUSH2 0x3F8 PUSH1 0x4 DUP1 CALLDATASIZE SUB DUP2 ADD SWAP1 PUSH2 0x3F3 SWAP2 SWAP1 PUSH2 0x19CF JUMP JUMPDEST PUSH2 0x10D9 JUMP JUMPDEST STOP JUMPDEST PUSH2 0x414 PUSH1 0x4 DUP1 CALLDATASIZE SUB DUP2 ADD SWAP1 PUSH2 0x40F SWAP2 SWAP1 PUSH2 0x19FA JUMP JUMPDEST PUSH2 0x1202 JUMP JUMPDEST STOP JUMPDEST PUSH2 0x430 PUSH1 0x4 DUP1 CALLDATASIZE SUB DUP2 ADD SWAP1 PUSH2 0x42B SWAP2 SWAP1 PUSH2 0x19CF JUMP JUMPDEST PUSH2 0x1315 JUMP JUMPDEST PUSH1 0x40 MLOAD PUSH2 0x43F SWAP4 SWAP3 SWAP2 SWAP1 PUSH2 0x1A25 JUMP JUMPDEST PUSH1 0x40 MLOAD DUP1 SWAP2 SUB SWAP1 RETURN JUMPDEST PUSH0 PUSH32 0x7965DB0B00000000000000000000000000000000000000000000000000000000 PUSH28 0xFFFFFFFFFFFFFFFFFFFFFFFFFFFFFFFFFFFFFFFFFFFFFFFFFFFFFFFF NOT AND DUP3 PUSH28 0xFFFFFFFFFFFFFFFFFFFFFFFFFFFFFFFFFFFFFFFFFFFFFFFFFFFFFFFF NOT AND EQ DUP1 PUSH2 0x4BA JUMPI POP PUSH2 0x4B9 DUP3 PUSH2 0x1347 JUMP JUMPDEST JUMPDEST SWAP1 POP SWAP2 SWAP1 POP JUMP JUMPDEST PUSH0 PUSH1 0x1 PUSH0 DUP4 DUP2 MSTORE PUSH1 0x20 ADD SWAP1 DUP2 MSTORE PUSH1 0x20 ADD PUSH0 KECCAK256 PUSH1 0x1 ADD SLOAD SWAP1 POP SWAP2 SWAP1 POP JUMP JUMPDEST PUSH2 0x4E7 DUP3 PUSH2 0x4C1 JUMP JUMPDEST PUSH2 0x4F0 DUP2 PUSH2 0x13B0 JUMP JUMPDEST PUSH2 0x4FA DUP4 DUP4 PUSH2 0x13C4 JUMP JUMPDEST POP POP POP POP JUMP JUMPDEST PUSH2 0x508 PUSH2 0x14AD JUMP JUMPDEST PUSH20 0xFFFFFFFFFFFFFFFFFFFFFFFFFFFFFFFFFFFFFFFF AND DUP2 PUSH20 0xFFFFFFFFFFFFFFFFFFFFFFFFFFFFFFFFFFFFFFFF AND EQ PUSH2 0x56C JUMPI PUSH1 0x40 MLOAD PUSH32 0x6697B23200000000000000000000000000000000000000000000000000000000 DUP2 MSTORE PUSH1 0x4 ADD PUSH1 0x40 MLOAD DUP1 SWAP2 SUB SWAP1 REVERT JUMPDEST PUSH2 0x576 DUP3 DUP3 PUSH2 0x14B4 JUMP JUMPDEST POP POP POP JUMP JUMPDEST PUSH1 0x2 PUSH0 SWAP1 SLOAD SWAP1 PUSH2 0x100 EXP SWAP1 DIV PUSH20 0xFFFFFFFFFFFFFFFFFFFFFFFFFFFFFFFFFFFFFFFF AND DUP2 JUMP JUMPDEST PUSH1 0x3 PUSH0 SWAP1 SLOAD SWAP1 PUSH2 0x100 EXP SWAP1 DIV PUSH20 0xFFFFFFFFFFFFFFFFFFFFFFFFFFFFFFFFFFFFFFFF AND DUP2 JUMP JUMPDEST PUSH32 0xA49807205CE4D355092EF5A8A18F56E8913CF4A201FBE287825B095693C21775 DUP2 JUMP JUMPDEST PUSH2 0x5F1 PUSH2 0x159E JUMP JUMPDEST PUSH0 PUSH1 0x5 PUSH0 DUP6 DUP2 MSTORE PUSH1 0x20 ADD SWAP1 DUP2 MSTORE PUSH1 0x20 ADD PUSH0 KECCAK256 SWAP1 POP DUP1 PUSH1 0x2 ADD PUSH0 SWAP1 SLOAD SWAP1 PUSH2 0x100 EXP SWAP1 DIV PUSH1 0xFF AND PUSH2 0x655 JUMPI PUSH1 0x40 MLOAD PUSH32 0x8C379A000000000000000000000000000000000000000000000000000000000 DUP2 MSTORE PUSH1 0x4 ADD PUSH2 0x64C SWAP1 PUSH2 0x1AB4 JUMP JUMPDEST PUSH1 0x40 MLOAD DUP1 SWAP2 SUB SWAP1 REVERT JUMPDEST PUSH0 DUP4 GT PUSH2 0x697 JUMPI PUSH1 0x40 MLOAD PUSH32 0x8C379A000000000000000000000000000000000000000000000000000000000 DUP2 MSTORE PUSH1 0x4 ADD PUSH2 0x68E SWAP1 PUSH2 0x1B1C JUMP JUMPDEST PUSH1 0x40 MLOAD DUP1 SWAP2 SUB SWAP1 REVERT JUMPDEST PUSH32 0x0 PUSH20 0xFFFFFFFFFFFFFFFFFFFFFFFFFFFFFFFFFFFFFFFF AND PUSH4 0x23B872DD CALLER ADDRESS DUP7 PUSH1 0x40 MLOAD DUP5 PUSH4 0xFFFFFFFF AND PUSH1 0xE0 SHL DUP2 MSTORE PUSH1 0x4 ADD PUSH2 0x6F4 SWAP4 SWAP3 SWAP2 SWAP1 PUSH2 0x1B3A JUMP JUMPDEST PUSH1 0x20 PUSH1 0x40 MLOAD DUP1 DUP4 SUB DUP2 PUSH0 DUP8 GAS CALL ISZERO DUP1 ISZERO PUSH2 0x710 JUMPI RETURNDATASIZE PUSH0 PUSH0 RETURNDATACOPY RETURNDATASIZE PUSH0 REVERT JUMPDEST POP POP POP POP PUSH1 0x40 MLOAD RETURNDATASIZE PUSH1 0x1F NOT PUSH1 0x1F DUP3 ADD AND DUP3 ADD DUP1 PUSH1 0x40 MSTORE POP DUP2 ADD SWAP1 PUSH2 0x734 SWAP2 SWAP1 PUSH2 0x1B99 JUMP JUMPDEST POP PUSH0 PUSH2 0x2710 PUSH1 0x4 SLOAD DUP6 PUSH2 0x747 SWAP2 SWAP1 PUSH2 0x1BF1 JUMP JUMPDEST PUSH2 0x751 SWAP2 SWAP1 PUSH2 0x1C5F JUMP JUMPDEST SWAP1 POP PUSH0 DUP2 DUP6 PUSH2 0x760 SWAP2 SWAP1 PUSH2 0x1C8F JUMP JUMPDEST SWAP1 POP PUSH0 DUP3 GT ISZERO PUSH2 0x828 JUMPI PUSH32 0x0 PUSH20 0xFFFFFFFFFFFFFFFFFFFFFFFFFFFFFFFFFFFFFFFF AND PUSH4 0xA9059CBB PUSH1 0x3 PUSH0 SWAP1 SLOAD SWAP1 PUSH2 0x100 EXP SWAP1 DIV PUSH20 0xFFFFFFFFFFFFFFFFFFFFFFFFFFFFFFFFFFFFFFFF AND DUP5 PUSH1 0x40 MLOAD DUP4 PUSH4 0xFFFFFFFF AND PUSH1 0xE0 SHL DUP2 MSTORE PUSH1 0x4 ADD PUSH2 0x7E6 SWAP3 SWAP2 SWAP1 PUSH2 0x1CC2 JUMP JUMPDEST PUSH1 0x20 PUSH1 0x40 MLOAD DUP1 DUP4 SUB DUP2 PUSH0 DUP8 GAS CALL ISZERO DUP1 ISZERO PUSH2 0x802 JUMPI RETURNDATASIZE PUSH0 PUSH0 RETURNDATACOPY RETURNDATASIZE PUSH0 REVERT JUMPDEST POP POP POP POP PUSH1 0x40 MLOAD RETURNDATASIZE PUSH1 0x1F NOT PUSH1 0x1F DUP3 ADD AND DUP3 ADD DUP1 PUSH1 0x40 MSTORE POP DUP2 ADD SWAP1 PUSH2 0x826 SWAP2 SWAP1 PUSH2 0x1B99 JUMP JUMPDEST POP JUMPDEST PUSH0 PUSH0 DUP5 PUSH0 ADD SLOAD SUB PUSH2 0x83B JUMPI DUP2 SWAP1 POP PUSH2 0x85C JUMP JUMPDEST DUP4 PUSH1 0x1 ADD SLOAD DUP5 PUSH0 ADD SLOAD DUP4 PUSH2 0x84F SWAP2 SWAP1 PUSH2 0x1BF1 JUMP JUMPDEST PUSH2 0x859 SWAP2 SWAP1 PUSH2 0x1C5F JUMP JUMPDEST SWAP1 POP JUMPDEST DUP5 DUP2 LT ISZERO PUSH2 0x89F JUMPI PUSH1 0x40 MLOAD PUSH32 0x8C379A000000000000000000000000000000000000000000000000000000000 DUP2 MSTORE PUSH1 0x4 ADD PUSH2 0x896 SWAP1 PUSH2 0x1D33 JUMP JUMPDEST PUSH1 0x40 MLOAD DUP1 SWAP2 SUB SWAP1 REVERT JUMPDEST DUP1 DUP5 PUSH0 ADD PUSH0 DUP3 DUP3 SLOAD PUSH2 0x8B1 SWAP2 SWAP1 PUSH2 0x1D51 JUMP JUMPDEST SWAP3 POP POP DUP2 SWAP1 SSTORE POP DUP2 DUP5 PUSH1 0x1 ADD PUSH0 DUP3 DUP3 SLOAD PUSH2 0x8CB SWAP2 SWAP1 PUSH2 0x1D51 JUMP JUMPDEST SWAP3 POP POP DUP2 SWAP1 SSTORE POP DUP1 PUSH1 0x6 PUSH0 DUP10 DUP2 MSTORE PUSH1 0x20 ADD SWAP1 DUP2 MSTORE PUSH1 0x20 ADD PUSH0 KECCAK256 PUSH0 CALLER PUSH20 0xFFFFFFFFFFFFFFFFFFFFFFFFFFFFFFFFFFFFFFFF AND PUSH20 0xFFFFFFFFFFFFFFFFFFFFFFFFFFFFFFFFFFFFFFFF AND DUP2 MSTORE PUSH1 0x20 ADD SWAP1 DUP2 MSTORE PUSH1 0x20 ADD PUSH0 KECCAK256 PUSH0 DUP3 DUP3 SLOAD PUSH2 0x92D SWAP2 SWAP1 PUSH2 0x1D51 JUMP JUMPDEST SWAP3 POP POP DUP2 SWAP1 SSTORE POP PUSH1 0x2 PUSH0 SWAP1 SLOAD SWAP1 PUSH2 0x100 EXP SWAP1 DIV PUSH20 0xFFFFFFFFFFFFFFFFFFFFFFFFFFFFFFFFFFFFFFFF AND PUSH20 0xFFFFFFFFFFFFFFFFFFFFFFFFFFFFFFFFFFFFFFFF AND PUSH4 0xF576C938 DUP9 CALLER DUP5 PUSH1 0x40 MLOAD DUP5 PUSH4 0xFFFFFFFF AND PUSH1 0xE0 SHL DUP2 MSTORE PUSH1 0x4 ADD PUSH2 0x992 SWAP4 SWAP3 SWAP2 SWAP1 PUSH2 0x1D84 JUMP JUMPDEST PUSH0 PUSH1 0x40 MLOAD DUP1 DUP4 SUB DUP2 PUSH0 DUP8 DUP1 EXTCODESIZE ISZERO DUP1 ISZERO PUSH2 0x9A9 JUMPI PUSH0 PUSH0 REVERT JUMPDEST POP GAS CALL ISZERO DUP1 ISZERO PUSH2 0x9BB JUMPI RETURNDATASIZE PUSH0 PUSH0 RETURNDATACOPY RETURNDATASIZE PUSH0 REVERT JUMPDEST POP POP POP POP CALLER PUSH20 0xFFFFFFFFFFFFFFFFFFFFFFFFFFFFFFFFFFFFFFFF AND PUSH32 0xE64E13A60F1ED7C5D8E721FE57012E0227812F9FC5B0538A9AA611EA8507C655 DUP9 DUP9 DUP5 DUP8 PUSH1 0x40 MLOAD PUSH2 0xA0B SWAP5 SWAP4 SWAP3 SWAP2 SWAP1 PUSH2 0x1DB9 JUMP JUMPDEST PUSH1 0x40 MLOAD DUP1 SWAP2 SUB SWAP1 LOG2 POP POP POP POP PUSH2 0xA1F PUSH2 0x15E2 JUMP JUMPDEST POP POP POP JUMP JUMPDEST PUSH32 0x0 DUP2 JUMP JUMPDEST PUSH0 PUSH1 0x6 PUSH0 DUP5 DUP2 MSTORE PUSH1 0x20 ADD SWAP1 DUP2 MSTORE PUSH1 0x20 ADD PUSH0 KECCAK256 PUSH0 DUP4 PUSH20 0xFFFFFFFFFFFFFFFFFFFFFFFFFFFFFFFFFFFFFFFF AND PUSH20 0xFFFFFFFFFFFFFFFFFFFFFFFFFFFFFFFFFFFFFFFF AND DUP2 MSTORE PUSH1 0x20 ADD SWAP1 DUP2 MSTORE PUSH1 0x20 ADD PUSH0 KECCAK256 SLOAD SWAP1 POP SWAP3 SWAP2 POP POP JUMP JUMPDEST PUSH0 PUSH1 0x1 PUSH0 DUP5 DUP2 MSTORE PUSH1 0x20 ADD SWAP1 DUP2 MSTORE PUSH1 0x20 ADD PUSH0 KECCAK256 PUSH0 ADD PUSH0 DUP4 PUSH20 0xFFFFFFFFFFFFFFFFFFFFFFFFFFFFFFFFFFFFFFFF AND PUSH20 0xFFFFFFFFFFFFFFFFFFFFFFFFFFFFFFFFFFFFFFFF AND DUP2 MSTORE PUSH1 0x20 ADD SWAP1 DUP2 MSTORE PUSH1 0x20 ADD PUSH0 KECCAK256 PUSH0 SWAP1 SLOAD SWAP1 PUSH2 0x100 EXP SWAP1 DIV PUSH1 0xFF AND SWAP1 POP SWAP3 SWAP2 POP POP JUMP JUMPDEST PUSH1 0x4 SLOAD DUP2 JUMP JUMPDEST PUSH0 PUSH0 SHL DUP2 JUMP JUMPDEST PUSH1 0x6 PUSH1 0x20 MSTORE DUP2 PUSH0 MSTORE PUSH1 0x40 PUSH0 KECCAK256 PUSH1 0x20 MSTORE DUP1 PUSH0 MSTORE PUSH1 0x40 PUSH0 KECCAK256 PUSH0 SWAP2 POP SWAP2 POP POP SLOAD DUP2 JUMP JUMPDEST PUSH32 0xA49807205CE4D355092EF5A8A18F56E8913CF4A201FBE287825B095693C21775 PUSH2 0xB58 DUP2 PUSH2 0x13B0 JUMP JUMPDEST PUSH2 0x3E8 DUP3 GT ISZERO PUSH2 0xB9D JUMPI PUSH1 0x40 MLOAD PUSH32 0x8C379A000000000000000000000000000000000000000000000000000000000 DUP2 MSTORE PUSH1 0x4 ADD PUSH2 0xB94 SWAP1 PUSH2 0x1E46 JUMP JUMPDEST PUSH1 0x40 MLOAD DUP1 SWAP2 SUB SWAP1 REVERT JUMPDEST DUP2 PUSH1 0x4 DUP2 SWAP1 SSTORE POP PUSH32 0xA3DFE13986DA4BCFDC32F544EBE130CB8EC20A2AFC45E7C3994975076A08E578 DUP3 PUSH1 0x40 MLOAD PUSH2 0xBD3 SWAP2 SWAP1 PUSH2 0x19B6 JUMP JUMPDEST PUSH1 0x40 MLOAD DUP1 SWAP2 SUB SWAP1 LOG1 POP POP JUMP JUMPDEST PUSH0 PUSH0 PUSH1 0x5 PUSH0 DUP5 DUP2 MSTORE PUSH1 0x20 ADD SWAP1 DUP2 MSTORE PUSH1 0x20 ADD PUSH0 KECCAK256 SWAP1 POP PUSH0 DUP2 PUSH0 ADD SLOAD SUB PUSH2 0xC0F JUMPI PUSH8 0xDE0B6B3A7640000 SWAP2 POP POP PUSH2 0xC39 JUMP JUMPDEST DUP1 PUSH0 ADD SLOAD PUSH8 0xDE0B6B3A7640000 DUP3 PUSH1 0x1 ADD SLOAD PUSH2 0xC2B SWAP2 SWAP1 PUSH2 0x1BF1 JUMP JUMPDEST PUSH2 0xC35 SWAP2 SWAP1 PUSH2 0x1C5F JUMP JUMPDEST SWAP2 POP POP JUMPDEST SWAP2 SWAP1 POP JUMP JUMPDEST PUSH2 0xC47 DUP3 PUSH2 0x4C1 JUMP JUMPDEST PUSH2 0xC50 DUP2 PUSH2 0x13B0 JUMP JUMPDEST PUSH2 0xC5A DUP4 DUP4 PUSH2 0x14B4 JUMP JUMPDEST POP POP POP POP JUMP JUMPDEST PUSH2 0xC68 PUSH2 0x159E JUMP JUMPDEST PUSH0 PUSH1 0x5 PUSH0 DUP6 DUP2 MSTORE PUSH1 0x20 ADD SWAP1 DUP2 MSTORE PUSH1 0x20 ADD PUSH0 KECCAK256 SWAP1 POP DUP1 PUSH1 0x2 ADD PUSH0 SWAP1 SLOAD SWAP1 PUSH2 0x100 EXP SWAP1 DIV PUSH1 0xFF AND PUSH2 0xCCC JUMPI PUSH1 0x40 MLOAD PUSH32 0x8C379A000000000000000000000000000000000000000000000000000000000 DUP2 MSTORE PUSH1 0x4 ADD PUSH2 0xCC3 SWAP1 PUSH2 0x1AB4 JUMP JUMPDEST PUSH1 0x40 MLOAD DUP1 SWAP2 SUB SWAP1 REVERT JUMPDEST DUP3 PUSH1 0x6 PUSH0 DUP7 DUP2 MSTORE PUSH1 0x20 ADD SWAP1 DUP2 MSTORE PUSH1 0x20 ADD PUSH0 KECCAK256 PUSH0 CALLER PUSH20 0xFFFFFFFFFFFFFFFFFFFFFFFFFFFFFFFFFFFFFFFF AND PUSH20 0xFFFFFFFFFFFFFFFFFFFFFFFFFFFFFFFFFFFFFFFF AND DUP2 MSTORE PUSH1 0x20 ADD SWAP1 DUP2 MSTORE PUSH1 0x20 ADD PUSH0 KECCAK256 SLOAD LT ISZERO PUSH2 0xD5B JUMPI PUSH1 0x40 MLOAD PUSH32 0x8C379A000000000000000000000000000000000000000000000000000000000 DUP2 MSTORE PUSH1 0x4 ADD PUSH2 0xD52 SWAP1 PUSH2 0x1EAE JUMP JUMPDEST PUSH1 0x40 MLOAD DUP1 SWAP2 SUB SWAP1 REVERT JUMPDEST PUSH0 DUP2 PUSH0 ADD SLOAD DUP3 PUSH1 0x1 ADD SLOAD DUP6 PUSH2 0xD70 SWAP2 SWAP1 PUSH2 0x1BF1 JUMP JUMPDEST PUSH2 0xD7A SWAP2 SWAP1 PUSH2 0x1C5F JUMP JUMPDEST SWAP1 POP PUSH0 PUSH2 0x2710 PUSH1 0x4 SLOAD DUP4 PUSH2 0xD8E SWAP2 SWAP1 PUSH2 0x1BF1 JUMP JUMPDEST PUSH2 0xD98 SWAP2 SWAP1 PUSH2 0x1C5F JUMP JUMPDEST SWAP1 POP PUSH0 DUP2 DUP4 PUSH2 0xDA7 SWAP2 SWAP1 PUSH2 0x1C8F JUMP JUMPDEST SWAP1 POP DUP5 DUP2 LT ISZERO PUSH2 0xDEC JUMPI PUSH1 0x40 MLOAD PUSH32 0x8C379A000000000000000000000000000000000000000000000000000000000 DUP2 MSTORE PUSH1 0x4 ADD PUSH2 0xDE3 SWAP1 PUSH2 0x1D33 JUMP JUMPDEST PUSH1 0x40 MLOAD DUP1 SWAP2 SUB SWAP1 REVERT JUMPDEST DUP6 DUP5 PUSH0 ADD PUSH0 DUP3 DUP3 SLOAD PUSH2 0xDFE SWAP2 SWAP1 PUSH2 0x1C8F JUMP JUMPDEST SWAP3 POP POP DUP2 SWAP1 SSTORE POP DUP3 DUP5 PUSH1 0x1 ADD PUSH0 DUP3 DUP3 SLOAD PUSH2 0xE18 SWAP2 SWAP1 PUSH2 0x1C8F JUMP JUMPDEST SWAP3 POP POP DUP2 SWAP1 SSTORE POP DUP6 PUSH1 0x6 PUSH0 DUP10 DUP2 MSTORE PUSH1 0x20 ADD SWAP1 DUP2 MSTORE PUSH1 0x20 ADD PUSH0 KECCAK256 PUSH0 CALLER PUSH20 0xFFFFFFFFFFFFFFFFFFFFFFFFFFFFFFFFFFFFFFFF AND PUSH20 0xFFFFFFFFFFFFFFFFFFFFFFFFFFFFFFFFFFFFFFFF AND DUP2 MSTORE PUSH1 0x20 ADD SWAP1 DUP2 MSTORE PUSH1 0x20 ADD PUSH0 KECCAK256 PUSH0 DUP3 DUP3 SLOAD PUSH2 0xE7A SWAP2 SWAP1 PUSH2 0x1C8F JUMP JUMPDEST SWAP3 POP POP DUP2 SWAP1 SSTORE POP PUSH1 0x2 PUSH0 SWAP1 SLOAD SWAP1 PUSH2 0x100 EXP SWAP1 DIV PUSH20 0xFFFFFFFFFFFFFFFFFFFFFFFFFFFFFFFFFFFFFFFF AND PUSH20 0xFFFFFFFFFFFFFFFFFFFFFFFFFFFFFFFFFFFFFFFF AND PUSH4 0xD9881ACC DUP9 CALLER DUP10 PUSH1 0x40 MLOAD DUP5 PUSH4 0xFFFFFFFF AND PUSH1 0xE0 SHL DUP2 MSTORE PUSH1 0x4 ADD PUSH2 0xEDF SWAP4 SWAP3 SWAP2 SWAP1 PUSH2 0x1D84 JUMP JUMPDEST PUSH0 PUSH1 0x40 MLOAD DUP1 DUP4 SUB DUP2 PUSH0 DUP8 DUP1 EXTCODESIZE ISZERO DUP1 ISZERO PUSH2 0xEF6 JUMPI PUSH0 PUSH0 REVERT JUMPDEST POP GAS CALL ISZERO DUP1 ISZERO PUSH2 0xF08 JUMPI RETURNDATASIZE PUSH0 PUSH0 RETURNDATACOPY RETURNDATASIZE PUSH0 REVERT JUMPDEST POP POP POP POP PUSH32 0x0 PUSH20 0xFFFFFFFFFFFFFFFFFFFFFFFFFFFFFFFFFFFFFFFF AND PUSH4 0xA9059CBB CALLER DUP4 PUSH1 0x40 MLOAD DUP4 PUSH4 0xFFFFFFFF AND PUSH1 0xE0 SHL DUP2 MSTORE PUSH1 0x4 ADD PUSH2 0xF67 SWAP3 SWAP2 SWAP1 PUSH2 0x1CC2 JUMP JUMPDEST PUSH1 0x20 PUSH1 0x40 MLOAD DUP1 DUP4 SUB DUP2 PUSH0 DUP8 GAS CALL ISZERO DUP1 ISZERO PUSH2 0xF83 JUMPI RETURNDATASIZE PUSH0 PUSH0 RETURNDATACOPY RETURNDATASIZE PUSH0 REVERT JUMPDEST POP POP POP POP PUSH1 0x40 MLOAD RETURNDATASIZE PUSH1 0x1F NOT PUSH1 0x1F DUP3 ADD AND DUP3 ADD DUP1 PUSH1 0x40 MSTORE POP DUP2 ADD SWAP1 PUSH2 0xFA7 SWAP2 SWAP1 PUSH2 0x1B99 JUMP JUMPDEST POP PUSH0 DUP3 GT ISZERO PUSH2 0x106E JUMPI PUSH32 0x0 PUSH20 0xFFFFFFFFFFFFFFFFFFFFFFFFFFFFFFFFFFFFFFFF AND PUSH4 0xA9059CBB PUSH1 0x3 PUSH0 SWAP1 SLOAD SWAP1 PUSH2 0x100 EXP SWAP1 DIV PUSH20 0xFFFFFFFFFFFFFFFFFFFFFFFFFFFFFFFFFFFFFFFF AND DUP5 PUSH1 0x40 MLOAD DUP4 PUSH4 0xFFFFFFFF AND PUSH1 0xE0 SHL DUP2 MSTORE PUSH1 0x4 ADD PUSH2 0x102C SWAP3 SWAP2 SWAP1 PUSH2 0x1CC2 JUMP JUMPDEST PUSH1 0x20 PUSH1 0x40 MLOAD DUP1 DUP4 SUB DUP2 PUSH0 DUP8 GAS CALL ISZERO DUP1 ISZERO PUSH2 0x1048 JUMPI RETURNDATASIZE PUSH0 PUSH0 RETURNDATACOPY RETURNDATASIZE PUSH0 REVERT JUMPDEST POP POP POP POP PUSH1 0x40 MLOAD RETURNDATASIZE PUSH1 0x1F NOT PUSH1 0x1F DUP3 ADD AND DUP3 ADD DUP1 PUSH1 0x40 MSTORE POP DUP2 ADD SWAP1 PUSH2 0x106C SWAP2 SWAP1 PUSH2 0x1B99 JUMP JUMPDEST POP JUMPDEST CALLER PUSH20 0xFFFFFFFFFFFFFFFFFFFFFFFFFFFFFFFFFFFFFFFF AND PUSH32 0x2C68D33E5C92EFC182EEC06AC794258DFEDCC114AAC3B5FA9BDC19A4B7871F1A DUP9 DUP9 DUP5 DUP7 PUSH1 0x40 MLOAD PUSH2 0x10BA SWAP5 SWAP4 SWAP3 SWAP2 SWAP1 PUSH2 0x1DB9 JUMP JUMPDEST PUSH1 0x40 MLOAD DUP1 SWAP2 SUB SWAP1 LOG2 POP POP POP POP PUSH2 0x10CE PUSH2 0x15E2 JUMP JUMPDEST POP POP POP JUMP JUMPDEST PUSH2 0x2710 DUP2 JUMP JUMPDEST PUSH32 0xA49807205CE4D355092EF5A8A18F56E8913CF4A201FBE287825B095693C21775 PUSH2 0x1103 DUP2 PUSH2 0x13B0 JUMP JUMPDEST PUSH1 0x5 PUSH0 DUP4 DUP2 MSTORE PUSH1 0x20 ADD SWAP1 DUP2 MSTORE PUSH1 0x20 ADD PUSH0 KECCAK256 PUSH1 0x2 ADD PUSH0 SWAP1 SLOAD SWAP1 PUSH2 0x100 EXP SWAP1 DIV PUSH1 0xFF AND ISZERO PUSH2 0x1164 JUMPI PUSH1 0x40 MLOAD PUSH32 0x8C379A000000000000000000000000000000000000000000000000000000000 DUP2 MSTORE PUSH1 0x4 ADD PUSH2 0x115B SWAP1 PUSH2 0x1F16 JUMP JUMPDEST PUSH1 0x40 MLOAD DUP1 SWAP2 SUB SWAP1 REVERT JUMPDEST PUSH1 0x40 MLOAD DUP1 PUSH1 0x60 ADD PUSH1 0x40 MSTORE DUP1 PUSH0 DUP2 MSTORE PUSH1 0x20 ADD PUSH0 DUP2 MSTORE PUSH1 0x20 ADD PUSH1 0x1 ISZERO ISZERO DUP2 MSTORE POP PUSH1 0x5 PUSH0 DUP5 DUP2 MSTORE PUSH1 0x20 ADD SWAP1 DUP2 MSTORE PUSH1 0x20 ADD PUSH0 KECCAK256 PUSH0 DUP3 ADD MLOAD DUP2 PUSH0 ADD SSTORE PUSH1 0x20 DUP3 ADD MLOAD DUP2 PUSH1 0x1 ADD SSTORE PUSH1 0x40 DUP3 ADD MLOAD DUP2 PUSH1 0x2 ADD PUSH0 PUSH2 0x100 EXP DUP2 SLOAD DUP2 PUSH1 0xFF MUL NOT AND SWAP1 DUP4 ISZERO ISZERO MUL OR SWAP1 SSTORE POP SWAP1 POP POP PUSH32 0x5AF403E238A3F8F7D43C05FF2FAC53C833E031E8FB8EC011B3C8E073D870AD7B DUP3 PUSH1 0x40 MLOAD PUSH2 0x11F6 SWAP2 SWAP1 PUSH2 0x19B6 JUMP JUMPDEST PUSH1 0x40 MLOAD DUP1 SWAP2 SUB SWAP1 LOG1 POP POP JUMP JUMPDEST PUSH32 0xA49807205CE4D355092EF5A8A18F56E8913CF4A201FBE287825B095693C21775 PUSH2 0x122C DUP2 PUSH2 0x13B0 JUMP JUMPDEST PUSH0 PUSH20 0xFFFFFFFFFFFFFFFFFFFFFFFFFFFFFFFFFFFFFFFF AND DUP3 PUSH20 0xFFFFFFFFFFFFFFFFFFFFFFFFFFFFFFFFFFFFFFFF AND SUB PUSH2 0x129A JUMPI PUSH1 0x40 MLOAD PUSH32 0x8C379A000000000000000000000000000000000000000000000000000000000 DUP2 MSTORE PUSH1 0x4 ADD PUSH2 0x1291 SWAP1 PUSH2 0x1F7E JUMP JUMPDEST PUSH1 0x40 MLOAD DUP1 SWAP2 SUB SWAP1 REVERT JUMPDEST DUP2 PUSH1 0x3 PUSH0 PUSH2 0x100 EXP DUP2 SLOAD DUP2 PUSH20 0xFFFFFFFFFFFFFFFFFFFFFFFFFFFFFFFFFFFFFFFF MUL NOT AND SWAP1 DUP4 PUSH20 0xFFFFFFFFFFFFFFFFFFFFFFFFFFFFFFFFFFFFFFFF AND MUL OR SWAP1 SSTORE POP PUSH32 0x7DAE230F18360D76A040C81F050AA14EB9D6DC7901B20FC5D855E2A20FE814D1 DUP3 PUSH1 0x40 MLOAD PUSH2 0x1309 SWAP2 SWAP1 PUSH2 0x1894 JUMP JUMPDEST PUSH1 0x40 MLOAD DUP1 SWAP2 SUB SWAP1 LOG1 POP POP JUMP JUMPDEST PUSH1 0x5 PUSH1 0x20 MSTORE DUP1 PUSH0 MSTORE PUSH1 0x40 PUSH0 KECCAK256 PUSH0 SWAP2 POP SWAP1 POP DUP1 PUSH0 ADD SLOAD SWAP1 DUP1 PUSH1 0x1 ADD SLOAD SWAP1 DUP1 PUSH1 0x2 ADD PUSH0 SWAP1 SLOAD SWAP1 PUSH2 0x100 EXP SWAP1 DIV PUSH1 0xFF AND SWAP1 POP DUP4 JUMP JUMPDEST PUSH0 PUSH32 0x1FFC9A700000000000000000000000000000000000000000000000000000000 PUSH28 0xFFFFFFFFFFFFFFFFFFFFFFFFFFFFFFFFFFFFFFFFFFFFFFFFFFFFFFFF NOT AND DUP3 PUSH28 0xFFFFFFFFFFFFFFFFFFFFFFFFFFFFFFFFFFFFFFFFFFFFFFFFFFFFFFFF NOT AND EQ SWAP1 POP SWAP2 SWAP1 POP JUMP JUMPDEST PUSH2 0x13C1 DUP2 PUSH2 0x13BC PUSH2 0x14AD JUMP JUMPDEST PUSH2 0x15EB JUMP JUMPDEST POP JUMP JUMPDEST PUSH0 PUSH2 0x13CF DUP4 DUP4 PUSH2 0xA9E JUMP JUMPDEST PUSH2 0x14A3 JUMPI PUSH1 0x1 DUP1 PUSH0 DUP6 DUP2 MSTORE PUSH1 0x20 ADD SWAP1 DUP2 MSTORE PUSH1 0x20 ADD PUSH0 KECCAK256 PUSH0 ADD PUSH0 DUP5 PUSH20 0xFFFFFFFFFFFFFFFFFFFFFFFFFFFFFFFFFFFFFFFF AND PUSH20 0xFFFFFFFFFFFFFFFFFFFFFFFFFFFFFFFFFFFFFFFF AND DUP2 MSTORE PUSH1 0x20 ADD SWAP1 DUP2 MSTORE PUSH1 0x20 ADD PUSH0 KECCAK256 PUSH0 PUSH2 0x100 EXP DUP2 SLOAD DUP2 PUSH1 0xFF MUL NOT AND SWAP1 DUP4 ISZERO ISZERO MUL OR SWAP1 SSTORE POP PUSH2 0x1440 PUSH2 0x14AD JUMP JUMPDEST PUSH20 0xFFFFFFFFFFFFFFFFFFFFFFFFFFFFFFFFFFFFFFFF AND DUP3 PUSH20 0xFFFFFFFFFFFFFFFFFFFFFFFFFFFFFFFFFFFFFFFF AND DUP5 PUSH32 0x2F8788117E7EFF1D82E926EC794901D17C78024A50270940304540A733656F0D PUSH1 0x40 MLOAD PUSH1 0x40 MLOAD DUP1 SWAP2 SUB SWAP1 LOG4 PUSH1 0x1 SWAP1 POP PUSH2 0x14A7 JUMP JUMPDEST PUSH0 SWAP1 POP JUMPDEST SWAP3 SWAP2 POP POP JUMP JUMPDEST PUSH0 CALLER SWAP1 POP SWAP1 JUMP JUMPDEST PUSH0 PUSH2 0x14BF DUP4 DUP4 PUSH2 0xA9E JUMP JUMPDEST ISZERO PUSH2 0x1594 JUMPI PUSH0 PUSH1 0x1 PUSH0 DUP6 DUP2 MSTORE PUSH1 0x20 ADD SWAP1 DUP2 MSTORE PUSH1 0x20 ADD PUSH0 KECCAK256 PUSH0 ADD PUSH0 DUP5 PUSH20 0xFFFFFFFFFFFFFFFFFFFFFFFFFFFFFFFFFFFFFFFF AND PUSH20 0xFFFFFFFFFFFFFFFFFFFFFFFFFFFFFFFFFFFFFFFF AND DUP2 MSTORE PUSH1 0x20 ADD SWAP1 DUP2 MSTORE PUSH1 0x20 ADD PUSH0 KECCAK256 PUSH0 PUSH2 0x100 EXP DUP2 SLOAD DUP2 PUSH1 0xFF MUL NOT AND SWAP1 DUP4 ISZERO ISZERO MUL OR SWAP1 SSTORE POP PUSH2 0x1531 PUSH2 0x14AD JUMP JUMPDEST PUSH20 0xFFFFFFFFFFFFFFFFFFFFFFFFFFFFFFFFFFFFFFFF AND DUP3 PUSH20 0xFFFFFFFFFFFFFFFFFFFFFFFFFFFFFFFFFFFFFFFF AND DUP5 PUSH32 0xF6391F5C32D9C69D2A47EA670B442974B53935D1EDC7FD64EB21E047A839171B PUSH1 0x40 MLOAD PUSH1 0x40 MLOAD DUP1 SWAP2 SUB SWAP1 LOG4 PUSH1 0x1 SWAP1 POP PUSH2 0x1598 JUMP JUMPDEST PUSH0 SWAP1 POP JUMPDEST SWAP3 SWAP2 POP POP JUMP JUMPDEST PUSH1 0x2 PUSH0 SLOAD SUB PUSH2 0x15D9 JUMPI PUSH1 0x40 MLOAD PUSH32 0x3EE5AEB500000000000000000000000000000000000000000000000000000000 DUP2 MSTORE PUSH1 0x4 ADD PUSH1 0x40 MLOAD DUP1 SWAP2 SUB SWAP1 REVERT JUMPDEST PUSH1 0x2 PUSH0 DUP2 SWAP1 SSTORE POP JUMP JUMPDEST PUSH1 0x1 PUSH0 DUP2 SWAP1 SSTORE POP JUMP JUMPDEST PUSH2 0x15F5 DUP3 DUP3 PUSH2 0xA9E JUMP JUMPDEST PUSH2 0x1638 JUMPI DUP1 DUP3 PUSH1 0x40 MLOAD PUSH32 0xE2517D3F00000000000000000000000000000000000000000000000000000000 DUP2 MSTORE PUSH1 0x4 ADD PUSH2 0x162F SWAP3 SWAP2 SWAP1 PUSH2 0x1F9C JUMP JUMPDEST PUSH1 0x40 MLOAD DUP1 SWAP2 SUB SWAP1 REVERT JUMPDEST POP POP JUMP JUMPDEST PUSH0 PUSH0 REVERT JUMPDEST PUSH0 PUSH32 0xFFFFFFFF00000000000000000000000000000000000000000000000000000000 DUP3 AND SWAP1 POP SWAP2 SWAP1 POP JUMP JUMPDEST PUSH2 0x1674 DUP2 PUSH2 0x1640 JUMP JUMPDEST DUP2 EQ PUSH2 0x167E JUMPI PUSH0 PUSH0 REVERT JUMPDEST POP JUMP JUMPDEST PUSH0 DUP2 CALLDATALOAD SWAP1 POP PUSH2 0x168F DUP2 PUSH2 0x166B JUMP JUMPDEST SWAP3 SWAP2 POP POP JUMP JUMPDEST PUSH0 PUSH1 0x20 DUP3 DUP5 SUB SLT ISZERO PUSH2 0x16AA JUMPI PUSH2 0x16A9 PUSH2 0x163C JUMP JUMPDEST JUMPDEST PUSH0 PUSH2 0x16B7 DUP5 DUP3 DUP6 ADD PUSH2 0x1681 JUMP JUMPDEST SWAP2 POP POP SWAP3 SWAP2 POP POP JUMP JUMPDEST PUSH0 DUP2 ISZERO ISZERO SWAP1 POP SWAP2 SWAP1 POP JUMP JUMPDEST PUSH2 0x16D4 DUP2 PUSH2 0x16C0 JUMP JUMPDEST DUP3 MSTORE POP POP JUMP JUMPDEST PUSH0 PUSH1 0x20 DUP3 ADD SWAP1 POP PUSH2 0x16ED PUSH0 DUP4 ADD DUP5 PUSH2 0x16CB JUMP JUMPDEST SWAP3 SWAP2 POP POP JUMP JUMPDEST PUSH0 DUP2 SWAP1 POP SWAP2 SWAP1 POP JUMP JUMPDEST PUSH2 0x1705 DUP2 PUSH2 0x16F3 JUMP JUMPDEST DUP2 EQ PUSH2 0x170F JUMPI PUSH0 PUSH0 REVERT JUMPDEST POP JUMP JUMPDEST PUSH0 DUP2 CALLDATALOAD SWAP1 POP PUSH2 0x1720 DUP2 PUSH2 0x16FC JUMP JUMPDEST SWAP3 SWAP2 POP POP JUMP JUMPDEST PUSH0 PUSH1 0x20 DUP3 DUP5 SUB SLT ISZERO PUSH2 0x173B JUMPI PUSH2 0x173A PUSH2 0x163C JUMP JUMPDEST JUMPDEST PUSH0 PUSH2 0x1748 DUP5 DUP3 DUP6 ADD PUSH2 0x1712 JUMP JUMPDEST SWAP2 POP POP SWAP3 SWAP2 POP POP JUMP JUMPDEST PUSH2 0x175A DUP2 PUSH2 0x16F3 JUMP JUMPDEST DUP3 MSTORE POP POP JUMP JUMPDEST PUSH0 PUSH1 0x20 DUP3 ADD SWAP1 POP PUSH2 0x1773 PUSH0 DUP4 ADD DUP5 PUSH2 0x1751 JUMP JUMPDEST SWAP3 SWAP2 POP POP JUMP JUMPDEST PUSH0 PUSH20 0xFFFFFFFFFFFFFFFFFFFFFFFFFFFFFFFFFFFFFFFF DUP3 AND SWAP1 POP SWAP2 SWAP1 POP JUMP JUMPDEST PUSH0 PUSH2 0x17A2 DUP3 PUSH2 0x1779 JUMP JUMPDEST SWAP1 POP SWAP2 SWAP1 POP JUMP JUMPDEST PUSH2 0x17B2 DUP2 PUSH2 0x1798 JUMP JUMPDEST DUP2 EQ PUSH2 0x17BC JUMPI PUSH0 PUSH0 REVERT JUMPDEST POP JUMP JUMPDEST PUSH0 DUP2 CALLDATALOAD SWAP1 POP PUSH2 0x17CD DUP2 PUSH2 0x17A9 JUMP JUMPDEST SWAP3 SWAP2 POP POP JUMP JUMPDEST PUSH0 PUSH0 PUSH1 0x40 DUP4 DUP6 SUB SLT ISZERO PUSH2 0x17E9 JUMPI PUSH2 0x17E8 PUSH2 0x163C JUMP JUMPDEST JUMPDEST PUSH0 PUSH2 0x17F6 DUP6 DUP3 DUP7 ADD PUSH2 0x1712 JUMP JUMPDEST SWAP3 POP POP PUSH1 0x20 PUSH2 0x1807 DUP6 DUP3 DUP7 ADD PUSH2 0x17BF JUMP JUMPDEST SWAP2 POP POP SWAP3 POP SWAP3 SWAP1 POP JUMP JUMPDEST PUSH0 DUP2 SWAP1 POP SWAP2 SWAP1 POP JUMP JUMPDEST PUSH0 PUSH2 0x1834 PUSH2 0x182F PUSH2 0x182A DUP5 PUSH2 0x1779 JUMP JUMPDEST PUSH2 0x1811 JUMP JUMPDEST PUSH2 0x1779 JUMP JUMPDEST SWAP1 POP SWAP2 SWAP1 POP JUMP JUMPDEST PUSH0 PUSH2 0x1845 DUP3 PUSH2 0x181A JUMP JUMPDEST SWAP1 POP SWAP2 SWAP1 POP JUMP JUMPDEST PUSH0 PUSH2 0x1856 DUP3 PUSH2 0x183B JUMP JUMPDEST SWAP1 POP SWAP2 SWAP1 POP JUMP JUMPDEST PUSH2 0x1866 DUP2 PUSH2 0x184C JUMP JUMPDEST DUP3 MSTORE POP POP JUMP JUMPDEST PUSH0 PUSH1 0x20 DUP3 ADD SWAP1 POP PUSH2 0x187F PUSH0 DUP4 ADD DUP5 PUSH2 0x185D JUMP JUMPDEST SWAP3 SWAP2 POP POP JUMP JUMPDEST PUSH2 0x188E DUP2 PUSH2 0x1798 JUMP JUMPDEST DUP3 MSTORE POP POP JUMP JUMPDEST PUSH0 PUSH1 0x20 DUP3 ADD SWAP1 POP PUSH2 0x18A7 PUSH0 DUP4 ADD DUP5 PUSH2 0x1885 JUMP JUMPDEST SWAP3 SWAP2 POP POP JUMP JUMPDEST PUSH0 DUP2 SWAP1 POP SWAP2 SWAP1 POP JUMP JUMPDEST PUSH2 0x18BF DUP2 PUSH2 0x18AD JUMP JUMPDEST DUP2 EQ PUSH2 0x18C9 JUMPI PUSH0 PUSH0 REVERT JUMPDEST POP JUMP JUMPDEST PUSH0 DUP2 CALLDATALOAD SWAP1 POP PUSH2 0x18DA DUP2 PUSH2 0x18B6 JUMP JUMPDEST SWAP3 SWAP2 POP POP JUMP JUMPDEST PUSH0 PUSH0 PUSH0 PUSH1 0x60 DUP5 DUP7 SUB SLT ISZERO PUSH2 0x18F7 JUMPI PUSH2 0x18F6 PUSH2 0x163C JUMP JUMPDEST JUMPDEST PUSH0 PUSH2 0x1904 DUP7 DUP3 DUP8 ADD PUSH2 0x18CC JUMP JUMPDEST SWAP4 POP POP PUSH1 0x20 PUSH2 0x1915 DUP7 DUP3 DUP8 ADD PUSH2 0x18CC JUMP JUMPDEST SWAP3 POP POP PUSH1 0x40 PUSH2 0x1926 DUP7 DUP3 DUP8 ADD PUSH2 0x18CC JUMP JUMPDEST SWAP2 POP POP SWAP3 POP SWAP3 POP SWAP3 JUMP JUMPDEST PUSH0 PUSH2 0x193A DUP3 PUSH2 0x183B JUMP JUMPDEST SWAP1 POP SWAP2 SWAP1 POP JUMP JUMPDEST PUSH2 0x194A DUP2 PUSH2 0x1930 JUMP JUMPDEST DUP3 MSTORE POP POP JUMP JUMPDEST PUSH0 PUSH1 0x20 DUP3 ADD SWAP1 POP PUSH2 0x1963 PUSH0 DUP4 ADD DUP5 PUSH2 0x1941 JUMP JUMPDEST SWAP3 SWAP2 POP POP JUMP JUMPDEST PUSH0 PUSH0 PUSH1 0x40 DUP4 DUP6 SUB SLT ISZERO PUSH2 0x197F JUMPI PUSH2 0x197E PUSH2 0x163C JUMP JUMPDEST JUMPDEST PUSH0 PUSH2 0x198C DUP6 DUP3 DUP7 ADD PUSH2 0x18CC JUMP JUMPDEST SWAP3 POP POP PUSH1 0x20 PUSH2 0x199D DUP6 DUP3 DUP7 ADD PUSH2 0x17BF JUMP JUMPDEST SWAP2 POP POP SWAP3 POP SWAP3 SWAP1 POP JUMP JUMPDEST PUSH2 0x19B0 DUP2 PUSH2 0x18AD JUMP JUMPDEST DUP3 MSTORE POP POP JUMP JUMPDEST PUSH0 PUSH1 0x20 DUP3 ADD SWAP1 POP PUSH2 0x19C9 PUSH0 DUP4 ADD DUP5 PUSH2 0x19A7 JUMP JUMPDEST SWAP3 SWAP2 POP POP JUMP JUMPDEST PUSH0 PUSH1 0x20 DUP3 DUP5 SUB SLT ISZERO PUSH2 0x19E4 JUMPI PUSH2 0x19E3 PUSH2 0x163C JUMP JUMPDEST JUMPDEST PUSH0 PUSH2 0x19F1 DUP5 DUP3 DUP6 ADD PUSH2 0x18CC JUMP JUMPDEST SWAP2 POP POP SWAP3 SWAP2 POP POP JUMP JUMPDEST PUSH0 PUSH1 0x20 DUP3 DUP5 SUB SLT ISZERO PUSH2 0x1A0F JUMPI PUSH2 0x1A0E PUSH2 0x163C JUMP JUMPDEST JUMPDEST PUSH0 PUSH2 0x1A1C DUP5 DUP3 DUP6 ADD PUSH2 0x17BF JUMP JUMPDEST SWAP2 POP POP SWAP3 SWAP2 POP POP JUMP JUMPDEST PUSH0 PUSH1 0x60 DUP3 ADD SWAP1 POP PUSH2 0x1A38 PUSH0 DUP4 ADD DUP7 PUSH2 0x19A7 JUMP JUMPDEST PUSH2 0x1A45 PUSH1 0x20 DUP4 ADD DUP6 PUSH2 0x19A7 JUMP JUMPDEST PUSH2 0x1A52 PUSH1 0x40 DUP4 ADD DUP5 PUSH2 0x16CB JUMP JUMPDEST SWAP5 SWAP4 POP POP POP POP JUMP JUMPDEST PUSH0 DUP3 DUP3 MSTORE PUSH1 0x20 DUP3 ADD SWAP1 POP SWAP3 SWAP2 POP POP JUMP JUMPDEST PUSH32 0x506C61796572206E6F7420666F756E6400000000000000000000000000000000 PUSH0 DUP3 ADD MSTORE POP JUMP JUMPDEST PUSH0 PUSH2 0x1A9E PUSH1 0x10 DUP4 PUSH2 0x1A5A JUMP JUMPDEST SWAP2 POP PUSH2 0x1AA9 DUP3 PUSH2 0x1A6A JUMP JUMPDEST PUSH1 0x20 DUP3 ADD SWAP1 POP SWAP2 SWAP1 POP JUMP JUMPDEST PUSH0 PUSH1 0x20 DUP3 ADD SWAP1 POP DUP2 DUP2 SUB PUSH0 DUP4 ADD MSTORE PUSH2 0x1ACB DUP2 PUSH2 0x1A92 JUMP JUMPDEST SWAP1 POP SWAP2 SWAP1 POP JUMP JUMPDEST PUSH32 0x5A65726F2046544B000000000000000000000000000000000000000000000000 PUSH0 DUP3 ADD MSTORE POP JUMP JUMPDEST PUSH0 PUSH2 0x1B06 PUSH1 0x8 DUP4 PUSH2 0x1A5A JUMP JUMPDEST SWAP2 POP PUSH2 0x1B11 DUP3 PUSH2 0x1AD2 JUMP JUMPDEST PUSH1 0x20 DUP3 ADD SWAP1 POP SWAP2 SWAP1 POP JUMP JUMPDEST PUSH0 PUSH1 0x20 DUP3 ADD SWAP1 POP DUP2 DUP2 SUB PUSH0 DUP4 ADD MSTORE PUSH2 0x1B33 DUP2 PUSH2 0x1AFA JUMP JUMPDEST SWAP1 POP SWAP2 SWAP1 POP JUMP JUMPDEST PUSH0 PUSH1 0x60 DUP3 ADD SWAP1 POP PUSH2 0x1B4D PUSH0 DUP4 ADD DUP7 PUSH2 0x1885 JUMP JUMPDEST PUSH2 0x1B5A PUSH1 0x20 DUP4 ADD DUP6 PUSH2 0x1885 JUMP JUMPDEST PUSH2 0x1B67 PUSH1 0x40 DUP4 ADD DUP5 PUSH2 0x19A7 JUMP JUMPDEST SWAP5 SWAP4 POP POP POP POP JUMP JUMPDEST PUSH2 0x1B78 DUP2 PUSH2 0x16C0 JUMP JUMPDEST DUP2 EQ PUSH2 0x1B82 JUMPI PUSH0 PUSH0 REVERT JUMPDEST POP JUMP JUMPDEST PUSH0 DUP2 MLOAD SWAP1 POP PUSH2 0x1B93 DUP2 PUSH2 0x1B6F JUMP JUMPDEST SWAP3 SWAP2 POP POP JUMP JUMPDEST PUSH0 PUSH1 0x20 DUP3 DUP5 SUB SLT ISZERO PUSH2 0x1BAE JUMPI PUSH2 0x1BAD PUSH2 0x163C JUMP JUMPDEST JUMPDEST PUSH0 PUSH2 0x1BBB DUP5 DUP3 DUP6 ADD PUSH2 0x1B85 JUMP JUMPDEST SWAP2 POP POP SWAP3 SWAP2 POP POP JUMP JUMPDEST PUSH32 0x4E487B7100000000000000000000000000000000000000000000000000000000 PUSH0 MSTORE PUSH1 0x11 PUSH1 0x4 MSTORE PUSH1 0x24 PUSH0 REVERT JUMPDEST PUSH0 PUSH2 0x1BFB DUP3 PUSH2 0x18AD JUMP JUMPDEST SWAP2 POP PUSH2 0x1C06 DUP4 PUSH2 0x18AD JUMP JUMPDEST SWAP3 POP DUP3 DUP3 MUL PUSH2 0x1C14 DUP2 PUSH2 0x18AD JUMP JUMPDEST SWAP2 POP DUP3 DUP3 DIV DUP5 EQ DUP4 ISZERO OR PUSH2 0x1C2B JUMPI PUSH2 0x1C2A PUSH2 0x1BC4 JUMP JUMPDEST JUMPDEST POP SWAP3 SWAP2 POP POP JUMP JUMPDEST PUSH32 0x4E487B7100000000000000000000000000000000000000000000000000000000 PUSH0 MSTORE PUSH1 0x12 PUSH1 0x4 MSTORE PUSH1 0x24 PUSH0 REVERT JUMPDEST PUSH0 PUSH2 0x1C69 DUP3 PUSH2 0x18AD JUMP JUMPDEST SWAP2 POP PUSH2 0x1C74 DUP4 PUSH2 0x18AD JUMP JUMPDEST SWAP3 POP DUP3 PUSH2 0x1C84 JUMPI PUSH2 0x1C83 PUSH2 0x1C32 JUMP JUMPDEST JUMPDEST DUP3 DUP3 DIV SWAP1 POP SWAP3 SWAP2 POP POP JUMP JUMPDEST PUSH0 PUSH2 0x1C99 DUP3 PUSH2 0x18AD JUMP JUMPDEST SWAP2 POP PUSH2 0x1CA4 DUP4 PUSH2 0x18AD JUMP JUMPDEST SWAP3 POP DUP3 DUP3 SUB SWAP1 POP DUP2 DUP2 GT ISZERO PUSH2 0x1CBC JUMPI PUSH2 0x1CBB PUSH2 0x1BC4 JUMP JUMPDEST JUMPDEST SWAP3 SWAP2 POP POP JUMP JUMPDEST PUSH0 PUSH1 0x40 DUP3 ADD SWAP1 POP PUSH2 0x1CD5 PUSH0 DUP4 ADD DUP6 PUSH2 0x1885 JUMP JUMPDEST PUSH2 0x1CE2 PUSH1 0x20 DUP4 ADD DUP5 PUSH2 0x19A7 JUMP JUMPDEST SWAP4 SWAP3 POP POP POP JUMP JUMPDEST PUSH32 0x536C697070616765206578636565646564000000000000000000000000000000 PUSH0 DUP3 ADD MSTORE POP JUMP JUMPDEST PUSH0 PUSH2 0x1D1D PUSH1 0x11 DUP4 PUSH2 0x1A5A JUMP JUMPDEST SWAP2 POP PUSH2 0x1D28 DUP3 PUSH2 0x1CE9 JUMP JUMPDEST PUSH1 0x20 DUP3 ADD SWAP1 POP SWAP2 SWAP1 POP JUMP JUMPDEST PUSH0 PUSH1 0x20 DUP3 ADD SWAP1 POP DUP2 DUP2 SUB PUSH0 DUP4 ADD MSTORE PUSH2 0x1D4A DUP2 PUSH2 0x1D11 JUMP JUMPDEST SWAP1 POP SWAP2 SWAP1 POP JUMP JUMPDEST PUSH0 PUSH2 0x1D5B DUP3 PUSH2 0x18AD JUMP JUMPDEST SWAP2 POP PUSH2 0x1D66 DUP4 PUSH2 0x18AD JUMP JUMPDEST SWAP3 POP DUP3 DUP3 ADD SWAP1 POP DUP1 DUP3 GT ISZERO PUSH2 0x1D7E JUMPI PUSH2 0x1D7D PUSH2 0x1BC4 JUMP JUMPDEST JUMPDEST SWAP3 SWAP2 POP POP JUMP JUMPDEST PUSH0 PUSH1 0x60 DUP3 ADD SWAP1 POP PUSH2 0x1D97 PUSH0 DUP4 ADD DUP7 PUSH2 0x19A7 JUMP JUMPDEST PUSH2 0x1DA4 PUSH1 0x20 DUP4 ADD DUP6 PUSH2 0x1885 JUMP JUMPDEST PUSH2 0x1DB1 PUSH1 0x40 DUP4 ADD DUP5 PUSH2 0x19A7 JUMP JUMPDEST SWAP5 SWAP4 POP POP POP POP JUMP JUMPDEST PUSH0 PUSH1 0x80 DUP3 ADD SWAP1 POP PUSH2 0x1DCC PUSH0 DUP4 ADD DUP8 PUSH2 0x19A7 JUMP JUMPDEST PUSH2 0x1DD9 PUSH1 0x20 DUP4 ADD DUP7 PUSH2 0x19A7 JUMP JUMPDEST PUSH2 0x1DE6 PUSH1 0x40 DUP4 ADD DUP6 PUSH2 0x19A7 JUMP JUMPDEST PUSH2 0x1DF3 PUSH1 0x60 DUP4 ADD DUP5 PUSH2 0x19A7 JUMP JUMPDEST SWAP6 SWAP5 POP POP POP POP POP JUMP JUMPDEST PUSH32 0x46656520746F6F20686967680000000000000000000000000000000000000000 PUSH0 DUP3 ADD MSTORE POP JUMP JUMPDEST PUSH0 PUSH2 0x1E30 PUSH1 0xC DUP4 PUSH2 0x1A5A JUMP JUMPDEST SWAP2 POP PUSH2 0x1E3B DUP3 PUSH2 0x1DFC JUMP JUMPDEST PUSH1 0x20 DUP3 ADD SWAP1 POP SWAP2 SWAP1 POP JUMP JUMPDEST PUSH0 PUSH1 0x20 DUP3 ADD SWAP1 POP DUP2 DUP2 SUB PUSH0 DUP4 ADD MSTORE PUSH2 0x1E5D DUP2 PUSH2 0x1E24 JUMP JUMPDEST SWAP1 POP SWAP2 SWAP1 POP JUMP JUMPDEST PUSH32 0x496E73756666696369656E742073686172657300000000000000000000000000 PUSH0 DUP3 ADD MSTORE POP JUMP JUMPDEST PUSH0 PUSH2 0x1E98 PUSH1 0x13 DUP4 PUSH2 0x1A5A JUMP JUMPDEST SWAP2 POP PUSH2 0x1EA3 DUP3 PUSH2 0x1E64 JUMP JUMPDEST PUSH1 0x20 DUP3 ADD SWAP1 POP SWAP2 SWAP1 POP JUMP JUMPDEST PUSH0 PUSH1 0x20 DUP3 ADD SWAP1 POP DUP2 DUP2 SUB PUSH0 DUP4 ADD MSTORE PUSH2 0x1EC5 DUP2 PUSH2 0x1E8C JUMP JUMPDEST SWAP1 POP SWAP2 SWAP1 POP JUMP JUMPDEST PUSH32 0x506C617965722065786973747300000000000000000000000000000000000000 PUSH0 DUP3 ADD MSTORE POP JUMP JUMPDEST PUSH0 PUSH2 0x1F00 PUSH1 0xD DUP4 PUSH2 0x1A5A JUMP JUMPDEST SWAP2 POP PUSH2 0x1F0B DUP3 PUSH2 0x1ECC JUMP JUMPDEST PUSH1 0x20 DUP3 ADD SWAP1 POP SWAP2 SWAP1 POP JUMP JUMPDEST PUSH0 PUSH1 0x20 DUP3 ADD SWAP1 POP DUP2 DUP2 SUB PUSH0 DUP4 ADD MSTORE PUSH2 0x1F2D DUP2 PUSH2 0x1EF4 JUMP JUMPDEST SWAP1 POP SWAP2 SWAP1 POP JUMP JUMPDEST PUSH32 0x496E76616C696420747265617375727900000000000000000000000000000000 PUSH0 DUP3 ADD MSTORE POP JUMP JUMPDEST PUSH0 PUSH2 0x1F68 PUSH1 0x10 DUP4 PUSH2 0x1A5A JUMP JUMPDEST SWAP2 POP PUSH2 0x1F73 DUP3 PUSH2 0x1F34 JUMP JUMPDEST PUSH1 0x20 DUP3 ADD SWAP1 POP SWAP2 SWAP1 POP JUMP JUMPDEST PUSH0 PUSH1 0x20 DUP3 ADD SWAP1 POP DUP2 DUP2 SUB PUSH0 DUP4 ADD MSTORE PUSH2 0x1F95 DUP2 PUSH2 0x1F5C JUMP JUMPDEST SWAP1 POP SWAP2 SWAP1 POP JUMP JUMPDEST PUSH0 PUSH1 0x40 DUP3 ADD SWAP1 POP PUSH2 0x1FAF PUSH0 DUP4 ADD DUP6 PUSH2 0x1885 JUMP JUMPDEST PUSH2 0x1FBC PUSH1 0x20 DUP4 ADD DUP5 PUSH2 0x1751 JUMP JUMPDEST SWAP4 SWAP3 POP POP POP JUMP INVALID LOG2 PUSH5 0x6970667358 0x22 SLT KECCAK256 INVALID 0xE4 0xFC DUP3 0xB8 0xCB 0xA8 0x2F GAS SDIV 0xC1 0xE9 ADDMOD OR 0xD8 0xE1 TSTORE DUP9 SHL 0xD8 0x4D SLOAD ADDRESS BALANCE 0x2B CALLDATACOPY KECCAK256 PUSH32 0x6A46488A64736F6C634300081B00330000000000000000000000000000000000 "
				},
				"gasEstimates": {
					"creation": {
						"codeDepositCost": "1637000",
						"executionCost": "infinite",
						"totalCost": "infinite"
					},
					"external": {
						"ADMIN_ROLE()": "370",
						"BPS_DENOMINATOR()": "391",
						"DEFAULT_ADMIN_ROLE()": "374",
						"addPlayer(uint256)": "infinite",
						"buyShares(uint256,uint256,uint256)": "infinite",
						"ftk()": "infinite",
						"getRoleAdmin(bytes32)": "infinite",
						"getSharePrice(uint256)": "infinite",
						"grantRole(bytes32,address)": "infinite",
						"hasRole(bytes32,address)": "3254",
						"players(uint256)": "infinite",
						"renounceRole(bytes32,address)": "infinite",
						"revokeRole(bytes32,address)": "infinite",
						"sellShares(uint256,uint256,uint256)": "infinite",
						"setTradingFee(uint256)": "infinite",
						"setTreasury(address)": "infinite",
						"shareManager()": "infinite",
						"supportsInterface(bytes4)": "741",
						"tradingFeeBps()": "2448",
						"treasury()": "2531",
						"userBalance(uint256,address)": "infinite",
						"userShares(uint256,address)": "infinite"
					}
				},
				"methodIdentifiers": {
					"ADMIN_ROLE()": "75b238fc",
					"BPS_DENOMINATOR()": "e1a45218",
					"DEFAULT_ADMIN_ROLE()": "a217fddf",
					"addPlayer(uint256)": "ec4a8b17",
					"buyShares(uint256,uint256,uint256)": "7aabf58a",
					"ftk()": "8301b93d",
					"getRoleAdmin(bytes32)": "248a9ca3",
					"getSharePrice(uint256)": "bca7d4e1",
					"grantRole(bytes32,address)": "2f2ff15d",
					"hasRole(bytes32,address)": "91d14854",
					"players(uint256)": "f71d96cb",
					"renounceRole(bytes32,address)": "36568abe",
					"revokeRole(bytes32,address)": "d547741f",
					"sellShares(uint256,uint256,uint256)": "d67c6872",
					"setTradingFee(uint256)": "b0d54bcf",
					"setTreasury(address)": "f0f44260",
					"shareManager()": "5c60173d",
					"supportsInterface(bytes4)": "01ffc9a7",
					"tradingFeeBps()": "924cca9a",
					"treasury()": "61d027b3",
					"userBalance(uint256,address)": "85198705",
					"userShares(uint256,address)": "ad954878"
				}
			},
			"storageLayout": {
				"storage": [
					{
						"astId": 498,
						"contract": "contracts/PlayerMarket.sol:PlayerMarket",
						"label": "_status",
						"offset": 0,
						"slot": "0",
						"type": "t_uint256"
					},
					{
						"astId": 27,
						"contract": "contracts/PlayerMarket.sol:PlayerMarket",
						"label": "_roles",
						"offset": 0,
						"slot": "1",
						"type": "t_mapping(t_bytes32,t_struct(RoleData)22_storage)"
					},
					{
						"astId": 651,
						"contract": "contracts/PlayerMarket.sol:PlayerMarket",
						"label": "shareManager",
						"offset": 0,
						"slot": "2",
						"type": "t_contract(IPlayerShareManager)636"
					},
					{
						"astId": 653,
						"contract": "contracts/PlayerMarket.sol:PlayerMarket",
						"label": "treasury",
						"offset": 0,
						"slot": "3",
						"type": "t_address"
					},
					{
						"astId": 656,
						"contract": "contracts/PlayerMarket.sol:PlayerMarket",
						"label": "tradingFeeBps",
						"offset": 0,
						"slot": "4",
						"type": "t_uint256"
					},
					{
						"astId": 671,
						"contract": "contracts/PlayerMarket.sol:PlayerMarket",
						"label": "players",
						"offset": 0,
						"slot": "5",
						"type": "t_mapping(t_uint256,t_struct(PlayerPool)666_storage)"
					},
					{
						"astId": 677,
						"contract": "contracts/PlayerMarket.sol:PlayerMarket",
						"label": "userShares",
						"offset": 0,
						"slot": "6",
						"type": "t_mapping(t_uint256,t_mapping(t_address,t_uint256))"
					}
				],
				"types": {
					"t_address": {
						"encoding": "inplace",
						"label": "address",
						"numberOfBytes": "20"
					},
					"t_bool": {
						"encoding": "inplace",
						"label": "bool",
						"numberOfBytes": "1"
					},
					"t_bytes32": {
						"encoding": "inplace",
						"label": "bytes32",
						"numberOfBytes": "32"
					},
					"t_contract(IPlayerShareManager)636": {
						"encoding": "inplace",
						"label": "contract IPlayerShareManager",
						"numberOfBytes": "20"
					},
					"t_mapping(t_address,t_bool)": {
						"encoding": "mapping",
						"key": "t_address",
						"label": "mapping(address => bool)",
						"numberOfBytes": "32",
						"value": "t_bool"
					},
					"t_mapping(t_address,t_uint256)": {
						"encoding": "mapping",
						"key": "t_address",
						"label": "mapping(address => uint256)",
						"numberOfBytes": "32",
						"value": "t_uint256"
					},
					"t_mapping(t_bytes32,t_struct(RoleData)22_storage)": {
						"encoding": "mapping",
						"key": "t_bytes32",
						"label": "mapping(bytes32 => struct AccessControl.RoleData)",
						"numberOfBytes": "32",
						"value": "t_struct(RoleData)22_storage"
					},
					"t_mapping(t_uint256,t_mapping(t_address,t_uint256))": {
						"encoding": "mapping",
						"key": "t_uint256",
						"label": "mapping(uint256 => mapping(address => uint256))",
						"numberOfBytes": "32",
						"value": "t_mapping(t_address,t_uint256)"
					},
					"t_mapping(t_uint256,t_struct(PlayerPool)666_storage)": {
						"encoding": "mapping",
						"key": "t_uint256",
						"label": "mapping(uint256 => struct PlayerMarket.PlayerPool)",
						"numberOfBytes": "32",
						"value": "t_struct(PlayerPool)666_storage"
					},
					"t_struct(PlayerPool)666_storage": {
						"encoding": "inplace",
						"label": "struct PlayerMarket.PlayerPool",
						"members": [
							{
								"astId": 661,
								"contract": "contracts/PlayerMarket.sol:PlayerMarket",
								"label": "totalShares",
								"offset": 0,
								"slot": "0",
								"type": "t_uint256"
							},
							{
								"astId": 663,
								"contract": "contracts/PlayerMarket.sol:PlayerMarket",
								"label": "ftkLiquidity",
								"offset": 0,
								"slot": "1",
								"type": "t_uint256"
							},
							{
								"astId": 665,
								"contract": "contracts/PlayerMarket.sol:PlayerMarket",
								"label": "exists",
								"offset": 0,
								"slot": "2",
								"type": "t_bool"
							}
						],
						"numberOfBytes": "96"
					},
					"t_struct(RoleData)22_storage": {
						"encoding": "inplace",
						"label": "struct AccessControl.RoleData",
						"members": [
							{
								"astId": 19,
								"contract": "contracts/PlayerMarket.sol:PlayerMarket",
								"label": "hasRole",
								"offset": 0,
								"slot": "0",
								"type": "t_mapping(t_address,t_bool)"
							},
							{
								"astId": 21,
								"contract": "contracts/PlayerMarket.sol:PlayerMarket",
								"label": "adminRole",
								"offset": 0,
								"slot": "1",
								"type": "t_bytes32"
							}
						],
						"numberOfBytes": "64"
					},
					"t_uint256": {
						"encoding": "inplace",
						"label": "uint256",
						"numberOfBytes": "32"
					}
				}
			},
			"userdoc": {
				"kind": "user",
				"methods": {},
				"version": 1
			}
		}
	}
}