{
	"contracts/PlayerShare.sol": {
		"PlayerShareManager": {
			"abi": [
				{
					"inputs": [],
					"stateMutability": "nonpayable",
					"type": "constructor"
				},
				{
					"inputs": [],
					"name": "FailedDeployment",
					"type": "error"
				},
				{
					"inputs": [
						{
							"internalType": "uint256",
							"name": "balance",
							"type": "uint256"
						},
						{
							"internalType": "uint256",
							"name": "needed",
							"type": "uint256"
						}
					],
					"name": "InsufficientBalance",
					"type": "error"
				},
				{
					"anonymous": false,
					"inputs": [
						{
							"indexed": false,
							"internalType": "address",
							"name": "market",
							"type": "address"
						}
					],
					"name": "MarketSet",
					"type": "event"
				},
				{
					"anonymous": false,
					"inputs": [
						{
							"indexed": true,
							"internalType": "uint256",
							"name": "playerId",
							"type": "uint256"
						},
						{
							"indexed": false,
							"internalType": "address",
							"name": "token",
							"type": "address"
						}
					],
					"name": "PlayerTokenCreated",
					"type": "event"
				},
				{
					"inputs": [
						{
							"internalType": "uint256",
							"name": "playerId",
							"type": "uint256"
						},
						{
							"internalType": "address",
							"name": "from",
							"type": "address"
						},
						{
							"internalType": "uint256",
							"name": "amount",
							"type": "uint256"
						}
					],
					"name": "burnShares",
					"outputs": [],
					"stateMutability": "nonpayable",
					"type": "function"
				},
				{
					"inputs": [
						{
							"internalType": "uint256",
							"name": "playerId",
							"type": "uint256"
						},
						{
							"internalType": "string",
							"name": "name",
							"type": "string"
						},
						{
							"internalType": "string",
							"name": "symbol",
							"type": "string"
						}
					],
					"name": "createPlayerToken",
					"outputs": [
						{
							"internalType": "address",
							"name": "token",
							"type": "address"
						}
					],
					"stateMutability": "nonpayable",
					"type": "function"
				},
				{
					"inputs": [],
					"name": "implementation",
					"outputs": [
						{
							"internalType": "address",
							"name": "",
							"type": "address"
						}
					],
					"stateMutability": "view",
					"type": "function"
				},
				{
					"inputs": [],
					"name": "market",
					"outputs": [
						{
							"internalType": "address",
							"name": "",
							"type": "address"
						}
					],
					"stateMutability": "view",
					"type": "function"
				},
				{
					"inputs": [
						{
							"internalType": "uint256",
							"name": "playerId",
							"type": "uint256"
						},
						{
							"internalType": "address",
							"name": "to",
							"type": "address"
						},
						{
							"internalType": "uint256",
							"name": "amount",
							"type": "uint256"
						}
					],
					"name": "mintShares",
					"outputs": [],
					"stateMutability": "nonpayable",
					"type": "function"
				},
				{
					"inputs": [],
					"name": "owner",
					"outputs": [
						{
							"internalType": "address",
							"name": "",
							"type": "address"
						}
					],
					"stateMutability": "view",
					"type": "function"
				},
				{
					"inputs": [
						{
							"internalType": "uint256",
							"name": "",
							"type": "uint256"
						}
					],
					"name": "playerToken",
					"outputs": [
						{
							"internalType": "address",
							"name": "",
							"type": "address"
						}
					],
					"stateMutability": "view",
					"type": "function"
				},
				{
					"inputs": [
						{
							"internalType": "address",
							"name": "_market",
							"type": "address"
						}
					],
					"name": "setMarket",
					"outputs": [],
					"stateMutability": "nonpayable",
					"type": "function"
				},
				{
					"inputs": [
						{
							"internalType": "address",
							"name": "newOwner",
							"type": "address"
						}
					],
					"name": "transferOwnership",
					"outputs": [],
					"stateMutability": "nonpayable",
					"type": "function"
				}
			],
			"devdoc": {
				"errors": {
					"FailedDeployment()": [
						{
							"details": "The deployment failed."
						}
					],
					"InsufficientBalance(uint256,uint256)": [
						{
							"details": "The ETH balance of the account is not enough to perform the operation."
						}
					]
				},
				"kind": "dev",
				"methods": {},
				"version": 1
			},
			"evm": {
				"assembly": "    /* \"contracts/PlayerShare.sol\":1038:2953  contract PlayerShareManager {... */\n  mstore(0x40, 0xa0)\n    /* \"contracts/PlayerShare.sol\":1584:1685  constructor() {... */\n  callvalue\n  dup1\n  iszero\n  tag_1\n  jumpi\n  revert(0x00, 0x00)\ntag_1:\n  pop\n    /* \"contracts/PlayerShare.sol\":1616:1626  msg.sender */\n  caller\n    /* \"contracts/PlayerShare.sol\":1608:1613  owner */\n  0x00\n  0x00\n    /* \"contracts/PlayerShare.sol\":1608:1626  owner = msg.sender */\n  0x0100\n  exp\n  dup2\n  sload\n  dup2\n  0xffffffffffffffffffffffffffffffffffffffff\n  mul\n  not\n  and\n  swap1\n  dup4\n  0xffffffffffffffffffffffffffffffffffffffff\n  and\n  mul\n  or\n  swap1\n  sstore\n  pop\n    /* \"contracts/PlayerShare.sol\":1661:1677  new ShareToken() */\n  mload(0x40)\n  tag_4\n  swap1\n  tag_5\n  jump\t// in\ntag_4:\n  mload(0x40)\n  dup1\n  swap2\n  sub\n  swap1\n  0x00\n  create\n  dup1\n  iszero\n  dup1\n  iszero\n  tag_6\n  jumpi\n  returndatacopy(0x00, 0x00, returndatasize)\n  revert(0x00, returndatasize)\ntag_6:\n  pop\n    /* \"contracts/PlayerShare.sol\":1636:1678  implementation = address(new ShareToken()) */\n  0xffffffffffffffffffffffffffffffffffffffff\n  and\n  0x80\n  dup2\n  0xffffffffffffffffffffffffffffffffffffffff\n  and\n  dup2\n  mstore\n  pop\n  pop\n    /* \"contracts/PlayerShare.sol\":1038:2953  contract PlayerShareManager {... */\n  jump(tag_7)\ntag_5:\n  dataSize(sub_1)\n  dup1\n  dataOffset(sub_1)\n  dup4\n  codecopy\n  add\n  swap1\n  jump\t// out\ntag_7:\n  mload(0x80)\n  codecopy(0x00, dataOffset(sub_0), dataSize(sub_0))\n  0x00\n  assignImmutable(\"0xcd3b8a75131b09c18fac61f93bac9440f7b768b1c243a93eca5a67eb03b07828\")\n  return(0x00, dataSize(sub_0))\nstop\n\nsub_0: assembly {\n        /* \"contracts/PlayerShare.sol\":1038:2953  contract PlayerShareManager {... */\n      mstore(0x40, 0x80)\n      callvalue\n      dup1\n      iszero\n      tag_1\n      jumpi\n      revert(0x00, 0x00)\n    tag_1:\n      pop\n      jumpi(tag_2, lt(calldatasize, 0x04))\n      shr(0xe0, calldataload(0x00))\n      dup1\n      0x8da5cb5b\n      gt\n      tag_12\n      jumpi\n      dup1\n      0x8da5cb5b\n      eq\n      tag_7\n      jumpi\n      dup1\n      0xca4b4fd3\n      eq\n      tag_8\n      jumpi\n      dup1\n      0xd9881acc\n      eq\n      tag_9\n      jumpi\n      dup1\n      0xf2fde38b\n      eq\n      tag_10\n      jumpi\n      dup1\n      0xf576c938\n      eq\n      tag_11\n      jumpi\n      jump(tag_2)\n    tag_12:\n      dup1\n      0x5c60da1b\n      eq\n      tag_3\n      jumpi\n      dup1\n      0x6dcea85f\n      eq\n      tag_4\n      jumpi\n      dup1\n      0x7119f4fb\n      eq\n      tag_5\n      jumpi\n      dup1\n      0x80f55605\n      eq\n      tag_6\n      jumpi\n    tag_2:\n      revert(0x00, 0x00)\n        /* \"contracts/PlayerShare.sol\":1103:1142  address public immutable implementation */\n    tag_3:\n      tag_13\n      tag_14\n      jump\t// in\n    tag_13:\n      mload(0x40)\n      tag_15\n      swap2\n      swap1\n      tag_16\n      jump\t// in\n    tag_15:\n      mload(0x40)\n      dup1\n      swap2\n      sub\n      swap1\n      return\n        /* \"contracts/PlayerShare.sol\":1691:1865  function setMarket(address _market) external onlyOwner {... */\n    tag_4:\n      tag_17\n      0x04\n      dup1\n      calldatasize\n      sub\n      dup2\n      add\n      swap1\n      tag_18\n      swap2\n      swap1\n      tag_19\n      jump\t// in\n    tag_18:\n      tag_20\n      jump\t// in\n    tag_17:\n      stop\n        /* \"contracts/PlayerShare.sol\":1227:1273  mapping(uint256 => address) public playerToken */\n    tag_5:\n      tag_21\n      0x04\n      dup1\n      calldatasize\n      sub\n      dup2\n      add\n      swap1\n      tag_22\n      swap2\n      swap1\n      tag_23\n      jump\t// in\n    tag_22:\n      tag_24\n      jump\t// in\n    tag_21:\n      mload(0x40)\n      tag_25\n      swap2\n      swap1\n      tag_16\n      jump\t// in\n    tag_25:\n      mload(0x40)\n      dup1\n      swap2\n      sub\n      swap1\n      return\n        /* \"contracts/PlayerShare.sol\":1174:1195  address public market */\n    tag_6:\n      tag_26\n      tag_27\n      jump\t// in\n    tag_26:\n      mload(0x40)\n      tag_28\n      swap2\n      swap1\n      tag_16\n      jump\t// in\n    tag_28:\n      mload(0x40)\n      dup1\n      swap2\n      sub\n      swap1\n      return\n        /* \"contracts/PlayerShare.sol\":1148:1168  address public owner */\n    tag_7:\n      tag_29\n      tag_30\n      jump\t// in\n    tag_29:\n      mload(0x40)\n      tag_31\n      swap2\n      swap1\n      tag_16\n      jump\t// in\n    tag_31:\n      mload(0x40)\n      dup1\n      swap2\n      sub\n      swap1\n      return\n        /* \"contracts/PlayerShare.sol\":1974:2405  function createPlayerToken(... */\n    tag_8:\n      tag_32\n      0x04\n      dup1\n      calldatasize\n      sub\n      dup2\n      add\n      swap1\n      tag_33\n      swap2\n      swap1\n      tag_34\n      jump\t// in\n    tag_33:\n      tag_35\n      jump\t// in\n    tag_32:\n      mload(0x40)\n      tag_36\n      swap2\n      swap1\n      tag_16\n      jump\t// in\n    tag_36:\n      mload(0x40)\n      dup1\n      swap2\n      sub\n      swap1\n      return\n        /* \"contracts/PlayerShare.sol\":2682:2951  function burnShares(... */\n    tag_9:\n      tag_37\n      0x04\n      dup1\n      calldatasize\n      sub\n      dup2\n      add\n      swap1\n      tag_38\n      swap2\n      swap1\n      tag_39\n      jump\t// in\n    tag_38:\n      tag_40\n      jump\t// in\n    tag_37:\n      stop\n        /* \"contracts/PlayerShare.sol\":1871:1968  function transferOwnership(address newOwner) external onlyOwner {... */\n    tag_10:\n      tag_41\n      0x04\n      dup1\n      calldatasize\n      sub\n      dup2\n      add\n      swap1\n      tag_42\n      swap2\n      swap1\n      tag_19\n      jump\t// in\n    tag_42:\n      tag_43\n      jump\t// in\n    tag_41:\n      stop\n        /* \"contracts/PlayerShare.sol\":2411:2676  function mintShares(... */\n    tag_11:\n      tag_44\n      0x04\n      dup1\n      calldatasize\n      sub\n      dup2\n      add\n      swap1\n      tag_45\n      swap2\n      swap1\n      tag_39\n      jump\t// in\n    tag_45:\n      tag_46\n      jump\t// in\n    tag_44:\n      stop\n        /* \"contracts/PlayerShare.sol\":1103:1142  address public immutable implementation */\n    tag_14:\n      immutable(\"0xcd3b8a75131b09c18fac61f93bac9440f7b768b1c243a93eca5a67eb03b07828\")\n      dup2\n      jump\t// out\n        /* \"contracts/PlayerShare.sol\":1691:1865  function setMarket(address _market) external onlyOwner {... */\n    tag_20:\n        /* \"contracts/PlayerShare.sol\":1442:1447  owner */\n      0x00\n      0x00\n      swap1\n      sload\n      swap1\n      0x0100\n      exp\n      swap1\n      div\n      0xffffffffffffffffffffffffffffffffffffffff\n      and\n        /* \"contracts/PlayerShare.sol\":1428:1447  msg.sender == owner */\n      0xffffffffffffffffffffffffffffffffffffffff\n      and\n        /* \"contracts/PlayerShare.sol\":1428:1438  msg.sender */\n      caller\n        /* \"contracts/PlayerShare.sol\":1428:1447  msg.sender == owner */\n      0xffffffffffffffffffffffffffffffffffffffff\n      and\n      eq\n        /* \"contracts/PlayerShare.sol\":1420:1461  require(msg.sender == owner, \"NOT_OWNER\") */\n      tag_48\n      jumpi\n      mload(0x40)\n      0x08c379a000000000000000000000000000000000000000000000000000000000\n      dup2\n      mstore\n      0x04\n      add\n      tag_49\n      swap1\n      tag_50\n      jump\t// in\n    tag_49:\n      mload(0x40)\n      dup1\n      swap2\n      sub\n      swap1\n      revert\n    tag_48:\n        /* \"contracts/PlayerShare.sol\":1783:1784  0 */\n      0x00\n        /* \"contracts/PlayerShare.sol\":1764:1785  _market != address(0) */\n      0xffffffffffffffffffffffffffffffffffffffff\n      and\n        /* \"contracts/PlayerShare.sol\":1764:1771  _market */\n      dup2\n        /* \"contracts/PlayerShare.sol\":1764:1785  _market != address(0) */\n      0xffffffffffffffffffffffffffffffffffffffff\n      and\n      sub\n        /* \"contracts/PlayerShare.sol\":1756:1799  require(_market != address(0), \"ZERO_ADDR\") */\n      tag_52\n      jumpi\n      mload(0x40)\n      0x08c379a000000000000000000000000000000000000000000000000000000000\n      dup2\n      mstore\n      0x04\n      add\n      tag_53\n      swap1\n      tag_54\n      jump\t// in\n    tag_53:\n      mload(0x40)\n      dup1\n      swap2\n      sub\n      swap1\n      revert\n    tag_52:\n        /* \"contracts/PlayerShare.sol\":1818:1825  _market */\n      dup1\n        /* \"contracts/PlayerShare.sol\":1809:1815  market */\n      0x01\n      0x00\n        /* \"contracts/PlayerShare.sol\":1809:1825  market = _market */\n      0x0100\n      exp\n      dup2\n      sload\n      dup2\n      0xffffffffffffffffffffffffffffffffffffffff\n      mul\n      not\n      and\n      swap1\n      dup4\n      0xffffffffffffffffffffffffffffffffffffffff\n      and\n      mul\n      or\n      swap1\n      sstore\n      pop\n        /* \"contracts/PlayerShare.sol\":1840:1858  MarketSet(_market) */\n      0xe307206b150a74b2a5d43a35703be791342ca123c12a507c5f679cf1d011d1b9\n        /* \"contracts/PlayerShare.sol\":1850:1857  _market */\n      dup2\n        /* \"contracts/PlayerShare.sol\":1840:1858  MarketSet(_market) */\n      mload(0x40)\n      tag_55\n      swap2\n      swap1\n      tag_16\n      jump\t// in\n    tag_55:\n      mload(0x40)\n      dup1\n      swap2\n      sub\n      swap1\n      log1\n        /* \"contracts/PlayerShare.sol\":1691:1865  function setMarket(address _market) external onlyOwner {... */\n      pop\n      jump\t// out\n        /* \"contracts/PlayerShare.sol\":1227:1273  mapping(uint256 => address) public playerToken */\n    tag_24:\n      mstore(0x20, 0x02)\n      dup1\n      0x00\n      mstore\n      keccak256(0x00, 0x40)\n      0x00\n      swap2\n      pop\n      sload\n      swap1\n      0x0100\n      exp\n      swap1\n      div\n      0xffffffffffffffffffffffffffffffffffffffff\n      and\n      dup2\n      jump\t// out\n        /* \"contracts/PlayerShare.sol\":1174:1195  address public market */\n    tag_27:\n      0x01\n      0x00\n      swap1\n      sload\n      swap1\n      0x0100\n      exp\n      swap1\n      div\n      0xffffffffffffffffffffffffffffffffffffffff\n      and\n      dup2\n      jump\t// out\n        /* \"contracts/PlayerShare.sol\":1148:1168  address public owner */\n    tag_30:\n      0x00\n      0x00\n      swap1\n      sload\n      swap1\n      0x0100\n      exp\n      swap1\n      div\n      0xffffffffffffffffffffffffffffffffffffffff\n      and\n      dup2\n      jump\t// out\n        /* \"contracts/PlayerShare.sol\":1974:2405  function createPlayerToken(... */\n    tag_35:\n        /* \"contracts/PlayerShare.sol\":2119:2132  address token */\n      0x00\n        /* \"contracts/PlayerShare.sol\":1442:1447  owner */\n      0x00\n      0x00\n      swap1\n      sload\n      swap1\n      0x0100\n      exp\n      swap1\n      div\n      0xffffffffffffffffffffffffffffffffffffffff\n      and\n        /* \"contracts/PlayerShare.sol\":1428:1447  msg.sender == owner */\n      0xffffffffffffffffffffffffffffffffffffffff\n      and\n        /* \"contracts/PlayerShare.sol\":1428:1438  msg.sender */\n      caller\n        /* \"contracts/PlayerShare.sol\":1428:1447  msg.sender == owner */\n      0xffffffffffffffffffffffffffffffffffffffff\n      and\n      eq\n        /* \"contracts/PlayerShare.sol\":1420:1461  require(msg.sender == owner, \"NOT_OWNER\") */\n      tag_57\n      jumpi\n      mload(0x40)\n      0x08c379a000000000000000000000000000000000000000000000000000000000\n      dup2\n      mstore\n      0x04\n      add\n      tag_58\n      swap1\n      tag_50\n      jump\t// in\n    tag_58:\n      mload(0x40)\n      dup1\n      swap2\n      sub\n      swap1\n      revert\n    tag_57:\n        /* \"contracts/PlayerShare.sol\":2185:2186  0 */\n      0x00\n        /* \"contracts/PlayerShare.sol\":2152:2187  playerToken[playerId] == address(0) */\n      0xffffffffffffffffffffffffffffffffffffffff\n      and\n        /* \"contracts/PlayerShare.sol\":2152:2163  playerToken */\n      0x02\n        /* \"contracts/PlayerShare.sol\":2152:2173  playerToken[playerId] */\n      0x00\n        /* \"contracts/PlayerShare.sol\":2164:2172  playerId */\n      dup7\n        /* \"contracts/PlayerShare.sol\":2152:2173  playerToken[playerId] */\n      dup2\n      mstore\n      0x20\n      add\n      swap1\n      dup2\n      mstore\n      0x20\n      add\n      0x00\n      keccak256\n      0x00\n      swap1\n      sload\n      swap1\n      0x0100\n      exp\n      swap1\n      div\n      0xffffffffffffffffffffffffffffffffffffffff\n      and\n        /* \"contracts/PlayerShare.sol\":2152:2187  playerToken[playerId] == address(0) */\n      0xffffffffffffffffffffffffffffffffffffffff\n      and\n      eq\n        /* \"contracts/PlayerShare.sol\":2144:2198  require(playerToken[playerId] == address(0), \"EXISTS\") */\n      tag_60\n      jumpi\n      mload(0x40)\n      0x08c379a000000000000000000000000000000000000000000000000000000000\n      dup2\n      mstore\n      0x04\n      add\n      tag_61\n      swap1\n      tag_62\n      jump\t// in\n    tag_61:\n      mload(0x40)\n      dup1\n      swap2\n      sub\n      swap1\n      revert\n    tag_60:\n        /* \"contracts/PlayerShare.sol\":2217:2239  implementation.clone() */\n      tag_63\n        /* \"contracts/PlayerShare.sol\":2217:2231  implementation */\n      immutable(\"0xcd3b8a75131b09c18fac61f93bac9440f7b768b1c243a93eca5a67eb03b07828\")\n        /* \"contracts/PlayerShare.sol\":2217:2237  implementation.clone */\n      0xffffffffffffffffffffffffffffffffffffffff\n      and\n      tag_64\n        /* \"contracts/PlayerShare.sol\":2217:2239  implementation.clone() */\n      jump\t// in\n    tag_63:\n        /* \"contracts/PlayerShare.sol\":2209:2239  token = implementation.clone() */\n      swap1\n      pop\n        /* \"contracts/PlayerShare.sol\":2261:2266  token */\n      dup1\n        /* \"contracts/PlayerShare.sol\":2250:2278  ShareToken(token).initialize */\n      0xffffffffffffffffffffffffffffffffffffffff\n      and\n      0x077f224a\n        /* \"contracts/PlayerShare.sol\":2279:2283  name */\n      dup5\n        /* \"contracts/PlayerShare.sol\":2285:2291  symbol */\n      dup5\n        /* \"contracts/PlayerShare.sol\":2301:2305  this */\n      address\n        /* \"contracts/PlayerShare.sol\":2250:2307  ShareToken(token).initialize(name, symbol, address(this)) */\n      mload(0x40)\n      dup5\n      0xffffffff\n      and\n      0xe0\n      shl\n      dup2\n      mstore\n      0x04\n      add\n      tag_65\n      swap4\n      swap3\n      swap2\n      swap1\n      tag_66\n      jump\t// in\n    tag_65:\n      0x00\n      mload(0x40)\n      dup1\n      dup4\n      sub\n      dup2\n      0x00\n      dup8\n      dup1\n      extcodesize\n      iszero\n      dup1\n      iszero\n      tag_67\n      jumpi\n      revert(0x00, 0x00)\n    tag_67:\n      pop\n      gas\n      call\n      iszero\n      dup1\n      iszero\n      tag_69\n      jumpi\n      returndatacopy(0x00, 0x00, returndatasize)\n      revert(0x00, returndatasize)\n    tag_69:\n      pop\n      pop\n      pop\n      pop\n        /* \"contracts/PlayerShare.sol\":2342:2347  token */\n      dup1\n        /* \"contracts/PlayerShare.sol\":2318:2329  playerToken */\n      0x02\n        /* \"contracts/PlayerShare.sol\":2318:2339  playerToken[playerId] */\n      0x00\n        /* \"contracts/PlayerShare.sol\":2330:2338  playerId */\n      dup7\n        /* \"contracts/PlayerShare.sol\":2318:2339  playerToken[playerId] */\n      dup2\n      mstore\n      0x20\n      add\n      swap1\n      dup2\n      mstore\n      0x20\n      add\n      0x00\n      keccak256\n      0x00\n        /* \"contracts/PlayerShare.sol\":2318:2347  playerToken[playerId] = token */\n      0x0100\n      exp\n      dup2\n      sload\n      dup2\n      0xffffffffffffffffffffffffffffffffffffffff\n      mul\n      not\n      and\n      swap1\n      dup4\n      0xffffffffffffffffffffffffffffffffffffffff\n      and\n      mul\n      or\n      swap1\n      sstore\n      pop\n        /* \"contracts/PlayerShare.sol\":2382:2390  playerId */\n      dup4\n        /* \"contracts/PlayerShare.sol\":2363:2398  PlayerTokenCreated(playerId, token) */\n      0xa7209921c1341663c77eaac675176ef6cc6b360934add66ede2a9e70cc0af2e5\n        /* \"contracts/PlayerShare.sol\":2392:2397  token */\n      dup3\n        /* \"contracts/PlayerShare.sol\":2363:2398  PlayerTokenCreated(playerId, token) */\n      mload(0x40)\n      tag_70\n      swap2\n      swap1\n      tag_16\n      jump\t// in\n    tag_70:\n      mload(0x40)\n      dup1\n      swap2\n      sub\n      swap1\n      log2\n        /* \"contracts/PlayerShare.sol\":1974:2405  function createPlayerToken(... */\n      swap4\n      swap3\n      pop\n      pop\n      pop\n      jump\t// out\n        /* \"contracts/PlayerShare.sol\":2682:2951  function burnShares(... */\n    tag_40:\n        /* \"contracts/PlayerShare.sol\":1539:1545  market */\n      0x01\n      0x00\n      swap1\n      sload\n      swap1\n      0x0100\n      exp\n      swap1\n      div\n      0xffffffffffffffffffffffffffffffffffffffff\n      and\n        /* \"contracts/PlayerShare.sol\":1525:1545  msg.sender == market */\n      0xffffffffffffffffffffffffffffffffffffffff\n      and\n        /* \"contracts/PlayerShare.sol\":1525:1535  msg.sender */\n      caller\n        /* \"contracts/PlayerShare.sol\":1525:1545  msg.sender == market */\n      0xffffffffffffffffffffffffffffffffffffffff\n      and\n      eq\n        /* \"contracts/PlayerShare.sol\":1517:1560  require(msg.sender == market, \"NOT_MARKET\") */\n      tag_72\n      jumpi\n      mload(0x40)\n      0x08c379a000000000000000000000000000000000000000000000000000000000\n      dup2\n      mstore\n      0x04\n      add\n      tag_73\n      swap1\n      tag_74\n      jump\t// in\n    tag_73:\n      mload(0x40)\n      dup1\n      swap2\n      sub\n      swap1\n      revert\n    tag_72:\n        /* \"contracts/PlayerShare.sol\":2810:2823  address token */\n      0x00\n        /* \"contracts/PlayerShare.sol\":2826:2837  playerToken */\n      0x02\n        /* \"contracts/PlayerShare.sol\":2826:2847  playerToken[playerId] */\n      0x00\n        /* \"contracts/PlayerShare.sol\":2838:2846  playerId */\n      dup6\n        /* \"contracts/PlayerShare.sol\":2826:2847  playerToken[playerId] */\n      dup2\n      mstore\n      0x20\n      add\n      swap1\n      dup2\n      mstore\n      0x20\n      add\n      0x00\n      keccak256\n      0x00\n      swap1\n      sload\n      swap1\n      0x0100\n      exp\n      swap1\n      div\n      0xffffffffffffffffffffffffffffffffffffffff\n      and\n        /* \"contracts/PlayerShare.sol\":2810:2847  address token = playerToken[playerId] */\n      swap1\n      pop\n        /* \"contracts/PlayerShare.sol\":2882:2883  0 */\n      0x00\n        /* \"contracts/PlayerShare.sol\":2865:2884  token != address(0) */\n      0xffffffffffffffffffffffffffffffffffffffff\n      and\n        /* \"contracts/PlayerShare.sol\":2865:2870  token */\n      dup2\n        /* \"contracts/PlayerShare.sol\":2865:2884  token != address(0) */\n      0xffffffffffffffffffffffffffffffffffffffff\n      and\n      sub\n        /* \"contracts/PlayerShare.sol\":2857:2897  require(token != address(0), \"NO_TOKEN\") */\n      tag_76\n      jumpi\n      mload(0x40)\n      0x08c379a000000000000000000000000000000000000000000000000000000000\n      dup2\n      mstore\n      0x04\n      add\n      tag_77\n      swap1\n      tag_78\n      jump\t// in\n    tag_77:\n      mload(0x40)\n      dup1\n      swap2\n      sub\n      swap1\n      revert\n    tag_76:\n        /* \"contracts/PlayerShare.sol\":2919:2924  token */\n      dup1\n        /* \"contracts/PlayerShare.sol\":2908:2930  ShareToken(token).burn */\n      0xffffffffffffffffffffffffffffffffffffffff\n      and\n      0x9dc29fac\n        /* \"contracts/PlayerShare.sol\":2931:2935  from */\n      dup5\n        /* \"contracts/PlayerShare.sol\":2937:2943  amount */\n      dup5\n        /* \"contracts/PlayerShare.sol\":2908:2944  ShareToken(token).burn(from, amount) */\n      mload(0x40)\n      dup4\n      0xffffffff\n      and\n      0xe0\n      shl\n      dup2\n      mstore\n      0x04\n      add\n      tag_79\n      swap3\n      swap2\n      swap1\n      tag_80\n      jump\t// in\n    tag_79:\n      0x00\n      mload(0x40)\n      dup1\n      dup4\n      sub\n      dup2\n      0x00\n      dup8\n      dup1\n      extcodesize\n      iszero\n      dup1\n      iszero\n      tag_81\n      jumpi\n      revert(0x00, 0x00)\n    tag_81:\n      pop\n      gas\n      call\n      iszero\n      dup1\n      iszero\n      tag_83\n      jumpi\n      returndatacopy(0x00, 0x00, returndatasize)\n      revert(0x00, returndatasize)\n    tag_83:\n      pop\n      pop\n      pop\n      pop\n        /* \"contracts/PlayerShare.sol\":2800:2951  {... */\n      pop\n        /* \"contracts/PlayerShare.sol\":2682:2951  function burnShares(... */\n      pop\n      pop\n      pop\n      jump\t// out\n        /* \"contracts/PlayerShare.sol\":1871:1968  function transferOwnership(address newOwner) external onlyOwner {... */\n    tag_43:\n        /* \"contracts/PlayerShare.sol\":1442:1447  owner */\n      0x00\n      0x00\n      swap1\n      sload\n      swap1\n      0x0100\n      exp\n      swap1\n      div\n      0xffffffffffffffffffffffffffffffffffffffff\n      and\n        /* \"contracts/PlayerShare.sol\":1428:1447  msg.sender == owner */\n      0xffffffffffffffffffffffffffffffffffffffff\n      and\n        /* \"contracts/PlayerShare.sol\":1428:1438  msg.sender */\n      caller\n        /* \"contracts/PlayerShare.sol\":1428:1447  msg.sender == owner */\n      0xffffffffffffffffffffffffffffffffffffffff\n      and\n      eq\n        /* \"contracts/PlayerShare.sol\":1420:1461  require(msg.sender == owner, \"NOT_OWNER\") */\n      tag_85\n      jumpi\n      mload(0x40)\n      0x08c379a000000000000000000000000000000000000000000000000000000000\n      dup2\n      mstore\n      0x04\n      add\n      tag_86\n      swap1\n      tag_50\n      jump\t// in\n    tag_86:\n      mload(0x40)\n      dup1\n      swap2\n      sub\n      swap1\n      revert\n    tag_85:\n        /* \"contracts/PlayerShare.sol\":1953:1961  newOwner */\n      dup1\n        /* \"contracts/PlayerShare.sol\":1945:1950  owner */\n      0x00\n      0x00\n        /* \"contracts/PlayerShare.sol\":1945:1961  owner = newOwner */\n      0x0100\n      exp\n      dup2\n      sload\n      dup2\n      0xffffffffffffffffffffffffffffffffffffffff\n      mul\n      not\n      and\n      swap1\n      dup4\n      0xffffffffffffffffffffffffffffffffffffffff\n      and\n      mul\n      or\n      swap1\n      sstore\n      pop\n        /* \"contracts/PlayerShare.sol\":1871:1968  function transferOwnership(address newOwner) external onlyOwner {... */\n      pop\n      jump\t// out\n        /* \"contracts/PlayerShare.sol\":2411:2676  function mintShares(... */\n    tag_46:\n        /* \"contracts/PlayerShare.sol\":1539:1545  market */\n      0x01\n      0x00\n      swap1\n      sload\n      swap1\n      0x0100\n      exp\n      swap1\n      div\n      0xffffffffffffffffffffffffffffffffffffffff\n      and\n        /* \"contracts/PlayerShare.sol\":1525:1545  msg.sender == market */\n      0xffffffffffffffffffffffffffffffffffffffff\n      and\n        /* \"contracts/PlayerShare.sol\":1525:1535  msg.sender */\n      caller\n        /* \"contracts/PlayerShare.sol\":1525:1545  msg.sender == market */\n      0xffffffffffffffffffffffffffffffffffffffff\n      and\n      eq\n        /* \"contracts/PlayerShare.sol\":1517:1560  require(msg.sender == market, \"NOT_MARKET\") */\n      tag_89\n      jumpi\n      mload(0x40)\n      0x08c379a000000000000000000000000000000000000000000000000000000000\n      dup2\n      mstore\n      0x04\n      add\n      tag_90\n      swap1\n      tag_74\n      jump\t// in\n    tag_90:\n      mload(0x40)\n      dup1\n      swap2\n      sub\n      swap1\n      revert\n    tag_89:\n        /* \"contracts/PlayerShare.sol\":2537:2550  address token */\n      0x00\n        /* \"contracts/PlayerShare.sol\":2553:2564  playerToken */\n      0x02\n        /* \"contracts/PlayerShare.sol\":2553:2574  playerToken[playerId] */\n      0x00\n        /* \"contracts/PlayerShare.sol\":2565:2573  playerId */\n      dup6\n        /* \"contracts/PlayerShare.sol\":2553:2574  playerToken[playerId] */\n      dup2\n      mstore\n      0x20\n      add\n      swap1\n      dup2\n      mstore\n      0x20\n      add\n      0x00\n      keccak256\n      0x00\n      swap1\n      sload\n      swap1\n      0x0100\n      exp\n      swap1\n      div\n      0xffffffffffffffffffffffffffffffffffffffff\n      and\n        /* \"contracts/PlayerShare.sol\":2537:2574  address token = playerToken[playerId] */\n      swap1\n      pop\n        /* \"contracts/PlayerShare.sol\":2609:2610  0 */\n      0x00\n        /* \"contracts/PlayerShare.sol\":2592:2611  token != address(0) */\n      0xffffffffffffffffffffffffffffffffffffffff\n      and\n        /* \"contracts/PlayerShare.sol\":2592:2597  token */\n      dup2\n        /* \"contracts/PlayerShare.sol\":2592:2611  token != address(0) */\n      0xffffffffffffffffffffffffffffffffffffffff\n      and\n      sub\n        /* \"contracts/PlayerShare.sol\":2584:2624  require(token != address(0), \"NO_TOKEN\") */\n      tag_92\n      jumpi\n      mload(0x40)\n      0x08c379a000000000000000000000000000000000000000000000000000000000\n      dup2\n      mstore\n      0x04\n      add\n      tag_93\n      swap1\n      tag_78\n      jump\t// in\n    tag_93:\n      mload(0x40)\n      dup1\n      swap2\n      sub\n      swap1\n      revert\n    tag_92:\n        /* \"contracts/PlayerShare.sol\":2646:2651  token */\n      dup1\n        /* \"contracts/PlayerShare.sol\":2635:2657  ShareToken(token).mint */\n      0xffffffffffffffffffffffffffffffffffffffff\n      and\n      0x40c10f19\n        /* \"contracts/PlayerShare.sol\":2658:2660  to */\n      dup5\n        /* \"contracts/PlayerShare.sol\":2662:2668  amount */\n      dup5\n        /* \"contracts/PlayerShare.sol\":2635:2669  ShareToken(token).mint(to, amount) */\n      mload(0x40)\n      dup4\n      0xffffffff\n      and\n      0xe0\n      shl\n      dup2\n      mstore\n      0x04\n      add\n      tag_94\n      swap3\n      swap2\n      swap1\n      tag_80\n      jump\t// in\n    tag_94:\n      0x00\n      mload(0x40)\n      dup1\n      dup4\n      sub\n      dup2\n      0x00\n      dup8\n      dup1\n      extcodesize\n      iszero\n      dup1\n      iszero\n      tag_95\n      jumpi\n      revert(0x00, 0x00)\n    tag_95:\n      pop\n      gas\n      call\n      iszero\n      dup1\n      iszero\n      tag_97\n      jumpi\n      returndatacopy(0x00, 0x00, returndatasize)\n      revert(0x00, returndatasize)\n    tag_97:\n      pop\n      pop\n      pop\n      pop\n        /* \"contracts/PlayerShare.sol\":2527:2676  {... */\n      pop\n        /* \"contracts/PlayerShare.sol\":2411:2676  function mintShares(... */\n      pop\n      pop\n      pop\n      jump\t// out\n        /* \"@openzeppelin/contracts/proxy/Clones.sol\":1405:1528  function clone(address implementation) internal returns (address instance) {... */\n    tag_64:\n        /* \"@openzeppelin/contracts/proxy/Clones.sol\":1462:1478  address instance */\n      0x00\n        /* \"@openzeppelin/contracts/proxy/Clones.sol\":1497:1521  clone(implementation, 0) */\n      tag_99\n        /* \"@openzeppelin/contracts/proxy/Clones.sol\":1503:1517  implementation */\n      dup3\n        /* \"@openzeppelin/contracts/proxy/Clones.sol\":1519:1520  0 */\n      0x00\n        /* \"@openzeppelin/contracts/proxy/Clones.sol\":1497:1502  clone */\n      tag_100\n        /* \"@openzeppelin/contracts/proxy/Clones.sol\":1497:1521  clone(implementation, 0) */\n      jump\t// in\n    tag_99:\n        /* \"@openzeppelin/contracts/proxy/Clones.sol\":1490:1521  return clone(implementation, 0) */\n      swap1\n      pop\n        /* \"@openzeppelin/contracts/proxy/Clones.sol\":1405:1528  function clone(address implementation) internal returns (address instance) {... */\n      swap2\n      swap1\n      pop\n      jump\t// out\n        /* \"@openzeppelin/contracts/proxy/Clones.sol\":2255:3165  function clone(address implementation, uint256 value) internal returns (address instance) {... */\n    tag_100:\n        /* \"@openzeppelin/contracts/proxy/Clones.sol\":2327:2343  address instance */\n      0x00\n        /* \"@openzeppelin/contracts/proxy/Clones.sol\":2383:2388  value */\n      dup2\n        /* \"@openzeppelin/contracts/proxy/Clones.sol\":2359:2380  address(this).balance */\n      selfbalance\n        /* \"@openzeppelin/contracts/proxy/Clones.sol\":2359:2388  address(this).balance < value */\n      lt\n        /* \"@openzeppelin/contracts/proxy/Clones.sol\":2355:2478  if (address(this).balance < value) {... */\n      iszero\n      tag_102\n      jumpi\n        /* \"@openzeppelin/contracts/proxy/Clones.sol\":2438:2459  address(this).balance */\n      selfbalance\n        /* \"@openzeppelin/contracts/proxy/Clones.sol\":2461:2466  value */\n      dup3\n        /* \"@openzeppelin/contracts/proxy/Clones.sol\":2411:2467  Errors.InsufficientBalance(address(this).balance, value) */\n      mload(0x40)\n      0xcf47918100000000000000000000000000000000000000000000000000000000\n      dup2\n      mstore\n      0x04\n      add\n      tag_103\n      swap3\n      swap2\n      swap1\n      tag_104\n      jump\t// in\n    tag_103:\n      mload(0x40)\n      dup1\n      swap2\n      sub\n      swap1\n      revert\n        /* \"@openzeppelin/contracts/proxy/Clones.sol\":2355:2478  if (address(this).balance < value) {... */\n    tag_102:\n        /* \"@openzeppelin/contracts/proxy/Clones.sol\":2764:2812  0x3d602d80600a3d3981f3363d3d373d3d3d363d73000000 */\n      0x3d602d80600a3d3981f3363d3d373d3d3d363d73000000\n        /* \"@openzeppelin/contracts/proxy/Clones.sol\":2746:2760  implementation */\n      dup4\n        /* \"@openzeppelin/contracts/proxy/Clones.sol\":2740:2744  0x60 */\n      0x60\n        /* \"@openzeppelin/contracts/proxy/Clones.sol\":2736:2761  shl(0x60, implementation) */\n      shl\n        /* \"@openzeppelin/contracts/proxy/Clones.sol\":2730:2734  0xe8 */\n      0xe8\n        /* \"@openzeppelin/contracts/proxy/Clones.sol\":2726:2762  shr(0xe8, shl(0x60, implementation)) */\n      shr\n        /* \"@openzeppelin/contracts/proxy/Clones.sol\":2723:2813  or(shr(0xe8, shl(0x60, implementation)), 0x3d602d80600a3d3981f3363d3d373d3d3d363d73000000) */\n      or\n        /* \"@openzeppelin/contracts/proxy/Clones.sol\":2717:2721  0x00 */\n      0x00\n        /* \"@openzeppelin/contracts/proxy/Clones.sol\":2710:2814  mstore(0x00, or(shr(0xe8, shl(0x60, implementation)), 0x3d602d80600a3d3981f3363d3d373d3d3d363d73000000)) */\n      mstore\n        /* \"@openzeppelin/contracts/proxy/Clones.sol\":2971:3003  0x5af43d82803e903d91602b57fd5bf3 */\n      0x5af43d82803e903d91602b57fd5bf3\n        /* \"@openzeppelin/contracts/proxy/Clones.sol\":2954:2968  implementation */\n      dup4\n        /* \"@openzeppelin/contracts/proxy/Clones.sol\":2948:2952  0x78 */\n      0x78\n        /* \"@openzeppelin/contracts/proxy/Clones.sol\":2944:2969  shl(0x78, implementation) */\n      shl\n        /* \"@openzeppelin/contracts/proxy/Clones.sol\":2941:3004  or(shl(0x78, implementation), 0x5af43d82803e903d91602b57fd5bf3) */\n      or\n        /* \"@openzeppelin/contracts/proxy/Clones.sol\":2935:2939  0x20 */\n      0x20\n        /* \"@openzeppelin/contracts/proxy/Clones.sol\":2928:3005  mstore(0x20, or(shl(0x78, implementation), 0x5af43d82803e903d91602b57fd5bf3)) */\n      mstore\n        /* \"@openzeppelin/contracts/proxy/Clones.sol\":3050:3054  0x37 */\n      0x37\n        /* \"@openzeppelin/contracts/proxy/Clones.sol\":3044:3048  0x09 */\n      0x09\n        /* \"@openzeppelin/contracts/proxy/Clones.sol\":3037:3042  value */\n      dup4\n        /* \"@openzeppelin/contracts/proxy/Clones.sol\":3030:3055  create(value, 0x09, 0x37) */\n      create\n        /* \"@openzeppelin/contracts/proxy/Clones.sol\":3018:3055  instance := create(value, 0x09, 0x37) */\n      swap1\n      pop\n        /* \"@openzeppelin/contracts/proxy/Clones.sol\":3098:3099  0 */\n      0x00\n        /* \"@openzeppelin/contracts/proxy/Clones.sol\":3078:3100  instance == address(0) */\n      0xffffffffffffffffffffffffffffffffffffffff\n      and\n        /* \"@openzeppelin/contracts/proxy/Clones.sol\":3078:3086  instance */\n      dup2\n        /* \"@openzeppelin/contracts/proxy/Clones.sol\":3078:3100  instance == address(0) */\n      0xffffffffffffffffffffffffffffffffffffffff\n      and\n      sub\n        /* \"@openzeppelin/contracts/proxy/Clones.sol\":3074:3159  if (instance == address(0)) {... */\n      tag_105\n      jumpi\n        /* \"@openzeppelin/contracts/proxy/Clones.sol\":3123:3148  Errors.FailedDeployment() */\n      mload(0x40)\n      0xb06ebf3d00000000000000000000000000000000000000000000000000000000\n      dup2\n      mstore\n      0x04\n      add\n      mload(0x40)\n      dup1\n      swap2\n      sub\n      swap1\n      revert\n        /* \"@openzeppelin/contracts/proxy/Clones.sol\":3074:3159  if (instance == address(0)) {... */\n    tag_105:\n        /* \"@openzeppelin/contracts/proxy/Clones.sol\":2255:3165  function clone(address implementation, uint256 value) internal returns (address instance) {... */\n      swap3\n      swap2\n      pop\n      pop\n      jump\t// out\n        /* \"#utility.yul\":7:133   */\n    tag_106:\n        /* \"#utility.yul\":44:51   */\n      0x00\n        /* \"#utility.yul\":84:126   */\n      0xffffffffffffffffffffffffffffffffffffffff\n        /* \"#utility.yul\":77:82   */\n      dup3\n        /* \"#utility.yul\":73:127   */\n      and\n        /* \"#utility.yul\":62:127   */\n      swap1\n      pop\n        /* \"#utility.yul\":7:133   */\n      swap2\n      swap1\n      pop\n      jump\t// out\n        /* \"#utility.yul\":139:235   */\n    tag_107:\n        /* \"#utility.yul\":176:183   */\n      0x00\n        /* \"#utility.yul\":205:229   */\n      tag_145\n        /* \"#utility.yul\":223:228   */\n      dup3\n        /* \"#utility.yul\":205:229   */\n      tag_106\n      jump\t// in\n    tag_145:\n        /* \"#utility.yul\":194:229   */\n      swap1\n      pop\n        /* \"#utility.yul\":139:235   */\n      swap2\n      swap1\n      pop\n      jump\t// out\n        /* \"#utility.yul\":241:359   */\n    tag_108:\n        /* \"#utility.yul\":328:352   */\n      tag_147\n        /* \"#utility.yul\":346:351   */\n      dup2\n        /* \"#utility.yul\":328:352   */\n      tag_107\n      jump\t// in\n    tag_147:\n        /* \"#utility.yul\":323:326   */\n      dup3\n        /* \"#utility.yul\":316:353   */\n      mstore\n        /* \"#utility.yul\":241:359   */\n      pop\n      pop\n      jump\t// out\n        /* \"#utility.yul\":365:587   */\n    tag_16:\n        /* \"#utility.yul\":458:462   */\n      0x00\n        /* \"#utility.yul\":496:498   */\n      0x20\n        /* \"#utility.yul\":485:494   */\n      dup3\n        /* \"#utility.yul\":481:499   */\n      add\n        /* \"#utility.yul\":473:499   */\n      swap1\n      pop\n        /* \"#utility.yul\":509:580   */\n      tag_149\n        /* \"#utility.yul\":577:578   */\n      0x00\n        /* \"#utility.yul\":566:575   */\n      dup4\n        /* \"#utility.yul\":562:579   */\n      add\n        /* \"#utility.yul\":553:559   */\n      dup5\n        /* \"#utility.yul\":509:580   */\n      tag_108\n      jump\t// in\n    tag_149:\n        /* \"#utility.yul\":365:587   */\n      swap3\n      swap2\n      pop\n      pop\n      jump\t// out\n        /* \"#utility.yul\":593:668   */\n    tag_109:\n        /* \"#utility.yul\":626:632   */\n      0x00\n        /* \"#utility.yul\":659:661   */\n      0x40\n        /* \"#utility.yul\":653:662   */\n      mload\n        /* \"#utility.yul\":643:662   */\n      swap1\n      pop\n        /* \"#utility.yul\":593:668   */\n      swap1\n      jump\t// out\n        /* \"#utility.yul\":674:791   */\n    tag_110:\n        /* \"#utility.yul\":783:784   */\n      0x00\n        /* \"#utility.yul\":780:781   */\n      0x00\n        /* \"#utility.yul\":773:785   */\n      revert\n        /* \"#utility.yul\":797:914   */\n    tag_111:\n        /* \"#utility.yul\":906:907   */\n      0x00\n        /* \"#utility.yul\":903:904   */\n      0x00\n        /* \"#utility.yul\":896:908   */\n      revert\n        /* \"#utility.yul\":920:1042   */\n    tag_112:\n        /* \"#utility.yul\":993:1017   */\n      tag_154\n        /* \"#utility.yul\":1011:1016   */\n      dup2\n        /* \"#utility.yul\":993:1017   */\n      tag_107\n      jump\t// in\n    tag_154:\n        /* \"#utility.yul\":986:991   */\n      dup2\n        /* \"#utility.yul\":983:1018   */\n      eq\n        /* \"#utility.yul\":973:1036   */\n      tag_155\n      jumpi\n        /* \"#utility.yul\":1032:1033   */\n      0x00\n        /* \"#utility.yul\":1029:1030   */\n      0x00\n        /* \"#utility.yul\":1022:1034   */\n      revert\n        /* \"#utility.yul\":973:1036   */\n    tag_155:\n        /* \"#utility.yul\":920:1042   */\n      pop\n      jump\t// out\n        /* \"#utility.yul\":1048:1187   */\n    tag_113:\n        /* \"#utility.yul\":1094:1099   */\n      0x00\n        /* \"#utility.yul\":1132:1138   */\n      dup2\n        /* \"#utility.yul\":1119:1139   */\n      calldataload\n        /* \"#utility.yul\":1110:1139   */\n      swap1\n      pop\n        /* \"#utility.yul\":1148:1181   */\n      tag_157\n        /* \"#utility.yul\":1175:1180   */\n      dup2\n        /* \"#utility.yul\":1148:1181   */\n      tag_112\n      jump\t// in\n    tag_157:\n        /* \"#utility.yul\":1048:1187   */\n      swap3\n      swap2\n      pop\n      pop\n      jump\t// out\n        /* \"#utility.yul\":1193:1522   */\n    tag_19:\n        /* \"#utility.yul\":1252:1258   */\n      0x00\n        /* \"#utility.yul\":1301:1303   */\n      0x20\n        /* \"#utility.yul\":1289:1298   */\n      dup3\n        /* \"#utility.yul\":1280:1287   */\n      dup5\n        /* \"#utility.yul\":1276:1299   */\n      sub\n        /* \"#utility.yul\":1272:1304   */\n      slt\n        /* \"#utility.yul\":1269:1388   */\n      iszero\n      tag_159\n      jumpi\n        /* \"#utility.yul\":1307:1386   */\n      tag_160\n      tag_110\n      jump\t// in\n    tag_160:\n        /* \"#utility.yul\":1269:1388   */\n    tag_159:\n        /* \"#utility.yul\":1427:1428   */\n      0x00\n        /* \"#utility.yul\":1452:1505   */\n      tag_161\n        /* \"#utility.yul\":1497:1504   */\n      dup5\n        /* \"#utility.yul\":1488:1494   */\n      dup3\n        /* \"#utility.yul\":1477:1486   */\n      dup6\n        /* \"#utility.yul\":1473:1495   */\n      add\n        /* \"#utility.yul\":1452:1505   */\n      tag_113\n      jump\t// in\n    tag_161:\n        /* \"#utility.yul\":1442:1505   */\n      swap2\n      pop\n        /* \"#utility.yul\":1398:1515   */\n      pop\n        /* \"#utility.yul\":1193:1522   */\n      swap3\n      swap2\n      pop\n      pop\n      jump\t// out\n        /* \"#utility.yul\":1528:1605   */\n    tag_114:\n        /* \"#utility.yul\":1565:1572   */\n      0x00\n        /* \"#utility.yul\":1594:1599   */\n      dup2\n        /* \"#utility.yul\":1583:1599   */\n      swap1\n      pop\n        /* \"#utility.yul\":1528:1605   */\n      swap2\n      swap1\n      pop\n      jump\t// out\n        /* \"#utility.yul\":1611:1733   */\n    tag_115:\n        /* \"#utility.yul\":1684:1708   */\n      tag_164\n        /* \"#utility.yul\":1702:1707   */\n      dup2\n        /* \"#utility.yul\":1684:1708   */\n      tag_114\n      jump\t// in\n    tag_164:\n        /* \"#utility.yul\":1677:1682   */\n      dup2\n        /* \"#utility.yul\":1674:1709   */\n      eq\n        /* \"#utility.yul\":1664:1727   */\n      tag_165\n      jumpi\n        /* \"#utility.yul\":1723:1724   */\n      0x00\n        /* \"#utility.yul\":1720:1721   */\n      0x00\n        /* \"#utility.yul\":1713:1725   */\n      revert\n        /* \"#utility.yul\":1664:1727   */\n    tag_165:\n        /* \"#utility.yul\":1611:1733   */\n      pop\n      jump\t// out\n        /* \"#utility.yul\":1739:1878   */\n    tag_116:\n        /* \"#utility.yul\":1785:1790   */\n      0x00\n        /* \"#utility.yul\":1823:1829   */\n      dup2\n        /* \"#utility.yul\":1810:1830   */\n      calldataload\n        /* \"#utility.yul\":1801:1830   */\n      swap1\n      pop\n        /* \"#utility.yul\":1839:1872   */\n      tag_167\n        /* \"#utility.yul\":1866:1871   */\n      dup2\n        /* \"#utility.yul\":1839:1872   */\n      tag_115\n      jump\t// in\n    tag_167:\n        /* \"#utility.yul\":1739:1878   */\n      swap3\n      swap2\n      pop\n      pop\n      jump\t// out\n        /* \"#utility.yul\":1884:2213   */\n    tag_23:\n        /* \"#utility.yul\":1943:1949   */\n      0x00\n        /* \"#utility.yul\":1992:1994   */\n      0x20\n        /* \"#utility.yul\":1980:1989   */\n      dup3\n        /* \"#utility.yul\":1971:1978   */\n      dup5\n        /* \"#utility.yul\":1967:1990   */\n      sub\n        /* \"#utility.yul\":1963:1995   */\n      slt\n        /* \"#utility.yul\":1960:2079   */\n      iszero\n      tag_169\n      jumpi\n        /* \"#utility.yul\":1998:2077   */\n      tag_170\n      tag_110\n      jump\t// in\n    tag_170:\n        /* \"#utility.yul\":1960:2079   */\n    tag_169:\n        /* \"#utility.yul\":2118:2119   */\n      0x00\n        /* \"#utility.yul\":2143:2196   */\n      tag_171\n        /* \"#utility.yul\":2188:2195   */\n      dup5\n        /* \"#utility.yul\":2179:2185   */\n      dup3\n        /* \"#utility.yul\":2168:2177   */\n      dup6\n        /* \"#utility.yul\":2164:2186   */\n      add\n        /* \"#utility.yul\":2143:2196   */\n      tag_116\n      jump\t// in\n    tag_171:\n        /* \"#utility.yul\":2133:2196   */\n      swap2\n      pop\n        /* \"#utility.yul\":2089:2206   */\n      pop\n        /* \"#utility.yul\":1884:2213   */\n      swap3\n      swap2\n      pop\n      pop\n      jump\t// out\n        /* \"#utility.yul\":2219:2336   */\n    tag_117:\n        /* \"#utility.yul\":2328:2329   */\n      0x00\n        /* \"#utility.yul\":2325:2326   */\n      0x00\n        /* \"#utility.yul\":2318:2330   */\n      revert\n        /* \"#utility.yul\":2342:2459   */\n    tag_118:\n        /* \"#utility.yul\":2451:2452   */\n      0x00\n        /* \"#utility.yul\":2448:2449   */\n      0x00\n        /* \"#utility.yul\":2441:2453   */\n      revert\n        /* \"#utility.yul\":2465:2567   */\n    tag_119:\n        /* \"#utility.yul\":2506:2512   */\n      0x00\n        /* \"#utility.yul\":2557:2559   */\n      0x1f\n        /* \"#utility.yul\":2553:2560   */\n      not\n        /* \"#utility.yul\":2548:2550   */\n      0x1f\n        /* \"#utility.yul\":2541:2546   */\n      dup4\n        /* \"#utility.yul\":2537:2551   */\n      add\n        /* \"#utility.yul\":2533:2561   */\n      and\n        /* \"#utility.yul\":2523:2561   */\n      swap1\n      pop\n        /* \"#utility.yul\":2465:2567   */\n      swap2\n      swap1\n      pop\n      jump\t// out\n        /* \"#utility.yul\":2573:2753   */\n    tag_120:\n        /* \"#utility.yul\":2621:2698   */\n      0x4e487b7100000000000000000000000000000000000000000000000000000000\n        /* \"#utility.yul\":2618:2619   */\n      0x00\n        /* \"#utility.yul\":2611:2699   */\n      mstore\n        /* \"#utility.yul\":2718:2722   */\n      0x41\n        /* \"#utility.yul\":2715:2716   */\n      0x04\n        /* \"#utility.yul\":2708:2723   */\n      mstore\n        /* \"#utility.yul\":2742:2746   */\n      0x24\n        /* \"#utility.yul\":2739:2740   */\n      0x00\n        /* \"#utility.yul\":2732:2747   */\n      revert\n        /* \"#utility.yul\":2759:3040   */\n    tag_121:\n        /* \"#utility.yul\":2842:2869   */\n      tag_177\n        /* \"#utility.yul\":2864:2868   */\n      dup3\n        /* \"#utility.yul\":2842:2869   */\n      tag_119\n      jump\t// in\n    tag_177:\n        /* \"#utility.yul\":2834:2840   */\n      dup2\n        /* \"#utility.yul\":2830:2870   */\n      add\n        /* \"#utility.yul\":2972:2978   */\n      dup2\n        /* \"#utility.yul\":2960:2970   */\n      dup2\n        /* \"#utility.yul\":2957:2979   */\n      lt\n        /* \"#utility.yul\":2936:2954   */\n      0xffffffffffffffff\n        /* \"#utility.yul\":2924:2934   */\n      dup3\n        /* \"#utility.yul\":2921:2955   */\n      gt\n        /* \"#utility.yul\":2918:2980   */\n      or\n        /* \"#utility.yul\":2915:3003   */\n      iszero\n      tag_178\n      jumpi\n        /* \"#utility.yul\":2983:3001   */\n      tag_179\n      tag_120\n      jump\t// in\n    tag_179:\n        /* \"#utility.yul\":2915:3003   */\n    tag_178:\n        /* \"#utility.yul\":3023:3033   */\n      dup1\n        /* \"#utility.yul\":3019:3021   */\n      0x40\n        /* \"#utility.yul\":3012:3034   */\n      mstore\n        /* \"#utility.yul\":2802:3040   */\n      pop\n        /* \"#utility.yul\":2759:3040   */\n      pop\n      pop\n      jump\t// out\n        /* \"#utility.yul\":3046:3175   */\n    tag_122:\n        /* \"#utility.yul\":3080:3086   */\n      0x00\n        /* \"#utility.yul\":3107:3127   */\n      tag_181\n      tag_109\n      jump\t// in\n    tag_181:\n        /* \"#utility.yul\":3097:3127   */\n      swap1\n      pop\n        /* \"#utility.yul\":3136:3169   */\n      tag_182\n        /* \"#utility.yul\":3164:3168   */\n      dup3\n        /* \"#utility.yul\":3156:3162   */\n      dup3\n        /* \"#utility.yul\":3136:3169   */\n      tag_121\n      jump\t// in\n    tag_182:\n        /* \"#utility.yul\":3046:3175   */\n      swap2\n      swap1\n      pop\n      jump\t// out\n        /* \"#utility.yul\":3181:3489   */\n    tag_123:\n        /* \"#utility.yul\":3243:3247   */\n      0x00\n        /* \"#utility.yul\":3333:3351   */\n      0xffffffffffffffff\n        /* \"#utility.yul\":3325:3331   */\n      dup3\n        /* \"#utility.yul\":3322:3352   */\n      gt\n        /* \"#utility.yul\":3319:3375   */\n      iszero\n      tag_184\n      jumpi\n        /* \"#utility.yul\":3355:3373   */\n      tag_185\n      tag_120\n      jump\t// in\n    tag_185:\n        /* \"#utility.yul\":3319:3375   */\n    tag_184:\n        /* \"#utility.yul\":3393:3422   */\n      tag_186\n        /* \"#utility.yul\":3415:3421   */\n      dup3\n        /* \"#utility.yul\":3393:3422   */\n      tag_119\n      jump\t// in\n    tag_186:\n        /* \"#utility.yul\":3385:3422   */\n      swap1\n      pop\n        /* \"#utility.yul\":3477:3481   */\n      0x20\n        /* \"#utility.yul\":3471:3475   */\n      dup2\n        /* \"#utility.yul\":3467:3482   */\n      add\n        /* \"#utility.yul\":3459:3482   */\n      swap1\n      pop\n        /* \"#utility.yul\":3181:3489   */\n      swap2\n      swap1\n      pop\n      jump\t// out\n        /* \"#utility.yul\":3495:3643   */\n    tag_124:\n        /* \"#utility.yul\":3593:3599   */\n      dup3\n        /* \"#utility.yul\":3588:3591   */\n      dup2\n        /* \"#utility.yul\":3583:3586   */\n      dup4\n        /* \"#utility.yul\":3570:3600   */\n      calldatacopy\n        /* \"#utility.yul\":3634:3635   */\n      0x00\n        /* \"#utility.yul\":3625:3631   */\n      dup4\n        /* \"#utility.yul\":3620:3623   */\n      dup4\n        /* \"#utility.yul\":3616:3632   */\n      add\n        /* \"#utility.yul\":3609:3636   */\n      mstore\n        /* \"#utility.yul\":3495:3643   */\n      pop\n      pop\n      pop\n      jump\t// out\n        /* \"#utility.yul\":3649:4074   */\n    tag_125:\n        /* \"#utility.yul\":3727:3732   */\n      0x00\n        /* \"#utility.yul\":3752:3818   */\n      tag_189\n        /* \"#utility.yul\":3768:3817   */\n      tag_190\n        /* \"#utility.yul\":3810:3816   */\n      dup5\n        /* \"#utility.yul\":3768:3817   */\n      tag_123\n      jump\t// in\n    tag_190:\n        /* \"#utility.yul\":3752:3818   */\n      tag_122\n      jump\t// in\n    tag_189:\n        /* \"#utility.yul\":3743:3818   */\n      swap1\n      pop\n        /* \"#utility.yul\":3841:3847   */\n      dup3\n        /* \"#utility.yul\":3834:3839   */\n      dup2\n        /* \"#utility.yul\":3827:3848   */\n      mstore\n        /* \"#utility.yul\":3879:3883   */\n      0x20\n        /* \"#utility.yul\":3872:3877   */\n      dup2\n        /* \"#utility.yul\":3868:3884   */\n      add\n        /* \"#utility.yul\":3917:3920   */\n      dup5\n        /* \"#utility.yul\":3908:3914   */\n      dup5\n        /* \"#utility.yul\":3903:3906   */\n      dup5\n        /* \"#utility.yul\":3899:3915   */\n      add\n        /* \"#utility.yul\":3896:3921   */\n      gt\n        /* \"#utility.yul\":3893:4005   */\n      iszero\n      tag_191\n      jumpi\n        /* \"#utility.yul\":3924:4003   */\n      tag_192\n      tag_118\n      jump\t// in\n    tag_192:\n        /* \"#utility.yul\":3893:4005   */\n    tag_191:\n        /* \"#utility.yul\":4014:4068   */\n      tag_193\n        /* \"#utility.yul\":4061:4067   */\n      dup5\n        /* \"#utility.yul\":4056:4059   */\n      dup3\n        /* \"#utility.yul\":4051:4054   */\n      dup6\n        /* \"#utility.yul\":4014:4068   */\n      tag_124\n      jump\t// in\n    tag_193:\n        /* \"#utility.yul\":3733:4074   */\n      pop\n        /* \"#utility.yul\":3649:4074   */\n      swap4\n      swap3\n      pop\n      pop\n      pop\n      jump\t// out\n        /* \"#utility.yul\":4094:4434   */\n    tag_126:\n        /* \"#utility.yul\":4150:4155   */\n      0x00\n        /* \"#utility.yul\":4199:4202   */\n      dup3\n        /* \"#utility.yul\":4192:4196   */\n      0x1f\n        /* \"#utility.yul\":4184:4190   */\n      dup4\n        /* \"#utility.yul\":4180:4197   */\n      add\n        /* \"#utility.yul\":4176:4203   */\n      slt\n        /* \"#utility.yul\":4166:4288   */\n      tag_195\n      jumpi\n        /* \"#utility.yul\":4207:4286   */\n      tag_196\n      tag_117\n      jump\t// in\n    tag_196:\n        /* \"#utility.yul\":4166:4288   */\n    tag_195:\n        /* \"#utility.yul\":4324:4330   */\n      dup2\n        /* \"#utility.yul\":4311:4331   */\n      calldataload\n        /* \"#utility.yul\":4349:4428   */\n      tag_197\n        /* \"#utility.yul\":4424:4427   */\n      dup5\n        /* \"#utility.yul\":4416:4422   */\n      dup3\n        /* \"#utility.yul\":4409:4413   */\n      0x20\n        /* \"#utility.yul\":4401:4407   */\n      dup7\n        /* \"#utility.yul\":4397:4414   */\n      add\n        /* \"#utility.yul\":4349:4428   */\n      tag_125\n      jump\t// in\n    tag_197:\n        /* \"#utility.yul\":4340:4428   */\n      swap2\n      pop\n        /* \"#utility.yul\":4156:4434   */\n      pop\n        /* \"#utility.yul\":4094:4434   */\n      swap3\n      swap2\n      pop\n      pop\n      jump\t// out\n        /* \"#utility.yul\":4440:5419   */\n    tag_34:\n        /* \"#utility.yul\":4537:4543   */\n      0x00\n        /* \"#utility.yul\":4545:4551   */\n      0x00\n        /* \"#utility.yul\":4553:4559   */\n      0x00\n        /* \"#utility.yul\":4602:4604   */\n      0x60\n        /* \"#utility.yul\":4590:4599   */\n      dup5\n        /* \"#utility.yul\":4581:4588   */\n      dup7\n        /* \"#utility.yul\":4577:4600   */\n      sub\n        /* \"#utility.yul\":4573:4605   */\n      slt\n        /* \"#utility.yul\":4570:4689   */\n      iszero\n      tag_199\n      jumpi\n        /* \"#utility.yul\":4608:4687   */\n      tag_200\n      tag_110\n      jump\t// in\n    tag_200:\n        /* \"#utility.yul\":4570:4689   */\n    tag_199:\n        /* \"#utility.yul\":4728:4729   */\n      0x00\n        /* \"#utility.yul\":4753:4806   */\n      tag_201\n        /* \"#utility.yul\":4798:4805   */\n      dup7\n        /* \"#utility.yul\":4789:4795   */\n      dup3\n        /* \"#utility.yul\":4778:4787   */\n      dup8\n        /* \"#utility.yul\":4774:4796   */\n      add\n        /* \"#utility.yul\":4753:4806   */\n      tag_116\n      jump\t// in\n    tag_201:\n        /* \"#utility.yul\":4743:4806   */\n      swap4\n      pop\n        /* \"#utility.yul\":4699:4816   */\n      pop\n        /* \"#utility.yul\":4883:4885   */\n      0x20\n        /* \"#utility.yul\":4872:4881   */\n      dup5\n        /* \"#utility.yul\":4868:4886   */\n      add\n        /* \"#utility.yul\":4855:4887   */\n      calldataload\n        /* \"#utility.yul\":4914:4932   */\n      0xffffffffffffffff\n        /* \"#utility.yul\":4906:4912   */\n      dup2\n        /* \"#utility.yul\":4903:4933   */\n      gt\n        /* \"#utility.yul\":4900:5017   */\n      iszero\n      tag_202\n      jumpi\n        /* \"#utility.yul\":4936:5015   */\n      tag_203\n      tag_111\n      jump\t// in\n    tag_203:\n        /* \"#utility.yul\":4900:5017   */\n    tag_202:\n        /* \"#utility.yul\":5041:5104   */\n      tag_204\n        /* \"#utility.yul\":5096:5103   */\n      dup7\n        /* \"#utility.yul\":5087:5093   */\n      dup3\n        /* \"#utility.yul\":5076:5085   */\n      dup8\n        /* \"#utility.yul\":5072:5094   */\n      add\n        /* \"#utility.yul\":5041:5104   */\n      tag_126\n      jump\t// in\n    tag_204:\n        /* \"#utility.yul\":5031:5104   */\n      swap3\n      pop\n        /* \"#utility.yul\":4826:5114   */\n      pop\n        /* \"#utility.yul\":5181:5183   */\n      0x40\n        /* \"#utility.yul\":5170:5179   */\n      dup5\n        /* \"#utility.yul\":5166:5184   */\n      add\n        /* \"#utility.yul\":5153:5185   */\n      calldataload\n        /* \"#utility.yul\":5212:5230   */\n      0xffffffffffffffff\n        /* \"#utility.yul\":5204:5210   */\n      dup2\n        /* \"#utility.yul\":5201:5231   */\n      gt\n        /* \"#utility.yul\":5198:5315   */\n      iszero\n      tag_205\n      jumpi\n        /* \"#utility.yul\":5234:5313   */\n      tag_206\n      tag_111\n      jump\t// in\n    tag_206:\n        /* \"#utility.yul\":5198:5315   */\n    tag_205:\n        /* \"#utility.yul\":5339:5402   */\n      tag_207\n        /* \"#utility.yul\":5394:5401   */\n      dup7\n        /* \"#utility.yul\":5385:5391   */\n      dup3\n        /* \"#utility.yul\":5374:5383   */\n      dup8\n        /* \"#utility.yul\":5370:5392   */\n      add\n        /* \"#utility.yul\":5339:5402   */\n      tag_126\n      jump\t// in\n    tag_207:\n        /* \"#utility.yul\":5329:5402   */\n      swap2\n      pop\n        /* \"#utility.yul\":5124:5412   */\n      pop\n        /* \"#utility.yul\":4440:5419   */\n      swap3\n      pop\n      swap3\n      pop\n      swap3\n      jump\t// out\n        /* \"#utility.yul\":5425:6044   */\n    tag_39:\n        /* \"#utility.yul\":5502:5508   */\n      0x00\n        /* \"#utility.yul\":5510:5516   */\n      0x00\n        /* \"#utility.yul\":5518:5524   */\n      0x00\n        /* \"#utility.yul\":5567:5569   */\n      0x60\n        /* \"#utility.yul\":5555:5564   */\n      dup5\n        /* \"#utility.yul\":5546:5553   */\n      dup7\n        /* \"#utility.yul\":5542:5565   */\n      sub\n        /* \"#utility.yul\":5538:5570   */\n      slt\n        /* \"#utility.yul\":5535:5654   */\n      iszero\n      tag_209\n      jumpi\n        /* \"#utility.yul\":5573:5652   */\n      tag_210\n      tag_110\n      jump\t// in\n    tag_210:\n        /* \"#utility.yul\":5535:5654   */\n    tag_209:\n        /* \"#utility.yul\":5693:5694   */\n      0x00\n        /* \"#utility.yul\":5718:5771   */\n      tag_211\n        /* \"#utility.yul\":5763:5770   */\n      dup7\n        /* \"#utility.yul\":5754:5760   */\n      dup3\n        /* \"#utility.yul\":5743:5752   */\n      dup8\n        /* \"#utility.yul\":5739:5761   */\n      add\n        /* \"#utility.yul\":5718:5771   */\n      tag_116\n      jump\t// in\n    tag_211:\n        /* \"#utility.yul\":5708:5771   */\n      swap4\n      pop\n        /* \"#utility.yul\":5664:5781   */\n      pop\n        /* \"#utility.yul\":5820:5822   */\n      0x20\n        /* \"#utility.yul\":5846:5899   */\n      tag_212\n        /* \"#utility.yul\":5891:5898   */\n      dup7\n        /* \"#utility.yul\":5882:5888   */\n      dup3\n        /* \"#utility.yul\":5871:5880   */\n      dup8\n        /* \"#utility.yul\":5867:5889   */\n      add\n        /* \"#utility.yul\":5846:5899   */\n      tag_113\n      jump\t// in\n    tag_212:\n        /* \"#utility.yul\":5836:5899   */\n      swap3\n      pop\n        /* \"#utility.yul\":5791:5909   */\n      pop\n        /* \"#utility.yul\":5948:5950   */\n      0x40\n        /* \"#utility.yul\":5974:6027   */\n      tag_213\n        /* \"#utility.yul\":6019:6026   */\n      dup7\n        /* \"#utility.yul\":6010:6016   */\n      dup3\n        /* \"#utility.yul\":5999:6008   */\n      dup8\n        /* \"#utility.yul\":5995:6017   */\n      add\n        /* \"#utility.yul\":5974:6027   */\n      tag_116\n      jump\t// in\n    tag_213:\n        /* \"#utility.yul\":5964:6027   */\n      swap2\n      pop\n        /* \"#utility.yul\":5919:6037   */\n      pop\n        /* \"#utility.yul\":5425:6044   */\n      swap3\n      pop\n      swap3\n      pop\n      swap3\n      jump\t// out\n        /* \"#utility.yul\":6050:6219   */\n    tag_127:\n        /* \"#utility.yul\":6134:6145   */\n      0x00\n        /* \"#utility.yul\":6168:6174   */\n      dup3\n        /* \"#utility.yul\":6163:6166   */\n      dup3\n        /* \"#utility.yul\":6156:6175   */\n      mstore\n        /* \"#utility.yul\":6208:6212   */\n      0x20\n        /* \"#utility.yul\":6203:6206   */\n      dup3\n        /* \"#utility.yul\":6199:6213   */\n      add\n        /* \"#utility.yul\":6184:6213   */\n      swap1\n      pop\n        /* \"#utility.yul\":6050:6219   */\n      swap3\n      swap2\n      pop\n      pop\n      jump\t// out\n        /* \"#utility.yul\":6225:6384   */\n    tag_128:\n        /* \"#utility.yul\":6365:6376   */\n      0x4e4f545f4f574e45520000000000000000000000000000000000000000000000\n        /* \"#utility.yul\":6361:6362   */\n      0x00\n        /* \"#utility.yul\":6353:6359   */\n      dup3\n        /* \"#utility.yul\":6349:6363   */\n      add\n        /* \"#utility.yul\":6342:6377   */\n      mstore\n        /* \"#utility.yul\":6225:6384   */\n      pop\n      jump\t// out\n        /* \"#utility.yul\":6390:6755   */\n    tag_129:\n        /* \"#utility.yul\":6532:6535   */\n      0x00\n        /* \"#utility.yul\":6553:6619   */\n      tag_217\n        /* \"#utility.yul\":6617:6618   */\n      0x09\n        /* \"#utility.yul\":6612:6615   */\n      dup4\n        /* \"#utility.yul\":6553:6619   */\n      tag_127\n      jump\t// in\n    tag_217:\n        /* \"#utility.yul\":6546:6619   */\n      swap2\n      pop\n        /* \"#utility.yul\":6628:6721   */\n      tag_218\n        /* \"#utility.yul\":6717:6720   */\n      dup3\n        /* \"#utility.yul\":6628:6721   */\n      tag_128\n      jump\t// in\n    tag_218:\n        /* \"#utility.yul\":6746:6748   */\n      0x20\n        /* \"#utility.yul\":6741:6744   */\n      dup3\n        /* \"#utility.yul\":6737:6749   */\n      add\n        /* \"#utility.yul\":6730:6749   */\n      swap1\n      pop\n        /* \"#utility.yul\":6390:6755   */\n      swap2\n      swap1\n      pop\n      jump\t// out\n        /* \"#utility.yul\":6761:7180   */\n    tag_50:\n        /* \"#utility.yul\":6927:6931   */\n      0x00\n        /* \"#utility.yul\":6965:6967   */\n      0x20\n        /* \"#utility.yul\":6954:6963   */\n      dup3\n        /* \"#utility.yul\":6950:6968   */\n      add\n        /* \"#utility.yul\":6942:6968   */\n      swap1\n      pop\n        /* \"#utility.yul\":7014:7023   */\n      dup2\n        /* \"#utility.yul\":7008:7012   */\n      dup2\n        /* \"#utility.yul\":7004:7024   */\n      sub\n        /* \"#utility.yul\":7000:7001   */\n      0x00\n        /* \"#utility.yul\":6989:6998   */\n      dup4\n        /* \"#utility.yul\":6985:7002   */\n      add\n        /* \"#utility.yul\":6978:7025   */\n      mstore\n        /* \"#utility.yul\":7042:7173   */\n      tag_220\n        /* \"#utility.yul\":7168:7172   */\n      dup2\n        /* \"#utility.yul\":7042:7173   */\n      tag_129\n      jump\t// in\n    tag_220:\n        /* \"#utility.yul\":7034:7173   */\n      swap1\n      pop\n        /* \"#utility.yul\":6761:7180   */\n      swap2\n      swap1\n      pop\n      jump\t// out\n        /* \"#utility.yul\":7186:7345   */\n    tag_130:\n        /* \"#utility.yul\":7326:7337   */\n      0x5a45524f5f414444520000000000000000000000000000000000000000000000\n        /* \"#utility.yul\":7322:7323   */\n      0x00\n        /* \"#utility.yul\":7314:7320   */\n      dup3\n        /* \"#utility.yul\":7310:7324   */\n      add\n        /* \"#utility.yul\":7303:7338   */\n      mstore\n        /* \"#utility.yul\":7186:7345   */\n      pop\n      jump\t// out\n        /* \"#utility.yul\":7351:7716   */\n    tag_131:\n        /* \"#utility.yul\":7493:7496   */\n      0x00\n        /* \"#utility.yul\":7514:7580   */\n      tag_223\n        /* \"#utility.yul\":7578:7579   */\n      0x09\n        /* \"#utility.yul\":7573:7576   */\n      dup4\n        /* \"#utility.yul\":7514:7580   */\n      tag_127\n      jump\t// in\n    tag_223:\n        /* \"#utility.yul\":7507:7580   */\n      swap2\n      pop\n        /* \"#utility.yul\":7589:7682   */\n      tag_224\n        /* \"#utility.yul\":7678:7681   */\n      dup3\n        /* \"#utility.yul\":7589:7682   */\n      tag_130\n      jump\t// in\n    tag_224:\n        /* \"#utility.yul\":7707:7709   */\n      0x20\n        /* \"#utility.yul\":7702:7705   */\n      dup3\n        /* \"#utility.yul\":7698:7710   */\n      add\n        /* \"#utility.yul\":7691:7710   */\n      swap1\n      pop\n        /* \"#utility.yul\":7351:7716   */\n      swap2\n      swap1\n      pop\n      jump\t// out\n        /* \"#utility.yul\":7722:8141   */\n    tag_54:\n        /* \"#utility.yul\":7888:7892   */\n      0x00\n        /* \"#utility.yul\":7926:7928   */\n      0x20\n        /* \"#utility.yul\":7915:7924   */\n      dup3\n        /* \"#utility.yul\":7911:7929   */\n      add\n        /* \"#utility.yul\":7903:7929   */\n      swap1\n      pop\n        /* \"#utility.yul\":7975:7984   */\n      dup2\n        /* \"#utility.yul\":7969:7973   */\n      dup2\n        /* \"#utility.yul\":7965:7985   */\n      sub\n        /* \"#utility.yul\":7961:7962   */\n      0x00\n        /* \"#utility.yul\":7950:7959   */\n      dup4\n        /* \"#utility.yul\":7946:7963   */\n      add\n        /* \"#utility.yul\":7939:7986   */\n      mstore\n        /* \"#utility.yul\":8003:8134   */\n      tag_226\n        /* \"#utility.yul\":8129:8133   */\n      dup2\n        /* \"#utility.yul\":8003:8134   */\n      tag_131\n      jump\t// in\n    tag_226:\n        /* \"#utility.yul\":7995:8134   */\n      swap1\n      pop\n        /* \"#utility.yul\":7722:8141   */\n      swap2\n      swap1\n      pop\n      jump\t// out\n        /* \"#utility.yul\":8147:8303   */\n    tag_132:\n        /* \"#utility.yul\":8287:8295   */\n      0x4558495354530000000000000000000000000000000000000000000000000000\n        /* \"#utility.yul\":8283:8284   */\n      0x00\n        /* \"#utility.yul\":8275:8281   */\n      dup3\n        /* \"#utility.yul\":8271:8285   */\n      add\n        /* \"#utility.yul\":8264:8296   */\n      mstore\n        /* \"#utility.yul\":8147:8303   */\n      pop\n      jump\t// out\n        /* \"#utility.yul\":8309:8674   */\n    tag_133:\n        /* \"#utility.yul\":8451:8454   */\n      0x00\n        /* \"#utility.yul\":8472:8538   */\n      tag_229\n        /* \"#utility.yul\":8536:8537   */\n      0x06\n        /* \"#utility.yul\":8531:8534   */\n      dup4\n        /* \"#utility.yul\":8472:8538   */\n      tag_127\n      jump\t// in\n    tag_229:\n        /* \"#utility.yul\":8465:8538   */\n      swap2\n      pop\n        /* \"#utility.yul\":8547:8640   */\n      tag_230\n        /* \"#utility.yul\":8636:8639   */\n      dup3\n        /* \"#utility.yul\":8547:8640   */\n      tag_132\n      jump\t// in\n    tag_230:\n        /* \"#utility.yul\":8665:8667   */\n      0x20\n        /* \"#utility.yul\":8660:8663   */\n      dup3\n        /* \"#utility.yul\":8656:8668   */\n      add\n        /* \"#utility.yul\":8649:8668   */\n      swap1\n      pop\n        /* \"#utility.yul\":8309:8674   */\n      swap2\n      swap1\n      pop\n      jump\t// out\n        /* \"#utility.yul\":8680:9099   */\n    tag_62:\n        /* \"#utility.yul\":8846:8850   */\n      0x00\n        /* \"#utility.yul\":8884:8886   */\n      0x20\n        /* \"#utility.yul\":8873:8882   */\n      dup3\n        /* \"#utility.yul\":8869:8887   */\n      add\n        /* \"#utility.yul\":8861:8887   */\n      swap1\n      pop\n        /* \"#utility.yul\":8933:8942   */\n      dup2\n        /* \"#utility.yul\":8927:8931   */\n      dup2\n        /* \"#utility.yul\":8923:8943   */\n      sub\n        /* \"#utility.yul\":8919:8920   */\n      0x00\n        /* \"#utility.yul\":8908:8917   */\n      dup4\n        /* \"#utility.yul\":8904:8921   */\n      add\n        /* \"#utility.yul\":8897:8944   */\n      mstore\n        /* \"#utility.yul\":8961:9092   */\n      tag_232\n        /* \"#utility.yul\":9087:9091   */\n      dup2\n        /* \"#utility.yul\":8961:9092   */\n      tag_133\n      jump\t// in\n    tag_232:\n        /* \"#utility.yul\":8953:9092   */\n      swap1\n      pop\n        /* \"#utility.yul\":8680:9099   */\n      swap2\n      swap1\n      pop\n      jump\t// out\n        /* \"#utility.yul\":9105:9204   */\n    tag_134:\n        /* \"#utility.yul\":9157:9163   */\n      0x00\n        /* \"#utility.yul\":9191:9196   */\n      dup2\n        /* \"#utility.yul\":9185:9197   */\n      mload\n        /* \"#utility.yul\":9175:9197   */\n      swap1\n      pop\n        /* \"#utility.yul\":9105:9204   */\n      swap2\n      swap1\n      pop\n      jump\t// out\n        /* \"#utility.yul\":9210:9349   */\n    tag_135:\n        /* \"#utility.yul\":9299:9305   */\n      dup3\n        /* \"#utility.yul\":9294:9297   */\n      dup2\n        /* \"#utility.yul\":9289:9292   */\n      dup4\n        /* \"#utility.yul\":9283:9306   */\n      mcopy\n        /* \"#utility.yul\":9340:9341   */\n      0x00\n        /* \"#utility.yul\":9331:9337   */\n      dup4\n        /* \"#utility.yul\":9326:9329   */\n      dup4\n        /* \"#utility.yul\":9322:9338   */\n      add\n        /* \"#utility.yul\":9315:9342   */\n      mstore\n        /* \"#utility.yul\":9210:9349   */\n      pop\n      pop\n      pop\n      jump\t// out\n        /* \"#utility.yul\":9355:9732   */\n    tag_136:\n        /* \"#utility.yul\":9443:9446   */\n      0x00\n        /* \"#utility.yul\":9471:9510   */\n      tag_236\n        /* \"#utility.yul\":9504:9509   */\n      dup3\n        /* \"#utility.yul\":9471:9510   */\n      tag_134\n      jump\t// in\n    tag_236:\n        /* \"#utility.yul\":9526:9597   */\n      tag_237\n        /* \"#utility.yul\":9590:9596   */\n      dup2\n        /* \"#utility.yul\":9585:9588   */\n      dup6\n        /* \"#utility.yul\":9526:9597   */\n      tag_127\n      jump\t// in\n    tag_237:\n        /* \"#utility.yul\":9519:9597   */\n      swap4\n      pop\n        /* \"#utility.yul\":9606:9671   */\n      tag_238\n        /* \"#utility.yul\":9664:9670   */\n      dup2\n        /* \"#utility.yul\":9659:9662   */\n      dup6\n        /* \"#utility.yul\":9652:9656   */\n      0x20\n        /* \"#utility.yul\":9645:9650   */\n      dup7\n        /* \"#utility.yul\":9641:9657   */\n      add\n        /* \"#utility.yul\":9606:9671   */\n      tag_135\n      jump\t// in\n    tag_238:\n        /* \"#utility.yul\":9696:9725   */\n      tag_239\n        /* \"#utility.yul\":9718:9724   */\n      dup2\n        /* \"#utility.yul\":9696:9725   */\n      tag_119\n      jump\t// in\n    tag_239:\n        /* \"#utility.yul\":9691:9694   */\n      dup5\n        /* \"#utility.yul\":9687:9726   */\n      add\n        /* \"#utility.yul\":9680:9726   */\n      swap2\n      pop\n        /* \"#utility.yul\":9447:9732   */\n      pop\n        /* \"#utility.yul\":9355:9732   */\n      swap3\n      swap2\n      pop\n      pop\n      jump\t// out\n        /* \"#utility.yul\":9738:10362   */\n    tag_66:\n        /* \"#utility.yul\":9927:9931   */\n      0x00\n        /* \"#utility.yul\":9965:9967   */\n      0x60\n        /* \"#utility.yul\":9954:9963   */\n      dup3\n        /* \"#utility.yul\":9950:9968   */\n      add\n        /* \"#utility.yul\":9942:9968   */\n      swap1\n      pop\n        /* \"#utility.yul\":10014:10023   */\n      dup2\n        /* \"#utility.yul\":10008:10012   */\n      dup2\n        /* \"#utility.yul\":10004:10024   */\n      sub\n        /* \"#utility.yul\":10000:10001   */\n      0x00\n        /* \"#utility.yul\":9989:9998   */\n      dup4\n        /* \"#utility.yul\":9985:10002   */\n      add\n        /* \"#utility.yul\":9978:10025   */\n      mstore\n        /* \"#utility.yul\":10042:10120   */\n      tag_241\n        /* \"#utility.yul\":10115:10119   */\n      dup2\n        /* \"#utility.yul\":10106:10112   */\n      dup7\n        /* \"#utility.yul\":10042:10120   */\n      tag_136\n      jump\t// in\n    tag_241:\n        /* \"#utility.yul\":10034:10120   */\n      swap1\n      pop\n        /* \"#utility.yul\":10167:10176   */\n      dup2\n        /* \"#utility.yul\":10161:10165   */\n      dup2\n        /* \"#utility.yul\":10157:10177   */\n      sub\n        /* \"#utility.yul\":10152:10154   */\n      0x20\n        /* \"#utility.yul\":10141:10150   */\n      dup4\n        /* \"#utility.yul\":10137:10155   */\n      add\n        /* \"#utility.yul\":10130:10178   */\n      mstore\n        /* \"#utility.yul\":10195:10273   */\n      tag_242\n        /* \"#utility.yul\":10268:10272   */\n      dup2\n        /* \"#utility.yul\":10259:10265   */\n      dup6\n        /* \"#utility.yul\":10195:10273   */\n      tag_136\n      jump\t// in\n    tag_242:\n        /* \"#utility.yul\":10187:10273   */\n      swap1\n      pop\n        /* \"#utility.yul\":10283:10355   */\n      tag_243\n        /* \"#utility.yul\":10351:10353   */\n      0x40\n        /* \"#utility.yul\":10340:10349   */\n      dup4\n        /* \"#utility.yul\":10336:10354   */\n      add\n        /* \"#utility.yul\":10327:10333   */\n      dup5\n        /* \"#utility.yul\":10283:10355   */\n      tag_108\n      jump\t// in\n    tag_243:\n        /* \"#utility.yul\":9738:10362   */\n      swap5\n      swap4\n      pop\n      pop\n      pop\n      pop\n      jump\t// out\n        /* \"#utility.yul\":10368:10528   */\n    tag_137:\n        /* \"#utility.yul\":10508:10520   */\n      0x4e4f545f4d41524b455400000000000000000000000000000000000000000000\n        /* \"#utility.yul\":10504:10505   */\n      0x00\n        /* \"#utility.yul\":10496:10502   */\n      dup3\n        /* \"#utility.yul\":10492:10506   */\n      add\n        /* \"#utility.yul\":10485:10521   */\n      mstore\n        /* \"#utility.yul\":10368:10528   */\n      pop\n      jump\t// out\n        /* \"#utility.yul\":10534:10900   */\n    tag_138:\n        /* \"#utility.yul\":10676:10679   */\n      0x00\n        /* \"#utility.yul\":10697:10764   */\n      tag_246\n        /* \"#utility.yul\":10761:10763   */\n      0x0a\n        /* \"#utility.yul\":10756:10759   */\n      dup4\n        /* \"#utility.yul\":10697:10764   */\n      tag_127\n      jump\t// in\n    tag_246:\n        /* \"#utility.yul\":10690:10764   */\n      swap2\n      pop\n        /* \"#utility.yul\":10773:10866   */\n      tag_247\n        /* \"#utility.yul\":10862:10865   */\n      dup3\n        /* \"#utility.yul\":10773:10866   */\n      tag_137\n      jump\t// in\n    tag_247:\n        /* \"#utility.yul\":10891:10893   */\n      0x20\n        /* \"#utility.yul\":10886:10889   */\n      dup3\n        /* \"#utility.yul\":10882:10894   */\n      add\n        /* \"#utility.yul\":10875:10894   */\n      swap1\n      pop\n        /* \"#utility.yul\":10534:10900   */\n      swap2\n      swap1\n      pop\n      jump\t// out\n        /* \"#utility.yul\":10906:11325   */\n    tag_74:\n        /* \"#utility.yul\":11072:11076   */\n      0x00\n        /* \"#utility.yul\":11110:11112   */\n      0x20\n        /* \"#utility.yul\":11099:11108   */\n      dup3\n        /* \"#utility.yul\":11095:11113   */\n      add\n        /* \"#utility.yul\":11087:11113   */\n      swap1\n      pop\n        /* \"#utility.yul\":11159:11168   */\n      dup2\n        /* \"#utility.yul\":11153:11157   */\n      dup2\n        /* \"#utility.yul\":11149:11169   */\n      sub\n        /* \"#utility.yul\":11145:11146   */\n      0x00\n        /* \"#utility.yul\":11134:11143   */\n      dup4\n        /* \"#utility.yul\":11130:11147   */\n      add\n        /* \"#utility.yul\":11123:11170   */\n      mstore\n        /* \"#utility.yul\":11187:11318   */\n      tag_249\n        /* \"#utility.yul\":11313:11317   */\n      dup2\n        /* \"#utility.yul\":11187:11318   */\n      tag_138\n      jump\t// in\n    tag_249:\n        /* \"#utility.yul\":11179:11318   */\n      swap1\n      pop\n        /* \"#utility.yul\":10906:11325   */\n      swap2\n      swap1\n      pop\n      jump\t// out\n        /* \"#utility.yul\":11331:11489   */\n    tag_139:\n        /* \"#utility.yul\":11471:11481   */\n      0x4e4f5f544f4b454e000000000000000000000000000000000000000000000000\n        /* \"#utility.yul\":11467:11468   */\n      0x00\n        /* \"#utility.yul\":11459:11465   */\n      dup3\n        /* \"#utility.yul\":11455:11469   */\n      add\n        /* \"#utility.yul\":11448:11482   */\n      mstore\n        /* \"#utility.yul\":11331:11489   */\n      pop\n      jump\t// out\n        /* \"#utility.yul\":11495:11860   */\n    tag_140:\n        /* \"#utility.yul\":11637:11640   */\n      0x00\n        /* \"#utility.yul\":11658:11724   */\n      tag_252\n        /* \"#utility.yul\":11722:11723   */\n      0x08\n        /* \"#utility.yul\":11717:11720   */\n      dup4\n        /* \"#utility.yul\":11658:11724   */\n      tag_127\n      jump\t// in\n    tag_252:\n        /* \"#utility.yul\":11651:11724   */\n      swap2\n      pop\n        /* \"#utility.yul\":11733:11826   */\n      tag_253\n        /* \"#utility.yul\":11822:11825   */\n      dup3\n        /* \"#utility.yul\":11733:11826   */\n      tag_139\n      jump\t// in\n    tag_253:\n        /* \"#utility.yul\":11851:11853   */\n      0x20\n        /* \"#utility.yul\":11846:11849   */\n      dup3\n        /* \"#utility.yul\":11842:11854   */\n      add\n        /* \"#utility.yul\":11835:11854   */\n      swap1\n      pop\n        /* \"#utility.yul\":11495:11860   */\n      swap2\n      swap1\n      pop\n      jump\t// out\n        /* \"#utility.yul\":11866:12285   */\n    tag_78:\n        /* \"#utility.yul\":12032:12036   */\n      0x00\n        /* \"#utility.yul\":12070:12072   */\n      0x20\n        /* \"#utility.yul\":12059:12068   */\n      dup3\n        /* \"#utility.yul\":12055:12073   */\n      add\n        /* \"#utility.yul\":12047:12073   */\n      swap1\n      pop\n        /* \"#utility.yul\":12119:12128   */\n      dup2\n        /* \"#utility.yul\":12113:12117   */\n      dup2\n        /* \"#utility.yul\":12109:12129   */\n      sub\n        /* \"#utility.yul\":12105:12106   */\n      0x00\n        /* \"#utility.yul\":12094:12103   */\n      dup4\n        /* \"#utility.yul\":12090:12107   */\n      add\n        /* \"#utility.yul\":12083:12130   */\n      mstore\n        /* \"#utility.yul\":12147:12278   */\n      tag_255\n        /* \"#utility.yul\":12273:12277   */\n      dup2\n        /* \"#utility.yul\":12147:12278   */\n      tag_140\n      jump\t// in\n    tag_255:\n        /* \"#utility.yul\":12139:12278   */\n      swap1\n      pop\n        /* \"#utility.yul\":11866:12285   */\n      swap2\n      swap1\n      pop\n      jump\t// out\n        /* \"#utility.yul\":12291:12409   */\n    tag_141:\n        /* \"#utility.yul\":12378:12402   */\n      tag_257\n        /* \"#utility.yul\":12396:12401   */\n      dup2\n        /* \"#utility.yul\":12378:12402   */\n      tag_114\n      jump\t// in\n    tag_257:\n        /* \"#utility.yul\":12373:12376   */\n      dup3\n        /* \"#utility.yul\":12366:12403   */\n      mstore\n        /* \"#utility.yul\":12291:12409   */\n      pop\n      pop\n      jump\t// out\n        /* \"#utility.yul\":12415:12747   */\n    tag_80:\n        /* \"#utility.yul\":12536:12540   */\n      0x00\n        /* \"#utility.yul\":12574:12576   */\n      0x40\n        /* \"#utility.yul\":12563:12572   */\n      dup3\n        /* \"#utility.yul\":12559:12577   */\n      add\n        /* \"#utility.yul\":12551:12577   */\n      swap1\n      pop\n        /* \"#utility.yul\":12587:12658   */\n      tag_259\n        /* \"#utility.yul\":12655:12656   */\n      0x00\n        /* \"#utility.yul\":12644:12653   */\n      dup4\n        /* \"#utility.yul\":12640:12657   */\n      add\n        /* \"#utility.yul\":12631:12637   */\n      dup6\n        /* \"#utility.yul\":12587:12658   */\n      tag_108\n      jump\t// in\n    tag_259:\n        /* \"#utility.yul\":12668:12740   */\n      tag_260\n        /* \"#utility.yul\":12736:12738   */\n      0x20\n        /* \"#utility.yul\":12725:12734   */\n      dup4\n        /* \"#utility.yul\":12721:12739   */\n      add\n        /* \"#utility.yul\":12712:12718   */\n      dup5\n        /* \"#utility.yul\":12668:12740   */\n      tag_141\n      jump\t// in\n    tag_260:\n        /* \"#utility.yul\":12415:12747   */\n      swap4\n      swap3\n      pop\n      pop\n      pop\n      jump\t// out\n        /* \"#utility.yul\":12753:13085   */\n    tag_104:\n        /* \"#utility.yul\":12874:12878   */\n      0x00\n        /* \"#utility.yul\":12912:12914   */\n      0x40\n        /* \"#utility.yul\":12901:12910   */\n      dup3\n        /* \"#utility.yul\":12897:12915   */\n      add\n        /* \"#utility.yul\":12889:12915   */\n      swap1\n      pop\n        /* \"#utility.yul\":12925:12996   */\n      tag_262\n        /* \"#utility.yul\":12993:12994   */\n      0x00\n        /* \"#utility.yul\":12982:12991   */\n      dup4\n        /* \"#utility.yul\":12978:12995   */\n      add\n        /* \"#utility.yul\":12969:12975   */\n      dup6\n        /* \"#utility.yul\":12925:12996   */\n      tag_141\n      jump\t// in\n    tag_262:\n        /* \"#utility.yul\":13006:13078   */\n      tag_263\n        /* \"#utility.yul\":13074:13076   */\n      0x20\n        /* \"#utility.yul\":13063:13072   */\n      dup4\n        /* \"#utility.yul\":13059:13077   */\n      add\n        /* \"#utility.yul\":13050:13056   */\n      dup5\n        /* \"#utility.yul\":13006:13078   */\n      tag_141\n      jump\t// in\n    tag_263:\n        /* \"#utility.yul\":12753:13085   */\n      swap4\n      swap3\n      pop\n      pop\n      pop\n      jump\t// out\n\n    auxdata: 0xa2646970667358221220eb903b7726ad74fd6c04c60aceb877856f9edb8c9d738177673011c657691bb464736f6c634300081b0033\n}\n\nsub_1: assembly {\n        /* \"contracts/PlayerShare.sol\":193:1036  contract ShareToken is ERC20 {... */\n      mstore(0x40, 0x80)\n        /* \"contracts/PlayerShare.sol\":510:554  constructor() ERC20(\"PLACEHOLDER\", \"PLH\") {} */\n      callvalue\n      dup1\n      iszero\n      tag_1\n      jumpi\n      revert(0x00, 0x00)\n    tag_1:\n      pop\n        /* \"@openzeppelin/contracts/token/ERC20/ERC20.sol\":1582:1695  constructor(string memory name_, string memory symbol_) {... */\n      mload(0x40)\n      dup1\n      0x40\n      add\n      0x40\n      mstore\n      dup1\n      0x0b\n      dup2\n      mstore\n      0x20\n      add\n      0x504c414345484f4c444552000000000000000000000000000000000000000000\n      dup2\n      mstore\n      pop\n      mload(0x40)\n      dup1\n      0x40\n      add\n      0x40\n      mstore\n      dup1\n      0x03\n      dup2\n      mstore\n      0x20\n      add\n      0x504c480000000000000000000000000000000000000000000000000000000000\n      dup2\n      mstore\n      pop\n        /* \"@openzeppelin/contracts/token/ERC20/ERC20.sol\":1656:1661  name_ */\n      dup2\n        /* \"@openzeppelin/contracts/token/ERC20/ERC20.sol\":1648:1653  _name */\n      0x03\n        /* \"@openzeppelin/contracts/token/ERC20/ERC20.sol\":1648:1661  _name = name_ */\n      swap1\n      dup2\n      tag_5\n      swap2\n      swap1\n      tag_6\n      jump\t// in\n    tag_5:\n      pop\n        /* \"@openzeppelin/contracts/token/ERC20/ERC20.sol\":1681:1688  symbol_ */\n      dup1\n        /* \"@openzeppelin/contracts/token/ERC20/ERC20.sol\":1671:1678  _symbol */\n      0x04\n        /* \"@openzeppelin/contracts/token/ERC20/ERC20.sol\":1671:1688  _symbol = symbol_ */\n      swap1\n      dup2\n      tag_7\n      swap2\n      swap1\n      tag_6\n      jump\t// in\n    tag_7:\n      pop\n        /* \"@openzeppelin/contracts/token/ERC20/ERC20.sol\":1582:1695  constructor(string memory name_, string memory symbol_) {... */\n      pop\n      pop\n        /* \"contracts/PlayerShare.sol\":193:1036  contract ShareToken is ERC20 {... */\n      jump(tag_9)\n        /* \"#utility.yul\":7:106   */\n    tag_10:\n        /* \"#utility.yul\":59:65   */\n      0x00\n        /* \"#utility.yul\":93:98   */\n      dup2\n        /* \"#utility.yul\":87:99   */\n      mload\n        /* \"#utility.yul\":77:99   */\n      swap1\n      pop\n        /* \"#utility.yul\":7:106   */\n      swap2\n      swap1\n      pop\n      jump\t// out\n        /* \"#utility.yul\":112:292   */\n    tag_11:\n        /* \"#utility.yul\":160:237   */\n      0x4e487b7100000000000000000000000000000000000000000000000000000000\n        /* \"#utility.yul\":157:158   */\n      0x00\n        /* \"#utility.yul\":150:238   */\n      mstore\n        /* \"#utility.yul\":257:261   */\n      0x41\n        /* \"#utility.yul\":254:255   */\n      0x04\n        /* \"#utility.yul\":247:262   */\n      mstore\n        /* \"#utility.yul\":281:285   */\n      0x24\n        /* \"#utility.yul\":278:279   */\n      0x00\n        /* \"#utility.yul\":271:286   */\n      revert\n        /* \"#utility.yul\":298:478   */\n    tag_12:\n        /* \"#utility.yul\":346:423   */\n      0x4e487b7100000000000000000000000000000000000000000000000000000000\n        /* \"#utility.yul\":343:344   */\n      0x00\n        /* \"#utility.yul\":336:424   */\n      mstore\n        /* \"#utility.yul\":443:447   */\n      0x22\n        /* \"#utility.yul\":440:441   */\n      0x04\n        /* \"#utility.yul\":433:448   */\n      mstore\n        /* \"#utility.yul\":467:471   */\n      0x24\n        /* \"#utility.yul\":464:465   */\n      0x00\n        /* \"#utility.yul\":457:472   */\n      revert\n        /* \"#utility.yul\":484:804   */\n    tag_13:\n        /* \"#utility.yul\":528:534   */\n      0x00\n        /* \"#utility.yul\":565:566   */\n      0x02\n        /* \"#utility.yul\":559:563   */\n      dup3\n        /* \"#utility.yul\":555:567   */\n      div\n        /* \"#utility.yul\":545:567   */\n      swap1\n      pop\n        /* \"#utility.yul\":612:613   */\n      0x01\n        /* \"#utility.yul\":606:610   */\n      dup3\n        /* \"#utility.yul\":602:614   */\n      and\n        /* \"#utility.yul\":633:651   */\n      dup1\n        /* \"#utility.yul\":623:704   */\n      tag_35\n      jumpi\n        /* \"#utility.yul\":689:693   */\n      0x7f\n        /* \"#utility.yul\":681:687   */\n      dup3\n        /* \"#utility.yul\":677:694   */\n      and\n        /* \"#utility.yul\":667:694   */\n      swap2\n      pop\n        /* \"#utility.yul\":623:704   */\n    tag_35:\n        /* \"#utility.yul\":751:753   */\n      0x20\n        /* \"#utility.yul\":743:749   */\n      dup3\n        /* \"#utility.yul\":740:754   */\n      lt\n        /* \"#utility.yul\":720:738   */\n      dup2\n        /* \"#utility.yul\":717:755   */\n      sub\n        /* \"#utility.yul\":714:798   */\n      tag_36\n      jumpi\n        /* \"#utility.yul\":770:788   */\n      tag_37\n      tag_12\n      jump\t// in\n    tag_37:\n        /* \"#utility.yul\":714:798   */\n    tag_36:\n        /* \"#utility.yul\":535:804   */\n      pop\n        /* \"#utility.yul\":484:804   */\n      swap2\n      swap1\n      pop\n      jump\t// out\n        /* \"#utility.yul\":810:951   */\n    tag_14:\n        /* \"#utility.yul\":859:863   */\n      0x00\n        /* \"#utility.yul\":882:885   */\n      dup2\n        /* \"#utility.yul\":874:885   */\n      swap1\n      pop\n        /* \"#utility.yul\":905:908   */\n      dup2\n        /* \"#utility.yul\":902:903   */\n      0x00\n        /* \"#utility.yul\":895:909   */\n      mstore\n        /* \"#utility.yul\":939:943   */\n      0x20\n        /* \"#utility.yul\":936:937   */\n      0x00\n        /* \"#utility.yul\":926:944   */\n      keccak256\n        /* \"#utility.yul\":918:944   */\n      swap1\n      pop\n        /* \"#utility.yul\":810:951   */\n      swap2\n      swap1\n      pop\n      jump\t// out\n        /* \"#utility.yul\":957:1050   */\n    tag_15:\n        /* \"#utility.yul\":994:1000   */\n      0x00\n        /* \"#utility.yul\":1041:1043   */\n      0x20\n        /* \"#utility.yul\":1036:1038   */\n      0x1f\n        /* \"#utility.yul\":1029:1034   */\n      dup4\n        /* \"#utility.yul\":1025:1039   */\n      add\n        /* \"#utility.yul\":1021:1044   */\n      div\n        /* \"#utility.yul\":1011:1044   */\n      swap1\n      pop\n        /* \"#utility.yul\":957:1050   */\n      swap2\n      swap1\n      pop\n      jump\t// out\n        /* \"#utility.yul\":1056:1163   */\n    tag_16:\n        /* \"#utility.yul\":1100:1108   */\n      0x00\n        /* \"#utility.yul\":1150:1155   */\n      dup3\n        /* \"#utility.yul\":1144:1148   */\n      dup3\n        /* \"#utility.yul\":1140:1156   */\n      shl\n        /* \"#utility.yul\":1119:1156   */\n      swap1\n      pop\n        /* \"#utility.yul\":1056:1163   */\n      swap3\n      swap2\n      pop\n      pop\n      jump\t// out\n        /* \"#utility.yul\":1169:1562   */\n    tag_17:\n        /* \"#utility.yul\":1238:1244   */\n      0x00\n        /* \"#utility.yul\":1288:1289   */\n      0x08\n        /* \"#utility.yul\":1276:1286   */\n      dup4\n        /* \"#utility.yul\":1272:1290   */\n      mul\n        /* \"#utility.yul\":1311:1408   */\n      tag_42\n        /* \"#utility.yul\":1341:1407   */\n      0xffffffffffffffffffffffffffffffffffffffffffffffffffffffffffffffff\n        /* \"#utility.yul\":1330:1339   */\n      dup3\n        /* \"#utility.yul\":1311:1408   */\n      tag_16\n      jump\t// in\n    tag_42:\n        /* \"#utility.yul\":1429:1468   */\n      tag_43\n        /* \"#utility.yul\":1459:1467   */\n      dup7\n        /* \"#utility.yul\":1448:1457   */\n      dup4\n        /* \"#utility.yul\":1429:1468   */\n      tag_16\n      jump\t// in\n    tag_43:\n        /* \"#utility.yul\":1417:1468   */\n      swap6\n      pop\n        /* \"#utility.yul\":1501:1505   */\n      dup1\n        /* \"#utility.yul\":1497:1506   */\n      not\n        /* \"#utility.yul\":1490:1495   */\n      dup5\n        /* \"#utility.yul\":1486:1507   */\n      and\n        /* \"#utility.yul\":1477:1507   */\n      swap4\n      pop\n        /* \"#utility.yul\":1550:1554   */\n      dup1\n        /* \"#utility.yul\":1540:1548   */\n      dup7\n        /* \"#utility.yul\":1536:1555   */\n      and\n        /* \"#utility.yul\":1529:1534   */\n      dup5\n        /* \"#utility.yul\":1526:1556   */\n      or\n        /* \"#utility.yul\":1516:1556   */\n      swap3\n      pop\n        /* \"#utility.yul\":1245:1562   */\n      pop\n      pop\n        /* \"#utility.yul\":1169:1562   */\n      swap4\n      swap3\n      pop\n      pop\n      pop\n      jump\t// out\n        /* \"#utility.yul\":1568:1645   */\n    tag_18:\n        /* \"#utility.yul\":1605:1612   */\n      0x00\n        /* \"#utility.yul\":1634:1639   */\n      dup2\n        /* \"#utility.yul\":1623:1639   */\n      swap1\n      pop\n        /* \"#utility.yul\":1568:1645   */\n      swap2\n      swap1\n      pop\n      jump\t// out\n        /* \"#utility.yul\":1651:1711   */\n    tag_19:\n        /* \"#utility.yul\":1679:1682   */\n      0x00\n        /* \"#utility.yul\":1700:1705   */\n      dup2\n        /* \"#utility.yul\":1693:1705   */\n      swap1\n      pop\n        /* \"#utility.yul\":1651:1711   */\n      swap2\n      swap1\n      pop\n      jump\t// out\n        /* \"#utility.yul\":1717:1859   */\n    tag_20:\n        /* \"#utility.yul\":1767:1776   */\n      0x00\n        /* \"#utility.yul\":1800:1853   */\n      tag_47\n        /* \"#utility.yul\":1818:1852   */\n      tag_48\n        /* \"#utility.yul\":1827:1851   */\n      tag_49\n        /* \"#utility.yul\":1845:1850   */\n      dup5\n        /* \"#utility.yul\":1827:1851   */\n      tag_18\n      jump\t// in\n    tag_49:\n        /* \"#utility.yul\":1818:1852   */\n      tag_19\n      jump\t// in\n    tag_48:\n        /* \"#utility.yul\":1800:1853   */\n      tag_18\n      jump\t// in\n    tag_47:\n        /* \"#utility.yul\":1787:1853   */\n      swap1\n      pop\n        /* \"#utility.yul\":1717:1859   */\n      swap2\n      swap1\n      pop\n      jump\t// out\n        /* \"#utility.yul\":1865:1940   */\n    tag_21:\n        /* \"#utility.yul\":1908:1911   */\n      0x00\n        /* \"#utility.yul\":1929:1934   */\n      dup2\n        /* \"#utility.yul\":1922:1934   */\n      swap1\n      pop\n        /* \"#utility.yul\":1865:1940   */\n      swap2\n      swap1\n      pop\n      jump\t// out\n        /* \"#utility.yul\":1946:2215   */\n    tag_22:\n        /* \"#utility.yul\":2056:2095   */\n      tag_52\n        /* \"#utility.yul\":2087:2094   */\n      dup4\n        /* \"#utility.yul\":2056:2095   */\n      tag_20\n      jump\t// in\n    tag_52:\n        /* \"#utility.yul\":2117:2208   */\n      tag_53\n        /* \"#utility.yul\":2166:2207   */\n      tag_54\n        /* \"#utility.yul\":2190:2206   */\n      dup3\n        /* \"#utility.yul\":2166:2207   */\n      tag_21\n      jump\t// in\n    tag_54:\n        /* \"#utility.yul\":2158:2164   */\n      dup5\n        /* \"#utility.yul\":2151:2155   */\n      dup5\n        /* \"#utility.yul\":2145:2156   */\n      sload\n        /* \"#utility.yul\":2117:2208   */\n      tag_17\n      jump\t// in\n    tag_53:\n        /* \"#utility.yul\":2111:2115   */\n      dup3\n        /* \"#utility.yul\":2104:2209   */\n      sstore\n        /* \"#utility.yul\":2022:2215   */\n      pop\n        /* \"#utility.yul\":1946:2215   */\n      pop\n      pop\n      pop\n      jump\t// out\n        /* \"#utility.yul\":2221:2294   */\n    tag_23:\n        /* \"#utility.yul\":2266:2269   */\n      0x00\n        /* \"#utility.yul\":2287:2288   */\n      0x00\n        /* \"#utility.yul\":2280:2288   */\n      swap1\n      pop\n        /* \"#utility.yul\":2221:2294   */\n      swap1\n      jump\t// out\n        /* \"#utility.yul\":2300:2489   */\n    tag_24:\n        /* \"#utility.yul\":2377:2409   */\n      tag_57\n      tag_23\n      jump\t// in\n    tag_57:\n        /* \"#utility.yul\":2418:2483   */\n      tag_58\n        /* \"#utility.yul\":2476:2482   */\n      dup2\n        /* \"#utility.yul\":2468:2474   */\n      dup5\n        /* \"#utility.yul\":2462:2466   */\n      dup5\n        /* \"#utility.yul\":2418:2483   */\n      tag_22\n      jump\t// in\n    tag_58:\n        /* \"#utility.yul\":2353:2489   */\n      pop\n        /* \"#utility.yul\":2300:2489   */\n      pop\n      pop\n      jump\t// out\n        /* \"#utility.yul\":2495:2681   */\n    tag_25:\n        /* \"#utility.yul\":2555:2675   */\n    tag_60:\n        /* \"#utility.yul\":2572:2575   */\n      dup2\n        /* \"#utility.yul\":2565:2570   */\n      dup2\n        /* \"#utility.yul\":2562:2576   */\n      lt\n        /* \"#utility.yul\":2555:2675   */\n      iszero\n      tag_62\n      jumpi\n        /* \"#utility.yul\":2626:2665   */\n      tag_63\n        /* \"#utility.yul\":2663:2664   */\n      0x00\n        /* \"#utility.yul\":2656:2661   */\n      dup3\n        /* \"#utility.yul\":2626:2665   */\n      tag_24\n      jump\t// in\n    tag_63:\n        /* \"#utility.yul\":2599:2600   */\n      0x01\n        /* \"#utility.yul\":2592:2597   */\n      dup2\n        /* \"#utility.yul\":2588:2601   */\n      add\n        /* \"#utility.yul\":2579:2601   */\n      swap1\n      pop\n        /* \"#utility.yul\":2555:2675   */\n      jump(tag_60)\n    tag_62:\n        /* \"#utility.yul\":2495:2681   */\n      pop\n      pop\n      jump\t// out\n        /* \"#utility.yul\":2687:3230   */\n    tag_26:\n        /* \"#utility.yul\":2788:2790   */\n      0x1f\n        /* \"#utility.yul\":2783:2786   */\n      dup3\n        /* \"#utility.yul\":2780:2791   */\n      gt\n        /* \"#utility.yul\":2777:3223   */\n      iszero\n      tag_65\n      jumpi\n        /* \"#utility.yul\":2822:2860   */\n      tag_66\n        /* \"#utility.yul\":2854:2859   */\n      dup2\n        /* \"#utility.yul\":2822:2860   */\n      tag_14\n      jump\t// in\n    tag_66:\n        /* \"#utility.yul\":2906:2935   */\n      tag_67\n        /* \"#utility.yul\":2924:2934   */\n      dup5\n        /* \"#utility.yul\":2906:2935   */\n      tag_15\n      jump\t// in\n    tag_67:\n        /* \"#utility.yul\":2896:2904   */\n      dup2\n        /* \"#utility.yul\":2892:2936   */\n      add\n        /* \"#utility.yul\":3089:3091   */\n      0x20\n        /* \"#utility.yul\":3077:3087   */\n      dup6\n        /* \"#utility.yul\":3074:3092   */\n      lt\n        /* \"#utility.yul\":3071:3120   */\n      iszero\n      tag_68\n      jumpi\n        /* \"#utility.yul\":3110:3118   */\n      dup2\n        /* \"#utility.yul\":3095:3118   */\n      swap1\n      pop\n        /* \"#utility.yul\":3071:3120   */\n    tag_68:\n        /* \"#utility.yul\":3133:3213   */\n      tag_69\n        /* \"#utility.yul\":3189:3211   */\n      tag_70\n        /* \"#utility.yul\":3207:3210   */\n      dup6\n        /* \"#utility.yul\":3189:3211   */\n      tag_15\n      jump\t// in\n    tag_70:\n        /* \"#utility.yul\":3179:3187   */\n      dup4\n        /* \"#utility.yul\":3175:3212   */\n      add\n        /* \"#utility.yul\":3162:3173   */\n      dup3\n        /* \"#utility.yul\":3133:3213   */\n      tag_25\n      jump\t// in\n    tag_69:\n        /* \"#utility.yul\":2792:3223   */\n      pop\n      pop\n        /* \"#utility.yul\":2777:3223   */\n    tag_65:\n        /* \"#utility.yul\":2687:3230   */\n      pop\n      pop\n      pop\n      jump\t// out\n        /* \"#utility.yul\":3236:3353   */\n    tag_27:\n        /* \"#utility.yul\":3290:3298   */\n      0x00\n        /* \"#utility.yul\":3340:3345   */\n      dup3\n        /* \"#utility.yul\":3334:3338   */\n      dup3\n        /* \"#utility.yul\":3330:3346   */\n      shr\n        /* \"#utility.yul\":3309:3346   */\n      swap1\n      pop\n        /* \"#utility.yul\":3236:3353   */\n      swap3\n      swap2\n      pop\n      pop\n      jump\t// out\n        /* \"#utility.yul\":3359:3528   */\n    tag_28:\n        /* \"#utility.yul\":3403:3409   */\n      0x00\n        /* \"#utility.yul\":3436:3487   */\n      tag_73\n        /* \"#utility.yul\":3484:3485   */\n      0x00\n        /* \"#utility.yul\":3480:3486   */\n      not\n        /* \"#utility.yul\":3472:3477   */\n      dup5\n        /* \"#utility.yul\":3469:3470   */\n      0x08\n        /* \"#utility.yul\":3465:3478   */\n      mul\n        /* \"#utility.yul\":3436:3487   */\n      tag_27\n      jump\t// in\n    tag_73:\n        /* \"#utility.yul\":3432:3488   */\n      not\n        /* \"#utility.yul\":3517:3521   */\n      dup1\n        /* \"#utility.yul\":3511:3515   */\n      dup4\n        /* \"#utility.yul\":3507:3522   */\n      and\n        /* \"#utility.yul\":3497:3522   */\n      swap2\n      pop\n        /* \"#utility.yul\":3410:3528   */\n      pop\n        /* \"#utility.yul\":3359:3528   */\n      swap3\n      swap2\n      pop\n      pop\n      jump\t// out\n        /* \"#utility.yul\":3533:3828   */\n    tag_29:\n        /* \"#utility.yul\":3609:3613   */\n      0x00\n        /* \"#utility.yul\":3755:3784   */\n      tag_75\n        /* \"#utility.yul\":3780:3783   */\n      dup4\n        /* \"#utility.yul\":3774:3778   */\n      dup4\n        /* \"#utility.yul\":3755:3784   */\n      tag_28\n      jump\t// in\n    tag_75:\n        /* \"#utility.yul\":3747:3784   */\n      swap2\n      pop\n        /* \"#utility.yul\":3817:3820   */\n      dup3\n        /* \"#utility.yul\":3814:3815   */\n      0x02\n        /* \"#utility.yul\":3810:3821   */\n      mul\n        /* \"#utility.yul\":3804:3808   */\n      dup3\n        /* \"#utility.yul\":3801:3822   */\n      or\n        /* \"#utility.yul\":3793:3822   */\n      swap1\n      pop\n        /* \"#utility.yul\":3533:3828   */\n      swap3\n      swap2\n      pop\n      pop\n      jump\t// out\n        /* \"#utility.yul\":3833:5228   */\n    tag_6:\n        /* \"#utility.yul\":3950:3987   */\n      tag_77\n        /* \"#utility.yul\":3983:3986   */\n      dup3\n        /* \"#utility.yul\":3950:3987   */\n      tag_10\n      jump\t// in\n    tag_77:\n        /* \"#utility.yul\":4052:4070   */\n      0xffffffffffffffff\n        /* \"#utility.yul\":4044:4050   */\n      dup2\n        /* \"#utility.yul\":4041:4071   */\n      gt\n        /* \"#utility.yul\":4038:4094   */\n      iszero\n      tag_78\n      jumpi\n        /* \"#utility.yul\":4074:4092   */\n      tag_79\n      tag_11\n      jump\t// in\n    tag_79:\n        /* \"#utility.yul\":4038:4094   */\n    tag_78:\n        /* \"#utility.yul\":4118:4156   */\n      tag_80\n        /* \"#utility.yul\":4150:4154   */\n      dup3\n        /* \"#utility.yul\":4144:4155   */\n      sload\n        /* \"#utility.yul\":4118:4156   */\n      tag_13\n      jump\t// in\n    tag_80:\n        /* \"#utility.yul\":4203:4270   */\n      tag_81\n        /* \"#utility.yul\":4263:4269   */\n      dup3\n        /* \"#utility.yul\":4255:4261   */\n      dup3\n        /* \"#utility.yul\":4249:4253   */\n      dup6\n        /* \"#utility.yul\":4203:4270   */\n      tag_26\n      jump\t// in\n    tag_81:\n        /* \"#utility.yul\":4297:4298   */\n      0x00\n        /* \"#utility.yul\":4321:4325   */\n      0x20\n        /* \"#utility.yul\":4308:4325   */\n      swap1\n      pop\n        /* \"#utility.yul\":4353:4355   */\n      0x1f\n        /* \"#utility.yul\":4345:4351   */\n      dup4\n        /* \"#utility.yul\":4342:4356   */\n      gt\n        /* \"#utility.yul\":4370:4371   */\n      0x01\n        /* \"#utility.yul\":4365:4983   */\n      dup2\n      eq\n      tag_83\n      jumpi\n        /* \"#utility.yul\":5027:5028   */\n      0x00\n        /* \"#utility.yul\":5044:5050   */\n      dup5\n        /* \"#utility.yul\":5041:5118   */\n      iszero\n      tag_84\n      jumpi\n        /* \"#utility.yul\":5093:5102   */\n      dup3\n        /* \"#utility.yul\":5088:5091   */\n      dup8\n        /* \"#utility.yul\":5084:5103   */\n      add\n        /* \"#utility.yul\":5078:5104   */\n      mload\n        /* \"#utility.yul\":5069:5104   */\n      swap1\n      pop\n        /* \"#utility.yul\":5041:5118   */\n    tag_84:\n        /* \"#utility.yul\":5144:5211   */\n      tag_85\n        /* \"#utility.yul\":5204:5210   */\n      dup6\n        /* \"#utility.yul\":5197:5202   */\n      dup3\n        /* \"#utility.yul\":5144:5211   */\n      tag_29\n      jump\t// in\n    tag_85:\n        /* \"#utility.yul\":5138:5142   */\n      dup7\n        /* \"#utility.yul\":5131:5212   */\n      sstore\n        /* \"#utility.yul\":5000:5222   */\n      pop\n        /* \"#utility.yul\":4335:5222   */\n      jump(tag_82)\n        /* \"#utility.yul\":4365:4983   */\n    tag_83:\n        /* \"#utility.yul\":4417:4421   */\n      0x1f\n        /* \"#utility.yul\":4413:4422   */\n      not\n        /* \"#utility.yul\":4405:4411   */\n      dup5\n        /* \"#utility.yul\":4401:4423   */\n      and\n        /* \"#utility.yul\":4451:4488   */\n      tag_86\n        /* \"#utility.yul\":4483:4487   */\n      dup7\n        /* \"#utility.yul\":4451:4488   */\n      tag_14\n      jump\t// in\n    tag_86:\n        /* \"#utility.yul\":4510:4511   */\n      0x00\n        /* \"#utility.yul\":4524:4732   */\n    tag_87:\n        /* \"#utility.yul\":4538:4545   */\n      dup3\n        /* \"#utility.yul\":4535:4536   */\n      dup2\n        /* \"#utility.yul\":4532:4546   */\n      lt\n        /* \"#utility.yul\":4524:4732   */\n      iszero\n      tag_89\n      jumpi\n        /* \"#utility.yul\":4617:4626   */\n      dup5\n        /* \"#utility.yul\":4612:4615   */\n      dup10\n        /* \"#utility.yul\":4608:4627   */\n      add\n        /* \"#utility.yul\":4602:4628   */\n      mload\n        /* \"#utility.yul\":4594:4600   */\n      dup3\n        /* \"#utility.yul\":4587:4629   */\n      sstore\n        /* \"#utility.yul\":4668:4669   */\n      0x01\n        /* \"#utility.yul\":4660:4666   */\n      dup3\n        /* \"#utility.yul\":4656:4670   */\n      add\n        /* \"#utility.yul\":4646:4670   */\n      swap2\n      pop\n        /* \"#utility.yul\":4715:4717   */\n      0x20\n        /* \"#utility.yul\":4704:4713   */\n      dup6\n        /* \"#utility.yul\":4700:4718   */\n      add\n        /* \"#utility.yul\":4687:4718   */\n      swap5\n      pop\n        /* \"#utility.yul\":4561:4565   */\n      0x20\n        /* \"#utility.yul\":4558:4559   */\n      dup2\n        /* \"#utility.yul\":4554:4566   */\n      add\n        /* \"#utility.yul\":4549:4566   */\n      swap1\n      pop\n        /* \"#utility.yul\":4524:4732   */\n      jump(tag_87)\n    tag_89:\n        /* \"#utility.yul\":4760:4766   */\n      dup7\n        /* \"#utility.yul\":4751:4758   */\n      dup4\n        /* \"#utility.yul\":4748:4767   */\n      lt\n        /* \"#utility.yul\":4745:4924   */\n      iszero\n      tag_90\n      jumpi\n        /* \"#utility.yul\":4818:4827   */\n      dup5\n        /* \"#utility.yul\":4813:4816   */\n      dup10\n        /* \"#utility.yul\":4809:4828   */\n      add\n        /* \"#utility.yul\":4803:4829   */\n      mload\n        /* \"#utility.yul\":4861:4909   */\n      tag_91\n        /* \"#utility.yul\":4903:4907   */\n      0x1f\n        /* \"#utility.yul\":4895:4901   */\n      dup10\n        /* \"#utility.yul\":4891:4908   */\n      and\n        /* \"#utility.yul\":4880:4889   */\n      dup3\n        /* \"#utility.yul\":4861:4909   */\n      tag_28\n      jump\t// in\n    tag_91:\n        /* \"#utility.yul\":4853:4859   */\n      dup4\n        /* \"#utility.yul\":4846:4910   */\n      sstore\n        /* \"#utility.yul\":4768:4924   */\n      pop\n        /* \"#utility.yul\":4745:4924   */\n    tag_90:\n        /* \"#utility.yul\":4970:4971   */\n      0x01\n        /* \"#utility.yul\":4966:4967   */\n      0x02\n        /* \"#utility.yul\":4958:4964   */\n      dup9\n        /* \"#utility.yul\":4954:4968   */\n      mul\n        /* \"#utility.yul\":4950:4972   */\n      add\n        /* \"#utility.yul\":4944:4948   */\n      dup9\n        /* \"#utility.yul\":4937:4973   */\n      sstore\n        /* \"#utility.yul\":4372:4983   */\n      pop\n      pop\n      pop\n        /* \"#utility.yul\":4335:5222   */\n    tag_82:\n      pop\n        /* \"#utility.yul\":3925:5228   */\n      pop\n      pop\n      pop\n        /* \"#utility.yul\":3833:5228   */\n      pop\n      pop\n      jump\t// out\n        /* \"contracts/PlayerShare.sol\":193:1036  contract ShareToken is ERC20 {... */\n    tag_9:\n      dataSize(sub_0)\n      dup1\n      dataOffset(sub_0)\n      0x00\n      codecopy\n      0x00\n      return\n    stop\n\n    sub_0: assembly {\n            /* \"contracts/PlayerShare.sol\":193:1036  contract ShareToken is ERC20 {... */\n          mstore(0x40, 0x80)\n          callvalue\n          dup1\n          iszero\n          tag_1\n          jumpi\n          revert(0x00, 0x00)\n        tag_1:\n          pop\n          jumpi(tag_2, lt(calldatasize, 0x04))\n          shr(0xe0, calldataload(0x00))\n          dup1\n          0x40c10f19\n          gt\n          tag_17\n          jumpi\n          dup1\n          0x95d89b41\n          gt\n          tag_18\n          jumpi\n          dup1\n          0x95d89b41\n          eq\n          tag_13\n          jumpi\n          dup1\n          0x9dc29fac\n          eq\n          tag_14\n          jumpi\n          dup1\n          0xa9059cbb\n          eq\n          tag_15\n          jumpi\n          dup1\n          0xdd62ed3e\n          eq\n          tag_16\n          jumpi\n          jump(tag_2)\n        tag_18:\n          dup1\n          0x40c10f19\n          eq\n          tag_10\n          jumpi\n          dup1\n          0x481c6a75\n          eq\n          tag_11\n          jumpi\n          dup1\n          0x70a08231\n          eq\n          tag_12\n          jumpi\n          jump(tag_2)\n        tag_17:\n          dup1\n          0x158ef93e\n          gt\n          tag_19\n          jumpi\n          dup1\n          0x158ef93e\n          eq\n          tag_6\n          jumpi\n          dup1\n          0x18160ddd\n          eq\n          tag_7\n          jumpi\n          dup1\n          0x23b872dd\n          eq\n          tag_8\n          jumpi\n          dup1\n          0x313ce567\n          eq\n          tag_9\n          jumpi\n          jump(tag_2)\n        tag_19:\n          dup1\n          0x06fdde03\n          eq\n          tag_3\n          jumpi\n          dup1\n          0x077f224a\n          eq\n          tag_4\n          jumpi\n          dup1\n          0x095ea7b3\n          eq\n          tag_5\n          jumpi\n        tag_2:\n          revert(0x00, 0x00)\n            /* \"@openzeppelin/contracts/token/ERC20/ERC20.sol\":1760:1849  function name() public view virtual returns (string memory) {... */\n        tag_3:\n          tag_20\n          tag_21\n          jump\t// in\n        tag_20:\n          mload(0x40)\n          tag_22\n          swap2\n          swap1\n          tag_23\n          jump\t// in\n        tag_22:\n          mload(0x40)\n          dup1\n          swap2\n          sub\n          swap1\n          return\n            /* \"contracts/PlayerShare.sol\":560:824  function initialize(... */\n        tag_4:\n          tag_24\n          0x04\n          dup1\n          calldatasize\n          sub\n          dup2\n          add\n          swap1\n          tag_25\n          swap2\n          swap1\n          tag_26\n          jump\t// in\n        tag_25:\n          tag_27\n          jump\t// in\n        tag_24:\n          stop\n            /* \"@openzeppelin/contracts/token/ERC20/ERC20.sol\":3902:4088  function approve(address spender, uint256 value) public virtual returns (bool) {... */\n        tag_5:\n          tag_28\n          0x04\n          dup1\n          calldatasize\n          sub\n          dup2\n          add\n          swap1\n          tag_29\n          swap2\n          swap1\n          tag_30\n          jump\t// in\n        tag_29:\n          tag_31\n          jump\t// in\n        tag_28:\n          mload(0x40)\n          tag_32\n          swap2\n          swap1\n          tag_33\n          jump\t// in\n        tag_32:\n          mload(0x40)\n          dup1\n          swap2\n          sub\n          swap1\n          return\n            /* \"contracts/PlayerShare.sol\":256:279  bool public initialized */\n        tag_6:\n          tag_34\n          tag_35\n          jump\t// in\n        tag_34:\n          mload(0x40)\n          tag_36\n          swap2\n          swap1\n          tag_33\n          jump\t// in\n        tag_36:\n          mload(0x40)\n          dup1\n          swap2\n          sub\n          swap1\n          return\n            /* \"@openzeppelin/contracts/token/ERC20/ERC20.sol\":2803:2900  function totalSupply() public view virtual returns (uint256) {... */\n        tag_7:\n          tag_37\n          tag_38\n          jump\t// in\n        tag_37:\n          mload(0x40)\n          tag_39\n          swap2\n          swap1\n          tag_40\n          jump\t// in\n        tag_39:\n          mload(0x40)\n          dup1\n          swap2\n          sub\n          swap1\n          return\n            /* \"@openzeppelin/contracts/token/ERC20/ERC20.sol\":4680:4924  function transferFrom(address from, address to, uint256 value) public virtual returns (bool) {... */\n        tag_8:\n          tag_41\n          0x04\n          dup1\n          calldatasize\n          sub\n          dup2\n          add\n          swap1\n          tag_42\n          swap2\n          swap1\n          tag_43\n          jump\t// in\n        tag_42:\n          tag_44\n          jump\t// in\n        tag_41:\n          mload(0x40)\n          tag_45\n          swap2\n          swap1\n          tag_33\n          jump\t// in\n        tag_45:\n          mload(0x40)\n          dup1\n          swap2\n          sub\n          swap1\n          return\n            /* \"@openzeppelin/contracts/token/ERC20/ERC20.sol\":2688:2770  function decimals() public view virtual returns (uint8) {... */\n        tag_9:\n          tag_46\n          tag_47\n          jump\t// in\n        tag_46:\n          mload(0x40)\n          tag_48\n          swap2\n          swap1\n          tag_49\n          jump\t// in\n        tag_48:\n          mload(0x40)\n          dup1\n          swap2\n          sub\n          swap1\n          return\n            /* \"contracts/PlayerShare.sol\":830:927  function mint(address to, uint256 amount) external onlyManager {... */\n        tag_10:\n          tag_50\n          0x04\n          dup1\n          calldatasize\n          sub\n          dup2\n          add\n          swap1\n          tag_51\n          swap2\n          swap1\n          tag_30\n          jump\t// in\n        tag_51:\n          tag_52\n          jump\t// in\n        tag_50:\n          stop\n            /* \"contracts/PlayerShare.sol\":228:250  address public manager */\n        tag_11:\n          tag_53\n          tag_54\n          jump\t// in\n        tag_53:\n          mload(0x40)\n          tag_55\n          swap2\n          swap1\n          tag_56\n          jump\t// in\n        tag_55:\n          mload(0x40)\n          dup1\n          swap2\n          sub\n          swap1\n          return\n            /* \"@openzeppelin/contracts/token/ERC20/ERC20.sol\":2933:3049  function balanceOf(address account) public view virtual returns (uint256) {... */\n        tag_12:\n          tag_57\n          0x04\n          dup1\n          calldatasize\n          sub\n          dup2\n          add\n          swap1\n          tag_58\n          swap2\n          swap1\n          tag_59\n          jump\t// in\n        tag_58:\n          tag_60\n          jump\t// in\n        tag_57:\n          mload(0x40)\n          tag_61\n          swap2\n          swap1\n          tag_40\n          jump\t// in\n        tag_61:\n          mload(0x40)\n          dup1\n          swap2\n          sub\n          swap1\n          return\n            /* \"@openzeppelin/contracts/token/ERC20/ERC20.sol\":1962:2055  function symbol() public view virtual returns (string memory) {... */\n        tag_13:\n          tag_62\n          tag_63\n          jump\t// in\n        tag_62:\n          mload(0x40)\n          tag_64\n          swap2\n          swap1\n          tag_23\n          jump\t// in\n        tag_64:\n          mload(0x40)\n          dup1\n          swap2\n          sub\n          swap1\n          return\n            /* \"contracts/PlayerShare.sol\":933:1034  function burn(address from, uint256 amount) external onlyManager {... */\n        tag_14:\n          tag_65\n          0x04\n          dup1\n          calldatasize\n          sub\n          dup2\n          add\n          swap1\n          tag_66\n          swap2\n          swap1\n          tag_30\n          jump\t// in\n        tag_66:\n          tag_67\n          jump\t// in\n        tag_65:\n          stop\n            /* \"@openzeppelin/contracts/token/ERC20/ERC20.sol\":3244:3422  function transfer(address to, uint256 value) public virtual returns (bool) {... */\n        tag_15:\n          tag_68\n          0x04\n          dup1\n          calldatasize\n          sub\n          dup2\n          add\n          swap1\n          tag_69\n          swap2\n          swap1\n          tag_30\n          jump\t// in\n        tag_69:\n          tag_70\n          jump\t// in\n        tag_68:\n          mload(0x40)\n          tag_71\n          swap2\n          swap1\n          tag_33\n          jump\t// in\n        tag_71:\n          mload(0x40)\n          dup1\n          swap2\n          sub\n          swap1\n          return\n            /* \"@openzeppelin/contracts/token/ERC20/ERC20.sol\":3455:3595  function allowance(address owner, address spender) public view virtual returns (uint256) {... */\n        tag_16:\n          tag_72\n          0x04\n          dup1\n          calldatasize\n          sub\n          dup2\n          add\n          swap1\n          tag_73\n          swap2\n          swap1\n          tag_74\n          jump\t// in\n        tag_73:\n          tag_75\n          jump\t// in\n        tag_72:\n          mload(0x40)\n          tag_76\n          swap2\n          swap1\n          tag_40\n          jump\t// in\n        tag_76:\n          mload(0x40)\n          dup1\n          swap2\n          sub\n          swap1\n          return\n            /* \"@openzeppelin/contracts/token/ERC20/ERC20.sol\":1760:1849  function name() public view virtual returns (string memory) {... */\n        tag_21:\n            /* \"@openzeppelin/contracts/token/ERC20/ERC20.sol\":1805:1818  string memory */\n          0x60\n            /* \"@openzeppelin/contracts/token/ERC20/ERC20.sol\":1837:1842  _name */\n          0x03\n            /* \"@openzeppelin/contracts/token/ERC20/ERC20.sol\":1830:1842  return _name */\n          dup1\n          sload\n          tag_78\n          swap1\n          tag_79\n          jump\t// in\n        tag_78:\n          dup1\n          0x1f\n          add\n          0x20\n          dup1\n          swap2\n          div\n          mul\n          0x20\n          add\n          mload(0x40)\n          swap1\n          dup2\n          add\n          0x40\n          mstore\n          dup1\n          swap3\n          swap2\n          swap1\n          dup2\n          dup2\n          mstore\n          0x20\n          add\n          dup3\n          dup1\n          sload\n          tag_80\n          swap1\n          tag_79\n          jump\t// in\n        tag_80:\n          dup1\n          iszero\n          tag_81\n          jumpi\n          dup1\n          0x1f\n          lt\n          tag_82\n          jumpi\n          0x0100\n          dup1\n          dup4\n          sload\n          div\n          mul\n          dup4\n          mstore\n          swap2\n          0x20\n          add\n          swap2\n          jump(tag_81)\n        tag_82:\n          dup3\n          add\n          swap2\n          swap1\n          0x00\n          mstore\n          keccak256(0x00, 0x20)\n          swap1\n        tag_83:\n          dup2\n          sload\n          dup2\n          mstore\n          swap1\n          0x01\n          add\n          swap1\n          0x20\n          add\n          dup1\n          dup4\n          gt\n          tag_83\n          jumpi\n          dup3\n          swap1\n          sub\n          0x1f\n          and\n          dup3\n          add\n          swap2\n        tag_81:\n          pop\n          pop\n          pop\n          pop\n          pop\n          swap1\n          pop\n            /* \"@openzeppelin/contracts/token/ERC20/ERC20.sol\":1760:1849  function name() public view virtual returns (string memory) {... */\n          swap1\n          jump\t// out\n            /* \"contracts/PlayerShare.sol\":560:824  function initialize(... */\n        tag_27:\n            /* \"contracts/PlayerShare.sol\":430:441  initialized */\n          0x05\n          0x14\n          swap1\n          sload\n          swap1\n          0x0100\n          exp\n          swap1\n          div\n          0xff\n          and\n            /* \"contracts/PlayerShare.sol\":429:441  !initialized */\n          iszero\n            /* \"contracts/PlayerShare.sol\":421:458  require(!initialized, \"ALREADY_INIT\") */\n          tag_85\n          jumpi\n          mload(0x40)\n          0x08c379a000000000000000000000000000000000000000000000000000000000\n          dup2\n          mstore\n          0x04\n          add\n          tag_86\n          swap1\n          tag_87\n          jump\t// in\n        tag_86:\n          mload(0x40)\n          dup1\n          swap2\n          sub\n          swap1\n          revert\n        tag_85:\n            /* \"contracts/PlayerShare.sol\":713:721  manager_ */\n          dup1\n            /* \"contracts/PlayerShare.sol\":703:710  manager */\n          0x05\n          0x00\n            /* \"contracts/PlayerShare.sol\":703:721  manager = manager_ */\n          0x0100\n          exp\n          dup2\n          sload\n          dup2\n          0xffffffffffffffffffffffffffffffffffffffff\n          mul\n          not\n          and\n          swap1\n          dup4\n          0xffffffffffffffffffffffffffffffffffffffff\n          and\n          mul\n          or\n          swap1\n          sstore\n          pop\n            /* \"contracts/PlayerShare.sol\":768:773  name_ */\n          dup3\n            /* \"contracts/PlayerShare.sol\":762:766  0x03 */\n          0x03\n            /* \"contracts/PlayerShare.sol\":755:774  sstore(0x03, name_) */\n          sstore\n            /* \"contracts/PlayerShare.sol\":800:807  symbol_ */\n          dup2\n            /* \"contracts/PlayerShare.sol\":794:798  0x04 */\n          0x04\n            /* \"contracts/PlayerShare.sol\":787:808  sstore(0x04, symbol_) */\n          sstore\n            /* \"contracts/PlayerShare.sol\":493:497  true */\n          0x01\n            /* \"contracts/PlayerShare.sol\":479:490  initialized */\n          0x05\n          0x14\n            /* \"contracts/PlayerShare.sol\":479:497  initialized = true */\n          0x0100\n          exp\n          dup2\n          sload\n          dup2\n          0xff\n          mul\n          not\n          and\n          swap1\n          dup4\n          iszero\n          iszero\n          mul\n          or\n          swap1\n          sstore\n          pop\n            /* \"contracts/PlayerShare.sol\":560:824  function initialize(... */\n          pop\n          pop\n          pop\n          jump\t// out\n            /* \"@openzeppelin/contracts/token/ERC20/ERC20.sol\":3902:4088  function approve(address spender, uint256 value) public virtual returns (bool) {... */\n        tag_31:\n            /* \"@openzeppelin/contracts/token/ERC20/ERC20.sol\":3975:3979  bool */\n          0x00\n            /* \"@openzeppelin/contracts/token/ERC20/ERC20.sol\":3991:4004  address owner */\n          0x00\n            /* \"@openzeppelin/contracts/token/ERC20/ERC20.sol\":4007:4019  _msgSender() */\n          tag_90\n            /* \"@openzeppelin/contracts/token/ERC20/ERC20.sol\":4007:4017  _msgSender */\n          tag_91\n            /* \"@openzeppelin/contracts/token/ERC20/ERC20.sol\":4007:4019  _msgSender() */\n          jump\t// in\n        tag_90:\n            /* \"@openzeppelin/contracts/token/ERC20/ERC20.sol\":3991:4019  address owner = _msgSender() */\n          swap1\n          pop\n            /* \"@openzeppelin/contracts/token/ERC20/ERC20.sol\":4029:4060  _approve(owner, spender, value) */\n          tag_92\n            /* \"@openzeppelin/contracts/token/ERC20/ERC20.sol\":4038:4043  owner */\n          dup2\n            /* \"@openzeppelin/contracts/token/ERC20/ERC20.sol\":4045:4052  spender */\n          dup6\n            /* \"@openzeppelin/contracts/token/ERC20/ERC20.sol\":4054:4059  value */\n          dup6\n            /* \"@openzeppelin/contracts/token/ERC20/ERC20.sol\":4029:4037  _approve */\n          tag_93\n            /* \"@openzeppelin/contracts/token/ERC20/ERC20.sol\":4029:4060  _approve(owner, spender, value) */\n          jump\t// in\n        tag_92:\n            /* \"@openzeppelin/contracts/token/ERC20/ERC20.sol\":4077:4081  true */\n          0x01\n            /* \"@openzeppelin/contracts/token/ERC20/ERC20.sol\":4070:4081  return true */\n          swap2\n          pop\n          pop\n            /* \"@openzeppelin/contracts/token/ERC20/ERC20.sol\":3902:4088  function approve(address spender, uint256 value) public virtual returns (bool) {... */\n          swap3\n          swap2\n          pop\n          pop\n          jump\t// out\n            /* \"contracts/PlayerShare.sol\":256:279  bool public initialized */\n        tag_35:\n          0x05\n          0x14\n          swap1\n          sload\n          swap1\n          0x0100\n          exp\n          swap1\n          div\n          0xff\n          and\n          dup2\n          jump\t// out\n            /* \"@openzeppelin/contracts/token/ERC20/ERC20.sol\":2803:2900  function totalSupply() public view virtual returns (uint256) {... */\n        tag_38:\n            /* \"@openzeppelin/contracts/token/ERC20/ERC20.sol\":2855:2862  uint256 */\n          0x00\n            /* \"@openzeppelin/contracts/token/ERC20/ERC20.sol\":2881:2893  _totalSupply */\n          sload(0x02)\n            /* \"@openzeppelin/contracts/token/ERC20/ERC20.sol\":2874:2893  return _totalSupply */\n          swap1\n          pop\n            /* \"@openzeppelin/contracts/token/ERC20/ERC20.sol\":2803:2900  function totalSupply() public view virtual returns (uint256) {... */\n          swap1\n          jump\t// out\n            /* \"@openzeppelin/contracts/token/ERC20/ERC20.sol\":4680:4924  function transferFrom(address from, address to, uint256 value) public virtual returns (bool) {... */\n        tag_44:\n            /* \"@openzeppelin/contracts/token/ERC20/ERC20.sol\":4767:4771  bool */\n          0x00\n            /* \"@openzeppelin/contracts/token/ERC20/ERC20.sol\":4783:4798  address spender */\n          0x00\n            /* \"@openzeppelin/contracts/token/ERC20/ERC20.sol\":4801:4813  _msgSender() */\n          tag_96\n            /* \"@openzeppelin/contracts/token/ERC20/ERC20.sol\":4801:4811  _msgSender */\n          tag_91\n            /* \"@openzeppelin/contracts/token/ERC20/ERC20.sol\":4801:4813  _msgSender() */\n          jump\t// in\n        tag_96:\n            /* \"@openzeppelin/contracts/token/ERC20/ERC20.sol\":4783:4813  address spender = _msgSender() */\n          swap1\n          pop\n            /* \"@openzeppelin/contracts/token/ERC20/ERC20.sol\":4823:4860  _spendAllowance(from, spender, value) */\n          tag_97\n            /* \"@openzeppelin/contracts/token/ERC20/ERC20.sol\":4839:4843  from */\n          dup6\n            /* \"@openzeppelin/contracts/token/ERC20/ERC20.sol\":4845:4852  spender */\n          dup3\n            /* \"@openzeppelin/contracts/token/ERC20/ERC20.sol\":4854:4859  value */\n          dup6\n            /* \"@openzeppelin/contracts/token/ERC20/ERC20.sol\":4823:4838  _spendAllowance */\n          tag_98\n            /* \"@openzeppelin/contracts/token/ERC20/ERC20.sol\":4823:4860  _spendAllowance(from, spender, value) */\n          jump\t// in\n        tag_97:\n            /* \"@openzeppelin/contracts/token/ERC20/ERC20.sol\":4870:4896  _transfer(from, to, value) */\n          tag_99\n            /* \"@openzeppelin/contracts/token/ERC20/ERC20.sol\":4880:4884  from */\n          dup6\n            /* \"@openzeppelin/contracts/token/ERC20/ERC20.sol\":4886:4888  to */\n          dup6\n            /* \"@openzeppelin/contracts/token/ERC20/ERC20.sol\":4890:4895  value */\n          dup6\n            /* \"@openzeppelin/contracts/token/ERC20/ERC20.sol\":4870:4879  _transfer */\n          tag_100\n            /* \"@openzeppelin/contracts/token/ERC20/ERC20.sol\":4870:4896  _transfer(from, to, value) */\n          jump\t// in\n        tag_99:\n            /* \"@openzeppelin/contracts/token/ERC20/ERC20.sol\":4913:4917  true */\n          0x01\n            /* \"@openzeppelin/contracts/token/ERC20/ERC20.sol\":4906:4917  return true */\n          swap2\n          pop\n          pop\n            /* \"@openzeppelin/contracts/token/ERC20/ERC20.sol\":4680:4924  function transferFrom(address from, address to, uint256 value) public virtual returns (bool) {... */\n          swap4\n          swap3\n          pop\n          pop\n          pop\n          jump\t// out\n            /* \"@openzeppelin/contracts/token/ERC20/ERC20.sol\":2688:2770  function decimals() public view virtual returns (uint8) {... */\n        tag_47:\n            /* \"@openzeppelin/contracts/token/ERC20/ERC20.sol\":2737:2742  uint8 */\n          0x00\n            /* \"@openzeppelin/contracts/token/ERC20/ERC20.sol\":2761:2763  18 */\n          0x12\n            /* \"@openzeppelin/contracts/token/ERC20/ERC20.sol\":2754:2763  return 18 */\n          swap1\n          pop\n            /* \"@openzeppelin/contracts/token/ERC20/ERC20.sol\":2688:2770  function decimals() public view virtual returns (uint8) {... */\n          swap1\n          jump\t// out\n            /* \"contracts/PlayerShare.sol\":830:927  function mint(address to, uint256 amount) external onlyManager {... */\n        tag_52:\n            /* \"contracts/PlayerShare.sol\":341:348  manager */\n          0x05\n          0x00\n          swap1\n          sload\n          swap1\n          0x0100\n          exp\n          swap1\n          div\n          0xffffffffffffffffffffffffffffffffffffffff\n          and\n            /* \"contracts/PlayerShare.sol\":327:348  msg.sender == manager */\n          0xffffffffffffffffffffffffffffffffffffffff\n          and\n            /* \"contracts/PlayerShare.sol\":327:337  msg.sender */\n          caller\n            /* \"contracts/PlayerShare.sol\":327:348  msg.sender == manager */\n          0xffffffffffffffffffffffffffffffffffffffff\n          and\n          eq\n            /* \"contracts/PlayerShare.sol\":319:364  require(msg.sender == manager, \"NOT_MANAGER\") */\n          tag_103\n          jumpi\n          mload(0x40)\n          0x08c379a000000000000000000000000000000000000000000000000000000000\n          dup2\n          mstore\n          0x04\n          add\n          tag_104\n          swap1\n          tag_105\n          jump\t// in\n        tag_104:\n          mload(0x40)\n          dup1\n          swap2\n          sub\n          swap1\n          revert\n        tag_103:\n            /* \"contracts/PlayerShare.sol\":903:920  _mint(to, amount) */\n          tag_107\n            /* \"contracts/PlayerShare.sol\":909:911  to */\n          dup3\n            /* \"contracts/PlayerShare.sol\":913:919  amount */\n          dup3\n            /* \"contracts/PlayerShare.sol\":903:908  _mint */\n          tag_108\n            /* \"contracts/PlayerShare.sol\":903:920  _mint(to, amount) */\n          jump\t// in\n        tag_107:\n            /* \"contracts/PlayerShare.sol\":830:927  function mint(address to, uint256 amount) external onlyManager {... */\n          pop\n          pop\n          jump\t// out\n            /* \"contracts/PlayerShare.sol\":228:250  address public manager */\n        tag_54:\n          0x05\n          0x00\n          swap1\n          sload\n          swap1\n          0x0100\n          exp\n          swap1\n          div\n          0xffffffffffffffffffffffffffffffffffffffff\n          and\n          dup2\n          jump\t// out\n            /* \"@openzeppelin/contracts/token/ERC20/ERC20.sol\":2933:3049  function balanceOf(address account) public view virtual returns (uint256) {... */\n        tag_60:\n            /* \"@openzeppelin/contracts/token/ERC20/ERC20.sol\":2998:3005  uint256 */\n          0x00\n            /* \"@openzeppelin/contracts/token/ERC20/ERC20.sol\":3024:3033  _balances */\n          0x00\n            /* \"@openzeppelin/contracts/token/ERC20/ERC20.sol\":3024:3042  _balances[account] */\n          0x00\n            /* \"@openzeppelin/contracts/token/ERC20/ERC20.sol\":3034:3041  account */\n          dup4\n            /* \"@openzeppelin/contracts/token/ERC20/ERC20.sol\":3024:3042  _balances[account] */\n          0xffffffffffffffffffffffffffffffffffffffff\n          and\n          0xffffffffffffffffffffffffffffffffffffffff\n          and\n          dup2\n          mstore\n          0x20\n          add\n          swap1\n          dup2\n          mstore\n          0x20\n          add\n          0x00\n          keccak256\n          sload\n            /* \"@openzeppelin/contracts/token/ERC20/ERC20.sol\":3017:3042  return _balances[account] */\n          swap1\n          pop\n            /* \"@openzeppelin/contracts/token/ERC20/ERC20.sol\":2933:3049  function balanceOf(address account) public view virtual returns (uint256) {... */\n          swap2\n          swap1\n          pop\n          jump\t// out\n            /* \"@openzeppelin/contracts/token/ERC20/ERC20.sol\":1962:2055  function symbol() public view virtual returns (string memory) {... */\n        tag_63:\n            /* \"@openzeppelin/contracts/token/ERC20/ERC20.sol\":2009:2022  string memory */\n          0x60\n            /* \"@openzeppelin/contracts/token/ERC20/ERC20.sol\":2041:2048  _symbol */\n          0x04\n            /* \"@openzeppelin/contracts/token/ERC20/ERC20.sol\":2034:2048  return _symbol */\n          dup1\n          sload\n          tag_111\n          swap1\n          tag_79\n          jump\t// in\n        tag_111:\n          dup1\n          0x1f\n          add\n          0x20\n          dup1\n          swap2\n          div\n          mul\n          0x20\n          add\n          mload(0x40)\n          swap1\n          dup2\n          add\n          0x40\n          mstore\n          dup1\n          swap3\n          swap2\n          swap1\n          dup2\n          dup2\n          mstore\n          0x20\n          add\n          dup3\n          dup1\n          sload\n          tag_112\n          swap1\n          tag_79\n          jump\t// in\n        tag_112:\n          dup1\n          iszero\n          tag_113\n          jumpi\n          dup1\n          0x1f\n          lt\n          tag_114\n          jumpi\n          0x0100\n          dup1\n          dup4\n          sload\n          div\n          mul\n          dup4\n          mstore\n          swap2\n          0x20\n          add\n          swap2\n          jump(tag_113)\n        tag_114:\n          dup3\n          add\n          swap2\n          swap1\n          0x00\n          mstore\n          keccak256(0x00, 0x20)\n          swap1\n        tag_115:\n          dup2\n          sload\n          dup2\n          mstore\n          swap1\n          0x01\n          add\n          swap1\n          0x20\n          add\n          dup1\n          dup4\n          gt\n          tag_115\n          jumpi\n          dup3\n          swap1\n          sub\n          0x1f\n          and\n          dup3\n          add\n          swap2\n        tag_113:\n          pop\n          pop\n          pop\n          pop\n          pop\n          swap1\n          pop\n            /* \"@openzeppelin/contracts/token/ERC20/ERC20.sol\":1962:2055  function symbol() public view virtual returns (string memory) {... */\n          swap1\n          jump\t// out\n            /* \"contracts/PlayerShare.sol\":933:1034  function burn(address from, uint256 amount) external onlyManager {... */\n        tag_67:\n            /* \"contracts/PlayerShare.sol\":341:348  manager */\n          0x05\n          0x00\n          swap1\n          sload\n          swap1\n          0x0100\n          exp\n          swap1\n          div\n          0xffffffffffffffffffffffffffffffffffffffff\n          and\n            /* \"contracts/PlayerShare.sol\":327:348  msg.sender == manager */\n          0xffffffffffffffffffffffffffffffffffffffff\n          and\n            /* \"contracts/PlayerShare.sol\":327:337  msg.sender */\n          caller\n            /* \"contracts/PlayerShare.sol\":327:348  msg.sender == manager */\n          0xffffffffffffffffffffffffffffffffffffffff\n          and\n          eq\n            /* \"contracts/PlayerShare.sol\":319:364  require(msg.sender == manager, \"NOT_MANAGER\") */\n          tag_117\n          jumpi\n          mload(0x40)\n          0x08c379a000000000000000000000000000000000000000000000000000000000\n          dup2\n          mstore\n          0x04\n          add\n          tag_118\n          swap1\n          tag_105\n          jump\t// in\n        tag_118:\n          mload(0x40)\n          dup1\n          swap2\n          sub\n          swap1\n          revert\n        tag_117:\n            /* \"contracts/PlayerShare.sol\":1008:1027  _burn(from, amount) */\n          tag_120\n            /* \"contracts/PlayerShare.sol\":1014:1018  from */\n          dup3\n            /* \"contracts/PlayerShare.sol\":1020:1026  amount */\n          dup3\n            /* \"contracts/PlayerShare.sol\":1008:1013  _burn */\n          tag_121\n            /* \"contracts/PlayerShare.sol\":1008:1027  _burn(from, amount) */\n          jump\t// in\n        tag_120:\n            /* \"contracts/PlayerShare.sol\":933:1034  function burn(address from, uint256 amount) external onlyManager {... */\n          pop\n          pop\n          jump\t// out\n            /* \"@openzeppelin/contracts/token/ERC20/ERC20.sol\":3244:3422  function transfer(address to, uint256 value) public virtual returns (bool) {... */\n        tag_70:\n            /* \"@openzeppelin/contracts/token/ERC20/ERC20.sol\":3313:3317  bool */\n          0x00\n            /* \"@openzeppelin/contracts/token/ERC20/ERC20.sol\":3329:3342  address owner */\n          0x00\n            /* \"@openzeppelin/contracts/token/ERC20/ERC20.sol\":3345:3357  _msgSender() */\n          tag_123\n            /* \"@openzeppelin/contracts/token/ERC20/ERC20.sol\":3345:3355  _msgSender */\n          tag_91\n            /* \"@openzeppelin/contracts/token/ERC20/ERC20.sol\":3345:3357  _msgSender() */\n          jump\t// in\n        tag_123:\n            /* \"@openzeppelin/contracts/token/ERC20/ERC20.sol\":3329:3357  address owner = _msgSender() */\n          swap1\n          pop\n            /* \"@openzeppelin/contracts/token/ERC20/ERC20.sol\":3367:3394  _transfer(owner, to, value) */\n          tag_124\n            /* \"@openzeppelin/contracts/token/ERC20/ERC20.sol\":3377:3382  owner */\n          dup2\n            /* \"@openzeppelin/contracts/token/ERC20/ERC20.sol\":3384:3386  to */\n          dup6\n            /* \"@openzeppelin/contracts/token/ERC20/ERC20.sol\":3388:3393  value */\n          dup6\n            /* \"@openzeppelin/contracts/token/ERC20/ERC20.sol\":3367:3376  _transfer */\n          tag_100\n            /* \"@openzeppelin/contracts/token/ERC20/ERC20.sol\":3367:3394  _transfer(owner, to, value) */\n          jump\t// in\n        tag_124:\n            /* \"@openzeppelin/contracts/token/ERC20/ERC20.sol\":3411:3415  true */\n          0x01\n            /* \"@openzeppelin/contracts/token/ERC20/ERC20.sol\":3404:3415  return true */\n          swap2\n          pop\n          pop\n            /* \"@openzeppelin/contracts/token/ERC20/ERC20.sol\":3244:3422  function transfer(address to, uint256 value) public virtual returns (bool) {... */\n          swap3\n          swap2\n          pop\n          pop\n          jump\t// out\n            /* \"@openzeppelin/contracts/token/ERC20/ERC20.sol\":3455:3595  function allowance(address owner, address spender) public view virtual returns (uint256) {... */\n        tag_75:\n            /* \"@openzeppelin/contracts/token/ERC20/ERC20.sol\":3535:3542  uint256 */\n          0x00\n            /* \"@openzeppelin/contracts/token/ERC20/ERC20.sol\":3561:3572  _allowances */\n          0x01\n            /* \"@openzeppelin/contracts/token/ERC20/ERC20.sol\":3561:3579  _allowances[owner] */\n          0x00\n            /* \"@openzeppelin/contracts/token/ERC20/ERC20.sol\":3573:3578  owner */\n          dup5\n            /* \"@openzeppelin/contracts/token/ERC20/ERC20.sol\":3561:3579  _allowances[owner] */\n          0xffffffffffffffffffffffffffffffffffffffff\n          and\n          0xffffffffffffffffffffffffffffffffffffffff\n          and\n          dup2\n          mstore\n          0x20\n          add\n          swap1\n          dup2\n          mstore\n          0x20\n          add\n          0x00\n          keccak256\n            /* \"@openzeppelin/contracts/token/ERC20/ERC20.sol\":3561:3588  _allowances[owner][spender] */\n          0x00\n            /* \"@openzeppelin/contracts/token/ERC20/ERC20.sol\":3580:3587  spender */\n          dup4\n            /* \"@openzeppelin/contracts/token/ERC20/ERC20.sol\":3561:3588  _allowances[owner][spender] */\n          0xffffffffffffffffffffffffffffffffffffffff\n          and\n          0xffffffffffffffffffffffffffffffffffffffff\n          and\n          dup2\n          mstore\n          0x20\n          add\n          swap1\n          dup2\n          mstore\n          0x20\n          add\n          0x00\n          keccak256\n          sload\n            /* \"@openzeppelin/contracts/token/ERC20/ERC20.sol\":3554:3588  return _allowances[owner][spender] */\n          swap1\n          pop\n            /* \"@openzeppelin/contracts/token/ERC20/ERC20.sol\":3455:3595  function allowance(address owner, address spender) public view virtual returns (uint256) {... */\n          swap3\n          swap2\n          pop\n          pop\n          jump\t// out\n            /* \"@openzeppelin/contracts/utils/Context.sol\":656:752  function _msgSender() internal view virtual returns (address) {... */\n        tag_91:\n            /* \"@openzeppelin/contracts/utils/Context.sol\":709:716  address */\n          0x00\n            /* \"@openzeppelin/contracts/utils/Context.sol\":735:745  msg.sender */\n          caller\n            /* \"@openzeppelin/contracts/utils/Context.sol\":728:745  return msg.sender */\n          swap1\n          pop\n            /* \"@openzeppelin/contracts/utils/Context.sol\":656:752  function _msgSender() internal view virtual returns (address) {... */\n          swap1\n          jump\t// out\n            /* \"@openzeppelin/contracts/token/ERC20/ERC20.sol\":8630:8758  function _approve(address owner, address spender, uint256 value) internal {... */\n        tag_93:\n            /* \"@openzeppelin/contracts/token/ERC20/ERC20.sol\":8714:8751  _approve(owner, spender, value, true) */\n          tag_128\n            /* \"@openzeppelin/contracts/token/ERC20/ERC20.sol\":8723:8728  owner */\n          dup4\n            /* \"@openzeppelin/contracts/token/ERC20/ERC20.sol\":8730:8737  spender */\n          dup4\n            /* \"@openzeppelin/contracts/token/ERC20/ERC20.sol\":8739:8744  value */\n          dup4\n            /* \"@openzeppelin/contracts/token/ERC20/ERC20.sol\":8746:8750  true */\n          0x01\n            /* \"@openzeppelin/contracts/token/ERC20/ERC20.sol\":8714:8722  _approve */\n          tag_129\n            /* \"@openzeppelin/contracts/token/ERC20/ERC20.sol\":8714:8751  _approve(owner, spender, value, true) */\n          jump\t// in\n        tag_128:\n            /* \"@openzeppelin/contracts/token/ERC20/ERC20.sol\":8630:8758  function _approve(address owner, address spender, uint256 value) internal {... */\n          pop\n          pop\n          pop\n          jump\t// out\n            /* \"@openzeppelin/contracts/token/ERC20/ERC20.sol\":10319:10795  function _spendAllowance(address owner, address spender, uint256 value) internal virtual {... */\n        tag_98:\n            /* \"@openzeppelin/contracts/token/ERC20/ERC20.sol\":10418:10442  uint256 currentAllowance */\n          0x00\n            /* \"@openzeppelin/contracts/token/ERC20/ERC20.sol\":10445:10470  allowance(owner, spender) */\n          tag_131\n            /* \"@openzeppelin/contracts/token/ERC20/ERC20.sol\":10455:10460  owner */\n          dup5\n            /* \"@openzeppelin/contracts/token/ERC20/ERC20.sol\":10462:10469  spender */\n          dup5\n            /* \"@openzeppelin/contracts/token/ERC20/ERC20.sol\":10445:10454  allowance */\n          tag_75\n            /* \"@openzeppelin/contracts/token/ERC20/ERC20.sol\":10445:10470  allowance(owner, spender) */\n          jump\t// in\n        tag_131:\n            /* \"@openzeppelin/contracts/token/ERC20/ERC20.sol\":10418:10470  uint256 currentAllowance = allowance(owner, spender) */\n          swap1\n          pop\n            /* \"@openzeppelin/contracts/token/ERC20/ERC20.sol\":10503:10520  type(uint256).max */\n          0xffffffffffffffffffffffffffffffffffffffffffffffffffffffffffffffff\n            /* \"@openzeppelin/contracts/token/ERC20/ERC20.sol\":10484:10500  currentAllowance */\n          dup2\n            /* \"@openzeppelin/contracts/token/ERC20/ERC20.sol\":10484:10520  currentAllowance < type(uint256).max */\n          lt\n            /* \"@openzeppelin/contracts/token/ERC20/ERC20.sol\":10480:10789  if (currentAllowance < type(uint256).max) {... */\n          iszero\n          tag_132\n          jumpi\n            /* \"@openzeppelin/contracts/token/ERC20/ERC20.sol\":10559:10564  value */\n          dup2\n            /* \"@openzeppelin/contracts/token/ERC20/ERC20.sol\":10540:10556  currentAllowance */\n          dup2\n            /* \"@openzeppelin/contracts/token/ERC20/ERC20.sol\":10540:10564  currentAllowance < value */\n          lt\n            /* \"@openzeppelin/contracts/token/ERC20/ERC20.sol\":10536:10666  if (currentAllowance < value) {... */\n          iszero\n          tag_133\n          jumpi\n            /* \"@openzeppelin/contracts/token/ERC20/ERC20.sol\":10618:10625  spender */\n          dup3\n            /* \"@openzeppelin/contracts/token/ERC20/ERC20.sol\":10627:10643  currentAllowance */\n          dup2\n            /* \"@openzeppelin/contracts/token/ERC20/ERC20.sol\":10645:10650  value */\n          dup4\n            /* \"@openzeppelin/contracts/token/ERC20/ERC20.sol\":10591:10651  ERC20InsufficientAllowance(spender, currentAllowance, value) */\n          mload(0x40)\n          0xfb8f41b200000000000000000000000000000000000000000000000000000000\n          dup2\n          mstore\n          0x04\n          add\n          tag_134\n          swap4\n          swap3\n          swap2\n          swap1\n          tag_135\n          jump\t// in\n        tag_134:\n          mload(0x40)\n          dup1\n          swap2\n          sub\n          swap1\n          revert\n            /* \"@openzeppelin/contracts/token/ERC20/ERC20.sol\":10536:10666  if (currentAllowance < value) {... */\n        tag_133:\n            /* \"@openzeppelin/contracts/token/ERC20/ERC20.sol\":10707:10764  _approve(owner, spender, currentAllowance - value, false) */\n          tag_136\n            /* \"@openzeppelin/contracts/token/ERC20/ERC20.sol\":10716:10721  owner */\n          dup5\n            /* \"@openzeppelin/contracts/token/ERC20/ERC20.sol\":10723:10730  spender */\n          dup5\n            /* \"@openzeppelin/contracts/token/ERC20/ERC20.sol\":10751:10756  value */\n          dup5\n            /* \"@openzeppelin/contracts/token/ERC20/ERC20.sol\":10732:10748  currentAllowance */\n          dup5\n            /* \"@openzeppelin/contracts/token/ERC20/ERC20.sol\":10732:10756  currentAllowance - value */\n          sub\n            /* \"@openzeppelin/contracts/token/ERC20/ERC20.sol\":10758:10763  false */\n          0x00\n            /* \"@openzeppelin/contracts/token/ERC20/ERC20.sol\":10707:10715  _approve */\n          tag_129\n            /* \"@openzeppelin/contracts/token/ERC20/ERC20.sol\":10707:10764  _approve(owner, spender, currentAllowance - value, false) */\n          jump\t// in\n        tag_136:\n            /* \"@openzeppelin/contracts/token/ERC20/ERC20.sol\":10480:10789  if (currentAllowance < type(uint256).max) {... */\n        tag_132:\n            /* \"@openzeppelin/contracts/token/ERC20/ERC20.sol\":10408:10795  {... */\n          pop\n            /* \"@openzeppelin/contracts/token/ERC20/ERC20.sol\":10319:10795  function _spendAllowance(address owner, address spender, uint256 value) internal virtual {... */\n          pop\n          pop\n          pop\n          jump\t// out\n            /* \"@openzeppelin/contracts/token/ERC20/ERC20.sol\":5297:5597  function _transfer(address from, address to, uint256 value) internal {... */\n        tag_100:\n            /* \"@openzeppelin/contracts/token/ERC20/ERC20.sol\":5396:5397  0 */\n          0x00\n            /* \"@openzeppelin/contracts/token/ERC20/ERC20.sol\":5380:5398  from == address(0) */\n          0xffffffffffffffffffffffffffffffffffffffff\n          and\n            /* \"@openzeppelin/contracts/token/ERC20/ERC20.sol\":5380:5384  from */\n          dup4\n            /* \"@openzeppelin/contracts/token/ERC20/ERC20.sol\":5380:5398  from == address(0) */\n          0xffffffffffffffffffffffffffffffffffffffff\n          and\n          sub\n            /* \"@openzeppelin/contracts/token/ERC20/ERC20.sol\":5376:5462  if (from == address(0)) {... */\n          tag_138\n          jumpi\n            /* \"@openzeppelin/contracts/token/ERC20/ERC20.sol\":5448:5449  0 */\n          0x00\n            /* \"@openzeppelin/contracts/token/ERC20/ERC20.sol\":5421:5451  ERC20InvalidSender(address(0)) */\n          mload(0x40)\n          0x96c6fd1e00000000000000000000000000000000000000000000000000000000\n          dup2\n          mstore\n          0x04\n          add\n          tag_139\n          swap2\n          swap1\n          tag_56\n          jump\t// in\n        tag_139:\n          mload(0x40)\n          dup1\n          swap2\n          sub\n          swap1\n          revert\n            /* \"@openzeppelin/contracts/token/ERC20/ERC20.sol\":5376:5462  if (from == address(0)) {... */\n        tag_138:\n            /* \"@openzeppelin/contracts/token/ERC20/ERC20.sol\":5489:5490  0 */\n          0x00\n            /* \"@openzeppelin/contracts/token/ERC20/ERC20.sol\":5475:5491  to == address(0) */\n          0xffffffffffffffffffffffffffffffffffffffff\n          and\n            /* \"@openzeppelin/contracts/token/ERC20/ERC20.sol\":5475:5477  to */\n          dup3\n            /* \"@openzeppelin/contracts/token/ERC20/ERC20.sol\":5475:5491  to == address(0) */\n          0xffffffffffffffffffffffffffffffffffffffff\n          and\n          sub\n            /* \"@openzeppelin/contracts/token/ERC20/ERC20.sol\":5471:5557  if (to == address(0)) {... */\n          tag_140\n          jumpi\n            /* \"@openzeppelin/contracts/token/ERC20/ERC20.sol\":5543:5544  0 */\n          0x00\n            /* \"@openzeppelin/contracts/token/ERC20/ERC20.sol\":5514:5546  ERC20InvalidReceiver(address(0)) */\n          mload(0x40)\n          0xec442f0500000000000000000000000000000000000000000000000000000000\n          dup2\n          mstore\n          0x04\n          add\n          tag_141\n          swap2\n          swap1\n          tag_56\n          jump\t// in\n        tag_141:\n          mload(0x40)\n          dup1\n          swap2\n          sub\n          swap1\n          revert\n            /* \"@openzeppelin/contracts/token/ERC20/ERC20.sol\":5471:5557  if (to == address(0)) {... */\n        tag_140:\n            /* \"@openzeppelin/contracts/token/ERC20/ERC20.sol\":5566:5590  _update(from, to, value) */\n          tag_142\n            /* \"@openzeppelin/contracts/token/ERC20/ERC20.sol\":5574:5578  from */\n          dup4\n            /* \"@openzeppelin/contracts/token/ERC20/ERC20.sol\":5580:5582  to */\n          dup4\n            /* \"@openzeppelin/contracts/token/ERC20/ERC20.sol\":5584:5589  value */\n          dup4\n            /* \"@openzeppelin/contracts/token/ERC20/ERC20.sol\":5566:5573  _update */\n          tag_143\n            /* \"@openzeppelin/contracts/token/ERC20/ERC20.sol\":5566:5590  _update(from, to, value) */\n          jump\t// in\n        tag_142:\n            /* \"@openzeppelin/contracts/token/ERC20/ERC20.sol\":5297:5597  function _transfer(address from, address to, uint256 value) internal {... */\n          pop\n          pop\n          pop\n          jump\t// out\n            /* \"@openzeppelin/contracts/token/ERC20/ERC20.sol\":7362:7570  function _mint(address account, uint256 value) internal {... */\n        tag_108:\n            /* \"@openzeppelin/contracts/token/ERC20/ERC20.sol\":7451:7452  0 */\n          0x00\n            /* \"@openzeppelin/contracts/token/ERC20/ERC20.sol\":7432:7453  account == address(0) */\n          0xffffffffffffffffffffffffffffffffffffffff\n          and\n            /* \"@openzeppelin/contracts/token/ERC20/ERC20.sol\":7432:7439  account */\n          dup3\n            /* \"@openzeppelin/contracts/token/ERC20/ERC20.sol\":7432:7453  account == address(0) */\n          0xffffffffffffffffffffffffffffffffffffffff\n          and\n          sub\n            /* \"@openzeppelin/contracts/token/ERC20/ERC20.sol\":7428:7519  if (account == address(0)) {... */\n          tag_145\n          jumpi\n            /* \"@openzeppelin/contracts/token/ERC20/ERC20.sol\":7505:7506  0 */\n          0x00\n            /* \"@openzeppelin/contracts/token/ERC20/ERC20.sol\":7476:7508  ERC20InvalidReceiver(address(0)) */\n          mload(0x40)\n          0xec442f0500000000000000000000000000000000000000000000000000000000\n          dup2\n          mstore\n          0x04\n          add\n          tag_146\n          swap2\n          swap1\n          tag_56\n          jump\t// in\n        tag_146:\n          mload(0x40)\n          dup1\n          swap2\n          sub\n          swap1\n          revert\n            /* \"@openzeppelin/contracts/token/ERC20/ERC20.sol\":7428:7519  if (account == address(0)) {... */\n        tag_145:\n            /* \"@openzeppelin/contracts/token/ERC20/ERC20.sol\":7528:7563  _update(address(0), account, value) */\n          tag_147\n            /* \"@openzeppelin/contracts/token/ERC20/ERC20.sol\":7544:7545  0 */\n          0x00\n            /* \"@openzeppelin/contracts/token/ERC20/ERC20.sol\":7548:7555  account */\n          dup4\n            /* \"@openzeppelin/contracts/token/ERC20/ERC20.sol\":7557:7562  value */\n          dup4\n            /* \"@openzeppelin/contracts/token/ERC20/ERC20.sol\":7528:7535  _update */\n          tag_143\n            /* \"@openzeppelin/contracts/token/ERC20/ERC20.sol\":7528:7563  _update(address(0), account, value) */\n          jump\t// in\n        tag_147:\n            /* \"@openzeppelin/contracts/token/ERC20/ERC20.sol\":7362:7570  function _mint(address account, uint256 value) internal {... */\n          pop\n          pop\n          jump\t// out\n            /* \"@openzeppelin/contracts/token/ERC20/ERC20.sol\":7888:8094  function _burn(address account, uint256 value) internal {... */\n        tag_121:\n            /* \"@openzeppelin/contracts/token/ERC20/ERC20.sol\":7977:7978  0 */\n          0x00\n            /* \"@openzeppelin/contracts/token/ERC20/ERC20.sol\":7958:7979  account == address(0) */\n          0xffffffffffffffffffffffffffffffffffffffff\n          and\n            /* \"@openzeppelin/contracts/token/ERC20/ERC20.sol\":7958:7965  account */\n          dup3\n            /* \"@openzeppelin/contracts/token/ERC20/ERC20.sol\":7958:7979  account == address(0) */\n          0xffffffffffffffffffffffffffffffffffffffff\n          and\n          sub\n            /* \"@openzeppelin/contracts/token/ERC20/ERC20.sol\":7954:8043  if (account == address(0)) {... */\n          tag_149\n          jumpi\n            /* \"@openzeppelin/contracts/token/ERC20/ERC20.sol\":8029:8030  0 */\n          0x00\n            /* \"@openzeppelin/contracts/token/ERC20/ERC20.sol\":8002:8032  ERC20InvalidSender(address(0)) */\n          mload(0x40)\n          0x96c6fd1e00000000000000000000000000000000000000000000000000000000\n          dup2\n          mstore\n          0x04\n          add\n          tag_150\n          swap2\n          swap1\n          tag_56\n          jump\t// in\n        tag_150:\n          mload(0x40)\n          dup1\n          swap2\n          sub\n          swap1\n          revert\n            /* \"@openzeppelin/contracts/token/ERC20/ERC20.sol\":7954:8043  if (account == address(0)) {... */\n        tag_149:\n            /* \"@openzeppelin/contracts/token/ERC20/ERC20.sol\":8052:8087  _update(account, address(0), value) */\n          tag_151\n            /* \"@openzeppelin/contracts/token/ERC20/ERC20.sol\":8060:8067  account */\n          dup3\n            /* \"@openzeppelin/contracts/token/ERC20/ERC20.sol\":8077:8078  0 */\n          0x00\n            /* \"@openzeppelin/contracts/token/ERC20/ERC20.sol\":8081:8086  value */\n          dup4\n            /* \"@openzeppelin/contracts/token/ERC20/ERC20.sol\":8052:8059  _update */\n          tag_143\n            /* \"@openzeppelin/contracts/token/ERC20/ERC20.sol\":8052:8087  _update(account, address(0), value) */\n          jump\t// in\n        tag_151:\n            /* \"@openzeppelin/contracts/token/ERC20/ERC20.sol\":7888:8094  function _burn(address account, uint256 value) internal {... */\n          pop\n          pop\n          jump\t// out\n            /* \"@openzeppelin/contracts/token/ERC20/ERC20.sol\":9605:10037  function _approve(address owner, address spender, uint256 value, bool emitEvent) internal virtual {... */\n        tag_129:\n            /* \"@openzeppelin/contracts/token/ERC20/ERC20.sol\":9734:9735  0 */\n          0x00\n            /* \"@openzeppelin/contracts/token/ERC20/ERC20.sol\":9717:9736  owner == address(0) */\n          0xffffffffffffffffffffffffffffffffffffffff\n          and\n            /* \"@openzeppelin/contracts/token/ERC20/ERC20.sol\":9717:9722  owner */\n          dup5\n            /* \"@openzeppelin/contracts/token/ERC20/ERC20.sol\":9717:9736  owner == address(0) */\n          0xffffffffffffffffffffffffffffffffffffffff\n          and\n          sub\n            /* \"@openzeppelin/contracts/token/ERC20/ERC20.sol\":9713:9802  if (owner == address(0)) {... */\n          tag_153\n          jumpi\n            /* \"@openzeppelin/contracts/token/ERC20/ERC20.sol\":9788:9789  0 */\n          0x00\n            /* \"@openzeppelin/contracts/token/ERC20/ERC20.sol\":9759:9791  ERC20InvalidApprover(address(0)) */\n          mload(0x40)\n          0xe602df0500000000000000000000000000000000000000000000000000000000\n          dup2\n          mstore\n          0x04\n          add\n          tag_154\n          swap2\n          swap1\n          tag_56\n          jump\t// in\n        tag_154:\n          mload(0x40)\n          dup1\n          swap2\n          sub\n          swap1\n          revert\n            /* \"@openzeppelin/contracts/token/ERC20/ERC20.sol\":9713:9802  if (owner == address(0)) {... */\n        tag_153:\n            /* \"@openzeppelin/contracts/token/ERC20/ERC20.sol\":9834:9835  0 */\n          0x00\n            /* \"@openzeppelin/contracts/token/ERC20/ERC20.sol\":9815:9836  spender == address(0) */\n          0xffffffffffffffffffffffffffffffffffffffff\n          and\n            /* \"@openzeppelin/contracts/token/ERC20/ERC20.sol\":9815:9822  spender */\n          dup4\n            /* \"@openzeppelin/contracts/token/ERC20/ERC20.sol\":9815:9836  spender == address(0) */\n          0xffffffffffffffffffffffffffffffffffffffff\n          and\n          sub\n            /* \"@openzeppelin/contracts/token/ERC20/ERC20.sol\":9811:9901  if (spender == address(0)) {... */\n          tag_155\n          jumpi\n            /* \"@openzeppelin/contracts/token/ERC20/ERC20.sol\":9887:9888  0 */\n          0x00\n            /* \"@openzeppelin/contracts/token/ERC20/ERC20.sol\":9859:9890  ERC20InvalidSpender(address(0)) */\n          mload(0x40)\n          0x94280d6200000000000000000000000000000000000000000000000000000000\n          dup2\n          mstore\n          0x04\n          add\n          tag_156\n          swap2\n          swap1\n          tag_56\n          jump\t// in\n        tag_156:\n          mload(0x40)\n          dup1\n          swap2\n          sub\n          swap1\n          revert\n            /* \"@openzeppelin/contracts/token/ERC20/ERC20.sol\":9811:9901  if (spender == address(0)) {... */\n        tag_155:\n            /* \"@openzeppelin/contracts/token/ERC20/ERC20.sol\":9940:9945  value */\n          dup2\n            /* \"@openzeppelin/contracts/token/ERC20/ERC20.sol\":9910:9921  _allowances */\n          0x01\n            /* \"@openzeppelin/contracts/token/ERC20/ERC20.sol\":9910:9928  _allowances[owner] */\n          0x00\n            /* \"@openzeppelin/contracts/token/ERC20/ERC20.sol\":9922:9927  owner */\n          dup7\n            /* \"@openzeppelin/contracts/token/ERC20/ERC20.sol\":9910:9928  _allowances[owner] */\n          0xffffffffffffffffffffffffffffffffffffffff\n          and\n          0xffffffffffffffffffffffffffffffffffffffff\n          and\n          dup2\n          mstore\n          0x20\n          add\n          swap1\n          dup2\n          mstore\n          0x20\n          add\n          0x00\n          keccak256\n            /* \"@openzeppelin/contracts/token/ERC20/ERC20.sol\":9910:9937  _allowances[owner][spender] */\n          0x00\n            /* \"@openzeppelin/contracts/token/ERC20/ERC20.sol\":9929:9936  spender */\n          dup6\n            /* \"@openzeppelin/contracts/token/ERC20/ERC20.sol\":9910:9937  _allowances[owner][spender] */\n          0xffffffffffffffffffffffffffffffffffffffff\n          and\n          0xffffffffffffffffffffffffffffffffffffffff\n          and\n          dup2\n          mstore\n          0x20\n          add\n          swap1\n          dup2\n          mstore\n          0x20\n          add\n          0x00\n          keccak256\n            /* \"@openzeppelin/contracts/token/ERC20/ERC20.sol\":9910:9945  _allowances[owner][spender] = value */\n          dup2\n          swap1\n          sstore\n          pop\n            /* \"@openzeppelin/contracts/token/ERC20/ERC20.sol\":9959:9968  emitEvent */\n          dup1\n            /* \"@openzeppelin/contracts/token/ERC20/ERC20.sol\":9955:10031  if (emitEvent) {... */\n          iszero\n          tag_157\n          jumpi\n            /* \"@openzeppelin/contracts/token/ERC20/ERC20.sol\":10005:10012  spender */\n          dup3\n            /* \"@openzeppelin/contracts/token/ERC20/ERC20.sol\":9989:10020  Approval(owner, spender, value) */\n          0xffffffffffffffffffffffffffffffffffffffff\n          and\n            /* \"@openzeppelin/contracts/token/ERC20/ERC20.sol\":9998:10003  owner */\n          dup5\n            /* \"@openzeppelin/contracts/token/ERC20/ERC20.sol\":9989:10020  Approval(owner, spender, value) */\n          0xffffffffffffffffffffffffffffffffffffffff\n          and\n          0x8c5be1e5ebec7d5bd14f71427d1e84f3dd0314c0f7b2291e5b200ac8c7c3b925\n            /* \"@openzeppelin/contracts/token/ERC20/ERC20.sol\":10014:10019  value */\n          dup5\n            /* \"@openzeppelin/contracts/token/ERC20/ERC20.sol\":9989:10020  Approval(owner, spender, value) */\n          mload(0x40)\n          tag_158\n          swap2\n          swap1\n          tag_40\n          jump\t// in\n        tag_158:\n          mload(0x40)\n          dup1\n          swap2\n          sub\n          swap1\n          log3\n            /* \"@openzeppelin/contracts/token/ERC20/ERC20.sol\":9955:10031  if (emitEvent) {... */\n        tag_157:\n            /* \"@openzeppelin/contracts/token/ERC20/ERC20.sol\":9605:10037  function _approve(address owner, address spender, uint256 value, bool emitEvent) internal virtual {... */\n          pop\n          pop\n          pop\n          pop\n          jump\t// out\n            /* \"@openzeppelin/contracts/token/ERC20/ERC20.sol\":5912:7019  function _update(address from, address to, uint256 value) internal virtual {... */\n        tag_143:\n            /* \"@openzeppelin/contracts/token/ERC20/ERC20.sol\":6017:6018  0 */\n          0x00\n            /* \"@openzeppelin/contracts/token/ERC20/ERC20.sol\":6001:6019  from == address(0) */\n          0xffffffffffffffffffffffffffffffffffffffff\n          and\n            /* \"@openzeppelin/contracts/token/ERC20/ERC20.sol\":6001:6005  from */\n          dup4\n            /* \"@openzeppelin/contracts/token/ERC20/ERC20.sol\":6001:6019  from == address(0) */\n          0xffffffffffffffffffffffffffffffffffffffff\n          and\n          sub\n            /* \"@openzeppelin/contracts/token/ERC20/ERC20.sol\":5997:6537  if (from == address(0)) {... */\n          tag_160\n          jumpi\n            /* \"@openzeppelin/contracts/token/ERC20/ERC20.sol\":6153:6158  value */\n          dup1\n            /* \"@openzeppelin/contracts/token/ERC20/ERC20.sol\":6137:6149  _totalSupply */\n          0x02\n          0x00\n            /* \"@openzeppelin/contracts/token/ERC20/ERC20.sol\":6137:6158  _totalSupply += value */\n          dup3\n          dup3\n          sload\n          tag_161\n          swap2\n          swap1\n          tag_162\n          jump\t// in\n        tag_161:\n          swap3\n          pop\n          pop\n          dup2\n          swap1\n          sstore\n          pop\n            /* \"@openzeppelin/contracts/token/ERC20/ERC20.sol\":5997:6537  if (from == address(0)) {... */\n          jump(tag_163)\n        tag_160:\n            /* \"@openzeppelin/contracts/token/ERC20/ERC20.sol\":6189:6208  uint256 fromBalance */\n          0x00\n            /* \"@openzeppelin/contracts/token/ERC20/ERC20.sol\":6211:6220  _balances */\n          0x00\n            /* \"@openzeppelin/contracts/token/ERC20/ERC20.sol\":6211:6226  _balances[from] */\n          0x00\n            /* \"@openzeppelin/contracts/token/ERC20/ERC20.sol\":6221:6225  from */\n          dup6\n            /* \"@openzeppelin/contracts/token/ERC20/ERC20.sol\":6211:6226  _balances[from] */\n          0xffffffffffffffffffffffffffffffffffffffff\n          and\n          0xffffffffffffffffffffffffffffffffffffffff\n          and\n          dup2\n          mstore\n          0x20\n          add\n          swap1\n          dup2\n          mstore\n          0x20\n          add\n          0x00\n          keccak256\n          sload\n            /* \"@openzeppelin/contracts/token/ERC20/ERC20.sol\":6189:6226  uint256 fromBalance = _balances[from] */\n          swap1\n          pop\n            /* \"@openzeppelin/contracts/token/ERC20/ERC20.sol\":6258:6263  value */\n          dup2\n            /* \"@openzeppelin/contracts/token/ERC20/ERC20.sol\":6244:6255  fromBalance */\n          dup2\n            /* \"@openzeppelin/contracts/token/ERC20/ERC20.sol\":6244:6263  fromBalance < value */\n          lt\n            /* \"@openzeppelin/contracts/token/ERC20/ERC20.sol\":6240:6355  if (fromBalance < value) {... */\n          iszero\n          tag_164\n          jumpi\n            /* \"@openzeppelin/contracts/token/ERC20/ERC20.sol\":6315:6319  from */\n          dup4\n            /* \"@openzeppelin/contracts/token/ERC20/ERC20.sol\":6321:6332  fromBalance */\n          dup2\n            /* \"@openzeppelin/contracts/token/ERC20/ERC20.sol\":6334:6339  value */\n          dup4\n            /* \"@openzeppelin/contracts/token/ERC20/ERC20.sol\":6290:6340  ERC20InsufficientBalance(from, fromBalance, value) */\n          mload(0x40)\n          0xe450d38c00000000000000000000000000000000000000000000000000000000\n          dup2\n          mstore\n          0x04\n          add\n          tag_165\n          swap4\n          swap3\n          swap2\n          swap1\n          tag_135\n          jump\t// in\n        tag_165:\n          mload(0x40)\n          dup1\n          swap2\n          sub\n          swap1\n          revert\n            /* \"@openzeppelin/contracts/token/ERC20/ERC20.sol\":6240:6355  if (fromBalance < value) {... */\n        tag_164:\n            /* \"@openzeppelin/contracts/token/ERC20/ERC20.sol\":6507:6512  value */\n          dup2\n            /* \"@openzeppelin/contracts/token/ERC20/ERC20.sol\":6493:6504  fromBalance */\n          dup2\n            /* \"@openzeppelin/contracts/token/ERC20/ERC20.sol\":6493:6512  fromBalance - value */\n          sub\n            /* \"@openzeppelin/contracts/token/ERC20/ERC20.sol\":6475:6484  _balances */\n          0x00\n            /* \"@openzeppelin/contracts/token/ERC20/ERC20.sol\":6475:6490  _balances[from] */\n          0x00\n            /* \"@openzeppelin/contracts/token/ERC20/ERC20.sol\":6485:6489  from */\n          dup7\n            /* \"@openzeppelin/contracts/token/ERC20/ERC20.sol\":6475:6490  _balances[from] */\n          0xffffffffffffffffffffffffffffffffffffffff\n          and\n          0xffffffffffffffffffffffffffffffffffffffff\n          and\n          dup2\n          mstore\n          0x20\n          add\n          swap1\n          dup2\n          mstore\n          0x20\n          add\n          0x00\n          keccak256\n            /* \"@openzeppelin/contracts/token/ERC20/ERC20.sol\":6475:6512  _balances[from] = fromBalance - value */\n          dup2\n          swap1\n          sstore\n          pop\n            /* \"@openzeppelin/contracts/token/ERC20/ERC20.sol\":6175:6537  {... */\n          pop\n            /* \"@openzeppelin/contracts/token/ERC20/ERC20.sol\":5997:6537  if (from == address(0)) {... */\n        tag_163:\n            /* \"@openzeppelin/contracts/token/ERC20/ERC20.sol\":6565:6566  0 */\n          0x00\n            /* \"@openzeppelin/contracts/token/ERC20/ERC20.sol\":6551:6567  to == address(0) */\n          0xffffffffffffffffffffffffffffffffffffffff\n          and\n            /* \"@openzeppelin/contracts/token/ERC20/ERC20.sol\":6551:6553  to */\n          dup3\n            /* \"@openzeppelin/contracts/token/ERC20/ERC20.sol\":6551:6567  to == address(0) */\n          0xffffffffffffffffffffffffffffffffffffffff\n          and\n          sub\n            /* \"@openzeppelin/contracts/token/ERC20/ERC20.sol\":6547:6972  if (to == address(0)) {... */\n          tag_166\n          jumpi\n            /* \"@openzeppelin/contracts/token/ERC20/ERC20.sol\":6730:6735  value */\n          dup1\n            /* \"@openzeppelin/contracts/token/ERC20/ERC20.sol\":6714:6726  _totalSupply */\n          0x02\n          0x00\n            /* \"@openzeppelin/contracts/token/ERC20/ERC20.sol\":6714:6735  _totalSupply -= value */\n          dup3\n          dup3\n          sload\n          sub\n          swap3\n          pop\n          pop\n          dup2\n          swap1\n          sstore\n          pop\n            /* \"@openzeppelin/contracts/token/ERC20/ERC20.sol\":6547:6972  if (to == address(0)) {... */\n          jump(tag_167)\n        tag_166:\n            /* \"@openzeppelin/contracts/token/ERC20/ERC20.sol\":6942:6947  value */\n          dup1\n            /* \"@openzeppelin/contracts/token/ERC20/ERC20.sol\":6925:6934  _balances */\n          0x00\n            /* \"@openzeppelin/contracts/token/ERC20/ERC20.sol\":6925:6938  _balances[to] */\n          0x00\n            /* \"@openzeppelin/contracts/token/ERC20/ERC20.sol\":6935:6937  to */\n          dup5\n            /* \"@openzeppelin/contracts/token/ERC20/ERC20.sol\":6925:6938  _balances[to] */\n          0xffffffffffffffffffffffffffffffffffffffff\n          and\n          0xffffffffffffffffffffffffffffffffffffffff\n          and\n          dup2\n          mstore\n          0x20\n          add\n          swap1\n          dup2\n          mstore\n          0x20\n          add\n          0x00\n          keccak256\n          0x00\n            /* \"@openzeppelin/contracts/token/ERC20/ERC20.sol\":6925:6947  _balances[to] += value */\n          dup3\n          dup3\n          sload\n          add\n          swap3\n          pop\n          pop\n          dup2\n          swap1\n          sstore\n          pop\n            /* \"@openzeppelin/contracts/token/ERC20/ERC20.sol\":6547:6972  if (to == address(0)) {... */\n        tag_167:\n            /* \"@openzeppelin/contracts/token/ERC20/ERC20.sol\":7002:7004  to */\n          dup2\n            /* \"@openzeppelin/contracts/token/ERC20/ERC20.sol\":6987:7012  Transfer(from, to, value) */\n          0xffffffffffffffffffffffffffffffffffffffff\n          and\n            /* \"@openzeppelin/contracts/token/ERC20/ERC20.sol\":6996:7000  from */\n          dup4\n            /* \"@openzeppelin/contracts/token/ERC20/ERC20.sol\":6987:7012  Transfer(from, to, value) */\n          0xffffffffffffffffffffffffffffffffffffffff\n          and\n          0xddf252ad1be2c89b69c2b068fc378daa952ba7f163c4a11628f55a4df523b3ef\n            /* \"@openzeppelin/contracts/token/ERC20/ERC20.sol\":7006:7011  value */\n          dup4\n            /* \"@openzeppelin/contracts/token/ERC20/ERC20.sol\":6987:7012  Transfer(from, to, value) */\n          mload(0x40)\n          tag_168\n          swap2\n          swap1\n          tag_40\n          jump\t// in\n        tag_168:\n          mload(0x40)\n          dup1\n          swap2\n          sub\n          swap1\n          log3\n            /* \"@openzeppelin/contracts/token/ERC20/ERC20.sol\":5912:7019  function _update(address from, address to, uint256 value) internal virtual {... */\n          pop\n          pop\n          pop\n          jump\t// out\n            /* \"#utility.yul\":7:106   */\n        tag_169:\n            /* \"#utility.yul\":59:65   */\n          0x00\n            /* \"#utility.yul\":93:98   */\n          dup2\n            /* \"#utility.yul\":87:99   */\n          mload\n            /* \"#utility.yul\":77:99   */\n          swap1\n          pop\n            /* \"#utility.yul\":7:106   */\n          swap2\n          swap1\n          pop\n          jump\t// out\n            /* \"#utility.yul\":112:281   */\n        tag_170:\n            /* \"#utility.yul\":196:207   */\n          0x00\n            /* \"#utility.yul\":230:236   */\n          dup3\n            /* \"#utility.yul\":225:228   */\n          dup3\n            /* \"#utility.yul\":218:237   */\n          mstore\n            /* \"#utility.yul\":270:274   */\n          0x20\n            /* \"#utility.yul\":265:268   */\n          dup3\n            /* \"#utility.yul\":261:275   */\n          add\n            /* \"#utility.yul\":246:275   */\n          swap1\n          pop\n            /* \"#utility.yul\":112:281   */\n          swap3\n          swap2\n          pop\n          pop\n          jump\t// out\n            /* \"#utility.yul\":287:426   */\n        tag_171:\n            /* \"#utility.yul\":376:382   */\n          dup3\n            /* \"#utility.yul\":371:374   */\n          dup2\n            /* \"#utility.yul\":366:369   */\n          dup4\n            /* \"#utility.yul\":360:383   */\n          mcopy\n            /* \"#utility.yul\":417:418   */\n          0x00\n            /* \"#utility.yul\":408:414   */\n          dup4\n            /* \"#utility.yul\":403:406   */\n          dup4\n            /* \"#utility.yul\":399:415   */\n          add\n            /* \"#utility.yul\":392:419   */\n          mstore\n            /* \"#utility.yul\":287:426   */\n          pop\n          pop\n          pop\n          jump\t// out\n            /* \"#utility.yul\":432:534   */\n        tag_172:\n            /* \"#utility.yul\":473:479   */\n          0x00\n            /* \"#utility.yul\":524:526   */\n          0x1f\n            /* \"#utility.yul\":520:527   */\n          not\n            /* \"#utility.yul\":515:517   */\n          0x1f\n            /* \"#utility.yul\":508:513   */\n          dup4\n            /* \"#utility.yul\":504:518   */\n          add\n            /* \"#utility.yul\":500:528   */\n          and\n            /* \"#utility.yul\":490:528   */\n          swap1\n          pop\n            /* \"#utility.yul\":432:534   */\n          swap2\n          swap1\n          pop\n          jump\t// out\n            /* \"#utility.yul\":540:917   */\n        tag_173:\n            /* \"#utility.yul\":628:631   */\n          0x00\n            /* \"#utility.yul\":656:695   */\n          tag_211\n            /* \"#utility.yul\":689:694   */\n          dup3\n            /* \"#utility.yul\":656:695   */\n          tag_169\n          jump\t// in\n        tag_211:\n            /* \"#utility.yul\":711:782   */\n          tag_212\n            /* \"#utility.yul\":775:781   */\n          dup2\n            /* \"#utility.yul\":770:773   */\n          dup6\n            /* \"#utility.yul\":711:782   */\n          tag_170\n          jump\t// in\n        tag_212:\n            /* \"#utility.yul\":704:782   */\n          swap4\n          pop\n            /* \"#utility.yul\":791:856   */\n          tag_213\n            /* \"#utility.yul\":849:855   */\n          dup2\n            /* \"#utility.yul\":844:847   */\n          dup6\n            /* \"#utility.yul\":837:841   */\n          0x20\n            /* \"#utility.yul\":830:835   */\n          dup7\n            /* \"#utility.yul\":826:842   */\n          add\n            /* \"#utility.yul\":791:856   */\n          tag_171\n          jump\t// in\n        tag_213:\n            /* \"#utility.yul\":881:910   */\n          tag_214\n            /* \"#utility.yul\":903:909   */\n          dup2\n            /* \"#utility.yul\":881:910   */\n          tag_172\n          jump\t// in\n        tag_214:\n            /* \"#utility.yul\":876:879   */\n          dup5\n            /* \"#utility.yul\":872:911   */\n          add\n            /* \"#utility.yul\":865:911   */\n          swap2\n          pop\n            /* \"#utility.yul\":632:917   */\n          pop\n            /* \"#utility.yul\":540:917   */\n          swap3\n          swap2\n          pop\n          pop\n          jump\t// out\n            /* \"#utility.yul\":923:1236   */\n        tag_23:\n            /* \"#utility.yul\":1036:1040   */\n          0x00\n            /* \"#utility.yul\":1074:1076   */\n          0x20\n            /* \"#utility.yul\":1063:1072   */\n          dup3\n            /* \"#utility.yul\":1059:1077   */\n          add\n            /* \"#utility.yul\":1051:1077   */\n          swap1\n          pop\n            /* \"#utility.yul\":1123:1132   */\n          dup2\n            /* \"#utility.yul\":1117:1121   */\n          dup2\n            /* \"#utility.yul\":1113:1133   */\n          sub\n            /* \"#utility.yul\":1109:1110   */\n          0x00\n            /* \"#utility.yul\":1098:1107   */\n          dup4\n            /* \"#utility.yul\":1094:1111   */\n          add\n            /* \"#utility.yul\":1087:1134   */\n          mstore\n            /* \"#utility.yul\":1151:1229   */\n          tag_216\n            /* \"#utility.yul\":1224:1228   */\n          dup2\n            /* \"#utility.yul\":1215:1221   */\n          dup5\n            /* \"#utility.yul\":1151:1229   */\n          tag_173\n          jump\t// in\n        tag_216:\n            /* \"#utility.yul\":1143:1229   */\n          swap1\n          pop\n            /* \"#utility.yul\":923:1236   */\n          swap3\n          swap2\n          pop\n          pop\n          jump\t// out\n            /* \"#utility.yul\":1242:1317   */\n        tag_174:\n            /* \"#utility.yul\":1275:1281   */\n          0x00\n            /* \"#utility.yul\":1308:1310   */\n          0x40\n            /* \"#utility.yul\":1302:1311   */\n          mload\n            /* \"#utility.yul\":1292:1311   */\n          swap1\n          pop\n            /* \"#utility.yul\":1242:1317   */\n          swap1\n          jump\t// out\n            /* \"#utility.yul\":1323:1440   */\n        tag_175:\n            /* \"#utility.yul\":1432:1433   */\n          0x00\n            /* \"#utility.yul\":1429:1430   */\n          0x00\n            /* \"#utility.yul\":1422:1434   */\n          revert\n            /* \"#utility.yul\":1446:1563   */\n        tag_176:\n            /* \"#utility.yul\":1555:1556   */\n          0x00\n            /* \"#utility.yul\":1552:1553   */\n          0x00\n            /* \"#utility.yul\":1545:1557   */\n          revert\n            /* \"#utility.yul\":1569:1686   */\n        tag_177:\n            /* \"#utility.yul\":1678:1679   */\n          0x00\n            /* \"#utility.yul\":1675:1676   */\n          0x00\n            /* \"#utility.yul\":1668:1680   */\n          revert\n            /* \"#utility.yul\":1692:1809   */\n        tag_178:\n            /* \"#utility.yul\":1801:1802   */\n          0x00\n            /* \"#utility.yul\":1798:1799   */\n          0x00\n            /* \"#utility.yul\":1791:1803   */\n          revert\n            /* \"#utility.yul\":1815:1995   */\n        tag_179:\n            /* \"#utility.yul\":1863:1940   */\n          0x4e487b7100000000000000000000000000000000000000000000000000000000\n            /* \"#utility.yul\":1860:1861   */\n          0x00\n            /* \"#utility.yul\":1853:1941   */\n          mstore\n            /* \"#utility.yul\":1960:1964   */\n          0x41\n            /* \"#utility.yul\":1957:1958   */\n          0x04\n            /* \"#utility.yul\":1950:1965   */\n          mstore\n            /* \"#utility.yul\":1984:1988   */\n          0x24\n            /* \"#utility.yul\":1981:1982   */\n          0x00\n            /* \"#utility.yul\":1974:1989   */\n          revert\n            /* \"#utility.yul\":2001:2282   */\n        tag_180:\n            /* \"#utility.yul\":2084:2111   */\n          tag_224\n            /* \"#utility.yul\":2106:2110   */\n          dup3\n            /* \"#utility.yul\":2084:2111   */\n          tag_172\n          jump\t// in\n        tag_224:\n            /* \"#utility.yul\":2076:2082   */\n          dup2\n            /* \"#utility.yul\":2072:2112   */\n          add\n            /* \"#utility.yul\":2214:2220   */\n          dup2\n            /* \"#utility.yul\":2202:2212   */\n          dup2\n            /* \"#utility.yul\":2199:2221   */\n          lt\n            /* \"#utility.yul\":2178:2196   */\n          0xffffffffffffffff\n            /* \"#utility.yul\":2166:2176   */\n          dup3\n            /* \"#utility.yul\":2163:2197   */\n          gt\n            /* \"#utility.yul\":2160:2222   */\n          or\n            /* \"#utility.yul\":2157:2245   */\n          iszero\n          tag_225\n          jumpi\n            /* \"#utility.yul\":2225:2243   */\n          tag_226\n          tag_179\n          jump\t// in\n        tag_226:\n            /* \"#utility.yul\":2157:2245   */\n        tag_225:\n            /* \"#utility.yul\":2265:2275   */\n          dup1\n            /* \"#utility.yul\":2261:2263   */\n          0x40\n            /* \"#utility.yul\":2254:2276   */\n          mstore\n            /* \"#utility.yul\":2044:2282   */\n          pop\n            /* \"#utility.yul\":2001:2282   */\n          pop\n          pop\n          jump\t// out\n            /* \"#utility.yul\":2288:2417   */\n        tag_181:\n            /* \"#utility.yul\":2322:2328   */\n          0x00\n            /* \"#utility.yul\":2349:2369   */\n          tag_228\n          tag_174\n          jump\t// in\n        tag_228:\n            /* \"#utility.yul\":2339:2369   */\n          swap1\n          pop\n            /* \"#utility.yul\":2378:2411   */\n          tag_229\n            /* \"#utility.yul\":2406:2410   */\n          dup3\n            /* \"#utility.yul\":2398:2404   */\n          dup3\n            /* \"#utility.yul\":2378:2411   */\n          tag_180\n          jump\t// in\n        tag_229:\n            /* \"#utility.yul\":2288:2417   */\n          swap2\n          swap1\n          pop\n          jump\t// out\n            /* \"#utility.yul\":2423:2731   */\n        tag_182:\n            /* \"#utility.yul\":2485:2489   */\n          0x00\n            /* \"#utility.yul\":2575:2593   */\n          0xffffffffffffffff\n            /* \"#utility.yul\":2567:2573   */\n          dup3\n            /* \"#utility.yul\":2564:2594   */\n          gt\n            /* \"#utility.yul\":2561:2617   */\n          iszero\n          tag_231\n          jumpi\n            /* \"#utility.yul\":2597:2615   */\n          tag_232\n          tag_179\n          jump\t// in\n        tag_232:\n            /* \"#utility.yul\":2561:2617   */\n        tag_231:\n            /* \"#utility.yul\":2635:2664   */\n          tag_233\n            /* \"#utility.yul\":2657:2663   */\n          dup3\n            /* \"#utility.yul\":2635:2664   */\n          tag_172\n          jump\t// in\n        tag_233:\n            /* \"#utility.yul\":2627:2664   */\n          swap1\n          pop\n            /* \"#utility.yul\":2719:2723   */\n          0x20\n            /* \"#utility.yul\":2713:2717   */\n          dup2\n            /* \"#utility.yul\":2709:2724   */\n          add\n            /* \"#utility.yul\":2701:2724   */\n          swap1\n          pop\n            /* \"#utility.yul\":2423:2731   */\n          swap2\n          swap1\n          pop\n          jump\t// out\n            /* \"#utility.yul\":2737:2885   */\n        tag_183:\n            /* \"#utility.yul\":2835:2841   */\n          dup3\n            /* \"#utility.yul\":2830:2833   */\n          dup2\n            /* \"#utility.yul\":2825:2828   */\n          dup4\n            /* \"#utility.yul\":2812:2842   */\n          calldatacopy\n            /* \"#utility.yul\":2876:2877   */\n          0x00\n            /* \"#utility.yul\":2867:2873   */\n          dup4\n            /* \"#utility.yul\":2862:2865   */\n          dup4\n            /* \"#utility.yul\":2858:2874   */\n          add\n            /* \"#utility.yul\":2851:2878   */\n          mstore\n            /* \"#utility.yul\":2737:2885   */\n          pop\n          pop\n          pop\n          jump\t// out\n            /* \"#utility.yul\":2891:3316   */\n        tag_184:\n            /* \"#utility.yul\":2969:2974   */\n          0x00\n            /* \"#utility.yul\":2994:3060   */\n          tag_236\n            /* \"#utility.yul\":3010:3059   */\n          tag_237\n            /* \"#utility.yul\":3052:3058   */\n          dup5\n            /* \"#utility.yul\":3010:3059   */\n          tag_182\n          jump\t// in\n        tag_237:\n            /* \"#utility.yul\":2994:3060   */\n          tag_181\n          jump\t// in\n        tag_236:\n            /* \"#utility.yul\":2985:3060   */\n          swap1\n          pop\n            /* \"#utility.yul\":3083:3089   */\n          dup3\n            /* \"#utility.yul\":3076:3081   */\n          dup2\n            /* \"#utility.yul\":3069:3090   */\n          mstore\n            /* \"#utility.yul\":3121:3125   */\n          0x20\n            /* \"#utility.yul\":3114:3119   */\n          dup2\n            /* \"#utility.yul\":3110:3126   */\n          add\n            /* \"#utility.yul\":3159:3162   */\n          dup5\n            /* \"#utility.yul\":3150:3156   */\n          dup5\n            /* \"#utility.yul\":3145:3148   */\n          dup5\n            /* \"#utility.yul\":3141:3157   */\n          add\n            /* \"#utility.yul\":3138:3163   */\n          gt\n            /* \"#utility.yul\":3135:3247   */\n          iszero\n          tag_238\n          jumpi\n            /* \"#utility.yul\":3166:3245   */\n          tag_239\n          tag_178\n          jump\t// in\n        tag_239:\n            /* \"#utility.yul\":3135:3247   */\n        tag_238:\n            /* \"#utility.yul\":3256:3310   */\n          tag_240\n            /* \"#utility.yul\":3303:3309   */\n          dup5\n            /* \"#utility.yul\":3298:3301   */\n          dup3\n            /* \"#utility.yul\":3293:3296   */\n          dup6\n            /* \"#utility.yul\":3256:3310   */\n          tag_183\n          jump\t// in\n        tag_240:\n            /* \"#utility.yul\":2975:3316   */\n          pop\n            /* \"#utility.yul\":2891:3316   */\n          swap4\n          swap3\n          pop\n          pop\n          pop\n          jump\t// out\n            /* \"#utility.yul\":3336:3676   */\n        tag_185:\n            /* \"#utility.yul\":3392:3397   */\n          0x00\n            /* \"#utility.yul\":3441:3444   */\n          dup3\n            /* \"#utility.yul\":3434:3438   */\n          0x1f\n            /* \"#utility.yul\":3426:3432   */\n          dup4\n            /* \"#utility.yul\":3422:3439   */\n          add\n            /* \"#utility.yul\":3418:3445   */\n          slt\n            /* \"#utility.yul\":3408:3530   */\n          tag_242\n          jumpi\n            /* \"#utility.yul\":3449:3528   */\n          tag_243\n          tag_177\n          jump\t// in\n        tag_243:\n            /* \"#utility.yul\":3408:3530   */\n        tag_242:\n            /* \"#utility.yul\":3566:3572   */\n          dup2\n            /* \"#utility.yul\":3553:3573   */\n          calldataload\n            /* \"#utility.yul\":3591:3670   */\n          tag_244\n            /* \"#utility.yul\":3666:3669   */\n          dup5\n            /* \"#utility.yul\":3658:3664   */\n          dup3\n            /* \"#utility.yul\":3651:3655   */\n          0x20\n            /* \"#utility.yul\":3643:3649   */\n          dup7\n            /* \"#utility.yul\":3639:3656   */\n          add\n            /* \"#utility.yul\":3591:3670   */\n          tag_184\n          jump\t// in\n        tag_244:\n            /* \"#utility.yul\":3582:3670   */\n          swap2\n          pop\n            /* \"#utility.yul\":3398:3676   */\n          pop\n            /* \"#utility.yul\":3336:3676   */\n          swap3\n          swap2\n          pop\n          pop\n          jump\t// out\n            /* \"#utility.yul\":3682:3808   */\n        tag_186:\n            /* \"#utility.yul\":3719:3726   */\n          0x00\n            /* \"#utility.yul\":3759:3801   */\n          0xffffffffffffffffffffffffffffffffffffffff\n            /* \"#utility.yul\":3752:3757   */\n          dup3\n            /* \"#utility.yul\":3748:3802   */\n          and\n            /* \"#utility.yul\":3737:3802   */\n          swap1\n          pop\n            /* \"#utility.yul\":3682:3808   */\n          swap2\n          swap1\n          pop\n          jump\t// out\n            /* \"#utility.yul\":3814:3910   */\n        tag_187:\n            /* \"#utility.yul\":3851:3858   */\n          0x00\n            /* \"#utility.yul\":3880:3904   */\n          tag_247\n            /* \"#utility.yul\":3898:3903   */\n          dup3\n            /* \"#utility.yul\":3880:3904   */\n          tag_186\n          jump\t// in\n        tag_247:\n            /* \"#utility.yul\":3869:3904   */\n          swap1\n          pop\n            /* \"#utility.yul\":3814:3910   */\n          swap2\n          swap1\n          pop\n          jump\t// out\n            /* \"#utility.yul\":3916:4038   */\n        tag_188:\n            /* \"#utility.yul\":3989:4013   */\n          tag_249\n            /* \"#utility.yul\":4007:4012   */\n          dup2\n            /* \"#utility.yul\":3989:4013   */\n          tag_187\n          jump\t// in\n        tag_249:\n            /* \"#utility.yul\":3982:3987   */\n          dup2\n            /* \"#utility.yul\":3979:4014   */\n          eq\n            /* \"#utility.yul\":3969:4032   */\n          tag_250\n          jumpi\n            /* \"#utility.yul\":4028:4029   */\n          0x00\n            /* \"#utility.yul\":4025:4026   */\n          0x00\n            /* \"#utility.yul\":4018:4030   */\n          revert\n            /* \"#utility.yul\":3969:4032   */\n        tag_250:\n            /* \"#utility.yul\":3916:4038   */\n          pop\n          jump\t// out\n            /* \"#utility.yul\":4044:4183   */\n        tag_189:\n            /* \"#utility.yul\":4090:4095   */\n          0x00\n            /* \"#utility.yul\":4128:4134   */\n          dup2\n            /* \"#utility.yul\":4115:4135   */\n          calldataload\n            /* \"#utility.yul\":4106:4135   */\n          swap1\n          pop\n            /* \"#utility.yul\":4144:4177   */\n          tag_252\n            /* \"#utility.yul\":4171:4176   */\n          dup2\n            /* \"#utility.yul\":4144:4177   */\n          tag_188\n          jump\t// in\n        tag_252:\n            /* \"#utility.yul\":4044:4183   */\n          swap3\n          swap2\n          pop\n          pop\n          jump\t// out\n            /* \"#utility.yul\":4189:5168   */\n        tag_26:\n            /* \"#utility.yul\":4286:4292   */\n          0x00\n            /* \"#utility.yul\":4294:4300   */\n          0x00\n            /* \"#utility.yul\":4302:4308   */\n          0x00\n            /* \"#utility.yul\":4351:4353   */\n          0x60\n            /* \"#utility.yul\":4339:4348   */\n          dup5\n            /* \"#utility.yul\":4330:4337   */\n          dup7\n            /* \"#utility.yul\":4326:4349   */\n          sub\n            /* \"#utility.yul\":4322:4354   */\n          slt\n            /* \"#utility.yul\":4319:4438   */\n          iszero\n          tag_254\n          jumpi\n            /* \"#utility.yul\":4357:4436   */\n          tag_255\n          tag_175\n          jump\t// in\n        tag_255:\n            /* \"#utility.yul\":4319:4438   */\n        tag_254:\n            /* \"#utility.yul\":4505:4506   */\n          0x00\n            /* \"#utility.yul\":4494:4503   */\n          dup5\n            /* \"#utility.yul\":4490:4507   */\n          add\n            /* \"#utility.yul\":4477:4508   */\n          calldataload\n            /* \"#utility.yul\":4535:4553   */\n          0xffffffffffffffff\n            /* \"#utility.yul\":4527:4533   */\n          dup2\n            /* \"#utility.yul\":4524:4554   */\n          gt\n            /* \"#utility.yul\":4521:4638   */\n          iszero\n          tag_256\n          jumpi\n            /* \"#utility.yul\":4557:4636   */\n          tag_257\n          tag_176\n          jump\t// in\n        tag_257:\n            /* \"#utility.yul\":4521:4638   */\n        tag_256:\n            /* \"#utility.yul\":4662:4725   */\n          tag_258\n            /* \"#utility.yul\":4717:4724   */\n          dup7\n            /* \"#utility.yul\":4708:4714   */\n          dup3\n            /* \"#utility.yul\":4697:4706   */\n          dup8\n            /* \"#utility.yul\":4693:4715   */\n          add\n            /* \"#utility.yul\":4662:4725   */\n          tag_185\n          jump\t// in\n        tag_258:\n            /* \"#utility.yul\":4652:4725   */\n          swap4\n          pop\n            /* \"#utility.yul\":4448:4735   */\n          pop\n            /* \"#utility.yul\":4802:4804   */\n          0x20\n            /* \"#utility.yul\":4791:4800   */\n          dup5\n            /* \"#utility.yul\":4787:4805   */\n          add\n            /* \"#utility.yul\":4774:4806   */\n          calldataload\n            /* \"#utility.yul\":4833:4851   */\n          0xffffffffffffffff\n            /* \"#utility.yul\":4825:4831   */\n          dup2\n            /* \"#utility.yul\":4822:4852   */\n          gt\n            /* \"#utility.yul\":4819:4936   */\n          iszero\n          tag_259\n          jumpi\n            /* \"#utility.yul\":4855:4934   */\n          tag_260\n          tag_176\n          jump\t// in\n        tag_260:\n            /* \"#utility.yul\":4819:4936   */\n        tag_259:\n            /* \"#utility.yul\":4960:5023   */\n          tag_261\n            /* \"#utility.yul\":5015:5022   */\n          dup7\n            /* \"#utility.yul\":5006:5012   */\n          dup3\n            /* \"#utility.yul\":4995:5004   */\n          dup8\n            /* \"#utility.yul\":4991:5013   */\n          add\n            /* \"#utility.yul\":4960:5023   */\n          tag_185\n          jump\t// in\n        tag_261:\n            /* \"#utility.yul\":4950:5023   */\n          swap3\n          pop\n            /* \"#utility.yul\":4745:5033   */\n          pop\n            /* \"#utility.yul\":5072:5074   */\n          0x40\n            /* \"#utility.yul\":5098:5151   */\n          tag_262\n            /* \"#utility.yul\":5143:5150   */\n          dup7\n            /* \"#utility.yul\":5134:5140   */\n          dup3\n            /* \"#utility.yul\":5123:5132   */\n          dup8\n            /* \"#utility.yul\":5119:5141   */\n          add\n            /* \"#utility.yul\":5098:5151   */\n          tag_189\n          jump\t// in\n        tag_262:\n            /* \"#utility.yul\":5088:5151   */\n          swap2\n          pop\n            /* \"#utility.yul\":5043:5161   */\n          pop\n            /* \"#utility.yul\":4189:5168   */\n          swap3\n          pop\n          swap3\n          pop\n          swap3\n          jump\t// out\n            /* \"#utility.yul\":5174:5251   */\n        tag_190:\n            /* \"#utility.yul\":5211:5218   */\n          0x00\n            /* \"#utility.yul\":5240:5245   */\n          dup2\n            /* \"#utility.yul\":5229:5245   */\n          swap1\n          pop\n            /* \"#utility.yul\":5174:5251   */\n          swap2\n          swap1\n          pop\n          jump\t// out\n            /* \"#utility.yul\":5257:5379   */\n        tag_191:\n            /* \"#utility.yul\":5330:5354   */\n          tag_265\n            /* \"#utility.yul\":5348:5353   */\n          dup2\n            /* \"#utility.yul\":5330:5354   */\n          tag_190\n          jump\t// in\n        tag_265:\n            /* \"#utility.yul\":5323:5328   */\n          dup2\n            /* \"#utility.yul\":5320:5355   */\n          eq\n            /* \"#utility.yul\":5310:5373   */\n          tag_266\n          jumpi\n            /* \"#utility.yul\":5369:5370   */\n          0x00\n            /* \"#utility.yul\":5366:5367   */\n          0x00\n            /* \"#utility.yul\":5359:5371   */\n          revert\n            /* \"#utility.yul\":5310:5373   */\n        tag_266:\n            /* \"#utility.yul\":5257:5379   */\n          pop\n          jump\t// out\n            /* \"#utility.yul\":5385:5524   */\n        tag_192:\n            /* \"#utility.yul\":5431:5436   */\n          0x00\n            /* \"#utility.yul\":5469:5475   */\n          dup2\n            /* \"#utility.yul\":5456:5476   */\n          calldataload\n            /* \"#utility.yul\":5447:5476   */\n          swap1\n          pop\n            /* \"#utility.yul\":5485:5518   */\n          tag_268\n            /* \"#utility.yul\":5512:5517   */\n          dup2\n            /* \"#utility.yul\":5485:5518   */\n          tag_191\n          jump\t// in\n        tag_268:\n            /* \"#utility.yul\":5385:5524   */\n          swap3\n          swap2\n          pop\n          pop\n          jump\t// out\n            /* \"#utility.yul\":5530:6004   */\n        tag_30:\n            /* \"#utility.yul\":5598:5604   */\n          0x00\n            /* \"#utility.yul\":5606:5612   */\n          0x00\n            /* \"#utility.yul\":5655:5657   */\n          0x40\n            /* \"#utility.yul\":5643:5652   */\n          dup4\n            /* \"#utility.yul\":5634:5641   */\n          dup6\n            /* \"#utility.yul\":5630:5653   */\n          sub\n            /* \"#utility.yul\":5626:5658   */\n          slt\n            /* \"#utility.yul\":5623:5742   */\n          iszero\n          tag_270\n          jumpi\n            /* \"#utility.yul\":5661:5740   */\n          tag_271\n          tag_175\n          jump\t// in\n        tag_271:\n            /* \"#utility.yul\":5623:5742   */\n        tag_270:\n            /* \"#utility.yul\":5781:5782   */\n          0x00\n            /* \"#utility.yul\":5806:5859   */\n          tag_272\n            /* \"#utility.yul\":5851:5858   */\n          dup6\n            /* \"#utility.yul\":5842:5848   */\n          dup3\n            /* \"#utility.yul\":5831:5840   */\n          dup7\n            /* \"#utility.yul\":5827:5849   */\n          add\n            /* \"#utility.yul\":5806:5859   */\n          tag_189\n          jump\t// in\n        tag_272:\n            /* \"#utility.yul\":5796:5859   */\n          swap3\n          pop\n            /* \"#utility.yul\":5752:5869   */\n          pop\n            /* \"#utility.yul\":5908:5910   */\n          0x20\n            /* \"#utility.yul\":5934:5987   */\n          tag_273\n            /* \"#utility.yul\":5979:5986   */\n          dup6\n            /* \"#utility.yul\":5970:5976   */\n          dup3\n            /* \"#utility.yul\":5959:5968   */\n          dup7\n            /* \"#utility.yul\":5955:5977   */\n          add\n            /* \"#utility.yul\":5934:5987   */\n          tag_192\n          jump\t// in\n        tag_273:\n            /* \"#utility.yul\":5924:5987   */\n          swap2\n          pop\n            /* \"#utility.yul\":5879:5997   */\n          pop\n            /* \"#utility.yul\":5530:6004   */\n          swap3\n          pop\n          swap3\n          swap1\n          pop\n          jump\t// out\n            /* \"#utility.yul\":6010:6100   */\n        tag_193:\n            /* \"#utility.yul\":6044:6051   */\n          0x00\n            /* \"#utility.yul\":6087:6092   */\n          dup2\n            /* \"#utility.yul\":6080:6093   */\n          iszero\n            /* \"#utility.yul\":6073:6094   */\n          iszero\n            /* \"#utility.yul\":6062:6094   */\n          swap1\n          pop\n            /* \"#utility.yul\":6010:6100   */\n          swap2\n          swap1\n          pop\n          jump\t// out\n            /* \"#utility.yul\":6106:6215   */\n        tag_194:\n            /* \"#utility.yul\":6187:6208   */\n          tag_276\n            /* \"#utility.yul\":6202:6207   */\n          dup2\n            /* \"#utility.yul\":6187:6208   */\n          tag_193\n          jump\t// in\n        tag_276:\n            /* \"#utility.yul\":6182:6185   */\n          dup3\n            /* \"#utility.yul\":6175:6209   */\n          mstore\n            /* \"#utility.yul\":6106:6215   */\n          pop\n          pop\n          jump\t// out\n            /* \"#utility.yul\":6221:6431   */\n        tag_33:\n            /* \"#utility.yul\":6308:6312   */\n          0x00\n            /* \"#utility.yul\":6346:6348   */\n          0x20\n            /* \"#utility.yul\":6335:6344   */\n          dup3\n            /* \"#utility.yul\":6331:6349   */\n          add\n            /* \"#utility.yul\":6323:6349   */\n          swap1\n          pop\n            /* \"#utility.yul\":6359:6424   */\n          tag_278\n            /* \"#utility.yul\":6421:6422   */\n          0x00\n            /* \"#utility.yul\":6410:6419   */\n          dup4\n            /* \"#utility.yul\":6406:6423   */\n          add\n            /* \"#utility.yul\":6397:6403   */\n          dup5\n            /* \"#utility.yul\":6359:6424   */\n          tag_194\n          jump\t// in\n        tag_278:\n            /* \"#utility.yul\":6221:6431   */\n          swap3\n          swap2\n          pop\n          pop\n          jump\t// out\n            /* \"#utility.yul\":6437:6555   */\n        tag_195:\n            /* \"#utility.yul\":6524:6548   */\n          tag_280\n            /* \"#utility.yul\":6542:6547   */\n          dup2\n            /* \"#utility.yul\":6524:6548   */\n          tag_190\n          jump\t// in\n        tag_280:\n            /* \"#utility.yul\":6519:6522   */\n          dup3\n            /* \"#utility.yul\":6512:6549   */\n          mstore\n            /* \"#utility.yul\":6437:6555   */\n          pop\n          pop\n          jump\t// out\n            /* \"#utility.yul\":6561:6783   */\n        tag_40:\n            /* \"#utility.yul\":6654:6658   */\n          0x00\n            /* \"#utility.yul\":6692:6694   */\n          0x20\n            /* \"#utility.yul\":6681:6690   */\n          dup3\n            /* \"#utility.yul\":6677:6695   */\n          add\n            /* \"#utility.yul\":6669:6695   */\n          swap1\n          pop\n            /* \"#utility.yul\":6705:6776   */\n          tag_282\n            /* \"#utility.yul\":6773:6774   */\n          0x00\n            /* \"#utility.yul\":6762:6771   */\n          dup4\n            /* \"#utility.yul\":6758:6775   */\n          add\n            /* \"#utility.yul\":6749:6755   */\n          dup5\n            /* \"#utility.yul\":6705:6776   */\n          tag_195\n          jump\t// in\n        tag_282:\n            /* \"#utility.yul\":6561:6783   */\n          swap3\n          swap2\n          pop\n          pop\n          jump\t// out\n            /* \"#utility.yul\":6789:7408   */\n        tag_43:\n            /* \"#utility.yul\":6866:6872   */\n          0x00\n            /* \"#utility.yul\":6874:6880   */\n          0x00\n            /* \"#utility.yul\":6882:6888   */\n          0x00\n            /* \"#utility.yul\":6931:6933   */\n          0x60\n            /* \"#utility.yul\":6919:6928   */\n          dup5\n            /* \"#utility.yul\":6910:6917   */\n          dup7\n            /* \"#utility.yul\":6906:6929   */\n          sub\n            /* \"#utility.yul\":6902:6934   */\n          slt\n            /* \"#utility.yul\":6899:7018   */\n          iszero\n          tag_284\n          jumpi\n            /* \"#utility.yul\":6937:7016   */\n          tag_285\n          tag_175\n          jump\t// in\n        tag_285:\n            /* \"#utility.yul\":6899:7018   */\n        tag_284:\n            /* \"#utility.yul\":7057:7058   */\n          0x00\n            /* \"#utility.yul\":7082:7135   */\n          tag_286\n            /* \"#utility.yul\":7127:7134   */\n          dup7\n            /* \"#utility.yul\":7118:7124   */\n          dup3\n            /* \"#utility.yul\":7107:7116   */\n          dup8\n            /* \"#utility.yul\":7103:7125   */\n          add\n            /* \"#utility.yul\":7082:7135   */\n          tag_189\n          jump\t// in\n        tag_286:\n            /* \"#utility.yul\":7072:7135   */\n          swap4\n          pop\n            /* \"#utility.yul\":7028:7145   */\n          pop\n            /* \"#utility.yul\":7184:7186   */\n          0x20\n            /* \"#utility.yul\":7210:7263   */\n          tag_287\n            /* \"#utility.yul\":7255:7262   */\n          dup7\n            /* \"#utility.yul\":7246:7252   */\n          dup3\n            /* \"#utility.yul\":7235:7244   */\n          dup8\n            /* \"#utility.yul\":7231:7253   */\n          add\n            /* \"#utility.yul\":7210:7263   */\n          tag_189\n          jump\t// in\n        tag_287:\n            /* \"#utility.yul\":7200:7263   */\n          swap3\n          pop\n            /* \"#utility.yul\":7155:7273   */\n          pop\n            /* \"#utility.yul\":7312:7314   */\n          0x40\n            /* \"#utility.yul\":7338:7391   */\n          tag_288\n            /* \"#utility.yul\":7383:7390   */\n          dup7\n            /* \"#utility.yul\":7374:7380   */\n          dup3\n            /* \"#utility.yul\":7363:7372   */\n          dup8\n            /* \"#utility.yul\":7359:7381   */\n          add\n            /* \"#utility.yul\":7338:7391   */\n          tag_192\n          jump\t// in\n        tag_288:\n            /* \"#utility.yul\":7328:7391   */\n          swap2\n          pop\n            /* \"#utility.yul\":7283:7401   */\n          pop\n            /* \"#utility.yul\":6789:7408   */\n          swap3\n          pop\n          swap3\n          pop\n          swap3\n          jump\t// out\n            /* \"#utility.yul\":7414:7500   */\n        tag_196:\n            /* \"#utility.yul\":7449:7456   */\n          0x00\n            /* \"#utility.yul\":7489:7493   */\n          0xff\n            /* \"#utility.yul\":7482:7487   */\n          dup3\n            /* \"#utility.yul\":7478:7494   */\n          and\n            /* \"#utility.yul\":7467:7494   */\n          swap1\n          pop\n            /* \"#utility.yul\":7414:7500   */\n          swap2\n          swap1\n          pop\n          jump\t// out\n            /* \"#utility.yul\":7506:7618   */\n        tag_197:\n            /* \"#utility.yul\":7589:7611   */\n          tag_291\n            /* \"#utility.yul\":7605:7610   */\n          dup2\n            /* \"#utility.yul\":7589:7611   */\n          tag_196\n          jump\t// in\n        tag_291:\n            /* \"#utility.yul\":7584:7587   */\n          dup3\n            /* \"#utility.yul\":7577:7612   */\n          mstore\n            /* \"#utility.yul\":7506:7618   */\n          pop\n          pop\n          jump\t// out\n            /* \"#utility.yul\":7624:7838   */\n        tag_49:\n            /* \"#utility.yul\":7713:7717   */\n          0x00\n            /* \"#utility.yul\":7751:7753   */\n          0x20\n            /* \"#utility.yul\":7740:7749   */\n          dup3\n            /* \"#utility.yul\":7736:7754   */\n          add\n            /* \"#utility.yul\":7728:7754   */\n          swap1\n          pop\n            /* \"#utility.yul\":7764:7831   */\n          tag_293\n            /* \"#utility.yul\":7828:7829   */\n          0x00\n            /* \"#utility.yul\":7817:7826   */\n          dup4\n            /* \"#utility.yul\":7813:7830   */\n          add\n            /* \"#utility.yul\":7804:7810   */\n          dup5\n            /* \"#utility.yul\":7764:7831   */\n          tag_197\n          jump\t// in\n        tag_293:\n            /* \"#utility.yul\":7624:7838   */\n          swap3\n          swap2\n          pop\n          pop\n          jump\t// out\n            /* \"#utility.yul\":7844:7962   */\n        tag_198:\n            /* \"#utility.yul\":7931:7955   */\n          tag_295\n            /* \"#utility.yul\":7949:7954   */\n          dup2\n            /* \"#utility.yul\":7931:7955   */\n          tag_187\n          jump\t// in\n        tag_295:\n            /* \"#utility.yul\":7926:7929   */\n          dup3\n            /* \"#utility.yul\":7919:7956   */\n          mstore\n            /* \"#utility.yul\":7844:7962   */\n          pop\n          pop\n          jump\t// out\n            /* \"#utility.yul\":7968:8190   */\n        tag_56:\n            /* \"#utility.yul\":8061:8065   */\n          0x00\n            /* \"#utility.yul\":8099:8101   */\n          0x20\n            /* \"#utility.yul\":8088:8097   */\n          dup3\n            /* \"#utility.yul\":8084:8102   */\n          add\n            /* \"#utility.yul\":8076:8102   */\n          swap1\n          pop\n            /* \"#utility.yul\":8112:8183   */\n          tag_297\n            /* \"#utility.yul\":8180:8181   */\n          0x00\n            /* \"#utility.yul\":8169:8178   */\n          dup4\n            /* \"#utility.yul\":8165:8182   */\n          add\n            /* \"#utility.yul\":8156:8162   */\n          dup5\n            /* \"#utility.yul\":8112:8183   */\n          tag_198\n          jump\t// in\n        tag_297:\n            /* \"#utility.yul\":7968:8190   */\n          swap3\n          swap2\n          pop\n          pop\n          jump\t// out\n            /* \"#utility.yul\":8196:8525   */\n        tag_59:\n            /* \"#utility.yul\":8255:8261   */\n          0x00\n            /* \"#utility.yul\":8304:8306   */\n          0x20\n            /* \"#utility.yul\":8292:8301   */\n          dup3\n            /* \"#utility.yul\":8283:8290   */\n          dup5\n            /* \"#utility.yul\":8279:8302   */\n          sub\n            /* \"#utility.yul\":8275:8307   */\n          slt\n            /* \"#utility.yul\":8272:8391   */\n          iszero\n          tag_299\n          jumpi\n            /* \"#utility.yul\":8310:8389   */\n          tag_300\n          tag_175\n          jump\t// in\n        tag_300:\n            /* \"#utility.yul\":8272:8391   */\n        tag_299:\n            /* \"#utility.yul\":8430:8431   */\n          0x00\n            /* \"#utility.yul\":8455:8508   */\n          tag_301\n            /* \"#utility.yul\":8500:8507   */\n          dup5\n            /* \"#utility.yul\":8491:8497   */\n          dup3\n            /* \"#utility.yul\":8480:8489   */\n          dup6\n            /* \"#utility.yul\":8476:8498   */\n          add\n            /* \"#utility.yul\":8455:8508   */\n          tag_189\n          jump\t// in\n        tag_301:\n            /* \"#utility.yul\":8445:8508   */\n          swap2\n          pop\n            /* \"#utility.yul\":8401:8518   */\n          pop\n            /* \"#utility.yul\":8196:8525   */\n          swap3\n          swap2\n          pop\n          pop\n          jump\t// out\n            /* \"#utility.yul\":8531:9005   */\n        tag_74:\n            /* \"#utility.yul\":8599:8605   */\n          0x00\n            /* \"#utility.yul\":8607:8613   */\n          0x00\n            /* \"#utility.yul\":8656:8658   */\n          0x40\n            /* \"#utility.yul\":8644:8653   */\n          dup4\n            /* \"#utility.yul\":8635:8642   */\n          dup6\n            /* \"#utility.yul\":8631:8654   */\n          sub\n            /* \"#utility.yul\":8627:8659   */\n          slt\n            /* \"#utility.yul\":8624:8743   */\n          iszero\n          tag_303\n          jumpi\n            /* \"#utility.yul\":8662:8741   */\n          tag_304\n          tag_175\n          jump\t// in\n        tag_304:\n            /* \"#utility.yul\":8624:8743   */\n        tag_303:\n            /* \"#utility.yul\":8782:8783   */\n          0x00\n            /* \"#utility.yul\":8807:8860   */\n          tag_305\n            /* \"#utility.yul\":8852:8859   */\n          dup6\n            /* \"#utility.yul\":8843:8849   */\n          dup3\n            /* \"#utility.yul\":8832:8841   */\n          dup7\n            /* \"#utility.yul\":8828:8850   */\n          add\n            /* \"#utility.yul\":8807:8860   */\n          tag_189\n          jump\t// in\n        tag_305:\n            /* \"#utility.yul\":8797:8860   */\n          swap3\n          pop\n            /* \"#utility.yul\":8753:8870   */\n          pop\n            /* \"#utility.yul\":8909:8911   */\n          0x20\n            /* \"#utility.yul\":8935:8988   */\n          tag_306\n            /* \"#utility.yul\":8980:8987   */\n          dup6\n            /* \"#utility.yul\":8971:8977   */\n          dup3\n            /* \"#utility.yul\":8960:8969   */\n          dup7\n            /* \"#utility.yul\":8956:8978   */\n          add\n            /* \"#utility.yul\":8935:8988   */\n          tag_189\n          jump\t// in\n        tag_306:\n            /* \"#utility.yul\":8925:8988   */\n          swap2\n          pop\n            /* \"#utility.yul\":8880:8998   */\n          pop\n            /* \"#utility.yul\":8531:9005   */\n          swap3\n          pop\n          swap3\n          swap1\n          pop\n          jump\t// out\n            /* \"#utility.yul\":9011:9191   */\n        tag_199:\n            /* \"#utility.yul\":9059:9136   */\n          0x4e487b7100000000000000000000000000000000000000000000000000000000\n            /* \"#utility.yul\":9056:9057   */\n          0x00\n            /* \"#utility.yul\":9049:9137   */\n          mstore\n            /* \"#utility.yul\":9156:9160   */\n          0x22\n            /* \"#utility.yul\":9153:9154   */\n          0x04\n            /* \"#utility.yul\":9146:9161   */\n          mstore\n            /* \"#utility.yul\":9180:9184   */\n          0x24\n            /* \"#utility.yul\":9177:9178   */\n          0x00\n            /* \"#utility.yul\":9170:9185   */\n          revert\n            /* \"#utility.yul\":9197:9517   */\n        tag_79:\n            /* \"#utility.yul\":9241:9247   */\n          0x00\n            /* \"#utility.yul\":9278:9279   */\n          0x02\n            /* \"#utility.yul\":9272:9276   */\n          dup3\n            /* \"#utility.yul\":9268:9280   */\n          div\n            /* \"#utility.yul\":9258:9280   */\n          swap1\n          pop\n            /* \"#utility.yul\":9325:9326   */\n          0x01\n            /* \"#utility.yul\":9319:9323   */\n          dup3\n            /* \"#utility.yul\":9315:9327   */\n          and\n            /* \"#utility.yul\":9346:9364   */\n          dup1\n            /* \"#utility.yul\":9336:9417   */\n          tag_309\n          jumpi\n            /* \"#utility.yul\":9402:9406   */\n          0x7f\n            /* \"#utility.yul\":9394:9400   */\n          dup3\n            /* \"#utility.yul\":9390:9407   */\n          and\n            /* \"#utility.yul\":9380:9407   */\n          swap2\n          pop\n            /* \"#utility.yul\":9336:9417   */\n        tag_309:\n            /* \"#utility.yul\":9464:9466   */\n          0x20\n            /* \"#utility.yul\":9456:9462   */\n          dup3\n            /* \"#utility.yul\":9453:9467   */\n          lt\n            /* \"#utility.yul\":9433:9451   */\n          dup2\n            /* \"#utility.yul\":9430:9468   */\n          sub\n            /* \"#utility.yul\":9427:9511   */\n          tag_310\n          jumpi\n            /* \"#utility.yul\":9483:9501   */\n          tag_311\n          tag_199\n          jump\t// in\n        tag_311:\n            /* \"#utility.yul\":9427:9511   */\n        tag_310:\n            /* \"#utility.yul\":9248:9517   */\n          pop\n            /* \"#utility.yul\":9197:9517   */\n          swap2\n          swap1\n          pop\n          jump\t// out\n            /* \"#utility.yul\":9523:9685   */\n        tag_200:\n            /* \"#utility.yul\":9663:9677   */\n          0x414c52454144595f494e49540000000000000000000000000000000000000000\n            /* \"#utility.yul\":9659:9660   */\n          0x00\n            /* \"#utility.yul\":9651:9657   */\n          dup3\n            /* \"#utility.yul\":9647:9661   */\n          add\n            /* \"#utility.yul\":9640:9678   */\n          mstore\n            /* \"#utility.yul\":9523:9685   */\n          pop\n          jump\t// out\n            /* \"#utility.yul\":9691:10057   */\n        tag_201:\n            /* \"#utility.yul\":9833:9836   */\n          0x00\n            /* \"#utility.yul\":9854:9921   */\n          tag_314\n            /* \"#utility.yul\":9918:9920   */\n          0x0c\n            /* \"#utility.yul\":9913:9916   */\n          dup4\n            /* \"#utility.yul\":9854:9921   */\n          tag_170\n          jump\t// in\n        tag_314:\n            /* \"#utility.yul\":9847:9921   */\n          swap2\n          pop\n            /* \"#utility.yul\":9930:10023   */\n          tag_315\n            /* \"#utility.yul\":10019:10022   */\n          dup3\n            /* \"#utility.yul\":9930:10023   */\n          tag_200\n          jump\t// in\n        tag_315:\n            /* \"#utility.yul\":10048:10050   */\n          0x20\n            /* \"#utility.yul\":10043:10046   */\n          dup3\n            /* \"#utility.yul\":10039:10051   */\n          add\n            /* \"#utility.yul\":10032:10051   */\n          swap1\n          pop\n            /* \"#utility.yul\":9691:10057   */\n          swap2\n          swap1\n          pop\n          jump\t// out\n            /* \"#utility.yul\":10063:10482   */\n        tag_87:\n            /* \"#utility.yul\":10229:10233   */\n          0x00\n            /* \"#utility.yul\":10267:10269   */\n          0x20\n            /* \"#utility.yul\":10256:10265   */\n          dup3\n            /* \"#utility.yul\":10252:10270   */\n          add\n            /* \"#utility.yul\":10244:10270   */\n          swap1\n          pop\n            /* \"#utility.yul\":10316:10325   */\n          dup2\n            /* \"#utility.yul\":10310:10314   */\n          dup2\n            /* \"#utility.yul\":10306:10326   */\n          sub\n            /* \"#utility.yul\":10302:10303   */\n          0x00\n            /* \"#utility.yul\":10291:10300   */\n          dup4\n            /* \"#utility.yul\":10287:10304   */\n          add\n            /* \"#utility.yul\":10280:10327   */\n          mstore\n            /* \"#utility.yul\":10344:10475   */\n          tag_317\n            /* \"#utility.yul\":10470:10474   */\n          dup2\n            /* \"#utility.yul\":10344:10475   */\n          tag_201\n          jump\t// in\n        tag_317:\n            /* \"#utility.yul\":10336:10475   */\n          swap1\n          pop\n            /* \"#utility.yul\":10063:10482   */\n          swap2\n          swap1\n          pop\n          jump\t// out\n            /* \"#utility.yul\":10488:10649   */\n        tag_202:\n            /* \"#utility.yul\":10628:10641   */\n          0x4e4f545f4d414e41474552000000000000000000000000000000000000000000\n            /* \"#utility.yul\":10624:10625   */\n          0x00\n            /* \"#utility.yul\":10616:10622   */\n          dup3\n            /* \"#utility.yul\":10612:10626   */\n          add\n            /* \"#utility.yul\":10605:10642   */\n          mstore\n            /* \"#utility.yul\":10488:10649   */\n          pop\n          jump\t// out\n            /* \"#utility.yul\":10655:11021   */\n        tag_203:\n            /* \"#utility.yul\":10797:10800   */\n          0x00\n            /* \"#utility.yul\":10818:10885   */\n          tag_320\n            /* \"#utility.yul\":10882:10884   */\n          0x0b\n            /* \"#utility.yul\":10877:10880   */\n          dup4\n            /* \"#utility.yul\":10818:10885   */\n          tag_170\n          jump\t// in\n        tag_320:\n            /* \"#utility.yul\":10811:10885   */\n          swap2\n          pop\n            /* \"#utility.yul\":10894:10987   */\n          tag_321\n            /* \"#utility.yul\":10983:10986   */\n          dup3\n            /* \"#utility.yul\":10894:10987   */\n          tag_202\n          jump\t// in\n        tag_321:\n            /* \"#utility.yul\":11012:11014   */\n          0x20\n            /* \"#utility.yul\":11007:11010   */\n          dup3\n            /* \"#utility.yul\":11003:11015   */\n          add\n            /* \"#utility.yul\":10996:11015   */\n          swap1\n          pop\n            /* \"#utility.yul\":10655:11021   */\n          swap2\n          swap1\n          pop\n          jump\t// out\n            /* \"#utility.yul\":11027:11446   */\n        tag_105:\n            /* \"#utility.yul\":11193:11197   */\n          0x00\n            /* \"#utility.yul\":11231:11233   */\n          0x20\n            /* \"#utility.yul\":11220:11229   */\n          dup3\n            /* \"#utility.yul\":11216:11234   */\n          add\n            /* \"#utility.yul\":11208:11234   */\n          swap1\n          pop\n            /* \"#utility.yul\":11280:11289   */\n          dup2\n            /* \"#utility.yul\":11274:11278   */\n          dup2\n            /* \"#utility.yul\":11270:11290   */\n          sub\n            /* \"#utility.yul\":11266:11267   */\n          0x00\n            /* \"#utility.yul\":11255:11264   */\n          dup4\n            /* \"#utility.yul\":11251:11268   */\n          add\n            /* \"#utility.yul\":11244:11291   */\n          mstore\n            /* \"#utility.yul\":11308:11439   */\n          tag_323\n            /* \"#utility.yul\":11434:11438   */\n          dup2\n            /* \"#utility.yul\":11308:11439   */\n          tag_203\n          jump\t// in\n        tag_323:\n            /* \"#utility.yul\":11300:11439   */\n          swap1\n          pop\n            /* \"#utility.yul\":11027:11446   */\n          swap2\n          swap1\n          pop\n          jump\t// out\n            /* \"#utility.yul\":11452:11894   */\n        tag_135:\n            /* \"#utility.yul\":11601:11605   */\n          0x00\n            /* \"#utility.yul\":11639:11641   */\n          0x60\n            /* \"#utility.yul\":11628:11637   */\n          dup3\n            /* \"#utility.yul\":11624:11642   */\n          add\n            /* \"#utility.yul\":11616:11642   */\n          swap1\n          pop\n            /* \"#utility.yul\":11652:11723   */\n          tag_325\n            /* \"#utility.yul\":11720:11721   */\n          0x00\n            /* \"#utility.yul\":11709:11718   */\n          dup4\n            /* \"#utility.yul\":11705:11722   */\n          add\n            /* \"#utility.yul\":11696:11702   */\n          dup7\n            /* \"#utility.yul\":11652:11723   */\n          tag_198\n          jump\t// in\n        tag_325:\n            /* \"#utility.yul\":11733:11805   */\n          tag_326\n            /* \"#utility.yul\":11801:11803   */\n          0x20\n            /* \"#utility.yul\":11790:11799   */\n          dup4\n            /* \"#utility.yul\":11786:11804   */\n          add\n            /* \"#utility.yul\":11777:11783   */\n          dup6\n            /* \"#utility.yul\":11733:11805   */\n          tag_195\n          jump\t// in\n        tag_326:\n            /* \"#utility.yul\":11815:11887   */\n          tag_327\n            /* \"#utility.yul\":11883:11885   */\n          0x40\n            /* \"#utility.yul\":11872:11881   */\n          dup4\n            /* \"#utility.yul\":11868:11886   */\n          add\n            /* \"#utility.yul\":11859:11865   */\n          dup5\n            /* \"#utility.yul\":11815:11887   */\n          tag_195\n          jump\t// in\n        tag_327:\n            /* \"#utility.yul\":11452:11894   */\n          swap5\n          swap4\n          pop\n          pop\n          pop\n          pop\n          jump\t// out\n            /* \"#utility.yul\":11900:12080   */\n        tag_204:\n            /* \"#utility.yul\":11948:12025   */\n          0x4e487b7100000000000000000000000000000000000000000000000000000000\n            /* \"#utility.yul\":11945:11946   */\n          0x00\n            /* \"#utility.yul\":11938:12026   */\n          mstore\n            /* \"#utility.yul\":12045:12049   */\n          0x11\n            /* \"#utility.yul\":12042:12043   */\n          0x04\n            /* \"#utility.yul\":12035:12050   */\n          mstore\n            /* \"#utility.yul\":12069:12073   */\n          0x24\n            /* \"#utility.yul\":12066:12067   */\n          0x00\n            /* \"#utility.yul\":12059:12074   */\n          revert\n            /* \"#utility.yul\":12086:12277   */\n        tag_162:\n            /* \"#utility.yul\":12126:12129   */\n          0x00\n            /* \"#utility.yul\":12145:12165   */\n          tag_330\n            /* \"#utility.yul\":12163:12164   */\n          dup3\n            /* \"#utility.yul\":12145:12165   */\n          tag_190\n          jump\t// in\n        tag_330:\n            /* \"#utility.yul\":12140:12165   */\n          swap2\n          pop\n            /* \"#utility.yul\":12179:12199   */\n          tag_331\n            /* \"#utility.yul\":12197:12198   */\n          dup4\n            /* \"#utility.yul\":12179:12199   */\n          tag_190\n          jump\t// in\n        tag_331:\n            /* \"#utility.yul\":12174:12199   */\n          swap3\n          pop\n            /* \"#utility.yul\":12222:12223   */\n          dup3\n            /* \"#utility.yul\":12219:12220   */\n          dup3\n            /* \"#utility.yul\":12215:12224   */\n          add\n            /* \"#utility.yul\":12208:12224   */\n          swap1\n          pop\n            /* \"#utility.yul\":12243:12246   */\n          dup1\n            /* \"#utility.yul\":12240:12241   */\n          dup3\n            /* \"#utility.yul\":12237:12247   */\n          gt\n            /* \"#utility.yul\":12234:12270   */\n          iszero\n          tag_332\n          jumpi\n            /* \"#utility.yul\":12250:12268   */\n          tag_333\n          tag_204\n          jump\t// in\n        tag_333:\n            /* \"#utility.yul\":12234:12270   */\n        tag_332:\n            /* \"#utility.yul\":12086:12277   */\n          swap3\n          swap2\n          pop\n          pop\n          jump\t// out\n\n        auxdata: 0xa264697066735822122050c5447a8fe084bc288bb64e4e8fb9fb16c85c43653042e1194f0abdce2c635264736f6c634300081b0033\n    }\n}\n",
				"bytecode": {
					"linkReferences": {},
					"object": "60a060405234801561000f575f5ffd5b50335f5f6101000a81548173ffffffffffffffffffffffffffffffffffffffff021916908373ffffffffffffffffffffffffffffffffffffffff16021790555060405161005b906100ad565b604051809103905ff080158015610074573d5f5f3e3d5ffd5b5073ffffffffffffffffffffffffffffffffffffffff1660808173ffffffffffffffffffffffffffffffffffffffff16815250506100ba565b61183e8061129483390190565b6080516111bb6100d95f395f81816101c1015261050401526111bb5ff3fe608060405234801561000f575f5ffd5b5060043610610091575f3560e01c80638da5cb5b116100645780638da5cb5b1461011d578063ca4b4fd31461013b578063d9881acc1461016b578063f2fde38b14610187578063f576c938146101a357610091565b80635c60da1b146100955780636dcea85f146100b35780637119f4fb146100cf57806380f55605146100ff575b5f5ffd5b61009d6101bf565b6040516100aa9190610b8c565b60405180910390f35b6100cd60048036038101906100c89190610be0565b6101e3565b005b6100e960048036038101906100e49190610c3e565b610359565b6040516100f69190610b8c565b60405180910390f35b610107610389565b6040516101149190610b8c565b60405180910390f35b6101256103ae565b6040516101329190610b8c565b60405180910390f35b61015560048036038101906101509190610da5565b6103d2565b6040516101629190610b8c565b60405180910390f35b61018560048036038101906101809190610e2d565b610638565b005b6101a1600480360381019061019c9190610be0565b6107d7565b005b6101bd60048036038101906101b89190610e2d565b6108a7565b005b7f000000000000000000000000000000000000000000000000000000000000000081565b5f5f9054906101000a900473ffffffffffffffffffffffffffffffffffffffff1673ffffffffffffffffffffffffffffffffffffffff163373ffffffffffffffffffffffffffffffffffffffff1614610271576040517f08c379a000000000000000000000000000000000000000000000000000000000815260040161026890610ed7565b60405180910390fd5b5f73ffffffffffffffffffffffffffffffffffffffff168173ffffffffffffffffffffffffffffffffffffffff16036102df576040517f08c379a00000000000000000000000000000000000000000000000000000000081526004016102d690610f3f565b60405180910390fd5b8060015f6101000a81548173ffffffffffffffffffffffffffffffffffffffff021916908373ffffffffffffffffffffffffffffffffffffffff1602179055507fe307206b150a74b2a5d43a35703be791342ca123c12a507c5f679cf1d011d1b98160405161034e9190610b8c565b60405180910390a150565b6002602052805f5260405f205f915054906101000a900473ffffffffffffffffffffffffffffffffffffffff1681565b60015f9054906101000a900473ffffffffffffffffffffffffffffffffffffffff1681565b5f5f9054906101000a900473ffffffffffffffffffffffffffffffffffffffff1681565b5f5f5f9054906101000a900473ffffffffffffffffffffffffffffffffffffffff1673ffffffffffffffffffffffffffffffffffffffff163373ffffffffffffffffffffffffffffffffffffffff1614610461576040517f08c379a000000000000000000000000000000000000000000000000000000000815260040161045890610ed7565b60405180910390fd5b5f73ffffffffffffffffffffffffffffffffffffffff1660025f8681526020019081526020015f205f9054906101000a900473ffffffffffffffffffffffffffffffffffffffff1673ffffffffffffffffffffffffffffffffffffffff16146104ff576040517f08c379a00000000000000000000000000000000000000000000000000000000081526004016104f690610fa7565b60405180910390fd5b61053e7f000000000000000000000000000000000000000000000000000000000000000073ffffffffffffffffffffffffffffffffffffffff16610a46565b90508073ffffffffffffffffffffffffffffffffffffffff1663077f224a8484306040518463ffffffff1660e01b815260040161057d93929190611015565b5f604051808303815f87803b158015610594575f5ffd5b505af11580156105a6573d5f5f3e3d5ffd5b505050508060025f8681526020019081526020015f205f6101000a81548173ffffffffffffffffffffffffffffffffffffffff021916908373ffffffffffffffffffffffffffffffffffffffff160217905550837fa7209921c1341663c77eaac675176ef6cc6b360934add66ede2a9e70cc0af2e5826040516106299190610b8c565b60405180910390a29392505050565b60015f9054906101000a900473ffffffffffffffffffffffffffffffffffffffff1673ffffffffffffffffffffffffffffffffffffffff163373ffffffffffffffffffffffffffffffffffffffff16146106c7576040517f08c379a00000000000000000000000000000000000000000000000000000000081526004016106be906110a2565b60405180910390fd5b5f60025f8581526020019081526020015f205f9054906101000a900473ffffffffffffffffffffffffffffffffffffffff1690505f73ffffffffffffffffffffffffffffffffffffffff168173ffffffffffffffffffffffffffffffffffffffff1603610769576040517f08c379a00000000000000000000000000000000000000000000000000000000081526004016107609061110a565b60405180910390fd5b8073ffffffffffffffffffffffffffffffffffffffff16639dc29fac84846040518363ffffffff1660e01b81526004016107a4929190611137565b5f604051808303815f87803b1580156107bb575f5ffd5b505af11580156107cd573d5f5f3e3d5ffd5b5050505050505050565b5f5f9054906101000a900473ffffffffffffffffffffffffffffffffffffffff1673ffffffffffffffffffffffffffffffffffffffff163373ffffffffffffffffffffffffffffffffffffffff1614610865576040517f08c379a000000000000000000000000000000000000000000000000000000000815260040161085c90610ed7565b60405180910390fd5b805f5f6101000a81548173ffffffffffffffffffffffffffffffffffffffff021916908373ffffffffffffffffffffffffffffffffffffffff16021790555050565b60015f9054906101000a900473ffffffffffffffffffffffffffffffffffffffff1673ffffffffffffffffffffffffffffffffffffffff163373ffffffffffffffffffffffffffffffffffffffff1614610936576040517f08c379a000000000000000000000000000000000000000000000000000000000815260040161092d906110a2565b60405180910390fd5b5f60025f8581526020019081526020015f205f9054906101000a900473ffffffffffffffffffffffffffffffffffffffff1690505f73ffffffffffffffffffffffffffffffffffffffff168173ffffffffffffffffffffffffffffffffffffffff16036109d8576040517f08c379a00000000000000000000000000000000000000000000000000000000081526004016109cf9061110a565b60405180910390fd5b8073ffffffffffffffffffffffffffffffffffffffff166340c10f1984846040518363ffffffff1660e01b8152600401610a13929190611137565b5f604051808303815f87803b158015610a2a575f5ffd5b505af1158015610a3c573d5f5f3e3d5ffd5b5050505050505050565b5f610a51825f610a58565b9050919050565b5f81471015610aa05747826040517fcf479181000000000000000000000000000000000000000000000000000000008152600401610a9792919061115e565b60405180910390fd5b763d602d80600a3d3981f3363d3d373d3d3d363d730000008360601b60e81c175f526e5af43d82803e903d91602b57fd5bf38360781b176020526037600983f090505f73ffffffffffffffffffffffffffffffffffffffff168173ffffffffffffffffffffffffffffffffffffffff1603610b47576040517fb06ebf3d00000000000000000000000000000000000000000000000000000000815260040160405180910390fd5b92915050565b5f73ffffffffffffffffffffffffffffffffffffffff82169050919050565b5f610b7682610b4d565b9050919050565b610b8681610b6c565b82525050565b5f602082019050610b9f5f830184610b7d565b92915050565b5f604051905090565b5f5ffd5b5f5ffd5b610bbf81610b6c565b8114610bc9575f5ffd5b50565b5f81359050610bda81610bb6565b92915050565b5f60208284031215610bf557610bf4610bae565b5b5f610c0284828501610bcc565b91505092915050565b5f819050919050565b610c1d81610c0b565b8114610c27575f5ffd5b50565b5f81359050610c3881610c14565b92915050565b5f60208284031215610c5357610c52610bae565b5b5f610c6084828501610c2a565b91505092915050565b5f5ffd5b5f5ffd5b5f601f19601f8301169050919050565b7f4e487b71000000000000000000000000000000000000000000000000000000005f52604160045260245ffd5b610cb782610c71565b810181811067ffffffffffffffff82111715610cd657610cd5610c81565b5b80604052505050565b5f610ce8610ba5565b9050610cf48282610cae565b919050565b5f67ffffffffffffffff821115610d1357610d12610c81565b5b610d1c82610c71565b9050602081019050919050565b828183375f83830152505050565b5f610d49610d4484610cf9565b610cdf565b905082815260208101848484011115610d6557610d64610c6d565b5b610d70848285610d29565b509392505050565b5f82601f830112610d8c57610d8b610c69565b5b8135610d9c848260208601610d37565b91505092915050565b5f5f5f60608486031215610dbc57610dbb610bae565b5b5f610dc986828701610c2a565b935050602084013567ffffffffffffffff811115610dea57610de9610bb2565b5b610df686828701610d78565b925050604084013567ffffffffffffffff811115610e1757610e16610bb2565b5b610e2386828701610d78565b9150509250925092565b5f5f5f60608486031215610e4457610e43610bae565b5b5f610e5186828701610c2a565b9350506020610e6286828701610bcc565b9250506040610e7386828701610c2a565b9150509250925092565b5f82825260208201905092915050565b7f4e4f545f4f574e455200000000000000000000000000000000000000000000005f82015250565b5f610ec1600983610e7d565b9150610ecc82610e8d565b602082019050919050565b5f6020820190508181035f830152610eee81610eb5565b9050919050565b7f5a45524f5f4144445200000000000000000000000000000000000000000000005f82015250565b5f610f29600983610e7d565b9150610f3482610ef5565b602082019050919050565b5f6020820190508181035f830152610f5681610f1d565b9050919050565b7f45584953545300000000000000000000000000000000000000000000000000005f82015250565b5f610f91600683610e7d565b9150610f9c82610f5d565b602082019050919050565b5f6020820190508181035f830152610fbe81610f85565b9050919050565b5f81519050919050565b8281835e5f83830152505050565b5f610fe782610fc5565b610ff18185610e7d565b9350611001818560208601610fcf565b61100a81610c71565b840191505092915050565b5f6060820190508181035f83015261102d8186610fdd565b905081810360208301526110418185610fdd565b90506110506040830184610b7d565b949350505050565b7f4e4f545f4d41524b4554000000000000000000000000000000000000000000005f82015250565b5f61108c600a83610e7d565b915061109782611058565b602082019050919050565b5f6020820190508181035f8301526110b981611080565b9050919050565b7f4e4f5f544f4b454e0000000000000000000000000000000000000000000000005f82015250565b5f6110f4600883610e7d565b91506110ff826110c0565b602082019050919050565b5f6020820190508181035f830152611121816110e8565b9050919050565b61113181610c0b565b82525050565b5f60408201905061114a5f830185610b7d565b6111576020830184611128565b9392505050565b5f6040820190506111715f830185611128565b61117e6020830184611128565b939250505056fea2646970667358221220eb903b7726ad74fd6c04c60aceb877856f9edb8c9d738177673011c657691bb464736f6c634300081b0033608060405234801561000f575f5ffd5b506040518060400160405280600b81526020017f504c414345484f4c4445520000000000000000000000000000000000000000008152506040518060400160405280600381526020017f504c480000000000000000000000000000000000000000000000000000000000815250816003908161008b91906102e0565b50806004908161009b91906102e0565b5050506103af565b5f81519050919050565b7f4e487b71000000000000000000000000000000000000000000000000000000005f52604160045260245ffd5b7f4e487b71000000000000000000000000000000000000000000000000000000005f52602260045260245ffd5b5f600282049050600182168061011e57607f821691505b602082108103610131576101306100da565b5b50919050565b5f819050815f5260205f209050919050565b5f6020601f8301049050919050565b5f82821b905092915050565b5f600883026101937fffffffffffffffffffffffffffffffffffffffffffffffffffffffffffffffff82610158565b61019d8683610158565b95508019841693508086168417925050509392505050565b5f819050919050565b5f819050919050565b5f6101e16101dc6101d7846101b5565b6101be565b6101b5565b9050919050565b5f819050919050565b6101fa836101c7565b61020e610206826101e8565b848454610164565b825550505050565b5f5f905090565b610225610216565b6102308184846101f1565b505050565b5b81811015610253576102485f8261021d565b600181019050610236565b5050565b601f8211156102985761026981610137565b61027284610149565b81016020851015610281578190505b61029561028d85610149565b830182610235565b50505b505050565b5f82821c905092915050565b5f6102b85f198460080261029d565b1980831691505092915050565b5f6102d083836102a9565b9150826002028217905092915050565b6102e9826100a3565b67ffffffffffffffff811115610302576103016100ad565b5b61030c8254610107565b610317828285610257565b5f60209050601f831160018114610348575f8415610336578287015190505b61034085826102c5565b8655506103a7565b601f19841661035686610137565b5f5b8281101561037d57848901518255600182019150602085019450602081019050610358565b8683101561039a5784890151610396601f8916826102a9565b8355505b6001600288020188555050505b505050505050565b611482806103bc5f395ff3fe608060405234801561000f575f5ffd5b50600436106100e8575f3560e01c806340c10f191161008a57806395d89b411161006457806395d89b411461024a5780639dc29fac14610268578063a9059cbb14610284578063dd62ed3e146102b4576100e8565b806340c10f19146101e0578063481c6a75146101fc57806370a082311461021a576100e8565b8063158ef93e116100c6578063158ef93e1461015657806318160ddd1461017457806323b872dd14610192578063313ce567146101c2576100e8565b806306fdde03146100ec578063077f224a1461010a578063095ea7b314610126575b5f5ffd5b6100f46102e4565b6040516101019190610e6a565b60405180910390f35b610124600480360381019061011f9190611021565b610374565b005b610140600480360381019061013b91906110dc565b61042c565b60405161014d9190611134565b60405180910390f35b61015e61044e565b60405161016b9190611134565b60405180910390f35b61017c610461565b604051610189919061115c565b60405180910390f35b6101ac60048036038101906101a79190611175565b61046a565b6040516101b99190611134565b60405180910390f35b6101ca610498565b6040516101d791906111e0565b60405180910390f35b6101fa60048036038101906101f591906110dc565b6104a0565b005b61020461053d565b6040516102119190611208565b60405180910390f35b610234600480360381019061022f9190611221565b610562565b604051610241919061115c565b60405180910390f35b6102526105a7565b60405161025f9190610e6a565b60405180910390f35b610282600480360381019061027d91906110dc565b610637565b005b61029e600480360381019061029991906110dc565b6106d4565b6040516102ab9190611134565b60405180910390f35b6102ce60048036038101906102c9919061124c565b6106f6565b6040516102db919061115c565b60405180910390f35b6060600380546102f3906112b7565b80601f016020809104026020016040519081016040528092919081815260200182805461031f906112b7565b801561036a5780601f106103415761010080835404028352916020019161036a565b820191905f5260205f20905b81548152906001019060200180831161034d57829003601f168201915b5050505050905090565b600560149054906101000a900460ff16156103c4576040517f08c379a00000000000000000000000000000000000000000000000000000000081526004016103bb90611331565b60405180910390fd5b8060055f6101000a81548173ffffffffffffffffffffffffffffffffffffffff021916908373ffffffffffffffffffffffffffffffffffffffff16021790555082600355816004556001600560146101000a81548160ff021916908315150217905550505050565b5f5f610436610778565b905061044381858561077f565b600191505092915050565b600560149054906101000a900460ff1681565b5f600254905090565b5f5f610474610778565b9050610481858285610791565b61048c858585610824565b60019150509392505050565b5f6012905090565b60055f9054906101000a900473ffffffffffffffffffffffffffffffffffffffff1673ffffffffffffffffffffffffffffffffffffffff163373ffffffffffffffffffffffffffffffffffffffff161461052f576040517f08c379a000000000000000000000000000000000000000000000000000000000815260040161052690611399565b60405180910390fd5b6105398282610914565b5050565b60055f9054906101000a900473ffffffffffffffffffffffffffffffffffffffff1681565b5f5f5f8373ffffffffffffffffffffffffffffffffffffffff1673ffffffffffffffffffffffffffffffffffffffff1681526020019081526020015f20549050919050565b6060600480546105b6906112b7565b80601f01602080910402602001604051908101604052809291908181526020018280546105e2906112b7565b801561062d5780601f106106045761010080835404028352916020019161062d565b820191905f5260205f20905b81548152906001019060200180831161061057829003601f168201915b5050505050905090565b60055f9054906101000a900473ffffffffffffffffffffffffffffffffffffffff1673ffffffffffffffffffffffffffffffffffffffff163373ffffffffffffffffffffffffffffffffffffffff16146106c6576040517f08c379a00000000000000000000000000000000000000000000000000000000081526004016106bd90611399565b60405180910390fd5b6106d08282610993565b5050565b5f5f6106de610778565b90506106eb818585610824565b600191505092915050565b5f60015f8473ffffffffffffffffffffffffffffffffffffffff1673ffffffffffffffffffffffffffffffffffffffff1681526020019081526020015f205f8373ffffffffffffffffffffffffffffffffffffffff1673ffffffffffffffffffffffffffffffffffffffff1681526020019081526020015f2054905092915050565b5f33905090565b61078c8383836001610a12565b505050565b5f61079c84846106f6565b90507fffffffffffffffffffffffffffffffffffffffffffffffffffffffffffffffff81101561081e578181101561080f578281836040517ffb8f41b2000000000000000000000000000000000000000000000000000000008152600401610806939291906113b7565b60405180910390fd5b61081d84848484035f610a12565b5b50505050565b5f73ffffffffffffffffffffffffffffffffffffffff168373ffffffffffffffffffffffffffffffffffffffff1603610894575f6040517f96c6fd1e00000000000000000000000000000000000000000000000000000000815260040161088b9190611208565b60405180910390fd5b5f73ffffffffffffffffffffffffffffffffffffffff168273ffffffffffffffffffffffffffffffffffffffff1603610904575f6040517fec442f050000000000000000000000000000000000000000000000000000000081526004016108fb9190611208565b60405180910390fd5b61090f838383610be1565b505050565b5f73ffffffffffffffffffffffffffffffffffffffff168273ffffffffffffffffffffffffffffffffffffffff1603610984575f6040517fec442f0500000000000000000000000000000000000000000000000000000000815260040161097b9190611208565b60405180910390fd5b61098f5f8383610be1565b5050565b5f73ffffffffffffffffffffffffffffffffffffffff168273ffffffffffffffffffffffffffffffffffffffff1603610a03575f6040517f96c6fd1e0000000000000000000000000000000000000000000000000000000081526004016109fa9190611208565b60405180910390fd5b610a0e825f83610be1565b5050565b5f73ffffffffffffffffffffffffffffffffffffffff168473ffffffffffffffffffffffffffffffffffffffff1603610a82575f6040517fe602df05000000000000000000000000000000000000000000000000000000008152600401610a799190611208565b60405180910390fd5b5f73ffffffffffffffffffffffffffffffffffffffff168373ffffffffffffffffffffffffffffffffffffffff1603610af2575f6040517f94280d62000000000000000000000000000000000000000000000000000000008152600401610ae99190611208565b60405180910390fd5b8160015f8673ffffffffffffffffffffffffffffffffffffffff1673ffffffffffffffffffffffffffffffffffffffff1681526020019081526020015f205f8573ffffffffffffffffffffffffffffffffffffffff1673ffffffffffffffffffffffffffffffffffffffff1681526020019081526020015f20819055508015610bdb578273ffffffffffffffffffffffffffffffffffffffff168473ffffffffffffffffffffffffffffffffffffffff167f8c5be1e5ebec7d5bd14f71427d1e84f3dd0314c0f7b2291e5b200ac8c7c3b92584604051610bd2919061115c565b60405180910390a35b50505050565b5f73ffffffffffffffffffffffffffffffffffffffff168373ffffffffffffffffffffffffffffffffffffffff1603610c31578060025f828254610c259190611419565b92505081905550610cff565b5f5f5f8573ffffffffffffffffffffffffffffffffffffffff1673ffffffffffffffffffffffffffffffffffffffff1681526020019081526020015f2054905081811015610cba578381836040517fe450d38c000000000000000000000000000000000000000000000000000000008152600401610cb1939291906113b7565b60405180910390fd5b8181035f5f8673ffffffffffffffffffffffffffffffffffffffff1673ffffffffffffffffffffffffffffffffffffffff1681526020019081526020015f2081905550505b5f73ffffffffffffffffffffffffffffffffffffffff168273ffffffffffffffffffffffffffffffffffffffff1603610d46578060025f8282540392505081905550610d90565b805f5f8473ffffffffffffffffffffffffffffffffffffffff1673ffffffffffffffffffffffffffffffffffffffff1681526020019081526020015f205f82825401925050819055505b8173ffffffffffffffffffffffffffffffffffffffff168373ffffffffffffffffffffffffffffffffffffffff167fddf252ad1be2c89b69c2b068fc378daa952ba7f163c4a11628f55a4df523b3ef83604051610ded919061115c565b60405180910390a3505050565b5f81519050919050565b5f82825260208201905092915050565b8281835e5f83830152505050565b5f601f19601f8301169050919050565b5f610e3c82610dfa565b610e468185610e04565b9350610e56818560208601610e14565b610e5f81610e22565b840191505092915050565b5f6020820190508181035f830152610e828184610e32565b905092915050565b5f604051905090565b5f5ffd5b5f5ffd5b5f5ffd5b5f5ffd5b7f4e487b71000000000000000000000000000000000000000000000000000000005f52604160045260245ffd5b610ed982610e22565b810181811067ffffffffffffffff82111715610ef857610ef7610ea3565b5b80604052505050565b5f610f0a610e8a565b9050610f168282610ed0565b919050565b5f67ffffffffffffffff821115610f3557610f34610ea3565b5b610f3e82610e22565b9050602081019050919050565b828183375f83830152505050565b5f610f6b610f6684610f1b565b610f01565b905082815260208101848484011115610f8757610f86610e9f565b5b610f92848285610f4b565b509392505050565b5f82601f830112610fae57610fad610e9b565b5b8135610fbe848260208601610f59565b91505092915050565b5f73ffffffffffffffffffffffffffffffffffffffff82169050919050565b5f610ff082610fc7565b9050919050565b61100081610fe6565b811461100a575f5ffd5b50565b5f8135905061101b81610ff7565b92915050565b5f5f5f6060848603121561103857611037610e93565b5b5f84013567ffffffffffffffff81111561105557611054610e97565b5b61106186828701610f9a565b935050602084013567ffffffffffffffff81111561108257611081610e97565b5b61108e86828701610f9a565b925050604061109f8682870161100d565b9150509250925092565b5f819050919050565b6110bb816110a9565b81146110c5575f5ffd5b50565b5f813590506110d6816110b2565b92915050565b5f5f604083850312156110f2576110f1610e93565b5b5f6110ff8582860161100d565b9250506020611110858286016110c8565b9150509250929050565b5f8115159050919050565b61112e8161111a565b82525050565b5f6020820190506111475f830184611125565b92915050565b611156816110a9565b82525050565b5f60208201905061116f5f83018461114d565b92915050565b5f5f5f6060848603121561118c5761118b610e93565b5b5f6111998682870161100d565b93505060206111aa8682870161100d565b92505060406111bb868287016110c8565b9150509250925092565b5f60ff82169050919050565b6111da816111c5565b82525050565b5f6020820190506111f35f8301846111d1565b92915050565b61120281610fe6565b82525050565b5f60208201905061121b5f8301846111f9565b92915050565b5f6020828403121561123657611235610e93565b5b5f6112438482850161100d565b91505092915050565b5f5f6040838503121561126257611261610e93565b5b5f61126f8582860161100d565b92505060206112808582860161100d565b9150509250929050565b7f4e487b71000000000000000000000000000000000000000000000000000000005f52602260045260245ffd5b5f60028204905060018216806112ce57607f821691505b6020821081036112e1576112e061128a565b5b50919050565b7f414c52454144595f494e495400000000000000000000000000000000000000005f82015250565b5f61131b600c83610e04565b9150611326826112e7565b602082019050919050565b5f6020820190508181035f8301526113488161130f565b9050919050565b7f4e4f545f4d414e414745520000000000000000000000000000000000000000005f82015250565b5f611383600b83610e04565b915061138e8261134f565b602082019050919050565b5f6020820190508181035f8301526113b081611377565b9050919050565b5f6060820190506113ca5f8301866111f9565b6113d7602083018561114d565b6113e4604083018461114d565b949350505050565b7f4e487b71000000000000000000000000000000000000000000000000000000005f52601160045260245ffd5b5f611423826110a9565b915061142e836110a9565b9250828201905080821115611446576114456113ec565b5b9291505056fea264697066735822122050c5447a8fe084bc288bb64e4e8fb9fb16c85c43653042e1194f0abdce2c635264736f6c634300081b0033",
					"opcodes": "PUSH1 0xA0 PUSH1 0x40 MSTORE CALLVALUE DUP1 ISZERO PUSH2 0xF JUMPI PUSH0 PUSH0 REVERT JUMPDEST POP CALLER PUSH0 PUSH0 PUSH2 0x100 EXP DUP2 SLOAD DUP2 PUSH20 0xFFFFFFFFFFFFFFFFFFFFFFFFFFFFFFFFFFFFFFFF MUL NOT AND SWAP1 DUP4 PUSH20 0xFFFFFFFFFFFFFFFFFFFFFFFFFFFFFFFFFFFFFFFF AND MUL OR SWAP1 SSTORE POP PUSH1 0x40 MLOAD PUSH2 0x5B SWAP1 PUSH2 0xAD JUMP JUMPDEST PUSH1 0x40 MLOAD DUP1 SWAP2 SUB SWAP1 PUSH0 CREATE DUP1 ISZERO DUP1 ISZERO PUSH2 0x74 JUMPI RETURNDATASIZE PUSH0 PUSH0 RETURNDATACOPY RETURNDATASIZE PUSH0 REVERT JUMPDEST POP PUSH20 0xFFFFFFFFFFFFFFFFFFFFFFFFFFFFFFFFFFFFFFFF AND PUSH1 0x80 DUP2 PUSH20 0xFFFFFFFFFFFFFFFFFFFFFFFFFFFFFFFFFFFFFFFF AND DUP2 MSTORE POP POP PUSH2 0xBA JUMP JUMPDEST PUSH2 0x183E DUP1 PUSH2 0x1294 DUP4 CODECOPY ADD SWAP1 JUMP JUMPDEST PUSH1 0x80 MLOAD PUSH2 0x11BB PUSH2 0xD9 PUSH0 CODECOPY PUSH0 DUP2 DUP2 PUSH2 0x1C1 ADD MSTORE PUSH2 0x504 ADD MSTORE PUSH2 0x11BB PUSH0 RETURN INVALID PUSH1 0x80 PUSH1 0x40 MSTORE CALLVALUE DUP1 ISZERO PUSH2 0xF JUMPI PUSH0 PUSH0 REVERT JUMPDEST POP PUSH1 0x4 CALLDATASIZE LT PUSH2 0x91 JUMPI PUSH0 CALLDATALOAD PUSH1 0xE0 SHR DUP1 PUSH4 0x8DA5CB5B GT PUSH2 0x64 JUMPI DUP1 PUSH4 0x8DA5CB5B EQ PUSH2 0x11D JUMPI DUP1 PUSH4 0xCA4B4FD3 EQ PUSH2 0x13B JUMPI DUP1 PUSH4 0xD9881ACC EQ PUSH2 0x16B JUMPI DUP1 PUSH4 0xF2FDE38B EQ PUSH2 0x187 JUMPI DUP1 PUSH4 0xF576C938 EQ PUSH2 0x1A3 JUMPI PUSH2 0x91 JUMP JUMPDEST DUP1 PUSH4 0x5C60DA1B EQ PUSH2 0x95 JUMPI DUP1 PUSH4 0x6DCEA85F EQ PUSH2 0xB3 JUMPI DUP1 PUSH4 0x7119F4FB EQ PUSH2 0xCF JUMPI DUP1 PUSH4 0x80F55605 EQ PUSH2 0xFF JUMPI JUMPDEST PUSH0 PUSH0 REVERT JUMPDEST PUSH2 0x9D PUSH2 0x1BF JUMP JUMPDEST PUSH1 0x40 MLOAD PUSH2 0xAA SWAP2 SWAP1 PUSH2 0xB8C JUMP JUMPDEST PUSH1 0x40 MLOAD DUP1 SWAP2 SUB SWAP1 RETURN JUMPDEST PUSH2 0xCD PUSH1 0x4 DUP1 CALLDATASIZE SUB DUP2 ADD SWAP1 PUSH2 0xC8 SWAP2 SWAP1 PUSH2 0xBE0 JUMP JUMPDEST PUSH2 0x1E3 JUMP JUMPDEST STOP JUMPDEST PUSH2 0xE9 PUSH1 0x4 DUP1 CALLDATASIZE SUB DUP2 ADD SWAP1 PUSH2 0xE4 SWAP2 SWAP1 PUSH2 0xC3E JUMP JUMPDEST PUSH2 0x359 JUMP JUMPDEST PUSH1 0x40 MLOAD PUSH2 0xF6 SWAP2 SWAP1 PUSH2 0xB8C JUMP JUMPDEST PUSH1 0x40 MLOAD DUP1 SWAP2 SUB SWAP1 RETURN JUMPDEST PUSH2 0x107 PUSH2 0x389 JUMP JUMPDEST PUSH1 0x40 MLOAD PUSH2 0x114 SWAP2 SWAP1 PUSH2 0xB8C JUMP JUMPDEST PUSH1 0x40 MLOAD DUP1 SWAP2 SUB SWAP1 RETURN JUMPDEST PUSH2 0x125 PUSH2 0x3AE JUMP JUMPDEST PUSH1 0x40 MLOAD PUSH2 0x132 SWAP2 SWAP1 PUSH2 0xB8C JUMP JUMPDEST PUSH1 0x40 MLOAD DUP1 SWAP2 SUB SWAP1 RETURN JUMPDEST PUSH2 0x155 PUSH1 0x4 DUP1 CALLDATASIZE SUB DUP2 ADD SWAP1 PUSH2 0x150 SWAP2 SWAP1 PUSH2 0xDA5 JUMP JUMPDEST PUSH2 0x3D2 JUMP JUMPDEST PUSH1 0x40 MLOAD PUSH2 0x162 SWAP2 SWAP1 PUSH2 0xB8C JUMP JUMPDEST PUSH1 0x40 MLOAD DUP1 SWAP2 SUB SWAP1 RETURN JUMPDEST PUSH2 0x185 PUSH1 0x4 DUP1 CALLDATASIZE SUB DUP2 ADD SWAP1 PUSH2 0x180 SWAP2 SWAP1 PUSH2 0xE2D JUMP JUMPDEST PUSH2 0x638 JUMP JUMPDEST STOP JUMPDEST PUSH2 0x1A1 PUSH1 0x4 DUP1 CALLDATASIZE SUB DUP2 ADD SWAP1 PUSH2 0x19C SWAP2 SWAP1 PUSH2 0xBE0 JUMP JUMPDEST PUSH2 0x7D7 JUMP JUMPDEST STOP JUMPDEST PUSH2 0x1BD PUSH1 0x4 DUP1 CALLDATASIZE SUB DUP2 ADD SWAP1 PUSH2 0x1B8 SWAP2 SWAP1 PUSH2 0xE2D JUMP JUMPDEST PUSH2 0x8A7 JUMP JUMPDEST STOP JUMPDEST PUSH32 0x0 DUP2 JUMP JUMPDEST PUSH0 PUSH0 SWAP1 SLOAD SWAP1 PUSH2 0x100 EXP SWAP1 DIV PUSH20 0xFFFFFFFFFFFFFFFFFFFFFFFFFFFFFFFFFFFFFFFF AND PUSH20 0xFFFFFFFFFFFFFFFFFFFFFFFFFFFFFFFFFFFFFFFF AND CALLER PUSH20 0xFFFFFFFFFFFFFFFFFFFFFFFFFFFFFFFFFFFFFFFF AND EQ PUSH2 0x271 JUMPI PUSH1 0x40 MLOAD PUSH32 0x8C379A000000000000000000000000000000000000000000000000000000000 DUP2 MSTORE PUSH1 0x4 ADD PUSH2 0x268 SWAP1 PUSH2 0xED7 JUMP JUMPDEST PUSH1 0x40 MLOAD DUP1 SWAP2 SUB SWAP1 REVERT JUMPDEST PUSH0 PUSH20 0xFFFFFFFFFFFFFFFFFFFFFFFFFFFFFFFFFFFFFFFF AND DUP2 PUSH20 0xFFFFFFFFFFFFFFFFFFFFFFFFFFFFFFFFFFFFFFFF AND SUB PUSH2 0x2DF JUMPI PUSH1 0x40 MLOAD PUSH32 0x8C379A000000000000000000000000000000000000000000000000000000000 DUP2 MSTORE PUSH1 0x4 ADD PUSH2 0x2D6 SWAP1 PUSH2 0xF3F JUMP JUMPDEST PUSH1 0x40 MLOAD DUP1 SWAP2 SUB SWAP1 REVERT JUMPDEST DUP1 PUSH1 0x1 PUSH0 PUSH2 0x100 EXP DUP2 SLOAD DUP2 PUSH20 0xFFFFFFFFFFFFFFFFFFFFFFFFFFFFFFFFFFFFFFFF MUL NOT AND SWAP1 DUP4 PUSH20 0xFFFFFFFFFFFFFFFFFFFFFFFFFFFFFFFFFFFFFFFF AND MUL OR SWAP1 SSTORE POP PUSH32 0xE307206B150A74B2A5D43A35703BE791342CA123C12A507C5F679CF1D011D1B9 DUP2 PUSH1 0x40 MLOAD PUSH2 0x34E SWAP2 SWAP1 PUSH2 0xB8C JUMP JUMPDEST PUSH1 0x40 MLOAD DUP1 SWAP2 SUB SWAP1 LOG1 POP JUMP JUMPDEST PUSH1 0x2 PUSH1 0x20 MSTORE DUP1 PUSH0 MSTORE PUSH1 0x40 PUSH0 KECCAK256 PUSH0 SWAP2 POP SLOAD SWAP1 PUSH2 0x100 EXP SWAP1 DIV PUSH20 0xFFFFFFFFFFFFFFFFFFFFFFFFFFFFFFFFFFFFFFFF AND DUP2 JUMP JUMPDEST PUSH1 0x1 PUSH0 SWAP1 SLOAD SWAP1 PUSH2 0x100 EXP SWAP1 DIV PUSH20 0xFFFFFFFFFFFFFFFFFFFFFFFFFFFFFFFFFFFFFFFF AND DUP2 JUMP JUMPDEST PUSH0 PUSH0 SWAP1 SLOAD SWAP1 PUSH2 0x100 EXP SWAP1 DIV PUSH20 0xFFFFFFFFFFFFFFFFFFFFFFFFFFFFFFFFFFFFFFFF AND DUP2 JUMP JUMPDEST PUSH0 PUSH0 PUSH0 SWAP1 SLOAD SWAP1 PUSH2 0x100 EXP SWAP1 DIV PUSH20 0xFFFFFFFFFFFFFFFFFFFFFFFFFFFFFFFFFFFFFFFF AND PUSH20 0xFFFFFFFFFFFFFFFFFFFFFFFFFFFFFFFFFFFFFFFF AND CALLER PUSH20 0xFFFFFFFFFFFFFFFFFFFFFFFFFFFFFFFFFFFFFFFF AND EQ PUSH2 0x461 JUMPI PUSH1 0x40 MLOAD PUSH32 0x8C379A000000000000000000000000000000000000000000000000000000000 DUP2 MSTORE PUSH1 0x4 ADD PUSH2 0x458 SWAP1 PUSH2 0xED7 JUMP JUMPDEST PUSH1 0x40 MLOAD DUP1 SWAP2 SUB SWAP1 REVERT JUMPDEST PUSH0 PUSH20 0xFFFFFFFFFFFFFFFFFFFFFFFFFFFFFFFFFFFFFFFF AND PUSH1 0x2 PUSH0 DUP7 DUP2 MSTORE PUSH1 0x20 ADD SWAP1 DUP2 MSTORE PUSH1 0x20 ADD PUSH0 KECCAK256 PUSH0 SWAP1 SLOAD SWAP1 PUSH2 0x100 EXP SWAP1 DIV PUSH20 0xFFFFFFFFFFFFFFFFFFFFFFFFFFFFFFFFFFFFFFFF AND PUSH20 0xFFFFFFFFFFFFFFFFFFFFFFFFFFFFFFFFFFFFFFFF AND EQ PUSH2 0x4FF JUMPI PUSH1 0x40 MLOAD PUSH32 0x8C379A000000000000000000000000000000000000000000000000000000000 DUP2 MSTORE PUSH1 0x4 ADD PUSH2 0x4F6 SWAP1 PUSH2 0xFA7 JUMP JUMPDEST PUSH1 0x40 MLOAD DUP1 SWAP2 SUB SWAP1 REVERT JUMPDEST PUSH2 0x53E PUSH32 0x0 PUSH20 0xFFFFFFFFFFFFFFFFFFFFFFFFFFFFFFFFFFFFFFFF AND PUSH2 0xA46 JUMP JUMPDEST SWAP1 POP DUP1 PUSH20 0xFFFFFFFFFFFFFFFFFFFFFFFFFFFFFFFFFFFFFFFF AND PUSH4 0x77F224A DUP5 DUP5 ADDRESS PUSH1 0x40 MLOAD DUP5 PUSH4 0xFFFFFFFF AND PUSH1 0xE0 SHL DUP2 MSTORE PUSH1 0x4 ADD PUSH2 0x57D SWAP4 SWAP3 SWAP2 SWAP1 PUSH2 0x1015 JUMP JUMPDEST PUSH0 PUSH1 0x40 MLOAD DUP1 DUP4 SUB DUP2 PUSH0 DUP8 DUP1 EXTCODESIZE ISZERO DUP1 ISZERO PUSH2 0x594 JUMPI PUSH0 PUSH0 REVERT JUMPDEST POP GAS CALL ISZERO DUP1 ISZERO PUSH2 0x5A6 JUMPI RETURNDATASIZE PUSH0 PUSH0 RETURNDATACOPY RETURNDATASIZE PUSH0 REVERT JUMPDEST POP POP POP POP DUP1 PUSH1 0x2 PUSH0 DUP7 DUP2 MSTORE PUSH1 0x20 ADD SWAP1 DUP2 MSTORE PUSH1 0x20 ADD PUSH0 KECCAK256 PUSH0 PUSH2 0x100 EXP DUP2 SLOAD DUP2 PUSH20 0xFFFFFFFFFFFFFFFFFFFFFFFFFFFFFFFFFFFFFFFF MUL NOT AND SWAP1 DUP4 PUSH20 0xFFFFFFFFFFFFFFFFFFFFFFFFFFFFFFFFFFFFFFFF AND MUL OR SWAP1 SSTORE POP DUP4 PUSH32 0xA7209921C1341663C77EAAC675176EF6CC6B360934ADD66EDE2A9E70CC0AF2E5 DUP3 PUSH1 0x40 MLOAD PUSH2 0x629 SWAP2 SWAP1 PUSH2 0xB8C JUMP JUMPDEST PUSH1 0x40 MLOAD DUP1 SWAP2 SUB SWAP1 LOG2 SWAP4 SWAP3 POP POP POP JUMP JUMPDEST PUSH1 0x1 PUSH0 SWAP1 SLOAD SWAP1 PUSH2 0x100 EXP SWAP1 DIV PUSH20 0xFFFFFFFFFFFFFFFFFFFFFFFFFFFFFFFFFFFFFFFF AND PUSH20 0xFFFFFFFFFFFFFFFFFFFFFFFFFFFFFFFFFFFFFFFF AND CALLER PUSH20 0xFFFFFFFFFFFFFFFFFFFFFFFFFFFFFFFFFFFFFFFF AND EQ PUSH2 0x6C7 JUMPI PUSH1 0x40 MLOAD PUSH32 0x8C379A000000000000000000000000000000000000000000000000000000000 DUP2 MSTORE PUSH1 0x4 ADD PUSH2 0x6BE SWAP1 PUSH2 0x10A2 JUMP JUMPDEST PUSH1 0x40 MLOAD DUP1 SWAP2 SUB SWAP1 REVERT JUMPDEST PUSH0 PUSH1 0x2 PUSH0 DUP6 DUP2 MSTORE PUSH1 0x20 ADD SWAP1 DUP2 MSTORE PUSH1 0x20 ADD PUSH0 KECCAK256 PUSH0 SWAP1 SLOAD SWAP1 PUSH2 0x100 EXP SWAP1 DIV PUSH20 0xFFFFFFFFFFFFFFFFFFFFFFFFFFFFFFFFFFFFFFFF AND SWAP1 POP PUSH0 PUSH20 0xFFFFFFFFFFFFFFFFFFFFFFFFFFFFFFFFFFFFFFFF AND DUP2 PUSH20 0xFFFFFFFFFFFFFFFFFFFFFFFFFFFFFFFFFFFFFFFF AND SUB PUSH2 0x769 JUMPI PUSH1 0x40 MLOAD PUSH32 0x8C379A000000000000000000000000000000000000000000000000000000000 DUP2 MSTORE PUSH1 0x4 ADD PUSH2 0x760 SWAP1 PUSH2 0x110A JUMP JUMPDEST PUSH1 0x40 MLOAD DUP1 SWAP2 SUB SWAP1 REVERT JUMPDEST DUP1 PUSH20 0xFFFFFFFFFFFFFFFFFFFFFFFFFFFFFFFFFFFFFFFF AND PUSH4 0x9DC29FAC DUP5 DUP5 PUSH1 0x40 MLOAD DUP4 PUSH4 0xFFFFFFFF AND PUSH1 0xE0 SHL DUP2 MSTORE PUSH1 0x4 ADD PUSH2 0x7A4 SWAP3 SWAP2 SWAP1 PUSH2 0x1137 JUMP JUMPDEST PUSH0 PUSH1 0x40 MLOAD DUP1 DUP4 SUB DUP2 PUSH0 DUP8 DUP1 EXTCODESIZE ISZERO DUP1 ISZERO PUSH2 0x7BB JUMPI PUSH0 PUSH0 REVERT JUMPDEST POP GAS CALL ISZERO DUP1 ISZERO PUSH2 0x7CD JUMPI RETURNDATASIZE PUSH0 PUSH0 RETURNDATACOPY RETURNDATASIZE PUSH0 REVERT JUMPDEST POP POP POP POP POP POP POP POP JUMP JUMPDEST PUSH0 PUSH0 SWAP1 SLOAD SWAP1 PUSH2 0x100 EXP SWAP1 DIV PUSH20 0xFFFFFFFFFFFFFFFFFFFFFFFFFFFFFFFFFFFFFFFF AND PUSH20 0xFFFFFFFFFFFFFFFFFFFFFFFFFFFFFFFFFFFFFFFF AND CALLER PUSH20 0xFFFFFFFFFFFFFFFFFFFFFFFFFFFFFFFFFFFFFFFF AND EQ PUSH2 0x865 JUMPI PUSH1 0x40 MLOAD PUSH32 0x8C379A000000000000000000000000000000000000000000000000000000000 DUP2 MSTORE PUSH1 0x4 ADD PUSH2 0x85C SWAP1 PUSH2 0xED7 JUMP JUMPDEST PUSH1 0x40 MLOAD DUP1 SWAP2 SUB SWAP1 REVERT JUMPDEST DUP1 PUSH0 PUSH0 PUSH2 0x100 EXP DUP2 SLOAD DUP2 PUSH20 0xFFFFFFFFFFFFFFFFFFFFFFFFFFFFFFFFFFFFFFFF MUL NOT AND SWAP1 DUP4 PUSH20 0xFFFFFFFFFFFFFFFFFFFFFFFFFFFFFFFFFFFFFFFF AND MUL OR SWAP1 SSTORE POP POP JUMP JUMPDEST PUSH1 0x1 PUSH0 SWAP1 SLOAD SWAP1 PUSH2 0x100 EXP SWAP1 DIV PUSH20 0xFFFFFFFFFFFFFFFFFFFFFFFFFFFFFFFFFFFFFFFF AND PUSH20 0xFFFFFFFFFFFFFFFFFFFFFFFFFFFFFFFFFFFFFFFF AND CALLER PUSH20 0xFFFFFFFFFFFFFFFFFFFFFFFFFFFFFFFFFFFFFFFF AND EQ PUSH2 0x936 JUMPI PUSH1 0x40 MLOAD PUSH32 0x8C379A000000000000000000000000000000000000000000000000000000000 DUP2 MSTORE PUSH1 0x4 ADD PUSH2 0x92D SWAP1 PUSH2 0x10A2 JUMP JUMPDEST PUSH1 0x40 MLOAD DUP1 SWAP2 SUB SWAP1 REVERT JUMPDEST PUSH0 PUSH1 0x2 PUSH0 DUP6 DUP2 MSTORE PUSH1 0x20 ADD SWAP1 DUP2 MSTORE PUSH1 0x20 ADD PUSH0 KECCAK256 PUSH0 SWAP1 SLOAD SWAP1 PUSH2 0x100 EXP SWAP1 DIV PUSH20 0xFFFFFFFFFFFFFFFFFFFFFFFFFFFFFFFFFFFFFFFF AND SWAP1 POP PUSH0 PUSH20 0xFFFFFFFFFFFFFFFFFFFFFFFFFFFFFFFFFFFFFFFF AND DUP2 PUSH20 0xFFFFFFFFFFFFFFFFFFFFFFFFFFFFFFFFFFFFFFFF AND SUB PUSH2 0x9D8 JUMPI PUSH1 0x40 MLOAD PUSH32 0x8C379A000000000000000000000000000000000000000000000000000000000 DUP2 MSTORE PUSH1 0x4 ADD PUSH2 0x9CF SWAP1 PUSH2 0x110A JUMP JUMPDEST PUSH1 0x40 MLOAD DUP1 SWAP2 SUB SWAP1 REVERT JUMPDEST DUP1 PUSH20 0xFFFFFFFFFFFFFFFFFFFFFFFFFFFFFFFFFFFFFFFF AND PUSH4 0x40C10F19 DUP5 DUP5 PUSH1 0x40 MLOAD DUP4 PUSH4 0xFFFFFFFF AND PUSH1 0xE0 SHL DUP2 MSTORE PUSH1 0x4 ADD PUSH2 0xA13 SWAP3 SWAP2 SWAP1 PUSH2 0x1137 JUMP JUMPDEST PUSH0 PUSH1 0x40 MLOAD DUP1 DUP4 SUB DUP2 PUSH0 DUP8 DUP1 EXTCODESIZE ISZERO DUP1 ISZERO PUSH2 0xA2A JUMPI PUSH0 PUSH0 REVERT JUMPDEST POP GAS CALL ISZERO DUP1 ISZERO PUSH2 0xA3C JUMPI RETURNDATASIZE PUSH0 PUSH0 RETURNDATACOPY RETURNDATASIZE PUSH0 REVERT JUMPDEST POP POP POP POP POP POP POP POP JUMP JUMPDEST PUSH0 PUSH2 0xA51 DUP3 PUSH0 PUSH2 0xA58 JUMP JUMPDEST SWAP1 POP SWAP2 SWAP1 POP JUMP JUMPDEST PUSH0 DUP2 SELFBALANCE LT ISZERO PUSH2 0xAA0 JUMPI SELFBALANCE DUP3 PUSH1 0x40 MLOAD PUSH32 0xCF47918100000000000000000000000000000000000000000000000000000000 DUP2 MSTORE PUSH1 0x4 ADD PUSH2 0xA97 SWAP3 SWAP2 SWAP1 PUSH2 0x115E JUMP JUMPDEST PUSH1 0x40 MLOAD DUP1 SWAP2 SUB SWAP1 REVERT JUMPDEST PUSH23 0x3D602D80600A3D3981F3363D3D373D3D3D363D73000000 DUP4 PUSH1 0x60 SHL PUSH1 0xE8 SHR OR PUSH0 MSTORE PUSH15 0x5AF43D82803E903D91602B57FD5BF3 DUP4 PUSH1 0x78 SHL OR PUSH1 0x20 MSTORE PUSH1 0x37 PUSH1 0x9 DUP4 CREATE SWAP1 POP PUSH0 PUSH20 0xFFFFFFFFFFFFFFFFFFFFFFFFFFFFFFFFFFFFFFFF AND DUP2 PUSH20 0xFFFFFFFFFFFFFFFFFFFFFFFFFFFFFFFFFFFFFFFF AND SUB PUSH2 0xB47 JUMPI PUSH1 0x40 MLOAD PUSH32 0xB06EBF3D00000000000000000000000000000000000000000000000000000000 DUP2 MSTORE PUSH1 0x4 ADD PUSH1 0x40 MLOAD DUP1 SWAP2 SUB SWAP1 REVERT JUMPDEST SWAP3 SWAP2 POP POP JUMP JUMPDEST PUSH0 PUSH20 0xFFFFFFFFFFFFFFFFFFFFFFFFFFFFFFFFFFFFFFFF DUP3 AND SWAP1 POP SWAP2 SWAP1 POP JUMP JUMPDEST PUSH0 PUSH2 0xB76 DUP3 PUSH2 0xB4D JUMP JUMPDEST SWAP1 POP SWAP2 SWAP1 POP JUMP JUMPDEST PUSH2 0xB86 DUP2 PUSH2 0xB6C JUMP JUMPDEST DUP3 MSTORE POP POP JUMP JUMPDEST PUSH0 PUSH1 0x20 DUP3 ADD SWAP1 POP PUSH2 0xB9F PUSH0 DUP4 ADD DUP5 PUSH2 0xB7D JUMP JUMPDEST SWAP3 SWAP2 POP POP JUMP JUMPDEST PUSH0 PUSH1 0x40 MLOAD SWAP1 POP SWAP1 JUMP JUMPDEST PUSH0 PUSH0 REVERT JUMPDEST PUSH0 PUSH0 REVERT JUMPDEST PUSH2 0xBBF DUP2 PUSH2 0xB6C JUMP JUMPDEST DUP2 EQ PUSH2 0xBC9 JUMPI PUSH0 PUSH0 REVERT JUMPDEST POP JUMP JUMPDEST PUSH0 DUP2 CALLDATALOAD SWAP1 POP PUSH2 0xBDA DUP2 PUSH2 0xBB6 JUMP JUMPDEST SWAP3 SWAP2 POP POP JUMP JUMPDEST PUSH0 PUSH1 0x20 DUP3 DUP5 SUB SLT ISZERO PUSH2 0xBF5 JUMPI PUSH2 0xBF4 PUSH2 0xBAE JUMP JUMPDEST JUMPDEST PUSH0 PUSH2 0xC02 DUP5 DUP3 DUP6 ADD PUSH2 0xBCC JUMP JUMPDEST SWAP2 POP POP SWAP3 SWAP2 POP POP JUMP JUMPDEST PUSH0 DUP2 SWAP1 POP SWAP2 SWAP1 POP JUMP JUMPDEST PUSH2 0xC1D DUP2 PUSH2 0xC0B JUMP JUMPDEST DUP2 EQ PUSH2 0xC27 JUMPI PUSH0 PUSH0 REVERT JUMPDEST POP JUMP JUMPDEST PUSH0 DUP2 CALLDATALOAD SWAP1 POP PUSH2 0xC38 DUP2 PUSH2 0xC14 JUMP JUMPDEST SWAP3 SWAP2 POP POP JUMP JUMPDEST PUSH0 PUSH1 0x20 DUP3 DUP5 SUB SLT ISZERO PUSH2 0xC53 JUMPI PUSH2 0xC52 PUSH2 0xBAE JUMP JUMPDEST JUMPDEST PUSH0 PUSH2 0xC60 DUP5 DUP3 DUP6 ADD PUSH2 0xC2A JUMP JUMPDEST SWAP2 POP POP SWAP3 SWAP2 POP POP JUMP JUMPDEST PUSH0 PUSH0 REVERT JUMPDEST PUSH0 PUSH0 REVERT JUMPDEST PUSH0 PUSH1 0x1F NOT PUSH1 0x1F DUP4 ADD AND SWAP1 POP SWAP2 SWAP1 POP JUMP JUMPDEST PUSH32 0x4E487B7100000000000000000000000000000000000000000000000000000000 PUSH0 MSTORE PUSH1 0x41 PUSH1 0x4 MSTORE PUSH1 0x24 PUSH0 REVERT JUMPDEST PUSH2 0xCB7 DUP3 PUSH2 0xC71 JUMP JUMPDEST DUP2 ADD DUP2 DUP2 LT PUSH8 0xFFFFFFFFFFFFFFFF DUP3 GT OR ISZERO PUSH2 0xCD6 JUMPI PUSH2 0xCD5 PUSH2 0xC81 JUMP JUMPDEST JUMPDEST DUP1 PUSH1 0x40 MSTORE POP POP POP JUMP JUMPDEST PUSH0 PUSH2 0xCE8 PUSH2 0xBA5 JUMP JUMPDEST SWAP1 POP PUSH2 0xCF4 DUP3 DUP3 PUSH2 0xCAE JUMP JUMPDEST SWAP2 SWAP1 POP JUMP JUMPDEST PUSH0 PUSH8 0xFFFFFFFFFFFFFFFF DUP3 GT ISZERO PUSH2 0xD13 JUMPI PUSH2 0xD12 PUSH2 0xC81 JUMP JUMPDEST JUMPDEST PUSH2 0xD1C DUP3 PUSH2 0xC71 JUMP JUMPDEST SWAP1 POP PUSH1 0x20 DUP2 ADD SWAP1 POP SWAP2 SWAP1 POP JUMP JUMPDEST DUP3 DUP2 DUP4 CALLDATACOPY PUSH0 DUP4 DUP4 ADD MSTORE POP POP POP JUMP JUMPDEST PUSH0 PUSH2 0xD49 PUSH2 0xD44 DUP5 PUSH2 0xCF9 JUMP JUMPDEST PUSH2 0xCDF JUMP JUMPDEST SWAP1 POP DUP3 DUP2 MSTORE PUSH1 0x20 DUP2 ADD DUP5 DUP5 DUP5 ADD GT ISZERO PUSH2 0xD65 JUMPI PUSH2 0xD64 PUSH2 0xC6D JUMP JUMPDEST JUMPDEST PUSH2 0xD70 DUP5 DUP3 DUP6 PUSH2 0xD29 JUMP JUMPDEST POP SWAP4 SWAP3 POP POP POP JUMP JUMPDEST PUSH0 DUP3 PUSH1 0x1F DUP4 ADD SLT PUSH2 0xD8C JUMPI PUSH2 0xD8B PUSH2 0xC69 JUMP JUMPDEST JUMPDEST DUP2 CALLDATALOAD PUSH2 0xD9C DUP5 DUP3 PUSH1 0x20 DUP7 ADD PUSH2 0xD37 JUMP JUMPDEST SWAP2 POP POP SWAP3 SWAP2 POP POP JUMP JUMPDEST PUSH0 PUSH0 PUSH0 PUSH1 0x60 DUP5 DUP7 SUB SLT ISZERO PUSH2 0xDBC JUMPI PUSH2 0xDBB PUSH2 0xBAE JUMP JUMPDEST JUMPDEST PUSH0 PUSH2 0xDC9 DUP7 DUP3 DUP8 ADD PUSH2 0xC2A JUMP JUMPDEST SWAP4 POP POP PUSH1 0x20 DUP5 ADD CALLDATALOAD PUSH8 0xFFFFFFFFFFFFFFFF DUP2 GT ISZERO PUSH2 0xDEA JUMPI PUSH2 0xDE9 PUSH2 0xBB2 JUMP JUMPDEST JUMPDEST PUSH2 0xDF6 DUP7 DUP3 DUP8 ADD PUSH2 0xD78 JUMP JUMPDEST SWAP3 POP POP PUSH1 0x40 DUP5 ADD CALLDATALOAD PUSH8 0xFFFFFFFFFFFFFFFF DUP2 GT ISZERO PUSH2 0xE17 JUMPI PUSH2 0xE16 PUSH2 0xBB2 JUMP JUMPDEST JUMPDEST PUSH2 0xE23 DUP7 DUP3 DUP8 ADD PUSH2 0xD78 JUMP JUMPDEST SWAP2 POP POP SWAP3 POP SWAP3 POP SWAP3 JUMP JUMPDEST PUSH0 PUSH0 PUSH0 PUSH1 0x60 DUP5 DUP7 SUB SLT ISZERO PUSH2 0xE44 JUMPI PUSH2 0xE43 PUSH2 0xBAE JUMP JUMPDEST JUMPDEST PUSH0 PUSH2 0xE51 DUP7 DUP3 DUP8 ADD PUSH2 0xC2A JUMP JUMPDEST SWAP4 POP POP PUSH1 0x20 PUSH2 0xE62 DUP7 DUP3 DUP8 ADD PUSH2 0xBCC JUMP JUMPDEST SWAP3 POP POP PUSH1 0x40 PUSH2 0xE73 DUP7 DUP3 DUP8 ADD PUSH2 0xC2A JUMP JUMPDEST SWAP2 POP POP SWAP3 POP SWAP3 POP SWAP3 JUMP JUMPDEST PUSH0 DUP3 DUP3 MSTORE PUSH1 0x20 DUP3 ADD SWAP1 POP SWAP3 SWAP2 POP POP JUMP JUMPDEST PUSH32 0x4E4F545F4F574E45520000000000000000000000000000000000000000000000 PUSH0 DUP3 ADD MSTORE POP JUMP JUMPDEST PUSH0 PUSH2 0xEC1 PUSH1 0x9 DUP4 PUSH2 0xE7D JUMP JUMPDEST SWAP2 POP PUSH2 0xECC DUP3 PUSH2 0xE8D JUMP JUMPDEST PUSH1 0x20 DUP3 ADD SWAP1 POP SWAP2 SWAP1 POP JUMP JUMPDEST PUSH0 PUSH1 0x20 DUP3 ADD SWAP1 POP DUP2 DUP2 SUB PUSH0 DUP4 ADD MSTORE PUSH2 0xEEE DUP2 PUSH2 0xEB5 JUMP JUMPDEST SWAP1 POP SWAP2 SWAP1 POP JUMP JUMPDEST PUSH32 0x5A45524F5F414444520000000000000000000000000000000000000000000000 PUSH0 DUP3 ADD MSTORE POP JUMP JUMPDEST PUSH0 PUSH2 0xF29 PUSH1 0x9 DUP4 PUSH2 0xE7D JUMP JUMPDEST SWAP2 POP PUSH2 0xF34 DUP3 PUSH2 0xEF5 JUMP JUMPDEST PUSH1 0x20 DUP3 ADD SWAP1 POP SWAP2 SWAP1 POP JUMP JUMPDEST PUSH0 PUSH1 0x20 DUP3 ADD SWAP1 POP DUP2 DUP2 SUB PUSH0 DUP4 ADD MSTORE PUSH2 0xF56 DUP2 PUSH2 0xF1D JUMP JUMPDEST SWAP1 POP SWAP2 SWAP1 POP JUMP JUMPDEST PUSH32 0x4558495354530000000000000000000000000000000000000000000000000000 PUSH0 DUP3 ADD MSTORE POP JUMP JUMPDEST PUSH0 PUSH2 0xF91 PUSH1 0x6 DUP4 PUSH2 0xE7D JUMP JUMPDEST SWAP2 POP PUSH2 0xF9C DUP3 PUSH2 0xF5D JUMP JUMPDEST PUSH1 0x20 DUP3 ADD SWAP1 POP SWAP2 SWAP1 POP JUMP JUMPDEST PUSH0 PUSH1 0x20 DUP3 ADD SWAP1 POP DUP2 DUP2 SUB PUSH0 DUP4 ADD MSTORE PUSH2 0xFBE DUP2 PUSH2 0xF85 JUMP JUMPDEST SWAP1 POP SWAP2 SWAP1 POP JUMP JUMPDEST PUSH0 DUP2 MLOAD SWAP1 POP SWAP2 SWAP1 POP JUMP JUMPDEST DUP3 DUP2 DUP4 MCOPY PUSH0 DUP4 DUP4 ADD MSTORE POP POP POP JUMP JUMPDEST PUSH0 PUSH2 0xFE7 DUP3 PUSH2 0xFC5 JUMP JUMPDEST PUSH2 0xFF1 DUP2 DUP6 PUSH2 0xE7D JUMP JUMPDEST SWAP4 POP PUSH2 0x1001 DUP2 DUP6 PUSH1 0x20 DUP7 ADD PUSH2 0xFCF JUMP JUMPDEST PUSH2 0x100A DUP2 PUSH2 0xC71 JUMP JUMPDEST DUP5 ADD SWAP2 POP POP SWAP3 SWAP2 POP POP JUMP JUMPDEST PUSH0 PUSH1 0x60 DUP3 ADD SWAP1 POP DUP2 DUP2 SUB PUSH0 DUP4 ADD MSTORE PUSH2 0x102D DUP2 DUP7 PUSH2 0xFDD JUMP JUMPDEST SWAP1 POP DUP2 DUP2 SUB PUSH1 0x20 DUP4 ADD MSTORE PUSH2 0x1041 DUP2 DUP6 PUSH2 0xFDD JUMP JUMPDEST SWAP1 POP PUSH2 0x1050 PUSH1 0x40 DUP4 ADD DUP5 PUSH2 0xB7D JUMP JUMPDEST SWAP5 SWAP4 POP POP POP POP JUMP JUMPDEST PUSH32 0x4E4F545F4D41524B455400000000000000000000000000000000000000000000 PUSH0 DUP3 ADD MSTORE POP JUMP JUMPDEST PUSH0 PUSH2 0x108C PUSH1 0xA DUP4 PUSH2 0xE7D JUMP JUMPDEST SWAP2 POP PUSH2 0x1097 DUP3 PUSH2 0x1058 JUMP JUMPDEST PUSH1 0x20 DUP3 ADD SWAP1 POP SWAP2 SWAP1 POP JUMP JUMPDEST PUSH0 PUSH1 0x20 DUP3 ADD SWAP1 POP DUP2 DUP2 SUB PUSH0 DUP4 ADD MSTORE PUSH2 0x10B9 DUP2 PUSH2 0x1080 JUMP JUMPDEST SWAP1 POP SWAP2 SWAP1 POP JUMP JUMPDEST PUSH32 0x4E4F5F544F4B454E000000000000000000000000000000000000000000000000 PUSH0 DUP3 ADD MSTORE POP JUMP JUMPDEST PUSH0 PUSH2 0x10F4 PUSH1 0x8 DUP4 PUSH2 0xE7D JUMP JUMPDEST SWAP2 POP PUSH2 0x10FF DUP3 PUSH2 0x10C0 JUMP JUMPDEST PUSH1 0x20 DUP3 ADD SWAP1 POP SWAP2 SWAP1 POP JUMP JUMPDEST PUSH0 PUSH1 0x20 DUP3 ADD SWAP1 POP DUP2 DUP2 SUB PUSH0 DUP4 ADD MSTORE PUSH2 0x1121 DUP2 PUSH2 0x10E8 JUMP JUMPDEST SWAP1 POP SWAP2 SWAP1 POP JUMP JUMPDEST PUSH2 0x1131 DUP2 PUSH2 0xC0B JUMP JUMPDEST DUP3 MSTORE POP POP JUMP JUMPDEST PUSH0 PUSH1 0x40 DUP3 ADD SWAP1 POP PUSH2 0x114A PUSH0 DUP4 ADD DUP6 PUSH2 0xB7D JUMP JUMPDEST PUSH2 0x1157 PUSH1 0x20 DUP4 ADD DUP5 PUSH2 0x1128 JUMP JUMPDEST SWAP4 SWAP3 POP POP POP JUMP JUMPDEST PUSH0 PUSH1 0x40 DUP3 ADD SWAP1 POP PUSH2 0x1171 PUSH0 DUP4 ADD DUP6 PUSH2 0x1128 JUMP JUMPDEST PUSH2 0x117E PUSH1 0x20 DUP4 ADD DUP5 PUSH2 0x1128 JUMP JUMPDEST SWAP4 SWAP3 POP POP POP JUMP INVALID LOG2 PUSH5 0x6970667358 0x22 SLT KECCAK256 0xEB SWAP1 EXTCODESIZE PUSH24 0x26AD74FD6C04C60ACEB877856F9EDB8C9D738177673011C6 JUMPI PUSH10 0x1BB464736F6C63430008 SHL STOP CALLER PUSH1 0x80 PUSH1 0x40 MSTORE CALLVALUE DUP1 ISZERO PUSH2 0xF JUMPI PUSH0 PUSH0 REVERT JUMPDEST POP PUSH1 0x40 MLOAD DUP1 PUSH1 0x40 ADD PUSH1 0x40 MSTORE DUP1 PUSH1 0xB DUP2 MSTORE PUSH1 0x20 ADD PUSH32 0x504C414345484F4C444552000000000000000000000000000000000000000000 DUP2 MSTORE POP PUSH1 0x40 MLOAD DUP1 PUSH1 0x40 ADD PUSH1 0x40 MSTORE DUP1 PUSH1 0x3 DUP2 MSTORE PUSH1 0x20 ADD PUSH32 0x504C480000000000000000000000000000000000000000000000000000000000 DUP2 MSTORE POP DUP2 PUSH1 0x3 SWAP1 DUP2 PUSH2 0x8B SWAP2 SWAP1 PUSH2 0x2E0 JUMP JUMPDEST POP DUP1 PUSH1 0x4 SWAP1 DUP2 PUSH2 0x9B SWAP2 SWAP1 PUSH2 0x2E0 JUMP JUMPDEST POP POP POP PUSH2 0x3AF JUMP JUMPDEST PUSH0 DUP2 MLOAD SWAP1 POP SWAP2 SWAP1 POP JUMP JUMPDEST PUSH32 0x4E487B7100000000000000000000000000000000000000000000000000000000 PUSH0 MSTORE PUSH1 0x41 PUSH1 0x4 MSTORE PUSH1 0x24 PUSH0 REVERT JUMPDEST PUSH32 0x4E487B7100000000000000000000000000000000000000000000000000000000 PUSH0 MSTORE PUSH1 0x22 PUSH1 0x4 MSTORE PUSH1 0x24 PUSH0 REVERT JUMPDEST PUSH0 PUSH1 0x2 DUP3 DIV SWAP1 POP PUSH1 0x1 DUP3 AND DUP1 PUSH2 0x11E JUMPI PUSH1 0x7F DUP3 AND SWAP2 POP JUMPDEST PUSH1 0x20 DUP3 LT DUP2 SUB PUSH2 0x131 JUMPI PUSH2 0x130 PUSH2 0xDA JUMP JUMPDEST JUMPDEST POP SWAP2 SWAP1 POP JUMP JUMPDEST PUSH0 DUP2 SWAP1 POP DUP2 PUSH0 MSTORE PUSH1 0x20 PUSH0 KECCAK256 SWAP1 POP SWAP2 SWAP1 POP JUMP JUMPDEST PUSH0 PUSH1 0x20 PUSH1 0x1F DUP4 ADD DIV SWAP1 POP SWAP2 SWAP1 POP JUMP JUMPDEST PUSH0 DUP3 DUP3 SHL SWAP1 POP SWAP3 SWAP2 POP POP JUMP JUMPDEST PUSH0 PUSH1 0x8 DUP4 MUL PUSH2 0x193 PUSH32 0xFFFFFFFFFFFFFFFFFFFFFFFFFFFFFFFFFFFFFFFFFFFFFFFFFFFFFFFFFFFFFFFF DUP3 PUSH2 0x158 JUMP JUMPDEST PUSH2 0x19D DUP7 DUP4 PUSH2 0x158 JUMP JUMPDEST SWAP6 POP DUP1 NOT DUP5 AND SWAP4 POP DUP1 DUP7 AND DUP5 OR SWAP3 POP POP POP SWAP4 SWAP3 POP POP POP JUMP JUMPDEST PUSH0 DUP2 SWAP1 POP SWAP2 SWAP1 POP JUMP JUMPDEST PUSH0 DUP2 SWAP1 POP SWAP2 SWAP1 POP JUMP JUMPDEST PUSH0 PUSH2 0x1E1 PUSH2 0x1DC PUSH2 0x1D7 DUP5 PUSH2 0x1B5 JUMP JUMPDEST PUSH2 0x1BE JUMP JUMPDEST PUSH2 0x1B5 JUMP JUMPDEST SWAP1 POP SWAP2 SWAP1 POP JUMP JUMPDEST PUSH0 DUP2 SWAP1 POP SWAP2 SWAP1 POP JUMP JUMPDEST PUSH2 0x1FA DUP4 PUSH2 0x1C7 JUMP JUMPDEST PUSH2 0x20E PUSH2 0x206 DUP3 PUSH2 0x1E8 JUMP JUMPDEST DUP5 DUP5 SLOAD PUSH2 0x164 JUMP JUMPDEST DUP3 SSTORE POP POP POP POP JUMP JUMPDEST PUSH0 PUSH0 SWAP1 POP SWAP1 JUMP JUMPDEST PUSH2 0x225 PUSH2 0x216 JUMP JUMPDEST PUSH2 0x230 DUP2 DUP5 DUP5 PUSH2 0x1F1 JUMP JUMPDEST POP POP POP JUMP JUMPDEST JUMPDEST DUP2 DUP2 LT ISZERO PUSH2 0x253 JUMPI PUSH2 0x248 PUSH0 DUP3 PUSH2 0x21D JUMP JUMPDEST PUSH1 0x1 DUP2 ADD SWAP1 POP PUSH2 0x236 JUMP JUMPDEST POP POP JUMP JUMPDEST PUSH1 0x1F DUP3 GT ISZERO PUSH2 0x298 JUMPI PUSH2 0x269 DUP2 PUSH2 0x137 JUMP JUMPDEST PUSH2 0x272 DUP5 PUSH2 0x149 JUMP JUMPDEST DUP2 ADD PUSH1 0x20 DUP6 LT ISZERO PUSH2 0x281 JUMPI DUP2 SWAP1 POP JUMPDEST PUSH2 0x295 PUSH2 0x28D DUP6 PUSH2 0x149 JUMP JUMPDEST DUP4 ADD DUP3 PUSH2 0x235 JUMP JUMPDEST POP POP JUMPDEST POP POP POP JUMP JUMPDEST PUSH0 DUP3 DUP3 SHR SWAP1 POP SWAP3 SWAP2 POP POP JUMP JUMPDEST PUSH0 PUSH2 0x2B8 PUSH0 NOT DUP5 PUSH1 0x8 MUL PUSH2 0x29D JUMP JUMPDEST NOT DUP1 DUP4 AND SWAP2 POP POP SWAP3 SWAP2 POP POP JUMP JUMPDEST PUSH0 PUSH2 0x2D0 DUP4 DUP4 PUSH2 0x2A9 JUMP JUMPDEST SWAP2 POP DUP3 PUSH1 0x2 MUL DUP3 OR SWAP1 POP SWAP3 SWAP2 POP POP JUMP JUMPDEST PUSH2 0x2E9 DUP3 PUSH2 0xA3 JUMP JUMPDEST PUSH8 0xFFFFFFFFFFFFFFFF DUP2 GT ISZERO PUSH2 0x302 JUMPI PUSH2 0x301 PUSH2 0xAD JUMP JUMPDEST JUMPDEST PUSH2 0x30C DUP3 SLOAD PUSH2 0x107 JUMP JUMPDEST PUSH2 0x317 DUP3 DUP3 DUP6 PUSH2 0x257 JUMP JUMPDEST PUSH0 PUSH1 0x20 SWAP1 POP PUSH1 0x1F DUP4 GT PUSH1 0x1 DUP2 EQ PUSH2 0x348 JUMPI PUSH0 DUP5 ISZERO PUSH2 0x336 JUMPI DUP3 DUP8 ADD MLOAD SWAP1 POP JUMPDEST PUSH2 0x340 DUP6 DUP3 PUSH2 0x2C5 JUMP JUMPDEST DUP7 SSTORE POP PUSH2 0x3A7 JUMP JUMPDEST PUSH1 0x1F NOT DUP5 AND PUSH2 0x356 DUP7 PUSH2 0x137 JUMP JUMPDEST PUSH0 JUMPDEST DUP3 DUP2 LT ISZERO PUSH2 0x37D JUMPI DUP5 DUP10 ADD MLOAD DUP3 SSTORE PUSH1 0x1 DUP3 ADD SWAP2 POP PUSH1 0x20 DUP6 ADD SWAP5 POP PUSH1 0x20 DUP2 ADD SWAP1 POP PUSH2 0x358 JUMP JUMPDEST DUP7 DUP4 LT ISZERO PUSH2 0x39A JUMPI DUP5 DUP10 ADD MLOAD PUSH2 0x396 PUSH1 0x1F DUP10 AND DUP3 PUSH2 0x2A9 JUMP JUMPDEST DUP4 SSTORE POP JUMPDEST PUSH1 0x1 PUSH1 0x2 DUP9 MUL ADD DUP9 SSTORE POP POP POP JUMPDEST POP POP POP POP POP POP JUMP JUMPDEST PUSH2 0x1482 DUP1 PUSH2 0x3BC PUSH0 CODECOPY PUSH0 RETURN INVALID PUSH1 0x80 PUSH1 0x40 MSTORE CALLVALUE DUP1 ISZERO PUSH2 0xF JUMPI PUSH0 PUSH0 REVERT JUMPDEST POP PUSH1 0x4 CALLDATASIZE LT PUSH2 0xE8 JUMPI PUSH0 CALLDATALOAD PUSH1 0xE0 SHR DUP1 PUSH4 0x40C10F19 GT PUSH2 0x8A JUMPI DUP1 PUSH4 0x95D89B41 GT PUSH2 0x64 JUMPI DUP1 PUSH4 0x95D89B41 EQ PUSH2 0x24A JUMPI DUP1 PUSH4 0x9DC29FAC EQ PUSH2 0x268 JUMPI DUP1 PUSH4 0xA9059CBB EQ PUSH2 0x284 JUMPI DUP1 PUSH4 0xDD62ED3E EQ PUSH2 0x2B4 JUMPI PUSH2 0xE8 JUMP JUMPDEST DUP1 PUSH4 0x40C10F19 EQ PUSH2 0x1E0 JUMPI DUP1 PUSH4 0x481C6A75 EQ PUSH2 0x1FC JUMPI DUP1 PUSH4 0x70A08231 EQ PUSH2 0x21A JUMPI PUSH2 0xE8 JUMP JUMPDEST DUP1 PUSH4 0x158EF93E GT PUSH2 0xC6 JUMPI DUP1 PUSH4 0x158EF93E EQ PUSH2 0x156 JUMPI DUP1 PUSH4 0x18160DDD EQ PUSH2 0x174 JUMPI DUP1 PUSH4 0x23B872DD EQ PUSH2 0x192 JUMPI DUP1 PUSH4 0x313CE567 EQ PUSH2 0x1C2 JUMPI PUSH2 0xE8 JUMP JUMPDEST DUP1 PUSH4 0x6FDDE03 EQ PUSH2 0xEC JUMPI DUP1 PUSH4 0x77F224A EQ PUSH2 0x10A JUMPI DUP1 PUSH4 0x95EA7B3 EQ PUSH2 0x126 JUMPI JUMPDEST PUSH0 PUSH0 REVERT JUMPDEST PUSH2 0xF4 PUSH2 0x2E4 JUMP JUMPDEST PUSH1 0x40 MLOAD PUSH2 0x101 SWAP2 SWAP1 PUSH2 0xE6A JUMP JUMPDEST PUSH1 0x40 MLOAD DUP1 SWAP2 SUB SWAP1 RETURN JUMPDEST PUSH2 0x124 PUSH1 0x4 DUP1 CALLDATASIZE SUB DUP2 ADD SWAP1 PUSH2 0x11F SWAP2 SWAP1 PUSH2 0x1021 JUMP JUMPDEST PUSH2 0x374 JUMP JUMPDEST STOP JUMPDEST PUSH2 0x140 PUSH1 0x4 DUP1 CALLDATASIZE SUB DUP2 ADD SWAP1 PUSH2 0x13B SWAP2 SWAP1 PUSH2 0x10DC JUMP JUMPDEST PUSH2 0x42C JUMP JUMPDEST PUSH1 0x40 MLOAD PUSH2 0x14D SWAP2 SWAP1 PUSH2 0x1134 JUMP JUMPDEST PUSH1 0x40 MLOAD DUP1 SWAP2 SUB SWAP1 RETURN JUMPDEST PUSH2 0x15E PUSH2 0x44E JUMP JUMPDEST PUSH1 0x40 MLOAD PUSH2 0x16B SWAP2 SWAP1 PUSH2 0x1134 JUMP JUMPDEST PUSH1 0x40 MLOAD DUP1 SWAP2 SUB SWAP1 RETURN JUMPDEST PUSH2 0x17C PUSH2 0x461 JUMP JUMPDEST PUSH1 0x40 MLOAD PUSH2 0x189 SWAP2 SWAP1 PUSH2 0x115C JUMP JUMPDEST PUSH1 0x40 MLOAD DUP1 SWAP2 SUB SWAP1 RETURN JUMPDEST PUSH2 0x1AC PUSH1 0x4 DUP1 CALLDATASIZE SUB DUP2 ADD SWAP1 PUSH2 0x1A7 SWAP2 SWAP1 PUSH2 0x1175 JUMP JUMPDEST PUSH2 0x46A JUMP JUMPDEST PUSH1 0x40 MLOAD PUSH2 0x1B9 SWAP2 SWAP1 PUSH2 0x1134 JUMP JUMPDEST PUSH1 0x40 MLOAD DUP1 SWAP2 SUB SWAP1 RETURN JUMPDEST PUSH2 0x1CA PUSH2 0x498 JUMP JUMPDEST PUSH1 0x40 MLOAD PUSH2 0x1D7 SWAP2 SWAP1 PUSH2 0x11E0 JUMP JUMPDEST PUSH1 0x40 MLOAD DUP1 SWAP2 SUB SWAP1 RETURN JUMPDEST PUSH2 0x1FA PUSH1 0x4 DUP1 CALLDATASIZE SUB DUP2 ADD SWAP1 PUSH2 0x1F5 SWAP2 SWAP1 PUSH2 0x10DC JUMP JUMPDEST PUSH2 0x4A0 JUMP JUMPDEST STOP JUMPDEST PUSH2 0x204 PUSH2 0x53D JUMP JUMPDEST PUSH1 0x40 MLOAD PUSH2 0x211 SWAP2 SWAP1 PUSH2 0x1208 JUMP JUMPDEST PUSH1 0x40 MLOAD DUP1 SWAP2 SUB SWAP1 RETURN JUMPDEST PUSH2 0x234 PUSH1 0x4 DUP1 CALLDATASIZE SUB DUP2 ADD SWAP1 PUSH2 0x22F SWAP2 SWAP1 PUSH2 0x1221 JUMP JUMPDEST PUSH2 0x562 JUMP JUMPDEST PUSH1 0x40 MLOAD PUSH2 0x241 SWAP2 SWAP1 PUSH2 0x115C JUMP JUMPDEST PUSH1 0x40 MLOAD DUP1 SWAP2 SUB SWAP1 RETURN JUMPDEST PUSH2 0x252 PUSH2 0x5A7 JUMP JUMPDEST PUSH1 0x40 MLOAD PUSH2 0x25F SWAP2 SWAP1 PUSH2 0xE6A JUMP JUMPDEST PUSH1 0x40 MLOAD DUP1 SWAP2 SUB SWAP1 RETURN JUMPDEST PUSH2 0x282 PUSH1 0x4 DUP1 CALLDATASIZE SUB DUP2 ADD SWAP1 PUSH2 0x27D SWAP2 SWAP1 PUSH2 0x10DC JUMP JUMPDEST PUSH2 0x637 JUMP JUMPDEST STOP JUMPDEST PUSH2 0x29E PUSH1 0x4 DUP1 CALLDATASIZE SUB DUP2 ADD SWAP1 PUSH2 0x299 SWAP2 SWAP1 PUSH2 0x10DC JUMP JUMPDEST PUSH2 0x6D4 JUMP JUMPDEST PUSH1 0x40 MLOAD PUSH2 0x2AB SWAP2 SWAP1 PUSH2 0x1134 JUMP JUMPDEST PUSH1 0x40 MLOAD DUP1 SWAP2 SUB SWAP1 RETURN JUMPDEST PUSH2 0x2CE PUSH1 0x4 DUP1 CALLDATASIZE SUB DUP2 ADD SWAP1 PUSH2 0x2C9 SWAP2 SWAP1 PUSH2 0x124C JUMP JUMPDEST PUSH2 0x6F6 JUMP JUMPDEST PUSH1 0x40 MLOAD PUSH2 0x2DB SWAP2 SWAP1 PUSH2 0x115C JUMP JUMPDEST PUSH1 0x40 MLOAD DUP1 SWAP2 SUB SWAP1 RETURN JUMPDEST PUSH1 0x60 PUSH1 0x3 DUP1 SLOAD PUSH2 0x2F3 SWAP1 PUSH2 0x12B7 JUMP JUMPDEST DUP1 PUSH1 0x1F ADD PUSH1 0x20 DUP1 SWAP2 DIV MUL PUSH1 0x20 ADD PUSH1 0x40 MLOAD SWAP1 DUP2 ADD PUSH1 0x40 MSTORE DUP1 SWAP3 SWAP2 SWAP1 DUP2 DUP2 MSTORE PUSH1 0x20 ADD DUP3 DUP1 SLOAD PUSH2 0x31F SWAP1 PUSH2 0x12B7 JUMP JUMPDEST DUP1 ISZERO PUSH2 0x36A JUMPI DUP1 PUSH1 0x1F LT PUSH2 0x341 JUMPI PUSH2 0x100 DUP1 DUP4 SLOAD DIV MUL DUP4 MSTORE SWAP2 PUSH1 0x20 ADD SWAP2 PUSH2 0x36A JUMP JUMPDEST DUP3 ADD SWAP2 SWAP1 PUSH0 MSTORE PUSH1 0x20 PUSH0 KECCAK256 SWAP1 JUMPDEST DUP2 SLOAD DUP2 MSTORE SWAP1 PUSH1 0x1 ADD SWAP1 PUSH1 0x20 ADD DUP1 DUP4 GT PUSH2 0x34D JUMPI DUP3 SWAP1 SUB PUSH1 0x1F AND DUP3 ADD SWAP2 JUMPDEST POP POP POP POP POP SWAP1 POP SWAP1 JUMP JUMPDEST PUSH1 0x5 PUSH1 0x14 SWAP1 SLOAD SWAP1 PUSH2 0x100 EXP SWAP1 DIV PUSH1 0xFF AND ISZERO PUSH2 0x3C4 JUMPI PUSH1 0x40 MLOAD PUSH32 0x8C379A000000000000000000000000000000000000000000000000000000000 DUP2 MSTORE PUSH1 0x4 ADD PUSH2 0x3BB SWAP1 PUSH2 0x1331 JUMP JUMPDEST PUSH1 0x40 MLOAD DUP1 SWAP2 SUB SWAP1 REVERT JUMPDEST DUP1 PUSH1 0x5 PUSH0 PUSH2 0x100 EXP DUP2 SLOAD DUP2 PUSH20 0xFFFFFFFFFFFFFFFFFFFFFFFFFFFFFFFFFFFFFFFF MUL NOT AND SWAP1 DUP4 PUSH20 0xFFFFFFFFFFFFFFFFFFFFFFFFFFFFFFFFFFFFFFFF AND MUL OR SWAP1 SSTORE POP DUP3 PUSH1 0x3 SSTORE DUP2 PUSH1 0x4 SSTORE PUSH1 0x1 PUSH1 0x5 PUSH1 0x14 PUSH2 0x100 EXP DUP2 SLOAD DUP2 PUSH1 0xFF MUL NOT AND SWAP1 DUP4 ISZERO ISZERO MUL OR SWAP1 SSTORE POP POP POP POP JUMP JUMPDEST PUSH0 PUSH0 PUSH2 0x436 PUSH2 0x778 JUMP JUMPDEST SWAP1 POP PUSH2 0x443 DUP2 DUP6 DUP6 PUSH2 0x77F JUMP JUMPDEST PUSH1 0x1 SWAP2 POP POP SWAP3 SWAP2 POP POP JUMP JUMPDEST PUSH1 0x5 PUSH1 0x14 SWAP1 SLOAD SWAP1 PUSH2 0x100 EXP SWAP1 DIV PUSH1 0xFF AND DUP2 JUMP JUMPDEST PUSH0 PUSH1 0x2 SLOAD SWAP1 POP SWAP1 JUMP JUMPDEST PUSH0 PUSH0 PUSH2 0x474 PUSH2 0x778 JUMP JUMPDEST SWAP1 POP PUSH2 0x481 DUP6 DUP3 DUP6 PUSH2 0x791 JUMP JUMPDEST PUSH2 0x48C DUP6 DUP6 DUP6 PUSH2 0x824 JUMP JUMPDEST PUSH1 0x1 SWAP2 POP POP SWAP4 SWAP3 POP POP POP JUMP JUMPDEST PUSH0 PUSH1 0x12 SWAP1 POP SWAP1 JUMP JUMPDEST PUSH1 0x5 PUSH0 SWAP1 SLOAD SWAP1 PUSH2 0x100 EXP SWAP1 DIV PUSH20 0xFFFFFFFFFFFFFFFFFFFFFFFFFFFFFFFFFFFFFFFF AND PUSH20 0xFFFFFFFFFFFFFFFFFFFFFFFFFFFFFFFFFFFFFFFF AND CALLER PUSH20 0xFFFFFFFFFFFFFFFFFFFFFFFFFFFFFFFFFFFFFFFF AND EQ PUSH2 0x52F JUMPI PUSH1 0x40 MLOAD PUSH32 0x8C379A000000000000000000000000000000000000000000000000000000000 DUP2 MSTORE PUSH1 0x4 ADD PUSH2 0x526 SWAP1 PUSH2 0x1399 JUMP JUMPDEST PUSH1 0x40 MLOAD DUP1 SWAP2 SUB SWAP1 REVERT JUMPDEST PUSH2 0x539 DUP3 DUP3 PUSH2 0x914 JUMP JUMPDEST POP POP JUMP JUMPDEST PUSH1 0x5 PUSH0 SWAP1 SLOAD SWAP1 PUSH2 0x100 EXP SWAP1 DIV PUSH20 0xFFFFFFFFFFFFFFFFFFFFFFFFFFFFFFFFFFFFFFFF AND DUP2 JUMP JUMPDEST PUSH0 PUSH0 PUSH0 DUP4 PUSH20 0xFFFFFFFFFFFFFFFFFFFFFFFFFFFFFFFFFFFFFFFF AND PUSH20 0xFFFFFFFFFFFFFFFFFFFFFFFFFFFFFFFFFFFFFFFF AND DUP2 MSTORE PUSH1 0x20 ADD SWAP1 DUP2 MSTORE PUSH1 0x20 ADD PUSH0 KECCAK256 SLOAD SWAP1 POP SWAP2 SWAP1 POP JUMP JUMPDEST PUSH1 0x60 PUSH1 0x4 DUP1 SLOAD PUSH2 0x5B6 SWAP1 PUSH2 0x12B7 JUMP JUMPDEST DUP1 PUSH1 0x1F ADD PUSH1 0x20 DUP1 SWAP2 DIV MUL PUSH1 0x20 ADD PUSH1 0x40 MLOAD SWAP1 DUP2 ADD PUSH1 0x40 MSTORE DUP1 SWAP3 SWAP2 SWAP1 DUP2 DUP2 MSTORE PUSH1 0x20 ADD DUP3 DUP1 SLOAD PUSH2 0x5E2 SWAP1 PUSH2 0x12B7 JUMP JUMPDEST DUP1 ISZERO PUSH2 0x62D JUMPI DUP1 PUSH1 0x1F LT PUSH2 0x604 JUMPI PUSH2 0x100 DUP1 DUP4 SLOAD DIV MUL DUP4 MSTORE SWAP2 PUSH1 0x20 ADD SWAP2 PUSH2 0x62D JUMP JUMPDEST DUP3 ADD SWAP2 SWAP1 PUSH0 MSTORE PUSH1 0x20 PUSH0 KECCAK256 SWAP1 JUMPDEST DUP2 SLOAD DUP2 MSTORE SWAP1 PUSH1 0x1 ADD SWAP1 PUSH1 0x20 ADD DUP1 DUP4 GT PUSH2 0x610 JUMPI DUP3 SWAP1 SUB PUSH1 0x1F AND DUP3 ADD SWAP2 JUMPDEST POP POP POP POP POP SWAP1 POP SWAP1 JUMP JUMPDEST PUSH1 0x5 PUSH0 SWAP1 SLOAD SWAP1 PUSH2 0x100 EXP SWAP1 DIV PUSH20 0xFFFFFFFFFFFFFFFFFFFFFFFFFFFFFFFFFFFFFFFF AND PUSH20 0xFFFFFFFFFFFFFFFFFFFFFFFFFFFFFFFFFFFFFFFF AND CALLER PUSH20 0xFFFFFFFFFFFFFFFFFFFFFFFFFFFFFFFFFFFFFFFF AND EQ PUSH2 0x6C6 JUMPI PUSH1 0x40 MLOAD PUSH32 0x8C379A000000000000000000000000000000000000000000000000000000000 DUP2 MSTORE PUSH1 0x4 ADD PUSH2 0x6BD SWAP1 PUSH2 0x1399 JUMP JUMPDEST PUSH1 0x40 MLOAD DUP1 SWAP2 SUB SWAP1 REVERT JUMPDEST PUSH2 0x6D0 DUP3 DUP3 PUSH2 0x993 JUMP JUMPDEST POP POP JUMP JUMPDEST PUSH0 PUSH0 PUSH2 0x6DE PUSH2 0x778 JUMP JUMPDEST SWAP1 POP PUSH2 0x6EB DUP2 DUP6 DUP6 PUSH2 0x824 JUMP JUMPDEST PUSH1 0x1 SWAP2 POP POP SWAP3 SWAP2 POP POP JUMP JUMPDEST PUSH0 PUSH1 0x1 PUSH0 DUP5 PUSH20 0xFFFFFFFFFFFFFFFFFFFFFFFFFFFFFFFFFFFFFFFF AND PUSH20 0xFFFFFFFFFFFFFFFFFFFFFFFFFFFFFFFFFFFFFFFF AND DUP2 MSTORE PUSH1 0x20 ADD SWAP1 DUP2 MSTORE PUSH1 0x20 ADD PUSH0 KECCAK256 PUSH0 DUP4 PUSH20 0xFFFFFFFFFFFFFFFFFFFFFFFFFFFFFFFFFFFFFFFF AND PUSH20 0xFFFFFFFFFFFFFFFFFFFFFFFFFFFFFFFFFFFFFFFF AND DUP2 MSTORE PUSH1 0x20 ADD SWAP1 DUP2 MSTORE PUSH1 0x20 ADD PUSH0 KECCAK256 SLOAD SWAP1 POP SWAP3 SWAP2 POP POP JUMP JUMPDEST PUSH0 CALLER SWAP1 POP SWAP1 JUMP JUMPDEST PUSH2 0x78C DUP4 DUP4 DUP4 PUSH1 0x1 PUSH2 0xA12 JUMP JUMPDEST POP POP POP JUMP JUMPDEST PUSH0 PUSH2 0x79C DUP5 DUP5 PUSH2 0x6F6 JUMP JUMPDEST SWAP1 POP PUSH32 0xFFFFFFFFFFFFFFFFFFFFFFFFFFFFFFFFFFFFFFFFFFFFFFFFFFFFFFFFFFFFFFFF DUP2 LT ISZERO PUSH2 0x81E JUMPI DUP2 DUP2 LT ISZERO PUSH2 0x80F JUMPI DUP3 DUP2 DUP4 PUSH1 0x40 MLOAD PUSH32 0xFB8F41B200000000000000000000000000000000000000000000000000000000 DUP2 MSTORE PUSH1 0x4 ADD PUSH2 0x806 SWAP4 SWAP3 SWAP2 SWAP1 PUSH2 0x13B7 JUMP JUMPDEST PUSH1 0x40 MLOAD DUP1 SWAP2 SUB SWAP1 REVERT JUMPDEST PUSH2 0x81D DUP5 DUP5 DUP5 DUP5 SUB PUSH0 PUSH2 0xA12 JUMP JUMPDEST JUMPDEST POP POP POP POP JUMP JUMPDEST PUSH0 PUSH20 0xFFFFFFFFFFFFFFFFFFFFFFFFFFFFFFFFFFFFFFFF AND DUP4 PUSH20 0xFFFFFFFFFFFFFFFFFFFFFFFFFFFFFFFFFFFFFFFF AND SUB PUSH2 0x894 JUMPI PUSH0 PUSH1 0x40 MLOAD PUSH32 0x96C6FD1E00000000000000000000000000000000000000000000000000000000 DUP2 MSTORE PUSH1 0x4 ADD PUSH2 0x88B SWAP2 SWAP1 PUSH2 0x1208 JUMP JUMPDEST PUSH1 0x40 MLOAD DUP1 SWAP2 SUB SWAP1 REVERT JUMPDEST PUSH0 PUSH20 0xFFFFFFFFFFFFFFFFFFFFFFFFFFFFFFFFFFFFFFFF AND DUP3 PUSH20 0xFFFFFFFFFFFFFFFFFFFFFFFFFFFFFFFFFFFFFFFF AND SUB PUSH2 0x904 JUMPI PUSH0 PUSH1 0x40 MLOAD PUSH32 0xEC442F0500000000000000000000000000000000000000000000000000000000 DUP2 MSTORE PUSH1 0x4 ADD PUSH2 0x8FB SWAP2 SWAP1 PUSH2 0x1208 JUMP JUMPDEST PUSH1 0x40 MLOAD DUP1 SWAP2 SUB SWAP1 REVERT JUMPDEST PUSH2 0x90F DUP4 DUP4 DUP4 PUSH2 0xBE1 JUMP JUMPDEST POP POP POP JUMP JUMPDEST PUSH0 PUSH20 0xFFFFFFFFFFFFFFFFFFFFFFFFFFFFFFFFFFFFFFFF AND DUP3 PUSH20 0xFFFFFFFFFFFFFFFFFFFFFFFFFFFFFFFFFFFFFFFF AND SUB PUSH2 0x984 JUMPI PUSH0 PUSH1 0x40 MLOAD PUSH32 0xEC442F0500000000000000000000000000000000000000000000000000000000 DUP2 MSTORE PUSH1 0x4 ADD PUSH2 0x97B SWAP2 SWAP1 PUSH2 0x1208 JUMP JUMPDEST PUSH1 0x40 MLOAD DUP1 SWAP2 SUB SWAP1 REVERT JUMPDEST PUSH2 0x98F PUSH0 DUP4 DUP4 PUSH2 0xBE1 JUMP JUMPDEST POP POP JUMP JUMPDEST PUSH0 PUSH20 0xFFFFFFFFFFFFFFFFFFFFFFFFFFFFFFFFFFFFFFFF AND DUP3 PUSH20 0xFFFFFFFFFFFFFFFFFFFFFFFFFFFFFFFFFFFFFFFF AND SUB PUSH2 0xA03 JUMPI PUSH0 PUSH1 0x40 MLOAD PUSH32 0x96C6FD1E00000000000000000000000000000000000000000000000000000000 DUP2 MSTORE PUSH1 0x4 ADD PUSH2 0x9FA SWAP2 SWAP1 PUSH2 0x1208 JUMP JUMPDEST PUSH1 0x40 MLOAD DUP1 SWAP2 SUB SWAP1 REVERT JUMPDEST PUSH2 0xA0E DUP3 PUSH0 DUP4 PUSH2 0xBE1 JUMP JUMPDEST POP POP JUMP JUMPDEST PUSH0 PUSH20 0xFFFFFFFFFFFFFFFFFFFFFFFFFFFFFFFFFFFFFFFF AND DUP5 PUSH20 0xFFFFFFFFFFFFFFFFFFFFFFFFFFFFFFFFFFFFFFFF AND SUB PUSH2 0xA82 JUMPI PUSH0 PUSH1 0x40 MLOAD PUSH32 0xE602DF0500000000000000000000000000000000000000000000000000000000 DUP2 MSTORE PUSH1 0x4 ADD PUSH2 0xA79 SWAP2 SWAP1 PUSH2 0x1208 JUMP JUMPDEST PUSH1 0x40 MLOAD DUP1 SWAP2 SUB SWAP1 REVERT JUMPDEST PUSH0 PUSH20 0xFFFFFFFFFFFFFFFFFFFFFFFFFFFFFFFFFFFFFFFF AND DUP4 PUSH20 0xFFFFFFFFFFFFFFFFFFFFFFFFFFFFFFFFFFFFFFFF AND SUB PUSH2 0xAF2 JUMPI PUSH0 PUSH1 0x40 MLOAD PUSH32 0x94280D6200000000000000000000000000000000000000000000000000000000 DUP2 MSTORE PUSH1 0x4 ADD PUSH2 0xAE9 SWAP2 SWAP1 PUSH2 0x1208 JUMP JUMPDEST PUSH1 0x40 MLOAD DUP1 SWAP2 SUB SWAP1 REVERT JUMPDEST DUP2 PUSH1 0x1 PUSH0 DUP7 PUSH20 0xFFFFFFFFFFFFFFFFFFFFFFFFFFFFFFFFFFFFFFFF AND PUSH20 0xFFFFFFFFFFFFFFFFFFFFFFFFFFFFFFFFFFFFFFFF AND DUP2 MSTORE PUSH1 0x20 ADD SWAP1 DUP2 MSTORE PUSH1 0x20 ADD PUSH0 KECCAK256 PUSH0 DUP6 PUSH20 0xFFFFFFFFFFFFFFFFFFFFFFFFFFFFFFFFFFFFFFFF AND PUSH20 0xFFFFFFFFFFFFFFFFFFFFFFFFFFFFFFFFFFFFFFFF AND DUP2 MSTORE PUSH1 0x20 ADD SWAP1 DUP2 MSTORE PUSH1 0x20 ADD PUSH0 KECCAK256 DUP2 SWAP1 SSTORE POP DUP1 ISZERO PUSH2 0xBDB JUMPI DUP3 PUSH20 0xFFFFFFFFFFFFFFFFFFFFFFFFFFFFFFFFFFFFFFFF AND DUP5 PUSH20 0xFFFFFFFFFFFFFFFFFFFFFFFFFFFFFFFFFFFFFFFF AND PUSH32 0x8C5BE1E5EBEC7D5BD14F71427D1E84F3DD0314C0F7B2291E5B200AC8C7C3B925 DUP5 PUSH1 0x40 MLOAD PUSH2 0xBD2 SWAP2 SWAP1 PUSH2 0x115C JUMP JUMPDEST PUSH1 0x40 MLOAD DUP1 SWAP2 SUB SWAP1 LOG3 JUMPDEST POP POP POP POP JUMP JUMPDEST PUSH0 PUSH20 0xFFFFFFFFFFFFFFFFFFFFFFFFFFFFFFFFFFFFFFFF AND DUP4 PUSH20 0xFFFFFFFFFFFFFFFFFFFFFFFFFFFFFFFFFFFFFFFF AND SUB PUSH2 0xC31 JUMPI DUP1 PUSH1 0x2 PUSH0 DUP3 DUP3 SLOAD PUSH2 0xC25 SWAP2 SWAP1 PUSH2 0x1419 JUMP JUMPDEST SWAP3 POP POP DUP2 SWAP1 SSTORE POP PUSH2 0xCFF JUMP JUMPDEST PUSH0 PUSH0 PUSH0 DUP6 PUSH20 0xFFFFFFFFFFFFFFFFFFFFFFFFFFFFFFFFFFFFFFFF AND PUSH20 0xFFFFFFFFFFFFFFFFFFFFFFFFFFFFFFFFFFFFFFFF AND DUP2 MSTORE PUSH1 0x20 ADD SWAP1 DUP2 MSTORE PUSH1 0x20 ADD PUSH0 KECCAK256 SLOAD SWAP1 POP DUP2 DUP2 LT ISZERO PUSH2 0xCBA JUMPI DUP4 DUP2 DUP4 PUSH1 0x40 MLOAD PUSH32 0xE450D38C00000000000000000000000000000000000000000000000000000000 DUP2 MSTORE PUSH1 0x4 ADD PUSH2 0xCB1 SWAP4 SWAP3 SWAP2 SWAP1 PUSH2 0x13B7 JUMP JUMPDEST PUSH1 0x40 MLOAD DUP1 SWAP2 SUB SWAP1 REVERT JUMPDEST DUP2 DUP2 SUB PUSH0 PUSH0 DUP7 PUSH20 0xFFFFFFFFFFFFFFFFFFFFFFFFFFFFFFFFFFFFFFFF AND PUSH20 0xFFFFFFFFFFFFFFFFFFFFFFFFFFFFFFFFFFFFFFFF AND DUP2 MSTORE PUSH1 0x20 ADD SWAP1 DUP2 MSTORE PUSH1 0x20 ADD PUSH0 KECCAK256 DUP2 SWAP1 SSTORE POP POP JUMPDEST PUSH0 PUSH20 0xFFFFFFFFFFFFFFFFFFFFFFFFFFFFFFFFFFFFFFFF AND DUP3 PUSH20 0xFFFFFFFFFFFFFFFFFFFFFFFFFFFFFFFFFFFFFFFF AND SUB PUSH2 0xD46 JUMPI DUP1 PUSH1 0x2 PUSH0 DUP3 DUP3 SLOAD SUB SWAP3 POP POP DUP2 SWAP1 SSTORE POP PUSH2 0xD90 JUMP JUMPDEST DUP1 PUSH0 PUSH0 DUP5 PUSH20 0xFFFFFFFFFFFFFFFFFFFFFFFFFFFFFFFFFFFFFFFF AND PUSH20 0xFFFFFFFFFFFFFFFFFFFFFFFFFFFFFFFFFFFFFFFF AND DUP2 MSTORE PUSH1 0x20 ADD SWAP1 DUP2 MSTORE PUSH1 0x20 ADD PUSH0 KECCAK256 PUSH0 DUP3 DUP3 SLOAD ADD SWAP3 POP POP DUP2 SWAP1 SSTORE POP JUMPDEST DUP2 PUSH20 0xFFFFFFFFFFFFFFFFFFFFFFFFFFFFFFFFFFFFFFFF AND DUP4 PUSH20 0xFFFFFFFFFFFFFFFFFFFFFFFFFFFFFFFFFFFFFFFF AND PUSH32 0xDDF252AD1BE2C89B69C2B068FC378DAA952BA7F163C4A11628F55A4DF523B3EF DUP4 PUSH1 0x40 MLOAD PUSH2 0xDED SWAP2 SWAP1 PUSH2 0x115C JUMP JUMPDEST PUSH1 0x40 MLOAD DUP1 SWAP2 SUB SWAP1 LOG3 POP POP POP JUMP JUMPDEST PUSH0 DUP2 MLOAD SWAP1 POP SWAP2 SWAP1 POP JUMP JUMPDEST PUSH0 DUP3 DUP3 MSTORE PUSH1 0x20 DUP3 ADD SWAP1 POP SWAP3 SWAP2 POP POP JUMP JUMPDEST DUP3 DUP2 DUP4 MCOPY PUSH0 DUP4 DUP4 ADD MSTORE POP POP POP JUMP JUMPDEST PUSH0 PUSH1 0x1F NOT PUSH1 0x1F DUP4 ADD AND SWAP1 POP SWAP2 SWAP1 POP JUMP JUMPDEST PUSH0 PUSH2 0xE3C DUP3 PUSH2 0xDFA JUMP JUMPDEST PUSH2 0xE46 DUP2 DUP6 PUSH2 0xE04 JUMP JUMPDEST SWAP4 POP PUSH2 0xE56 DUP2 DUP6 PUSH1 0x20 DUP7 ADD PUSH2 0xE14 JUMP JUMPDEST PUSH2 0xE5F DUP2 PUSH2 0xE22 JUMP JUMPDEST DUP5 ADD SWAP2 POP POP SWAP3 SWAP2 POP POP JUMP JUMPDEST PUSH0 PUSH1 0x20 DUP3 ADD SWAP1 POP DUP2 DUP2 SUB PUSH0 DUP4 ADD MSTORE PUSH2 0xE82 DUP2 DUP5 PUSH2 0xE32 JUMP JUMPDEST SWAP1 POP SWAP3 SWAP2 POP POP JUMP JUMPDEST PUSH0 PUSH1 0x40 MLOAD SWAP1 POP SWAP1 JUMP JUMPDEST PUSH0 PUSH0 REVERT JUMPDEST PUSH0 PUSH0 REVERT JUMPDEST PUSH0 PUSH0 REVERT JUMPDEST PUSH0 PUSH0 REVERT JUMPDEST PUSH32 0x4E487B7100000000000000000000000000000000000000000000000000000000 PUSH0 MSTORE PUSH1 0x41 PUSH1 0x4 MSTORE PUSH1 0x24 PUSH0 REVERT JUMPDEST PUSH2 0xED9 DUP3 PUSH2 0xE22 JUMP JUMPDEST DUP2 ADD DUP2 DUP2 LT PUSH8 0xFFFFFFFFFFFFFFFF DUP3 GT OR ISZERO PUSH2 0xEF8 JUMPI PUSH2 0xEF7 PUSH2 0xEA3 JUMP JUMPDEST JUMPDEST DUP1 PUSH1 0x40 MSTORE POP POP POP JUMP JUMPDEST PUSH0 PUSH2 0xF0A PUSH2 0xE8A JUMP JUMPDEST SWAP1 POP PUSH2 0xF16 DUP3 DUP3 PUSH2 0xED0 JUMP JUMPDEST SWAP2 SWAP1 POP JUMP JUMPDEST PUSH0 PUSH8 0xFFFFFFFFFFFFFFFF DUP3 GT ISZERO PUSH2 0xF35 JUMPI PUSH2 0xF34 PUSH2 0xEA3 JUMP JUMPDEST JUMPDEST PUSH2 0xF3E DUP3 PUSH2 0xE22 JUMP JUMPDEST SWAP1 POP PUSH1 0x20 DUP2 ADD SWAP1 POP SWAP2 SWAP1 POP JUMP JUMPDEST DUP3 DUP2 DUP4 CALLDATACOPY PUSH0 DUP4 DUP4 ADD MSTORE POP POP POP JUMP JUMPDEST PUSH0 PUSH2 0xF6B PUSH2 0xF66 DUP5 PUSH2 0xF1B JUMP JUMPDEST PUSH2 0xF01 JUMP JUMPDEST SWAP1 POP DUP3 DUP2 MSTORE PUSH1 0x20 DUP2 ADD DUP5 DUP5 DUP5 ADD GT ISZERO PUSH2 0xF87 JUMPI PUSH2 0xF86 PUSH2 0xE9F JUMP JUMPDEST JUMPDEST PUSH2 0xF92 DUP5 DUP3 DUP6 PUSH2 0xF4B JUMP JUMPDEST POP SWAP4 SWAP3 POP POP POP JUMP JUMPDEST PUSH0 DUP3 PUSH1 0x1F DUP4 ADD SLT PUSH2 0xFAE JUMPI PUSH2 0xFAD PUSH2 0xE9B JUMP JUMPDEST JUMPDEST DUP2 CALLDATALOAD PUSH2 0xFBE DUP5 DUP3 PUSH1 0x20 DUP7 ADD PUSH2 0xF59 JUMP JUMPDEST SWAP2 POP POP SWAP3 SWAP2 POP POP JUMP JUMPDEST PUSH0 PUSH20 0xFFFFFFFFFFFFFFFFFFFFFFFFFFFFFFFFFFFFFFFF DUP3 AND SWAP1 POP SWAP2 SWAP1 POP JUMP JUMPDEST PUSH0 PUSH2 0xFF0 DUP3 PUSH2 0xFC7 JUMP JUMPDEST SWAP1 POP SWAP2 SWAP1 POP JUMP JUMPDEST PUSH2 0x1000 DUP2 PUSH2 0xFE6 JUMP JUMPDEST DUP2 EQ PUSH2 0x100A JUMPI PUSH0 PUSH0 REVERT JUMPDEST POP JUMP JUMPDEST PUSH0 DUP2 CALLDATALOAD SWAP1 POP PUSH2 0x101B DUP2 PUSH2 0xFF7 JUMP JUMPDEST SWAP3 SWAP2 POP POP JUMP JUMPDEST PUSH0 PUSH0 PUSH0 PUSH1 0x60 DUP5 DUP7 SUB SLT ISZERO PUSH2 0x1038 JUMPI PUSH2 0x1037 PUSH2 0xE93 JUMP JUMPDEST JUMPDEST PUSH0 DUP5 ADD CALLDATALOAD PUSH8 0xFFFFFFFFFFFFFFFF DUP2 GT ISZERO PUSH2 0x1055 JUMPI PUSH2 0x1054 PUSH2 0xE97 JUMP JUMPDEST JUMPDEST PUSH2 0x1061 DUP7 DUP3 DUP8 ADD PUSH2 0xF9A JUMP JUMPDEST SWAP4 POP POP PUSH1 0x20 DUP5 ADD CALLDATALOAD PUSH8 0xFFFFFFFFFFFFFFFF DUP2 GT ISZERO PUSH2 0x1082 JUMPI PUSH2 0x1081 PUSH2 0xE97 JUMP JUMPDEST JUMPDEST PUSH2 0x108E DUP7 DUP3 DUP8 ADD PUSH2 0xF9A JUMP JUMPDEST SWAP3 POP POP PUSH1 0x40 PUSH2 0x109F DUP7 DUP3 DUP8 ADD PUSH2 0x100D JUMP JUMPDEST SWAP2 POP POP SWAP3 POP SWAP3 POP SWAP3 JUMP JUMPDEST PUSH0 DUP2 SWAP1 POP SWAP2 SWAP1 POP JUMP JUMPDEST PUSH2 0x10BB DUP2 PUSH2 0x10A9 JUMP JUMPDEST DUP2 EQ PUSH2 0x10C5 JUMPI PUSH0 PUSH0 REVERT JUMPDEST POP JUMP JUMPDEST PUSH0 DUP2 CALLDATALOAD SWAP1 POP PUSH2 0x10D6 DUP2 PUSH2 0x10B2 JUMP JUMPDEST SWAP3 SWAP2 POP POP JUMP JUMPDEST PUSH0 PUSH0 PUSH1 0x40 DUP4 DUP6 SUB SLT ISZERO PUSH2 0x10F2 JUMPI PUSH2 0x10F1 PUSH2 0xE93 JUMP JUMPDEST JUMPDEST PUSH0 PUSH2 0x10FF DUP6 DUP3 DUP7 ADD PUSH2 0x100D JUMP JUMPDEST SWAP3 POP POP PUSH1 0x20 PUSH2 0x1110 DUP6 DUP3 DUP7 ADD PUSH2 0x10C8 JUMP JUMPDEST SWAP2 POP POP SWAP3 POP SWAP3 SWAP1 POP JUMP JUMPDEST PUSH0 DUP2 ISZERO ISZERO SWAP1 POP SWAP2 SWAP1 POP JUMP JUMPDEST PUSH2 0x112E DUP2 PUSH2 0x111A JUMP JUMPDEST DUP3 MSTORE POP POP JUMP JUMPDEST PUSH0 PUSH1 0x20 DUP3 ADD SWAP1 POP PUSH2 0x1147 PUSH0 DUP4 ADD DUP5 PUSH2 0x1125 JUMP JUMPDEST SWAP3 SWAP2 POP POP JUMP JUMPDEST PUSH2 0x1156 DUP2 PUSH2 0x10A9 JUMP JUMPDEST DUP3 MSTORE POP POP JUMP JUMPDEST PUSH0 PUSH1 0x20 DUP3 ADD SWAP1 POP PUSH2 0x116F PUSH0 DUP4 ADD DUP5 PUSH2 0x114D JUMP JUMPDEST SWAP3 SWAP2 POP POP JUMP JUMPDEST PUSH0 PUSH0 PUSH0 PUSH1 0x60 DUP5 DUP7 SUB SLT ISZERO PUSH2 0x118C JUMPI PUSH2 0x118B PUSH2 0xE93 JUMP JUMPDEST JUMPDEST PUSH0 PUSH2 0x1199 DUP7 DUP3 DUP8 ADD PUSH2 0x100D JUMP JUMPDEST SWAP4 POP POP PUSH1 0x20 PUSH2 0x11AA DUP7 DUP3 DUP8 ADD PUSH2 0x100D JUMP JUMPDEST SWAP3 POP POP PUSH1 0x40 PUSH2 0x11BB DUP7 DUP3 DUP8 ADD PUSH2 0x10C8 JUMP JUMPDEST SWAP2 POP POP SWAP3 POP SWAP3 POP SWAP3 JUMP JUMPDEST PUSH0 PUSH1 0xFF DUP3 AND SWAP1 POP SWAP2 SWAP1 POP JUMP JUMPDEST PUSH2 0x11DA DUP2 PUSH2 0x11C5 JUMP JUMPDEST DUP3 MSTORE POP POP JUMP JUMPDEST PUSH0 PUSH1 0x20 DUP3 ADD SWAP1 POP PUSH2 0x11F3 PUSH0 DUP4 ADD DUP5 PUSH2 0x11D1 JUMP JUMPDEST SWAP3 SWAP2 POP POP JUMP JUMPDEST PUSH2 0x1202 DUP2 PUSH2 0xFE6 JUMP JUMPDEST DUP3 MSTORE POP POP JUMP JUMPDEST PUSH0 PUSH1 0x20 DUP3 ADD SWAP1 POP PUSH2 0x121B PUSH0 DUP4 ADD DUP5 PUSH2 0x11F9 JUMP JUMPDEST SWAP3 SWAP2 POP POP JUMP JUMPDEST PUSH0 PUSH1 0x20 DUP3 DUP5 SUB SLT ISZERO PUSH2 0x1236 JUMPI PUSH2 0x1235 PUSH2 0xE93 JUMP JUMPDEST JUMPDEST PUSH0 PUSH2 0x1243 DUP5 DUP3 DUP6 ADD PUSH2 0x100D JUMP JUMPDEST SWAP2 POP POP SWAP3 SWAP2 POP POP JUMP JUMPDEST PUSH0 PUSH0 PUSH1 0x40 DUP4 DUP6 SUB SLT ISZERO PUSH2 0x1262 JUMPI PUSH2 0x1261 PUSH2 0xE93 JUMP JUMPDEST JUMPDEST PUSH0 PUSH2 0x126F DUP6 DUP3 DUP7 ADD PUSH2 0x100D JUMP JUMPDEST SWAP3 POP POP PUSH1 0x20 PUSH2 0x1280 DUP6 DUP3 DUP7 ADD PUSH2 0x100D JUMP JUMPDEST SWAP2 POP POP SWAP3 POP SWAP3 SWAP1 POP JUMP JUMPDEST PUSH32 0x4E487B7100000000000000000000000000000000000000000000000000000000 PUSH0 MSTORE PUSH1 0x22 PUSH1 0x4 MSTORE PUSH1 0x24 PUSH0 REVERT JUMPDEST PUSH0 PUSH1 0x2 DUP3 DIV SWAP1 POP PUSH1 0x1 DUP3 AND DUP1 PUSH2 0x12CE JUMPI PUSH1 0x7F DUP3 AND SWAP2 POP JUMPDEST PUSH1 0x20 DUP3 LT DUP2 SUB PUSH2 0x12E1 JUMPI PUSH2 0x12E0 PUSH2 0x128A JUMP JUMPDEST JUMPDEST POP SWAP2 SWAP1 POP JUMP JUMPDEST PUSH32 0x414C52454144595F494E49540000000000000000000000000000000000000000 PUSH0 DUP3 ADD MSTORE POP JUMP JUMPDEST PUSH0 PUSH2 0x131B PUSH1 0xC DUP4 PUSH2 0xE04 JUMP JUMPDEST SWAP2 POP PUSH2 0x1326 DUP3 PUSH2 0x12E7 JUMP JUMPDEST PUSH1 0x20 DUP3 ADD SWAP1 POP SWAP2 SWAP1 POP JUMP JUMPDEST PUSH0 PUSH1 0x20 DUP3 ADD SWAP1 POP DUP2 DUP2 SUB PUSH0 DUP4 ADD MSTORE PUSH2 0x1348 DUP2 PUSH2 0x130F JUMP JUMPDEST SWAP1 POP SWAP2 SWAP1 POP JUMP JUMPDEST PUSH32 0x4E4F545F4D414E41474552000000000000000000000000000000000000000000 PUSH0 DUP3 ADD MSTORE POP JUMP JUMPDEST PUSH0 PUSH2 0x1383 PUSH1 0xB DUP4 PUSH2 0xE04 JUMP JUMPDEST SWAP2 POP PUSH2 0x138E DUP3 PUSH2 0x134F JUMP JUMPDEST PUSH1 0x20 DUP3 ADD SWAP1 POP SWAP2 SWAP1 POP JUMP JUMPDEST PUSH0 PUSH1 0x20 DUP3 ADD SWAP1 POP DUP2 DUP2 SUB PUSH0 DUP4 ADD MSTORE PUSH2 0x13B0 DUP2 PUSH2 0x1377 JUMP JUMPDEST SWAP1 POP SWAP2 SWAP1 POP JUMP JUMPDEST PUSH0 PUSH1 0x60 DUP3 ADD SWAP1 POP PUSH2 0x13CA PUSH0 DUP4 ADD DUP7 PUSH2 0x11F9 JUMP JUMPDEST PUSH2 0x13D7 PUSH1 0x20 DUP4 ADD DUP6 PUSH2 0x114D JUMP JUMPDEST PUSH2 0x13E4 PUSH1 0x40 DUP4 ADD DUP5 PUSH2 0x114D JUMP JUMPDEST SWAP5 SWAP4 POP POP POP POP JUMP JUMPDEST PUSH32 0x4E487B7100000000000000000000000000000000000000000000000000000000 PUSH0 MSTORE PUSH1 0x11 PUSH1 0x4 MSTORE PUSH1 0x24 PUSH0 REVERT JUMPDEST PUSH0 PUSH2 0x1423 DUP3 PUSH2 0x10A9 JUMP JUMPDEST SWAP2 POP PUSH2 0x142E DUP4 PUSH2 0x10A9 JUMP JUMPDEST SWAP3 POP DUP3 DUP3 ADD SWAP1 POP DUP1 DUP3 GT ISZERO PUSH2 0x1446 JUMPI PUSH2 0x1445 PUSH2 0x13EC JUMP JUMPDEST JUMPDEST SWAP3 SWAP2 POP POP JUMP INVALID LOG2 PUSH5 0x6970667358 0x22 SLT KECCAK256 POP 0xC5 PREVRANDAO PUSH27 0x8FE084BC288BB64E4E8FB9FB16C85C43653042E1194F0ABDCE2C63 MSTORE PUSH5 0x736F6C6343 STOP ADDMOD SHL STOP CALLER "
				},
				"gasEstimates": {
					"creation": {
						"codeDepositCost": "907800",
						"executionCost": "infinite",
						"totalCost": "infinite"
					},
					"external": {
						"burnShares(uint256,address,uint256)": "infinite",
						"createPlayerToken(uint256,string,string)": "infinite",
						"implementation()": "infinite",
						"market()": "2575",
						"mintShares(uint256,address,uint256)": "infinite",
						"owner()": "2507",
						"playerToken(uint256)": "2872",
						"setMarket(address)": "infinite",
						"transferOwnership(address)": "26948"
					}
				},
				"methodIdentifiers": {
					"burnShares(uint256,address,uint256)": "d9881acc",
					"createPlayerToken(uint256,string,string)": "ca4b4fd3",
					"implementation()": "5c60da1b",
					"market()": "80f55605",
					"mintShares(uint256,address,uint256)": "f576c938",
					"owner()": "8da5cb5b",
					"playerToken(uint256)": "7119f4fb",
					"setMarket(address)": "6dcea85f",
					"transferOwnership(address)": "f2fde38b"
				}
			},
			"storageLayout": {
				"storage": [
					{
						"astId": 1406,
						"contract": "contracts/PlayerShare.sol:PlayerShareManager",
						"label": "owner",
						"offset": 0,
						"slot": "0",
						"type": "t_address"
					},
					{
						"astId": 1408,
						"contract": "contracts/PlayerShare.sol:PlayerShareManager",
						"label": "market",
						"offset": 0,
						"slot": "1",
						"type": "t_address"
					},
					{
						"astId": 1412,
						"contract": "contracts/PlayerShare.sol:PlayerShareManager",
						"label": "playerToken",
						"offset": 0,
						"slot": "2",
						"type": "t_mapping(t_uint256,t_address)"
					}
				],
				"types": {
					"t_address": {
						"encoding": "inplace",
						"label": "address",
						"numberOfBytes": "20"
					},
					"t_mapping(t_uint256,t_address)": {
						"encoding": "mapping",
						"key": "t_uint256",
						"label": "mapping(uint256 => address)",
						"numberOfBytes": "32",
						"value": "t_address"
					},
					"t_uint256": {
						"encoding": "inplace",
						"label": "uint256",
						"numberOfBytes": "32"
					}
				}
			},
			"userdoc": {
				"kind": "user",
				"methods": {},
				"version": 1
			}
		}
	}
}