{
	"contracts/PlayerShare.sol": {
		"ShareToken": {
			"abi": [
				{
					"inputs": [],
					"stateMutability": "nonpayable",
					"type": "constructor"
				},
				{
					"inputs": [
						{
							"internalType": "address",
							"name": "spender",
							"type": "address"
						},
						{
							"internalType": "uint256",
							"name": "allowance",
							"type": "uint256"
						},
						{
							"internalType": "uint256",
							"name": "needed",
							"type": "uint256"
						}
					],
					"name": "ERC20InsufficientAllowance",
					"type": "error"
				},
				{
					"inputs": [
						{
							"internalType": "address",
							"name": "sender",
							"type": "address"
						},
						{
							"internalType": "uint256",
							"name": "balance",
							"type": "uint256"
						},
						{
							"internalType": "uint256",
							"name": "needed",
							"type": "uint256"
						}
					],
					"name": "ERC20InsufficientBalance",
					"type": "error"
				},
				{
					"inputs": [
						{
							"internalType": "address",
							"name": "approver",
							"type": "address"
						}
					],
					"name": "ERC20InvalidApprover",
					"type": "error"
				},
				{
					"inputs": [
						{
							"internalType": "address",
							"name": "receiver",
							"type": "address"
						}
					],
					"name": "ERC20InvalidReceiver",
					"type": "error"
				},
				{
					"inputs": [
						{
							"internalType": "address",
							"name": "sender",
							"type": "address"
						}
					],
					"name": "ERC20InvalidSender",
					"type": "error"
				},
				{
					"inputs": [
						{
							"internalType": "address",
							"name": "spender",
							"type": "address"
						}
					],
					"name": "ERC20InvalidSpender",
					"type": "error"
				},
				{
					"anonymous": false,
					"inputs": [
						{
							"indexed": true,
							"internalType": "address",
							"name": "owner",
							"type": "address"
						},
						{
							"indexed": true,
							"internalType": "address",
							"name": "spender",
							"type": "address"
						},
						{
							"indexed": false,
							"internalType": "uint256",
							"name": "value",
							"type": "uint256"
						}
					],
					"name": "Approval",
					"type": "event"
				},
				{
					"anonymous": false,
					"inputs": [
						{
							"indexed": true,
							"internalType": "address",
							"name": "from",
							"type": "address"
						},
						{
							"indexed": true,
							"internalType": "address",
							"name": "to",
							"type": "address"
						},
						{
							"indexed": false,
							"internalType": "uint256",
							"name": "value",
							"type": "uint256"
						}
					],
					"name": "Transfer",
					"type": "event"
				},
				{
					"inputs": [
						{
							"internalType": "address",
							"name": "owner",
							"type": "address"
						},
						{
							"internalType": "address",
							"name": "spender",
							"type": "address"
						}
					],
					"name": "allowance",
					"outputs": [
						{
							"internalType": "uint256",
							"name": "",
							"type": "uint256"
						}
					],
					"stateMutability": "view",
					"type": "function"
				},
				{
					"inputs": [
						{
							"internalType": "address",
							"name": "spender",
							"type": "address"
						},
						{
							"internalType": "uint256",
							"name": "value",
							"type": "uint256"
						}
					],
					"name": "approve",
					"outputs": [
						{
							"internalType": "bool",
							"name": "",
							"type": "bool"
						}
					],
					"stateMutability": "nonpayable",
					"type": "function"
				},
				{
					"inputs": [
						{
							"internalType": "address",
							"name": "account",
							"type": "address"
						}
					],
					"name": "balanceOf",
					"outputs": [
						{
							"internalType": "uint256",
							"name": "",
							"type": "uint256"
						}
					],
					"stateMutability": "view",
					"type": "function"
				},
				{
					"inputs": [
						{
							"internalType": "address",
							"name": "from",
							"type": "address"
						},
						{
							"internalType": "uint256",
							"name": "amount",
							"type": "uint256"
						}
					],
					"name": "burn",
					"outputs": [],
					"stateMutability": "nonpayable",
					"type": "function"
				},
				{
					"inputs": [],
					"name": "decimals",
					"outputs": [
						{
							"internalType": "uint8",
							"name": "",
							"type": "uint8"
						}
					],
					"stateMutability": "view",
					"type": "function"
				},
				{
					"inputs": [
						{
							"internalType": "string",
							"name": "name_",
							"type": "string"
						},
						{
							"internalType": "string",
							"name": "symbol_",
							"type": "string"
						},
						{
							"internalType": "address",
							"name": "manager_",
							"type": "address"
						}
					],
					"name": "initialize",
					"outputs": [],
					"stateMutability": "nonpayable",
					"type": "function"
				},
				{
					"inputs": [],
					"name": "initialized",
					"outputs": [
						{
							"internalType": "bool",
							"name": "",
							"type": "bool"
						}
					],
					"stateMutability": "view",
					"type": "function"
				},
				{
					"inputs": [],
					"name": "manager",
					"outputs": [
						{
							"internalType": "address",
							"name": "",
							"type": "address"
						}
					],
					"stateMutability": "view",
					"type": "function"
				},
				{
					"inputs": [
						{
							"internalType": "address",
							"name": "to",
							"type": "address"
						},
						{
							"internalType": "uint256",
							"name": "amount",
							"type": "uint256"
						}
					],
					"name": "mint",
					"outputs": [],
					"stateMutability": "nonpayable",
					"type": "function"
				},
				{
					"inputs": [],
					"name": "name",
					"outputs": [
						{
							"internalType": "string",
							"name": "",
							"type": "string"
						}
					],
					"stateMutability": "view",
					"type": "function"
				},
				{
					"inputs": [],
					"name": "symbol",
					"outputs": [
						{
							"internalType": "string",
							"name": "",
							"type": "string"
						}
					],
					"stateMutability": "view",
					"type": "function"
				},
				{
					"inputs": [],
					"name": "totalSupply",
					"outputs": [
						{
							"internalType": "uint256",
							"name": "",
							"type": "uint256"
						}
					],
					"stateMutability": "view",
					"type": "function"
				},
				{
					"inputs": [
						{
							"internalType": "address",
							"name": "to",
							"type": "address"
						},
						{
							"internalType": "uint256",
							"name": "value",
							"type": "uint256"
						}
					],
					"name": "transfer",
					"outputs": [
						{
							"internalType": "bool",
							"name": "",
							"type": "bool"
						}
					],
					"stateMutability": "nonpayable",
					"type": "function"
				},
				{
					"inputs": [
						{
							"internalType": "address",
							"name": "from",
							"type": "address"
						},
						{
							"internalType": "address",
							"name": "to",
							"type": "address"
						},
						{
							"internalType": "uint256",
							"name": "value",
							"type": "uint256"
						}
					],
					"name": "transferFrom",
					"outputs": [
						{
							"internalType": "bool",
							"name": "",
							"type": "bool"
						}
					],
					"stateMutability": "nonpayable",
					"type": "function"
				}
			],
			"devdoc": {
				"errors": {
					"ERC20InsufficientAllowance(address,uint256,uint256)": [
						{
							"details": "Indicates a failure with the `spender`’s `allowance`. Used in transfers.",
							"params": {
								"allowance": "Amount of tokens a `spender` is allowed to operate with.",
								"needed": "Minimum amount required to perform a transfer.",
								"spender": "Address that may be allowed to operate on tokens without being their owner."
							}
						}
					],
					"ERC20InsufficientBalance(address,uint256,uint256)": [
						{
							"details": "Indicates an error related to the current `balance` of a `sender`. Used in transfers.",
							"params": {
								"balance": "Current balance for the interacting account.",
								"needed": "Minimum amount required to perform a transfer.",
								"sender": "Address whose tokens are being transferred."
							}
						}
					],
					"ERC20InvalidApprover(address)": [
						{
							"details": "Indicates a failure with the `approver` of a token to be approved. Used in approvals.",
							"params": {
								"approver": "Address initiating an approval operation."
							}
						}
					],
					"ERC20InvalidReceiver(address)": [
						{
							"details": "Indicates a failure with the token `receiver`. Used in transfers.",
							"params": {
								"receiver": "Address to which tokens are being transferred."
							}
						}
					],
					"ERC20InvalidSender(address)": [
						{
							"details": "Indicates a failure with the token `sender`. Used in transfers.",
							"params": {
								"sender": "Address whose tokens are being transferred."
							}
						}
					],
					"ERC20InvalidSpender(address)": [
						{
							"details": "Indicates a failure with the `spender` to be approved. Used in approvals.",
							"params": {
								"spender": "Address that may be allowed to operate on tokens without being their owner."
							}
						}
					]
				},
				"events": {
					"Approval(address,address,uint256)": {
						"details": "Emitted when the allowance of a `spender` for an `owner` is set by a call to {approve}. `value` is the new allowance."
					},
					"Transfer(address,address,uint256)": {
						"details": "Emitted when `value` tokens are moved from one account (`from`) to another (`to`). Note that `value` may be zero."
					}
				},
				"kind": "dev",
				"methods": {
					"allowance(address,address)": {
						"details": "Returns the remaining number of tokens that `spender` will be allowed to spend on behalf of `owner` through {transferFrom}. This is zero by default. This value changes when {approve} or {transferFrom} are called."
					},
					"approve(address,uint256)": {
						"details": "See {IERC20-approve}. NOTE: If `value` is the maximum `uint256`, the allowance is not updated on `transferFrom`. This is semantically equivalent to an infinite approval. Requirements: - `spender` cannot be the zero address."
					},
					"balanceOf(address)": {
						"details": "Returns the value of tokens owned by `account`."
					},
					"decimals()": {
						"details": "Returns the number of decimals used to get its user representation. For example, if `decimals` equals `2`, a balance of `505` tokens should be displayed to a user as `5.05` (`505 / 10 ** 2`). Tokens usually opt for a value of 18, imitating the relationship between Ether and Wei. This is the default value returned by this function, unless it's overridden. NOTE: This information is only used for _display_ purposes: it in no way affects any of the arithmetic of the contract, including {IERC20-balanceOf} and {IERC20-transfer}."
					},
					"name()": {
						"details": "Returns the name of the token."
					},
					"symbol()": {
						"details": "Returns the symbol of the token, usually a shorter version of the name."
					},
					"totalSupply()": {
						"details": "Returns the value of tokens in existence."
					},
					"transfer(address,uint256)": {
						"details": "See {IERC20-transfer}. Requirements: - `to` cannot be the zero address. - the caller must have a balance of at least `value`."
					},
					"transferFrom(address,address,uint256)": {
						"details": "See {IERC20-transferFrom}. Skips emitting an {Approval} event indicating an allowance update. This is not required by the ERC. See {xref-ERC20-_approve-address-address-uint256-bool-}[_approve]. NOTE: Does not update the allowance if the current allowance is the maximum `uint256`. Requirements: - `from` and `to` cannot be the zero address. - `from` must have a balance of at least `value`. - the caller must have allowance for ``from``'s tokens of at least `value`."
					}
				},
				"version": 1
			},
			"evm": {
				"assembly": "    /* \"contracts/PlayerShare.sol\":193:1335  contract ShareToken is ERC20 {... */\n  mstore(0x40, 0x80)\n    /* \"contracts/PlayerShare.sol\":577:621  constructor() ERC20(\"PLACEHOLDER\", \"PLH\") {} */\n  callvalue\n  dup1\n  iszero\n  tag_1\n  jumpi\n  revert(0x00, 0x00)\ntag_1:\n  pop\n    /* \"@openzeppelin/contracts/token/ERC20/ERC20.sol\":1582:1695  constructor(string memory name_, string memory symbol_) {... */\n  mload(0x40)\n  dup1\n  0x40\n  add\n  0x40\n  mstore\n  dup1\n  0x0b\n  dup2\n  mstore\n  0x20\n  add\n  0x504c414345484f4c444552000000000000000000000000000000000000000000\n  dup2\n  mstore\n  pop\n  mload(0x40)\n  dup1\n  0x40\n  add\n  0x40\n  mstore\n  dup1\n  0x03\n  dup2\n  mstore\n  0x20\n  add\n  0x504c480000000000000000000000000000000000000000000000000000000000\n  dup2\n  mstore\n  pop\n    /* \"@openzeppelin/contracts/token/ERC20/ERC20.sol\":1656:1661  name_ */\n  dup2\n    /* \"@openzeppelin/contracts/token/ERC20/ERC20.sol\":1648:1653  _name */\n  0x03\n    /* \"@openzeppelin/contracts/token/ERC20/ERC20.sol\":1648:1661  _name = name_ */\n  swap1\n  dup2\n  tag_5\n  swap2\n  swap1\n  tag_6\n  jump\t// in\ntag_5:\n  pop\n    /* \"@openzeppelin/contracts/token/ERC20/ERC20.sol\":1681:1688  symbol_ */\n  dup1\n    /* \"@openzeppelin/contracts/token/ERC20/ERC20.sol\":1671:1678  _symbol */\n  0x04\n    /* \"@openzeppelin/contracts/token/ERC20/ERC20.sol\":1671:1688  _symbol = symbol_ */\n  swap1\n  dup2\n  tag_7\n  swap2\n  swap1\n  tag_6\n  jump\t// in\ntag_7:\n  pop\n    /* \"@openzeppelin/contracts/token/ERC20/ERC20.sol\":1582:1695  constructor(string memory name_, string memory symbol_) {... */\n  pop\n  pop\n    /* \"contracts/PlayerShare.sol\":193:1335  contract ShareToken is ERC20 {... */\n  jump(tag_9)\n    /* \"#utility.yul\":7:106   */\ntag_10:\n    /* \"#utility.yul\":59:65   */\n  0x00\n    /* \"#utility.yul\":93:98   */\n  dup2\n    /* \"#utility.yul\":87:99   */\n  mload\n    /* \"#utility.yul\":77:99   */\n  swap1\n  pop\n    /* \"#utility.yul\":7:106   */\n  swap2\n  swap1\n  pop\n  jump\t// out\n    /* \"#utility.yul\":112:292   */\ntag_11:\n    /* \"#utility.yul\":160:237   */\n  0x4e487b7100000000000000000000000000000000000000000000000000000000\n    /* \"#utility.yul\":157:158   */\n  0x00\n    /* \"#utility.yul\":150:238   */\n  mstore\n    /* \"#utility.yul\":257:261   */\n  0x41\n    /* \"#utility.yul\":254:255   */\n  0x04\n    /* \"#utility.yul\":247:262   */\n  mstore\n    /* \"#utility.yul\":281:285   */\n  0x24\n    /* \"#utility.yul\":278:279   */\n  0x00\n    /* \"#utility.yul\":271:286   */\n  revert\n    /* \"#utility.yul\":298:478   */\ntag_12:\n    /* \"#utility.yul\":346:423   */\n  0x4e487b7100000000000000000000000000000000000000000000000000000000\n    /* \"#utility.yul\":343:344   */\n  0x00\n    /* \"#utility.yul\":336:424   */\n  mstore\n    /* \"#utility.yul\":443:447   */\n  0x22\n    /* \"#utility.yul\":440:441   */\n  0x04\n    /* \"#utility.yul\":433:448   */\n  mstore\n    /* \"#utility.yul\":467:471   */\n  0x24\n    /* \"#utility.yul\":464:465   */\n  0x00\n    /* \"#utility.yul\":457:472   */\n  revert\n    /* \"#utility.yul\":484:804   */\ntag_13:\n    /* \"#utility.yul\":528:534   */\n  0x00\n    /* \"#utility.yul\":565:566   */\n  0x02\n    /* \"#utility.yul\":559:563   */\n  dup3\n    /* \"#utility.yul\":555:567   */\n  div\n    /* \"#utility.yul\":545:567   */\n  swap1\n  pop\n    /* \"#utility.yul\":612:613   */\n  0x01\n    /* \"#utility.yul\":606:610   */\n  dup3\n    /* \"#utility.yul\":602:614   */\n  and\n    /* \"#utility.yul\":633:651   */\n  dup1\n    /* \"#utility.yul\":623:704   */\n  tag_35\n  jumpi\n    /* \"#utility.yul\":689:693   */\n  0x7f\n    /* \"#utility.yul\":681:687   */\n  dup3\n    /* \"#utility.yul\":677:694   */\n  and\n    /* \"#utility.yul\":667:694   */\n  swap2\n  pop\n    /* \"#utility.yul\":623:704   */\ntag_35:\n    /* \"#utility.yul\":751:753   */\n  0x20\n    /* \"#utility.yul\":743:749   */\n  dup3\n    /* \"#utility.yul\":740:754   */\n  lt\n    /* \"#utility.yul\":720:738   */\n  dup2\n    /* \"#utility.yul\":717:755   */\n  sub\n    /* \"#utility.yul\":714:798   */\n  tag_36\n  jumpi\n    /* \"#utility.yul\":770:788   */\n  tag_37\n  tag_12\n  jump\t// in\ntag_37:\n    /* \"#utility.yul\":714:798   */\ntag_36:\n    /* \"#utility.yul\":535:804   */\n  pop\n    /* \"#utility.yul\":484:804   */\n  swap2\n  swap1\n  pop\n  jump\t// out\n    /* \"#utility.yul\":810:951   */\ntag_14:\n    /* \"#utility.yul\":859:863   */\n  0x00\n    /* \"#utility.yul\":882:885   */\n  dup2\n    /* \"#utility.yul\":874:885   */\n  swap1\n  pop\n    /* \"#utility.yul\":905:908   */\n  dup2\n    /* \"#utility.yul\":902:903   */\n  0x00\n    /* \"#utility.yul\":895:909   */\n  mstore\n    /* \"#utility.yul\":939:943   */\n  0x20\n    /* \"#utility.yul\":936:937   */\n  0x00\n    /* \"#utility.yul\":926:944   */\n  keccak256\n    /* \"#utility.yul\":918:944   */\n  swap1\n  pop\n    /* \"#utility.yul\":810:951   */\n  swap2\n  swap1\n  pop\n  jump\t// out\n    /* \"#utility.yul\":957:1050   */\ntag_15:\n    /* \"#utility.yul\":994:1000   */\n  0x00\n    /* \"#utility.yul\":1041:1043   */\n  0x20\n    /* \"#utility.yul\":1036:1038   */\n  0x1f\n    /* \"#utility.yul\":1029:1034   */\n  dup4\n    /* \"#utility.yul\":1025:1039   */\n  add\n    /* \"#utility.yul\":1021:1044   */\n  div\n    /* \"#utility.yul\":1011:1044   */\n  swap1\n  pop\n    /* \"#utility.yul\":957:1050   */\n  swap2\n  swap1\n  pop\n  jump\t// out\n    /* \"#utility.yul\":1056:1163   */\ntag_16:\n    /* \"#utility.yul\":1100:1108   */\n  0x00\n    /* \"#utility.yul\":1150:1155   */\n  dup3\n    /* \"#utility.yul\":1144:1148   */\n  dup3\n    /* \"#utility.yul\":1140:1156   */\n  shl\n    /* \"#utility.yul\":1119:1156   */\n  swap1\n  pop\n    /* \"#utility.yul\":1056:1163   */\n  swap3\n  swap2\n  pop\n  pop\n  jump\t// out\n    /* \"#utility.yul\":1169:1562   */\ntag_17:\n    /* \"#utility.yul\":1238:1244   */\n  0x00\n    /* \"#utility.yul\":1288:1289   */\n  0x08\n    /* \"#utility.yul\":1276:1286   */\n  dup4\n    /* \"#utility.yul\":1272:1290   */\n  mul\n    /* \"#utility.yul\":1311:1408   */\n  tag_42\n    /* \"#utility.yul\":1341:1407   */\n  0xffffffffffffffffffffffffffffffffffffffffffffffffffffffffffffffff\n    /* \"#utility.yul\":1330:1339   */\n  dup3\n    /* \"#utility.yul\":1311:1408   */\n  tag_16\n  jump\t// in\ntag_42:\n    /* \"#utility.yul\":1429:1468   */\n  tag_43\n    /* \"#utility.yul\":1459:1467   */\n  dup7\n    /* \"#utility.yul\":1448:1457   */\n  dup4\n    /* \"#utility.yul\":1429:1468   */\n  tag_16\n  jump\t// in\ntag_43:\n    /* \"#utility.yul\":1417:1468   */\n  swap6\n  pop\n    /* \"#utility.yul\":1501:1505   */\n  dup1\n    /* \"#utility.yul\":1497:1506   */\n  not\n    /* \"#utility.yul\":1490:1495   */\n  dup5\n    /* \"#utility.yul\":1486:1507   */\n  and\n    /* \"#utility.yul\":1477:1507   */\n  swap4\n  pop\n    /* \"#utility.yul\":1550:1554   */\n  dup1\n    /* \"#utility.yul\":1540:1548   */\n  dup7\n    /* \"#utility.yul\":1536:1555   */\n  and\n    /* \"#utility.yul\":1529:1534   */\n  dup5\n    /* \"#utility.yul\":1526:1556   */\n  or\n    /* \"#utility.yul\":1516:1556   */\n  swap3\n  pop\n    /* \"#utility.yul\":1245:1562   */\n  pop\n  pop\n    /* \"#utility.yul\":1169:1562   */\n  swap4\n  swap3\n  pop\n  pop\n  pop\n  jump\t// out\n    /* \"#utility.yul\":1568:1645   */\ntag_18:\n    /* \"#utility.yul\":1605:1612   */\n  0x00\n    /* \"#utility.yul\":1634:1639   */\n  dup2\n    /* \"#utility.yul\":1623:1639   */\n  swap1\n  pop\n    /* \"#utility.yul\":1568:1645   */\n  swap2\n  swap1\n  pop\n  jump\t// out\n    /* \"#utility.yul\":1651:1711   */\ntag_19:\n    /* \"#utility.yul\":1679:1682   */\n  0x00\n    /* \"#utility.yul\":1700:1705   */\n  dup2\n    /* \"#utility.yul\":1693:1705   */\n  swap1\n  pop\n    /* \"#utility.yul\":1651:1711   */\n  swap2\n  swap1\n  pop\n  jump\t// out\n    /* \"#utility.yul\":1717:1859   */\ntag_20:\n    /* \"#utility.yul\":1767:1776   */\n  0x00\n    /* \"#utility.yul\":1800:1853   */\n  tag_47\n    /* \"#utility.yul\":1818:1852   */\n  tag_48\n    /* \"#utility.yul\":1827:1851   */\n  tag_49\n    /* \"#utility.yul\":1845:1850   */\n  dup5\n    /* \"#utility.yul\":1827:1851   */\n  tag_18\n  jump\t// in\ntag_49:\n    /* \"#utility.yul\":1818:1852   */\n  tag_19\n  jump\t// in\ntag_48:\n    /* \"#utility.yul\":1800:1853   */\n  tag_18\n  jump\t// in\ntag_47:\n    /* \"#utility.yul\":1787:1853   */\n  swap1\n  pop\n    /* \"#utility.yul\":1717:1859   */\n  swap2\n  swap1\n  pop\n  jump\t// out\n    /* \"#utility.yul\":1865:1940   */\ntag_21:\n    /* \"#utility.yul\":1908:1911   */\n  0x00\n    /* \"#utility.yul\":1929:1934   */\n  dup2\n    /* \"#utility.yul\":1922:1934   */\n  swap1\n  pop\n    /* \"#utility.yul\":1865:1940   */\n  swap2\n  swap1\n  pop\n  jump\t// out\n    /* \"#utility.yul\":1946:2215   */\ntag_22:\n    /* \"#utility.yul\":2056:2095   */\n  tag_52\n    /* \"#utility.yul\":2087:2094   */\n  dup4\n    /* \"#utility.yul\":2056:2095   */\n  tag_20\n  jump\t// in\ntag_52:\n    /* \"#utility.yul\":2117:2208   */\n  tag_53\n    /* \"#utility.yul\":2166:2207   */\n  tag_54\n    /* \"#utility.yul\":2190:2206   */\n  dup3\n    /* \"#utility.yul\":2166:2207   */\n  tag_21\n  jump\t// in\ntag_54:\n    /* \"#utility.yul\":2158:2164   */\n  dup5\n    /* \"#utility.yul\":2151:2155   */\n  dup5\n    /* \"#utility.yul\":2145:2156   */\n  sload\n    /* \"#utility.yul\":2117:2208   */\n  tag_17\n  jump\t// in\ntag_53:\n    /* \"#utility.yul\":2111:2115   */\n  dup3\n    /* \"#utility.yul\":2104:2209   */\n  sstore\n    /* \"#utility.yul\":2022:2215   */\n  pop\n    /* \"#utility.yul\":1946:2215   */\n  pop\n  pop\n  pop\n  jump\t// out\n    /* \"#utility.yul\":2221:2294   */\ntag_23:\n    /* \"#utility.yul\":2266:2269   */\n  0x00\n    /* \"#utility.yul\":2287:2288   */\n  0x00\n    /* \"#utility.yul\":2280:2288   */\n  swap1\n  pop\n    /* \"#utility.yul\":2221:2294   */\n  swap1\n  jump\t// out\n    /* \"#utility.yul\":2300:2489   */\ntag_24:\n    /* \"#utility.yul\":2377:2409   */\n  tag_57\n  tag_23\n  jump\t// in\ntag_57:\n    /* \"#utility.yul\":2418:2483   */\n  tag_58\n    /* \"#utility.yul\":2476:2482   */\n  dup2\n    /* \"#utility.yul\":2468:2474   */\n  dup5\n    /* \"#utility.yul\":2462:2466   */\n  dup5\n    /* \"#utility.yul\":2418:2483   */\n  tag_22\n  jump\t// in\ntag_58:\n    /* \"#utility.yul\":2353:2489   */\n  pop\n    /* \"#utility.yul\":2300:2489   */\n  pop\n  pop\n  jump\t// out\n    /* \"#utility.yul\":2495:2709   */\ntag_25:\n    /* \"#utility.yul\":2580:2581   */\n  0x00\n    /* \"#utility.yul\":2565:2703   */\ntag_60:\n    /* \"#utility.yul\":2590:2599   */\n  dup3\n    /* \"#utility.yul\":2587:2588   */\n  dup2\n    /* \"#utility.yul\":2584:2600   */\n  lt\n    /* \"#utility.yul\":2565:2703   */\n  iszero\n  tag_62\n  jumpi\n    /* \"#utility.yul\":2642:2693   */\n  tag_63\n    /* \"#utility.yul\":2691:2692   */\n  0x00\n    /* \"#utility.yul\":2687:2688   */\n  dup3\n    /* \"#utility.yul\":2676:2685   */\n  dup5\n    /* \"#utility.yul\":2672:2689   */\n  add\n    /* \"#utility.yul\":2642:2693   */\n  tag_24\n  jump\t// in\ntag_63:\n    /* \"#utility.yul\":2615:2616   */\n  0x01\n    /* \"#utility.yul\":2612:2613   */\n  dup2\n    /* \"#utility.yul\":2608:2617   */\n  add\n    /* \"#utility.yul\":2603:2617   */\n  swap1\n  pop\n    /* \"#utility.yul\":2565:2703   */\n  jump(tag_60)\ntag_62:\n    /* \"#utility.yul\":2569:2583   */\n  pop\n    /* \"#utility.yul\":2495:2709   */\n  pop\n  pop\n  jump\t// out\n    /* \"#utility.yul\":2715:3461   */\ntag_26:\n    /* \"#utility.yul\":2816:2818   */\n  0x1f\n    /* \"#utility.yul\":2811:2814   */\n  dup3\n    /* \"#utility.yul\":2808:2819   */\n  gt\n    /* \"#utility.yul\":2805:3454   */\n  iszero\n  tag_65\n  jumpi\n    /* \"#utility.yul\":2845:2855   */\n  dup3\n    /* \"#utility.yul\":2840:2843   */\n  dup3\n    /* \"#utility.yul\":2837:2856   */\n  gt\n    /* \"#utility.yul\":2834:3444   */\n  iszero\n  tag_66\n  jumpi\n    /* \"#utility.yul\":2891:2929   */\n  tag_67\n    /* \"#utility.yul\":2923:2928   */\n  dup2\n    /* \"#utility.yul\":2891:2929   */\n  tag_14\n  jump\t// in\ntag_67:\n    /* \"#utility.yul\":2966:2988   */\n  tag_68\n    /* \"#utility.yul\":2984:2987   */\n  dup4\n    /* \"#utility.yul\":2966:2988   */\n  tag_15\n  jump\t// in\ntag_68:\n    /* \"#utility.yul\":3025:3054   */\n  tag_69\n    /* \"#utility.yul\":3043:3053   */\n  dup6\n    /* \"#utility.yul\":3025:3054   */\n  tag_15\n  jump\t// in\ntag_69:\n    /* \"#utility.yul\":3215:3217   */\n  0x20\n    /* \"#utility.yul\":3203:3213   */\n  dup7\n    /* \"#utility.yul\":3200:3218   */\n  lt\n    /* \"#utility.yul\":3197:3276   */\n  iszero\n  tag_70\n  jumpi\n    /* \"#utility.yul\":3257:3258   */\n  0x00\n    /* \"#utility.yul\":3241:3258   */\n  swap1\n  pop\n    /* \"#utility.yul\":3197:3276   */\ntag_70:\n    /* \"#utility.yul\":3326:3338   */\n  dup1\n    /* \"#utility.yul\":3316:3324   */\n  dup4\n    /* \"#utility.yul\":3312:3339   */\n  add\n    /* \"#utility.yul\":3356:3430   */\n  tag_71\n    /* \"#utility.yul\":3416:3428   */\n  dup3\n    /* \"#utility.yul\":3402:3414   */\n  dup5\n    /* \"#utility.yul\":3398:3429   */\n  sub\n    /* \"#utility.yul\":3385:3396   */\n  dup3\n    /* \"#utility.yul\":3356:3430   */\n  tag_25\n  jump\t// in\ntag_71:\n    /* \"#utility.yul\":2857:3444   */\n  pop\n  pop\n  pop\n  pop\n    /* \"#utility.yul\":2834:3444   */\ntag_66:\n    /* \"#utility.yul\":2805:3454   */\ntag_65:\n    /* \"#utility.yul\":2715:3461   */\n  pop\n  pop\n  pop\n  jump\t// out\n    /* \"#utility.yul\":3467:3584   */\ntag_27:\n    /* \"#utility.yul\":3521:3529   */\n  0x00\n    /* \"#utility.yul\":3571:3576   */\n  dup3\n    /* \"#utility.yul\":3565:3569   */\n  dup3\n    /* \"#utility.yul\":3561:3577   */\n  shr\n    /* \"#utility.yul\":3540:3577   */\n  swap1\n  pop\n    /* \"#utility.yul\":3467:3584   */\n  swap3\n  swap2\n  pop\n  pop\n  jump\t// out\n    /* \"#utility.yul\":3590:3759   */\ntag_28:\n    /* \"#utility.yul\":3634:3640   */\n  0x00\n    /* \"#utility.yul\":3667:3718   */\n  tag_74\n    /* \"#utility.yul\":3715:3716   */\n  0x00\n    /* \"#utility.yul\":3711:3717   */\n  not\n    /* \"#utility.yul\":3703:3708   */\n  dup5\n    /* \"#utility.yul\":3700:3701   */\n  0x08\n    /* \"#utility.yul\":3696:3709   */\n  mul\n    /* \"#utility.yul\":3667:3718   */\n  tag_27\n  jump\t// in\ntag_74:\n    /* \"#utility.yul\":3663:3719   */\n  not\n    /* \"#utility.yul\":3748:3752   */\n  dup1\n    /* \"#utility.yul\":3742:3746   */\n  dup4\n    /* \"#utility.yul\":3738:3753   */\n  and\n    /* \"#utility.yul\":3728:3753   */\n  swap2\n  pop\n    /* \"#utility.yul\":3641:3759   */\n  pop\n    /* \"#utility.yul\":3590:3759   */\n  swap3\n  swap2\n  pop\n  pop\n  jump\t// out\n    /* \"#utility.yul\":3764:4059   */\ntag_29:\n    /* \"#utility.yul\":3840:3844   */\n  0x00\n    /* \"#utility.yul\":3986:4015   */\n  tag_76\n    /* \"#utility.yul\":4011:4014   */\n  dup4\n    /* \"#utility.yul\":4005:4009   */\n  dup4\n    /* \"#utility.yul\":3986:4015   */\n  tag_28\n  jump\t// in\ntag_76:\n    /* \"#utility.yul\":3978:4015   */\n  swap2\n  pop\n    /* \"#utility.yul\":4048:4051   */\n  dup3\n    /* \"#utility.yul\":4045:4046   */\n  0x02\n    /* \"#utility.yul\":4041:4052   */\n  mul\n    /* \"#utility.yul\":4035:4039   */\n  dup3\n    /* \"#utility.yul\":4032:4053   */\n  or\n    /* \"#utility.yul\":4024:4053   */\n  swap1\n  pop\n    /* \"#utility.yul\":3764:4059   */\n  swap3\n  swap2\n  pop\n  pop\n  jump\t// out\n    /* \"#utility.yul\":4064:5459   */\ntag_6:\n    /* \"#utility.yul\":4181:4218   */\n  tag_78\n    /* \"#utility.yul\":4214:4217   */\n  dup3\n    /* \"#utility.yul\":4181:4218   */\n  tag_10\n  jump\t// in\ntag_78:\n    /* \"#utility.yul\":4283:4301   */\n  0xffffffffffffffff\n    /* \"#utility.yul\":4275:4281   */\n  dup2\n    /* \"#utility.yul\":4272:4302   */\n  gt\n    /* \"#utility.yul\":4269:4325   */\n  iszero\n  tag_79\n  jumpi\n    /* \"#utility.yul\":4305:4323   */\n  tag_80\n  tag_11\n  jump\t// in\ntag_80:\n    /* \"#utility.yul\":4269:4325   */\ntag_79:\n    /* \"#utility.yul\":4349:4387   */\n  tag_81\n    /* \"#utility.yul\":4381:4385   */\n  dup3\n    /* \"#utility.yul\":4375:4386   */\n  sload\n    /* \"#utility.yul\":4349:4387   */\n  tag_13\n  jump\t// in\ntag_81:\n    /* \"#utility.yul\":4434:4501   */\n  tag_82\n    /* \"#utility.yul\":4494:4500   */\n  dup3\n    /* \"#utility.yul\":4486:4492   */\n  dup3\n    /* \"#utility.yul\":4480:4484   */\n  dup6\n    /* \"#utility.yul\":4434:4501   */\n  tag_26\n  jump\t// in\ntag_82:\n    /* \"#utility.yul\":4528:4529   */\n  0x00\n    /* \"#utility.yul\":4552:4556   */\n  0x20\n    /* \"#utility.yul\":4539:4556   */\n  swap1\n  pop\n    /* \"#utility.yul\":4584:4586   */\n  0x1f\n    /* \"#utility.yul\":4576:4582   */\n  dup4\n    /* \"#utility.yul\":4573:4587   */\n  gt\n    /* \"#utility.yul\":4601:4602   */\n  0x01\n    /* \"#utility.yul\":4596:5214   */\n  dup2\n  eq\n  tag_84\n  jumpi\n    /* \"#utility.yul\":5258:5259   */\n  0x00\n    /* \"#utility.yul\":5275:5281   */\n  dup5\n    /* \"#utility.yul\":5272:5349   */\n  iszero\n  tag_85\n  jumpi\n    /* \"#utility.yul\":5324:5333   */\n  dup3\n    /* \"#utility.yul\":5319:5322   */\n  dup8\n    /* \"#utility.yul\":5315:5334   */\n  add\n    /* \"#utility.yul\":5309:5335   */\n  mload\n    /* \"#utility.yul\":5300:5335   */\n  swap1\n  pop\n    /* \"#utility.yul\":5272:5349   */\ntag_85:\n    /* \"#utility.yul\":5375:5442   */\n  tag_86\n    /* \"#utility.yul\":5435:5441   */\n  dup6\n    /* \"#utility.yul\":5428:5433   */\n  dup3\n    /* \"#utility.yul\":5375:5442   */\n  tag_29\n  jump\t// in\ntag_86:\n    /* \"#utility.yul\":5369:5373   */\n  dup7\n    /* \"#utility.yul\":5362:5443   */\n  sstore\n    /* \"#utility.yul\":5231:5453   */\n  pop\n    /* \"#utility.yul\":4566:5453   */\n  jump(tag_83)\n    /* \"#utility.yul\":4596:5214   */\ntag_84:\n    /* \"#utility.yul\":4648:4652   */\n  0x1f\n    /* \"#utility.yul\":4644:4653   */\n  not\n    /* \"#utility.yul\":4636:4642   */\n  dup5\n    /* \"#utility.yul\":4632:4654   */\n  and\n    /* \"#utility.yul\":4682:4719   */\n  tag_87\n    /* \"#utility.yul\":4714:4718   */\n  dup7\n    /* \"#utility.yul\":4682:4719   */\n  tag_14\n  jump\t// in\ntag_87:\n    /* \"#utility.yul\":4741:4742   */\n  0x00\n    /* \"#utility.yul\":4755:4963   */\ntag_88:\n    /* \"#utility.yul\":4769:4776   */\n  dup3\n    /* \"#utility.yul\":4766:4767   */\n  dup2\n    /* \"#utility.yul\":4763:4777   */\n  lt\n    /* \"#utility.yul\":4755:4963   */\n  iszero\n  tag_90\n  jumpi\n    /* \"#utility.yul\":4848:4857   */\n  dup5\n    /* \"#utility.yul\":4843:4846   */\n  dup10\n    /* \"#utility.yul\":4839:4858   */\n  add\n    /* \"#utility.yul\":4833:4859   */\n  mload\n    /* \"#utility.yul\":4825:4831   */\n  dup3\n    /* \"#utility.yul\":4818:4860   */\n  sstore\n    /* \"#utility.yul\":4899:4900   */\n  0x01\n    /* \"#utility.yul\":4891:4897   */\n  dup3\n    /* \"#utility.yul\":4887:4901   */\n  add\n    /* \"#utility.yul\":4877:4901   */\n  swap2\n  pop\n    /* \"#utility.yul\":4946:4948   */\n  0x20\n    /* \"#utility.yul\":4935:4944   */\n  dup6\n    /* \"#utility.yul\":4931:4949   */\n  add\n    /* \"#utility.yul\":4918:4949   */\n  swap5\n  pop\n    /* \"#utility.yul\":4792:4796   */\n  0x20\n    /* \"#utility.yul\":4789:4790   */\n  dup2\n    /* \"#utility.yul\":4785:4797   */\n  add\n    /* \"#utility.yul\":4780:4797   */\n  swap1\n  pop\n    /* \"#utility.yul\":4755:4963   */\n  jump(tag_88)\ntag_90:\n    /* \"#utility.yul\":4991:4997   */\n  dup7\n    /* \"#utility.yul\":4982:4989   */\n  dup4\n    /* \"#utility.yul\":4979:4998   */\n  lt\n    /* \"#utility.yul\":4976:5155   */\n  iszero\n  tag_91\n  jumpi\n    /* \"#utility.yul\":5049:5058   */\n  dup5\n    /* \"#utility.yul\":5044:5047   */\n  dup10\n    /* \"#utility.yul\":5040:5059   */\n  add\n    /* \"#utility.yul\":5034:5060   */\n  mload\n    /* \"#utility.yul\":5092:5140   */\n  tag_92\n    /* \"#utility.yul\":5134:5138   */\n  0x1f\n    /* \"#utility.yul\":5126:5132   */\n  dup10\n    /* \"#utility.yul\":5122:5139   */\n  and\n    /* \"#utility.yul\":5111:5120   */\n  dup3\n    /* \"#utility.yul\":5092:5140   */\n  tag_28\n  jump\t// in\ntag_92:\n    /* \"#utility.yul\":5084:5090   */\n  dup4\n    /* \"#utility.yul\":5077:5141   */\n  sstore\n    /* \"#utility.yul\":4999:5155   */\n  pop\n    /* \"#utility.yul\":4976:5155   */\ntag_91:\n    /* \"#utility.yul\":5201:5202   */\n  0x01\n    /* \"#utility.yul\":5197:5198   */\n  0x02\n    /* \"#utility.yul\":5189:5195   */\n  dup9\n    /* \"#utility.yul\":5185:5199   */\n  mul\n    /* \"#utility.yul\":5181:5203   */\n  add\n    /* \"#utility.yul\":5175:5179   */\n  dup9\n    /* \"#utility.yul\":5168:5204   */\n  sstore\n    /* \"#utility.yul\":4603:5214   */\n  pop\n  pop\n  pop\n    /* \"#utility.yul\":4566:5453   */\ntag_83:\n  pop\n    /* \"#utility.yul\":4156:5459   */\n  pop\n  pop\n  pop\n    /* \"#utility.yul\":4064:5459   */\n  pop\n  pop\n  jump\t// out\n    /* \"contracts/PlayerShare.sol\":193:1335  contract ShareToken is ERC20 {... */\ntag_9:\n  dataSize(sub_0)\n  dup1\n  dataOffset(sub_0)\n  0x00\n  codecopy\n  0x00\n  return\nstop\n\nsub_0: assembly {\n        /* \"contracts/PlayerShare.sol\":193:1335  contract ShareToken is ERC20 {... */\n      mstore(0x40, 0x80)\n      callvalue\n      dup1\n      iszero\n      tag_1\n      jumpi\n      revert(0x00, 0x00)\n    tag_1:\n      pop\n      jumpi(tag_2, lt(calldatasize, 0x04))\n      shr(0xe0, calldataload(0x00))\n      dup1\n      0x40c10f19\n      gt\n      tag_17\n      jumpi\n      dup1\n      0x95d89b41\n      gt\n      tag_18\n      jumpi\n      dup1\n      0x95d89b41\n      eq\n      tag_13\n      jumpi\n      dup1\n      0x9dc29fac\n      eq\n      tag_14\n      jumpi\n      dup1\n      0xa9059cbb\n      eq\n      tag_15\n      jumpi\n      dup1\n      0xdd62ed3e\n      eq\n      tag_16\n      jumpi\n      jump(tag_2)\n    tag_18:\n      dup1\n      0x40c10f19\n      eq\n      tag_10\n      jumpi\n      dup1\n      0x481c6a75\n      eq\n      tag_11\n      jumpi\n      dup1\n      0x70a08231\n      eq\n      tag_12\n      jumpi\n      jump(tag_2)\n    tag_17:\n      dup1\n      0x158ef93e\n      gt\n      tag_19\n      jumpi\n      dup1\n      0x158ef93e\n      eq\n      tag_6\n      jumpi\n      dup1\n      0x18160ddd\n      eq\n      tag_7\n      jumpi\n      dup1\n      0x23b872dd\n      eq\n      tag_8\n      jumpi\n      dup1\n      0x313ce567\n      eq\n      tag_9\n      jumpi\n      jump(tag_2)\n    tag_19:\n      dup1\n      0x06fdde03\n      eq\n      tag_3\n      jumpi\n      dup1\n      0x077f224a\n      eq\n      tag_4\n      jumpi\n      dup1\n      0x095ea7b3\n      eq\n      tag_5\n      jumpi\n    tag_2:\n      revert(0x00, 0x00)\n        /* \"contracts/PlayerShare.sol\":921:1017  function name() public view override returns (string memory) {... */\n    tag_3:\n      tag_20\n      tag_21\n      jump\t// in\n    tag_20:\n      mload(0x40)\n      tag_22\n      swap2\n      swap1\n      tag_23\n      jump\t// in\n    tag_22:\n      mload(0x40)\n      dup1\n      swap2\n      sub\n      swap1\n      return\n        /* \"contracts/PlayerShare.sol\":627:915  function initialize(... */\n    tag_4:\n      tag_24\n      0x04\n      dup1\n      calldatasize\n      sub\n      dup2\n      add\n      swap1\n      tag_25\n      swap2\n      swap1\n      tag_26\n      jump\t// in\n    tag_25:\n      tag_27\n      jump\t// in\n    tag_24:\n      stop\n        /* \"@openzeppelin/contracts/token/ERC20/ERC20.sol\":3902:4088  function approve(address spender, uint256 value) public virtual returns (bool) {... */\n    tag_5:\n      tag_28\n      0x04\n      dup1\n      calldatasize\n      sub\n      dup2\n      add\n      swap1\n      tag_29\n      swap2\n      swap1\n      tag_30\n      jump\t// in\n    tag_29:\n      tag_31\n      jump\t// in\n    tag_28:\n      mload(0x40)\n      tag_32\n      swap2\n      swap1\n      tag_33\n      jump\t// in\n    tag_32:\n      mload(0x40)\n      dup1\n      swap2\n      sub\n      swap1\n      return\n        /* \"contracts/PlayerShare.sol\":256:279  bool public initialized */\n    tag_6:\n      tag_34\n      tag_35\n      jump\t// in\n    tag_34:\n      mload(0x40)\n      tag_36\n      swap2\n      swap1\n      tag_33\n      jump\t// in\n    tag_36:\n      mload(0x40)\n      dup1\n      swap2\n      sub\n      swap1\n      return\n        /* \"@openzeppelin/contracts/token/ERC20/ERC20.sol\":2803:2900  function totalSupply() public view virtual returns (uint256) {... */\n    tag_7:\n      tag_37\n      tag_38\n      jump\t// in\n    tag_37:\n      mload(0x40)\n      tag_39\n      swap2\n      swap1\n      tag_40\n      jump\t// in\n    tag_39:\n      mload(0x40)\n      dup1\n      swap2\n      sub\n      swap1\n      return\n        /* \"@openzeppelin/contracts/token/ERC20/ERC20.sol\":4680:4924  function transferFrom(address from, address to, uint256 value) public virtual returns (bool) {... */\n    tag_8:\n      tag_41\n      0x04\n      dup1\n      calldatasize\n      sub\n      dup2\n      add\n      swap1\n      tag_42\n      swap2\n      swap1\n      tag_43\n      jump\t// in\n    tag_42:\n      tag_44\n      jump\t// in\n    tag_41:\n      mload(0x40)\n      tag_45\n      swap2\n      swap1\n      tag_33\n      jump\t// in\n    tag_45:\n      mload(0x40)\n      dup1\n      swap2\n      sub\n      swap1\n      return\n        /* \"@openzeppelin/contracts/token/ERC20/ERC20.sol\":2688:2770  function decimals() public view virtual returns (uint8) {... */\n    tag_9:\n      tag_46\n      tag_47\n      jump\t// in\n    tag_46:\n      mload(0x40)\n      tag_48\n      swap2\n      swap1\n      tag_49\n      jump\t// in\n    tag_48:\n      mload(0x40)\n      dup1\n      swap2\n      sub\n      swap1\n      return\n        /* \"contracts/PlayerShare.sol\":1129:1226  function mint(address to, uint256 amount) external onlyManager {... */\n    tag_10:\n      tag_50\n      0x04\n      dup1\n      calldatasize\n      sub\n      dup2\n      add\n      swap1\n      tag_51\n      swap2\n      swap1\n      tag_30\n      jump\t// in\n    tag_51:\n      tag_52\n      jump\t// in\n    tag_50:\n      stop\n        /* \"contracts/PlayerShare.sol\":228:250  address public manager */\n    tag_11:\n      tag_53\n      tag_54\n      jump\t// in\n    tag_53:\n      mload(0x40)\n      tag_55\n      swap2\n      swap1\n      tag_56\n      jump\t// in\n    tag_55:\n      mload(0x40)\n      dup1\n      swap2\n      sub\n      swap1\n      return\n        /* \"@openzeppelin/contracts/token/ERC20/ERC20.sol\":2933:3049  function balanceOf(address account) public view virtual returns (uint256) {... */\n    tag_12:\n      tag_57\n      0x04\n      dup1\n      calldatasize\n      sub\n      dup2\n      add\n      swap1\n      tag_58\n      swap2\n      swap1\n      tag_59\n      jump\t// in\n    tag_58:\n      tag_60\n      jump\t// in\n    tag_57:\n      mload(0x40)\n      tag_61\n      swap2\n      swap1\n      tag_40\n      jump\t// in\n    tag_61:\n      mload(0x40)\n      dup1\n      swap2\n      sub\n      swap1\n      return\n        /* \"contracts/PlayerShare.sol\":1023:1123  function symbol() public view override returns (string memory) {... */\n    tag_13:\n      tag_62\n      tag_63\n      jump\t// in\n    tag_62:\n      mload(0x40)\n      tag_64\n      swap2\n      swap1\n      tag_23\n      jump\t// in\n    tag_64:\n      mload(0x40)\n      dup1\n      swap2\n      sub\n      swap1\n      return\n        /* \"contracts/PlayerShare.sol\":1232:1333  function burn(address from, uint256 amount) external onlyManager {... */\n    tag_14:\n      tag_65\n      0x04\n      dup1\n      calldatasize\n      sub\n      dup2\n      add\n      swap1\n      tag_66\n      swap2\n      swap1\n      tag_30\n      jump\t// in\n    tag_66:\n      tag_67\n      jump\t// in\n    tag_65:\n      stop\n        /* \"@openzeppelin/contracts/token/ERC20/ERC20.sol\":3244:3422  function transfer(address to, uint256 value) public virtual returns (bool) {... */\n    tag_15:\n      tag_68\n      0x04\n      dup1\n      calldatasize\n      sub\n      dup2\n      add\n      swap1\n      tag_69\n      swap2\n      swap1\n      tag_30\n      jump\t// in\n    tag_69:\n      tag_70\n      jump\t// in\n    tag_68:\n      mload(0x40)\n      tag_71\n      swap2\n      swap1\n      tag_33\n      jump\t// in\n    tag_71:\n      mload(0x40)\n      dup1\n      swap2\n      sub\n      swap1\n      return\n        /* \"@openzeppelin/contracts/token/ERC20/ERC20.sol\":3455:3595  function allowance(address owner, address spender) public view virtual returns (uint256) {... */\n    tag_16:\n      tag_72\n      0x04\n      dup1\n      calldatasize\n      sub\n      dup2\n      add\n      swap1\n      tag_73\n      swap2\n      swap1\n      tag_74\n      jump\t// in\n    tag_73:\n      tag_75\n      jump\t// in\n    tag_72:\n      mload(0x40)\n      tag_76\n      swap2\n      swap1\n      tag_40\n      jump\t// in\n    tag_76:\n      mload(0x40)\n      dup1\n      swap2\n      sub\n      swap1\n      return\n        /* \"contracts/PlayerShare.sol\":921:1017  function name() public view override returns (string memory) {... */\n    tag_21:\n        /* \"contracts/PlayerShare.sol\":967:980  string memory */\n      0x60\n        /* \"contracts/PlayerShare.sol\":999:1010  _customName */\n      0x06\n        /* \"contracts/PlayerShare.sol\":992:1010  return _customName */\n      dup1\n      sload\n      tag_78\n      swap1\n      tag_79\n      jump\t// in\n    tag_78:\n      dup1\n      0x1f\n      add\n      0x20\n      dup1\n      swap2\n      div\n      mul\n      0x20\n      add\n      mload(0x40)\n      swap1\n      dup2\n      add\n      0x40\n      mstore\n      dup1\n      swap3\n      swap2\n      swap1\n      dup2\n      dup2\n      mstore\n      0x20\n      add\n      dup3\n      dup1\n      sload\n      tag_80\n      swap1\n      tag_79\n      jump\t// in\n    tag_80:\n      dup1\n      iszero\n      tag_81\n      jumpi\n      dup1\n      0x1f\n      lt\n      tag_82\n      jumpi\n      0x0100\n      dup1\n      dup4\n      sload\n      div\n      mul\n      dup4\n      mstore\n      swap2\n      0x20\n      add\n      swap2\n      jump(tag_81)\n    tag_82:\n      dup3\n      add\n      swap2\n      swap1\n      0x00\n      mstore\n      keccak256(0x00, 0x20)\n      swap1\n    tag_83:\n      dup2\n      sload\n      dup2\n      mstore\n      swap1\n      0x01\n      add\n      swap1\n      0x20\n      add\n      dup1\n      dup4\n      gt\n      tag_83\n      jumpi\n      dup3\n      swap1\n      sub\n      0x1f\n      and\n      dup3\n      add\n      swap2\n    tag_81:\n      pop\n      pop\n      pop\n      pop\n      pop\n      swap1\n      pop\n        /* \"contracts/PlayerShare.sol\":921:1017  function name() public view override returns (string memory) {... */\n      swap1\n      jump\t// out\n        /* \"contracts/PlayerShare.sol\":627:915  function initialize(... */\n    tag_27:\n        /* \"contracts/PlayerShare.sol\":497:508  initialized */\n      0x05\n      0x14\n      swap1\n      sload\n      swap1\n      0x0100\n      exp\n      swap1\n      div\n      0xff\n      and\n        /* \"contracts/PlayerShare.sol\":496:508  !initialized */\n      iszero\n        /* \"contracts/PlayerShare.sol\":488:525  require(!initialized, \"ALREADY_INIT\") */\n      tag_85\n      jumpi\n      mload(0x40)\n      0x08c379a000000000000000000000000000000000000000000000000000000000\n      dup2\n      mstore\n      0x04\n      add\n      tag_86\n      swap1\n      tag_87\n      jump\t// in\n    tag_86:\n      mload(0x40)\n      dup1\n      swap2\n      sub\n      swap1\n      revert\n    tag_85:\n        /* \"contracts/PlayerShare.sol\":798:799  0 */\n      0x00\n        /* \"contracts/PlayerShare.sol\":778:800  manager_ != address(0) */\n      0xffffffffffffffffffffffffffffffffffffffff\n      and\n        /* \"contracts/PlayerShare.sol\":778:786  manager_ */\n      dup2\n        /* \"contracts/PlayerShare.sol\":778:800  manager_ != address(0) */\n      0xffffffffffffffffffffffffffffffffffffffff\n      and\n      sub\n        /* \"contracts/PlayerShare.sol\":770:817  require(manager_ != address(0), \"ZERO_MANAGER\") */\n      tag_89\n      jumpi\n      mload(0x40)\n      0x08c379a000000000000000000000000000000000000000000000000000000000\n      dup2\n      mstore\n      0x04\n      add\n      tag_90\n      swap1\n      tag_91\n      jump\t// in\n    tag_90:\n      mload(0x40)\n      dup1\n      swap2\n      sub\n      swap1\n      revert\n    tag_89:\n        /* \"contracts/PlayerShare.sol\":838:846  manager_ */\n      dup1\n        /* \"contracts/PlayerShare.sol\":828:835  manager */\n      0x05\n      0x00\n        /* \"contracts/PlayerShare.sol\":828:846  manager = manager_ */\n      0x0100\n      exp\n      dup2\n      sload\n      dup2\n      0xffffffffffffffffffffffffffffffffffffffff\n      mul\n      not\n      and\n      swap1\n      dup4\n      0xffffffffffffffffffffffffffffffffffffffff\n      and\n      mul\n      or\n      swap1\n      sstore\n      pop\n        /* \"contracts/PlayerShare.sol\":870:875  name_ */\n      dup3\n        /* \"contracts/PlayerShare.sol\":856:867  _customName */\n      0x06\n        /* \"contracts/PlayerShare.sol\":856:875  _customName = name_ */\n      swap1\n      dup2\n      tag_92\n      swap2\n      swap1\n      tag_93\n      jump\t// in\n    tag_92:\n      pop\n        /* \"contracts/PlayerShare.sol\":901:908  symbol_ */\n      dup2\n        /* \"contracts/PlayerShare.sol\":885:898  _customSymbol */\n      0x07\n        /* \"contracts/PlayerShare.sol\":885:908  _customSymbol = symbol_ */\n      swap1\n      dup2\n      tag_94\n      swap2\n      swap1\n      tag_93\n      jump\t// in\n    tag_94:\n      pop\n        /* \"contracts/PlayerShare.sol\":560:564  true */\n      0x01\n        /* \"contracts/PlayerShare.sol\":546:557  initialized */\n      0x05\n      0x14\n        /* \"contracts/PlayerShare.sol\":546:564  initialized = true */\n      0x0100\n      exp\n      dup2\n      sload\n      dup2\n      0xff\n      mul\n      not\n      and\n      swap1\n      dup4\n      iszero\n      iszero\n      mul\n      or\n      swap1\n      sstore\n      pop\n        /* \"contracts/PlayerShare.sol\":627:915  function initialize(... */\n      pop\n      pop\n      pop\n      jump\t// out\n        /* \"@openzeppelin/contracts/token/ERC20/ERC20.sol\":3902:4088  function approve(address spender, uint256 value) public virtual returns (bool) {... */\n    tag_31:\n        /* \"@openzeppelin/contracts/token/ERC20/ERC20.sol\":3975:3979  bool */\n      0x00\n        /* \"@openzeppelin/contracts/token/ERC20/ERC20.sol\":3991:4004  address owner */\n      0x00\n        /* \"@openzeppelin/contracts/token/ERC20/ERC20.sol\":4007:4019  _msgSender() */\n      tag_96\n        /* \"@openzeppelin/contracts/token/ERC20/ERC20.sol\":4007:4017  _msgSender */\n      tag_97\n        /* \"@openzeppelin/contracts/token/ERC20/ERC20.sol\":4007:4019  _msgSender() */\n      jump\t// in\n    tag_96:\n        /* \"@openzeppelin/contracts/token/ERC20/ERC20.sol\":3991:4019  address owner = _msgSender() */\n      swap1\n      pop\n        /* \"@openzeppelin/contracts/token/ERC20/ERC20.sol\":4029:4060  _approve(owner, spender, value) */\n      tag_98\n        /* \"@openzeppelin/contracts/token/ERC20/ERC20.sol\":4038:4043  owner */\n      dup2\n        /* \"@openzeppelin/contracts/token/ERC20/ERC20.sol\":4045:4052  spender */\n      dup6\n        /* \"@openzeppelin/contracts/token/ERC20/ERC20.sol\":4054:4059  value */\n      dup6\n        /* \"@openzeppelin/contracts/token/ERC20/ERC20.sol\":4029:4037  _approve */\n      tag_99\n        /* \"@openzeppelin/contracts/token/ERC20/ERC20.sol\":4029:4060  _approve(owner, spender, value) */\n      jump\t// in\n    tag_98:\n        /* \"@openzeppelin/contracts/token/ERC20/ERC20.sol\":4077:4081  true */\n      0x01\n        /* \"@openzeppelin/contracts/token/ERC20/ERC20.sol\":4070:4081  return true */\n      swap2\n      pop\n      pop\n        /* \"@openzeppelin/contracts/token/ERC20/ERC20.sol\":3902:4088  function approve(address spender, uint256 value) public virtual returns (bool) {... */\n      swap3\n      swap2\n      pop\n      pop\n      jump\t// out\n        /* \"contracts/PlayerShare.sol\":256:279  bool public initialized */\n    tag_35:\n      0x05\n      0x14\n      swap1\n      sload\n      swap1\n      0x0100\n      exp\n      swap1\n      div\n      0xff\n      and\n      dup2\n      jump\t// out\n        /* \"@openzeppelin/contracts/token/ERC20/ERC20.sol\":2803:2900  function totalSupply() public view virtual returns (uint256) {... */\n    tag_38:\n        /* \"@openzeppelin/contracts/token/ERC20/ERC20.sol\":2855:2862  uint256 */\n      0x00\n        /* \"@openzeppelin/contracts/token/ERC20/ERC20.sol\":2881:2893  _totalSupply */\n      sload(0x02)\n        /* \"@openzeppelin/contracts/token/ERC20/ERC20.sol\":2874:2893  return _totalSupply */\n      swap1\n      pop\n        /* \"@openzeppelin/contracts/token/ERC20/ERC20.sol\":2803:2900  function totalSupply() public view virtual returns (uint256) {... */\n      swap1\n      jump\t// out\n        /* \"@openzeppelin/contracts/token/ERC20/ERC20.sol\":4680:4924  function transferFrom(address from, address to, uint256 value) public virtual returns (bool) {... */\n    tag_44:\n        /* \"@openzeppelin/contracts/token/ERC20/ERC20.sol\":4767:4771  bool */\n      0x00\n        /* \"@openzeppelin/contracts/token/ERC20/ERC20.sol\":4783:4798  address spender */\n      0x00\n        /* \"@openzeppelin/contracts/token/ERC20/ERC20.sol\":4801:4813  _msgSender() */\n      tag_102\n        /* \"@openzeppelin/contracts/token/ERC20/ERC20.sol\":4801:4811  _msgSender */\n      tag_97\n        /* \"@openzeppelin/contracts/token/ERC20/ERC20.sol\":4801:4813  _msgSender() */\n      jump\t// in\n    tag_102:\n        /* \"@openzeppelin/contracts/token/ERC20/ERC20.sol\":4783:4813  address spender = _msgSender() */\n      swap1\n      pop\n        /* \"@openzeppelin/contracts/token/ERC20/ERC20.sol\":4823:4860  _spendAllowance(from, spender, value) */\n      tag_103\n        /* \"@openzeppelin/contracts/token/ERC20/ERC20.sol\":4839:4843  from */\n      dup6\n        /* \"@openzeppelin/contracts/token/ERC20/ERC20.sol\":4845:4852  spender */\n      dup3\n        /* \"@openzeppelin/contracts/token/ERC20/ERC20.sol\":4854:4859  value */\n      dup6\n        /* \"@openzeppelin/contracts/token/ERC20/ERC20.sol\":4823:4838  _spendAllowance */\n      tag_104\n        /* \"@openzeppelin/contracts/token/ERC20/ERC20.sol\":4823:4860  _spendAllowance(from, spender, value) */\n      jump\t// in\n    tag_103:\n        /* \"@openzeppelin/contracts/token/ERC20/ERC20.sol\":4870:4896  _transfer(from, to, value) */\n      tag_105\n        /* \"@openzeppelin/contracts/token/ERC20/ERC20.sol\":4880:4884  from */\n      dup6\n        /* \"@openzeppelin/contracts/token/ERC20/ERC20.sol\":4886:4888  to */\n      dup6\n        /* \"@openzeppelin/contracts/token/ERC20/ERC20.sol\":4890:4895  value */\n      dup6\n        /* \"@openzeppelin/contracts/token/ERC20/ERC20.sol\":4870:4879  _transfer */\n      tag_106\n        /* \"@openzeppelin/contracts/token/ERC20/ERC20.sol\":4870:4896  _transfer(from, to, value) */\n      jump\t// in\n    tag_105:\n        /* \"@openzeppelin/contracts/token/ERC20/ERC20.sol\":4913:4917  true */\n      0x01\n        /* \"@openzeppelin/contracts/token/ERC20/ERC20.sol\":4906:4917  return true */\n      swap2\n      pop\n      pop\n        /* \"@openzeppelin/contracts/token/ERC20/ERC20.sol\":4680:4924  function transferFrom(address from, address to, uint256 value) public virtual returns (bool) {... */\n      swap4\n      swap3\n      pop\n      pop\n      pop\n      jump\t// out\n        /* \"@openzeppelin/contracts/token/ERC20/ERC20.sol\":2688:2770  function decimals() public view virtual returns (uint8) {... */\n    tag_47:\n        /* \"@openzeppelin/contracts/token/ERC20/ERC20.sol\":2737:2742  uint8 */\n      0x00\n        /* \"@openzeppelin/contracts/token/ERC20/ERC20.sol\":2761:2763  18 */\n      0x12\n        /* \"@openzeppelin/contracts/token/ERC20/ERC20.sol\":2754:2763  return 18 */\n      swap1\n      pop\n        /* \"@openzeppelin/contracts/token/ERC20/ERC20.sol\":2688:2770  function decimals() public view virtual returns (uint8) {... */\n      swap1\n      jump\t// out\n        /* \"contracts/PlayerShare.sol\":1129:1226  function mint(address to, uint256 amount) external onlyManager {... */\n    tag_52:\n        /* \"contracts/PlayerShare.sol\":408:415  manager */\n      0x05\n      0x00\n      swap1\n      sload\n      swap1\n      0x0100\n      exp\n      swap1\n      div\n      0xffffffffffffffffffffffffffffffffffffffff\n      and\n        /* \"contracts/PlayerShare.sol\":394:415  msg.sender == manager */\n      0xffffffffffffffffffffffffffffffffffffffff\n      and\n        /* \"contracts/PlayerShare.sol\":394:404  msg.sender */\n      caller\n        /* \"contracts/PlayerShare.sol\":394:415  msg.sender == manager */\n      0xffffffffffffffffffffffffffffffffffffffff\n      and\n      eq\n        /* \"contracts/PlayerShare.sol\":386:431  require(msg.sender == manager, \"NOT_MANAGER\") */\n      tag_109\n      jumpi\n      mload(0x40)\n      0x08c379a000000000000000000000000000000000000000000000000000000000\n      dup2\n      mstore\n      0x04\n      add\n      tag_110\n      swap1\n      tag_111\n      jump\t// in\n    tag_110:\n      mload(0x40)\n      dup1\n      swap2\n      sub\n      swap1\n      revert\n    tag_109:\n        /* \"contracts/PlayerShare.sol\":1202:1219  _mint(to, amount) */\n      tag_113\n        /* \"contracts/PlayerShare.sol\":1208:1210  to */\n      dup3\n        /* \"contracts/PlayerShare.sol\":1212:1218  amount */\n      dup3\n        /* \"contracts/PlayerShare.sol\":1202:1207  _mint */\n      tag_114\n        /* \"contracts/PlayerShare.sol\":1202:1219  _mint(to, amount) */\n      jump\t// in\n    tag_113:\n        /* \"contracts/PlayerShare.sol\":1129:1226  function mint(address to, uint256 amount) external onlyManager {... */\n      pop\n      pop\n      jump\t// out\n        /* \"contracts/PlayerShare.sol\":228:250  address public manager */\n    tag_54:\n      0x05\n      0x00\n      swap1\n      sload\n      swap1\n      0x0100\n      exp\n      swap1\n      div\n      0xffffffffffffffffffffffffffffffffffffffff\n      and\n      dup2\n      jump\t// out\n        /* \"@openzeppelin/contracts/token/ERC20/ERC20.sol\":2933:3049  function balanceOf(address account) public view virtual returns (uint256) {... */\n    tag_60:\n        /* \"@openzeppelin/contracts/token/ERC20/ERC20.sol\":2998:3005  uint256 */\n      0x00\n        /* \"@openzeppelin/contracts/token/ERC20/ERC20.sol\":3024:3033  _balances */\n      0x00\n        /* \"@openzeppelin/contracts/token/ERC20/ERC20.sol\":3024:3042  _balances[account] */\n      0x00\n        /* \"@openzeppelin/contracts/token/ERC20/ERC20.sol\":3034:3041  account */\n      dup4\n        /* \"@openzeppelin/contracts/token/ERC20/ERC20.sol\":3024:3042  _balances[account] */\n      0xffffffffffffffffffffffffffffffffffffffff\n      and\n      0xffffffffffffffffffffffffffffffffffffffff\n      and\n      dup2\n      mstore\n      0x20\n      add\n      swap1\n      dup2\n      mstore\n      0x20\n      add\n      0x00\n      keccak256\n      sload\n        /* \"@openzeppelin/contracts/token/ERC20/ERC20.sol\":3017:3042  return _balances[account] */\n      swap1\n      pop\n        /* \"@openzeppelin/contracts/token/ERC20/ERC20.sol\":2933:3049  function balanceOf(address account) public view virtual returns (uint256) {... */\n      swap2\n      swap1\n      pop\n      jump\t// out\n        /* \"contracts/PlayerShare.sol\":1023:1123  function symbol() public view override returns (string memory) {... */\n    tag_63:\n        /* \"contracts/PlayerShare.sol\":1071:1084  string memory */\n      0x60\n        /* \"contracts/PlayerShare.sol\":1103:1116  _customSymbol */\n      0x07\n        /* \"contracts/PlayerShare.sol\":1096:1116  return _customSymbol */\n      dup1\n      sload\n      tag_117\n      swap1\n      tag_79\n      jump\t// in\n    tag_117:\n      dup1\n      0x1f\n      add\n      0x20\n      dup1\n      swap2\n      div\n      mul\n      0x20\n      add\n      mload(0x40)\n      swap1\n      dup2\n      add\n      0x40\n      mstore\n      dup1\n      swap3\n      swap2\n      swap1\n      dup2\n      dup2\n      mstore\n      0x20\n      add\n      dup3\n      dup1\n      sload\n      tag_118\n      swap1\n      tag_79\n      jump\t// in\n    tag_118:\n      dup1\n      iszero\n      tag_119\n      jumpi\n      dup1\n      0x1f\n      lt\n      tag_120\n      jumpi\n      0x0100\n      dup1\n      dup4\n      sload\n      div\n      mul\n      dup4\n      mstore\n      swap2\n      0x20\n      add\n      swap2\n      jump(tag_119)\n    tag_120:\n      dup3\n      add\n      swap2\n      swap1\n      0x00\n      mstore\n      keccak256(0x00, 0x20)\n      swap1\n    tag_121:\n      dup2\n      sload\n      dup2\n      mstore\n      swap1\n      0x01\n      add\n      swap1\n      0x20\n      add\n      dup1\n      dup4\n      gt\n      tag_121\n      jumpi\n      dup3\n      swap1\n      sub\n      0x1f\n      and\n      dup3\n      add\n      swap2\n    tag_119:\n      pop\n      pop\n      pop\n      pop\n      pop\n      swap1\n      pop\n        /* \"contracts/PlayerShare.sol\":1023:1123  function symbol() public view override returns (string memory) {... */\n      swap1\n      jump\t// out\n        /* \"contracts/PlayerShare.sol\":1232:1333  function burn(address from, uint256 amount) external onlyManager {... */\n    tag_67:\n        /* \"contracts/PlayerShare.sol\":408:415  manager */\n      0x05\n      0x00\n      swap1\n      sload\n      swap1\n      0x0100\n      exp\n      swap1\n      div\n      0xffffffffffffffffffffffffffffffffffffffff\n      and\n        /* \"contracts/PlayerShare.sol\":394:415  msg.sender == manager */\n      0xffffffffffffffffffffffffffffffffffffffff\n      and\n        /* \"contracts/PlayerShare.sol\":394:404  msg.sender */\n      caller\n        /* \"contracts/PlayerShare.sol\":394:415  msg.sender == manager */\n      0xffffffffffffffffffffffffffffffffffffffff\n      and\n      eq\n        /* \"contracts/PlayerShare.sol\":386:431  require(msg.sender == manager, \"NOT_MANAGER\") */\n      tag_123\n      jumpi\n      mload(0x40)\n      0x08c379a000000000000000000000000000000000000000000000000000000000\n      dup2\n      mstore\n      0x04\n      add\n      tag_124\n      swap1\n      tag_111\n      jump\t// in\n    tag_124:\n      mload(0x40)\n      dup1\n      swap2\n      sub\n      swap1\n      revert\n    tag_123:\n        /* \"contracts/PlayerShare.sol\":1307:1326  _burn(from, amount) */\n      tag_126\n        /* \"contracts/PlayerShare.sol\":1313:1317  from */\n      dup3\n        /* \"contracts/PlayerShare.sol\":1319:1325  amount */\n      dup3\n        /* \"contracts/PlayerShare.sol\":1307:1312  _burn */\n      tag_127\n        /* \"contracts/PlayerShare.sol\":1307:1326  _burn(from, amount) */\n      jump\t// in\n    tag_126:\n        /* \"contracts/PlayerShare.sol\":1232:1333  function burn(address from, uint256 amount) external onlyManager {... */\n      pop\n      pop\n      jump\t// out\n        /* \"@openzeppelin/contracts/token/ERC20/ERC20.sol\":3244:3422  function transfer(address to, uint256 value) public virtual returns (bool) {... */\n    tag_70:\n        /* \"@openzeppelin/contracts/token/ERC20/ERC20.sol\":3313:3317  bool */\n      0x00\n        /* \"@openzeppelin/contracts/token/ERC20/ERC20.sol\":3329:3342  address owner */\n      0x00\n        /* \"@openzeppelin/contracts/token/ERC20/ERC20.sol\":3345:3357  _msgSender() */\n      tag_129\n        /* \"@openzeppelin/contracts/token/ERC20/ERC20.sol\":3345:3355  _msgSender */\n      tag_97\n        /* \"@openzeppelin/contracts/token/ERC20/ERC20.sol\":3345:3357  _msgSender() */\n      jump\t// in\n    tag_129:\n        /* \"@openzeppelin/contracts/token/ERC20/ERC20.sol\":3329:3357  address owner = _msgSender() */\n      swap1\n      pop\n        /* \"@openzeppelin/contracts/token/ERC20/ERC20.sol\":3367:3394  _transfer(owner, to, value) */\n      tag_130\n        /* \"@openzeppelin/contracts/token/ERC20/ERC20.sol\":3377:3382  owner */\n      dup2\n        /* \"@openzeppelin/contracts/token/ERC20/ERC20.sol\":3384:3386  to */\n      dup6\n        /* \"@openzeppelin/contracts/token/ERC20/ERC20.sol\":3388:3393  value */\n      dup6\n        /* \"@openzeppelin/contracts/token/ERC20/ERC20.sol\":3367:3376  _transfer */\n      tag_106\n        /* \"@openzeppelin/contracts/token/ERC20/ERC20.sol\":3367:3394  _transfer(owner, to, value) */\n      jump\t// in\n    tag_130:\n        /* \"@openzeppelin/contracts/token/ERC20/ERC20.sol\":3411:3415  true */\n      0x01\n        /* \"@openzeppelin/contracts/token/ERC20/ERC20.sol\":3404:3415  return true */\n      swap2\n      pop\n      pop\n        /* \"@openzeppelin/contracts/token/ERC20/ERC20.sol\":3244:3422  function transfer(address to, uint256 value) public virtual returns (bool) {... */\n      swap3\n      swap2\n      pop\n      pop\n      jump\t// out\n        /* \"@openzeppelin/contracts/token/ERC20/ERC20.sol\":3455:3595  function allowance(address owner, address spender) public view virtual returns (uint256) {... */\n    tag_75:\n        /* \"@openzeppelin/contracts/token/ERC20/ERC20.sol\":3535:3542  uint256 */\n      0x00\n        /* \"@openzeppelin/contracts/token/ERC20/ERC20.sol\":3561:3572  _allowances */\n      0x01\n        /* \"@openzeppelin/contracts/token/ERC20/ERC20.sol\":3561:3579  _allowances[owner] */\n      0x00\n        /* \"@openzeppelin/contracts/token/ERC20/ERC20.sol\":3573:3578  owner */\n      dup5\n        /* \"@openzeppelin/contracts/token/ERC20/ERC20.sol\":3561:3579  _allowances[owner] */\n      0xffffffffffffffffffffffffffffffffffffffff\n      and\n      0xffffffffffffffffffffffffffffffffffffffff\n      and\n      dup2\n      mstore\n      0x20\n      add\n      swap1\n      dup2\n      mstore\n      0x20\n      add\n      0x00\n      keccak256\n        /* \"@openzeppelin/contracts/token/ERC20/ERC20.sol\":3561:3588  _allowances[owner][spender] */\n      0x00\n        /* \"@openzeppelin/contracts/token/ERC20/ERC20.sol\":3580:3587  spender */\n      dup4\n        /* \"@openzeppelin/contracts/token/ERC20/ERC20.sol\":3561:3588  _allowances[owner][spender] */\n      0xffffffffffffffffffffffffffffffffffffffff\n      and\n      0xffffffffffffffffffffffffffffffffffffffff\n      and\n      dup2\n      mstore\n      0x20\n      add\n      swap1\n      dup2\n      mstore\n      0x20\n      add\n      0x00\n      keccak256\n      sload\n        /* \"@openzeppelin/contracts/token/ERC20/ERC20.sol\":3554:3588  return _allowances[owner][spender] */\n      swap1\n      pop\n        /* \"@openzeppelin/contracts/token/ERC20/ERC20.sol\":3455:3595  function allowance(address owner, address spender) public view virtual returns (uint256) {... */\n      swap3\n      swap2\n      pop\n      pop\n      jump\t// out\n        /* \"@openzeppelin/contracts/utils/Context.sol\":656:752  function _msgSender() internal view virtual returns (address) {... */\n    tag_97:\n        /* \"@openzeppelin/contracts/utils/Context.sol\":709:716  address */\n      0x00\n        /* \"@openzeppelin/contracts/utils/Context.sol\":735:745  msg.sender */\n      caller\n        /* \"@openzeppelin/contracts/utils/Context.sol\":728:745  return msg.sender */\n      swap1\n      pop\n        /* \"@openzeppelin/contracts/utils/Context.sol\":656:752  function _msgSender() internal view virtual returns (address) {... */\n      swap1\n      jump\t// out\n        /* \"@openzeppelin/contracts/token/ERC20/ERC20.sol\":8630:8758  function _approve(address owner, address spender, uint256 value) internal {... */\n    tag_99:\n        /* \"@openzeppelin/contracts/token/ERC20/ERC20.sol\":8714:8751  _approve(owner, spender, value, true) */\n      tag_134\n        /* \"@openzeppelin/contracts/token/ERC20/ERC20.sol\":8723:8728  owner */\n      dup4\n        /* \"@openzeppelin/contracts/token/ERC20/ERC20.sol\":8730:8737  spender */\n      dup4\n        /* \"@openzeppelin/contracts/token/ERC20/ERC20.sol\":8739:8744  value */\n      dup4\n        /* \"@openzeppelin/contracts/token/ERC20/ERC20.sol\":8746:8750  true */\n      0x01\n        /* \"@openzeppelin/contracts/token/ERC20/ERC20.sol\":8714:8722  _approve */\n      tag_135\n        /* \"@openzeppelin/contracts/token/ERC20/ERC20.sol\":8714:8751  _approve(owner, spender, value, true) */\n      jump\t// in\n    tag_134:\n        /* \"@openzeppelin/contracts/token/ERC20/ERC20.sol\":8630:8758  function _approve(address owner, address spender, uint256 value) internal {... */\n      pop\n      pop\n      pop\n      jump\t// out\n        /* \"@openzeppelin/contracts/token/ERC20/ERC20.sol\":10319:10795  function _spendAllowance(address owner, address spender, uint256 value) internal virtual {... */\n    tag_104:\n        /* \"@openzeppelin/contracts/token/ERC20/ERC20.sol\":10418:10442  uint256 currentAllowance */\n      0x00\n        /* \"@openzeppelin/contracts/token/ERC20/ERC20.sol\":10445:10470  allowance(owner, spender) */\n      tag_137\n        /* \"@openzeppelin/contracts/token/ERC20/ERC20.sol\":10455:10460  owner */\n      dup5\n        /* \"@openzeppelin/contracts/token/ERC20/ERC20.sol\":10462:10469  spender */\n      dup5\n        /* \"@openzeppelin/contracts/token/ERC20/ERC20.sol\":10445:10454  allowance */\n      tag_75\n        /* \"@openzeppelin/contracts/token/ERC20/ERC20.sol\":10445:10470  allowance(owner, spender) */\n      jump\t// in\n    tag_137:\n        /* \"@openzeppelin/contracts/token/ERC20/ERC20.sol\":10418:10470  uint256 currentAllowance = allowance(owner, spender) */\n      swap1\n      pop\n        /* \"@openzeppelin/contracts/token/ERC20/ERC20.sol\":10503:10520  type(uint256).max */\n      0xffffffffffffffffffffffffffffffffffffffffffffffffffffffffffffffff\n        /* \"@openzeppelin/contracts/token/ERC20/ERC20.sol\":10484:10500  currentAllowance */\n      dup2\n        /* \"@openzeppelin/contracts/token/ERC20/ERC20.sol\":10484:10520  currentAllowance < type(uint256).max */\n      lt\n        /* \"@openzeppelin/contracts/token/ERC20/ERC20.sol\":10480:10789  if (currentAllowance < type(uint256).max) {... */\n      iszero\n      tag_138\n      jumpi\n        /* \"@openzeppelin/contracts/token/ERC20/ERC20.sol\":10559:10564  value */\n      dup2\n        /* \"@openzeppelin/contracts/token/ERC20/ERC20.sol\":10540:10556  currentAllowance */\n      dup2\n        /* \"@openzeppelin/contracts/token/ERC20/ERC20.sol\":10540:10564  currentAllowance < value */\n      lt\n        /* \"@openzeppelin/contracts/token/ERC20/ERC20.sol\":10536:10666  if (currentAllowance < value) {... */\n      iszero\n      tag_139\n      jumpi\n        /* \"@openzeppelin/contracts/token/ERC20/ERC20.sol\":10618:10625  spender */\n      dup3\n        /* \"@openzeppelin/contracts/token/ERC20/ERC20.sol\":10627:10643  currentAllowance */\n      dup2\n        /* \"@openzeppelin/contracts/token/ERC20/ERC20.sol\":10645:10650  value */\n      dup4\n        /* \"@openzeppelin/contracts/token/ERC20/ERC20.sol\":10591:10651  ERC20InsufficientAllowance(spender, currentAllowance, value) */\n      mload(0x40)\n      0xfb8f41b200000000000000000000000000000000000000000000000000000000\n      dup2\n      mstore\n      0x04\n      add\n      tag_140\n      swap4\n      swap3\n      swap2\n      swap1\n      tag_141\n      jump\t// in\n    tag_140:\n      mload(0x40)\n      dup1\n      swap2\n      sub\n      swap1\n      revert\n        /* \"@openzeppelin/contracts/token/ERC20/ERC20.sol\":10536:10666  if (currentAllowance < value) {... */\n    tag_139:\n        /* \"@openzeppelin/contracts/token/ERC20/ERC20.sol\":10707:10764  _approve(owner, spender, currentAllowance - value, false) */\n      tag_142\n        /* \"@openzeppelin/contracts/token/ERC20/ERC20.sol\":10716:10721  owner */\n      dup5\n        /* \"@openzeppelin/contracts/token/ERC20/ERC20.sol\":10723:10730  spender */\n      dup5\n        /* \"@openzeppelin/contracts/token/ERC20/ERC20.sol\":10751:10756  value */\n      dup5\n        /* \"@openzeppelin/contracts/token/ERC20/ERC20.sol\":10732:10748  currentAllowance */\n      dup5\n        /* \"@openzeppelin/contracts/token/ERC20/ERC20.sol\":10732:10756  currentAllowance - value */\n      sub\n        /* \"@openzeppelin/contracts/token/ERC20/ERC20.sol\":10758:10763  false */\n      0x00\n        /* \"@openzeppelin/contracts/token/ERC20/ERC20.sol\":10707:10715  _approve */\n      tag_135\n        /* \"@openzeppelin/contracts/token/ERC20/ERC20.sol\":10707:10764  _approve(owner, spender, currentAllowance - value, false) */\n      jump\t// in\n    tag_142:\n        /* \"@openzeppelin/contracts/token/ERC20/ERC20.sol\":10480:10789  if (currentAllowance < type(uint256).max) {... */\n    tag_138:\n        /* \"@openzeppelin/contracts/token/ERC20/ERC20.sol\":10408:10795  {... */\n      pop\n        /* \"@openzeppelin/contracts/token/ERC20/ERC20.sol\":10319:10795  function _spendAllowance(address owner, address spender, uint256 value) internal virtual {... */\n      pop\n      pop\n      pop\n      jump\t// out\n        /* \"@openzeppelin/contracts/token/ERC20/ERC20.sol\":5297:5597  function _transfer(address from, address to, uint256 value) internal {... */\n    tag_106:\n        /* \"@openzeppelin/contracts/token/ERC20/ERC20.sol\":5396:5397  0 */\n      0x00\n        /* \"@openzeppelin/contracts/token/ERC20/ERC20.sol\":5380:5398  from == address(0) */\n      0xffffffffffffffffffffffffffffffffffffffff\n      and\n        /* \"@openzeppelin/contracts/token/ERC20/ERC20.sol\":5380:5384  from */\n      dup4\n        /* \"@openzeppelin/contracts/token/ERC20/ERC20.sol\":5380:5398  from == address(0) */\n      0xffffffffffffffffffffffffffffffffffffffff\n      and\n      sub\n        /* \"@openzeppelin/contracts/token/ERC20/ERC20.sol\":5376:5462  if (from == address(0)) {... */\n      tag_144\n      jumpi\n        /* \"@openzeppelin/contracts/token/ERC20/ERC20.sol\":5448:5449  0 */\n      0x00\n        /* \"@openzeppelin/contracts/token/ERC20/ERC20.sol\":5421:5451  ERC20InvalidSender(address(0)) */\n      mload(0x40)\n      0x96c6fd1e00000000000000000000000000000000000000000000000000000000\n      dup2\n      mstore\n      0x04\n      add\n      tag_145\n      swap2\n      swap1\n      tag_56\n      jump\t// in\n    tag_145:\n      mload(0x40)\n      dup1\n      swap2\n      sub\n      swap1\n      revert\n        /* \"@openzeppelin/contracts/token/ERC20/ERC20.sol\":5376:5462  if (from == address(0)) {... */\n    tag_144:\n        /* \"@openzeppelin/contracts/token/ERC20/ERC20.sol\":5489:5490  0 */\n      0x00\n        /* \"@openzeppelin/contracts/token/ERC20/ERC20.sol\":5475:5491  to == address(0) */\n      0xffffffffffffffffffffffffffffffffffffffff\n      and\n        /* \"@openzeppelin/contracts/token/ERC20/ERC20.sol\":5475:5477  to */\n      dup3\n        /* \"@openzeppelin/contracts/token/ERC20/ERC20.sol\":5475:5491  to == address(0) */\n      0xffffffffffffffffffffffffffffffffffffffff\n      and\n      sub\n        /* \"@openzeppelin/contracts/token/ERC20/ERC20.sol\":5471:5557  if (to == address(0)) {... */\n      tag_146\n      jumpi\n        /* \"@openzeppelin/contracts/token/ERC20/ERC20.sol\":5543:5544  0 */\n      0x00\n        /* \"@openzeppelin/contracts/token/ERC20/ERC20.sol\":5514:5546  ERC20InvalidReceiver(address(0)) */\n      mload(0x40)\n      0xec442f0500000000000000000000000000000000000000000000000000000000\n      dup2\n      mstore\n      0x04\n      add\n      tag_147\n      swap2\n      swap1\n      tag_56\n      jump\t// in\n    tag_147:\n      mload(0x40)\n      dup1\n      swap2\n      sub\n      swap1\n      revert\n        /* \"@openzeppelin/contracts/token/ERC20/ERC20.sol\":5471:5557  if (to == address(0)) {... */\n    tag_146:\n        /* \"@openzeppelin/contracts/token/ERC20/ERC20.sol\":5566:5590  _update(from, to, value) */\n      tag_148\n        /* \"@openzeppelin/contracts/token/ERC20/ERC20.sol\":5574:5578  from */\n      dup4\n        /* \"@openzeppelin/contracts/token/ERC20/ERC20.sol\":5580:5582  to */\n      dup4\n        /* \"@openzeppelin/contracts/token/ERC20/ERC20.sol\":5584:5589  value */\n      dup4\n        /* \"@openzeppelin/contracts/token/ERC20/ERC20.sol\":5566:5573  _update */\n      tag_149\n        /* \"@openzeppelin/contracts/token/ERC20/ERC20.sol\":5566:5590  _update(from, to, value) */\n      jump\t// in\n    tag_148:\n        /* \"@openzeppelin/contracts/token/ERC20/ERC20.sol\":5297:5597  function _transfer(address from, address to, uint256 value) internal {... */\n      pop\n      pop\n      pop\n      jump\t// out\n        /* \"@openzeppelin/contracts/token/ERC20/ERC20.sol\":7362:7570  function _mint(address account, uint256 value) internal {... */\n    tag_114:\n        /* \"@openzeppelin/contracts/token/ERC20/ERC20.sol\":7451:7452  0 */\n      0x00\n        /* \"@openzeppelin/contracts/token/ERC20/ERC20.sol\":7432:7453  account == address(0) */\n      0xffffffffffffffffffffffffffffffffffffffff\n      and\n        /* \"@openzeppelin/contracts/token/ERC20/ERC20.sol\":7432:7439  account */\n      dup3\n        /* \"@openzeppelin/contracts/token/ERC20/ERC20.sol\":7432:7453  account == address(0) */\n      0xffffffffffffffffffffffffffffffffffffffff\n      and\n      sub\n        /* \"@openzeppelin/contracts/token/ERC20/ERC20.sol\":7428:7519  if (account == address(0)) {... */\n      tag_151\n      jumpi\n        /* \"@openzeppelin/contracts/token/ERC20/ERC20.sol\":7505:7506  0 */\n      0x00\n        /* \"@openzeppelin/contracts/token/ERC20/ERC20.sol\":7476:7508  ERC20InvalidReceiver(address(0)) */\n      mload(0x40)\n      0xec442f0500000000000000000000000000000000000000000000000000000000\n      dup2\n      mstore\n      0x04\n      add\n      tag_152\n      swap2\n      swap1\n      tag_56\n      jump\t// in\n    tag_152:\n      mload(0x40)\n      dup1\n      swap2\n      sub\n      swap1\n      revert\n        /* \"@openzeppelin/contracts/token/ERC20/ERC20.sol\":7428:7519  if (account == address(0)) {... */\n    tag_151:\n        /* \"@openzeppelin/contracts/token/ERC20/ERC20.sol\":7528:7563  _update(address(0), account, value) */\n      tag_153\n        /* \"@openzeppelin/contracts/token/ERC20/ERC20.sol\":7544:7545  0 */\n      0x00\n        /* \"@openzeppelin/contracts/token/ERC20/ERC20.sol\":7548:7555  account */\n      dup4\n        /* \"@openzeppelin/contracts/token/ERC20/ERC20.sol\":7557:7562  value */\n      dup4\n        /* \"@openzeppelin/contracts/token/ERC20/ERC20.sol\":7528:7535  _update */\n      tag_149\n        /* \"@openzeppelin/contracts/token/ERC20/ERC20.sol\":7528:7563  _update(address(0), account, value) */\n      jump\t// in\n    tag_153:\n        /* \"@openzeppelin/contracts/token/ERC20/ERC20.sol\":7362:7570  function _mint(address account, uint256 value) internal {... */\n      pop\n      pop\n      jump\t// out\n        /* \"@openzeppelin/contracts/token/ERC20/ERC20.sol\":7888:8094  function _burn(address account, uint256 value) internal {... */\n    tag_127:\n        /* \"@openzeppelin/contracts/token/ERC20/ERC20.sol\":7977:7978  0 */\n      0x00\n        /* \"@openzeppelin/contracts/token/ERC20/ERC20.sol\":7958:7979  account == address(0) */\n      0xffffffffffffffffffffffffffffffffffffffff\n      and\n        /* \"@openzeppelin/contracts/token/ERC20/ERC20.sol\":7958:7965  account */\n      dup3\n        /* \"@openzeppelin/contracts/token/ERC20/ERC20.sol\":7958:7979  account == address(0) */\n      0xffffffffffffffffffffffffffffffffffffffff\n      and\n      sub\n        /* \"@openzeppelin/contracts/token/ERC20/ERC20.sol\":7954:8043  if (account == address(0)) {... */\n      tag_155\n      jumpi\n        /* \"@openzeppelin/contracts/token/ERC20/ERC20.sol\":8029:8030  0 */\n      0x00\n        /* \"@openzeppelin/contracts/token/ERC20/ERC20.sol\":8002:8032  ERC20InvalidSender(address(0)) */\n      mload(0x40)\n      0x96c6fd1e00000000000000000000000000000000000000000000000000000000\n      dup2\n      mstore\n      0x04\n      add\n      tag_156\n      swap2\n      swap1\n      tag_56\n      jump\t// in\n    tag_156:\n      mload(0x40)\n      dup1\n      swap2\n      sub\n      swap1\n      revert\n        /* \"@openzeppelin/contracts/token/ERC20/ERC20.sol\":7954:8043  if (account == address(0)) {... */\n    tag_155:\n        /* \"@openzeppelin/contracts/token/ERC20/ERC20.sol\":8052:8087  _update(account, address(0), value) */\n      tag_157\n        /* \"@openzeppelin/contracts/token/ERC20/ERC20.sol\":8060:8067  account */\n      dup3\n        /* \"@openzeppelin/contracts/token/ERC20/ERC20.sol\":8077:8078  0 */\n      0x00\n        /* \"@openzeppelin/contracts/token/ERC20/ERC20.sol\":8081:8086  value */\n      dup4\n        /* \"@openzeppelin/contracts/token/ERC20/ERC20.sol\":8052:8059  _update */\n      tag_149\n        /* \"@openzeppelin/contracts/token/ERC20/ERC20.sol\":8052:8087  _update(account, address(0), value) */\n      jump\t// in\n    tag_157:\n        /* \"@openzeppelin/contracts/token/ERC20/ERC20.sol\":7888:8094  function _burn(address account, uint256 value) internal {... */\n      pop\n      pop\n      jump\t// out\n        /* \"@openzeppelin/contracts/token/ERC20/ERC20.sol\":9605:10037  function _approve(address owner, address spender, uint256 value, bool emitEvent) internal virtual {... */\n    tag_135:\n        /* \"@openzeppelin/contracts/token/ERC20/ERC20.sol\":9734:9735  0 */\n      0x00\n        /* \"@openzeppelin/contracts/token/ERC20/ERC20.sol\":9717:9736  owner == address(0) */\n      0xffffffffffffffffffffffffffffffffffffffff\n      and\n        /* \"@openzeppelin/contracts/token/ERC20/ERC20.sol\":9717:9722  owner */\n      dup5\n        /* \"@openzeppelin/contracts/token/ERC20/ERC20.sol\":9717:9736  owner == address(0) */\n      0xffffffffffffffffffffffffffffffffffffffff\n      and\n      sub\n        /* \"@openzeppelin/contracts/token/ERC20/ERC20.sol\":9713:9802  if (owner == address(0)) {... */\n      tag_159\n      jumpi\n        /* \"@openzeppelin/contracts/token/ERC20/ERC20.sol\":9788:9789  0 */\n      0x00\n        /* \"@openzeppelin/contracts/token/ERC20/ERC20.sol\":9759:9791  ERC20InvalidApprover(address(0)) */\n      mload(0x40)\n      0xe602df0500000000000000000000000000000000000000000000000000000000\n      dup2\n      mstore\n      0x04\n      add\n      tag_160\n      swap2\n      swap1\n      tag_56\n      jump\t// in\n    tag_160:\n      mload(0x40)\n      dup1\n      swap2\n      sub\n      swap1\n      revert\n        /* \"@openzeppelin/contracts/token/ERC20/ERC20.sol\":9713:9802  if (owner == address(0)) {... */\n    tag_159:\n        /* \"@openzeppelin/contracts/token/ERC20/ERC20.sol\":9834:9835  0 */\n      0x00\n        /* \"@openzeppelin/contracts/token/ERC20/ERC20.sol\":9815:9836  spender == address(0) */\n      0xffffffffffffffffffffffffffffffffffffffff\n      and\n        /* \"@openzeppelin/contracts/token/ERC20/ERC20.sol\":9815:9822  spender */\n      dup4\n        /* \"@openzeppelin/contracts/token/ERC20/ERC20.sol\":9815:9836  spender == address(0) */\n      0xffffffffffffffffffffffffffffffffffffffff\n      and\n      sub\n        /* \"@openzeppelin/contracts/token/ERC20/ERC20.sol\":9811:9901  if (spender == address(0)) {... */\n      tag_161\n      jumpi\n        /* \"@openzeppelin/contracts/token/ERC20/ERC20.sol\":9887:9888  0 */\n      0x00\n        /* \"@openzeppelin/contracts/token/ERC20/ERC20.sol\":9859:9890  ERC20InvalidSpender(address(0)) */\n      mload(0x40)\n      0x94280d6200000000000000000000000000000000000000000000000000000000\n      dup2\n      mstore\n      0x04\n      add\n      tag_162\n      swap2\n      swap1\n      tag_56\n      jump\t// in\n    tag_162:\n      mload(0x40)\n      dup1\n      swap2\n      sub\n      swap1\n      revert\n        /* \"@openzeppelin/contracts/token/ERC20/ERC20.sol\":9811:9901  if (spender == address(0)) {... */\n    tag_161:\n        /* \"@openzeppelin/contracts/token/ERC20/ERC20.sol\":9940:9945  value */\n      dup2\n        /* \"@openzeppelin/contracts/token/ERC20/ERC20.sol\":9910:9921  _allowances */\n      0x01\n        /* \"@openzeppelin/contracts/token/ERC20/ERC20.sol\":9910:9928  _allowances[owner] */\n      0x00\n        /* \"@openzeppelin/contracts/token/ERC20/ERC20.sol\":9922:9927  owner */\n      dup7\n        /* \"@openzeppelin/contracts/token/ERC20/ERC20.sol\":9910:9928  _allowances[owner] */\n      0xffffffffffffffffffffffffffffffffffffffff\n      and\n      0xffffffffffffffffffffffffffffffffffffffff\n      and\n      dup2\n      mstore\n      0x20\n      add\n      swap1\n      dup2\n      mstore\n      0x20\n      add\n      0x00\n      keccak256\n        /* \"@openzeppelin/contracts/token/ERC20/ERC20.sol\":9910:9937  _allowances[owner][spender] */\n      0x00\n        /* \"@openzeppelin/contracts/token/ERC20/ERC20.sol\":9929:9936  spender */\n      dup6\n        /* \"@openzeppelin/contracts/token/ERC20/ERC20.sol\":9910:9937  _allowances[owner][spender] */\n      0xffffffffffffffffffffffffffffffffffffffff\n      and\n      0xffffffffffffffffffffffffffffffffffffffff\n      and\n      dup2\n      mstore\n      0x20\n      add\n      swap1\n      dup2\n      mstore\n      0x20\n      add\n      0x00\n      keccak256\n        /* \"@openzeppelin/contracts/token/ERC20/ERC20.sol\":9910:9945  _allowances[owner][spender] = value */\n      dup2\n      swap1\n      sstore\n      pop\n        /* \"@openzeppelin/contracts/token/ERC20/ERC20.sol\":9959:9968  emitEvent */\n      dup1\n        /* \"@openzeppelin/contracts/token/ERC20/ERC20.sol\":9955:10031  if (emitEvent) {... */\n      iszero\n      tag_163\n      jumpi\n        /* \"@openzeppelin/contracts/token/ERC20/ERC20.sol\":10005:10012  spender */\n      dup3\n        /* \"@openzeppelin/contracts/token/ERC20/ERC20.sol\":9989:10020  Approval(owner, spender, value) */\n      0xffffffffffffffffffffffffffffffffffffffff\n      and\n        /* \"@openzeppelin/contracts/token/ERC20/ERC20.sol\":9998:10003  owner */\n      dup5\n        /* \"@openzeppelin/contracts/token/ERC20/ERC20.sol\":9989:10020  Approval(owner, spender, value) */\n      0xffffffffffffffffffffffffffffffffffffffff\n      and\n      0x8c5be1e5ebec7d5bd14f71427d1e84f3dd0314c0f7b2291e5b200ac8c7c3b925\n        /* \"@openzeppelin/contracts/token/ERC20/ERC20.sol\":10014:10019  value */\n      dup5\n        /* \"@openzeppelin/contracts/token/ERC20/ERC20.sol\":9989:10020  Approval(owner, spender, value) */\n      mload(0x40)\n      tag_164\n      swap2\n      swap1\n      tag_40\n      jump\t// in\n    tag_164:\n      mload(0x40)\n      dup1\n      swap2\n      sub\n      swap1\n      log3\n        /* \"@openzeppelin/contracts/token/ERC20/ERC20.sol\":9955:10031  if (emitEvent) {... */\n    tag_163:\n        /* \"@openzeppelin/contracts/token/ERC20/ERC20.sol\":9605:10037  function _approve(address owner, address spender, uint256 value, bool emitEvent) internal virtual {... */\n      pop\n      pop\n      pop\n      pop\n      jump\t// out\n        /* \"@openzeppelin/contracts/token/ERC20/ERC20.sol\":5912:7019  function _update(address from, address to, uint256 value) internal virtual {... */\n    tag_149:\n        /* \"@openzeppelin/contracts/token/ERC20/ERC20.sol\":6017:6018  0 */\n      0x00\n        /* \"@openzeppelin/contracts/token/ERC20/ERC20.sol\":6001:6019  from == address(0) */\n      0xffffffffffffffffffffffffffffffffffffffff\n      and\n        /* \"@openzeppelin/contracts/token/ERC20/ERC20.sol\":6001:6005  from */\n      dup4\n        /* \"@openzeppelin/contracts/token/ERC20/ERC20.sol\":6001:6019  from == address(0) */\n      0xffffffffffffffffffffffffffffffffffffffff\n      and\n      sub\n        /* \"@openzeppelin/contracts/token/ERC20/ERC20.sol\":5997:6537  if (from == address(0)) {... */\n      tag_166\n      jumpi\n        /* \"@openzeppelin/contracts/token/ERC20/ERC20.sol\":6153:6158  value */\n      dup1\n        /* \"@openzeppelin/contracts/token/ERC20/ERC20.sol\":6137:6149  _totalSupply */\n      0x02\n      0x00\n        /* \"@openzeppelin/contracts/token/ERC20/ERC20.sol\":6137:6158  _totalSupply += value */\n      dup3\n      dup3\n      sload\n      tag_167\n      swap2\n      swap1\n      tag_168\n      jump\t// in\n    tag_167:\n      swap3\n      pop\n      pop\n      dup2\n      swap1\n      sstore\n      pop\n        /* \"@openzeppelin/contracts/token/ERC20/ERC20.sol\":5997:6537  if (from == address(0)) {... */\n      jump(tag_169)\n    tag_166:\n        /* \"@openzeppelin/contracts/token/ERC20/ERC20.sol\":6189:6208  uint256 fromBalance */\n      0x00\n        /* \"@openzeppelin/contracts/token/ERC20/ERC20.sol\":6211:6220  _balances */\n      0x00\n        /* \"@openzeppelin/contracts/token/ERC20/ERC20.sol\":6211:6226  _balances[from] */\n      0x00\n        /* \"@openzeppelin/contracts/token/ERC20/ERC20.sol\":6221:6225  from */\n      dup6\n        /* \"@openzeppelin/contracts/token/ERC20/ERC20.sol\":6211:6226  _balances[from] */\n      0xffffffffffffffffffffffffffffffffffffffff\n      and\n      0xffffffffffffffffffffffffffffffffffffffff\n      and\n      dup2\n      mstore\n      0x20\n      add\n      swap1\n      dup2\n      mstore\n      0x20\n      add\n      0x00\n      keccak256\n      sload\n        /* \"@openzeppelin/contracts/token/ERC20/ERC20.sol\":6189:6226  uint256 fromBalance = _balances[from] */\n      swap1\n      pop\n        /* \"@openzeppelin/contracts/token/ERC20/ERC20.sol\":6258:6263  value */\n      dup2\n        /* \"@openzeppelin/contracts/token/ERC20/ERC20.sol\":6244:6255  fromBalance */\n      dup2\n        /* \"@openzeppelin/contracts/token/ERC20/ERC20.sol\":6244:6263  fromBalance < value */\n      lt\n        /* \"@openzeppelin/contracts/token/ERC20/ERC20.sol\":6240:6355  if (fromBalance < value) {... */\n      iszero\n      tag_170\n      jumpi\n        /* \"@openzeppelin/contracts/token/ERC20/ERC20.sol\":6315:6319  from */\n      dup4\n        /* \"@openzeppelin/contracts/token/ERC20/ERC20.sol\":6321:6332  fromBalance */\n      dup2\n        /* \"@openzeppelin/contracts/token/ERC20/ERC20.sol\":6334:6339  value */\n      dup4\n        /* \"@openzeppelin/contracts/token/ERC20/ERC20.sol\":6290:6340  ERC20InsufficientBalance(from, fromBalance, value) */\n      mload(0x40)\n      0xe450d38c00000000000000000000000000000000000000000000000000000000\n      dup2\n      mstore\n      0x04\n      add\n      tag_171\n      swap4\n      swap3\n      swap2\n      swap1\n      tag_141\n      jump\t// in\n    tag_171:\n      mload(0x40)\n      dup1\n      swap2\n      sub\n      swap1\n      revert\n        /* \"@openzeppelin/contracts/token/ERC20/ERC20.sol\":6240:6355  if (fromBalance < value) {... */\n    tag_170:\n        /* \"@openzeppelin/contracts/token/ERC20/ERC20.sol\":6507:6512  value */\n      dup2\n        /* \"@openzeppelin/contracts/token/ERC20/ERC20.sol\":6493:6504  fromBalance */\n      dup2\n        /* \"@openzeppelin/contracts/token/ERC20/ERC20.sol\":6493:6512  fromBalance - value */\n      sub\n        /* \"@openzeppelin/contracts/token/ERC20/ERC20.sol\":6475:6484  _balances */\n      0x00\n        /* \"@openzeppelin/contracts/token/ERC20/ERC20.sol\":6475:6490  _balances[from] */\n      0x00\n        /* \"@openzeppelin/contracts/token/ERC20/ERC20.sol\":6485:6489  from */\n      dup7\n        /* \"@openzeppelin/contracts/token/ERC20/ERC20.sol\":6475:6490  _balances[from] */\n      0xffffffffffffffffffffffffffffffffffffffff\n      and\n      0xffffffffffffffffffffffffffffffffffffffff\n      and\n      dup2\n      mstore\n      0x20\n      add\n      swap1\n      dup2\n      mstore\n      0x20\n      add\n      0x00\n      keccak256\n        /* \"@openzeppelin/contracts/token/ERC20/ERC20.sol\":6475:6512  _balances[from] = fromBalance - value */\n      dup2\n      swap1\n      sstore\n      pop\n        /* \"@openzeppelin/contracts/token/ERC20/ERC20.sol\":6175:6537  {... */\n      pop\n        /* \"@openzeppelin/contracts/token/ERC20/ERC20.sol\":5997:6537  if (from == address(0)) {... */\n    tag_169:\n        /* \"@openzeppelin/contracts/token/ERC20/ERC20.sol\":6565:6566  0 */\n      0x00\n        /* \"@openzeppelin/contracts/token/ERC20/ERC20.sol\":6551:6567  to == address(0) */\n      0xffffffffffffffffffffffffffffffffffffffff\n      and\n        /* \"@openzeppelin/contracts/token/ERC20/ERC20.sol\":6551:6553  to */\n      dup3\n        /* \"@openzeppelin/contracts/token/ERC20/ERC20.sol\":6551:6567  to == address(0) */\n      0xffffffffffffffffffffffffffffffffffffffff\n      and\n      sub\n        /* \"@openzeppelin/contracts/token/ERC20/ERC20.sol\":6547:6972  if (to == address(0)) {... */\n      tag_172\n      jumpi\n        /* \"@openzeppelin/contracts/token/ERC20/ERC20.sol\":6730:6735  value */\n      dup1\n        /* \"@openzeppelin/contracts/token/ERC20/ERC20.sol\":6714:6726  _totalSupply */\n      0x02\n      0x00\n        /* \"@openzeppelin/contracts/token/ERC20/ERC20.sol\":6714:6735  _totalSupply -= value */\n      dup3\n      dup3\n      sload\n      sub\n      swap3\n      pop\n      pop\n      dup2\n      swap1\n      sstore\n      pop\n        /* \"@openzeppelin/contracts/token/ERC20/ERC20.sol\":6547:6972  if (to == address(0)) {... */\n      jump(tag_173)\n    tag_172:\n        /* \"@openzeppelin/contracts/token/ERC20/ERC20.sol\":6942:6947  value */\n      dup1\n        /* \"@openzeppelin/contracts/token/ERC20/ERC20.sol\":6925:6934  _balances */\n      0x00\n        /* \"@openzeppelin/contracts/token/ERC20/ERC20.sol\":6925:6938  _balances[to] */\n      0x00\n        /* \"@openzeppelin/contracts/token/ERC20/ERC20.sol\":6935:6937  to */\n      dup5\n        /* \"@openzeppelin/contracts/token/ERC20/ERC20.sol\":6925:6938  _balances[to] */\n      0xffffffffffffffffffffffffffffffffffffffff\n      and\n      0xffffffffffffffffffffffffffffffffffffffff\n      and\n      dup2\n      mstore\n      0x20\n      add\n      swap1\n      dup2\n      mstore\n      0x20\n      add\n      0x00\n      keccak256\n      0x00\n        /* \"@openzeppelin/contracts/token/ERC20/ERC20.sol\":6925:6947  _balances[to] += value */\n      dup3\n      dup3\n      sload\n      add\n      swap3\n      pop\n      pop\n      dup2\n      swap1\n      sstore\n      pop\n        /* \"@openzeppelin/contracts/token/ERC20/ERC20.sol\":6547:6972  if (to == address(0)) {... */\n    tag_173:\n        /* \"@openzeppelin/contracts/token/ERC20/ERC20.sol\":7002:7004  to */\n      dup2\n        /* \"@openzeppelin/contracts/token/ERC20/ERC20.sol\":6987:7012  Transfer(from, to, value) */\n      0xffffffffffffffffffffffffffffffffffffffff\n      and\n        /* \"@openzeppelin/contracts/token/ERC20/ERC20.sol\":6996:7000  from */\n      dup4\n        /* \"@openzeppelin/contracts/token/ERC20/ERC20.sol\":6987:7012  Transfer(from, to, value) */\n      0xffffffffffffffffffffffffffffffffffffffff\n      and\n      0xddf252ad1be2c89b69c2b068fc378daa952ba7f163c4a11628f55a4df523b3ef\n        /* \"@openzeppelin/contracts/token/ERC20/ERC20.sol\":7006:7011  value */\n      dup4\n        /* \"@openzeppelin/contracts/token/ERC20/ERC20.sol\":6987:7012  Transfer(from, to, value) */\n      mload(0x40)\n      tag_174\n      swap2\n      swap1\n      tag_40\n      jump\t// in\n    tag_174:\n      mload(0x40)\n      dup1\n      swap2\n      sub\n      swap1\n      log3\n        /* \"@openzeppelin/contracts/token/ERC20/ERC20.sol\":5912:7019  function _update(address from, address to, uint256 value) internal virtual {... */\n      pop\n      pop\n      pop\n      jump\t// out\n        /* \"#utility.yul\":7:106   */\n    tag_175:\n        /* \"#utility.yul\":59:65   */\n      0x00\n        /* \"#utility.yul\":93:98   */\n      dup2\n        /* \"#utility.yul\":87:99   */\n      mload\n        /* \"#utility.yul\":77:99   */\n      swap1\n      pop\n        /* \"#utility.yul\":7:106   */\n      swap2\n      swap1\n      pop\n      jump\t// out\n        /* \"#utility.yul\":112:281   */\n    tag_176:\n        /* \"#utility.yul\":196:207   */\n      0x00\n        /* \"#utility.yul\":230:236   */\n      dup3\n        /* \"#utility.yul\":225:228   */\n      dup3\n        /* \"#utility.yul\":218:237   */\n      mstore\n        /* \"#utility.yul\":270:274   */\n      0x20\n        /* \"#utility.yul\":265:268   */\n      dup3\n        /* \"#utility.yul\":261:275   */\n      add\n        /* \"#utility.yul\":246:275   */\n      swap1\n      pop\n        /* \"#utility.yul\":112:281   */\n      swap3\n      swap2\n      pop\n      pop\n      jump\t// out\n        /* \"#utility.yul\":287:426   */\n    tag_177:\n        /* \"#utility.yul\":376:382   */\n      dup3\n        /* \"#utility.yul\":371:374   */\n      dup2\n        /* \"#utility.yul\":366:369   */\n      dup4\n        /* \"#utility.yul\":360:383   */\n      mcopy\n        /* \"#utility.yul\":417:418   */\n      0x00\n        /* \"#utility.yul\":408:414   */\n      dup4\n        /* \"#utility.yul\":403:406   */\n      dup4\n        /* \"#utility.yul\":399:415   */\n      add\n        /* \"#utility.yul\":392:419   */\n      mstore\n        /* \"#utility.yul\":287:426   */\n      pop\n      pop\n      pop\n      jump\t// out\n        /* \"#utility.yul\":432:534   */\n    tag_178:\n        /* \"#utility.yul\":473:479   */\n      0x00\n        /* \"#utility.yul\":524:526   */\n      0x1f\n        /* \"#utility.yul\":520:527   */\n      not\n        /* \"#utility.yul\":515:517   */\n      0x1f\n        /* \"#utility.yul\":508:513   */\n      dup4\n        /* \"#utility.yul\":504:518   */\n      add\n        /* \"#utility.yul\":500:528   */\n      and\n        /* \"#utility.yul\":490:528   */\n      swap1\n      pop\n        /* \"#utility.yul\":432:534   */\n      swap2\n      swap1\n      pop\n      jump\t// out\n        /* \"#utility.yul\":540:917   */\n    tag_179:\n        /* \"#utility.yul\":628:631   */\n      0x00\n        /* \"#utility.yul\":656:695   */\n      tag_234\n        /* \"#utility.yul\":689:694   */\n      dup3\n        /* \"#utility.yul\":656:695   */\n      tag_175\n      jump\t// in\n    tag_234:\n        /* \"#utility.yul\":711:782   */\n      tag_235\n        /* \"#utility.yul\":775:781   */\n      dup2\n        /* \"#utility.yul\":770:773   */\n      dup6\n        /* \"#utility.yul\":711:782   */\n      tag_176\n      jump\t// in\n    tag_235:\n        /* \"#utility.yul\":704:782   */\n      swap4\n      pop\n        /* \"#utility.yul\":791:856   */\n      tag_236\n        /* \"#utility.yul\":849:855   */\n      dup2\n        /* \"#utility.yul\":844:847   */\n      dup6\n        /* \"#utility.yul\":837:841   */\n      0x20\n        /* \"#utility.yul\":830:835   */\n      dup7\n        /* \"#utility.yul\":826:842   */\n      add\n        /* \"#utility.yul\":791:856   */\n      tag_177\n      jump\t// in\n    tag_236:\n        /* \"#utility.yul\":881:910   */\n      tag_237\n        /* \"#utility.yul\":903:909   */\n      dup2\n        /* \"#utility.yul\":881:910   */\n      tag_178\n      jump\t// in\n    tag_237:\n        /* \"#utility.yul\":876:879   */\n      dup5\n        /* \"#utility.yul\":872:911   */\n      add\n        /* \"#utility.yul\":865:911   */\n      swap2\n      pop\n        /* \"#utility.yul\":632:917   */\n      pop\n        /* \"#utility.yul\":540:917   */\n      swap3\n      swap2\n      pop\n      pop\n      jump\t// out\n        /* \"#utility.yul\":923:1236   */\n    tag_23:\n        /* \"#utility.yul\":1036:1040   */\n      0x00\n        /* \"#utility.yul\":1074:1076   */\n      0x20\n        /* \"#utility.yul\":1063:1072   */\n      dup3\n        /* \"#utility.yul\":1059:1077   */\n      add\n        /* \"#utility.yul\":1051:1077   */\n      swap1\n      pop\n        /* \"#utility.yul\":1123:1132   */\n      dup2\n        /* \"#utility.yul\":1117:1121   */\n      dup2\n        /* \"#utility.yul\":1113:1133   */\n      sub\n        /* \"#utility.yul\":1109:1110   */\n      0x00\n        /* \"#utility.yul\":1098:1107   */\n      dup4\n        /* \"#utility.yul\":1094:1111   */\n      add\n        /* \"#utility.yul\":1087:1134   */\n      mstore\n        /* \"#utility.yul\":1151:1229   */\n      tag_239\n        /* \"#utility.yul\":1224:1228   */\n      dup2\n        /* \"#utility.yul\":1215:1221   */\n      dup5\n        /* \"#utility.yul\":1151:1229   */\n      tag_179\n      jump\t// in\n    tag_239:\n        /* \"#utility.yul\":1143:1229   */\n      swap1\n      pop\n        /* \"#utility.yul\":923:1236   */\n      swap3\n      swap2\n      pop\n      pop\n      jump\t// out\n        /* \"#utility.yul\":1242:1317   */\n    tag_180:\n        /* \"#utility.yul\":1275:1281   */\n      0x00\n        /* \"#utility.yul\":1308:1310   */\n      0x40\n        /* \"#utility.yul\":1302:1311   */\n      mload\n        /* \"#utility.yul\":1292:1311   */\n      swap1\n      pop\n        /* \"#utility.yul\":1242:1317   */\n      swap1\n      jump\t// out\n        /* \"#utility.yul\":1323:1440   */\n    tag_181:\n        /* \"#utility.yul\":1432:1433   */\n      0x00\n        /* \"#utility.yul\":1429:1430   */\n      0x00\n        /* \"#utility.yul\":1422:1434   */\n      revert\n        /* \"#utility.yul\":1446:1563   */\n    tag_182:\n        /* \"#utility.yul\":1555:1556   */\n      0x00\n        /* \"#utility.yul\":1552:1553   */\n      0x00\n        /* \"#utility.yul\":1545:1557   */\n      revert\n        /* \"#utility.yul\":1569:1686   */\n    tag_183:\n        /* \"#utility.yul\":1678:1679   */\n      0x00\n        /* \"#utility.yul\":1675:1676   */\n      0x00\n        /* \"#utility.yul\":1668:1680   */\n      revert\n        /* \"#utility.yul\":1692:1809   */\n    tag_184:\n        /* \"#utility.yul\":1801:1802   */\n      0x00\n        /* \"#utility.yul\":1798:1799   */\n      0x00\n        /* \"#utility.yul\":1791:1803   */\n      revert\n        /* \"#utility.yul\":1815:1995   */\n    tag_185:\n        /* \"#utility.yul\":1863:1940   */\n      0x4e487b7100000000000000000000000000000000000000000000000000000000\n        /* \"#utility.yul\":1860:1861   */\n      0x00\n        /* \"#utility.yul\":1853:1941   */\n      mstore\n        /* \"#utility.yul\":1960:1964   */\n      0x41\n        /* \"#utility.yul\":1957:1958   */\n      0x04\n        /* \"#utility.yul\":1950:1965   */\n      mstore\n        /* \"#utility.yul\":1984:1988   */\n      0x24\n        /* \"#utility.yul\":1981:1982   */\n      0x00\n        /* \"#utility.yul\":1974:1989   */\n      revert\n        /* \"#utility.yul\":2001:2282   */\n    tag_186:\n        /* \"#utility.yul\":2084:2111   */\n      tag_247\n        /* \"#utility.yul\":2106:2110   */\n      dup3\n        /* \"#utility.yul\":2084:2111   */\n      tag_178\n      jump\t// in\n    tag_247:\n        /* \"#utility.yul\":2076:2082   */\n      dup2\n        /* \"#utility.yul\":2072:2112   */\n      add\n        /* \"#utility.yul\":2214:2220   */\n      dup2\n        /* \"#utility.yul\":2202:2212   */\n      dup2\n        /* \"#utility.yul\":2199:2221   */\n      lt\n        /* \"#utility.yul\":2178:2196   */\n      0xffffffffffffffff\n        /* \"#utility.yul\":2166:2176   */\n      dup3\n        /* \"#utility.yul\":2163:2197   */\n      gt\n        /* \"#utility.yul\":2160:2222   */\n      or\n        /* \"#utility.yul\":2157:2245   */\n      iszero\n      tag_248\n      jumpi\n        /* \"#utility.yul\":2225:2243   */\n      tag_249\n      tag_185\n      jump\t// in\n    tag_249:\n        /* \"#utility.yul\":2157:2245   */\n    tag_248:\n        /* \"#utility.yul\":2265:2275   */\n      dup1\n        /* \"#utility.yul\":2261:2263   */\n      0x40\n        /* \"#utility.yul\":2254:2276   */\n      mstore\n        /* \"#utility.yul\":2044:2282   */\n      pop\n        /* \"#utility.yul\":2001:2282   */\n      pop\n      pop\n      jump\t// out\n        /* \"#utility.yul\":2288:2417   */\n    tag_187:\n        /* \"#utility.yul\":2322:2328   */\n      0x00\n        /* \"#utility.yul\":2349:2369   */\n      tag_251\n      tag_180\n      jump\t// in\n    tag_251:\n        /* \"#utility.yul\":2339:2369   */\n      swap1\n      pop\n        /* \"#utility.yul\":2378:2411   */\n      tag_252\n        /* \"#utility.yul\":2406:2410   */\n      dup3\n        /* \"#utility.yul\":2398:2404   */\n      dup3\n        /* \"#utility.yul\":2378:2411   */\n      tag_186\n      jump\t// in\n    tag_252:\n        /* \"#utility.yul\":2288:2417   */\n      swap2\n      swap1\n      pop\n      jump\t// out\n        /* \"#utility.yul\":2423:2731   */\n    tag_188:\n        /* \"#utility.yul\":2485:2489   */\n      0x00\n        /* \"#utility.yul\":2575:2593   */\n      0xffffffffffffffff\n        /* \"#utility.yul\":2567:2573   */\n      dup3\n        /* \"#utility.yul\":2564:2594   */\n      gt\n        /* \"#utility.yul\":2561:2617   */\n      iszero\n      tag_254\n      jumpi\n        /* \"#utility.yul\":2597:2615   */\n      tag_255\n      tag_185\n      jump\t// in\n    tag_255:\n        /* \"#utility.yul\":2561:2617   */\n    tag_254:\n        /* \"#utility.yul\":2635:2664   */\n      tag_256\n        /* \"#utility.yul\":2657:2663   */\n      dup3\n        /* \"#utility.yul\":2635:2664   */\n      tag_178\n      jump\t// in\n    tag_256:\n        /* \"#utility.yul\":2627:2664   */\n      swap1\n      pop\n        /* \"#utility.yul\":2719:2723   */\n      0x20\n        /* \"#utility.yul\":2713:2717   */\n      dup2\n        /* \"#utility.yul\":2709:2724   */\n      add\n        /* \"#utility.yul\":2701:2724   */\n      swap1\n      pop\n        /* \"#utility.yul\":2423:2731   */\n      swap2\n      swap1\n      pop\n      jump\t// out\n        /* \"#utility.yul\":2737:2885   */\n    tag_189:\n        /* \"#utility.yul\":2835:2841   */\n      dup3\n        /* \"#utility.yul\":2830:2833   */\n      dup2\n        /* \"#utility.yul\":2825:2828   */\n      dup4\n        /* \"#utility.yul\":2812:2842   */\n      calldatacopy\n        /* \"#utility.yul\":2876:2877   */\n      0x00\n        /* \"#utility.yul\":2867:2873   */\n      dup4\n        /* \"#utility.yul\":2862:2865   */\n      dup4\n        /* \"#utility.yul\":2858:2874   */\n      add\n        /* \"#utility.yul\":2851:2878   */\n      mstore\n        /* \"#utility.yul\":2737:2885   */\n      pop\n      pop\n      pop\n      jump\t// out\n        /* \"#utility.yul\":2891:3316   */\n    tag_190:\n        /* \"#utility.yul\":2969:2974   */\n      0x00\n        /* \"#utility.yul\":2994:3060   */\n      tag_259\n        /* \"#utility.yul\":3010:3059   */\n      tag_260\n        /* \"#utility.yul\":3052:3058   */\n      dup5\n        /* \"#utility.yul\":3010:3059   */\n      tag_188\n      jump\t// in\n    tag_260:\n        /* \"#utility.yul\":2994:3060   */\n      tag_187\n      jump\t// in\n    tag_259:\n        /* \"#utility.yul\":2985:3060   */\n      swap1\n      pop\n        /* \"#utility.yul\":3083:3089   */\n      dup3\n        /* \"#utility.yul\":3076:3081   */\n      dup2\n        /* \"#utility.yul\":3069:3090   */\n      mstore\n        /* \"#utility.yul\":3121:3125   */\n      0x20\n        /* \"#utility.yul\":3114:3119   */\n      dup2\n        /* \"#utility.yul\":3110:3126   */\n      add\n        /* \"#utility.yul\":3159:3162   */\n      dup5\n        /* \"#utility.yul\":3150:3156   */\n      dup5\n        /* \"#utility.yul\":3145:3148   */\n      dup5\n        /* \"#utility.yul\":3141:3157   */\n      add\n        /* \"#utility.yul\":3138:3163   */\n      gt\n        /* \"#utility.yul\":3135:3247   */\n      iszero\n      tag_261\n      jumpi\n        /* \"#utility.yul\":3166:3245   */\n      tag_262\n      tag_184\n      jump\t// in\n    tag_262:\n        /* \"#utility.yul\":3135:3247   */\n    tag_261:\n        /* \"#utility.yul\":3256:3310   */\n      tag_263\n        /* \"#utility.yul\":3303:3309   */\n      dup5\n        /* \"#utility.yul\":3298:3301   */\n      dup3\n        /* \"#utility.yul\":3293:3296   */\n      dup6\n        /* \"#utility.yul\":3256:3310   */\n      tag_189\n      jump\t// in\n    tag_263:\n        /* \"#utility.yul\":2975:3316   */\n      pop\n        /* \"#utility.yul\":2891:3316   */\n      swap4\n      swap3\n      pop\n      pop\n      pop\n      jump\t// out\n        /* \"#utility.yul\":3336:3676   */\n    tag_191:\n        /* \"#utility.yul\":3392:3397   */\n      0x00\n        /* \"#utility.yul\":3441:3444   */\n      dup3\n        /* \"#utility.yul\":3434:3438   */\n      0x1f\n        /* \"#utility.yul\":3426:3432   */\n      dup4\n        /* \"#utility.yul\":3422:3439   */\n      add\n        /* \"#utility.yul\":3418:3445   */\n      slt\n        /* \"#utility.yul\":3408:3530   */\n      tag_265\n      jumpi\n        /* \"#utility.yul\":3449:3528   */\n      tag_266\n      tag_183\n      jump\t// in\n    tag_266:\n        /* \"#utility.yul\":3408:3530   */\n    tag_265:\n        /* \"#utility.yul\":3566:3572   */\n      dup2\n        /* \"#utility.yul\":3553:3573   */\n      calldataload\n        /* \"#utility.yul\":3591:3670   */\n      tag_267\n        /* \"#utility.yul\":3666:3669   */\n      dup5\n        /* \"#utility.yul\":3658:3664   */\n      dup3\n        /* \"#utility.yul\":3651:3655   */\n      0x20\n        /* \"#utility.yul\":3643:3649   */\n      dup7\n        /* \"#utility.yul\":3639:3656   */\n      add\n        /* \"#utility.yul\":3591:3670   */\n      tag_190\n      jump\t// in\n    tag_267:\n        /* \"#utility.yul\":3582:3670   */\n      swap2\n      pop\n        /* \"#utility.yul\":3398:3676   */\n      pop\n        /* \"#utility.yul\":3336:3676   */\n      swap3\n      swap2\n      pop\n      pop\n      jump\t// out\n        /* \"#utility.yul\":3682:3808   */\n    tag_192:\n        /* \"#utility.yul\":3719:3726   */\n      0x00\n        /* \"#utility.yul\":3759:3801   */\n      0xffffffffffffffffffffffffffffffffffffffff\n        /* \"#utility.yul\":3752:3757   */\n      dup3\n        /* \"#utility.yul\":3748:3802   */\n      and\n        /* \"#utility.yul\":3737:3802   */\n      swap1\n      pop\n        /* \"#utility.yul\":3682:3808   */\n      swap2\n      swap1\n      pop\n      jump\t// out\n        /* \"#utility.yul\":3814:3910   */\n    tag_193:\n        /* \"#utility.yul\":3851:3858   */\n      0x00\n        /* \"#utility.yul\":3880:3904   */\n      tag_270\n        /* \"#utility.yul\":3898:3903   */\n      dup3\n        /* \"#utility.yul\":3880:3904   */\n      tag_192\n      jump\t// in\n    tag_270:\n        /* \"#utility.yul\":3869:3904   */\n      swap1\n      pop\n        /* \"#utility.yul\":3814:3910   */\n      swap2\n      swap1\n      pop\n      jump\t// out\n        /* \"#utility.yul\":3916:4038   */\n    tag_194:\n        /* \"#utility.yul\":3989:4013   */\n      tag_272\n        /* \"#utility.yul\":4007:4012   */\n      dup2\n        /* \"#utility.yul\":3989:4013   */\n      tag_193\n      jump\t// in\n    tag_272:\n        /* \"#utility.yul\":3982:3987   */\n      dup2\n        /* \"#utility.yul\":3979:4014   */\n      eq\n        /* \"#utility.yul\":3969:4032   */\n      tag_273\n      jumpi\n        /* \"#utility.yul\":4028:4029   */\n      0x00\n        /* \"#utility.yul\":4025:4026   */\n      0x00\n        /* \"#utility.yul\":4018:4030   */\n      revert\n        /* \"#utility.yul\":3969:4032   */\n    tag_273:\n        /* \"#utility.yul\":3916:4038   */\n      pop\n      jump\t// out\n        /* \"#utility.yul\":4044:4183   */\n    tag_195:\n        /* \"#utility.yul\":4090:4095   */\n      0x00\n        /* \"#utility.yul\":4128:4134   */\n      dup2\n        /* \"#utility.yul\":4115:4135   */\n      calldataload\n        /* \"#utility.yul\":4106:4135   */\n      swap1\n      pop\n        /* \"#utility.yul\":4144:4177   */\n      tag_275\n        /* \"#utility.yul\":4171:4176   */\n      dup2\n        /* \"#utility.yul\":4144:4177   */\n      tag_194\n      jump\t// in\n    tag_275:\n        /* \"#utility.yul\":4044:4183   */\n      swap3\n      swap2\n      pop\n      pop\n      jump\t// out\n        /* \"#utility.yul\":4189:5168   */\n    tag_26:\n        /* \"#utility.yul\":4286:4292   */\n      0x00\n        /* \"#utility.yul\":4294:4300   */\n      0x00\n        /* \"#utility.yul\":4302:4308   */\n      0x00\n        /* \"#utility.yul\":4351:4353   */\n      0x60\n        /* \"#utility.yul\":4339:4348   */\n      dup5\n        /* \"#utility.yul\":4330:4337   */\n      dup7\n        /* \"#utility.yul\":4326:4349   */\n      sub\n        /* \"#utility.yul\":4322:4354   */\n      slt\n        /* \"#utility.yul\":4319:4438   */\n      iszero\n      tag_277\n      jumpi\n        /* \"#utility.yul\":4357:4436   */\n      tag_278\n      tag_181\n      jump\t// in\n    tag_278:\n        /* \"#utility.yul\":4319:4438   */\n    tag_277:\n        /* \"#utility.yul\":4505:4506   */\n      0x00\n        /* \"#utility.yul\":4494:4503   */\n      dup5\n        /* \"#utility.yul\":4490:4507   */\n      add\n        /* \"#utility.yul\":4477:4508   */\n      calldataload\n        /* \"#utility.yul\":4535:4553   */\n      0xffffffffffffffff\n        /* \"#utility.yul\":4527:4533   */\n      dup2\n        /* \"#utility.yul\":4524:4554   */\n      gt\n        /* \"#utility.yul\":4521:4638   */\n      iszero\n      tag_279\n      jumpi\n        /* \"#utility.yul\":4557:4636   */\n      tag_280\n      tag_182\n      jump\t// in\n    tag_280:\n        /* \"#utility.yul\":4521:4638   */\n    tag_279:\n        /* \"#utility.yul\":4662:4725   */\n      tag_281\n        /* \"#utility.yul\":4717:4724   */\n      dup7\n        /* \"#utility.yul\":4708:4714   */\n      dup3\n        /* \"#utility.yul\":4697:4706   */\n      dup8\n        /* \"#utility.yul\":4693:4715   */\n      add\n        /* \"#utility.yul\":4662:4725   */\n      tag_191\n      jump\t// in\n    tag_281:\n        /* \"#utility.yul\":4652:4725   */\n      swap4\n      pop\n        /* \"#utility.yul\":4448:4735   */\n      pop\n        /* \"#utility.yul\":4802:4804   */\n      0x20\n        /* \"#utility.yul\":4791:4800   */\n      dup5\n        /* \"#utility.yul\":4787:4805   */\n      add\n        /* \"#utility.yul\":4774:4806   */\n      calldataload\n        /* \"#utility.yul\":4833:4851   */\n      0xffffffffffffffff\n        /* \"#utility.yul\":4825:4831   */\n      dup2\n        /* \"#utility.yul\":4822:4852   */\n      gt\n        /* \"#utility.yul\":4819:4936   */\n      iszero\n      tag_282\n      jumpi\n        /* \"#utility.yul\":4855:4934   */\n      tag_283\n      tag_182\n      jump\t// in\n    tag_283:\n        /* \"#utility.yul\":4819:4936   */\n    tag_282:\n        /* \"#utility.yul\":4960:5023   */\n      tag_284\n        /* \"#utility.yul\":5015:5022   */\n      dup7\n        /* \"#utility.yul\":5006:5012   */\n      dup3\n        /* \"#utility.yul\":4995:5004   */\n      dup8\n        /* \"#utility.yul\":4991:5013   */\n      add\n        /* \"#utility.yul\":4960:5023   */\n      tag_191\n      jump\t// in\n    tag_284:\n        /* \"#utility.yul\":4950:5023   */\n      swap3\n      pop\n        /* \"#utility.yul\":4745:5033   */\n      pop\n        /* \"#utility.yul\":5072:5074   */\n      0x40\n        /* \"#utility.yul\":5098:5151   */\n      tag_285\n        /* \"#utility.yul\":5143:5150   */\n      dup7\n        /* \"#utility.yul\":5134:5140   */\n      dup3\n        /* \"#utility.yul\":5123:5132   */\n      dup8\n        /* \"#utility.yul\":5119:5141   */\n      add\n        /* \"#utility.yul\":5098:5151   */\n      tag_195\n      jump\t// in\n    tag_285:\n        /* \"#utility.yul\":5088:5151   */\n      swap2\n      pop\n        /* \"#utility.yul\":5043:5161   */\n      pop\n        /* \"#utility.yul\":4189:5168   */\n      swap3\n      pop\n      swap3\n      pop\n      swap3\n      jump\t// out\n        /* \"#utility.yul\":5174:5251   */\n    tag_196:\n        /* \"#utility.yul\":5211:5218   */\n      0x00\n        /* \"#utility.yul\":5240:5245   */\n      dup2\n        /* \"#utility.yul\":5229:5245   */\n      swap1\n      pop\n        /* \"#utility.yul\":5174:5251   */\n      swap2\n      swap1\n      pop\n      jump\t// out\n        /* \"#utility.yul\":5257:5379   */\n    tag_197:\n        /* \"#utility.yul\":5330:5354   */\n      tag_288\n        /* \"#utility.yul\":5348:5353   */\n      dup2\n        /* \"#utility.yul\":5330:5354   */\n      tag_196\n      jump\t// in\n    tag_288:\n        /* \"#utility.yul\":5323:5328   */\n      dup2\n        /* \"#utility.yul\":5320:5355   */\n      eq\n        /* \"#utility.yul\":5310:5373   */\n      tag_289\n      jumpi\n        /* \"#utility.yul\":5369:5370   */\n      0x00\n        /* \"#utility.yul\":5366:5367   */\n      0x00\n        /* \"#utility.yul\":5359:5371   */\n      revert\n        /* \"#utility.yul\":5310:5373   */\n    tag_289:\n        /* \"#utility.yul\":5257:5379   */\n      pop\n      jump\t// out\n        /* \"#utility.yul\":5385:5524   */\n    tag_198:\n        /* \"#utility.yul\":5431:5436   */\n      0x00\n        /* \"#utility.yul\":5469:5475   */\n      dup2\n        /* \"#utility.yul\":5456:5476   */\n      calldataload\n        /* \"#utility.yul\":5447:5476   */\n      swap1\n      pop\n        /* \"#utility.yul\":5485:5518   */\n      tag_291\n        /* \"#utility.yul\":5512:5517   */\n      dup2\n        /* \"#utility.yul\":5485:5518   */\n      tag_197\n      jump\t// in\n    tag_291:\n        /* \"#utility.yul\":5385:5524   */\n      swap3\n      swap2\n      pop\n      pop\n      jump\t// out\n        /* \"#utility.yul\":5530:6004   */\n    tag_30:\n        /* \"#utility.yul\":5598:5604   */\n      0x00\n        /* \"#utility.yul\":5606:5612   */\n      0x00\n        /* \"#utility.yul\":5655:5657   */\n      0x40\n        /* \"#utility.yul\":5643:5652   */\n      dup4\n        /* \"#utility.yul\":5634:5641   */\n      dup6\n        /* \"#utility.yul\":5630:5653   */\n      sub\n        /* \"#utility.yul\":5626:5658   */\n      slt\n        /* \"#utility.yul\":5623:5742   */\n      iszero\n      tag_293\n      jumpi\n        /* \"#utility.yul\":5661:5740   */\n      tag_294\n      tag_181\n      jump\t// in\n    tag_294:\n        /* \"#utility.yul\":5623:5742   */\n    tag_293:\n        /* \"#utility.yul\":5781:5782   */\n      0x00\n        /* \"#utility.yul\":5806:5859   */\n      tag_295\n        /* \"#utility.yul\":5851:5858   */\n      dup6\n        /* \"#utility.yul\":5842:5848   */\n      dup3\n        /* \"#utility.yul\":5831:5840   */\n      dup7\n        /* \"#utility.yul\":5827:5849   */\n      add\n        /* \"#utility.yul\":5806:5859   */\n      tag_195\n      jump\t// in\n    tag_295:\n        /* \"#utility.yul\":5796:5859   */\n      swap3\n      pop\n        /* \"#utility.yul\":5752:5869   */\n      pop\n        /* \"#utility.yul\":5908:5910   */\n      0x20\n        /* \"#utility.yul\":5934:5987   */\n      tag_296\n        /* \"#utility.yul\":5979:5986   */\n      dup6\n        /* \"#utility.yul\":5970:5976   */\n      dup3\n        /* \"#utility.yul\":5959:5968   */\n      dup7\n        /* \"#utility.yul\":5955:5977   */\n      add\n        /* \"#utility.yul\":5934:5987   */\n      tag_198\n      jump\t// in\n    tag_296:\n        /* \"#utility.yul\":5924:5987   */\n      swap2\n      pop\n        /* \"#utility.yul\":5879:5997   */\n      pop\n        /* \"#utility.yul\":5530:6004   */\n      swap3\n      pop\n      swap3\n      swap1\n      pop\n      jump\t// out\n        /* \"#utility.yul\":6010:6100   */\n    tag_199:\n        /* \"#utility.yul\":6044:6051   */\n      0x00\n        /* \"#utility.yul\":6087:6092   */\n      dup2\n        /* \"#utility.yul\":6080:6093   */\n      iszero\n        /* \"#utility.yul\":6073:6094   */\n      iszero\n        /* \"#utility.yul\":6062:6094   */\n      swap1\n      pop\n        /* \"#utility.yul\":6010:6100   */\n      swap2\n      swap1\n      pop\n      jump\t// out\n        /* \"#utility.yul\":6106:6215   */\n    tag_200:\n        /* \"#utility.yul\":6187:6208   */\n      tag_299\n        /* \"#utility.yul\":6202:6207   */\n      dup2\n        /* \"#utility.yul\":6187:6208   */\n      tag_199\n      jump\t// in\n    tag_299:\n        /* \"#utility.yul\":6182:6185   */\n      dup3\n        /* \"#utility.yul\":6175:6209   */\n      mstore\n        /* \"#utility.yul\":6106:6215   */\n      pop\n      pop\n      jump\t// out\n        /* \"#utility.yul\":6221:6431   */\n    tag_33:\n        /* \"#utility.yul\":6308:6312   */\n      0x00\n        /* \"#utility.yul\":6346:6348   */\n      0x20\n        /* \"#utility.yul\":6335:6344   */\n      dup3\n        /* \"#utility.yul\":6331:6349   */\n      add\n        /* \"#utility.yul\":6323:6349   */\n      swap1\n      pop\n        /* \"#utility.yul\":6359:6424   */\n      tag_301\n        /* \"#utility.yul\":6421:6422   */\n      0x00\n        /* \"#utility.yul\":6410:6419   */\n      dup4\n        /* \"#utility.yul\":6406:6423   */\n      add\n        /* \"#utility.yul\":6397:6403   */\n      dup5\n        /* \"#utility.yul\":6359:6424   */\n      tag_200\n      jump\t// in\n    tag_301:\n        /* \"#utility.yul\":6221:6431   */\n      swap3\n      swap2\n      pop\n      pop\n      jump\t// out\n        /* \"#utility.yul\":6437:6555   */\n    tag_201:\n        /* \"#utility.yul\":6524:6548   */\n      tag_303\n        /* \"#utility.yul\":6542:6547   */\n      dup2\n        /* \"#utility.yul\":6524:6548   */\n      tag_196\n      jump\t// in\n    tag_303:\n        /* \"#utility.yul\":6519:6522   */\n      dup3\n        /* \"#utility.yul\":6512:6549   */\n      mstore\n        /* \"#utility.yul\":6437:6555   */\n      pop\n      pop\n      jump\t// out\n        /* \"#utility.yul\":6561:6783   */\n    tag_40:\n        /* \"#utility.yul\":6654:6658   */\n      0x00\n        /* \"#utility.yul\":6692:6694   */\n      0x20\n        /* \"#utility.yul\":6681:6690   */\n      dup3\n        /* \"#utility.yul\":6677:6695   */\n      add\n        /* \"#utility.yul\":6669:6695   */\n      swap1\n      pop\n        /* \"#utility.yul\":6705:6776   */\n      tag_305\n        /* \"#utility.yul\":6773:6774   */\n      0x00\n        /* \"#utility.yul\":6762:6771   */\n      dup4\n        /* \"#utility.yul\":6758:6775   */\n      add\n        /* \"#utility.yul\":6749:6755   */\n      dup5\n        /* \"#utility.yul\":6705:6776   */\n      tag_201\n      jump\t// in\n    tag_305:\n        /* \"#utility.yul\":6561:6783   */\n      swap3\n      swap2\n      pop\n      pop\n      jump\t// out\n        /* \"#utility.yul\":6789:7408   */\n    tag_43:\n        /* \"#utility.yul\":6866:6872   */\n      0x00\n        /* \"#utility.yul\":6874:6880   */\n      0x00\n        /* \"#utility.yul\":6882:6888   */\n      0x00\n        /* \"#utility.yul\":6931:6933   */\n      0x60\n        /* \"#utility.yul\":6919:6928   */\n      dup5\n        /* \"#utility.yul\":6910:6917   */\n      dup7\n        /* \"#utility.yul\":6906:6929   */\n      sub\n        /* \"#utility.yul\":6902:6934   */\n      slt\n        /* \"#utility.yul\":6899:7018   */\n      iszero\n      tag_307\n      jumpi\n        /* \"#utility.yul\":6937:7016   */\n      tag_308\n      tag_181\n      jump\t// in\n    tag_308:\n        /* \"#utility.yul\":6899:7018   */\n    tag_307:\n        /* \"#utility.yul\":7057:7058   */\n      0x00\n        /* \"#utility.yul\":7082:7135   */\n      tag_309\n        /* \"#utility.yul\":7127:7134   */\n      dup7\n        /* \"#utility.yul\":7118:7124   */\n      dup3\n        /* \"#utility.yul\":7107:7116   */\n      dup8\n        /* \"#utility.yul\":7103:7125   */\n      add\n        /* \"#utility.yul\":7082:7135   */\n      tag_195\n      jump\t// in\n    tag_309:\n        /* \"#utility.yul\":7072:7135   */\n      swap4\n      pop\n        /* \"#utility.yul\":7028:7145   */\n      pop\n        /* \"#utility.yul\":7184:7186   */\n      0x20\n        /* \"#utility.yul\":7210:7263   */\n      tag_310\n        /* \"#utility.yul\":7255:7262   */\n      dup7\n        /* \"#utility.yul\":7246:7252   */\n      dup3\n        /* \"#utility.yul\":7235:7244   */\n      dup8\n        /* \"#utility.yul\":7231:7253   */\n      add\n        /* \"#utility.yul\":7210:7263   */\n      tag_195\n      jump\t// in\n    tag_310:\n        /* \"#utility.yul\":7200:7263   */\n      swap3\n      pop\n        /* \"#utility.yul\":7155:7273   */\n      pop\n        /* \"#utility.yul\":7312:7314   */\n      0x40\n        /* \"#utility.yul\":7338:7391   */\n      tag_311\n        /* \"#utility.yul\":7383:7390   */\n      dup7\n        /* \"#utility.yul\":7374:7380   */\n      dup3\n        /* \"#utility.yul\":7363:7372   */\n      dup8\n        /* \"#utility.yul\":7359:7381   */\n      add\n        /* \"#utility.yul\":7338:7391   */\n      tag_198\n      jump\t// in\n    tag_311:\n        /* \"#utility.yul\":7328:7391   */\n      swap2\n      pop\n        /* \"#utility.yul\":7283:7401   */\n      pop\n        /* \"#utility.yul\":6789:7408   */\n      swap3\n      pop\n      swap3\n      pop\n      swap3\n      jump\t// out\n        /* \"#utility.yul\":7414:7500   */\n    tag_202:\n        /* \"#utility.yul\":7449:7456   */\n      0x00\n        /* \"#utility.yul\":7489:7493   */\n      0xff\n        /* \"#utility.yul\":7482:7487   */\n      dup3\n        /* \"#utility.yul\":7478:7494   */\n      and\n        /* \"#utility.yul\":7467:7494   */\n      swap1\n      pop\n        /* \"#utility.yul\":7414:7500   */\n      swap2\n      swap1\n      pop\n      jump\t// out\n        /* \"#utility.yul\":7506:7618   */\n    tag_203:\n        /* \"#utility.yul\":7589:7611   */\n      tag_314\n        /* \"#utility.yul\":7605:7610   */\n      dup2\n        /* \"#utility.yul\":7589:7611   */\n      tag_202\n      jump\t// in\n    tag_314:\n        /* \"#utility.yul\":7584:7587   */\n      dup3\n        /* \"#utility.yul\":7577:7612   */\n      mstore\n        /* \"#utility.yul\":7506:7618   */\n      pop\n      pop\n      jump\t// out\n        /* \"#utility.yul\":7624:7838   */\n    tag_49:\n        /* \"#utility.yul\":7713:7717   */\n      0x00\n        /* \"#utility.yul\":7751:7753   */\n      0x20\n        /* \"#utility.yul\":7740:7749   */\n      dup3\n        /* \"#utility.yul\":7736:7754   */\n      add\n        /* \"#utility.yul\":7728:7754   */\n      swap1\n      pop\n        /* \"#utility.yul\":7764:7831   */\n      tag_316\n        /* \"#utility.yul\":7828:7829   */\n      0x00\n        /* \"#utility.yul\":7817:7826   */\n      dup4\n        /* \"#utility.yul\":7813:7830   */\n      add\n        /* \"#utility.yul\":7804:7810   */\n      dup5\n        /* \"#utility.yul\":7764:7831   */\n      tag_203\n      jump\t// in\n    tag_316:\n        /* \"#utility.yul\":7624:7838   */\n      swap3\n      swap2\n      pop\n      pop\n      jump\t// out\n        /* \"#utility.yul\":7844:7962   */\n    tag_204:\n        /* \"#utility.yul\":7931:7955   */\n      tag_318\n        /* \"#utility.yul\":7949:7954   */\n      dup2\n        /* \"#utility.yul\":7931:7955   */\n      tag_193\n      jump\t// in\n    tag_318:\n        /* \"#utility.yul\":7926:7929   */\n      dup3\n        /* \"#utility.yul\":7919:7956   */\n      mstore\n        /* \"#utility.yul\":7844:7962   */\n      pop\n      pop\n      jump\t// out\n        /* \"#utility.yul\":7968:8190   */\n    tag_56:\n        /* \"#utility.yul\":8061:8065   */\n      0x00\n        /* \"#utility.yul\":8099:8101   */\n      0x20\n        /* \"#utility.yul\":8088:8097   */\n      dup3\n        /* \"#utility.yul\":8084:8102   */\n      add\n        /* \"#utility.yul\":8076:8102   */\n      swap1\n      pop\n        /* \"#utility.yul\":8112:8183   */\n      tag_320\n        /* \"#utility.yul\":8180:8181   */\n      0x00\n        /* \"#utility.yul\":8169:8178   */\n      dup4\n        /* \"#utility.yul\":8165:8182   */\n      add\n        /* \"#utility.yul\":8156:8162   */\n      dup5\n        /* \"#utility.yul\":8112:8183   */\n      tag_204\n      jump\t// in\n    tag_320:\n        /* \"#utility.yul\":7968:8190   */\n      swap3\n      swap2\n      pop\n      pop\n      jump\t// out\n        /* \"#utility.yul\":8196:8525   */\n    tag_59:\n        /* \"#utility.yul\":8255:8261   */\n      0x00\n        /* \"#utility.yul\":8304:8306   */\n      0x20\n        /* \"#utility.yul\":8292:8301   */\n      dup3\n        /* \"#utility.yul\":8283:8290   */\n      dup5\n        /* \"#utility.yul\":8279:8302   */\n      sub\n        /* \"#utility.yul\":8275:8307   */\n      slt\n        /* \"#utility.yul\":8272:8391   */\n      iszero\n      tag_322\n      jumpi\n        /* \"#utility.yul\":8310:8389   */\n      tag_323\n      tag_181\n      jump\t// in\n    tag_323:\n        /* \"#utility.yul\":8272:8391   */\n    tag_322:\n        /* \"#utility.yul\":8430:8431   */\n      0x00\n        /* \"#utility.yul\":8455:8508   */\n      tag_324\n        /* \"#utility.yul\":8500:8507   */\n      dup5\n        /* \"#utility.yul\":8491:8497   */\n      dup3\n        /* \"#utility.yul\":8480:8489   */\n      dup6\n        /* \"#utility.yul\":8476:8498   */\n      add\n        /* \"#utility.yul\":8455:8508   */\n      tag_195\n      jump\t// in\n    tag_324:\n        /* \"#utility.yul\":8445:8508   */\n      swap2\n      pop\n        /* \"#utility.yul\":8401:8518   */\n      pop\n        /* \"#utility.yul\":8196:8525   */\n      swap3\n      swap2\n      pop\n      pop\n      jump\t// out\n        /* \"#utility.yul\":8531:9005   */\n    tag_74:\n        /* \"#utility.yul\":8599:8605   */\n      0x00\n        /* \"#utility.yul\":8607:8613   */\n      0x00\n        /* \"#utility.yul\":8656:8658   */\n      0x40\n        /* \"#utility.yul\":8644:8653   */\n      dup4\n        /* \"#utility.yul\":8635:8642   */\n      dup6\n        /* \"#utility.yul\":8631:8654   */\n      sub\n        /* \"#utility.yul\":8627:8659   */\n      slt\n        /* \"#utility.yul\":8624:8743   */\n      iszero\n      tag_326\n      jumpi\n        /* \"#utility.yul\":8662:8741   */\n      tag_327\n      tag_181\n      jump\t// in\n    tag_327:\n        /* \"#utility.yul\":8624:8743   */\n    tag_326:\n        /* \"#utility.yul\":8782:8783   */\n      0x00\n        /* \"#utility.yul\":8807:8860   */\n      tag_328\n        /* \"#utility.yul\":8852:8859   */\n      dup6\n        /* \"#utility.yul\":8843:8849   */\n      dup3\n        /* \"#utility.yul\":8832:8841   */\n      dup7\n        /* \"#utility.yul\":8828:8850   */\n      add\n        /* \"#utility.yul\":8807:8860   */\n      tag_195\n      jump\t// in\n    tag_328:\n        /* \"#utility.yul\":8797:8860   */\n      swap3\n      pop\n        /* \"#utility.yul\":8753:8870   */\n      pop\n        /* \"#utility.yul\":8909:8911   */\n      0x20\n        /* \"#utility.yul\":8935:8988   */\n      tag_329\n        /* \"#utility.yul\":8980:8987   */\n      dup6\n        /* \"#utility.yul\":8971:8977   */\n      dup3\n        /* \"#utility.yul\":8960:8969   */\n      dup7\n        /* \"#utility.yul\":8956:8978   */\n      add\n        /* \"#utility.yul\":8935:8988   */\n      tag_195\n      jump\t// in\n    tag_329:\n        /* \"#utility.yul\":8925:8988   */\n      swap2\n      pop\n        /* \"#utility.yul\":8880:8998   */\n      pop\n        /* \"#utility.yul\":8531:9005   */\n      swap3\n      pop\n      swap3\n      swap1\n      pop\n      jump\t// out\n        /* \"#utility.yul\":9011:9191   */\n    tag_205:\n        /* \"#utility.yul\":9059:9136   */\n      0x4e487b7100000000000000000000000000000000000000000000000000000000\n        /* \"#utility.yul\":9056:9057   */\n      0x00\n        /* \"#utility.yul\":9049:9137   */\n      mstore\n        /* \"#utility.yul\":9156:9160   */\n      0x22\n        /* \"#utility.yul\":9153:9154   */\n      0x04\n        /* \"#utility.yul\":9146:9161   */\n      mstore\n        /* \"#utility.yul\":9180:9184   */\n      0x24\n        /* \"#utility.yul\":9177:9178   */\n      0x00\n        /* \"#utility.yul\":9170:9185   */\n      revert\n        /* \"#utility.yul\":9197:9517   */\n    tag_79:\n        /* \"#utility.yul\":9241:9247   */\n      0x00\n        /* \"#utility.yul\":9278:9279   */\n      0x02\n        /* \"#utility.yul\":9272:9276   */\n      dup3\n        /* \"#utility.yul\":9268:9280   */\n      div\n        /* \"#utility.yul\":9258:9280   */\n      swap1\n      pop\n        /* \"#utility.yul\":9325:9326   */\n      0x01\n        /* \"#utility.yul\":9319:9323   */\n      dup3\n        /* \"#utility.yul\":9315:9327   */\n      and\n        /* \"#utility.yul\":9346:9364   */\n      dup1\n        /* \"#utility.yul\":9336:9417   */\n      tag_332\n      jumpi\n        /* \"#utility.yul\":9402:9406   */\n      0x7f\n        /* \"#utility.yul\":9394:9400   */\n      dup3\n        /* \"#utility.yul\":9390:9407   */\n      and\n        /* \"#utility.yul\":9380:9407   */\n      swap2\n      pop\n        /* \"#utility.yul\":9336:9417   */\n    tag_332:\n        /* \"#utility.yul\":9464:9466   */\n      0x20\n        /* \"#utility.yul\":9456:9462   */\n      dup3\n        /* \"#utility.yul\":9453:9467   */\n      lt\n        /* \"#utility.yul\":9433:9451   */\n      dup2\n        /* \"#utility.yul\":9430:9468   */\n      sub\n        /* \"#utility.yul\":9427:9511   */\n      tag_333\n      jumpi\n        /* \"#utility.yul\":9483:9501   */\n      tag_334\n      tag_205\n      jump\t// in\n    tag_334:\n        /* \"#utility.yul\":9427:9511   */\n    tag_333:\n        /* \"#utility.yul\":9248:9517   */\n      pop\n        /* \"#utility.yul\":9197:9517   */\n      swap2\n      swap1\n      pop\n      jump\t// out\n        /* \"#utility.yul\":9523:9685   */\n    tag_206:\n        /* \"#utility.yul\":9663:9677   */\n      0x414c52454144595f494e49540000000000000000000000000000000000000000\n        /* \"#utility.yul\":9659:9660   */\n      0x00\n        /* \"#utility.yul\":9651:9657   */\n      dup3\n        /* \"#utility.yul\":9647:9661   */\n      add\n        /* \"#utility.yul\":9640:9678   */\n      mstore\n        /* \"#utility.yul\":9523:9685   */\n      pop\n      jump\t// out\n        /* \"#utility.yul\":9691:10057   */\n    tag_207:\n        /* \"#utility.yul\":9833:9836   */\n      0x00\n        /* \"#utility.yul\":9854:9921   */\n      tag_337\n        /* \"#utility.yul\":9918:9920   */\n      0x0c\n        /* \"#utility.yul\":9913:9916   */\n      dup4\n        /* \"#utility.yul\":9854:9921   */\n      tag_176\n      jump\t// in\n    tag_337:\n        /* \"#utility.yul\":9847:9921   */\n      swap2\n      pop\n        /* \"#utility.yul\":9930:10023   */\n      tag_338\n        /* \"#utility.yul\":10019:10022   */\n      dup3\n        /* \"#utility.yul\":9930:10023   */\n      tag_206\n      jump\t// in\n    tag_338:\n        /* \"#utility.yul\":10048:10050   */\n      0x20\n        /* \"#utility.yul\":10043:10046   */\n      dup3\n        /* \"#utility.yul\":10039:10051   */\n      add\n        /* \"#utility.yul\":10032:10051   */\n      swap1\n      pop\n        /* \"#utility.yul\":9691:10057   */\n      swap2\n      swap1\n      pop\n      jump\t// out\n        /* \"#utility.yul\":10063:10482   */\n    tag_87:\n        /* \"#utility.yul\":10229:10233   */\n      0x00\n        /* \"#utility.yul\":10267:10269   */\n      0x20\n        /* \"#utility.yul\":10256:10265   */\n      dup3\n        /* \"#utility.yul\":10252:10270   */\n      add\n        /* \"#utility.yul\":10244:10270   */\n      swap1\n      pop\n        /* \"#utility.yul\":10316:10325   */\n      dup2\n        /* \"#utility.yul\":10310:10314   */\n      dup2\n        /* \"#utility.yul\":10306:10326   */\n      sub\n        /* \"#utility.yul\":10302:10303   */\n      0x00\n        /* \"#utility.yul\":10291:10300   */\n      dup4\n        /* \"#utility.yul\":10287:10304   */\n      add\n        /* \"#utility.yul\":10280:10327   */\n      mstore\n        /* \"#utility.yul\":10344:10475   */\n      tag_340\n        /* \"#utility.yul\":10470:10474   */\n      dup2\n        /* \"#utility.yul\":10344:10475   */\n      tag_207\n      jump\t// in\n    tag_340:\n        /* \"#utility.yul\":10336:10475   */\n      swap1\n      pop\n        /* \"#utility.yul\":10063:10482   */\n      swap2\n      swap1\n      pop\n      jump\t// out\n        /* \"#utility.yul\":10488:10650   */\n    tag_208:\n        /* \"#utility.yul\":10628:10642   */\n      0x5a45524f5f4d414e414745520000000000000000000000000000000000000000\n        /* \"#utility.yul\":10624:10625   */\n      0x00\n        /* \"#utility.yul\":10616:10622   */\n      dup3\n        /* \"#utility.yul\":10612:10626   */\n      add\n        /* \"#utility.yul\":10605:10643   */\n      mstore\n        /* \"#utility.yul\":10488:10650   */\n      pop\n      jump\t// out\n        /* \"#utility.yul\":10656:11022   */\n    tag_209:\n        /* \"#utility.yul\":10798:10801   */\n      0x00\n        /* \"#utility.yul\":10819:10886   */\n      tag_343\n        /* \"#utility.yul\":10883:10885   */\n      0x0c\n        /* \"#utility.yul\":10878:10881   */\n      dup4\n        /* \"#utility.yul\":10819:10886   */\n      tag_176\n      jump\t// in\n    tag_343:\n        /* \"#utility.yul\":10812:10886   */\n      swap2\n      pop\n        /* \"#utility.yul\":10895:10988   */\n      tag_344\n        /* \"#utility.yul\":10984:10987   */\n      dup3\n        /* \"#utility.yul\":10895:10988   */\n      tag_208\n      jump\t// in\n    tag_344:\n        /* \"#utility.yul\":11013:11015   */\n      0x20\n        /* \"#utility.yul\":11008:11011   */\n      dup3\n        /* \"#utility.yul\":11004:11016   */\n      add\n        /* \"#utility.yul\":10997:11016   */\n      swap1\n      pop\n        /* \"#utility.yul\":10656:11022   */\n      swap2\n      swap1\n      pop\n      jump\t// out\n        /* \"#utility.yul\":11028:11447   */\n    tag_91:\n        /* \"#utility.yul\":11194:11198   */\n      0x00\n        /* \"#utility.yul\":11232:11234   */\n      0x20\n        /* \"#utility.yul\":11221:11230   */\n      dup3\n        /* \"#utility.yul\":11217:11235   */\n      add\n        /* \"#utility.yul\":11209:11235   */\n      swap1\n      pop\n        /* \"#utility.yul\":11281:11290   */\n      dup2\n        /* \"#utility.yul\":11275:11279   */\n      dup2\n        /* \"#utility.yul\":11271:11291   */\n      sub\n        /* \"#utility.yul\":11267:11268   */\n      0x00\n        /* \"#utility.yul\":11256:11265   */\n      dup4\n        /* \"#utility.yul\":11252:11269   */\n      add\n        /* \"#utility.yul\":11245:11292   */\n      mstore\n        /* \"#utility.yul\":11309:11440   */\n      tag_346\n        /* \"#utility.yul\":11435:11439   */\n      dup2\n        /* \"#utility.yul\":11309:11440   */\n      tag_209\n      jump\t// in\n    tag_346:\n        /* \"#utility.yul\":11301:11440   */\n      swap1\n      pop\n        /* \"#utility.yul\":11028:11447   */\n      swap2\n      swap1\n      pop\n      jump\t// out\n        /* \"#utility.yul\":11453:11594   */\n    tag_210:\n        /* \"#utility.yul\":11502:11506   */\n      0x00\n        /* \"#utility.yul\":11525:11528   */\n      dup2\n        /* \"#utility.yul\":11517:11528   */\n      swap1\n      pop\n        /* \"#utility.yul\":11548:11551   */\n      dup2\n        /* \"#utility.yul\":11545:11546   */\n      0x00\n        /* \"#utility.yul\":11538:11552   */\n      mstore\n        /* \"#utility.yul\":11582:11586   */\n      0x20\n        /* \"#utility.yul\":11579:11580   */\n      0x00\n        /* \"#utility.yul\":11569:11587   */\n      keccak256\n        /* \"#utility.yul\":11561:11587   */\n      swap1\n      pop\n        /* \"#utility.yul\":11453:11594   */\n      swap2\n      swap1\n      pop\n      jump\t// out\n        /* \"#utility.yul\":11600:11693   */\n    tag_211:\n        /* \"#utility.yul\":11637:11643   */\n      0x00\n        /* \"#utility.yul\":11684:11686   */\n      0x20\n        /* \"#utility.yul\":11679:11681   */\n      0x1f\n        /* \"#utility.yul\":11672:11677   */\n      dup4\n        /* \"#utility.yul\":11668:11682   */\n      add\n        /* \"#utility.yul\":11664:11687   */\n      div\n        /* \"#utility.yul\":11654:11687   */\n      swap1\n      pop\n        /* \"#utility.yul\":11600:11693   */\n      swap2\n      swap1\n      pop\n      jump\t// out\n        /* \"#utility.yul\":11699:11806   */\n    tag_212:\n        /* \"#utility.yul\":11743:11751   */\n      0x00\n        /* \"#utility.yul\":11793:11798   */\n      dup3\n        /* \"#utility.yul\":11787:11791   */\n      dup3\n        /* \"#utility.yul\":11783:11799   */\n      shl\n        /* \"#utility.yul\":11762:11799   */\n      swap1\n      pop\n        /* \"#utility.yul\":11699:11806   */\n      swap3\n      swap2\n      pop\n      pop\n      jump\t// out\n        /* \"#utility.yul\":11812:12205   */\n    tag_213:\n        /* \"#utility.yul\":11881:11887   */\n      0x00\n        /* \"#utility.yul\":11931:11932   */\n      0x08\n        /* \"#utility.yul\":11919:11929   */\n      dup4\n        /* \"#utility.yul\":11915:11933   */\n      mul\n        /* \"#utility.yul\":11954:12051   */\n      tag_351\n        /* \"#utility.yul\":11984:12050   */\n      0xffffffffffffffffffffffffffffffffffffffffffffffffffffffffffffffff\n        /* \"#utility.yul\":11973:11982   */\n      dup3\n        /* \"#utility.yul\":11954:12051   */\n      tag_212\n      jump\t// in\n    tag_351:\n        /* \"#utility.yul\":12072:12111   */\n      tag_352\n        /* \"#utility.yul\":12102:12110   */\n      dup7\n        /* \"#utility.yul\":12091:12100   */\n      dup4\n        /* \"#utility.yul\":12072:12111   */\n      tag_212\n      jump\t// in\n    tag_352:\n        /* \"#utility.yul\":12060:12111   */\n      swap6\n      pop\n        /* \"#utility.yul\":12144:12148   */\n      dup1\n        /* \"#utility.yul\":12140:12149   */\n      not\n        /* \"#utility.yul\":12133:12138   */\n      dup5\n        /* \"#utility.yul\":12129:12150   */\n      and\n        /* \"#utility.yul\":12120:12150   */\n      swap4\n      pop\n        /* \"#utility.yul\":12193:12197   */\n      dup1\n        /* \"#utility.yul\":12183:12191   */\n      dup7\n        /* \"#utility.yul\":12179:12198   */\n      and\n        /* \"#utility.yul\":12172:12177   */\n      dup5\n        /* \"#utility.yul\":12169:12199   */\n      or\n        /* \"#utility.yul\":12159:12199   */\n      swap3\n      pop\n        /* \"#utility.yul\":11888:12205   */\n      pop\n      pop\n        /* \"#utility.yul\":11812:12205   */\n      swap4\n      swap3\n      pop\n      pop\n      pop\n      jump\t// out\n        /* \"#utility.yul\":12211:12271   */\n    tag_214:\n        /* \"#utility.yul\":12239:12242   */\n      0x00\n        /* \"#utility.yul\":12260:12265   */\n      dup2\n        /* \"#utility.yul\":12253:12265   */\n      swap1\n      pop\n        /* \"#utility.yul\":12211:12271   */\n      swap2\n      swap1\n      pop\n      jump\t// out\n        /* \"#utility.yul\":12277:12419   */\n    tag_215:\n        /* \"#utility.yul\":12327:12336   */\n      0x00\n        /* \"#utility.yul\":12360:12413   */\n      tag_355\n        /* \"#utility.yul\":12378:12412   */\n      tag_356\n        /* \"#utility.yul\":12387:12411   */\n      tag_357\n        /* \"#utility.yul\":12405:12410   */\n      dup5\n        /* \"#utility.yul\":12387:12411   */\n      tag_196\n      jump\t// in\n    tag_357:\n        /* \"#utility.yul\":12378:12412   */\n      tag_214\n      jump\t// in\n    tag_356:\n        /* \"#utility.yul\":12360:12413   */\n      tag_196\n      jump\t// in\n    tag_355:\n        /* \"#utility.yul\":12347:12413   */\n      swap1\n      pop\n        /* \"#utility.yul\":12277:12419   */\n      swap2\n      swap1\n      pop\n      jump\t// out\n        /* \"#utility.yul\":12425:12500   */\n    tag_216:\n        /* \"#utility.yul\":12468:12471   */\n      0x00\n        /* \"#utility.yul\":12489:12494   */\n      dup2\n        /* \"#utility.yul\":12482:12494   */\n      swap1\n      pop\n        /* \"#utility.yul\":12425:12500   */\n      swap2\n      swap1\n      pop\n      jump\t// out\n        /* \"#utility.yul\":12506:12775   */\n    tag_217:\n        /* \"#utility.yul\":12616:12655   */\n      tag_360\n        /* \"#utility.yul\":12647:12654   */\n      dup4\n        /* \"#utility.yul\":12616:12655   */\n      tag_215\n      jump\t// in\n    tag_360:\n        /* \"#utility.yul\":12677:12768   */\n      tag_361\n        /* \"#utility.yul\":12726:12767   */\n      tag_362\n        /* \"#utility.yul\":12750:12766   */\n      dup3\n        /* \"#utility.yul\":12726:12767   */\n      tag_216\n      jump\t// in\n    tag_362:\n        /* \"#utility.yul\":12718:12724   */\n      dup5\n        /* \"#utility.yul\":12711:12715   */\n      dup5\n        /* \"#utility.yul\":12705:12716   */\n      sload\n        /* \"#utility.yul\":12677:12768   */\n      tag_213\n      jump\t// in\n    tag_361:\n        /* \"#utility.yul\":12671:12675   */\n      dup3\n        /* \"#utility.yul\":12664:12769   */\n      sstore\n        /* \"#utility.yul\":12582:12775   */\n      pop\n        /* \"#utility.yul\":12506:12775   */\n      pop\n      pop\n      pop\n      jump\t// out\n        /* \"#utility.yul\":12781:12854   */\n    tag_218:\n        /* \"#utility.yul\":12826:12829   */\n      0x00\n        /* \"#utility.yul\":12847:12848   */\n      0x00\n        /* \"#utility.yul\":12840:12848   */\n      swap1\n      pop\n        /* \"#utility.yul\":12781:12854   */\n      swap1\n      jump\t// out\n        /* \"#utility.yul\":12860:13049   */\n    tag_219:\n        /* \"#utility.yul\":12937:12969   */\n      tag_365\n      tag_218\n      jump\t// in\n    tag_365:\n        /* \"#utility.yul\":12978:13043   */\n      tag_366\n        /* \"#utility.yul\":13036:13042   */\n      dup2\n        /* \"#utility.yul\":13028:13034   */\n      dup5\n        /* \"#utility.yul\":13022:13026   */\n      dup5\n        /* \"#utility.yul\":12978:13043   */\n      tag_217\n      jump\t// in\n    tag_366:\n        /* \"#utility.yul\":12913:13049   */\n      pop\n        /* \"#utility.yul\":12860:13049   */\n      pop\n      pop\n      jump\t// out\n        /* \"#utility.yul\":13055:13269   */\n    tag_220:\n        /* \"#utility.yul\":13140:13141   */\n      0x00\n        /* \"#utility.yul\":13125:13263   */\n    tag_368:\n        /* \"#utility.yul\":13150:13159   */\n      dup3\n        /* \"#utility.yul\":13147:13148   */\n      dup2\n        /* \"#utility.yul\":13144:13160   */\n      lt\n        /* \"#utility.yul\":13125:13263   */\n      iszero\n      tag_370\n      jumpi\n        /* \"#utility.yul\":13202:13253   */\n      tag_371\n        /* \"#utility.yul\":13251:13252   */\n      0x00\n        /* \"#utility.yul\":13247:13248   */\n      dup3\n        /* \"#utility.yul\":13236:13245   */\n      dup5\n        /* \"#utility.yul\":13232:13249   */\n      add\n        /* \"#utility.yul\":13202:13253   */\n      tag_219\n      jump\t// in\n    tag_371:\n        /* \"#utility.yul\":13175:13176   */\n      0x01\n        /* \"#utility.yul\":13172:13173   */\n      dup2\n        /* \"#utility.yul\":13168:13177   */\n      add\n        /* \"#utility.yul\":13163:13177   */\n      swap1\n      pop\n        /* \"#utility.yul\":13125:13263   */\n      jump(tag_368)\n    tag_370:\n        /* \"#utility.yul\":13129:13143   */\n      pop\n        /* \"#utility.yul\":13055:13269   */\n      pop\n      pop\n      jump\t// out\n        /* \"#utility.yul\":13275:14021   */\n    tag_221:\n        /* \"#utility.yul\":13376:13378   */\n      0x1f\n        /* \"#utility.yul\":13371:13374   */\n      dup3\n        /* \"#utility.yul\":13368:13379   */\n      gt\n        /* \"#utility.yul\":13365:14014   */\n      iszero\n      tag_373\n      jumpi\n        /* \"#utility.yul\":13405:13415   */\n      dup3\n        /* \"#utility.yul\":13400:13403   */\n      dup3\n        /* \"#utility.yul\":13397:13416   */\n      gt\n        /* \"#utility.yul\":13394:14004   */\n      iszero\n      tag_374\n      jumpi\n        /* \"#utility.yul\":13451:13489   */\n      tag_375\n        /* \"#utility.yul\":13483:13488   */\n      dup2\n        /* \"#utility.yul\":13451:13489   */\n      tag_210\n      jump\t// in\n    tag_375:\n        /* \"#utility.yul\":13526:13548   */\n      tag_376\n        /* \"#utility.yul\":13544:13547   */\n      dup4\n        /* \"#utility.yul\":13526:13548   */\n      tag_211\n      jump\t// in\n    tag_376:\n        /* \"#utility.yul\":13585:13614   */\n      tag_377\n        /* \"#utility.yul\":13603:13613   */\n      dup6\n        /* \"#utility.yul\":13585:13614   */\n      tag_211\n      jump\t// in\n    tag_377:\n        /* \"#utility.yul\":13775:13777   */\n      0x20\n        /* \"#utility.yul\":13763:13773   */\n      dup7\n        /* \"#utility.yul\":13760:13778   */\n      lt\n        /* \"#utility.yul\":13757:13836   */\n      iszero\n      tag_378\n      jumpi\n        /* \"#utility.yul\":13817:13818   */\n      0x00\n        /* \"#utility.yul\":13801:13818   */\n      swap1\n      pop\n        /* \"#utility.yul\":13757:13836   */\n    tag_378:\n        /* \"#utility.yul\":13886:13898   */\n      dup1\n        /* \"#utility.yul\":13876:13884   */\n      dup4\n        /* \"#utility.yul\":13872:13899   */\n      add\n        /* \"#utility.yul\":13916:13990   */\n      tag_379\n        /* \"#utility.yul\":13976:13988   */\n      dup3\n        /* \"#utility.yul\":13962:13974   */\n      dup5\n        /* \"#utility.yul\":13958:13989   */\n      sub\n        /* \"#utility.yul\":13945:13956   */\n      dup3\n        /* \"#utility.yul\":13916:13990   */\n      tag_220\n      jump\t// in\n    tag_379:\n        /* \"#utility.yul\":13417:14004   */\n      pop\n      pop\n      pop\n      pop\n        /* \"#utility.yul\":13394:14004   */\n    tag_374:\n        /* \"#utility.yul\":13365:14014   */\n    tag_373:\n        /* \"#utility.yul\":13275:14021   */\n      pop\n      pop\n      pop\n      jump\t// out\n        /* \"#utility.yul\":14027:14144   */\n    tag_222:\n        /* \"#utility.yul\":14081:14089   */\n      0x00\n        /* \"#utility.yul\":14131:14136   */\n      dup3\n        /* \"#utility.yul\":14125:14129   */\n      dup3\n        /* \"#utility.yul\":14121:14137   */\n      shr\n        /* \"#utility.yul\":14100:14137   */\n      swap1\n      pop\n        /* \"#utility.yul\":14027:14144   */\n      swap3\n      swap2\n      pop\n      pop\n      jump\t// out\n        /* \"#utility.yul\":14150:14319   */\n    tag_223:\n        /* \"#utility.yul\":14194:14200   */\n      0x00\n        /* \"#utility.yul\":14227:14278   */\n      tag_382\n        /* \"#utility.yul\":14275:14276   */\n      0x00\n        /* \"#utility.yul\":14271:14277   */\n      not\n        /* \"#utility.yul\":14263:14268   */\n      dup5\n        /* \"#utility.yul\":14260:14261   */\n      0x08\n        /* \"#utility.yul\":14256:14269   */\n      mul\n        /* \"#utility.yul\":14227:14278   */\n      tag_222\n      jump\t// in\n    tag_382:\n        /* \"#utility.yul\":14223:14279   */\n      not\n        /* \"#utility.yul\":14308:14312   */\n      dup1\n        /* \"#utility.yul\":14302:14306   */\n      dup4\n        /* \"#utility.yul\":14298:14313   */\n      and\n        /* \"#utility.yul\":14288:14313   */\n      swap2\n      pop\n        /* \"#utility.yul\":14201:14319   */\n      pop\n        /* \"#utility.yul\":14150:14319   */\n      swap3\n      swap2\n      pop\n      pop\n      jump\t// out\n        /* \"#utility.yul\":14324:14619   */\n    tag_224:\n        /* \"#utility.yul\":14400:14404   */\n      0x00\n        /* \"#utility.yul\":14546:14575   */\n      tag_384\n        /* \"#utility.yul\":14571:14574   */\n      dup4\n        /* \"#utility.yul\":14565:14569   */\n      dup4\n        /* \"#utility.yul\":14546:14575   */\n      tag_223\n      jump\t// in\n    tag_384:\n        /* \"#utility.yul\":14538:14575   */\n      swap2\n      pop\n        /* \"#utility.yul\":14608:14611   */\n      dup3\n        /* \"#utility.yul\":14605:14606   */\n      0x02\n        /* \"#utility.yul\":14601:14612   */\n      mul\n        /* \"#utility.yul\":14595:14599   */\n      dup3\n        /* \"#utility.yul\":14592:14613   */\n      or\n        /* \"#utility.yul\":14584:14613   */\n      swap1\n      pop\n        /* \"#utility.yul\":14324:14619   */\n      swap3\n      swap2\n      pop\n      pop\n      jump\t// out\n        /* \"#utility.yul\":14624:16019   */\n    tag_93:\n        /* \"#utility.yul\":14741:14778   */\n      tag_386\n        /* \"#utility.yul\":14774:14777   */\n      dup3\n        /* \"#utility.yul\":14741:14778   */\n      tag_175\n      jump\t// in\n    tag_386:\n        /* \"#utility.yul\":14843:14861   */\n      0xffffffffffffffff\n        /* \"#utility.yul\":14835:14841   */\n      dup2\n        /* \"#utility.yul\":14832:14862   */\n      gt\n        /* \"#utility.yul\":14829:14885   */\n      iszero\n      tag_387\n      jumpi\n        /* \"#utility.yul\":14865:14883   */\n      tag_388\n      tag_185\n      jump\t// in\n    tag_388:\n        /* \"#utility.yul\":14829:14885   */\n    tag_387:\n        /* \"#utility.yul\":14909:14947   */\n      tag_389\n        /* \"#utility.yul\":14941:14945   */\n      dup3\n        /* \"#utility.yul\":14935:14946   */\n      sload\n        /* \"#utility.yul\":14909:14947   */\n      tag_79\n      jump\t// in\n    tag_389:\n        /* \"#utility.yul\":14994:15061   */\n      tag_390\n        /* \"#utility.yul\":15054:15060   */\n      dup3\n        /* \"#utility.yul\":15046:15052   */\n      dup3\n        /* \"#utility.yul\":15040:15044   */\n      dup6\n        /* \"#utility.yul\":14994:15061   */\n      tag_221\n      jump\t// in\n    tag_390:\n        /* \"#utility.yul\":15088:15089   */\n      0x00\n        /* \"#utility.yul\":15112:15116   */\n      0x20\n        /* \"#utility.yul\":15099:15116   */\n      swap1\n      pop\n        /* \"#utility.yul\":15144:15146   */\n      0x1f\n        /* \"#utility.yul\":15136:15142   */\n      dup4\n        /* \"#utility.yul\":15133:15147   */\n      gt\n        /* \"#utility.yul\":15161:15162   */\n      0x01\n        /* \"#utility.yul\":15156:15774   */\n      dup2\n      eq\n      tag_392\n      jumpi\n        /* \"#utility.yul\":15818:15819   */\n      0x00\n        /* \"#utility.yul\":15835:15841   */\n      dup5\n        /* \"#utility.yul\":15832:15909   */\n      iszero\n      tag_393\n      jumpi\n        /* \"#utility.yul\":15884:15893   */\n      dup3\n        /* \"#utility.yul\":15879:15882   */\n      dup8\n        /* \"#utility.yul\":15875:15894   */\n      add\n        /* \"#utility.yul\":15869:15895   */\n      mload\n        /* \"#utility.yul\":15860:15895   */\n      swap1\n      pop\n        /* \"#utility.yul\":15832:15909   */\n    tag_393:\n        /* \"#utility.yul\":15935:16002   */\n      tag_394\n        /* \"#utility.yul\":15995:16001   */\n      dup6\n        /* \"#utility.yul\":15988:15993   */\n      dup3\n        /* \"#utility.yul\":15935:16002   */\n      tag_224\n      jump\t// in\n    tag_394:\n        /* \"#utility.yul\":15929:15933   */\n      dup7\n        /* \"#utility.yul\":15922:16003   */\n      sstore\n        /* \"#utility.yul\":15791:16013   */\n      pop\n        /* \"#utility.yul\":15126:16013   */\n      jump(tag_391)\n        /* \"#utility.yul\":15156:15774   */\n    tag_392:\n        /* \"#utility.yul\":15208:15212   */\n      0x1f\n        /* \"#utility.yul\":15204:15213   */\n      not\n        /* \"#utility.yul\":15196:15202   */\n      dup5\n        /* \"#utility.yul\":15192:15214   */\n      and\n        /* \"#utility.yul\":15242:15279   */\n      tag_395\n        /* \"#utility.yul\":15274:15278   */\n      dup7\n        /* \"#utility.yul\":15242:15279   */\n      tag_210\n      jump\t// in\n    tag_395:\n        /* \"#utility.yul\":15301:15302   */\n      0x00\n        /* \"#utility.yul\":15315:15523   */\n    tag_396:\n        /* \"#utility.yul\":15329:15336   */\n      dup3\n        /* \"#utility.yul\":15326:15327   */\n      dup2\n        /* \"#utility.yul\":15323:15337   */\n      lt\n        /* \"#utility.yul\":15315:15523   */\n      iszero\n      tag_398\n      jumpi\n        /* \"#utility.yul\":15408:15417   */\n      dup5\n        /* \"#utility.yul\":15403:15406   */\n      dup10\n        /* \"#utility.yul\":15399:15418   */\n      add\n        /* \"#utility.yul\":15393:15419   */\n      mload\n        /* \"#utility.yul\":15385:15391   */\n      dup3\n        /* \"#utility.yul\":15378:15420   */\n      sstore\n        /* \"#utility.yul\":15459:15460   */\n      0x01\n        /* \"#utility.yul\":15451:15457   */\n      dup3\n        /* \"#utility.yul\":15447:15461   */\n      add\n        /* \"#utility.yul\":15437:15461   */\n      swap2\n      pop\n        /* \"#utility.yul\":15506:15508   */\n      0x20\n        /* \"#utility.yul\":15495:15504   */\n      dup6\n        /* \"#utility.yul\":15491:15509   */\n      add\n        /* \"#utility.yul\":15478:15509   */\n      swap5\n      pop\n        /* \"#utility.yul\":15352:15356   */\n      0x20\n        /* \"#utility.yul\":15349:15350   */\n      dup2\n        /* \"#utility.yul\":15345:15357   */\n      add\n        /* \"#utility.yul\":15340:15357   */\n      swap1\n      pop\n        /* \"#utility.yul\":15315:15523   */\n      jump(tag_396)\n    tag_398:\n        /* \"#utility.yul\":15551:15557   */\n      dup7\n        /* \"#utility.yul\":15542:15549   */\n      dup4\n        /* \"#utility.yul\":15539:15558   */\n      lt\n        /* \"#utility.yul\":15536:15715   */\n      iszero\n      tag_399\n      jumpi\n        /* \"#utility.yul\":15609:15618   */\n      dup5\n        /* \"#utility.yul\":15604:15607   */\n      dup10\n        /* \"#utility.yul\":15600:15619   */\n      add\n        /* \"#utility.yul\":15594:15620   */\n      mload\n        /* \"#utility.yul\":15652:15700   */\n      tag_400\n        /* \"#utility.yul\":15694:15698   */\n      0x1f\n        /* \"#utility.yul\":15686:15692   */\n      dup10\n        /* \"#utility.yul\":15682:15699   */\n      and\n        /* \"#utility.yul\":15671:15680   */\n      dup3\n        /* \"#utility.yul\":15652:15700   */\n      tag_223\n      jump\t// in\n    tag_400:\n        /* \"#utility.yul\":15644:15650   */\n      dup4\n        /* \"#utility.yul\":15637:15701   */\n      sstore\n        /* \"#utility.yul\":15559:15715   */\n      pop\n        /* \"#utility.yul\":15536:15715   */\n    tag_399:\n        /* \"#utility.yul\":15761:15762   */\n      0x01\n        /* \"#utility.yul\":15757:15758   */\n      0x02\n        /* \"#utility.yul\":15749:15755   */\n      dup9\n        /* \"#utility.yul\":15745:15759   */\n      mul\n        /* \"#utility.yul\":15741:15763   */\n      add\n        /* \"#utility.yul\":15735:15739   */\n      dup9\n        /* \"#utility.yul\":15728:15764   */\n      sstore\n        /* \"#utility.yul\":15163:15774   */\n      pop\n      pop\n      pop\n        /* \"#utility.yul\":15126:16013   */\n    tag_391:\n      pop\n        /* \"#utility.yul\":14716:16019   */\n      pop\n      pop\n      pop\n        /* \"#utility.yul\":14624:16019   */\n      pop\n      pop\n      jump\t// out\n        /* \"#utility.yul\":16025:16186   */\n    tag_225:\n        /* \"#utility.yul\":16165:16178   */\n      0x4e4f545f4d414e41474552000000000000000000000000000000000000000000\n        /* \"#utility.yul\":16161:16162   */\n      0x00\n        /* \"#utility.yul\":16153:16159   */\n      dup3\n        /* \"#utility.yul\":16149:16163   */\n      add\n        /* \"#utility.yul\":16142:16179   */\n      mstore\n        /* \"#utility.yul\":16025:16186   */\n      pop\n      jump\t// out\n        /* \"#utility.yul\":16192:16558   */\n    tag_226:\n        /* \"#utility.yul\":16334:16337   */\n      0x00\n        /* \"#utility.yul\":16355:16422   */\n      tag_403\n        /* \"#utility.yul\":16419:16421   */\n      0x0b\n        /* \"#utility.yul\":16414:16417   */\n      dup4\n        /* \"#utility.yul\":16355:16422   */\n      tag_176\n      jump\t// in\n    tag_403:\n        /* \"#utility.yul\":16348:16422   */\n      swap2\n      pop\n        /* \"#utility.yul\":16431:16524   */\n      tag_404\n        /* \"#utility.yul\":16520:16523   */\n      dup3\n        /* \"#utility.yul\":16431:16524   */\n      tag_225\n      jump\t// in\n    tag_404:\n        /* \"#utility.yul\":16549:16551   */\n      0x20\n        /* \"#utility.yul\":16544:16547   */\n      dup3\n        /* \"#utility.yul\":16540:16552   */\n      add\n        /* \"#utility.yul\":16533:16552   */\n      swap1\n      pop\n        /* \"#utility.yul\":16192:16558   */\n      swap2\n      swap1\n      pop\n      jump\t// out\n        /* \"#utility.yul\":16564:16983   */\n    tag_111:\n        /* \"#utility.yul\":16730:16734   */\n      0x00\n        /* \"#utility.yul\":16768:16770   */\n      0x20\n        /* \"#utility.yul\":16757:16766   */\n      dup3\n        /* \"#utility.yul\":16753:16771   */\n      add\n        /* \"#utility.yul\":16745:16771   */\n      swap1\n      pop\n        /* \"#utility.yul\":16817:16826   */\n      dup2\n        /* \"#utility.yul\":16811:16815   */\n      dup2\n        /* \"#utility.yul\":16807:16827   */\n      sub\n        /* \"#utility.yul\":16803:16804   */\n      0x00\n        /* \"#utility.yul\":16792:16801   */\n      dup4\n        /* \"#utility.yul\":16788:16805   */\n      add\n        /* \"#utility.yul\":16781:16828   */\n      mstore\n        /* \"#utility.yul\":16845:16976   */\n      tag_406\n        /* \"#utility.yul\":16971:16975   */\n      dup2\n        /* \"#utility.yul\":16845:16976   */\n      tag_226\n      jump\t// in\n    tag_406:\n        /* \"#utility.yul\":16837:16976   */\n      swap1\n      pop\n        /* \"#utility.yul\":16564:16983   */\n      swap2\n      swap1\n      pop\n      jump\t// out\n        /* \"#utility.yul\":16989:17431   */\n    tag_141:\n        /* \"#utility.yul\":17138:17142   */\n      0x00\n        /* \"#utility.yul\":17176:17178   */\n      0x60\n        /* \"#utility.yul\":17165:17174   */\n      dup3\n        /* \"#utility.yul\":17161:17179   */\n      add\n        /* \"#utility.yul\":17153:17179   */\n      swap1\n      pop\n        /* \"#utility.yul\":17189:17260   */\n      tag_408\n        /* \"#utility.yul\":17257:17258   */\n      0x00\n        /* \"#utility.yul\":17246:17255   */\n      dup4\n        /* \"#utility.yul\":17242:17259   */\n      add\n        /* \"#utility.yul\":17233:17239   */\n      dup7\n        /* \"#utility.yul\":17189:17260   */\n      tag_204\n      jump\t// in\n    tag_408:\n        /* \"#utility.yul\":17270:17342   */\n      tag_409\n        /* \"#utility.yul\":17338:17340   */\n      0x20\n        /* \"#utility.yul\":17327:17336   */\n      dup4\n        /* \"#utility.yul\":17323:17341   */\n      add\n        /* \"#utility.yul\":17314:17320   */\n      dup6\n        /* \"#utility.yul\":17270:17342   */\n      tag_201\n      jump\t// in\n    tag_409:\n        /* \"#utility.yul\":17352:17424   */\n      tag_410\n        /* \"#utility.yul\":17420:17422   */\n      0x40\n        /* \"#utility.yul\":17409:17418   */\n      dup4\n        /* \"#utility.yul\":17405:17423   */\n      add\n        /* \"#utility.yul\":17396:17402   */\n      dup5\n        /* \"#utility.yul\":17352:17424   */\n      tag_201\n      jump\t// in\n    tag_410:\n        /* \"#utility.yul\":16989:17431   */\n      swap5\n      swap4\n      pop\n      pop\n      pop\n      pop\n      jump\t// out\n        /* \"#utility.yul\":17437:17617   */\n    tag_227:\n        /* \"#utility.yul\":17485:17562   */\n      0x4e487b7100000000000000000000000000000000000000000000000000000000\n        /* \"#utility.yul\":17482:17483   */\n      0x00\n        /* \"#utility.yul\":17475:17563   */\n      mstore\n        /* \"#utility.yul\":17582:17586   */\n      0x11\n        /* \"#utility.yul\":17579:17580   */\n      0x04\n        /* \"#utility.yul\":17572:17587   */\n      mstore\n        /* \"#utility.yul\":17606:17610   */\n      0x24\n        /* \"#utility.yul\":17603:17604   */\n      0x00\n        /* \"#utility.yul\":17596:17611   */\n      revert\n        /* \"#utility.yul\":17623:17814   */\n    tag_168:\n        /* \"#utility.yul\":17663:17666   */\n      0x00\n        /* \"#utility.yul\":17682:17702   */\n      tag_413\n        /* \"#utility.yul\":17700:17701   */\n      dup3\n        /* \"#utility.yul\":17682:17702   */\n      tag_196\n      jump\t// in\n    tag_413:\n        /* \"#utility.yul\":17677:17702   */\n      swap2\n      pop\n        /* \"#utility.yul\":17716:17736   */\n      tag_414\n        /* \"#utility.yul\":17734:17735   */\n      dup4\n        /* \"#utility.yul\":17716:17736   */\n      tag_196\n      jump\t// in\n    tag_414:\n        /* \"#utility.yul\":17711:17736   */\n      swap3\n      pop\n        /* \"#utility.yul\":17759:17760   */\n      dup3\n        /* \"#utility.yul\":17756:17757   */\n      dup3\n        /* \"#utility.yul\":17752:17761   */\n      add\n        /* \"#utility.yul\":17745:17761   */\n      swap1\n      pop\n        /* \"#utility.yul\":17780:17783   */\n      dup1\n        /* \"#utility.yul\":17777:17778   */\n      dup3\n        /* \"#utility.yul\":17774:17784   */\n      gt\n        /* \"#utility.yul\":17771:17807   */\n      iszero\n      tag_415\n      jumpi\n        /* \"#utility.yul\":17787:17805   */\n      tag_416\n      tag_227\n      jump\t// in\n    tag_416:\n        /* \"#utility.yul\":17771:17807   */\n    tag_415:\n        /* \"#utility.yul\":17623:17814   */\n      swap3\n      swap2\n      pop\n      pop\n      jump\t// out\n\n    auxdata: 0xa26469706673582212203dc362c8558d02aa01a7a773969fde78ba9c6614024fac39528e7770df1aba0c64736f6c63430008220033\n}\n",
				"bytecode": {
					"linkReferences": {},
					"object": "608060405234801561000f575f5ffd5b506040518060400160405280600b81526020017f504c414345484f4c4445520000000000000000000000000000000000000000008152506040518060400160405280600381526020017f504c480000000000000000000000000000000000000000000000000000000000815250816003908161008b91906102f1565b50806004908161009b91906102f1565b5050506103c0565b5f81519050919050565b7f4e487b71000000000000000000000000000000000000000000000000000000005f52604160045260245ffd5b7f4e487b71000000000000000000000000000000000000000000000000000000005f52602260045260245ffd5b5f600282049050600182168061011e57607f821691505b602082108103610131576101306100da565b5b50919050565b5f819050815f5260205f209050919050565b5f6020601f8301049050919050565b5f82821b905092915050565b5f600883026101937fffffffffffffffffffffffffffffffffffffffffffffffffffffffffffffffff82610158565b61019d8683610158565b95508019841693508086168417925050509392505050565b5f819050919050565b5f819050919050565b5f6101e16101dc6101d7846101b5565b6101be565b6101b5565b9050919050565b5f819050919050565b6101fa836101c7565b61020e610206826101e8565b848454610164565b825550505050565b5f5f905090565b610225610216565b6102308184846101f1565b505050565b5f5b828110156102565761024b5f82840161021d565b600181019050610237565b505050565b601f8211156102a957828211156102a85761027581610137565b61027e83610149565b61028785610149565b6020861015610294575f90505b8083016102a382840382610235565b505050505b5b505050565b5f82821c905092915050565b5f6102c95f19846008026102ae565b1980831691505092915050565b5f6102e183836102ba565b9150826002028217905092915050565b6102fa826100a3565b67ffffffffffffffff811115610313576103126100ad565b5b61031d8254610107565b61032882828561025b565b5f60209050601f831160018114610359575f8415610347578287015190505b61035185826102d6565b8655506103b8565b601f19841661036786610137565b5f5b8281101561038e57848901518255600182019150602085019450602081019050610369565b868310156103ab57848901516103a7601f8916826102ba565b8355505b6001600288020188555050505b505050505050565b6117f0806103cd5f395ff3fe608060405234801561000f575f5ffd5b50600436106100e8575f3560e01c806340c10f191161008a57806395d89b411161006457806395d89b411461024a5780639dc29fac14610268578063a9059cbb14610284578063dd62ed3e146102b4576100e8565b806340c10f19146101e0578063481c6a75146101fc57806370a082311461021a576100e8565b8063158ef93e116100c6578063158ef93e1461015657806318160ddd1461017457806323b872dd14610192578063313ce567146101c2576100e8565b806306fdde03146100ec578063077f224a1461010a578063095ea7b314610126575b5f5ffd5b6100f46102e4565b6040516101019190610ef0565b60405180910390f35b610124600480360381019061011f91906110a7565b610374565b005b610140600480360381019061013b9190611162565b6104b2565b60405161014d91906111ba565b60405180910390f35b61015e6104d4565b60405161016b91906111ba565b60405180910390f35b61017c6104e7565b60405161018991906111e2565b60405180910390f35b6101ac60048036038101906101a791906111fb565b6104f0565b6040516101b991906111ba565b60405180910390f35b6101ca61051e565b6040516101d79190611266565b60405180910390f35b6101fa60048036038101906101f59190611162565b610526565b005b6102046105c3565b604051610211919061128e565b60405180910390f35b610234600480360381019061022f91906112a7565b6105e8565b60405161024191906111e2565b60405180910390f35b61025261062d565b60405161025f9190610ef0565b60405180910390f35b610282600480360381019061027d9190611162565b6106bd565b005b61029e60048036038101906102999190611162565b61075a565b6040516102ab91906111ba565b60405180910390f35b6102ce60048036038101906102c991906112d2565b61077c565b6040516102db91906111e2565b60405180910390f35b6060600680546102f39061133d565b80601f016020809104026020016040519081016040528092919081815260200182805461031f9061133d565b801561036a5780601f106103415761010080835404028352916020019161036a565b820191905f5260205f20905b81548152906001019060200180831161034d57829003601f168201915b5050505050905090565b600560149054906101000a900460ff16156103c4576040517f08c379a00000000000000000000000000000000000000000000000000000000081526004016103bb906113b7565b60405180910390fd5b5f73ffffffffffffffffffffffffffffffffffffffff168173ffffffffffffffffffffffffffffffffffffffff1603610432576040517f08c379a00000000000000000000000000000000000000000000000000000000081526004016104299061141f565b60405180910390fd5b8060055f6101000a81548173ffffffffffffffffffffffffffffffffffffffff021916908373ffffffffffffffffffffffffffffffffffffffff160217905550826006908161048191906115ee565b50816007908161049191906115ee565b506001600560146101000a81548160ff021916908315150217905550505050565b5f5f6104bc6107fe565b90506104c9818585610805565b600191505092915050565b600560149054906101000a900460ff1681565b5f600254905090565b5f5f6104fa6107fe565b9050610507858285610817565b6105128585856108aa565b60019150509392505050565b5f6012905090565b60055f9054906101000a900473ffffffffffffffffffffffffffffffffffffffff1673ffffffffffffffffffffffffffffffffffffffff163373ffffffffffffffffffffffffffffffffffffffff16146105b5576040517f08c379a00000000000000000000000000000000000000000000000000000000081526004016105ac90611707565b60405180910390fd5b6105bf828261099a565b5050565b60055f9054906101000a900473ffffffffffffffffffffffffffffffffffffffff1681565b5f5f5f8373ffffffffffffffffffffffffffffffffffffffff1673ffffffffffffffffffffffffffffffffffffffff1681526020019081526020015f20549050919050565b60606007805461063c9061133d565b80601f01602080910402602001604051908101604052809291908181526020018280546106689061133d565b80156106b35780601f1061068a576101008083540402835291602001916106b3565b820191905f5260205f20905b81548152906001019060200180831161069657829003601f168201915b5050505050905090565b60055f9054906101000a900473ffffffffffffffffffffffffffffffffffffffff1673ffffffffffffffffffffffffffffffffffffffff163373ffffffffffffffffffffffffffffffffffffffff161461074c576040517f08c379a000000000000000000000000000000000000000000000000000000000815260040161074390611707565b60405180910390fd5b6107568282610a19565b5050565b5f5f6107646107fe565b90506107718185856108aa565b600191505092915050565b5f60015f8473ffffffffffffffffffffffffffffffffffffffff1673ffffffffffffffffffffffffffffffffffffffff1681526020019081526020015f205f8373ffffffffffffffffffffffffffffffffffffffff1673ffffffffffffffffffffffffffffffffffffffff1681526020019081526020015f2054905092915050565b5f33905090565b6108128383836001610a98565b505050565b5f610822848461077c565b90507fffffffffffffffffffffffffffffffffffffffffffffffffffffffffffffffff8110156108a45781811015610895578281836040517ffb8f41b200000000000000000000000000000000000000000000000000000000815260040161088c93929190611725565b60405180910390fd5b6108a384848484035f610a98565b5b50505050565b5f73ffffffffffffffffffffffffffffffffffffffff168373ffffffffffffffffffffffffffffffffffffffff160361091a575f6040517f96c6fd1e000000000000000000000000000000000000000000000000000000008152600401610911919061128e565b60405180910390fd5b5f73ffffffffffffffffffffffffffffffffffffffff168273ffffffffffffffffffffffffffffffffffffffff160361098a575f6040517fec442f05000000000000000000000000000000000000000000000000000000008152600401610981919061128e565b60405180910390fd5b610995838383610c67565b505050565b5f73ffffffffffffffffffffffffffffffffffffffff168273ffffffffffffffffffffffffffffffffffffffff1603610a0a575f6040517fec442f05000000000000000000000000000000000000000000000000000000008152600401610a01919061128e565b60405180910390fd5b610a155f8383610c67565b5050565b5f73ffffffffffffffffffffffffffffffffffffffff168273ffffffffffffffffffffffffffffffffffffffff1603610a89575f6040517f96c6fd1e000000000000000000000000000000000000000000000000000000008152600401610a80919061128e565b60405180910390fd5b610a94825f83610c67565b5050565b5f73ffffffffffffffffffffffffffffffffffffffff168473ffffffffffffffffffffffffffffffffffffffff1603610b08575f6040517fe602df05000000000000000000000000000000000000000000000000000000008152600401610aff919061128e565b60405180910390fd5b5f73ffffffffffffffffffffffffffffffffffffffff168373ffffffffffffffffffffffffffffffffffffffff1603610b78575f6040517f94280d62000000000000000000000000000000000000000000000000000000008152600401610b6f919061128e565b60405180910390fd5b8160015f8673ffffffffffffffffffffffffffffffffffffffff1673ffffffffffffffffffffffffffffffffffffffff1681526020019081526020015f205f8573ffffffffffffffffffffffffffffffffffffffff1673ffffffffffffffffffffffffffffffffffffffff1681526020019081526020015f20819055508015610c61578273ffffffffffffffffffffffffffffffffffffffff168473ffffffffffffffffffffffffffffffffffffffff167f8c5be1e5ebec7d5bd14f71427d1e84f3dd0314c0f7b2291e5b200ac8c7c3b92584604051610c5891906111e2565b60405180910390a35b50505050565b5f73ffffffffffffffffffffffffffffffffffffffff168373ffffffffffffffffffffffffffffffffffffffff1603610cb7578060025f828254610cab9190611787565b92505081905550610d85565b5f5f5f8573ffffffffffffffffffffffffffffffffffffffff1673ffffffffffffffffffffffffffffffffffffffff1681526020019081526020015f2054905081811015610d40578381836040517fe450d38c000000000000000000000000000000000000000000000000000000008152600401610d3793929190611725565b60405180910390fd5b8181035f5f8673ffffffffffffffffffffffffffffffffffffffff1673ffffffffffffffffffffffffffffffffffffffff1681526020019081526020015f2081905550505b5f73ffffffffffffffffffffffffffffffffffffffff168273ffffffffffffffffffffffffffffffffffffffff1603610dcc578060025f8282540392505081905550610e16565b805f5f8473ffffffffffffffffffffffffffffffffffffffff1673ffffffffffffffffffffffffffffffffffffffff1681526020019081526020015f205f82825401925050819055505b8173ffffffffffffffffffffffffffffffffffffffff168373ffffffffffffffffffffffffffffffffffffffff167fddf252ad1be2c89b69c2b068fc378daa952ba7f163c4a11628f55a4df523b3ef83604051610e7391906111e2565b60405180910390a3505050565b5f81519050919050565b5f82825260208201905092915050565b8281835e5f83830152505050565b5f601f19601f8301169050919050565b5f610ec282610e80565b610ecc8185610e8a565b9350610edc818560208601610e9a565b610ee581610ea8565b840191505092915050565b5f6020820190508181035f830152610f088184610eb8565b905092915050565b5f604051905090565b5f5ffd5b5f5ffd5b5f5ffd5b5f5ffd5b7f4e487b71000000000000000000000000000000000000000000000000000000005f52604160045260245ffd5b610f5f82610ea8565b810181811067ffffffffffffffff82111715610f7e57610f7d610f29565b5b80604052505050565b5f610f90610f10565b9050610f9c8282610f56565b919050565b5f67ffffffffffffffff821115610fbb57610fba610f29565b5b610fc482610ea8565b9050602081019050919050565b828183375f83830152505050565b5f610ff1610fec84610fa1565b610f87565b90508281526020810184848401111561100d5761100c610f25565b5b611018848285610fd1565b509392505050565b5f82601f83011261103457611033610f21565b5b8135611044848260208601610fdf565b91505092915050565b5f73ffffffffffffffffffffffffffffffffffffffff82169050919050565b5f6110768261104d565b9050919050565b6110868161106c565b8114611090575f5ffd5b50565b5f813590506110a18161107d565b92915050565b5f5f5f606084860312156110be576110bd610f19565b5b5f84013567ffffffffffffffff8111156110db576110da610f1d565b5b6110e786828701611020565b935050602084013567ffffffffffffffff81111561110857611107610f1d565b5b61111486828701611020565b925050604061112586828701611093565b9150509250925092565b5f819050919050565b6111418161112f565b811461114b575f5ffd5b50565b5f8135905061115c81611138565b92915050565b5f5f6040838503121561117857611177610f19565b5b5f61118585828601611093565b92505060206111968582860161114e565b9150509250929050565b5f8115159050919050565b6111b4816111a0565b82525050565b5f6020820190506111cd5f8301846111ab565b92915050565b6111dc8161112f565b82525050565b5f6020820190506111f55f8301846111d3565b92915050565b5f5f5f6060848603121561121257611211610f19565b5b5f61121f86828701611093565b935050602061123086828701611093565b92505060406112418682870161114e565b9150509250925092565b5f60ff82169050919050565b6112608161124b565b82525050565b5f6020820190506112795f830184611257565b92915050565b6112888161106c565b82525050565b5f6020820190506112a15f83018461127f565b92915050565b5f602082840312156112bc576112bb610f19565b5b5f6112c984828501611093565b91505092915050565b5f5f604083850312156112e8576112e7610f19565b5b5f6112f585828601611093565b925050602061130685828601611093565b9150509250929050565b7f4e487b71000000000000000000000000000000000000000000000000000000005f52602260045260245ffd5b5f600282049050600182168061135457607f821691505b60208210810361136757611366611310565b5b50919050565b7f414c52454144595f494e495400000000000000000000000000000000000000005f82015250565b5f6113a1600c83610e8a565b91506113ac8261136d565b602082019050919050565b5f6020820190508181035f8301526113ce81611395565b9050919050565b7f5a45524f5f4d414e4147455200000000000000000000000000000000000000005f82015250565b5f611409600c83610e8a565b9150611414826113d5565b602082019050919050565b5f6020820190508181035f830152611436816113fd565b9050919050565b5f819050815f5260205f209050919050565b5f6020601f8301049050919050565b5f82821b905092915050565b5f600883026114997fffffffffffffffffffffffffffffffffffffffffffffffffffffffffffffffff8261145e565b6114a3868361145e565b95508019841693508086168417925050509392505050565b5f819050919050565b5f6114de6114d96114d48461112f565b6114bb565b61112f565b9050919050565b5f819050919050565b6114f7836114c4565b61150b611503826114e5565b84845461146a565b825550505050565b5f5f905090565b611522611513565b61152d8184846114ee565b505050565b5f5b82811015611553576115485f82840161151a565b600181019050611534565b505050565b601f8211156115a657828211156115a5576115728161143d565b61157b8361144f565b6115848561144f565b6020861015611591575f90505b8083016115a082840382611532565b505050505b5b505050565b5f82821c905092915050565b5f6115c65f19846008026115ab565b1980831691505092915050565b5f6115de83836115b7565b9150826002028217905092915050565b6115f782610e80565b67ffffffffffffffff8111156116105761160f610f29565b5b61161a825461133d565b611625828285611558565b5f60209050601f831160018114611656575f8415611644578287015190505b61164e85826115d3565b8655506116b5565b601f1984166116648661143d565b5f5b8281101561168b57848901518255600182019150602085019450602081019050611666565b868310156116a857848901516116a4601f8916826115b7565b8355505b6001600288020188555050505b505050505050565b7f4e4f545f4d414e414745520000000000000000000000000000000000000000005f82015250565b5f6116f1600b83610e8a565b91506116fc826116bd565b602082019050919050565b5f6020820190508181035f83015261171e816116e5565b9050919050565b5f6060820190506117385f83018661127f565b61174560208301856111d3565b61175260408301846111d3565b949350505050565b7f4e487b71000000000000000000000000000000000000000000000000000000005f52601160045260245ffd5b5f6117918261112f565b915061179c8361112f565b92508282019050808211156117b4576117b361175a565b5b9291505056fea26469706673582212203dc362c8558d02aa01a7a773969fde78ba9c6614024fac39528e7770df1aba0c64736f6c63430008220033",
					"opcodes": "PUSH1 0x80 PUSH1 0x40 MSTORE CALLVALUE DUP1 ISZERO PUSH2 0xF JUMPI PUSH0 PUSH0 REVERT JUMPDEST POP PUSH1 0x40 MLOAD DUP1 PUSH1 0x40 ADD PUSH1 0x40 MSTORE DUP1 PUSH1 0xB DUP2 MSTORE PUSH1 0x20 ADD PUSH32 0x504C414345484F4C444552000000000000000000000000000000000000000000 DUP2 MSTORE POP PUSH1 0x40 MLOAD DUP1 PUSH1 0x40 ADD PUSH1 0x40 MSTORE DUP1 PUSH1 0x3 DUP2 MSTORE PUSH1 0x20 ADD PUSH32 0x504C480000000000000000000000000000000000000000000000000000000000 DUP2 MSTORE POP DUP2 PUSH1 0x3 SWAP1 DUP2 PUSH2 0x8B SWAP2 SWAP1 PUSH2 0x2F1 JUMP JUMPDEST POP DUP1 PUSH1 0x4 SWAP1 DUP2 PUSH2 0x9B SWAP2 SWAP1 PUSH2 0x2F1 JUMP JUMPDEST POP POP POP PUSH2 0x3C0 JUMP JUMPDEST PUSH0 DUP2 MLOAD SWAP1 POP SWAP2 SWAP1 POP JUMP JUMPDEST PUSH32 0x4E487B7100000000000000000000000000000000000000000000000000000000 PUSH0 MSTORE PUSH1 0x41 PUSH1 0x4 MSTORE PUSH1 0x24 PUSH0 REVERT JUMPDEST PUSH32 0x4E487B7100000000000000000000000000000000000000000000000000000000 PUSH0 MSTORE PUSH1 0x22 PUSH1 0x4 MSTORE PUSH1 0x24 PUSH0 REVERT JUMPDEST PUSH0 PUSH1 0x2 DUP3 DIV SWAP1 POP PUSH1 0x1 DUP3 AND DUP1 PUSH2 0x11E JUMPI PUSH1 0x7F DUP3 AND SWAP2 POP JUMPDEST PUSH1 0x20 DUP3 LT DUP2 SUB PUSH2 0x131 JUMPI PUSH2 0x130 PUSH2 0xDA JUMP JUMPDEST JUMPDEST POP SWAP2 SWAP1 POP JUMP JUMPDEST PUSH0 DUP2 SWAP1 POP DUP2 PUSH0 MSTORE PUSH1 0x20 PUSH0 KECCAK256 SWAP1 POP SWAP2 SWAP1 POP JUMP JUMPDEST PUSH0 PUSH1 0x20 PUSH1 0x1F DUP4 ADD DIV SWAP1 POP SWAP2 SWAP1 POP JUMP JUMPDEST PUSH0 DUP3 DUP3 SHL SWAP1 POP SWAP3 SWAP2 POP POP JUMP JUMPDEST PUSH0 PUSH1 0x8 DUP4 MUL PUSH2 0x193 PUSH32 0xFFFFFFFFFFFFFFFFFFFFFFFFFFFFFFFFFFFFFFFFFFFFFFFFFFFFFFFFFFFFFFFF DUP3 PUSH2 0x158 JUMP JUMPDEST PUSH2 0x19D DUP7 DUP4 PUSH2 0x158 JUMP JUMPDEST SWAP6 POP DUP1 NOT DUP5 AND SWAP4 POP DUP1 DUP7 AND DUP5 OR SWAP3 POP POP POP SWAP4 SWAP3 POP POP POP JUMP JUMPDEST PUSH0 DUP2 SWAP1 POP SWAP2 SWAP1 POP JUMP JUMPDEST PUSH0 DUP2 SWAP1 POP SWAP2 SWAP1 POP JUMP JUMPDEST PUSH0 PUSH2 0x1E1 PUSH2 0x1DC PUSH2 0x1D7 DUP5 PUSH2 0x1B5 JUMP JUMPDEST PUSH2 0x1BE JUMP JUMPDEST PUSH2 0x1B5 JUMP JUMPDEST SWAP1 POP SWAP2 SWAP1 POP JUMP JUMPDEST PUSH0 DUP2 SWAP1 POP SWAP2 SWAP1 POP JUMP JUMPDEST PUSH2 0x1FA DUP4 PUSH2 0x1C7 JUMP JUMPDEST PUSH2 0x20E PUSH2 0x206 DUP3 PUSH2 0x1E8 JUMP JUMPDEST DUP5 DUP5 SLOAD PUSH2 0x164 JUMP JUMPDEST DUP3 SSTORE POP POP POP POP JUMP JUMPDEST PUSH0 PUSH0 SWAP1 POP SWAP1 JUMP JUMPDEST PUSH2 0x225 PUSH2 0x216 JUMP JUMPDEST PUSH2 0x230 DUP2 DUP5 DUP5 PUSH2 0x1F1 JUMP JUMPDEST POP POP POP JUMP JUMPDEST PUSH0 JUMPDEST DUP3 DUP2 LT ISZERO PUSH2 0x256 JUMPI PUSH2 0x24B PUSH0 DUP3 DUP5 ADD PUSH2 0x21D JUMP JUMPDEST PUSH1 0x1 DUP2 ADD SWAP1 POP PUSH2 0x237 JUMP JUMPDEST POP POP POP JUMP JUMPDEST PUSH1 0x1F DUP3 GT ISZERO PUSH2 0x2A9 JUMPI DUP3 DUP3 GT ISZERO PUSH2 0x2A8 JUMPI PUSH2 0x275 DUP2 PUSH2 0x137 JUMP JUMPDEST PUSH2 0x27E DUP4 PUSH2 0x149 JUMP JUMPDEST PUSH2 0x287 DUP6 PUSH2 0x149 JUMP JUMPDEST PUSH1 0x20 DUP7 LT ISZERO PUSH2 0x294 JUMPI PUSH0 SWAP1 POP JUMPDEST DUP1 DUP4 ADD PUSH2 0x2A3 DUP3 DUP5 SUB DUP3 PUSH2 0x235 JUMP JUMPDEST POP POP POP POP JUMPDEST JUMPDEST POP POP POP JUMP JUMPDEST PUSH0 DUP3 DUP3 SHR SWAP1 POP SWAP3 SWAP2 POP POP JUMP JUMPDEST PUSH0 PUSH2 0x2C9 PUSH0 NOT DUP5 PUSH1 0x8 MUL PUSH2 0x2AE JUMP JUMPDEST NOT DUP1 DUP4 AND SWAP2 POP POP SWAP3 SWAP2 POP POP JUMP JUMPDEST PUSH0 PUSH2 0x2E1 DUP4 DUP4 PUSH2 0x2BA JUMP JUMPDEST SWAP2 POP DUP3 PUSH1 0x2 MUL DUP3 OR SWAP1 POP SWAP3 SWAP2 POP POP JUMP JUMPDEST PUSH2 0x2FA DUP3 PUSH2 0xA3 JUMP JUMPDEST PUSH8 0xFFFFFFFFFFFFFFFF DUP2 GT ISZERO PUSH2 0x313 JUMPI PUSH2 0x312 PUSH2 0xAD JUMP JUMPDEST JUMPDEST PUSH2 0x31D DUP3 SLOAD PUSH2 0x107 JUMP JUMPDEST PUSH2 0x328 DUP3 DUP3 DUP6 PUSH2 0x25B JUMP JUMPDEST PUSH0 PUSH1 0x20 SWAP1 POP PUSH1 0x1F DUP4 GT PUSH1 0x1 DUP2 EQ PUSH2 0x359 JUMPI PUSH0 DUP5 ISZERO PUSH2 0x347 JUMPI DUP3 DUP8 ADD MLOAD SWAP1 POP JUMPDEST PUSH2 0x351 DUP6 DUP3 PUSH2 0x2D6 JUMP JUMPDEST DUP7 SSTORE POP PUSH2 0x3B8 JUMP JUMPDEST PUSH1 0x1F NOT DUP5 AND PUSH2 0x367 DUP7 PUSH2 0x137 JUMP JUMPDEST PUSH0 JUMPDEST DUP3 DUP2 LT ISZERO PUSH2 0x38E JUMPI DUP5 DUP10 ADD MLOAD DUP3 SSTORE PUSH1 0x1 DUP3 ADD SWAP2 POP PUSH1 0x20 DUP6 ADD SWAP5 POP PUSH1 0x20 DUP2 ADD SWAP1 POP PUSH2 0x369 JUMP JUMPDEST DUP7 DUP4 LT ISZERO PUSH2 0x3AB JUMPI DUP5 DUP10 ADD MLOAD PUSH2 0x3A7 PUSH1 0x1F DUP10 AND DUP3 PUSH2 0x2BA JUMP JUMPDEST DUP4 SSTORE POP JUMPDEST PUSH1 0x1 PUSH1 0x2 DUP9 MUL ADD DUP9 SSTORE POP POP POP JUMPDEST POP POP POP POP POP POP JUMP JUMPDEST PUSH2 0x17F0 DUP1 PUSH2 0x3CD PUSH0 CODECOPY PUSH0 RETURN INVALID PUSH1 0x80 PUSH1 0x40 MSTORE CALLVALUE DUP1 ISZERO PUSH2 0xF JUMPI PUSH0 PUSH0 REVERT JUMPDEST POP PUSH1 0x4 CALLDATASIZE LT PUSH2 0xE8 JUMPI PUSH0 CALLDATALOAD PUSH1 0xE0 SHR DUP1 PUSH4 0x40C10F19 GT PUSH2 0x8A JUMPI DUP1 PUSH4 0x95D89B41 GT PUSH2 0x64 JUMPI DUP1 PUSH4 0x95D89B41 EQ PUSH2 0x24A JUMPI DUP1 PUSH4 0x9DC29FAC EQ PUSH2 0x268 JUMPI DUP1 PUSH4 0xA9059CBB EQ PUSH2 0x284 JUMPI DUP1 PUSH4 0xDD62ED3E EQ PUSH2 0x2B4 JUMPI PUSH2 0xE8 JUMP JUMPDEST DUP1 PUSH4 0x40C10F19 EQ PUSH2 0x1E0 JUMPI DUP1 PUSH4 0x481C6A75 EQ PUSH2 0x1FC JUMPI DUP1 PUSH4 0x70A08231 EQ PUSH2 0x21A JUMPI PUSH2 0xE8 JUMP JUMPDEST DUP1 PUSH4 0x158EF93E GT PUSH2 0xC6 JUMPI DUP1 PUSH4 0x158EF93E EQ PUSH2 0x156 JUMPI DUP1 PUSH4 0x18160DDD EQ PUSH2 0x174 JUMPI DUP1 PUSH4 0x23B872DD EQ PUSH2 0x192 JUMPI DUP1 PUSH4 0x313CE567 EQ PUSH2 0x1C2 JUMPI PUSH2 0xE8 JUMP JUMPDEST DUP1 PUSH4 0x6FDDE03 EQ PUSH2 0xEC JUMPI DUP1 PUSH4 0x77F224A EQ PUSH2 0x10A JUMPI DUP1 PUSH4 0x95EA7B3 EQ PUSH2 0x126 JUMPI JUMPDEST PUSH0 PUSH0 REVERT JUMPDEST PUSH2 0xF4 PUSH2 0x2E4 JUMP JUMPDEST PUSH1 0x40 MLOAD PUSH2 0x101 SWAP2 SWAP1 PUSH2 0xEF0 JUMP JUMPDEST PUSH1 0x40 MLOAD DUP1 SWAP2 SUB SWAP1 RETURN JUMPDEST PUSH2 0x124 PUSH1 0x4 DUP1 CALLDATASIZE SUB DUP2 ADD SWAP1 PUSH2 0x11F SWAP2 SWAP1 PUSH2 0x10A7 JUMP JUMPDEST PUSH2 0x374 JUMP JUMPDEST STOP JUMPDEST PUSH2 0x140 PUSH1 0x4 DUP1 CALLDATASIZE SUB DUP2 ADD SWAP1 PUSH2 0x13B SWAP2 SWAP1 PUSH2 0x1162 JUMP JUMPDEST PUSH2 0x4B2 JUMP JUMPDEST PUSH1 0x40 MLOAD PUSH2 0x14D SWAP2 SWAP1 PUSH2 0x11BA JUMP JUMPDEST PUSH1 0x40 MLOAD DUP1 SWAP2 SUB SWAP1 RETURN JUMPDEST PUSH2 0x15E PUSH2 0x4D4 JUMP JUMPDEST PUSH1 0x40 MLOAD PUSH2 0x16B SWAP2 SWAP1 PUSH2 0x11BA JUMP JUMPDEST PUSH1 0x40 MLOAD DUP1 SWAP2 SUB SWAP1 RETURN JUMPDEST PUSH2 0x17C PUSH2 0x4E7 JUMP JUMPDEST PUSH1 0x40 MLOAD PUSH2 0x189 SWAP2 SWAP1 PUSH2 0x11E2 JUMP JUMPDEST PUSH1 0x40 MLOAD DUP1 SWAP2 SUB SWAP1 RETURN JUMPDEST PUSH2 0x1AC PUSH1 0x4 DUP1 CALLDATASIZE SUB DUP2 ADD SWAP1 PUSH2 0x1A7 SWAP2 SWAP1 PUSH2 0x11FB JUMP JUMPDEST PUSH2 0x4F0 JUMP JUMPDEST PUSH1 0x40 MLOAD PUSH2 0x1B9 SWAP2 SWAP1 PUSH2 0x11BA JUMP JUMPDEST PUSH1 0x40 MLOAD DUP1 SWAP2 SUB SWAP1 RETURN JUMPDEST PUSH2 0x1CA PUSH2 0x51E JUMP JUMPDEST PUSH1 0x40 MLOAD PUSH2 0x1D7 SWAP2 SWAP1 PUSH2 0x1266 JUMP JUMPDEST PUSH1 0x40 MLOAD DUP1 SWAP2 SUB SWAP1 RETURN JUMPDEST PUSH2 0x1FA PUSH1 0x4 DUP1 CALLDATASIZE SUB DUP2 ADD SWAP1 PUSH2 0x1F5 SWAP2 SWAP1 PUSH2 0x1162 JUMP JUMPDEST PUSH2 0x526 JUMP JUMPDEST STOP JUMPDEST PUSH2 0x204 PUSH2 0x5C3 JUMP JUMPDEST PUSH1 0x40 MLOAD PUSH2 0x211 SWAP2 SWAP1 PUSH2 0x128E JUMP JUMPDEST PUSH1 0x40 MLOAD DUP1 SWAP2 SUB SWAP1 RETURN JUMPDEST PUSH2 0x234 PUSH1 0x4 DUP1 CALLDATASIZE SUB DUP2 ADD SWAP1 PUSH2 0x22F SWAP2 SWAP1 PUSH2 0x12A7 JUMP JUMPDEST PUSH2 0x5E8 JUMP JUMPDEST PUSH1 0x40 MLOAD PUSH2 0x241 SWAP2 SWAP1 PUSH2 0x11E2 JUMP JUMPDEST PUSH1 0x40 MLOAD DUP1 SWAP2 SUB SWAP1 RETURN JUMPDEST PUSH2 0x252 PUSH2 0x62D JUMP JUMPDEST PUSH1 0x40 MLOAD PUSH2 0x25F SWAP2 SWAP1 PUSH2 0xEF0 JUMP JUMPDEST PUSH1 0x40 MLOAD DUP1 SWAP2 SUB SWAP1 RETURN JUMPDEST PUSH2 0x282 PUSH1 0x4 DUP1 CALLDATASIZE SUB DUP2 ADD SWAP1 PUSH2 0x27D SWAP2 SWAP1 PUSH2 0x1162 JUMP JUMPDEST PUSH2 0x6BD JUMP JUMPDEST STOP JUMPDEST PUSH2 0x29E PUSH1 0x4 DUP1 CALLDATASIZE SUB DUP2 ADD SWAP1 PUSH2 0x299 SWAP2 SWAP1 PUSH2 0x1162 JUMP JUMPDEST PUSH2 0x75A JUMP JUMPDEST PUSH1 0x40 MLOAD PUSH2 0x2AB SWAP2 SWAP1 PUSH2 0x11BA JUMP JUMPDEST PUSH1 0x40 MLOAD DUP1 SWAP2 SUB SWAP1 RETURN JUMPDEST PUSH2 0x2CE PUSH1 0x4 DUP1 CALLDATASIZE SUB DUP2 ADD SWAP1 PUSH2 0x2C9 SWAP2 SWAP1 PUSH2 0x12D2 JUMP JUMPDEST PUSH2 0x77C JUMP JUMPDEST PUSH1 0x40 MLOAD PUSH2 0x2DB SWAP2 SWAP1 PUSH2 0x11E2 JUMP JUMPDEST PUSH1 0x40 MLOAD DUP1 SWAP2 SUB SWAP1 RETURN JUMPDEST PUSH1 0x60 PUSH1 0x6 DUP1 SLOAD PUSH2 0x2F3 SWAP1 PUSH2 0x133D JUMP JUMPDEST DUP1 PUSH1 0x1F ADD PUSH1 0x20 DUP1 SWAP2 DIV MUL PUSH1 0x20 ADD PUSH1 0x40 MLOAD SWAP1 DUP2 ADD PUSH1 0x40 MSTORE DUP1 SWAP3 SWAP2 SWAP1 DUP2 DUP2 MSTORE PUSH1 0x20 ADD DUP3 DUP1 SLOAD PUSH2 0x31F SWAP1 PUSH2 0x133D JUMP JUMPDEST DUP1 ISZERO PUSH2 0x36A JUMPI DUP1 PUSH1 0x1F LT PUSH2 0x341 JUMPI PUSH2 0x100 DUP1 DUP4 SLOAD DIV MUL DUP4 MSTORE SWAP2 PUSH1 0x20 ADD SWAP2 PUSH2 0x36A JUMP JUMPDEST DUP3 ADD SWAP2 SWAP1 PUSH0 MSTORE PUSH1 0x20 PUSH0 KECCAK256 SWAP1 JUMPDEST DUP2 SLOAD DUP2 MSTORE SWAP1 PUSH1 0x1 ADD SWAP1 PUSH1 0x20 ADD DUP1 DUP4 GT PUSH2 0x34D JUMPI DUP3 SWAP1 SUB PUSH1 0x1F AND DUP3 ADD SWAP2 JUMPDEST POP POP POP POP POP SWAP1 POP SWAP1 JUMP JUMPDEST PUSH1 0x5 PUSH1 0x14 SWAP1 SLOAD SWAP1 PUSH2 0x100 EXP SWAP1 DIV PUSH1 0xFF AND ISZERO PUSH2 0x3C4 JUMPI PUSH1 0x40 MLOAD PUSH32 0x8C379A000000000000000000000000000000000000000000000000000000000 DUP2 MSTORE PUSH1 0x4 ADD PUSH2 0x3BB SWAP1 PUSH2 0x13B7 JUMP JUMPDEST PUSH1 0x40 MLOAD DUP1 SWAP2 SUB SWAP1 REVERT JUMPDEST PUSH0 PUSH20 0xFFFFFFFFFFFFFFFFFFFFFFFFFFFFFFFFFFFFFFFF AND DUP2 PUSH20 0xFFFFFFFFFFFFFFFFFFFFFFFFFFFFFFFFFFFFFFFF AND SUB PUSH2 0x432 JUMPI PUSH1 0x40 MLOAD PUSH32 0x8C379A000000000000000000000000000000000000000000000000000000000 DUP2 MSTORE PUSH1 0x4 ADD PUSH2 0x429 SWAP1 PUSH2 0x141F JUMP JUMPDEST PUSH1 0x40 MLOAD DUP1 SWAP2 SUB SWAP1 REVERT JUMPDEST DUP1 PUSH1 0x5 PUSH0 PUSH2 0x100 EXP DUP2 SLOAD DUP2 PUSH20 0xFFFFFFFFFFFFFFFFFFFFFFFFFFFFFFFFFFFFFFFF MUL NOT AND SWAP1 DUP4 PUSH20 0xFFFFFFFFFFFFFFFFFFFFFFFFFFFFFFFFFFFFFFFF AND MUL OR SWAP1 SSTORE POP DUP3 PUSH1 0x6 SWAP1 DUP2 PUSH2 0x481 SWAP2 SWAP1 PUSH2 0x15EE JUMP JUMPDEST POP DUP2 PUSH1 0x7 SWAP1 DUP2 PUSH2 0x491 SWAP2 SWAP1 PUSH2 0x15EE JUMP JUMPDEST POP PUSH1 0x1 PUSH1 0x5 PUSH1 0x14 PUSH2 0x100 EXP DUP2 SLOAD DUP2 PUSH1 0xFF MUL NOT AND SWAP1 DUP4 ISZERO ISZERO MUL OR SWAP1 SSTORE POP POP POP POP JUMP JUMPDEST PUSH0 PUSH0 PUSH2 0x4BC PUSH2 0x7FE JUMP JUMPDEST SWAP1 POP PUSH2 0x4C9 DUP2 DUP6 DUP6 PUSH2 0x805 JUMP JUMPDEST PUSH1 0x1 SWAP2 POP POP SWAP3 SWAP2 POP POP JUMP JUMPDEST PUSH1 0x5 PUSH1 0x14 SWAP1 SLOAD SWAP1 PUSH2 0x100 EXP SWAP1 DIV PUSH1 0xFF AND DUP2 JUMP JUMPDEST PUSH0 PUSH1 0x2 SLOAD SWAP1 POP SWAP1 JUMP JUMPDEST PUSH0 PUSH0 PUSH2 0x4FA PUSH2 0x7FE JUMP JUMPDEST SWAP1 POP PUSH2 0x507 DUP6 DUP3 DUP6 PUSH2 0x817 JUMP JUMPDEST PUSH2 0x512 DUP6 DUP6 DUP6 PUSH2 0x8AA JUMP JUMPDEST PUSH1 0x1 SWAP2 POP POP SWAP4 SWAP3 POP POP POP JUMP JUMPDEST PUSH0 PUSH1 0x12 SWAP1 POP SWAP1 JUMP JUMPDEST PUSH1 0x5 PUSH0 SWAP1 SLOAD SWAP1 PUSH2 0x100 EXP SWAP1 DIV PUSH20 0xFFFFFFFFFFFFFFFFFFFFFFFFFFFFFFFFFFFFFFFF AND PUSH20 0xFFFFFFFFFFFFFFFFFFFFFFFFFFFFFFFFFFFFFFFF AND CALLER PUSH20 0xFFFFFFFFFFFFFFFFFFFFFFFFFFFFFFFFFFFFFFFF AND EQ PUSH2 0x5B5 JUMPI PUSH1 0x40 MLOAD PUSH32 0x8C379A000000000000000000000000000000000000000000000000000000000 DUP2 MSTORE PUSH1 0x4 ADD PUSH2 0x5AC SWAP1 PUSH2 0x1707 JUMP JUMPDEST PUSH1 0x40 MLOAD DUP1 SWAP2 SUB SWAP1 REVERT JUMPDEST PUSH2 0x5BF DUP3 DUP3 PUSH2 0x99A JUMP JUMPDEST POP POP JUMP JUMPDEST PUSH1 0x5 PUSH0 SWAP1 SLOAD SWAP1 PUSH2 0x100 EXP SWAP1 DIV PUSH20 0xFFFFFFFFFFFFFFFFFFFFFFFFFFFFFFFFFFFFFFFF AND DUP2 JUMP JUMPDEST PUSH0 PUSH0 PUSH0 DUP4 PUSH20 0xFFFFFFFFFFFFFFFFFFFFFFFFFFFFFFFFFFFFFFFF AND PUSH20 0xFFFFFFFFFFFFFFFFFFFFFFFFFFFFFFFFFFFFFFFF AND DUP2 MSTORE PUSH1 0x20 ADD SWAP1 DUP2 MSTORE PUSH1 0x20 ADD PUSH0 KECCAK256 SLOAD SWAP1 POP SWAP2 SWAP1 POP JUMP JUMPDEST PUSH1 0x60 PUSH1 0x7 DUP1 SLOAD PUSH2 0x63C SWAP1 PUSH2 0x133D JUMP JUMPDEST DUP1 PUSH1 0x1F ADD PUSH1 0x20 DUP1 SWAP2 DIV MUL PUSH1 0x20 ADD PUSH1 0x40 MLOAD SWAP1 DUP2 ADD PUSH1 0x40 MSTORE DUP1 SWAP3 SWAP2 SWAP1 DUP2 DUP2 MSTORE PUSH1 0x20 ADD DUP3 DUP1 SLOAD PUSH2 0x668 SWAP1 PUSH2 0x133D JUMP JUMPDEST DUP1 ISZERO PUSH2 0x6B3 JUMPI DUP1 PUSH1 0x1F LT PUSH2 0x68A JUMPI PUSH2 0x100 DUP1 DUP4 SLOAD DIV MUL DUP4 MSTORE SWAP2 PUSH1 0x20 ADD SWAP2 PUSH2 0x6B3 JUMP JUMPDEST DUP3 ADD SWAP2 SWAP1 PUSH0 MSTORE PUSH1 0x20 PUSH0 KECCAK256 SWAP1 JUMPDEST DUP2 SLOAD DUP2 MSTORE SWAP1 PUSH1 0x1 ADD SWAP1 PUSH1 0x20 ADD DUP1 DUP4 GT PUSH2 0x696 JUMPI DUP3 SWAP1 SUB PUSH1 0x1F AND DUP3 ADD SWAP2 JUMPDEST POP POP POP POP POP SWAP1 POP SWAP1 JUMP JUMPDEST PUSH1 0x5 PUSH0 SWAP1 SLOAD SWAP1 PUSH2 0x100 EXP SWAP1 DIV PUSH20 0xFFFFFFFFFFFFFFFFFFFFFFFFFFFFFFFFFFFFFFFF AND PUSH20 0xFFFFFFFFFFFFFFFFFFFFFFFFFFFFFFFFFFFFFFFF AND CALLER PUSH20 0xFFFFFFFFFFFFFFFFFFFFFFFFFFFFFFFFFFFFFFFF AND EQ PUSH2 0x74C JUMPI PUSH1 0x40 MLOAD PUSH32 0x8C379A000000000000000000000000000000000000000000000000000000000 DUP2 MSTORE PUSH1 0x4 ADD PUSH2 0x743 SWAP1 PUSH2 0x1707 JUMP JUMPDEST PUSH1 0x40 MLOAD DUP1 SWAP2 SUB SWAP1 REVERT JUMPDEST PUSH2 0x756 DUP3 DUP3 PUSH2 0xA19 JUMP JUMPDEST POP POP JUMP JUMPDEST PUSH0 PUSH0 PUSH2 0x764 PUSH2 0x7FE JUMP JUMPDEST SWAP1 POP PUSH2 0x771 DUP2 DUP6 DUP6 PUSH2 0x8AA JUMP JUMPDEST PUSH1 0x1 SWAP2 POP POP SWAP3 SWAP2 POP POP JUMP JUMPDEST PUSH0 PUSH1 0x1 PUSH0 DUP5 PUSH20 0xFFFFFFFFFFFFFFFFFFFFFFFFFFFFFFFFFFFFFFFF AND PUSH20 0xFFFFFFFFFFFFFFFFFFFFFFFFFFFFFFFFFFFFFFFF AND DUP2 MSTORE PUSH1 0x20 ADD SWAP1 DUP2 MSTORE PUSH1 0x20 ADD PUSH0 KECCAK256 PUSH0 DUP4 PUSH20 0xFFFFFFFFFFFFFFFFFFFFFFFFFFFFFFFFFFFFFFFF AND PUSH20 0xFFFFFFFFFFFFFFFFFFFFFFFFFFFFFFFFFFFFFFFF AND DUP2 MSTORE PUSH1 0x20 ADD SWAP1 DUP2 MSTORE PUSH1 0x20 ADD PUSH0 KECCAK256 SLOAD SWAP1 POP SWAP3 SWAP2 POP POP JUMP JUMPDEST PUSH0 CALLER SWAP1 POP SWAP1 JUMP JUMPDEST PUSH2 0x812 DUP4 DUP4 DUP4 PUSH1 0x1 PUSH2 0xA98 JUMP JUMPDEST POP POP POP JUMP JUMPDEST PUSH0 PUSH2 0x822 DUP5 DUP5 PUSH2 0x77C JUMP JUMPDEST SWAP1 POP PUSH32 0xFFFFFFFFFFFFFFFFFFFFFFFFFFFFFFFFFFFFFFFFFFFFFFFFFFFFFFFFFFFFFFFF DUP2 LT ISZERO PUSH2 0x8A4 JUMPI DUP2 DUP2 LT ISZERO PUSH2 0x895 JUMPI DUP3 DUP2 DUP4 PUSH1 0x40 MLOAD PUSH32 0xFB8F41B200000000000000000000000000000000000000000000000000000000 DUP2 MSTORE PUSH1 0x4 ADD PUSH2 0x88C SWAP4 SWAP3 SWAP2 SWAP1 PUSH2 0x1725 JUMP JUMPDEST PUSH1 0x40 MLOAD DUP1 SWAP2 SUB SWAP1 REVERT JUMPDEST PUSH2 0x8A3 DUP5 DUP5 DUP5 DUP5 SUB PUSH0 PUSH2 0xA98 JUMP JUMPDEST JUMPDEST POP POP POP POP JUMP JUMPDEST PUSH0 PUSH20 0xFFFFFFFFFFFFFFFFFFFFFFFFFFFFFFFFFFFFFFFF AND DUP4 PUSH20 0xFFFFFFFFFFFFFFFFFFFFFFFFFFFFFFFFFFFFFFFF AND SUB PUSH2 0x91A JUMPI PUSH0 PUSH1 0x40 MLOAD PUSH32 0x96C6FD1E00000000000000000000000000000000000000000000000000000000 DUP2 MSTORE PUSH1 0x4 ADD PUSH2 0x911 SWAP2 SWAP1 PUSH2 0x128E JUMP JUMPDEST PUSH1 0x40 MLOAD DUP1 SWAP2 SUB SWAP1 REVERT JUMPDEST PUSH0 PUSH20 0xFFFFFFFFFFFFFFFFFFFFFFFFFFFFFFFFFFFFFFFF AND DUP3 PUSH20 0xFFFFFFFFFFFFFFFFFFFFFFFFFFFFFFFFFFFFFFFF AND SUB PUSH2 0x98A JUMPI PUSH0 PUSH1 0x40 MLOAD PUSH32 0xEC442F0500000000000000000000000000000000000000000000000000000000 DUP2 MSTORE PUSH1 0x4 ADD PUSH2 0x981 SWAP2 SWAP1 PUSH2 0x128E JUMP JUMPDEST PUSH1 0x40 MLOAD DUP1 SWAP2 SUB SWAP1 REVERT JUMPDEST PUSH2 0x995 DUP4 DUP4 DUP4 PUSH2 0xC67 JUMP JUMPDEST POP POP POP JUMP JUMPDEST PUSH0 PUSH20 0xFFFFFFFFFFFFFFFFFFFFFFFFFFFFFFFFFFFFFFFF AND DUP3 PUSH20 0xFFFFFFFFFFFFFFFFFFFFFFFFFFFFFFFFFFFFFFFF AND SUB PUSH2 0xA0A JUMPI PUSH0 PUSH1 0x40 MLOAD PUSH32 0xEC442F0500000000000000000000000000000000000000000000000000000000 DUP2 MSTORE PUSH1 0x4 ADD PUSH2 0xA01 SWAP2 SWAP1 PUSH2 0x128E JUMP JUMPDEST PUSH1 0x40 MLOAD DUP1 SWAP2 SUB SWAP1 REVERT JUMPDEST PUSH2 0xA15 PUSH0 DUP4 DUP4 PUSH2 0xC67 JUMP JUMPDEST POP POP JUMP JUMPDEST PUSH0 PUSH20 0xFFFFFFFFFFFFFFFFFFFFFFFFFFFFFFFFFFFFFFFF AND DUP3 PUSH20 0xFFFFFFFFFFFFFFFFFFFFFFFFFFFFFFFFFFFFFFFF AND SUB PUSH2 0xA89 JUMPI PUSH0 PUSH1 0x40 MLOAD PUSH32 0x96C6FD1E00000000000000000000000000000000000000000000000000000000 DUP2 MSTORE PUSH1 0x4 ADD PUSH2 0xA80 SWAP2 SWAP1 PUSH2 0x128E JUMP JUMPDEST PUSH1 0x40 MLOAD DUP1 SWAP2 SUB SWAP1 REVERT JUMPDEST PUSH2 0xA94 DUP3 PUSH0 DUP4 PUSH2 0xC67 JUMP JUMPDEST POP POP JUMP JUMPDEST PUSH0 PUSH20 0xFFFFFFFFFFFFFFFFFFFFFFFFFFFFFFFFFFFFFFFF AND DUP5 PUSH20 0xFFFFFFFFFFFFFFFFFFFFFFFFFFFFFFFFFFFFFFFF AND SUB PUSH2 0xB08 JUMPI PUSH0 PUSH1 0x40 MLOAD PUSH32 0xE602DF0500000000000000000000000000000000000000000000000000000000 DUP2 MSTORE PUSH1 0x4 ADD PUSH2 0xAFF SWAP2 SWAP1 PUSH2 0x128E JUMP JUMPDEST PUSH1 0x40 MLOAD DUP1 SWAP2 SUB SWAP1 REVERT JUMPDEST PUSH0 PUSH20 0xFFFFFFFFFFFFFFFFFFFFFFFFFFFFFFFFFFFFFFFF AND DUP4 PUSH20 0xFFFFFFFFFFFFFFFFFFFFFFFFFFFFFFFFFFFFFFFF AND SUB PUSH2 0xB78 JUMPI PUSH0 PUSH1 0x40 MLOAD PUSH32 0x94280D6200000000000000000000000000000000000000000000000000000000 DUP2 MSTORE PUSH1 0x4 ADD PUSH2 0xB6F SWAP2 SWAP1 PUSH2 0x128E JUMP JUMPDEST PUSH1 0x40 MLOAD DUP1 SWAP2 SUB SWAP1 REVERT JUMPDEST DUP2 PUSH1 0x1 PUSH0 DUP7 PUSH20 0xFFFFFFFFFFFFFFFFFFFFFFFFFFFFFFFFFFFFFFFF AND PUSH20 0xFFFFFFFFFFFFFFFFFFFFFFFFFFFFFFFFFFFFFFFF AND DUP2 MSTORE PUSH1 0x20 ADD SWAP1 DUP2 MSTORE PUSH1 0x20 ADD PUSH0 KECCAK256 PUSH0 DUP6 PUSH20 0xFFFFFFFFFFFFFFFFFFFFFFFFFFFFFFFFFFFFFFFF AND PUSH20 0xFFFFFFFFFFFFFFFFFFFFFFFFFFFFFFFFFFFFFFFF AND DUP2 MSTORE PUSH1 0x20 ADD SWAP1 DUP2 MSTORE PUSH1 0x20 ADD PUSH0 KECCAK256 DUP2 SWAP1 SSTORE POP DUP1 ISZERO PUSH2 0xC61 JUMPI DUP3 PUSH20 0xFFFFFFFFFFFFFFFFFFFFFFFFFFFFFFFFFFFFFFFF AND DUP5 PUSH20 0xFFFFFFFFFFFFFFFFFFFFFFFFFFFFFFFFFFFFFFFF AND PUSH32 0x8C5BE1E5EBEC7D5BD14F71427D1E84F3DD0314C0F7B2291E5B200AC8C7C3B925 DUP5 PUSH1 0x40 MLOAD PUSH2 0xC58 SWAP2 SWAP1 PUSH2 0x11E2 JUMP JUMPDEST PUSH1 0x40 MLOAD DUP1 SWAP2 SUB SWAP1 LOG3 JUMPDEST POP POP POP POP JUMP JUMPDEST PUSH0 PUSH20 0xFFFFFFFFFFFFFFFFFFFFFFFFFFFFFFFFFFFFFFFF AND DUP4 PUSH20 0xFFFFFFFFFFFFFFFFFFFFFFFFFFFFFFFFFFFFFFFF AND SUB PUSH2 0xCB7 JUMPI DUP1 PUSH1 0x2 PUSH0 DUP3 DUP3 SLOAD PUSH2 0xCAB SWAP2 SWAP1 PUSH2 0x1787 JUMP JUMPDEST SWAP3 POP POP DUP2 SWAP1 SSTORE POP PUSH2 0xD85 JUMP JUMPDEST PUSH0 PUSH0 PUSH0 DUP6 PUSH20 0xFFFFFFFFFFFFFFFFFFFFFFFFFFFFFFFFFFFFFFFF AND PUSH20 0xFFFFFFFFFFFFFFFFFFFFFFFFFFFFFFFFFFFFFFFF AND DUP2 MSTORE PUSH1 0x20 ADD SWAP1 DUP2 MSTORE PUSH1 0x20 ADD PUSH0 KECCAK256 SLOAD SWAP1 POP DUP2 DUP2 LT ISZERO PUSH2 0xD40 JUMPI DUP4 DUP2 DUP4 PUSH1 0x40 MLOAD PUSH32 0xE450D38C00000000000000000000000000000000000000000000000000000000 DUP2 MSTORE PUSH1 0x4 ADD PUSH2 0xD37 SWAP4 SWAP3 SWAP2 SWAP1 PUSH2 0x1725 JUMP JUMPDEST PUSH1 0x40 MLOAD DUP1 SWAP2 SUB SWAP1 REVERT JUMPDEST DUP2 DUP2 SUB PUSH0 PUSH0 DUP7 PUSH20 0xFFFFFFFFFFFFFFFFFFFFFFFFFFFFFFFFFFFFFFFF AND PUSH20 0xFFFFFFFFFFFFFFFFFFFFFFFFFFFFFFFFFFFFFFFF AND DUP2 MSTORE PUSH1 0x20 ADD SWAP1 DUP2 MSTORE PUSH1 0x20 ADD PUSH0 KECCAK256 DUP2 SWAP1 SSTORE POP POP JUMPDEST PUSH0 PUSH20 0xFFFFFFFFFFFFFFFFFFFFFFFFFFFFFFFFFFFFFFFF AND DUP3 PUSH20 0xFFFFFFFFFFFFFFFFFFFFFFFFFFFFFFFFFFFFFFFF AND SUB PUSH2 0xDCC JUMPI DUP1 PUSH1 0x2 PUSH0 DUP3 DUP3 SLOAD SUB SWAP3 POP POP DUP2 SWAP1 SSTORE POP PUSH2 0xE16 JUMP JUMPDEST DUP1 PUSH0 PUSH0 DUP5 PUSH20 0xFFFFFFFFFFFFFFFFFFFFFFFFFFFFFFFFFFFFFFFF AND PUSH20 0xFFFFFFFFFFFFFFFFFFFFFFFFFFFFFFFFFFFFFFFF AND DUP2 MSTORE PUSH1 0x20 ADD SWAP1 DUP2 MSTORE PUSH1 0x20 ADD PUSH0 KECCAK256 PUSH0 DUP3 DUP3 SLOAD ADD SWAP3 POP POP DUP2 SWAP1 SSTORE POP JUMPDEST DUP2 PUSH20 0xFFFFFFFFFFFFFFFFFFFFFFFFFFFFFFFFFFFFFFFF AND DUP4 PUSH20 0xFFFFFFFFFFFFFFFFFFFFFFFFFFFFFFFFFFFFFFFF AND PUSH32 0xDDF252AD1BE2C89B69C2B068FC378DAA952BA7F163C4A11628F55A4DF523B3EF DUP4 PUSH1 0x40 MLOAD PUSH2 0xE73 SWAP2 SWAP1 PUSH2 0x11E2 JUMP JUMPDEST PUSH1 0x40 MLOAD DUP1 SWAP2 SUB SWAP1 LOG3 POP POP POP JUMP JUMPDEST PUSH0 DUP2 MLOAD SWAP1 POP SWAP2 SWAP1 POP JUMP JUMPDEST PUSH0 DUP3 DUP3 MSTORE PUSH1 0x20 DUP3 ADD SWAP1 POP SWAP3 SWAP2 POP POP JUMP JUMPDEST DUP3 DUP2 DUP4 MCOPY PUSH0 DUP4 DUP4 ADD MSTORE POP POP POP JUMP JUMPDEST PUSH0 PUSH1 0x1F NOT PUSH1 0x1F DUP4 ADD AND SWAP1 POP SWAP2 SWAP1 POP JUMP JUMPDEST PUSH0 PUSH2 0xEC2 DUP3 PUSH2 0xE80 JUMP JUMPDEST PUSH2 0xECC DUP2 DUP6 PUSH2 0xE8A JUMP JUMPDEST SWAP4 POP PUSH2 0xEDC DUP2 DUP6 PUSH1 0x20 DUP7 ADD PUSH2 0xE9A JUMP JUMPDEST PUSH2 0xEE5 DUP2 PUSH2 0xEA8 JUMP JUMPDEST DUP5 ADD SWAP2 POP POP SWAP3 SWAP2 POP POP JUMP JUMPDEST PUSH0 PUSH1 0x20 DUP3 ADD SWAP1 POP DUP2 DUP2 SUB PUSH0 DUP4 ADD MSTORE PUSH2 0xF08 DUP2 DUP5 PUSH2 0xEB8 JUMP JUMPDEST SWAP1 POP SWAP3 SWAP2 POP POP JUMP JUMPDEST PUSH0 PUSH1 0x40 MLOAD SWAP1 POP SWAP1 JUMP JUMPDEST PUSH0 PUSH0 REVERT JUMPDEST PUSH0 PUSH0 REVERT JUMPDEST PUSH0 PUSH0 REVERT JUMPDEST PUSH0 PUSH0 REVERT JUMPDEST PUSH32 0x4E487B7100000000000000000000000000000000000000000000000000000000 PUSH0 MSTORE PUSH1 0x41 PUSH1 0x4 MSTORE PUSH1 0x24 PUSH0 REVERT JUMPDEST PUSH2 0xF5F DUP3 PUSH2 0xEA8 JUMP JUMPDEST DUP2 ADD DUP2 DUP2 LT PUSH8 0xFFFFFFFFFFFFFFFF DUP3 GT OR ISZERO PUSH2 0xF7E JUMPI PUSH2 0xF7D PUSH2 0xF29 JUMP JUMPDEST JUMPDEST DUP1 PUSH1 0x40 MSTORE POP POP POP JUMP JUMPDEST PUSH0 PUSH2 0xF90 PUSH2 0xF10 JUMP JUMPDEST SWAP1 POP PUSH2 0xF9C DUP3 DUP3 PUSH2 0xF56 JUMP JUMPDEST SWAP2 SWAP1 POP JUMP JUMPDEST PUSH0 PUSH8 0xFFFFFFFFFFFFFFFF DUP3 GT ISZERO PUSH2 0xFBB JUMPI PUSH2 0xFBA PUSH2 0xF29 JUMP JUMPDEST JUMPDEST PUSH2 0xFC4 DUP3 PUSH2 0xEA8 JUMP JUMPDEST SWAP1 POP PUSH1 0x20 DUP2 ADD SWAP1 POP SWAP2 SWAP1 POP JUMP JUMPDEST DUP3 DUP2 DUP4 CALLDATACOPY PUSH0 DUP4 DUP4 ADD MSTORE POP POP POP JUMP JUMPDEST PUSH0 PUSH2 0xFF1 PUSH2 0xFEC DUP5 PUSH2 0xFA1 JUMP JUMPDEST PUSH2 0xF87 JUMP JUMPDEST SWAP1 POP DUP3 DUP2 MSTORE PUSH1 0x20 DUP2 ADD DUP5 DUP5 DUP5 ADD GT ISZERO PUSH2 0x100D JUMPI PUSH2 0x100C PUSH2 0xF25 JUMP JUMPDEST JUMPDEST PUSH2 0x1018 DUP5 DUP3 DUP6 PUSH2 0xFD1 JUMP JUMPDEST POP SWAP4 SWAP3 POP POP POP JUMP JUMPDEST PUSH0 DUP3 PUSH1 0x1F DUP4 ADD SLT PUSH2 0x1034 JUMPI PUSH2 0x1033 PUSH2 0xF21 JUMP JUMPDEST JUMPDEST DUP2 CALLDATALOAD PUSH2 0x1044 DUP5 DUP3 PUSH1 0x20 DUP7 ADD PUSH2 0xFDF JUMP JUMPDEST SWAP2 POP POP SWAP3 SWAP2 POP POP JUMP JUMPDEST PUSH0 PUSH20 0xFFFFFFFFFFFFFFFFFFFFFFFFFFFFFFFFFFFFFFFF DUP3 AND SWAP1 POP SWAP2 SWAP1 POP JUMP JUMPDEST PUSH0 PUSH2 0x1076 DUP3 PUSH2 0x104D JUMP JUMPDEST SWAP1 POP SWAP2 SWAP1 POP JUMP JUMPDEST PUSH2 0x1086 DUP2 PUSH2 0x106C JUMP JUMPDEST DUP2 EQ PUSH2 0x1090 JUMPI PUSH0 PUSH0 REVERT JUMPDEST POP JUMP JUMPDEST PUSH0 DUP2 CALLDATALOAD SWAP1 POP PUSH2 0x10A1 DUP2 PUSH2 0x107D JUMP JUMPDEST SWAP3 SWAP2 POP POP JUMP JUMPDEST PUSH0 PUSH0 PUSH0 PUSH1 0x60 DUP5 DUP7 SUB SLT ISZERO PUSH2 0x10BE JUMPI PUSH2 0x10BD PUSH2 0xF19 JUMP JUMPDEST JUMPDEST PUSH0 DUP5 ADD CALLDATALOAD PUSH8 0xFFFFFFFFFFFFFFFF DUP2 GT ISZERO PUSH2 0x10DB JUMPI PUSH2 0x10DA PUSH2 0xF1D JUMP JUMPDEST JUMPDEST PUSH2 0x10E7 DUP7 DUP3 DUP8 ADD PUSH2 0x1020 JUMP JUMPDEST SWAP4 POP POP PUSH1 0x20 DUP5 ADD CALLDATALOAD PUSH8 0xFFFFFFFFFFFFFFFF DUP2 GT ISZERO PUSH2 0x1108 JUMPI PUSH2 0x1107 PUSH2 0xF1D JUMP JUMPDEST JUMPDEST PUSH2 0x1114 DUP7 DUP3 DUP8 ADD PUSH2 0x1020 JUMP JUMPDEST SWAP3 POP POP PUSH1 0x40 PUSH2 0x1125 DUP7 DUP3 DUP8 ADD PUSH2 0x1093 JUMP JUMPDEST SWAP2 POP POP SWAP3 POP SWAP3 POP SWAP3 JUMP JUMPDEST PUSH0 DUP2 SWAP1 POP SWAP2 SWAP1 POP JUMP JUMPDEST PUSH2 0x1141 DUP2 PUSH2 0x112F JUMP JUMPDEST DUP2 EQ PUSH2 0x114B JUMPI PUSH0 PUSH0 REVERT JUMPDEST POP JUMP JUMPDEST PUSH0 DUP2 CALLDATALOAD SWAP1 POP PUSH2 0x115C DUP2 PUSH2 0x1138 JUMP JUMPDEST SWAP3 SWAP2 POP POP JUMP JUMPDEST PUSH0 PUSH0 PUSH1 0x40 DUP4 DUP6 SUB SLT ISZERO PUSH2 0x1178 JUMPI PUSH2 0x1177 PUSH2 0xF19 JUMP JUMPDEST JUMPDEST PUSH0 PUSH2 0x1185 DUP6 DUP3 DUP7 ADD PUSH2 0x1093 JUMP JUMPDEST SWAP3 POP POP PUSH1 0x20 PUSH2 0x1196 DUP6 DUP3 DUP7 ADD PUSH2 0x114E JUMP JUMPDEST SWAP2 POP POP SWAP3 POP SWAP3 SWAP1 POP JUMP JUMPDEST PUSH0 DUP2 ISZERO ISZERO SWAP1 POP SWAP2 SWAP1 POP JUMP JUMPDEST PUSH2 0x11B4 DUP2 PUSH2 0x11A0 JUMP JUMPDEST DUP3 MSTORE POP POP JUMP JUMPDEST PUSH0 PUSH1 0x20 DUP3 ADD SWAP1 POP PUSH2 0x11CD PUSH0 DUP4 ADD DUP5 PUSH2 0x11AB JUMP JUMPDEST SWAP3 SWAP2 POP POP JUMP JUMPDEST PUSH2 0x11DC DUP2 PUSH2 0x112F JUMP JUMPDEST DUP3 MSTORE POP POP JUMP JUMPDEST PUSH0 PUSH1 0x20 DUP3 ADD SWAP1 POP PUSH2 0x11F5 PUSH0 DUP4 ADD DUP5 PUSH2 0x11D3 JUMP JUMPDEST SWAP3 SWAP2 POP POP JUMP JUMPDEST PUSH0 PUSH0 PUSH0 PUSH1 0x60 DUP5 DUP7 SUB SLT ISZERO PUSH2 0x1212 JUMPI PUSH2 0x1211 PUSH2 0xF19 JUMP JUMPDEST JUMPDEST PUSH0 PUSH2 0x121F DUP7 DUP3 DUP8 ADD PUSH2 0x1093 JUMP JUMPDEST SWAP4 POP POP PUSH1 0x20 PUSH2 0x1230 DUP7 DUP3 DUP8 ADD PUSH2 0x1093 JUMP JUMPDEST SWAP3 POP POP PUSH1 0x40 PUSH2 0x1241 DUP7 DUP3 DUP8 ADD PUSH2 0x114E JUMP JUMPDEST SWAP2 POP POP SWAP3 POP SWAP3 POP SWAP3 JUMP JUMPDEST PUSH0 PUSH1 0xFF DUP3 AND SWAP1 POP SWAP2 SWAP1 POP JUMP JUMPDEST PUSH2 0x1260 DUP2 PUSH2 0x124B JUMP JUMPDEST DUP3 MSTORE POP POP JUMP JUMPDEST PUSH0 PUSH1 0x20 DUP3 ADD SWAP1 POP PUSH2 0x1279 PUSH0 DUP4 ADD DUP5 PUSH2 0x1257 JUMP JUMPDEST SWAP3 SWAP2 POP POP JUMP JUMPDEST PUSH2 0x1288 DUP2 PUSH2 0x106C JUMP JUMPDEST DUP3 MSTORE POP POP JUMP JUMPDEST PUSH0 PUSH1 0x20 DUP3 ADD SWAP1 POP PUSH2 0x12A1 PUSH0 DUP4 ADD DUP5 PUSH2 0x127F JUMP JUMPDEST SWAP3 SWAP2 POP POP JUMP JUMPDEST PUSH0 PUSH1 0x20 DUP3 DUP5 SUB SLT ISZERO PUSH2 0x12BC JUMPI PUSH2 0x12BB PUSH2 0xF19 JUMP JUMPDEST JUMPDEST PUSH0 PUSH2 0x12C9 DUP5 DUP3 DUP6 ADD PUSH2 0x1093 JUMP JUMPDEST SWAP2 POP POP SWAP3 SWAP2 POP POP JUMP JUMPDEST PUSH0 PUSH0 PUSH1 0x40 DUP4 DUP6 SUB SLT ISZERO PUSH2 0x12E8 JUMPI PUSH2 0x12E7 PUSH2 0xF19 JUMP JUMPDEST JUMPDEST PUSH0 PUSH2 0x12F5 DUP6 DUP3 DUP7 ADD PUSH2 0x1093 JUMP JUMPDEST SWAP3 POP POP PUSH1 0x20 PUSH2 0x1306 DUP6 DUP3 DUP7 ADD PUSH2 0x1093 JUMP JUMPDEST SWAP2 POP POP SWAP3 POP SWAP3 SWAP1 POP JUMP JUMPDEST PUSH32 0x4E487B7100000000000000000000000000000000000000000000000000000000 PUSH0 MSTORE PUSH1 0x22 PUSH1 0x4 MSTORE PUSH1 0x24 PUSH0 REVERT JUMPDEST PUSH0 PUSH1 0x2 DUP3 DIV SWAP1 POP PUSH1 0x1 DUP3 AND DUP1 PUSH2 0x1354 JUMPI PUSH1 0x7F DUP3 AND SWAP2 POP JUMPDEST PUSH1 0x20 DUP3 LT DUP2 SUB PUSH2 0x1367 JUMPI PUSH2 0x1366 PUSH2 0x1310 JUMP JUMPDEST JUMPDEST POP SWAP2 SWAP1 POP JUMP JUMPDEST PUSH32 0x414C52454144595F494E49540000000000000000000000000000000000000000 PUSH0 DUP3 ADD MSTORE POP JUMP JUMPDEST PUSH0 PUSH2 0x13A1 PUSH1 0xC DUP4 PUSH2 0xE8A JUMP JUMPDEST SWAP2 POP PUSH2 0x13AC DUP3 PUSH2 0x136D JUMP JUMPDEST PUSH1 0x20 DUP3 ADD SWAP1 POP SWAP2 SWAP1 POP JUMP JUMPDEST PUSH0 PUSH1 0x20 DUP3 ADD SWAP1 POP DUP2 DUP2 SUB PUSH0 DUP4 ADD MSTORE PUSH2 0x13CE DUP2 PUSH2 0x1395 JUMP JUMPDEST SWAP1 POP SWAP2 SWAP1 POP JUMP JUMPDEST PUSH32 0x5A45524F5F4D414E414745520000000000000000000000000000000000000000 PUSH0 DUP3 ADD MSTORE POP JUMP JUMPDEST PUSH0 PUSH2 0x1409 PUSH1 0xC DUP4 PUSH2 0xE8A JUMP JUMPDEST SWAP2 POP PUSH2 0x1414 DUP3 PUSH2 0x13D5 JUMP JUMPDEST PUSH1 0x20 DUP3 ADD SWAP1 POP SWAP2 SWAP1 POP JUMP JUMPDEST PUSH0 PUSH1 0x20 DUP3 ADD SWAP1 POP DUP2 DUP2 SUB PUSH0 DUP4 ADD MSTORE PUSH2 0x1436 DUP2 PUSH2 0x13FD JUMP JUMPDEST SWAP1 POP SWAP2 SWAP1 POP JUMP JUMPDEST PUSH0 DUP2 SWAP1 POP DUP2 PUSH0 MSTORE PUSH1 0x20 PUSH0 KECCAK256 SWAP1 POP SWAP2 SWAP1 POP JUMP JUMPDEST PUSH0 PUSH1 0x20 PUSH1 0x1F DUP4 ADD DIV SWAP1 POP SWAP2 SWAP1 POP JUMP JUMPDEST PUSH0 DUP3 DUP3 SHL SWAP1 POP SWAP3 SWAP2 POP POP JUMP JUMPDEST PUSH0 PUSH1 0x8 DUP4 MUL PUSH2 0x1499 PUSH32 0xFFFFFFFFFFFFFFFFFFFFFFFFFFFFFFFFFFFFFFFFFFFFFFFFFFFFFFFFFFFFFFFF DUP3 PUSH2 0x145E JUMP JUMPDEST PUSH2 0x14A3 DUP7 DUP4 PUSH2 0x145E JUMP JUMPDEST SWAP6 POP DUP1 NOT DUP5 AND SWAP4 POP DUP1 DUP7 AND DUP5 OR SWAP3 POP POP POP SWAP4 SWAP3 POP POP POP JUMP JUMPDEST PUSH0 DUP2 SWAP1 POP SWAP2 SWAP1 POP JUMP JUMPDEST PUSH0 PUSH2 0x14DE PUSH2 0x14D9 PUSH2 0x14D4 DUP5 PUSH2 0x112F JUMP JUMPDEST PUSH2 0x14BB JUMP JUMPDEST PUSH2 0x112F JUMP JUMPDEST SWAP1 POP SWAP2 SWAP1 POP JUMP JUMPDEST PUSH0 DUP2 SWAP1 POP SWAP2 SWAP1 POP JUMP JUMPDEST PUSH2 0x14F7 DUP4 PUSH2 0x14C4 JUMP JUMPDEST PUSH2 0x150B PUSH2 0x1503 DUP3 PUSH2 0x14E5 JUMP JUMPDEST DUP5 DUP5 SLOAD PUSH2 0x146A JUMP JUMPDEST DUP3 SSTORE POP POP POP POP JUMP JUMPDEST PUSH0 PUSH0 SWAP1 POP SWAP1 JUMP JUMPDEST PUSH2 0x1522 PUSH2 0x1513 JUMP JUMPDEST PUSH2 0x152D DUP2 DUP5 DUP5 PUSH2 0x14EE JUMP JUMPDEST POP POP POP JUMP JUMPDEST PUSH0 JUMPDEST DUP3 DUP2 LT ISZERO PUSH2 0x1553 JUMPI PUSH2 0x1548 PUSH0 DUP3 DUP5 ADD PUSH2 0x151A JUMP JUMPDEST PUSH1 0x1 DUP2 ADD SWAP1 POP PUSH2 0x1534 JUMP JUMPDEST POP POP POP JUMP JUMPDEST PUSH1 0x1F DUP3 GT ISZERO PUSH2 0x15A6 JUMPI DUP3 DUP3 GT ISZERO PUSH2 0x15A5 JUMPI PUSH2 0x1572 DUP2 PUSH2 0x143D JUMP JUMPDEST PUSH2 0x157B DUP4 PUSH2 0x144F JUMP JUMPDEST PUSH2 0x1584 DUP6 PUSH2 0x144F JUMP JUMPDEST PUSH1 0x20 DUP7 LT ISZERO PUSH2 0x1591 JUMPI PUSH0 SWAP1 POP JUMPDEST DUP1 DUP4 ADD PUSH2 0x15A0 DUP3 DUP5 SUB DUP3 PUSH2 0x1532 JUMP JUMPDEST POP POP POP POP JUMPDEST JUMPDEST POP POP POP JUMP JUMPDEST PUSH0 DUP3 DUP3 SHR SWAP1 POP SWAP3 SWAP2 POP POP JUMP JUMPDEST PUSH0 PUSH2 0x15C6 PUSH0 NOT DUP5 PUSH1 0x8 MUL PUSH2 0x15AB JUMP JUMPDEST NOT DUP1 DUP4 AND SWAP2 POP POP SWAP3 SWAP2 POP POP JUMP JUMPDEST PUSH0 PUSH2 0x15DE DUP4 DUP4 PUSH2 0x15B7 JUMP JUMPDEST SWAP2 POP DUP3 PUSH1 0x2 MUL DUP3 OR SWAP1 POP SWAP3 SWAP2 POP POP JUMP JUMPDEST PUSH2 0x15F7 DUP3 PUSH2 0xE80 JUMP JUMPDEST PUSH8 0xFFFFFFFFFFFFFFFF DUP2 GT ISZERO PUSH2 0x1610 JUMPI PUSH2 0x160F PUSH2 0xF29 JUMP JUMPDEST JUMPDEST PUSH2 0x161A DUP3 SLOAD PUSH2 0x133D JUMP JUMPDEST PUSH2 0x1625 DUP3 DUP3 DUP6 PUSH2 0x1558 JUMP JUMPDEST PUSH0 PUSH1 0x20 SWAP1 POP PUSH1 0x1F DUP4 GT PUSH1 0x1 DUP2 EQ PUSH2 0x1656 JUMPI PUSH0 DUP5 ISZERO PUSH2 0x1644 JUMPI DUP3 DUP8 ADD MLOAD SWAP1 POP JUMPDEST PUSH2 0x164E DUP6 DUP3 PUSH2 0x15D3 JUMP JUMPDEST DUP7 SSTORE POP PUSH2 0x16B5 JUMP JUMPDEST PUSH1 0x1F NOT DUP5 AND PUSH2 0x1664 DUP7 PUSH2 0x143D JUMP JUMPDEST PUSH0 JUMPDEST DUP3 DUP2 LT ISZERO PUSH2 0x168B JUMPI DUP5 DUP10 ADD MLOAD DUP3 SSTORE PUSH1 0x1 DUP3 ADD SWAP2 POP PUSH1 0x20 DUP6 ADD SWAP5 POP PUSH1 0x20 DUP2 ADD SWAP1 POP PUSH2 0x1666 JUMP JUMPDEST DUP7 DUP4 LT ISZERO PUSH2 0x16A8 JUMPI DUP5 DUP10 ADD MLOAD PUSH2 0x16A4 PUSH1 0x1F DUP10 AND DUP3 PUSH2 0x15B7 JUMP JUMPDEST DUP4 SSTORE POP JUMPDEST PUSH1 0x1 PUSH1 0x2 DUP9 MUL ADD DUP9 SSTORE POP POP POP JUMPDEST POP POP POP POP POP POP JUMP JUMPDEST PUSH32 0x4E4F545F4D414E41474552000000000000000000000000000000000000000000 PUSH0 DUP3 ADD MSTORE POP JUMP JUMPDEST PUSH0 PUSH2 0x16F1 PUSH1 0xB DUP4 PUSH2 0xE8A JUMP JUMPDEST SWAP2 POP PUSH2 0x16FC DUP3 PUSH2 0x16BD JUMP JUMPDEST PUSH1 0x20 DUP3 ADD SWAP1 POP SWAP2 SWAP1 POP JUMP JUMPDEST PUSH0 PUSH1 0x20 DUP3 ADD SWAP1 POP DUP2 DUP2 SUB PUSH0 DUP4 ADD MSTORE PUSH2 0x171E DUP2 PUSH2 0x16E5 JUMP JUMPDEST SWAP1 POP SWAP2 SWAP1 POP JUMP JUMPDEST PUSH0 PUSH1 0x60 DUP3 ADD SWAP1 POP PUSH2 0x1738 PUSH0 DUP4 ADD DUP7 PUSH2 0x127F JUMP JUMPDEST PUSH2 0x1745 PUSH1 0x20 DUP4 ADD DUP6 PUSH2 0x11D3 JUMP JUMPDEST PUSH2 0x1752 PUSH1 0x40 DUP4 ADD DUP5 PUSH2 0x11D3 JUMP JUMPDEST SWAP5 SWAP4 POP POP POP POP JUMP JUMPDEST PUSH32 0x4E487B7100000000000000000000000000000000000000000000000000000000 PUSH0 MSTORE PUSH1 0x11 PUSH1 0x4 MSTORE PUSH1 0x24 PUSH0 REVERT JUMPDEST PUSH0 PUSH2 0x1791 DUP3 PUSH2 0x112F JUMP JUMPDEST SWAP2 POP PUSH2 0x179C DUP4 PUSH2 0x112F JUMP JUMPDEST SWAP3 POP DUP3 DUP3 ADD SWAP1 POP DUP1 DUP3 GT ISZERO PUSH2 0x17B4 JUMPI PUSH2 0x17B3 PUSH2 0x175A JUMP JUMPDEST JUMPDEST SWAP3 SWAP2 POP POP JUMP INVALID LOG2 PUSH5 0x6970667358 0x22 SLT KECCAK256 RETURNDATASIZE 0xC3 PUSH3 0xC8558D MUL 0xAA ADD 0xA7 0xA7 PUSH20 0x969FDE78BA9C6614024FAC39528E7770DF1ABA0C PUSH5 0x736F6C6343 STOP ADDMOD 0x22 STOP CALLER "
				},
				"gasEstimates": {
					"creation": {
						"codeDepositCost": "1225600",
						"executionCost": "infinite",
						"totalCost": "infinite"
					},
					"external": {
						"allowance(address,address)": "infinite",
						"approve(address,uint256)": "infinite",
						"balanceOf(address)": "2895",
						"burn(address,uint256)": "infinite",
						"decimals()": "427",
						"initialize(string,string,address)": "infinite",
						"initialized()": "2540",
						"manager()": "2553",
						"mint(address,uint256)": "infinite",
						"name()": "infinite",
						"symbol()": "infinite",
						"totalSupply()": "2477",
						"transfer(address,uint256)": "infinite",
						"transferFrom(address,address,uint256)": "infinite"
					}
				},
				"methodIdentifiers": {
					"allowance(address,address)": "dd62ed3e",
					"approve(address,uint256)": "095ea7b3",
					"balanceOf(address)": "70a08231",
					"burn(address,uint256)": "9dc29fac",
					"decimals()": "313ce567",
					"initialize(string,string,address)": "077f224a",
					"initialized()": "158ef93e",
					"manager()": "481c6a75",
					"mint(address,uint256)": "40c10f19",
					"name()": "06fdde03",
					"symbol()": "95d89b41",
					"totalSupply()": "18160ddd",
					"transfer(address,uint256)": "a9059cbb",
					"transferFrom(address,address,uint256)": "23b872dd"
				}
			},
			"storageLayout": {
				"storage": [
					{
						"astId": 558,
						"contract": "contracts/PlayerShare.sol:ShareToken",
						"label": "_balances",
						"offset": 0,
						"slot": "0",
						"type": "t_mapping(t_address,t_uint256)"
					},
					{
						"astId": 564,
						"contract": "contracts/PlayerShare.sol:ShareToken",
						"label": "_allowances",
						"offset": 0,
						"slot": "1",
						"type": "t_mapping(t_address,t_mapping(t_address,t_uint256))"
					},
					{
						"astId": 566,
						"contract": "contracts/PlayerShare.sol:ShareToken",
						"label": "_totalSupply",
						"offset": 0,
						"slot": "2",
						"type": "t_uint256"
					},
					{
						"astId": 568,
						"contract": "contracts/PlayerShare.sol:ShareToken",
						"label": "_name",
						"offset": 0,
						"slot": "3",
						"type": "t_string_storage"
					},
					{
						"astId": 570,
						"contract": "contracts/PlayerShare.sol:ShareToken",
						"label": "_symbol",
						"offset": 0,
						"slot": "4",
						"type": "t_string_storage"
					},
					{
						"astId": 1315,
						"contract": "contracts/PlayerShare.sol:ShareToken",
						"label": "manager",
						"offset": 0,
						"slot": "5",
						"type": "t_address"
					},
					{
						"astId": 1317,
						"contract": "contracts/PlayerShare.sol:ShareToken",
						"label": "initialized",
						"offset": 20,
						"slot": "5",
						"type": "t_bool"
					},
					{
						"astId": 1319,
						"contract": "contracts/PlayerShare.sol:ShareToken",
						"label": "_customName",
						"offset": 0,
						"slot": "6",
						"type": "t_string_storage"
					},
					{
						"astId": 1321,
						"contract": "contracts/PlayerShare.sol:ShareToken",
						"label": "_customSymbol",
						"offset": 0,
						"slot": "7",
						"type": "t_string_storage"
					}
				],
				"types": {
					"t_address": {
						"encoding": "inplace",
						"label": "address",
						"numberOfBytes": "20"
					},
					"t_bool": {
						"encoding": "inplace",
						"label": "bool",
						"numberOfBytes": "1"
					},
					"t_mapping(t_address,t_mapping(t_address,t_uint256))": {
						"encoding": "mapping",
						"key": "t_address",
						"label": "mapping(address => mapping(address => uint256))",
						"numberOfBytes": "32",
						"value": "t_mapping(t_address,t_uint256)"
					},
					"t_mapping(t_address,t_uint256)": {
						"encoding": "mapping",
						"key": "t_address",
						"label": "mapping(address => uint256)",
						"numberOfBytes": "32",
						"value": "t_uint256"
					},
					"t_string_storage": {
						"encoding": "bytes",
						"label": "string",
						"numberOfBytes": "32"
					},
					"t_uint256": {
						"encoding": "inplace",
						"label": "uint256",
						"numberOfBytes": "32"
					}
				}
			},
			"userdoc": {
				"kind": "user",
				"methods": {},
				"version": 1
			}
		}
	}
}