{
	"contracts/PlayerMarket.sol": {
		"PlayerMarket": {
			"abi": [
				{
					"inputs": [
						{
							"internalType": "address",
							"name": "_ftk",
							"type": "address"
						},
						{
							"internalType": "address",
							"name": "_treasury",
							"type": "address"
						},
						{
							"internalType": "address",
							"name": "admin",
							"type": "address"
						}
					],
					"stateMutability": "nonpayable",
					"type": "constructor"
				},
				{
					"inputs": [],
					"name": "AccessControlBadConfirmation",
					"type": "error"
				},
				{
					"inputs": [
						{
							"internalType": "address",
							"name": "account",
							"type": "address"
						},
						{
							"internalType": "bytes32",
							"name": "neededRole",
							"type": "bytes32"
						}
					],
					"name": "AccessControlUnauthorizedAccount",
					"type": "error"
				},
				{
					"inputs": [],
					"name": "ReentrancyGuardReentrantCall",
					"type": "error"
				},
				{
					"anonymous": false,
					"inputs": [
						{
							"indexed": false,
							"internalType": "uint256",
							"name": "playerId",
							"type": "uint256"
						},
						{
							"indexed": true,
							"internalType": "address",
							"name": "user",
							"type": "address"
						},
						{
							"indexed": false,
							"internalType": "uint256",
							"name": "ftkSpent",
							"type": "uint256"
						},
						{
							"indexed": false,
							"internalType": "uint256",
							"name": "sharesBought",
							"type": "uint256"
						},
						{
							"indexed": false,
							"internalType": "uint256",
							"name": "fee",
							"type": "uint256"
						}
					],
					"name": "BoughtShares",
					"type": "event"
				},
				{
					"anonymous": false,
					"inputs": [
						{
							"indexed": false,
							"internalType": "uint256",
							"name": "playerId",
							"type": "uint256"
						}
					],
					"name": "PlayerAdded",
					"type": "event"
				},
				{
					"anonymous": false,
					"inputs": [
						{
							"indexed": true,
							"internalType": "bytes32",
							"name": "role",
							"type": "bytes32"
						},
						{
							"indexed": true,
							"internalType": "bytes32",
							"name": "previousAdminRole",
							"type": "bytes32"
						},
						{
							"indexed": true,
							"internalType": "bytes32",
							"name": "newAdminRole",
							"type": "bytes32"
						}
					],
					"name": "RoleAdminChanged",
					"type": "event"
				},
				{
					"anonymous": false,
					"inputs": [
						{
							"indexed": true,
							"internalType": "bytes32",
							"name": "role",
							"type": "bytes32"
						},
						{
							"indexed": true,
							"internalType": "address",
							"name": "account",
							"type": "address"
						},
						{
							"indexed": true,
							"internalType": "address",
							"name": "sender",
							"type": "address"
						}
					],
					"name": "RoleGranted",
					"type": "event"
				},
				{
					"anonymous": false,
					"inputs": [
						{
							"indexed": true,
							"internalType": "bytes32",
							"name": "role",
							"type": "bytes32"
						},
						{
							"indexed": true,
							"internalType": "address",
							"name": "account",
							"type": "address"
						},
						{
							"indexed": true,
							"internalType": "address",
							"name": "sender",
							"type": "address"
						}
					],
					"name": "RoleRevoked",
					"type": "event"
				},
				{
					"anonymous": false,
					"inputs": [
						{
							"indexed": false,
							"internalType": "uint256",
							"name": "playerId",
							"type": "uint256"
						},
						{
							"indexed": true,
							"internalType": "address",
							"name": "user",
							"type": "address"
						},
						{
							"indexed": false,
							"internalType": "uint256",
							"name": "sharesSold",
							"type": "uint256"
						},
						{
							"indexed": false,
							"internalType": "uint256",
							"name": "ftkReturned",
							"type": "uint256"
						},
						{
							"indexed": false,
							"internalType": "uint256",
							"name": "fee",
							"type": "uint256"
						}
					],
					"name": "SoldShares",
					"type": "event"
				},
				{
					"anonymous": false,
					"inputs": [
						{
							"indexed": false,
							"internalType": "uint256",
							"name": "newFeeBps",
							"type": "uint256"
						}
					],
					"name": "TradingFeeUpdated",
					"type": "event"
				},
				{
					"anonymous": false,
					"inputs": [
						{
							"indexed": false,
							"internalType": "address",
							"name": "newTreasury",
							"type": "address"
						}
					],
					"name": "TreasuryUpdated",
					"type": "event"
				},
				{
					"inputs": [],
					"name": "ADMIN_ROLE",
					"outputs": [
						{
							"internalType": "bytes32",
							"name": "",
							"type": "bytes32"
						}
					],
					"stateMutability": "view",
					"type": "function"
				},
				{
					"inputs": [],
					"name": "BPS_DENOMINATOR",
					"outputs": [
						{
							"internalType": "uint256",
							"name": "",
							"type": "uint256"
						}
					],
					"stateMutability": "view",
					"type": "function"
				},
				{
					"inputs": [],
					"name": "DEFAULT_ADMIN_ROLE",
					"outputs": [
						{
							"internalType": "bytes32",
							"name": "",
							"type": "bytes32"
						}
					],
					"stateMutability": "view",
					"type": "function"
				},
				{
					"inputs": [
						{
							"internalType": "uint256",
							"name": "playerId",
							"type": "uint256"
						}
					],
					"name": "addPlayer",
					"outputs": [],
					"stateMutability": "nonpayable",
					"type": "function"
				},
				{
					"inputs": [
						{
							"internalType": "uint256",
							"name": "playerId",
							"type": "uint256"
						},
						{
							"internalType": "uint256",
							"name": "ftkAmount",
							"type": "uint256"
						},
						{
							"internalType": "uint256",
							"name": "minShares",
							"type": "uint256"
						}
					],
					"name": "buyShares",
					"outputs": [],
					"stateMutability": "nonpayable",
					"type": "function"
				},
				{
					"inputs": [],
					"name": "ftk",
					"outputs": [
						{
							"internalType": "contract IFantasyToken",
							"name": "",
							"type": "address"
						}
					],
					"stateMutability": "view",
					"type": "function"
				},
				{
					"inputs": [
						{
							"internalType": "bytes32",
							"name": "role",
							"type": "bytes32"
						}
					],
					"name": "getRoleAdmin",
					"outputs": [
						{
							"internalType": "bytes32",
							"name": "",
							"type": "bytes32"
						}
					],
					"stateMutability": "view",
					"type": "function"
				},
				{
					"inputs": [
						{
							"internalType": "uint256",
							"name": "playerId",
							"type": "uint256"
						}
					],
					"name": "getSharePrice",
					"outputs": [
						{
							"internalType": "uint256",
							"name": "",
							"type": "uint256"
						}
					],
					"stateMutability": "view",
					"type": "function"
				},
				{
					"inputs": [
						{
							"internalType": "bytes32",
							"name": "role",
							"type": "bytes32"
						},
						{
							"internalType": "address",
							"name": "account",
							"type": "address"
						}
					],
					"name": "grantRole",
					"outputs": [],
					"stateMutability": "nonpayable",
					"type": "function"
				},
				{
					"inputs": [
						{
							"internalType": "bytes32",
							"name": "role",
							"type": "bytes32"
						},
						{
							"internalType": "address",
							"name": "account",
							"type": "address"
						}
					],
					"name": "hasRole",
					"outputs": [
						{
							"internalType": "bool",
							"name": "",
							"type": "bool"
						}
					],
					"stateMutability": "view",
					"type": "function"
				},
				{
					"inputs": [
						{
							"internalType": "uint256",
							"name": "",
							"type": "uint256"
						}
					],
					"name": "players",
					"outputs": [
						{
							"internalType": "uint256",
							"name": "totalShares",
							"type": "uint256"
						},
						{
							"internalType": "uint256",
							"name": "ftkLiquidity",
							"type": "uint256"
						},
						{
							"internalType": "bool",
							"name": "exists",
							"type": "bool"
						}
					],
					"stateMutability": "view",
					"type": "function"
				},
				{
					"inputs": [
						{
							"internalType": "bytes32",
							"name": "role",
							"type": "bytes32"
						},
						{
							"internalType": "address",
							"name": "callerConfirmation",
							"type": "address"
						}
					],
					"name": "renounceRole",
					"outputs": [],
					"stateMutability": "nonpayable",
					"type": "function"
				},
				{
					"inputs": [
						{
							"internalType": "bytes32",
							"name": "role",
							"type": "bytes32"
						},
						{
							"internalType": "address",
							"name": "account",
							"type": "address"
						}
					],
					"name": "revokeRole",
					"outputs": [],
					"stateMutability": "nonpayable",
					"type": "function"
				},
				{
					"inputs": [
						{
							"internalType": "uint256",
							"name": "playerId",
							"type": "uint256"
						},
						{
							"internalType": "uint256",
							"name": "shares",
							"type": "uint256"
						},
						{
							"internalType": "uint256",
							"name": "minFTK",
							"type": "uint256"
						}
					],
					"name": "sellShares",
					"outputs": [],
					"stateMutability": "nonpayable",
					"type": "function"
				},
				{
					"inputs": [
						{
							"internalType": "uint256",
							"name": "feeBps",
							"type": "uint256"
						}
					],
					"name": "setTradingFee",
					"outputs": [],
					"stateMutability": "nonpayable",
					"type": "function"
				},
				{
					"inputs": [
						{
							"internalType": "address",
							"name": "_treasury",
							"type": "address"
						}
					],
					"name": "setTreasury",
					"outputs": [],
					"stateMutability": "nonpayable",
					"type": "function"
				},
				{
					"inputs": [
						{
							"internalType": "bytes4",
							"name": "interfaceId",
							"type": "bytes4"
						}
					],
					"name": "supportsInterface",
					"outputs": [
						{
							"internalType": "bool",
							"name": "",
							"type": "bool"
						}
					],
					"stateMutability": "view",
					"type": "function"
				},
				{
					"inputs": [],
					"name": "tradingFeeBps",
					"outputs": [
						{
							"internalType": "uint256",
							"name": "",
							"type": "uint256"
						}
					],
					"stateMutability": "view",
					"type": "function"
				},
				{
					"inputs": [],
					"name": "treasury",
					"outputs": [
						{
							"internalType": "address",
							"name": "",
							"type": "address"
						}
					],
					"stateMutability": "view",
					"type": "function"
				},
				{
					"inputs": [
						{
							"internalType": "uint256",
							"name": "playerId",
							"type": "uint256"
						},
						{
							"internalType": "address",
							"name": "user",
							"type": "address"
						}
					],
					"name": "userBalance",
					"outputs": [
						{
							"internalType": "uint256",
							"name": "",
							"type": "uint256"
						}
					],
					"stateMutability": "view",
					"type": "function"
				},
				{
					"inputs": [
						{
							"internalType": "uint256",
							"name": "",
							"type": "uint256"
						},
						{
							"internalType": "address",
							"name": "",
							"type": "address"
						}
					],
					"name": "userShares",
					"outputs": [
						{
							"internalType": "uint256",
							"name": "",
							"type": "uint256"
						}
					],
					"stateMutability": "view",
					"type": "function"
				}
			],
			"devdoc": {
				"errors": {
					"AccessControlBadConfirmation()": [
						{
							"details": "The caller of a function is not the expected one. NOTE: Don't confuse with {AccessControlUnauthorizedAccount}."
						}
					],
					"AccessControlUnauthorizedAccount(address,bytes32)": [
						{
							"details": "The `account` is missing a role."
						}
					],
					"ReentrancyGuardReentrantCall()": [
						{
							"details": "Unauthorized reentrant call."
						}
					]
				},
				"events": {
					"RoleAdminChanged(bytes32,bytes32,bytes32)": {
						"details": "Emitted when `newAdminRole` is set as ``role``'s admin role, replacing `previousAdminRole` `DEFAULT_ADMIN_ROLE` is the starting admin for all roles, despite {RoleAdminChanged} not being emitted to signal this."
					},
					"RoleGranted(bytes32,address,address)": {
						"details": "Emitted when `account` is granted `role`. `sender` is the account that originated the contract call. This account bears the admin role (for the granted role). Expected in cases where the role was granted using the internal {AccessControl-_grantRole}."
					},
					"RoleRevoked(bytes32,address,address)": {
						"details": "Emitted when `account` is revoked `role`. `sender` is the account that originated the contract call:   - if using `revokeRole`, it is the admin role bearer   - if using `renounceRole`, it is the role bearer (i.e. `account`)"
					}
				},
				"kind": "dev",
				"methods": {
					"getRoleAdmin(bytes32)": {
						"details": "Returns the admin role that controls `role`. See {grantRole} and {revokeRole}. To change a role's admin, use {_setRoleAdmin}."
					},
					"grantRole(bytes32,address)": {
						"details": "Grants `role` to `account`. If `account` had not been already granted `role`, emits a {RoleGranted} event. Requirements: - the caller must have ``role``'s admin role. May emit a {RoleGranted} event."
					},
					"hasRole(bytes32,address)": {
						"details": "Returns `true` if `account` has been granted `role`."
					},
					"renounceRole(bytes32,address)": {
						"details": "Revokes `role` from the calling account. Roles are often managed via {grantRole} and {revokeRole}: this function's purpose is to provide a mechanism for accounts to lose their privileges if they are compromised (such as when a trusted device is misplaced). If the calling account had been revoked `role`, emits a {RoleRevoked} event. Requirements: - the caller must be `callerConfirmation`. May emit a {RoleRevoked} event."
					},
					"revokeRole(bytes32,address)": {
						"details": "Revokes `role` from `account`. If `account` had been granted `role`, emits a {RoleRevoked} event. Requirements: - the caller must have ``role``'s admin role. May emit a {RoleRevoked} event."
					},
					"supportsInterface(bytes4)": {
						"details": "Returns true if this contract implements the interface defined by `interfaceId`. See the corresponding https://eips.ethereum.org/EIPS/eip-165#how-interfaces-are-identified[ERC section] to learn more about how these ids are created. This function call must use less than 30 000 gas."
					}
				},
				"version": 1
			},
			"evm": {
				"assembly": "    /* \"contracts/PlayerMarket.sol\":446:5028  contract PlayerMarket is ReentrancyGuard, AccessControl {... */\n  mstore(0x40, 0xa0)\n    /* \"contracts/PlayerMarket.sol\":676:679  200 */\n  0xc8\n    /* \"contracts/PlayerMarket.sol\":645:679  uint256 public tradingFeeBps = 200 */\n  0x03\n  sstore\n    /* \"contracts/PlayerMarket.sol\":1384:1687  constructor(address _ftk, address _treasury, address admin) {... */\n  callvalue\n  dup1\n  iszero\n  tag_1\n  jumpi\n  revert(0x00, 0x00)\ntag_1:\n  pop\n  mload(0x40)\n  sub(codesize, bytecodeSize)\n  dup1\n  bytecodeSize\n  dup4\n  codecopy\n  dup2\n  dup2\n  add\n  0x40\n  mstore\n  dup2\n  add\n  swap1\n  tag_2\n  swap2\n  swap1\n  tag_3\n  jump\t// in\ntag_2:\n    /* \"@openzeppelin/contracts/utils/ReentrancyGuard.sol\":1857:1858  1 */\n  0x01\n    /* \"@openzeppelin/contracts/utils/ReentrancyGuard.sol\":2061:2068  _status */\n  0x00\n    /* \"@openzeppelin/contracts/utils/ReentrancyGuard.sol\":2061:2082  _status = NOT_ENTERED */\n  dup2\n  swap1\n  sstore\n  pop\n    /* \"contracts/PlayerMarket.sol\":1478:1479  0 */\n  0x00\n    /* \"contracts/PlayerMarket.sol\":1462:1480  _ftk != address(0) */\n  0xffffffffffffffffffffffffffffffffffffffff\n  and\n    /* \"contracts/PlayerMarket.sol\":1462:1466  _ftk */\n  dup4\n    /* \"contracts/PlayerMarket.sol\":1462:1480  _ftk != address(0) */\n  0xffffffffffffffffffffffffffffffffffffffff\n  and\n  eq\n  iszero\n    /* \"contracts/PlayerMarket.sol\":1462:1507  _ftk != address(0) && _treasury != address(0) */\n  dup1\n  iszero\n  tag_8\n  jumpi\n  pop\n    /* \"contracts/PlayerMarket.sol\":1505:1506  0 */\n  0x00\n    /* \"contracts/PlayerMarket.sol\":1484:1507  _treasury != address(0) */\n  0xffffffffffffffffffffffffffffffffffffffff\n  and\n    /* \"contracts/PlayerMarket.sol\":1484:1493  _treasury */\n  dup3\n    /* \"contracts/PlayerMarket.sol\":1484:1507  _treasury != address(0) */\n  0xffffffffffffffffffffffffffffffffffffffff\n  and\n  eq\n  iszero\n    /* \"contracts/PlayerMarket.sol\":1462:1507  _ftk != address(0) && _treasury != address(0) */\ntag_8:\n    /* \"contracts/PlayerMarket.sol\":1454:1529  require(_ftk != address(0) && _treasury != address(0), \"Invalid addresses\") */\n  tag_9\n  jumpi\n  mload(0x40)\n  0x08c379a000000000000000000000000000000000000000000000000000000000\n  dup2\n  mstore\n  0x04\n  add\n  tag_10\n  swap1\n  tag_11\n  jump\t// in\ntag_10:\n  mload(0x40)\n  dup1\n  swap2\n  sub\n  swap1\n  revert\ntag_9:\n    /* \"contracts/PlayerMarket.sol\":1559:1563  _ftk */\n  dup3\n    /* \"contracts/PlayerMarket.sol\":1539:1564  ftk = IFantasyToken(_ftk) */\n  0xffffffffffffffffffffffffffffffffffffffff\n  and\n  0x80\n  dup2\n  0xffffffffffffffffffffffffffffffffffffffff\n  and\n  dup2\n  mstore\n  pop\n  pop\n    /* \"contracts/PlayerMarket.sol\":1585:1594  _treasury */\n  dup2\n    /* \"contracts/PlayerMarket.sol\":1574:1582  treasury */\n  0x02\n  0x00\n    /* \"contracts/PlayerMarket.sol\":1574:1594  treasury = _treasury */\n  0x0100\n  exp\n  dup2\n  sload\n  dup2\n  0xffffffffffffffffffffffffffffffffffffffff\n  mul\n  not\n  and\n  swap1\n  dup4\n  0xffffffffffffffffffffffffffffffffffffffff\n  and\n  mul\n  or\n  swap1\n  sstore\n  pop\n    /* \"contracts/PlayerMarket.sol\":1604:1641  _grantRole(DEFAULT_ADMIN_ROLE, admin) */\n  tag_12\n    /* \"@openzeppelin/contracts/access/AccessControl.sol\":2241:2245  0x00 */\n  0x00\n    /* \"contracts/PlayerMarket.sol\":1615:1633  DEFAULT_ADMIN_ROLE */\n  0x00\n  shl\n    /* \"contracts/PlayerMarket.sol\":1635:1640  admin */\n  dup3\n    /* \"contracts/PlayerMarket.sol\":1604:1614  _grantRole */\n  shl(0x20, tag_13)\n    /* \"contracts/PlayerMarket.sol\":1604:1641  _grantRole(DEFAULT_ADMIN_ROLE, admin) */\n  0x20\n  shr\n  jump\t// in\ntag_12:\n  pop\n    /* \"contracts/PlayerMarket.sol\":1651:1680  _grantRole(ADMIN_ROLE, admin) */\n  tag_14\n    /* \"contracts/PlayerMarket.sol\":545:568  keccak256(\"ADMIN_ROLE\") */\n  0xa49807205ce4d355092ef5a8a18f56e8913cf4a201fbe287825b095693c21775\n    /* \"contracts/PlayerMarket.sol\":1674:1679  admin */\n  dup3\n    /* \"contracts/PlayerMarket.sol\":1651:1661  _grantRole */\n  shl(0x20, tag_13)\n    /* \"contracts/PlayerMarket.sol\":1651:1680  _grantRole(ADMIN_ROLE, admin) */\n  0x20\n  shr\n  jump\t// in\ntag_14:\n  pop\n    /* \"contracts/PlayerMarket.sol\":1384:1687  constructor(address _ftk, address _treasury, address admin) {... */\n  pop\n  pop\n  pop\n    /* \"contracts/PlayerMarket.sol\":446:5028  contract PlayerMarket is ReentrancyGuard, AccessControl {... */\n  jump(tag_15)\n    /* \"@openzeppelin/contracts/access/AccessControl.sol\":6155:6471  function _grantRole(bytes32 role, address account) internal virtual returns (bool) {... */\ntag_13:\n    /* \"@openzeppelin/contracts/access/AccessControl.sol\":6232:6236  bool */\n  0x00\n    /* \"@openzeppelin/contracts/access/AccessControl.sol\":6253:6275  hasRole(role, account) */\n  tag_17\n    /* \"@openzeppelin/contracts/access/AccessControl.sol\":6261:6265  role */\n  dup4\n    /* \"@openzeppelin/contracts/access/AccessControl.sol\":6267:6274  account */\n  dup4\n    /* \"@openzeppelin/contracts/access/AccessControl.sol\":6253:6260  hasRole */\n  shl(0x20, tag_18)\n    /* \"@openzeppelin/contracts/access/AccessControl.sol\":6253:6275  hasRole(role, account) */\n  0x20\n  shr\n  jump\t// in\ntag_17:\n    /* \"@openzeppelin/contracts/access/AccessControl.sol\":6248:6465  if (!hasRole(role, account)) {... */\n  tag_19\n  jumpi\n    /* \"@openzeppelin/contracts/access/AccessControl.sol\":6323:6327  true */\n  0x01\n    /* \"@openzeppelin/contracts/access/AccessControl.sol\":6291:6297  _roles */\n  dup1\n    /* \"@openzeppelin/contracts/access/AccessControl.sol\":6291:6303  _roles[role] */\n  0x00\n    /* \"@openzeppelin/contracts/access/AccessControl.sol\":6298:6302  role */\n  dup6\n    /* \"@openzeppelin/contracts/access/AccessControl.sol\":6291:6303  _roles[role] */\n  dup2\n  mstore\n  0x20\n  add\n  swap1\n  dup2\n  mstore\n  0x20\n  add\n  0x00\n  keccak256\n    /* \"@openzeppelin/contracts/access/AccessControl.sol\":6291:6311  _roles[role].hasRole */\n  0x00\n  add\n    /* \"@openzeppelin/contracts/access/AccessControl.sol\":6291:6320  _roles[role].hasRole[account] */\n  0x00\n    /* \"@openzeppelin/contracts/access/AccessControl.sol\":6312:6319  account */\n  dup5\n    /* \"@openzeppelin/contracts/access/AccessControl.sol\":6291:6320  _roles[role].hasRole[account] */\n  0xffffffffffffffffffffffffffffffffffffffff\n  and\n  0xffffffffffffffffffffffffffffffffffffffff\n  and\n  dup2\n  mstore\n  0x20\n  add\n  swap1\n  dup2\n  mstore\n  0x20\n  add\n  0x00\n  keccak256\n  0x00\n    /* \"@openzeppelin/contracts/access/AccessControl.sol\":6291:6327  _roles[role].hasRole[account] = true */\n  0x0100\n  exp\n  dup2\n  sload\n  dup2\n  0xff\n  mul\n  not\n  and\n  swap1\n  dup4\n  iszero\n  iszero\n  mul\n  or\n  swap1\n  sstore\n  pop\n    /* \"@openzeppelin/contracts/access/AccessControl.sol\":6373:6385  _msgSender() */\n  tag_20\n    /* \"@openzeppelin/contracts/access/AccessControl.sol\":6373:6383  _msgSender */\n  shl(0x20, tag_21)\n    /* \"@openzeppelin/contracts/access/AccessControl.sol\":6373:6385  _msgSender() */\n  0x20\n  shr\n  jump\t// in\ntag_20:\n    /* \"@openzeppelin/contracts/access/AccessControl.sol\":6346:6386  RoleGranted(role, account, _msgSender()) */\n  0xffffffffffffffffffffffffffffffffffffffff\n  and\n    /* \"@openzeppelin/contracts/access/AccessControl.sol\":6364:6371  account */\n  dup3\n    /* \"@openzeppelin/contracts/access/AccessControl.sol\":6346:6386  RoleGranted(role, account, _msgSender()) */\n  0xffffffffffffffffffffffffffffffffffffffff\n  and\n    /* \"@openzeppelin/contracts/access/AccessControl.sol\":6358:6362  role */\n  dup5\n    /* \"@openzeppelin/contracts/access/AccessControl.sol\":6346:6386  RoleGranted(role, account, _msgSender()) */\n  0x2f8788117e7eff1d82e926ec794901d17c78024a50270940304540a733656f0d\n  mload(0x40)\n  mload(0x40)\n  dup1\n  swap2\n  sub\n  swap1\n  log4\n    /* \"@openzeppelin/contracts/access/AccessControl.sol\":6407:6411  true */\n  0x01\n    /* \"@openzeppelin/contracts/access/AccessControl.sol\":6400:6411  return true */\n  swap1\n  pop\n  jump(tag_16)\n    /* \"@openzeppelin/contracts/access/AccessControl.sol\":6248:6465  if (!hasRole(role, account)) {... */\ntag_19:\n    /* \"@openzeppelin/contracts/access/AccessControl.sol\":6449:6454  false */\n  0x00\n    /* \"@openzeppelin/contracts/access/AccessControl.sol\":6442:6454  return false */\n  swap1\n  pop\n    /* \"@openzeppelin/contracts/access/AccessControl.sol\":6155:6471  function _grantRole(bytes32 role, address account) internal virtual returns (bool) {... */\ntag_16:\n  swap3\n  swap2\n  pop\n  pop\n  jump\t// out\n    /* \"@openzeppelin/contracts/access/AccessControl.sol\":2830:2966  function hasRole(bytes32 role, address account) public view virtual returns (bool) {... */\ntag_18:\n    /* \"@openzeppelin/contracts/access/AccessControl.sol\":2907:2911  bool */\n  0x00\n    /* \"@openzeppelin/contracts/access/AccessControl.sol\":2930:2936  _roles */\n  0x01\n    /* \"@openzeppelin/contracts/access/AccessControl.sol\":2930:2942  _roles[role] */\n  0x00\n    /* \"@openzeppelin/contracts/access/AccessControl.sol\":2937:2941  role */\n  dup5\n    /* \"@openzeppelin/contracts/access/AccessControl.sol\":2930:2942  _roles[role] */\n  dup2\n  mstore\n  0x20\n  add\n  swap1\n  dup2\n  mstore\n  0x20\n  add\n  0x00\n  keccak256\n    /* \"@openzeppelin/contracts/access/AccessControl.sol\":2930:2950  _roles[role].hasRole */\n  0x00\n  add\n    /* \"@openzeppelin/contracts/access/AccessControl.sol\":2930:2959  _roles[role].hasRole[account] */\n  0x00\n    /* \"@openzeppelin/contracts/access/AccessControl.sol\":2951:2958  account */\n  dup4\n    /* \"@openzeppelin/contracts/access/AccessControl.sol\":2930:2959  _roles[role].hasRole[account] */\n  0xffffffffffffffffffffffffffffffffffffffff\n  and\n  0xffffffffffffffffffffffffffffffffffffffff\n  and\n  dup2\n  mstore\n  0x20\n  add\n  swap1\n  dup2\n  mstore\n  0x20\n  add\n  0x00\n  keccak256\n  0x00\n  swap1\n  sload\n  swap1\n  0x0100\n  exp\n  swap1\n  div\n  0xff\n  and\n    /* \"@openzeppelin/contracts/access/AccessControl.sol\":2923:2959  return _roles[role].hasRole[account] */\n  swap1\n  pop\n    /* \"@openzeppelin/contracts/access/AccessControl.sol\":2830:2966  function hasRole(bytes32 role, address account) public view virtual returns (bool) {... */\n  swap3\n  swap2\n  pop\n  pop\n  jump\t// out\n    /* \"@openzeppelin/contracts/utils/Context.sol\":656:752  function _msgSender() internal view virtual returns (address) {... */\ntag_21:\n    /* \"@openzeppelin/contracts/utils/Context.sol\":709:716  address */\n  0x00\n    /* \"@openzeppelin/contracts/utils/Context.sol\":735:745  msg.sender */\n  caller\n    /* \"@openzeppelin/contracts/utils/Context.sol\":728:745  return msg.sender */\n  swap1\n  pop\n    /* \"@openzeppelin/contracts/utils/Context.sol\":656:752  function _msgSender() internal view virtual returns (address) {... */\n  swap1\n  jump\t// out\n    /* \"#utility.yul\":88:205   */\ntag_26:\n    /* \"#utility.yul\":197:198   */\n  0x00\n    /* \"#utility.yul\":194:195   */\n  0x00\n    /* \"#utility.yul\":187:199   */\n  revert\n    /* \"#utility.yul\":334:460   */\ntag_28:\n    /* \"#utility.yul\":371:378   */\n  0x00\n    /* \"#utility.yul\":411:453   */\n  0xffffffffffffffffffffffffffffffffffffffff\n    /* \"#utility.yul\":404:409   */\n  dup3\n    /* \"#utility.yul\":400:454   */\n  and\n    /* \"#utility.yul\":389:454   */\n  swap1\n  pop\n    /* \"#utility.yul\":334:460   */\n  swap2\n  swap1\n  pop\n  jump\t// out\n    /* \"#utility.yul\":466:562   */\ntag_29:\n    /* \"#utility.yul\":503:510   */\n  0x00\n    /* \"#utility.yul\":532:556   */\n  tag_41\n    /* \"#utility.yul\":550:555   */\n  dup3\n    /* \"#utility.yul\":532:556   */\n  tag_28\n  jump\t// in\ntag_41:\n    /* \"#utility.yul\":521:556   */\n  swap1\n  pop\n    /* \"#utility.yul\":466:562   */\n  swap2\n  swap1\n  pop\n  jump\t// out\n    /* \"#utility.yul\":568:690   */\ntag_30:\n    /* \"#utility.yul\":641:665   */\n  tag_43\n    /* \"#utility.yul\":659:664   */\n  dup2\n    /* \"#utility.yul\":641:665   */\n  tag_29\n  jump\t// in\ntag_43:\n    /* \"#utility.yul\":634:639   */\n  dup2\n    /* \"#utility.yul\":631:666   */\n  eq\n    /* \"#utility.yul\":621:684   */\n  tag_44\n  jumpi\n    /* \"#utility.yul\":680:681   */\n  0x00\n    /* \"#utility.yul\":677:678   */\n  0x00\n    /* \"#utility.yul\":670:682   */\n  revert\n    /* \"#utility.yul\":621:684   */\ntag_44:\n    /* \"#utility.yul\":568:690   */\n  pop\n  jump\t// out\n    /* \"#utility.yul\":696:839   */\ntag_31:\n    /* \"#utility.yul\":753:758   */\n  0x00\n    /* \"#utility.yul\":784:790   */\n  dup2\n    /* \"#utility.yul\":778:791   */\n  mload\n    /* \"#utility.yul\":769:791   */\n  swap1\n  pop\n    /* \"#utility.yul\":800:833   */\n  tag_46\n    /* \"#utility.yul\":827:832   */\n  dup2\n    /* \"#utility.yul\":800:833   */\n  tag_30\n  jump\t// in\ntag_46:\n    /* \"#utility.yul\":696:839   */\n  swap3\n  swap2\n  pop\n  pop\n  jump\t// out\n    /* \"#utility.yul\":845:1508   */\ntag_3:\n    /* \"#utility.yul\":933:939   */\n  0x00\n    /* \"#utility.yul\":941:947   */\n  0x00\n    /* \"#utility.yul\":949:955   */\n  0x00\n    /* \"#utility.yul\":998:1000   */\n  0x60\n    /* \"#utility.yul\":986:995   */\n  dup5\n    /* \"#utility.yul\":977:984   */\n  dup7\n    /* \"#utility.yul\":973:996   */\n  sub\n    /* \"#utility.yul\":969:1001   */\n  slt\n    /* \"#utility.yul\":966:1085   */\n  iszero\n  tag_48\n  jumpi\n    /* \"#utility.yul\":1004:1083   */\n  tag_49\n  tag_26\n  jump\t// in\ntag_49:\n    /* \"#utility.yul\":966:1085   */\ntag_48:\n    /* \"#utility.yul\":1124:1125   */\n  0x00\n    /* \"#utility.yul\":1149:1213   */\n  tag_50\n    /* \"#utility.yul\":1205:1212   */\n  dup7\n    /* \"#utility.yul\":1196:1202   */\n  dup3\n    /* \"#utility.yul\":1185:1194   */\n  dup8\n    /* \"#utility.yul\":1181:1203   */\n  add\n    /* \"#utility.yul\":1149:1213   */\n  tag_31\n  jump\t// in\ntag_50:\n    /* \"#utility.yul\":1139:1213   */\n  swap4\n  pop\n    /* \"#utility.yul\":1095:1223   */\n  pop\n    /* \"#utility.yul\":1262:1264   */\n  0x20\n    /* \"#utility.yul\":1288:1352   */\n  tag_51\n    /* \"#utility.yul\":1344:1351   */\n  dup7\n    /* \"#utility.yul\":1335:1341   */\n  dup3\n    /* \"#utility.yul\":1324:1333   */\n  dup8\n    /* \"#utility.yul\":1320:1342   */\n  add\n    /* \"#utility.yul\":1288:1352   */\n  tag_31\n  jump\t// in\ntag_51:\n    /* \"#utility.yul\":1278:1352   */\n  swap3\n  pop\n    /* \"#utility.yul\":1233:1362   */\n  pop\n    /* \"#utility.yul\":1401:1403   */\n  0x40\n    /* \"#utility.yul\":1427:1491   */\n  tag_52\n    /* \"#utility.yul\":1483:1490   */\n  dup7\n    /* \"#utility.yul\":1474:1480   */\n  dup3\n    /* \"#utility.yul\":1463:1472   */\n  dup8\n    /* \"#utility.yul\":1459:1481   */\n  add\n    /* \"#utility.yul\":1427:1491   */\n  tag_31\n  jump\t// in\ntag_52:\n    /* \"#utility.yul\":1417:1491   */\n  swap2\n  pop\n    /* \"#utility.yul\":1372:1501   */\n  pop\n    /* \"#utility.yul\":845:1508   */\n  swap3\n  pop\n  swap3\n  pop\n  swap3\n  jump\t// out\n    /* \"#utility.yul\":1514:1683   */\ntag_32:\n    /* \"#utility.yul\":1598:1609   */\n  0x00\n    /* \"#utility.yul\":1632:1638   */\n  dup3\n    /* \"#utility.yul\":1627:1630   */\n  dup3\n    /* \"#utility.yul\":1620:1639   */\n  mstore\n    /* \"#utility.yul\":1672:1676   */\n  0x20\n    /* \"#utility.yul\":1667:1670   */\n  dup3\n    /* \"#utility.yul\":1663:1677   */\n  add\n    /* \"#utility.yul\":1648:1677   */\n  swap1\n  pop\n    /* \"#utility.yul\":1514:1683   */\n  swap3\n  swap2\n  pop\n  pop\n  jump\t// out\n    /* \"#utility.yul\":1689:1856   */\ntag_33:\n    /* \"#utility.yul\":1829:1848   */\n  0x496e76616c696420616464726573736573000000000000000000000000000000\n    /* \"#utility.yul\":1825:1826   */\n  0x00\n    /* \"#utility.yul\":1817:1823   */\n  dup3\n    /* \"#utility.yul\":1813:1827   */\n  add\n    /* \"#utility.yul\":1806:1849   */\n  mstore\n    /* \"#utility.yul\":1689:1856   */\n  pop\n  jump\t// out\n    /* \"#utility.yul\":1862:2228   */\ntag_34:\n    /* \"#utility.yul\":2004:2007   */\n  0x00\n    /* \"#utility.yul\":2025:2092   */\n  tag_56\n    /* \"#utility.yul\":2089:2091   */\n  0x11\n    /* \"#utility.yul\":2084:2087   */\n  dup4\n    /* \"#utility.yul\":2025:2092   */\n  tag_32\n  jump\t// in\ntag_56:\n    /* \"#utility.yul\":2018:2092   */\n  swap2\n  pop\n    /* \"#utility.yul\":2101:2194   */\n  tag_57\n    /* \"#utility.yul\":2190:2193   */\n  dup3\n    /* \"#utility.yul\":2101:2194   */\n  tag_33\n  jump\t// in\ntag_57:\n    /* \"#utility.yul\":2219:2221   */\n  0x20\n    /* \"#utility.yul\":2214:2217   */\n  dup3\n    /* \"#utility.yul\":2210:2222   */\n  add\n    /* \"#utility.yul\":2203:2222   */\n  swap1\n  pop\n    /* \"#utility.yul\":1862:2228   */\n  swap2\n  swap1\n  pop\n  jump\t// out\n    /* \"#utility.yul\":2234:2653   */\ntag_11:\n    /* \"#utility.yul\":2400:2404   */\n  0x00\n    /* \"#utility.yul\":2438:2440   */\n  0x20\n    /* \"#utility.yul\":2427:2436   */\n  dup3\n    /* \"#utility.yul\":2423:2441   */\n  add\n    /* \"#utility.yul\":2415:2441   */\n  swap1\n  pop\n    /* \"#utility.yul\":2487:2496   */\n  dup2\n    /* \"#utility.yul\":2481:2485   */\n  dup2\n    /* \"#utility.yul\":2477:2497   */\n  sub\n    /* \"#utility.yul\":2473:2474   */\n  0x00\n    /* \"#utility.yul\":2462:2471   */\n  dup4\n    /* \"#utility.yul\":2458:2475   */\n  add\n    /* \"#utility.yul\":2451:2498   */\n  mstore\n    /* \"#utility.yul\":2515:2646   */\n  tag_59\n    /* \"#utility.yul\":2641:2645   */\n  dup2\n    /* \"#utility.yul\":2515:2646   */\n  tag_34\n  jump\t// in\ntag_59:\n    /* \"#utility.yul\":2507:2646   */\n  swap1\n  pop\n    /* \"#utility.yul\":2234:2653   */\n  swap2\n  swap1\n  pop\n  jump\t// out\n    /* \"contracts/PlayerMarket.sol\":446:5028  contract PlayerMarket is ReentrancyGuard, AccessControl {... */\ntag_15:\n  mload(0x80)\n  codecopy(0x00, dataOffset(sub_0), dataSize(sub_0))\n  0x00\n  assignImmutable(\"0x7e732ae4670e5050f1d0176dd0b2f251709b9783b190355dd5c4b4d37f4fe131\")\n  return(0x00, dataSize(sub_0))\nstop\n\nsub_0: assembly {\n        /* \"contracts/PlayerMarket.sol\":446:5028  contract PlayerMarket is ReentrancyGuard, AccessControl {... */\n      mstore(0x40, 0x80)\n      callvalue\n      dup1\n      iszero\n      tag_1\n      jumpi\n      revert(0x00, 0x00)\n    tag_1:\n      pop\n      jumpi(tag_2, lt(calldatasize, 0x04))\n      shr(0xe0, calldataload(0x00))\n      dup1\n      0x924cca9a\n      gt\n      tag_24\n      jumpi\n      dup1\n      0xd547741f\n      gt\n      tag_25\n      jumpi\n      dup1\n      0xd547741f\n      eq\n      tag_18\n      jumpi\n      dup1\n      0xd67c6872\n      eq\n      tag_19\n      jumpi\n      dup1\n      0xe1a45218\n      eq\n      tag_20\n      jumpi\n      dup1\n      0xec4a8b17\n      eq\n      tag_21\n      jumpi\n      dup1\n      0xf0f44260\n      eq\n      tag_22\n      jumpi\n      dup1\n      0xf71d96cb\n      eq\n      tag_23\n      jumpi\n      jump(tag_2)\n    tag_25:\n      dup1\n      0x924cca9a\n      eq\n      tag_13\n      jumpi\n      dup1\n      0xa217fddf\n      eq\n      tag_14\n      jumpi\n      dup1\n      0xad954878\n      eq\n      tag_15\n      jumpi\n      dup1\n      0xb0d54bcf\n      eq\n      tag_16\n      jumpi\n      dup1\n      0xbca7d4e1\n      eq\n      tag_17\n      jumpi\n      jump(tag_2)\n    tag_24:\n      dup1\n      0x75b238fc\n      gt\n      tag_26\n      jumpi\n      dup1\n      0x75b238fc\n      eq\n      tag_8\n      jumpi\n      dup1\n      0x7aabf58a\n      eq\n      tag_9\n      jumpi\n      dup1\n      0x8301b93d\n      eq\n      tag_10\n      jumpi\n      dup1\n      0x85198705\n      eq\n      tag_11\n      jumpi\n      dup1\n      0x91d14854\n      eq\n      tag_12\n      jumpi\n      jump(tag_2)\n    tag_26:\n      dup1\n      0x01ffc9a7\n      eq\n      tag_3\n      jumpi\n      dup1\n      0x248a9ca3\n      eq\n      tag_4\n      jumpi\n      dup1\n      0x2f2ff15d\n      eq\n      tag_5\n      jumpi\n      dup1\n      0x36568abe\n      eq\n      tag_6\n      jumpi\n      dup1\n      0x61d027b3\n      eq\n      tag_7\n      jumpi\n    tag_2:\n      revert(0x00, 0x00)\n        /* \"@openzeppelin/contracts/access/AccessControl.sol\":2541:2743  function supportsInterface(bytes4 interfaceId) public view virtual override returns (bool) {... */\n    tag_3:\n      tag_27\n      0x04\n      dup1\n      calldatasize\n      sub\n      dup2\n      add\n      swap1\n      tag_28\n      swap2\n      swap1\n      tag_29\n      jump\t// in\n    tag_28:\n      tag_30\n      jump\t// in\n    tag_27:\n      mload(0x40)\n      tag_31\n      swap2\n      swap1\n      tag_32\n      jump\t// in\n    tag_31:\n      mload(0x40)\n      dup1\n      swap2\n      sub\n      swap1\n      return\n        /* \"@openzeppelin/contracts/access/AccessControl.sol\":3786:3906  function getRoleAdmin(bytes32 role) public view virtual returns (bytes32) {... */\n    tag_4:\n      tag_33\n      0x04\n      dup1\n      calldatasize\n      sub\n      dup2\n      add\n      swap1\n      tag_34\n      swap2\n      swap1\n      tag_35\n      jump\t// in\n    tag_34:\n      tag_36\n      jump\t// in\n    tag_33:\n      mload(0x40)\n      tag_37\n      swap2\n      swap1\n      tag_38\n      jump\t// in\n    tag_37:\n      mload(0x40)\n      dup1\n      swap2\n      sub\n      swap1\n      return\n        /* \"@openzeppelin/contracts/access/AccessControl.sol\":4202:4338  function grantRole(bytes32 role, address account) public virtual onlyRole(getRoleAdmin(role)) {... */\n    tag_5:\n      tag_39\n      0x04\n      dup1\n      calldatasize\n      sub\n      dup2\n      add\n      swap1\n      tag_40\n      swap2\n      swap1\n      tag_41\n      jump\t// in\n    tag_40:\n      tag_42\n      jump\t// in\n    tag_39:\n      stop\n        /* \"@openzeppelin/contracts/access/AccessControl.sol\":5304:5549  function renounceRole(bytes32 role, address callerConfirmation) public virtual {... */\n    tag_6:\n      tag_43\n      0x04\n      dup1\n      calldatasize\n      sub\n      dup2\n      add\n      swap1\n      tag_44\n      swap2\n      swap1\n      tag_41\n      jump\t// in\n    tag_44:\n      tag_45\n      jump\t// in\n    tag_43:\n      stop\n        /* \"contracts/PlayerMarket.sol\":615:638  address public treasury */\n    tag_7:\n      tag_46\n      tag_47\n      jump\t// in\n    tag_46:\n      mload(0x40)\n      tag_48\n      swap2\n      swap1\n      tag_49\n      jump\t// in\n    tag_48:\n      mload(0x40)\n      dup1\n      swap2\n      sub\n      swap1\n      return\n        /* \"contracts/PlayerMarket.sol\":508:568  bytes32 public constant ADMIN_ROLE = keccak256(\"ADMIN_ROLE\") */\n    tag_8:\n      tag_50\n      tag_51\n      jump\t// in\n    tag_50:\n      mload(0x40)\n      tag_52\n      swap2\n      swap1\n      tag_38\n      jump\t// in\n    tag_52:\n      mload(0x40)\n      dup1\n      swap2\n      sub\n      swap1\n      return\n        /* \"contracts/PlayerMarket.sol\":2378:3695  function buyShares(uint256 playerId, uint256 ftkAmount, uint256 minShares) external nonReentrant {... */\n    tag_9:\n      tag_53\n      0x04\n      dup1\n      calldatasize\n      sub\n      dup2\n      add\n      swap1\n      tag_54\n      swap2\n      swap1\n      tag_55\n      jump\t// in\n    tag_54:\n      tag_56\n      jump\t// in\n    tag_53:\n      stop\n        /* \"contracts/PlayerMarket.sol\":575:609  IFantasyToken public immutable ftk */\n    tag_10:\n      tag_57\n      tag_58\n      jump\t// in\n    tag_57:\n      mload(0x40)\n      tag_59\n      swap2\n      swap1\n      tag_60\n      jump\t// in\n    tag_59:\n      mload(0x40)\n      dup1\n      swap2\n      sub\n      swap1\n      return\n        /* \"contracts/PlayerMarket.sol\":4615:4750  function userBalance(uint256 playerId, address user) external view returns (uint256) {... */\n    tag_11:\n      tag_61\n      0x04\n      dup1\n      calldatasize\n      sub\n      dup2\n      add\n      swap1\n      tag_62\n      swap2\n      swap1\n      tag_63\n      jump\t// in\n    tag_62:\n      tag_64\n      jump\t// in\n    tag_61:\n      mload(0x40)\n      tag_65\n      swap2\n      swap1\n      tag_66\n      jump\t// in\n    tag_65:\n      mload(0x40)\n      dup1\n      swap2\n      sub\n      swap1\n      return\n        /* \"@openzeppelin/contracts/access/AccessControl.sol\":2830:2966  function hasRole(bytes32 role, address account) public view virtual returns (bool) {... */\n    tag_12:\n      tag_67\n      0x04\n      dup1\n      calldatasize\n      sub\n      dup2\n      add\n      swap1\n      tag_68\n      swap2\n      swap1\n      tag_41\n      jump\t// in\n    tag_68:\n      tag_69\n      jump\t// in\n    tag_67:\n      mload(0x40)\n      tag_70\n      swap2\n      swap1\n      tag_32\n      jump\t// in\n    tag_70:\n      mload(0x40)\n      dup1\n      swap2\n      sub\n      swap1\n      return\n        /* \"contracts/PlayerMarket.sol\":645:679  uint256 public tradingFeeBps = 200 */\n    tag_13:\n      tag_71\n      tag_72\n      jump\t// in\n    tag_71:\n      mload(0x40)\n      tag_73\n      swap2\n      swap1\n      tag_66\n      jump\t// in\n    tag_73:\n      mload(0x40)\n      dup1\n      swap2\n      sub\n      swap1\n      return\n        /* \"@openzeppelin/contracts/access/AccessControl.sol\":2196:2245  bytes32 public constant DEFAULT_ADMIN_ROLE = 0x00 */\n    tag_14:\n      tag_74\n      tag_75\n      jump\t// in\n    tag_74:\n      mload(0x40)\n      tag_76\n      swap2\n      swap1\n      tag_38\n      jump\t// in\n    tag_76:\n      mload(0x40)\n      dup1\n      swap2\n      sub\n      swap1\n      return\n        /* \"contracts/PlayerMarket.sol\":927:992  mapping(uint256 => mapping(address => uint256)) public userShares */\n    tag_15:\n      tag_77\n      0x04\n      dup1\n      calldatasize\n      sub\n      dup2\n      add\n      swap1\n      tag_78\n      swap2\n      swap1\n      tag_63\n      jump\t// in\n    tag_78:\n      tag_79\n      jump\t// in\n    tag_77:\n      mload(0x40)\n      tag_80\n      swap2\n      swap1\n      tag_66\n      jump\t// in\n    tag_80:\n      mload(0x40)\n      dup1\n      swap2\n      sub\n      swap1\n      return\n        /* \"contracts/PlayerMarket.sol\":2175:2372  function setTradingFee(uint256 feeBps) external onlyRole(ADMIN_ROLE) {... */\n    tag_16:\n      tag_81\n      0x04\n      dup1\n      calldatasize\n      sub\n      dup2\n      add\n      swap1\n      tag_82\n      swap2\n      swap1\n      tag_83\n      jump\t// in\n    tag_82:\n      tag_84\n      jump\t// in\n    tag_81:\n      stop\n        /* \"contracts/PlayerMarket.sol\":4756:5026  function getSharePrice(uint256 playerId) external view returns (uint256) {... */\n    tag_17:\n      tag_85\n      0x04\n      dup1\n      calldatasize\n      sub\n      dup2\n      add\n      swap1\n      tag_86\n      swap2\n      swap1\n      tag_83\n      jump\t// in\n    tag_86:\n      tag_87\n      jump\t// in\n    tag_85:\n      mload(0x40)\n      tag_88\n      swap2\n      swap1\n      tag_66\n      jump\t// in\n    tag_88:\n      mload(0x40)\n      dup1\n      swap2\n      sub\n      swap1\n      return\n        /* \"@openzeppelin/contracts/access/AccessControl.sol\":4618:4756  function revokeRole(bytes32 role, address account) public virtual onlyRole(getRoleAdmin(role)) {... */\n    tag_18:\n      tag_89\n      0x04\n      dup1\n      calldatasize\n      sub\n      dup2\n      add\n      swap1\n      tag_90\n      swap2\n      swap1\n      tag_41\n      jump\t// in\n    tag_90:\n      tag_91\n      jump\t// in\n    tag_89:\n      stop\n        /* \"contracts/PlayerMarket.sol\":3701:4609  function sellShares(uint256 playerId, uint256 shares, uint256 minFTK) external nonReentrant {... */\n    tag_19:\n      tag_92\n      0x04\n      dup1\n      calldatasize\n      sub\n      dup2\n      add\n      swap1\n      tag_93\n      swap2\n      swap1\n      tag_55\n      jump\t// in\n    tag_93:\n      tag_94\n      jump\t// in\n    tag_92:\n      stop\n        /* \"contracts/PlayerMarket.sol\":685:732  uint256 public constant BPS_DENOMINATOR = 10000 */\n    tag_20:\n      tag_95\n      tag_96\n      jump\t// in\n    tag_95:\n      mload(0x40)\n      tag_97\n      swap2\n      swap1\n      tag_66\n      jump\t// in\n    tag_97:\n      mload(0x40)\n      dup1\n      swap2\n      sub\n      swap1\n      return\n        /* \"contracts/PlayerMarket.sol\":1693:1953  function addPlayer(uint256 playerId) external onlyRole(ADMIN_ROLE) {... */\n    tag_21:\n      tag_98\n      0x04\n      dup1\n      calldatasize\n      sub\n      dup2\n      add\n      swap1\n      tag_99\n      swap2\n      swap1\n      tag_83\n      jump\t// in\n    tag_99:\n      tag_100\n      jump\t// in\n    tag_98:\n      stop\n        /* \"contracts/PlayerMarket.sol\":1959:2169  function setTreasury(address _treasury) external onlyRole(ADMIN_ROLE) {... */\n    tag_22:\n      tag_101\n      0x04\n      dup1\n      calldatasize\n      sub\n      dup2\n      add\n      swap1\n      tag_102\n      swap2\n      swap1\n      tag_103\n      jump\t// in\n    tag_102:\n      tag_104\n      jump\t// in\n    tag_101:\n      stop\n        /* \"contracts/PlayerMarket.sol\":850:895  mapping(uint256 => PlayerPool) public players */\n    tag_23:\n      tag_105\n      0x04\n      dup1\n      calldatasize\n      sub\n      dup2\n      add\n      swap1\n      tag_106\n      swap2\n      swap1\n      tag_83\n      jump\t// in\n    tag_106:\n      tag_107\n      jump\t// in\n    tag_105:\n      mload(0x40)\n      tag_108\n      swap4\n      swap3\n      swap2\n      swap1\n      tag_109\n      jump\t// in\n    tag_108:\n      mload(0x40)\n      dup1\n      swap2\n      sub\n      swap1\n      return\n        /* \"@openzeppelin/contracts/access/AccessControl.sol\":2541:2743  function supportsInterface(bytes4 interfaceId) public view virtual override returns (bool) {... */\n    tag_30:\n        /* \"@openzeppelin/contracts/access/AccessControl.sol\":2626:2630  bool */\n      0x00\n        /* \"@openzeppelin/contracts/access/AccessControl.sol\":2664:2696  type(IAccessControl).interfaceId */\n      0x7965db0b00000000000000000000000000000000000000000000000000000000\n        /* \"@openzeppelin/contracts/access/AccessControl.sol\":2649:2696  interfaceId == type(IAccessControl).interfaceId */\n      not(0xffffffffffffffffffffffffffffffffffffffffffffffffffffffff)\n      and\n        /* \"@openzeppelin/contracts/access/AccessControl.sol\":2649:2660  interfaceId */\n      dup3\n        /* \"@openzeppelin/contracts/access/AccessControl.sol\":2649:2696  interfaceId == type(IAccessControl).interfaceId */\n      not(0xffffffffffffffffffffffffffffffffffffffffffffffffffffffff)\n      and\n      eq\n        /* \"@openzeppelin/contracts/access/AccessControl.sol\":2649:2736  interfaceId == type(IAccessControl).interfaceId || super.supportsInterface(interfaceId) */\n      dup1\n      tag_111\n      jumpi\n      pop\n        /* \"@openzeppelin/contracts/access/AccessControl.sol\":2700:2736  super.supportsInterface(interfaceId) */\n      tag_112\n        /* \"@openzeppelin/contracts/access/AccessControl.sol\":2724:2735  interfaceId */\n      dup3\n        /* \"@openzeppelin/contracts/access/AccessControl.sol\":2700:2723  super.supportsInterface */\n      tag_113\n        /* \"@openzeppelin/contracts/access/AccessControl.sol\":2700:2736  super.supportsInterface(interfaceId) */\n      jump\t// in\n    tag_112:\n        /* \"@openzeppelin/contracts/access/AccessControl.sol\":2649:2736  interfaceId == type(IAccessControl).interfaceId || super.supportsInterface(interfaceId) */\n    tag_111:\n        /* \"@openzeppelin/contracts/access/AccessControl.sol\":2642:2736  return interfaceId == type(IAccessControl).interfaceId || super.supportsInterface(interfaceId) */\n      swap1\n      pop\n        /* \"@openzeppelin/contracts/access/AccessControl.sol\":2541:2743  function supportsInterface(bytes4 interfaceId) public view virtual override returns (bool) {... */\n      swap2\n      swap1\n      pop\n      jump\t// out\n        /* \"@openzeppelin/contracts/access/AccessControl.sol\":3786:3906  function getRoleAdmin(bytes32 role) public view virtual returns (bytes32) {... */\n    tag_36:\n        /* \"@openzeppelin/contracts/access/AccessControl.sol\":3851:3858  bytes32 */\n      0x00\n        /* \"@openzeppelin/contracts/access/AccessControl.sol\":3877:3883  _roles */\n      0x01\n        /* \"@openzeppelin/contracts/access/AccessControl.sol\":3877:3889  _roles[role] */\n      0x00\n        /* \"@openzeppelin/contracts/access/AccessControl.sol\":3884:3888  role */\n      dup4\n        /* \"@openzeppelin/contracts/access/AccessControl.sol\":3877:3889  _roles[role] */\n      dup2\n      mstore\n      0x20\n      add\n      swap1\n      dup2\n      mstore\n      0x20\n      add\n      0x00\n      keccak256\n        /* \"@openzeppelin/contracts/access/AccessControl.sol\":3877:3899  _roles[role].adminRole */\n      0x01\n      add\n      sload\n        /* \"@openzeppelin/contracts/access/AccessControl.sol\":3870:3899  return _roles[role].adminRole */\n      swap1\n      pop\n        /* \"@openzeppelin/contracts/access/AccessControl.sol\":3786:3906  function getRoleAdmin(bytes32 role) public view virtual returns (bytes32) {... */\n      swap2\n      swap1\n      pop\n      jump\t// out\n        /* \"@openzeppelin/contracts/access/AccessControl.sol\":4202:4338  function grantRole(bytes32 role, address account) public virtual onlyRole(getRoleAdmin(role)) {... */\n    tag_42:\n        /* \"@openzeppelin/contracts/access/AccessControl.sol\":4276:4294  getRoleAdmin(role) */\n      tag_115\n        /* \"@openzeppelin/contracts/access/AccessControl.sol\":4289:4293  role */\n      dup3\n        /* \"@openzeppelin/contracts/access/AccessControl.sol\":4276:4288  getRoleAdmin */\n      tag_36\n        /* \"@openzeppelin/contracts/access/AccessControl.sol\":4276:4294  getRoleAdmin(role) */\n      jump\t// in\n    tag_115:\n        /* \"@openzeppelin/contracts/access/AccessControl.sol\":2473:2489  _checkRole(role) */\n      tag_117\n        /* \"@openzeppelin/contracts/access/AccessControl.sol\":2484:2488  role */\n      dup2\n        /* \"@openzeppelin/contracts/access/AccessControl.sol\":2473:2483  _checkRole */\n      tag_118\n        /* \"@openzeppelin/contracts/access/AccessControl.sol\":2473:2489  _checkRole(role) */\n      jump\t// in\n    tag_117:\n        /* \"@openzeppelin/contracts/access/AccessControl.sol\":4306:4331  _grantRole(role, account) */\n      tag_120\n        /* \"@openzeppelin/contracts/access/AccessControl.sol\":4317:4321  role */\n      dup4\n        /* \"@openzeppelin/contracts/access/AccessControl.sol\":4323:4330  account */\n      dup4\n        /* \"@openzeppelin/contracts/access/AccessControl.sol\":4306:4316  _grantRole */\n      tag_121\n        /* \"@openzeppelin/contracts/access/AccessControl.sol\":4306:4331  _grantRole(role, account) */\n      jump\t// in\n    tag_120:\n      pop\n        /* \"@openzeppelin/contracts/access/AccessControl.sol\":4202:4338  function grantRole(bytes32 role, address account) public virtual onlyRole(getRoleAdmin(role)) {... */\n      pop\n      pop\n      pop\n      jump\t// out\n        /* \"@openzeppelin/contracts/access/AccessControl.sol\":5304:5549  function renounceRole(bytes32 role, address callerConfirmation) public virtual {... */\n    tag_45:\n        /* \"@openzeppelin/contracts/access/AccessControl.sol\":5419:5431  _msgSender() */\n      tag_123\n        /* \"@openzeppelin/contracts/access/AccessControl.sol\":5419:5429  _msgSender */\n      tag_124\n        /* \"@openzeppelin/contracts/access/AccessControl.sol\":5419:5431  _msgSender() */\n      jump\t// in\n    tag_123:\n        /* \"@openzeppelin/contracts/access/AccessControl.sol\":5397:5431  callerConfirmation != _msgSender() */\n      0xffffffffffffffffffffffffffffffffffffffff\n      and\n        /* \"@openzeppelin/contracts/access/AccessControl.sol\":5397:5415  callerConfirmation */\n      dup2\n        /* \"@openzeppelin/contracts/access/AccessControl.sol\":5397:5431  callerConfirmation != _msgSender() */\n      0xffffffffffffffffffffffffffffffffffffffff\n      and\n      eq\n        /* \"@openzeppelin/contracts/access/AccessControl.sol\":5393:5495  if (callerConfirmation != _msgSender()) {... */\n      tag_125\n      jumpi\n        /* \"@openzeppelin/contracts/access/AccessControl.sol\":5454:5484  AccessControlBadConfirmation() */\n      mload(0x40)\n      0x6697b23200000000000000000000000000000000000000000000000000000000\n      dup2\n      mstore\n      0x04\n      add\n      mload(0x40)\n      dup1\n      swap2\n      sub\n      swap1\n      revert\n        /* \"@openzeppelin/contracts/access/AccessControl.sol\":5393:5495  if (callerConfirmation != _msgSender()) {... */\n    tag_125:\n        /* \"@openzeppelin/contracts/access/AccessControl.sol\":5505:5542  _revokeRole(role, callerConfirmation) */\n      tag_126\n        /* \"@openzeppelin/contracts/access/AccessControl.sol\":5517:5521  role */\n      dup3\n        /* \"@openzeppelin/contracts/access/AccessControl.sol\":5523:5541  callerConfirmation */\n      dup3\n        /* \"@openzeppelin/contracts/access/AccessControl.sol\":5505:5516  _revokeRole */\n      tag_127\n        /* \"@openzeppelin/contracts/access/AccessControl.sol\":5505:5542  _revokeRole(role, callerConfirmation) */\n      jump\t// in\n    tag_126:\n      pop\n        /* \"@openzeppelin/contracts/access/AccessControl.sol\":5304:5549  function renounceRole(bytes32 role, address callerConfirmation) public virtual {... */\n      pop\n      pop\n      jump\t// out\n        /* \"contracts/PlayerMarket.sol\":615:638  address public treasury */\n    tag_47:\n      0x02\n      0x00\n      swap1\n      sload\n      swap1\n      0x0100\n      exp\n      swap1\n      div\n      0xffffffffffffffffffffffffffffffffffffffff\n      and\n      dup2\n      jump\t// out\n        /* \"contracts/PlayerMarket.sol\":508:568  bytes32 public constant ADMIN_ROLE = keccak256(\"ADMIN_ROLE\") */\n    tag_51:\n        /* \"contracts/PlayerMarket.sol\":545:568  keccak256(\"ADMIN_ROLE\") */\n      0xa49807205ce4d355092ef5a8a18f56e8913cf4a201fbe287825b095693c21775\n        /* \"contracts/PlayerMarket.sol\":508:568  bytes32 public constant ADMIN_ROLE = keccak256(\"ADMIN_ROLE\") */\n      dup2\n      jump\t// out\n        /* \"contracts/PlayerMarket.sol\":2378:3695  function buyShares(uint256 playerId, uint256 ftkAmount, uint256 minShares) external nonReentrant {... */\n    tag_56:\n        /* \"@openzeppelin/contracts/utils/ReentrancyGuard.sol\":2500:2521  _nonReentrantBefore() */\n      tag_129\n        /* \"@openzeppelin/contracts/utils/ReentrancyGuard.sol\":2500:2519  _nonReentrantBefore */\n      tag_130\n        /* \"@openzeppelin/contracts/utils/ReentrancyGuard.sol\":2500:2521  _nonReentrantBefore() */\n      jump\t// in\n    tag_129:\n        /* \"contracts/PlayerMarket.sol\":2485:2508  PlayerPool storage pool */\n      0x00\n        /* \"contracts/PlayerMarket.sol\":2511:2518  players */\n      0x04\n        /* \"contracts/PlayerMarket.sol\":2511:2528  players[playerId] */\n      0x00\n        /* \"contracts/PlayerMarket.sol\":2519:2527  playerId */\n      dup6\n        /* \"contracts/PlayerMarket.sol\":2511:2528  players[playerId] */\n      dup2\n      mstore\n      0x20\n      add\n      swap1\n      dup2\n      mstore\n      0x20\n      add\n      0x00\n      keccak256\n        /* \"contracts/PlayerMarket.sol\":2485:2528  PlayerPool storage pool = players[playerId] */\n      swap1\n      pop\n        /* \"contracts/PlayerMarket.sol\":2546:2550  pool */\n      dup1\n        /* \"contracts/PlayerMarket.sol\":2546:2557  pool.exists */\n      0x02\n      add\n      0x00\n      swap1\n      sload\n      swap1\n      0x0100\n      exp\n      swap1\n      div\n      0xff\n      and\n        /* \"contracts/PlayerMarket.sol\":2538:2578  require(pool.exists, \"Player not found\") */\n      tag_132\n      jumpi\n      mload(0x40)\n      0x08c379a000000000000000000000000000000000000000000000000000000000\n      dup2\n      mstore\n      0x04\n      add\n      tag_133\n      swap1\n      tag_134\n      jump\t// in\n    tag_133:\n      mload(0x40)\n      dup1\n      swap2\n      sub\n      swap1\n      revert\n    tag_132:\n        /* \"contracts/PlayerMarket.sol\":2608:2609  0 */\n      0x00\n        /* \"contracts/PlayerMarket.sol\":2596:2605  ftkAmount */\n      dup4\n        /* \"contracts/PlayerMarket.sol\":2596:2609  ftkAmount > 0 */\n      gt\n        /* \"contracts/PlayerMarket.sol\":2588:2622  require(ftkAmount > 0, \"Zero FTK\") */\n      tag_135\n      jumpi\n      mload(0x40)\n      0x08c379a000000000000000000000000000000000000000000000000000000000\n      dup2\n      mstore\n      0x04\n      add\n      tag_136\n      swap1\n      tag_137\n      jump\t// in\n    tag_136:\n      mload(0x40)\n      dup1\n      swap2\n      sub\n      swap1\n      revert\n    tag_135:\n        /* \"contracts/PlayerMarket.sol\":2667:2670  ftk */\n      immutable(\"0x7e732ae4670e5050f1d0176dd0b2f251709b9783b190355dd5c4b4d37f4fe131\")\n        /* \"contracts/PlayerMarket.sol\":2667:2683  ftk.transferFrom */\n      0xffffffffffffffffffffffffffffffffffffffff\n      and\n      0x23b872dd\n        /* \"contracts/PlayerMarket.sol\":2684:2694  msg.sender */\n      caller\n        /* \"contracts/PlayerMarket.sol\":2704:2708  this */\n      address\n        /* \"contracts/PlayerMarket.sol\":2711:2720  ftkAmount */\n      dup7\n        /* \"contracts/PlayerMarket.sol\":2667:2721  ftk.transferFrom(msg.sender, address(this), ftkAmount) */\n      mload(0x40)\n      dup5\n      0xffffffff\n      and\n      0xe0\n      shl\n      dup2\n      mstore\n      0x04\n      add\n      tag_138\n      swap4\n      swap3\n      swap2\n      swap1\n      tag_139\n      jump\t// in\n    tag_138:\n      0x20\n      mload(0x40)\n      dup1\n      dup4\n      sub\n      dup2\n      0x00\n      dup8\n      gas\n      call\n      iszero\n      dup1\n      iszero\n      tag_141\n      jumpi\n      returndatacopy(0x00, 0x00, returndatasize)\n      revert(0x00, returndatasize)\n    tag_141:\n      pop\n      pop\n      pop\n      pop\n      mload(0x40)\n      returndatasize\n      not(0x1f)\n      0x1f\n      dup3\n      add\n      and\n      dup3\n      add\n      dup1\n      0x40\n      mstore\n      pop\n      dup2\n      add\n      swap1\n      tag_142\n      swap2\n      swap1\n      tag_143\n      jump\t// in\n    tag_142:\n      pop\n        /* \"contracts/PlayerMarket.sol\":2765:2776  uint256 fee */\n      0x00\n        /* \"contracts/PlayerMarket.sol\":727:732  10000 */\n      0x2710\n        /* \"contracts/PlayerMarket.sol\":2792:2805  tradingFeeBps */\n      sload(0x03)\n        /* \"contracts/PlayerMarket.sol\":2780:2789  ftkAmount */\n      dup6\n        /* \"contracts/PlayerMarket.sol\":2780:2805  ftkAmount * tradingFeeBps */\n      tag_144\n      swap2\n      swap1\n      tag_145\n      jump\t// in\n    tag_144:\n        /* \"contracts/PlayerMarket.sol\":2779:2824  (ftkAmount * tradingFeeBps) / BPS_DENOMINATOR */\n      tag_146\n      swap2\n      swap1\n      tag_147\n      jump\t// in\n    tag_146:\n        /* \"contracts/PlayerMarket.sol\":2765:2824  uint256 fee = (ftkAmount * tradingFeeBps) / BPS_DENOMINATOR */\n      swap1\n      pop\n        /* \"contracts/PlayerMarket.sol\":2834:2848  uint256 netFTK */\n      0x00\n        /* \"contracts/PlayerMarket.sol\":2863:2866  fee */\n      dup2\n        /* \"contracts/PlayerMarket.sol\":2851:2860  ftkAmount */\n      dup6\n        /* \"contracts/PlayerMarket.sol\":2851:2866  ftkAmount - fee */\n      tag_148\n      swap2\n      swap1\n      tag_149\n      jump\t// in\n    tag_148:\n        /* \"contracts/PlayerMarket.sol\":2834:2866  uint256 netFTK = ftkAmount - fee */\n      swap1\n      pop\n        /* \"contracts/PlayerMarket.sol\":2919:2920  0 */\n      0x00\n        /* \"contracts/PlayerMarket.sol\":2913:2916  fee */\n      dup3\n        /* \"contracts/PlayerMarket.sol\":2913:2920  fee > 0 */\n      gt\n        /* \"contracts/PlayerMarket.sol\":2909:2974  if (fee > 0) {... */\n      iszero\n      tag_150\n      jumpi\n        /* \"contracts/PlayerMarket.sol\":2936:2939  ftk */\n      immutable(\"0x7e732ae4670e5050f1d0176dd0b2f251709b9783b190355dd5c4b4d37f4fe131\")\n        /* \"contracts/PlayerMarket.sol\":2936:2948  ftk.transfer */\n      0xffffffffffffffffffffffffffffffffffffffff\n      and\n      0xa9059cbb\n        /* \"contracts/PlayerMarket.sol\":2949:2957  treasury */\n      0x02\n      0x00\n      swap1\n      sload\n      swap1\n      0x0100\n      exp\n      swap1\n      div\n      0xffffffffffffffffffffffffffffffffffffffff\n      and\n        /* \"contracts/PlayerMarket.sol\":2959:2962  fee */\n      dup5\n        /* \"contracts/PlayerMarket.sol\":2936:2963  ftk.transfer(treasury, fee) */\n      mload(0x40)\n      dup4\n      0xffffffff\n      and\n      0xe0\n      shl\n      dup2\n      mstore\n      0x04\n      add\n      tag_151\n      swap3\n      swap2\n      swap1\n      tag_152\n      jump\t// in\n    tag_151:\n      0x20\n      mload(0x40)\n      dup1\n      dup4\n      sub\n      dup2\n      0x00\n      dup8\n      gas\n      call\n      iszero\n      dup1\n      iszero\n      tag_154\n      jumpi\n      returndatacopy(0x00, 0x00, returndatasize)\n      revert(0x00, returndatasize)\n    tag_154:\n      pop\n      pop\n      pop\n      pop\n      mload(0x40)\n      returndatasize\n      not(0x1f)\n      0x1f\n      dup3\n      add\n      and\n      dup3\n      add\n      dup1\n      0x40\n      mstore\n      pop\n      dup2\n      add\n      swap1\n      tag_155\n      swap2\n      swap1\n      tag_143\n      jump\t// in\n    tag_155:\n      pop\n        /* \"contracts/PlayerMarket.sol\":2909:2974  if (fee > 0) {... */\n    tag_150:\n        /* \"contracts/PlayerMarket.sol\":3036:3056  uint256 sharesToMint */\n      0x00\n        /* \"contracts/PlayerMarket.sol\":3090:3091  0 */\n      0x00\n        /* \"contracts/PlayerMarket.sol\":3070:3074  pool */\n      dup5\n        /* \"contracts/PlayerMarket.sol\":3070:3086  pool.totalShares */\n      0x00\n      add\n      sload\n        /* \"contracts/PlayerMarket.sol\":3070:3091  pool.totalShares == 0 */\n      sub\n        /* \"contracts/PlayerMarket.sol\":3066:3350  if (pool.totalShares == 0) {... */\n      tag_156\n      jumpi\n        /* \"contracts/PlayerMarket.sol\":3173:3179  netFTK */\n      dup2\n        /* \"contracts/PlayerMarket.sol\":3158:3179  sharesToMint = netFTK */\n      swap1\n      pop\n        /* \"contracts/PlayerMarket.sol\":3066:3350  if (pool.totalShares == 0) {... */\n      jump(tag_157)\n    tag_156:\n        /* \"contracts/PlayerMarket.sol\":3322:3326  pool */\n      dup4\n        /* \"contracts/PlayerMarket.sol\":3322:3339  pool.ftkLiquidity */\n      0x01\n      add\n      sload\n        /* \"contracts/PlayerMarket.sol\":3302:3306  pool */\n      dup5\n        /* \"contracts/PlayerMarket.sol\":3302:3318  pool.totalShares */\n      0x00\n      add\n      sload\n        /* \"contracts/PlayerMarket.sol\":3293:3299  netFTK */\n      dup4\n        /* \"contracts/PlayerMarket.sol\":3293:3318  netFTK * pool.totalShares */\n      tag_158\n      swap2\n      swap1\n      tag_145\n      jump\t// in\n    tag_158:\n        /* \"contracts/PlayerMarket.sol\":3292:3339  (netFTK * pool.totalShares) / pool.ftkLiquidity */\n      tag_159\n      swap2\n      swap1\n      tag_147\n      jump\t// in\n    tag_159:\n        /* \"contracts/PlayerMarket.sol\":3277:3339  sharesToMint = (netFTK * pool.totalShares) / pool.ftkLiquidity */\n      swap1\n      pop\n        /* \"contracts/PlayerMarket.sol\":3066:3350  if (pool.totalShares == 0) {... */\n    tag_157:\n        /* \"contracts/PlayerMarket.sol\":3384:3393  minShares */\n      dup5\n        /* \"contracts/PlayerMarket.sol\":3368:3380  sharesToMint */\n      dup2\n        /* \"contracts/PlayerMarket.sol\":3368:3393  sharesToMint >= minShares */\n      lt\n      iszero\n        /* \"contracts/PlayerMarket.sol\":3360:3415  require(sharesToMint >= minShares, \"Slippage exceeded\") */\n      tag_160\n      jumpi\n      mload(0x40)\n      0x08c379a000000000000000000000000000000000000000000000000000000000\n      dup2\n      mstore\n      0x04\n      add\n      tag_161\n      swap1\n      tag_162\n      jump\t// in\n    tag_161:\n      mload(0x40)\n      dup1\n      swap2\n      sub\n      swap1\n      revert\n    tag_160:\n        /* \"contracts/PlayerMarket.sol\":3469:3481  sharesToMint */\n      dup1\n        /* \"contracts/PlayerMarket.sol\":3449:3453  pool */\n      dup5\n        /* \"contracts/PlayerMarket.sol\":3449:3465  pool.totalShares */\n      0x00\n      add\n      0x00\n        /* \"contracts/PlayerMarket.sol\":3449:3481  pool.totalShares += sharesToMint */\n      dup3\n      dup3\n      sload\n      tag_163\n      swap2\n      swap1\n      tag_164\n      jump\t// in\n    tag_163:\n      swap3\n      pop\n      pop\n      dup2\n      swap1\n      sstore\n      pop\n        /* \"contracts/PlayerMarket.sol\":3512:3518  netFTK */\n      dup2\n        /* \"contracts/PlayerMarket.sol\":3491:3495  pool */\n      dup5\n        /* \"contracts/PlayerMarket.sol\":3491:3508  pool.ftkLiquidity */\n      0x01\n      add\n      0x00\n        /* \"contracts/PlayerMarket.sol\":3491:3518  pool.ftkLiquidity += netFTK */\n      dup3\n      dup3\n      sload\n      tag_165\n      swap2\n      swap1\n      tag_164\n      jump\t// in\n    tag_165:\n      swap3\n      pop\n      pop\n      dup2\n      swap1\n      sstore\n      pop\n        /* \"contracts/PlayerMarket.sol\":3596:3608  sharesToMint */\n      dup1\n        /* \"contracts/PlayerMarket.sol\":3560:3570  userShares */\n      0x05\n        /* \"contracts/PlayerMarket.sol\":3560:3580  userShares[playerId] */\n      0x00\n        /* \"contracts/PlayerMarket.sol\":3571:3579  playerId */\n      dup10\n        /* \"contracts/PlayerMarket.sol\":3560:3580  userShares[playerId] */\n      dup2\n      mstore\n      0x20\n      add\n      swap1\n      dup2\n      mstore\n      0x20\n      add\n      0x00\n      keccak256\n        /* \"contracts/PlayerMarket.sol\":3560:3592  userShares[playerId][msg.sender] */\n      0x00\n        /* \"contracts/PlayerMarket.sol\":3581:3591  msg.sender */\n      caller\n        /* \"contracts/PlayerMarket.sol\":3560:3592  userShares[playerId][msg.sender] */\n      0xffffffffffffffffffffffffffffffffffffffff\n      and\n      0xffffffffffffffffffffffffffffffffffffffff\n      and\n      dup2\n      mstore\n      0x20\n      add\n      swap1\n      dup2\n      mstore\n      0x20\n      add\n      0x00\n      keccak256\n      0x00\n        /* \"contracts/PlayerMarket.sol\":3560:3608  userShares[playerId][msg.sender] += sharesToMint */\n      dup3\n      dup3\n      sload\n      tag_166\n      swap2\n      swap1\n      tag_164\n      jump\t// in\n    tag_166:\n      swap3\n      pop\n      pop\n      dup2\n      swap1\n      sstore\n      pop\n        /* \"contracts/PlayerMarket.sol\":3647:3657  msg.sender */\n      caller\n        /* \"contracts/PlayerMarket.sol\":3624:3688  BoughtShares(playerId, msg.sender, ftkAmount, sharesToMint, fee) */\n      0xffffffffffffffffffffffffffffffffffffffff\n      and\n      0xe64e13a60f1ed7c5d8e721fe57012e0227812f9fc5b0538a9aa611ea8507c655\n        /* \"contracts/PlayerMarket.sol\":3637:3645  playerId */\n      dup9\n        /* \"contracts/PlayerMarket.sol\":3659:3668  ftkAmount */\n      dup9\n        /* \"contracts/PlayerMarket.sol\":3670:3682  sharesToMint */\n      dup5\n        /* \"contracts/PlayerMarket.sol\":3684:3687  fee */\n      dup8\n        /* \"contracts/PlayerMarket.sol\":3624:3688  BoughtShares(playerId, msg.sender, ftkAmount, sharesToMint, fee) */\n      mload(0x40)\n      tag_167\n      swap5\n      swap4\n      swap3\n      swap2\n      swap1\n      tag_168\n      jump\t// in\n    tag_167:\n      mload(0x40)\n      dup1\n      swap2\n      sub\n      swap1\n      log2\n        /* \"contracts/PlayerMarket.sol\":2475:3695  {... */\n      pop\n      pop\n      pop\n      pop\n        /* \"@openzeppelin/contracts/utils/ReentrancyGuard.sol\":2542:2562  _nonReentrantAfter() */\n      tag_169\n        /* \"@openzeppelin/contracts/utils/ReentrancyGuard.sol\":2542:2560  _nonReentrantAfter */\n      tag_170\n        /* \"@openzeppelin/contracts/utils/ReentrancyGuard.sol\":2542:2562  _nonReentrantAfter() */\n      jump\t// in\n    tag_169:\n        /* \"contracts/PlayerMarket.sol\":2378:3695  function buyShares(uint256 playerId, uint256 ftkAmount, uint256 minShares) external nonReentrant {... */\n      pop\n      pop\n      pop\n      jump\t// out\n        /* \"contracts/PlayerMarket.sol\":575:609  IFantasyToken public immutable ftk */\n    tag_58:\n      immutable(\"0x7e732ae4670e5050f1d0176dd0b2f251709b9783b190355dd5c4b4d37f4fe131\")\n      dup2\n      jump\t// out\n        /* \"contracts/PlayerMarket.sol\":4615:4750  function userBalance(uint256 playerId, address user) external view returns (uint256) {... */\n    tag_64:\n        /* \"contracts/PlayerMarket.sol\":4691:4698  uint256 */\n      0x00\n        /* \"contracts/PlayerMarket.sol\":4717:4727  userShares */\n      0x05\n        /* \"contracts/PlayerMarket.sol\":4717:4737  userShares[playerId] */\n      0x00\n        /* \"contracts/PlayerMarket.sol\":4728:4736  playerId */\n      dup5\n        /* \"contracts/PlayerMarket.sol\":4717:4737  userShares[playerId] */\n      dup2\n      mstore\n      0x20\n      add\n      swap1\n      dup2\n      mstore\n      0x20\n      add\n      0x00\n      keccak256\n        /* \"contracts/PlayerMarket.sol\":4717:4743  userShares[playerId][user] */\n      0x00\n        /* \"contracts/PlayerMarket.sol\":4738:4742  user */\n      dup4\n        /* \"contracts/PlayerMarket.sol\":4717:4743  userShares[playerId][user] */\n      0xffffffffffffffffffffffffffffffffffffffff\n      and\n      0xffffffffffffffffffffffffffffffffffffffff\n      and\n      dup2\n      mstore\n      0x20\n      add\n      swap1\n      dup2\n      mstore\n      0x20\n      add\n      0x00\n      keccak256\n      sload\n        /* \"contracts/PlayerMarket.sol\":4710:4743  return userShares[playerId][user] */\n      swap1\n      pop\n        /* \"contracts/PlayerMarket.sol\":4615:4750  function userBalance(uint256 playerId, address user) external view returns (uint256) {... */\n      swap3\n      swap2\n      pop\n      pop\n      jump\t// out\n        /* \"@openzeppelin/contracts/access/AccessControl.sol\":2830:2966  function hasRole(bytes32 role, address account) public view virtual returns (bool) {... */\n    tag_69:\n        /* \"@openzeppelin/contracts/access/AccessControl.sol\":2907:2911  bool */\n      0x00\n        /* \"@openzeppelin/contracts/access/AccessControl.sol\":2930:2936  _roles */\n      0x01\n        /* \"@openzeppelin/contracts/access/AccessControl.sol\":2930:2942  _roles[role] */\n      0x00\n        /* \"@openzeppelin/contracts/access/AccessControl.sol\":2937:2941  role */\n      dup5\n        /* \"@openzeppelin/contracts/access/AccessControl.sol\":2930:2942  _roles[role] */\n      dup2\n      mstore\n      0x20\n      add\n      swap1\n      dup2\n      mstore\n      0x20\n      add\n      0x00\n      keccak256\n        /* \"@openzeppelin/contracts/access/AccessControl.sol\":2930:2950  _roles[role].hasRole */\n      0x00\n      add\n        /* \"@openzeppelin/contracts/access/AccessControl.sol\":2930:2959  _roles[role].hasRole[account] */\n      0x00\n        /* \"@openzeppelin/contracts/access/AccessControl.sol\":2951:2958  account */\n      dup4\n        /* \"@openzeppelin/contracts/access/AccessControl.sol\":2930:2959  _roles[role].hasRole[account] */\n      0xffffffffffffffffffffffffffffffffffffffff\n      and\n      0xffffffffffffffffffffffffffffffffffffffff\n      and\n      dup2\n      mstore\n      0x20\n      add\n      swap1\n      dup2\n      mstore\n      0x20\n      add\n      0x00\n      keccak256\n      0x00\n      swap1\n      sload\n      swap1\n      0x0100\n      exp\n      swap1\n      div\n      0xff\n      and\n        /* \"@openzeppelin/contracts/access/AccessControl.sol\":2923:2959  return _roles[role].hasRole[account] */\n      swap1\n      pop\n        /* \"@openzeppelin/contracts/access/AccessControl.sol\":2830:2966  function hasRole(bytes32 role, address account) public view virtual returns (bool) {... */\n      swap3\n      swap2\n      pop\n      pop\n      jump\t// out\n        /* \"contracts/PlayerMarket.sol\":645:679  uint256 public tradingFeeBps = 200 */\n    tag_72:\n      sload(0x03)\n      dup2\n      jump\t// out\n        /* \"@openzeppelin/contracts/access/AccessControl.sol\":2196:2245  bytes32 public constant DEFAULT_ADMIN_ROLE = 0x00 */\n    tag_75:\n        /* \"@openzeppelin/contracts/access/AccessControl.sol\":2241:2245  0x00 */\n      0x00\n        /* \"@openzeppelin/contracts/access/AccessControl.sol\":2196:2245  bytes32 public constant DEFAULT_ADMIN_ROLE = 0x00 */\n      0x00\n      shl\n      dup2\n      jump\t// out\n        /* \"contracts/PlayerMarket.sol\":927:992  mapping(uint256 => mapping(address => uint256)) public userShares */\n    tag_79:\n      mstore(0x20, 0x05)\n      dup2\n      0x00\n      mstore\n      mstore(0x20, keccak256(0x00, 0x40))\n      dup1\n      0x00\n      mstore\n      keccak256(0x00, 0x40)\n      0x00\n      swap2\n      pop\n      swap2\n      pop\n      pop\n      sload\n      dup2\n      jump\t// out\n        /* \"contracts/PlayerMarket.sol\":2175:2372  function setTradingFee(uint256 feeBps) external onlyRole(ADMIN_ROLE) {... */\n    tag_84:\n        /* \"contracts/PlayerMarket.sol\":545:568  keccak256(\"ADMIN_ROLE\") */\n      0xa49807205ce4d355092ef5a8a18f56e8913cf4a201fbe287825b095693c21775\n        /* \"@openzeppelin/contracts/access/AccessControl.sol\":2473:2489  _checkRole(role) */\n      tag_174\n        /* \"@openzeppelin/contracts/access/AccessControl.sol\":2484:2488  role */\n      dup2\n        /* \"@openzeppelin/contracts/access/AccessControl.sol\":2473:2483  _checkRole */\n      tag_118\n        /* \"@openzeppelin/contracts/access/AccessControl.sol\":2473:2489  _checkRole(role) */\n      jump\t// in\n    tag_174:\n        /* \"contracts/PlayerMarket.sol\":2272:2276  1000 */\n      0x03e8\n        /* \"contracts/PlayerMarket.sol\":2262:2268  feeBps */\n      dup3\n        /* \"contracts/PlayerMarket.sol\":2262:2276  feeBps <= 1000 */\n      gt\n      iszero\n        /* \"contracts/PlayerMarket.sol\":2254:2293  require(feeBps <= 1000, \"Fee too high\") */\n      tag_176\n      jumpi\n      mload(0x40)\n      0x08c379a000000000000000000000000000000000000000000000000000000000\n      dup2\n      mstore\n      0x04\n      add\n      tag_177\n      swap1\n      tag_178\n      jump\t// in\n    tag_177:\n      mload(0x40)\n      dup1\n      swap2\n      sub\n      swap1\n      revert\n    tag_176:\n        /* \"contracts/PlayerMarket.sol\":2319:2325  feeBps */\n      dup2\n        /* \"contracts/PlayerMarket.sol\":2303:2316  tradingFeeBps */\n      0x03\n        /* \"contracts/PlayerMarket.sol\":2303:2325  tradingFeeBps = feeBps */\n      dup2\n      swap1\n      sstore\n      pop\n        /* \"contracts/PlayerMarket.sol\":2340:2365  TradingFeeUpdated(feeBps) */\n      0xa3dfe13986da4bcfdc32f544ebe130cb8ec20a2afc45e7c3994975076a08e578\n        /* \"contracts/PlayerMarket.sol\":2358:2364  feeBps */\n      dup3\n        /* \"contracts/PlayerMarket.sol\":2340:2365  TradingFeeUpdated(feeBps) */\n      mload(0x40)\n      tag_179\n      swap2\n      swap1\n      tag_66\n      jump\t// in\n    tag_179:\n      mload(0x40)\n      dup1\n      swap2\n      sub\n      swap1\n      log1\n        /* \"contracts/PlayerMarket.sol\":2175:2372  function setTradingFee(uint256 feeBps) external onlyRole(ADMIN_ROLE) {... */\n      pop\n      pop\n      jump\t// out\n        /* \"contracts/PlayerMarket.sol\":4756:5026  function getSharePrice(uint256 playerId) external view returns (uint256) {... */\n    tag_87:\n        /* \"contracts/PlayerMarket.sol\":4820:4827  uint256 */\n      0x00\n        /* \"contracts/PlayerMarket.sol\":4839:4862  PlayerPool storage pool */\n      0x00\n        /* \"contracts/PlayerMarket.sol\":4865:4872  players */\n      0x04\n        /* \"contracts/PlayerMarket.sol\":4865:4882  players[playerId] */\n      0x00\n        /* \"contracts/PlayerMarket.sol\":4873:4881  playerId */\n      dup5\n        /* \"contracts/PlayerMarket.sol\":4865:4882  players[playerId] */\n      dup2\n      mstore\n      0x20\n      add\n      swap1\n      dup2\n      mstore\n      0x20\n      add\n      0x00\n      keccak256\n        /* \"contracts/PlayerMarket.sol\":4839:4882  PlayerPool storage pool = players[playerId] */\n      swap1\n      pop\n        /* \"contracts/PlayerMarket.sol\":4916:4917  0 */\n      0x00\n        /* \"contracts/PlayerMarket.sol\":4896:4900  pool */\n      dup2\n        /* \"contracts/PlayerMarket.sol\":4896:4912  pool.totalShares */\n      0x00\n      add\n      sload\n        /* \"contracts/PlayerMarket.sol\":4896:4917  pool.totalShares == 0 */\n      sub\n        /* \"contracts/PlayerMarket.sol\":4892:4930  if (pool.totalShares == 0) return 1e18 */\n      tag_181\n      jumpi\n        /* \"contracts/PlayerMarket.sol\":4926:4930  1e18 */\n      0x0de0b6b3a7640000\n        /* \"contracts/PlayerMarket.sol\":4919:4930  return 1e18 */\n      swap2\n      pop\n      pop\n      jump(tag_180)\n        /* \"contracts/PlayerMarket.sol\":4892:4930  if (pool.totalShares == 0) return 1e18 */\n    tag_181:\n        /* \"contracts/PlayerMarket.sol\":5003:5007  pool */\n      dup1\n        /* \"contracts/PlayerMarket.sol\":5003:5019  pool.totalShares */\n      0x00\n      add\n      sload\n        /* \"contracts/PlayerMarket.sol\":4995:4999  1e18 */\n      0x0de0b6b3a7640000\n        /* \"contracts/PlayerMarket.sol\":4975:4979  pool */\n      dup3\n        /* \"contracts/PlayerMarket.sol\":4975:4992  pool.ftkLiquidity */\n      0x01\n      add\n      sload\n        /* \"contracts/PlayerMarket.sol\":4975:4999  pool.ftkLiquidity * 1e18 */\n      tag_182\n      swap2\n      swap1\n      tag_145\n      jump\t// in\n    tag_182:\n        /* \"contracts/PlayerMarket.sol\":4974:5019  (pool.ftkLiquidity * 1e18) / pool.totalShares */\n      tag_183\n      swap2\n      swap1\n      tag_147\n      jump\t// in\n    tag_183:\n        /* \"contracts/PlayerMarket.sol\":4967:5019  return (pool.ftkLiquidity * 1e18) / pool.totalShares */\n      swap2\n      pop\n      pop\n        /* \"contracts/PlayerMarket.sol\":4756:5026  function getSharePrice(uint256 playerId) external view returns (uint256) {... */\n    tag_180:\n      swap2\n      swap1\n      pop\n      jump\t// out\n        /* \"@openzeppelin/contracts/access/AccessControl.sol\":4618:4756  function revokeRole(bytes32 role, address account) public virtual onlyRole(getRoleAdmin(role)) {... */\n    tag_91:\n        /* \"@openzeppelin/contracts/access/AccessControl.sol\":4693:4711  getRoleAdmin(role) */\n      tag_184\n        /* \"@openzeppelin/contracts/access/AccessControl.sol\":4706:4710  role */\n      dup3\n        /* \"@openzeppelin/contracts/access/AccessControl.sol\":4693:4705  getRoleAdmin */\n      tag_36\n        /* \"@openzeppelin/contracts/access/AccessControl.sol\":4693:4711  getRoleAdmin(role) */\n      jump\t// in\n    tag_184:\n        /* \"@openzeppelin/contracts/access/AccessControl.sol\":2473:2489  _checkRole(role) */\n      tag_186\n        /* \"@openzeppelin/contracts/access/AccessControl.sol\":2484:2488  role */\n      dup2\n        /* \"@openzeppelin/contracts/access/AccessControl.sol\":2473:2483  _checkRole */\n      tag_118\n        /* \"@openzeppelin/contracts/access/AccessControl.sol\":2473:2489  _checkRole(role) */\n      jump\t// in\n    tag_186:\n        /* \"@openzeppelin/contracts/access/AccessControl.sol\":4723:4749  _revokeRole(role, account) */\n      tag_188\n        /* \"@openzeppelin/contracts/access/AccessControl.sol\":4735:4739  role */\n      dup4\n        /* \"@openzeppelin/contracts/access/AccessControl.sol\":4741:4748  account */\n      dup4\n        /* \"@openzeppelin/contracts/access/AccessControl.sol\":4723:4734  _revokeRole */\n      tag_127\n        /* \"@openzeppelin/contracts/access/AccessControl.sol\":4723:4749  _revokeRole(role, account) */\n      jump\t// in\n    tag_188:\n      pop\n        /* \"@openzeppelin/contracts/access/AccessControl.sol\":4618:4756  function revokeRole(bytes32 role, address account) public virtual onlyRole(getRoleAdmin(role)) {... */\n      pop\n      pop\n      pop\n      jump\t// out\n        /* \"contracts/PlayerMarket.sol\":3701:4609  function sellShares(uint256 playerId, uint256 shares, uint256 minFTK) external nonReentrant {... */\n    tag_94:\n        /* \"@openzeppelin/contracts/utils/ReentrancyGuard.sol\":2500:2521  _nonReentrantBefore() */\n      tag_190\n        /* \"@openzeppelin/contracts/utils/ReentrancyGuard.sol\":2500:2519  _nonReentrantBefore */\n      tag_130\n        /* \"@openzeppelin/contracts/utils/ReentrancyGuard.sol\":2500:2521  _nonReentrantBefore() */\n      jump\t// in\n    tag_190:\n        /* \"contracts/PlayerMarket.sol\":3803:3826  PlayerPool storage pool */\n      0x00\n        /* \"contracts/PlayerMarket.sol\":3829:3836  players */\n      0x04\n        /* \"contracts/PlayerMarket.sol\":3829:3846  players[playerId] */\n      0x00\n        /* \"contracts/PlayerMarket.sol\":3837:3845  playerId */\n      dup6\n        /* \"contracts/PlayerMarket.sol\":3829:3846  players[playerId] */\n      dup2\n      mstore\n      0x20\n      add\n      swap1\n      dup2\n      mstore\n      0x20\n      add\n      0x00\n      keccak256\n        /* \"contracts/PlayerMarket.sol\":3803:3846  PlayerPool storage pool = players[playerId] */\n      swap1\n      pop\n        /* \"contracts/PlayerMarket.sol\":3864:3868  pool */\n      dup1\n        /* \"contracts/PlayerMarket.sol\":3864:3875  pool.exists */\n      0x02\n      add\n      0x00\n      swap1\n      sload\n      swap1\n      0x0100\n      exp\n      swap1\n      div\n      0xff\n      and\n        /* \"contracts/PlayerMarket.sol\":3856:3896  require(pool.exists, \"Player not found\") */\n      tag_192\n      jumpi\n      mload(0x40)\n      0x08c379a000000000000000000000000000000000000000000000000000000000\n      dup2\n      mstore\n      0x04\n      add\n      tag_193\n      swap1\n      tag_134\n      jump\t// in\n    tag_193:\n      mload(0x40)\n      dup1\n      swap2\n      sub\n      swap1\n      revert\n    tag_192:\n        /* \"contracts/PlayerMarket.sol\":3950:3956  shares */\n      dup3\n        /* \"contracts/PlayerMarket.sol\":3914:3924  userShares */\n      0x05\n        /* \"contracts/PlayerMarket.sol\":3914:3934  userShares[playerId] */\n      0x00\n        /* \"contracts/PlayerMarket.sol\":3925:3933  playerId */\n      dup7\n        /* \"contracts/PlayerMarket.sol\":3914:3934  userShares[playerId] */\n      dup2\n      mstore\n      0x20\n      add\n      swap1\n      dup2\n      mstore\n      0x20\n      add\n      0x00\n      keccak256\n        /* \"contracts/PlayerMarket.sol\":3914:3946  userShares[playerId][msg.sender] */\n      0x00\n        /* \"contracts/PlayerMarket.sol\":3935:3945  msg.sender */\n      caller\n        /* \"contracts/PlayerMarket.sol\":3914:3946  userShares[playerId][msg.sender] */\n      0xffffffffffffffffffffffffffffffffffffffff\n      and\n      0xffffffffffffffffffffffffffffffffffffffff\n      and\n      dup2\n      mstore\n      0x20\n      add\n      swap1\n      dup2\n      mstore\n      0x20\n      add\n      0x00\n      keccak256\n      sload\n        /* \"contracts/PlayerMarket.sol\":3914:3956  userShares[playerId][msg.sender] >= shares */\n      lt\n      iszero\n        /* \"contracts/PlayerMarket.sol\":3906:3980  require(userShares[playerId][msg.sender] >= shares, \"Insufficient shares\") */\n      tag_194\n      jumpi\n      mload(0x40)\n      0x08c379a000000000000000000000000000000000000000000000000000000000\n      dup2\n      mstore\n      0x04\n      add\n      tag_195\n      swap1\n      tag_196\n      jump\t// in\n    tag_195:\n      mload(0x40)\n      dup1\n      swap2\n      sub\n      swap1\n      revert\n    tag_194:\n        /* \"contracts/PlayerMarket.sol\":4050:4067  uint256 ftkReturn */\n      0x00\n        /* \"contracts/PlayerMarket.sol\":4101:4105  pool */\n      dup2\n        /* \"contracts/PlayerMarket.sol\":4101:4117  pool.totalShares */\n      0x00\n      add\n      sload\n        /* \"contracts/PlayerMarket.sol\":4080:4084  pool */\n      dup3\n        /* \"contracts/PlayerMarket.sol\":4080:4097  pool.ftkLiquidity */\n      0x01\n      add\n      sload\n        /* \"contracts/PlayerMarket.sol\":4071:4077  shares */\n      dup6\n        /* \"contracts/PlayerMarket.sol\":4071:4097  shares * pool.ftkLiquidity */\n      tag_197\n      swap2\n      swap1\n      tag_145\n      jump\t// in\n    tag_197:\n        /* \"contracts/PlayerMarket.sol\":4070:4117  (shares * pool.ftkLiquidity) / pool.totalShares */\n      tag_198\n      swap2\n      swap1\n      tag_147\n      jump\t// in\n    tag_198:\n        /* \"contracts/PlayerMarket.sol\":4050:4117  uint256 ftkReturn = (shares * pool.ftkLiquidity) / pool.totalShares */\n      swap1\n      pop\n        /* \"contracts/PlayerMarket.sol\":4128:4139  uint256 fee */\n      0x00\n        /* \"contracts/PlayerMarket.sol\":727:732  10000 */\n      0x2710\n        /* \"contracts/PlayerMarket.sol\":4155:4168  tradingFeeBps */\n      sload(0x03)\n        /* \"contracts/PlayerMarket.sol\":4143:4152  ftkReturn */\n      dup4\n        /* \"contracts/PlayerMarket.sol\":4143:4168  ftkReturn * tradingFeeBps */\n      tag_199\n      swap2\n      swap1\n      tag_145\n      jump\t// in\n    tag_199:\n        /* \"contracts/PlayerMarket.sol\":4142:4187  (ftkReturn * tradingFeeBps) / BPS_DENOMINATOR */\n      tag_200\n      swap2\n      swap1\n      tag_147\n      jump\t// in\n    tag_200:\n        /* \"contracts/PlayerMarket.sol\":4128:4187  uint256 fee = (ftkReturn * tradingFeeBps) / BPS_DENOMINATOR */\n      swap1\n      pop\n        /* \"contracts/PlayerMarket.sol\":4197:4211  uint256 netFTK */\n      0x00\n        /* \"contracts/PlayerMarket.sol\":4226:4229  fee */\n      dup2\n        /* \"contracts/PlayerMarket.sol\":4214:4223  ftkReturn */\n      dup4\n        /* \"contracts/PlayerMarket.sol\":4214:4229  ftkReturn - fee */\n      tag_201\n      swap2\n      swap1\n      tag_149\n      jump\t// in\n    tag_201:\n        /* \"contracts/PlayerMarket.sol\":4197:4229  uint256 netFTK = ftkReturn - fee */\n      swap1\n      pop\n        /* \"contracts/PlayerMarket.sol\":4258:4264  minFTK */\n      dup5\n        /* \"contracts/PlayerMarket.sol\":4248:4254  netFTK */\n      dup2\n        /* \"contracts/PlayerMarket.sol\":4248:4264  netFTK >= minFTK */\n      lt\n      iszero\n        /* \"contracts/PlayerMarket.sol\":4240:4286  require(netFTK >= minFTK, \"Slippage exceeded\") */\n      tag_202\n      jumpi\n      mload(0x40)\n      0x08c379a000000000000000000000000000000000000000000000000000000000\n      dup2\n      mstore\n      0x04\n      add\n      tag_203\n      swap1\n      tag_162\n      jump\t// in\n    tag_203:\n      mload(0x40)\n      dup1\n      swap2\n      sub\n      swap1\n      revert\n    tag_202:\n        /* \"contracts/PlayerMarket.sol\":4317:4323  shares */\n      dup6\n        /* \"contracts/PlayerMarket.sol\":4297:4301  pool */\n      dup5\n        /* \"contracts/PlayerMarket.sol\":4297:4313  pool.totalShares */\n      0x00\n      add\n      0x00\n        /* \"contracts/PlayerMarket.sol\":4297:4323  pool.totalShares -= shares */\n      dup3\n      dup3\n      sload\n      tag_204\n      swap2\n      swap1\n      tag_149\n      jump\t// in\n    tag_204:\n      swap3\n      pop\n      pop\n      dup2\n      swap1\n      sstore\n      pop\n        /* \"contracts/PlayerMarket.sol\":4354:4363  ftkReturn */\n      dup3\n        /* \"contracts/PlayerMarket.sol\":4333:4337  pool */\n      dup5\n        /* \"contracts/PlayerMarket.sol\":4333:4350  pool.ftkLiquidity */\n      0x01\n      add\n      0x00\n        /* \"contracts/PlayerMarket.sol\":4333:4363  pool.ftkLiquidity -= ftkReturn */\n      dup3\n      dup3\n      sload\n      tag_205\n      swap2\n      swap1\n      tag_149\n      jump\t// in\n    tag_205:\n      swap3\n      pop\n      pop\n      dup2\n      swap1\n      sstore\n      pop\n        /* \"contracts/PlayerMarket.sol\":4410:4416  shares */\n      dup6\n        /* \"contracts/PlayerMarket.sol\":4374:4384  userShares */\n      0x05\n        /* \"contracts/PlayerMarket.sol\":4374:4394  userShares[playerId] */\n      0x00\n        /* \"contracts/PlayerMarket.sol\":4385:4393  playerId */\n      dup10\n        /* \"contracts/PlayerMarket.sol\":4374:4394  userShares[playerId] */\n      dup2\n      mstore\n      0x20\n      add\n      swap1\n      dup2\n      mstore\n      0x20\n      add\n      0x00\n      keccak256\n        /* \"contracts/PlayerMarket.sol\":4374:4406  userShares[playerId][msg.sender] */\n      0x00\n        /* \"contracts/PlayerMarket.sol\":4395:4405  msg.sender */\n      caller\n        /* \"contracts/PlayerMarket.sol\":4374:4406  userShares[playerId][msg.sender] */\n      0xffffffffffffffffffffffffffffffffffffffff\n      and\n      0xffffffffffffffffffffffffffffffffffffffff\n      and\n      dup2\n      mstore\n      0x20\n      add\n      swap1\n      dup2\n      mstore\n      0x20\n      add\n      0x00\n      keccak256\n      0x00\n        /* \"contracts/PlayerMarket.sol\":4374:4416  userShares[playerId][msg.sender] -= shares */\n      dup3\n      dup3\n      sload\n      tag_206\n      swap2\n      swap1\n      tag_149\n      jump\t// in\n    tag_206:\n      swap3\n      pop\n      pop\n      dup2\n      swap1\n      sstore\n      pop\n        /* \"contracts/PlayerMarket.sol\":4426:4429  ftk */\n      immutable(\"0x7e732ae4670e5050f1d0176dd0b2f251709b9783b190355dd5c4b4d37f4fe131\")\n        /* \"contracts/PlayerMarket.sol\":4426:4438  ftk.transfer */\n      0xffffffffffffffffffffffffffffffffffffffff\n      and\n      0xa9059cbb\n        /* \"contracts/PlayerMarket.sol\":4439:4449  msg.sender */\n      caller\n        /* \"contracts/PlayerMarket.sol\":4451:4457  netFTK */\n      dup4\n        /* \"contracts/PlayerMarket.sol\":4426:4458  ftk.transfer(msg.sender, netFTK) */\n      mload(0x40)\n      dup4\n      0xffffffff\n      and\n      0xe0\n      shl\n      dup2\n      mstore\n      0x04\n      add\n      tag_207\n      swap3\n      swap2\n      swap1\n      tag_152\n      jump\t// in\n    tag_207:\n      0x20\n      mload(0x40)\n      dup1\n      dup4\n      sub\n      dup2\n      0x00\n      dup8\n      gas\n      call\n      iszero\n      dup1\n      iszero\n      tag_209\n      jumpi\n      returndatacopy(0x00, 0x00, returndatasize)\n      revert(0x00, returndatasize)\n    tag_209:\n      pop\n      pop\n      pop\n      pop\n      mload(0x40)\n      returndatasize\n      not(0x1f)\n      0x1f\n      dup3\n      add\n      and\n      dup3\n      add\n      dup1\n      0x40\n      mstore\n      pop\n      dup2\n      add\n      swap1\n      tag_210\n      swap2\n      swap1\n      tag_143\n      jump\t// in\n    tag_210:\n      pop\n        /* \"contracts/PlayerMarket.sol\":4479:4480  0 */\n      0x00\n        /* \"contracts/PlayerMarket.sol\":4473:4476  fee */\n      dup3\n        /* \"contracts/PlayerMarket.sol\":4473:4480  fee > 0 */\n      gt\n        /* \"contracts/PlayerMarket.sol\":4469:4534  if (fee > 0) {... */\n      iszero\n      tag_211\n      jumpi\n        /* \"contracts/PlayerMarket.sol\":4496:4499  ftk */\n      immutable(\"0x7e732ae4670e5050f1d0176dd0b2f251709b9783b190355dd5c4b4d37f4fe131\")\n        /* \"contracts/PlayerMarket.sol\":4496:4508  ftk.transfer */\n      0xffffffffffffffffffffffffffffffffffffffff\n      and\n      0xa9059cbb\n        /* \"contracts/PlayerMarket.sol\":4509:4517  treasury */\n      0x02\n      0x00\n      swap1\n      sload\n      swap1\n      0x0100\n      exp\n      swap1\n      div\n      0xffffffffffffffffffffffffffffffffffffffff\n      and\n        /* \"contracts/PlayerMarket.sol\":4519:4522  fee */\n      dup5\n        /* \"contracts/PlayerMarket.sol\":4496:4523  ftk.transfer(treasury, fee) */\n      mload(0x40)\n      dup4\n      0xffffffff\n      and\n      0xe0\n      shl\n      dup2\n      mstore\n      0x04\n      add\n      tag_212\n      swap3\n      swap2\n      swap1\n      tag_152\n      jump\t// in\n    tag_212:\n      0x20\n      mload(0x40)\n      dup1\n      dup4\n      sub\n      dup2\n      0x00\n      dup8\n      gas\n      call\n      iszero\n      dup1\n      iszero\n      tag_214\n      jumpi\n      returndatacopy(0x00, 0x00, returndatasize)\n      revert(0x00, returndatasize)\n    tag_214:\n      pop\n      pop\n      pop\n      pop\n      mload(0x40)\n      returndatasize\n      not(0x1f)\n      0x1f\n      dup3\n      add\n      and\n      dup3\n      add\n      dup1\n      0x40\n      mstore\n      pop\n      dup2\n      add\n      swap1\n      tag_215\n      swap2\n      swap1\n      tag_143\n      jump\t// in\n    tag_215:\n      pop\n        /* \"contracts/PlayerMarket.sol\":4469:4534  if (fee > 0) {... */\n    tag_211:\n        /* \"contracts/PlayerMarket.sol\":4570:4580  msg.sender */\n      caller\n        /* \"contracts/PlayerMarket.sol\":4549:4602  SoldShares(playerId, msg.sender, shares, netFTK, fee) */\n      0xffffffffffffffffffffffffffffffffffffffff\n      and\n      0x2c68d33e5c92efc182eec06ac794258dfedcc114aac3b5fa9bdc19a4b7871f1a\n        /* \"contracts/PlayerMarket.sol\":4560:4568  playerId */\n      dup9\n        /* \"contracts/PlayerMarket.sol\":4582:4588  shares */\n      dup9\n        /* \"contracts/PlayerMarket.sol\":4590:4596  netFTK */\n      dup5\n        /* \"contracts/PlayerMarket.sol\":4598:4601  fee */\n      dup7\n        /* \"contracts/PlayerMarket.sol\":4549:4602  SoldShares(playerId, msg.sender, shares, netFTK, fee) */\n      mload(0x40)\n      tag_216\n      swap5\n      swap4\n      swap3\n      swap2\n      swap1\n      tag_168\n      jump\t// in\n    tag_216:\n      mload(0x40)\n      dup1\n      swap2\n      sub\n      swap1\n      log2\n        /* \"contracts/PlayerMarket.sol\":3793:4609  {... */\n      pop\n      pop\n      pop\n      pop\n        /* \"@openzeppelin/contracts/utils/ReentrancyGuard.sol\":2542:2562  _nonReentrantAfter() */\n      tag_217\n        /* \"@openzeppelin/contracts/utils/ReentrancyGuard.sol\":2542:2560  _nonReentrantAfter */\n      tag_170\n        /* \"@openzeppelin/contracts/utils/ReentrancyGuard.sol\":2542:2562  _nonReentrantAfter() */\n      jump\t// in\n    tag_217:\n        /* \"contracts/PlayerMarket.sol\":3701:4609  function sellShares(uint256 playerId, uint256 shares, uint256 minFTK) external nonReentrant {... */\n      pop\n      pop\n      pop\n      jump\t// out\n        /* \"contracts/PlayerMarket.sol\":685:732  uint256 public constant BPS_DENOMINATOR = 10000 */\n    tag_96:\n        /* \"contracts/PlayerMarket.sol\":727:732  10000 */\n      0x2710\n        /* \"contracts/PlayerMarket.sol\":685:732  uint256 public constant BPS_DENOMINATOR = 10000 */\n      dup2\n      jump\t// out\n        /* \"contracts/PlayerMarket.sol\":1693:1953  function addPlayer(uint256 playerId) external onlyRole(ADMIN_ROLE) {... */\n    tag_100:\n        /* \"contracts/PlayerMarket.sol\":545:568  keccak256(\"ADMIN_ROLE\") */\n      0xa49807205ce4d355092ef5a8a18f56e8913cf4a201fbe287825b095693c21775\n        /* \"@openzeppelin/contracts/access/AccessControl.sol\":2473:2489  _checkRole(role) */\n      tag_219\n        /* \"@openzeppelin/contracts/access/AccessControl.sol\":2484:2488  role */\n      dup2\n        /* \"@openzeppelin/contracts/access/AccessControl.sol\":2473:2483  _checkRole */\n      tag_118\n        /* \"@openzeppelin/contracts/access/AccessControl.sol\":2473:2489  _checkRole(role) */\n      jump\t// in\n    tag_219:\n        /* \"contracts/PlayerMarket.sol\":1779:1786  players */\n      0x04\n        /* \"contracts/PlayerMarket.sol\":1779:1796  players[playerId] */\n      0x00\n        /* \"contracts/PlayerMarket.sol\":1787:1795  playerId */\n      dup4\n        /* \"contracts/PlayerMarket.sol\":1779:1796  players[playerId] */\n      dup2\n      mstore\n      0x20\n      add\n      swap1\n      dup2\n      mstore\n      0x20\n      add\n      0x00\n      keccak256\n        /* \"contracts/PlayerMarket.sol\":1779:1803  players[playerId].exists */\n      0x02\n      add\n      0x00\n      swap1\n      sload\n      swap1\n      0x0100\n      exp\n      swap1\n      div\n      0xff\n      and\n        /* \"contracts/PlayerMarket.sol\":1778:1803  !players[playerId].exists */\n      iszero\n        /* \"contracts/PlayerMarket.sol\":1770:1821  require(!players[playerId].exists, \"Player exists\") */\n      tag_221\n      jumpi\n      mload(0x40)\n      0x08c379a000000000000000000000000000000000000000000000000000000000\n      dup2\n      mstore\n      0x04\n      add\n      tag_222\n      swap1\n      tag_223\n      jump\t// in\n    tag_222:\n      mload(0x40)\n      dup1\n      swap2\n      sub\n      swap1\n      revert\n    tag_221:\n        /* \"contracts/PlayerMarket.sol\":1851:1910  PlayerPool({totalShares: 0, ftkLiquidity: 0, exists: true}) */\n      mload(0x40)\n      dup1\n      0x60\n      add\n      0x40\n      mstore\n      dup1\n        /* \"contracts/PlayerMarket.sol\":1876:1877  0 */\n      0x00\n        /* \"contracts/PlayerMarket.sol\":1851:1910  PlayerPool({totalShares: 0, ftkLiquidity: 0, exists: true}) */\n      dup2\n      mstore\n      0x20\n      add\n        /* \"contracts/PlayerMarket.sol\":1893:1894  0 */\n      0x00\n        /* \"contracts/PlayerMarket.sol\":1851:1910  PlayerPool({totalShares: 0, ftkLiquidity: 0, exists: true}) */\n      dup2\n      mstore\n      0x20\n      add\n        /* \"contracts/PlayerMarket.sol\":1904:1908  true */\n      0x01\n        /* \"contracts/PlayerMarket.sol\":1851:1910  PlayerPool({totalShares: 0, ftkLiquidity: 0, exists: true}) */\n      iszero\n      iszero\n      dup2\n      mstore\n      pop\n        /* \"contracts/PlayerMarket.sol\":1831:1838  players */\n      0x04\n        /* \"contracts/PlayerMarket.sol\":1831:1848  players[playerId] */\n      0x00\n        /* \"contracts/PlayerMarket.sol\":1839:1847  playerId */\n      dup5\n        /* \"contracts/PlayerMarket.sol\":1831:1848  players[playerId] */\n      dup2\n      mstore\n      0x20\n      add\n      swap1\n      dup2\n      mstore\n      0x20\n      add\n      0x00\n      keccak256\n        /* \"contracts/PlayerMarket.sol\":1831:1910  players[playerId] = PlayerPool({totalShares: 0, ftkLiquidity: 0, exists: true}) */\n      0x00\n      dup3\n      add\n      mload\n      dup2\n      0x00\n      add\n      sstore\n      0x20\n      dup3\n      add\n      mload\n      dup2\n      0x01\n      add\n      sstore\n      0x40\n      dup3\n      add\n      mload\n      dup2\n      0x02\n      add\n      exp(0x0100, 0x00)\n      dup2\n      sload\n      dup2\n      0xff\n      mul\n      not\n      and\n      swap1\n      dup4\n      iszero\n      iszero\n      mul\n      or\n      swap1\n      sstore\n      pop\n      swap1\n      pop\n      pop\n        /* \"contracts/PlayerMarket.sol\":1925:1946  PlayerAdded(playerId) */\n      0x5af403e238a3f8f7d43c05ff2fac53c833e031e8fb8ec011b3c8e073d870ad7b\n        /* \"contracts/PlayerMarket.sol\":1937:1945  playerId */\n      dup3\n        /* \"contracts/PlayerMarket.sol\":1925:1946  PlayerAdded(playerId) */\n      mload(0x40)\n      tag_224\n      swap2\n      swap1\n      tag_66\n      jump\t// in\n    tag_224:\n      mload(0x40)\n      dup1\n      swap2\n      sub\n      swap1\n      log1\n        /* \"contracts/PlayerMarket.sol\":1693:1953  function addPlayer(uint256 playerId) external onlyRole(ADMIN_ROLE) {... */\n      pop\n      pop\n      jump\t// out\n        /* \"contracts/PlayerMarket.sol\":1959:2169  function setTreasury(address _treasury) external onlyRole(ADMIN_ROLE) {... */\n    tag_104:\n        /* \"contracts/PlayerMarket.sol\":545:568  keccak256(\"ADMIN_ROLE\") */\n      0xa49807205ce4d355092ef5a8a18f56e8913cf4a201fbe287825b095693c21775\n        /* \"@openzeppelin/contracts/access/AccessControl.sol\":2473:2489  _checkRole(role) */\n      tag_226\n        /* \"@openzeppelin/contracts/access/AccessControl.sol\":2484:2488  role */\n      dup2\n        /* \"@openzeppelin/contracts/access/AccessControl.sol\":2473:2483  _checkRole */\n      tag_118\n        /* \"@openzeppelin/contracts/access/AccessControl.sol\":2473:2489  _checkRole(role) */\n      jump\t// in\n    tag_226:\n        /* \"contracts/PlayerMarket.sol\":2068:2069  0 */\n      0x00\n        /* \"contracts/PlayerMarket.sol\":2047:2070  _treasury != address(0) */\n      0xffffffffffffffffffffffffffffffffffffffff\n      and\n        /* \"contracts/PlayerMarket.sol\":2047:2056  _treasury */\n      dup3\n        /* \"contracts/PlayerMarket.sol\":2047:2070  _treasury != address(0) */\n      0xffffffffffffffffffffffffffffffffffffffff\n      and\n      sub\n        /* \"contracts/PlayerMarket.sol\":2039:2091  require(_treasury != address(0), \"Invalid treasury\") */\n      tag_228\n      jumpi\n      mload(0x40)\n      0x08c379a000000000000000000000000000000000000000000000000000000000\n      dup2\n      mstore\n      0x04\n      add\n      tag_229\n      swap1\n      tag_230\n      jump\t// in\n    tag_229:\n      mload(0x40)\n      dup1\n      swap2\n      sub\n      swap1\n      revert\n    tag_228:\n        /* \"contracts/PlayerMarket.sol\":2112:2121  _treasury */\n      dup2\n        /* \"contracts/PlayerMarket.sol\":2101:2109  treasury */\n      0x02\n      0x00\n        /* \"contracts/PlayerMarket.sol\":2101:2121  treasury = _treasury */\n      0x0100\n      exp\n      dup2\n      sload\n      dup2\n      0xffffffffffffffffffffffffffffffffffffffff\n      mul\n      not\n      and\n      swap1\n      dup4\n      0xffffffffffffffffffffffffffffffffffffffff\n      and\n      mul\n      or\n      swap1\n      sstore\n      pop\n        /* \"contracts/PlayerMarket.sol\":2136:2162  TreasuryUpdated(_treasury) */\n      0x7dae230f18360d76a040c81f050aa14eb9d6dc7901b20fc5d855e2a20fe814d1\n        /* \"contracts/PlayerMarket.sol\":2152:2161  _treasury */\n      dup3\n        /* \"contracts/PlayerMarket.sol\":2136:2162  TreasuryUpdated(_treasury) */\n      mload(0x40)\n      tag_231\n      swap2\n      swap1\n      tag_49\n      jump\t// in\n    tag_231:\n      mload(0x40)\n      dup1\n      swap2\n      sub\n      swap1\n      log1\n        /* \"contracts/PlayerMarket.sol\":1959:2169  function setTreasury(address _treasury) external onlyRole(ADMIN_ROLE) {... */\n      pop\n      pop\n      jump\t// out\n        /* \"contracts/PlayerMarket.sol\":850:895  mapping(uint256 => PlayerPool) public players */\n    tag_107:\n      mstore(0x20, 0x04)\n      dup1\n      0x00\n      mstore\n      keccak256(0x00, 0x40)\n      0x00\n      swap2\n      pop\n      swap1\n      pop\n      dup1\n      0x00\n      add\n      sload\n      swap1\n      dup1\n      0x01\n      add\n      sload\n      swap1\n      dup1\n      0x02\n      add\n      0x00\n      swap1\n      sload\n      swap1\n      0x0100\n      exp\n      swap1\n      div\n      0xff\n      and\n      swap1\n      pop\n      dup4\n      jump\t// out\n        /* \"@openzeppelin/contracts/utils/introspection/ERC165.sol\":730:876  function supportsInterface(bytes4 interfaceId) public view virtual returns (bool) {... */\n    tag_113:\n        /* \"@openzeppelin/contracts/utils/introspection/ERC165.sol\":806:810  bool */\n      0x00\n        /* \"@openzeppelin/contracts/utils/introspection/ERC165.sol\":844:869  type(IERC165).interfaceId */\n      0x01ffc9a700000000000000000000000000000000000000000000000000000000\n        /* \"@openzeppelin/contracts/utils/introspection/ERC165.sol\":829:869  interfaceId == type(IERC165).interfaceId */\n      not(0xffffffffffffffffffffffffffffffffffffffffffffffffffffffff)\n      and\n        /* \"@openzeppelin/contracts/utils/introspection/ERC165.sol\":829:840  interfaceId */\n      dup3\n        /* \"@openzeppelin/contracts/utils/introspection/ERC165.sol\":829:869  interfaceId == type(IERC165).interfaceId */\n      not(0xffffffffffffffffffffffffffffffffffffffffffffffffffffffff)\n      and\n      eq\n        /* \"@openzeppelin/contracts/utils/introspection/ERC165.sol\":822:869  return interfaceId == type(IERC165).interfaceId */\n      swap1\n      pop\n        /* \"@openzeppelin/contracts/utils/introspection/ERC165.sol\":730:876  function supportsInterface(bytes4 interfaceId) public view virtual returns (bool) {... */\n      swap2\n      swap1\n      pop\n      jump\t// out\n        /* \"@openzeppelin/contracts/access/AccessControl.sol\":3175:3278  function _checkRole(bytes32 role) internal view virtual {... */\n    tag_118:\n        /* \"@openzeppelin/contracts/access/AccessControl.sol\":3241:3271  _checkRole(role, _msgSender()) */\n      tag_234\n        /* \"@openzeppelin/contracts/access/AccessControl.sol\":3252:3256  role */\n      dup2\n        /* \"@openzeppelin/contracts/access/AccessControl.sol\":3258:3270  _msgSender() */\n      tag_235\n        /* \"@openzeppelin/contracts/access/AccessControl.sol\":3258:3268  _msgSender */\n      tag_124\n        /* \"@openzeppelin/contracts/access/AccessControl.sol\":3258:3270  _msgSender() */\n      jump\t// in\n    tag_235:\n        /* \"@openzeppelin/contracts/access/AccessControl.sol\":3241:3251  _checkRole */\n      tag_236\n        /* \"@openzeppelin/contracts/access/AccessControl.sol\":3241:3271  _checkRole(role, _msgSender()) */\n      jump\t// in\n    tag_234:\n        /* \"@openzeppelin/contracts/access/AccessControl.sol\":3175:3278  function _checkRole(bytes32 role) internal view virtual {... */\n      pop\n      jump\t// out\n        /* \"@openzeppelin/contracts/access/AccessControl.sol\":6155:6471  function _grantRole(bytes32 role, address account) internal virtual returns (bool) {... */\n    tag_121:\n        /* \"@openzeppelin/contracts/access/AccessControl.sol\":6232:6236  bool */\n      0x00\n        /* \"@openzeppelin/contracts/access/AccessControl.sol\":6253:6275  hasRole(role, account) */\n      tag_238\n        /* \"@openzeppelin/contracts/access/AccessControl.sol\":6261:6265  role */\n      dup4\n        /* \"@openzeppelin/contracts/access/AccessControl.sol\":6267:6274  account */\n      dup4\n        /* \"@openzeppelin/contracts/access/AccessControl.sol\":6253:6260  hasRole */\n      tag_69\n        /* \"@openzeppelin/contracts/access/AccessControl.sol\":6253:6275  hasRole(role, account) */\n      jump\t// in\n    tag_238:\n        /* \"@openzeppelin/contracts/access/AccessControl.sol\":6248:6465  if (!hasRole(role, account)) {... */\n      tag_239\n      jumpi\n        /* \"@openzeppelin/contracts/access/AccessControl.sol\":6323:6327  true */\n      0x01\n        /* \"@openzeppelin/contracts/access/AccessControl.sol\":6291:6297  _roles */\n      dup1\n        /* \"@openzeppelin/contracts/access/AccessControl.sol\":6291:6303  _roles[role] */\n      0x00\n        /* \"@openzeppelin/contracts/access/AccessControl.sol\":6298:6302  role */\n      dup6\n        /* \"@openzeppelin/contracts/access/AccessControl.sol\":6291:6303  _roles[role] */\n      dup2\n      mstore\n      0x20\n      add\n      swap1\n      dup2\n      mstore\n      0x20\n      add\n      0x00\n      keccak256\n        /* \"@openzeppelin/contracts/access/AccessControl.sol\":6291:6311  _roles[role].hasRole */\n      0x00\n      add\n        /* \"@openzeppelin/contracts/access/AccessControl.sol\":6291:6320  _roles[role].hasRole[account] */\n      0x00\n        /* \"@openzeppelin/contracts/access/AccessControl.sol\":6312:6319  account */\n      dup5\n        /* \"@openzeppelin/contracts/access/AccessControl.sol\":6291:6320  _roles[role].hasRole[account] */\n      0xffffffffffffffffffffffffffffffffffffffff\n      and\n      0xffffffffffffffffffffffffffffffffffffffff\n      and\n      dup2\n      mstore\n      0x20\n      add\n      swap1\n      dup2\n      mstore\n      0x20\n      add\n      0x00\n      keccak256\n      0x00\n        /* \"@openzeppelin/contracts/access/AccessControl.sol\":6291:6327  _roles[role].hasRole[account] = true */\n      0x0100\n      exp\n      dup2\n      sload\n      dup2\n      0xff\n      mul\n      not\n      and\n      swap1\n      dup4\n      iszero\n      iszero\n      mul\n      or\n      swap1\n      sstore\n      pop\n        /* \"@openzeppelin/contracts/access/AccessControl.sol\":6373:6385  _msgSender() */\n      tag_240\n        /* \"@openzeppelin/contracts/access/AccessControl.sol\":6373:6383  _msgSender */\n      tag_124\n        /* \"@openzeppelin/contracts/access/AccessControl.sol\":6373:6385  _msgSender() */\n      jump\t// in\n    tag_240:\n        /* \"@openzeppelin/contracts/access/AccessControl.sol\":6346:6386  RoleGranted(role, account, _msgSender()) */\n      0xffffffffffffffffffffffffffffffffffffffff\n      and\n        /* \"@openzeppelin/contracts/access/AccessControl.sol\":6364:6371  account */\n      dup3\n        /* \"@openzeppelin/contracts/access/AccessControl.sol\":6346:6386  RoleGranted(role, account, _msgSender()) */\n      0xffffffffffffffffffffffffffffffffffffffff\n      and\n        /* \"@openzeppelin/contracts/access/AccessControl.sol\":6358:6362  role */\n      dup5\n        /* \"@openzeppelin/contracts/access/AccessControl.sol\":6346:6386  RoleGranted(role, account, _msgSender()) */\n      0x2f8788117e7eff1d82e926ec794901d17c78024a50270940304540a733656f0d\n      mload(0x40)\n      mload(0x40)\n      dup1\n      swap2\n      sub\n      swap1\n      log4\n        /* \"@openzeppelin/contracts/access/AccessControl.sol\":6407:6411  true */\n      0x01\n        /* \"@openzeppelin/contracts/access/AccessControl.sol\":6400:6411  return true */\n      swap1\n      pop\n      jump(tag_237)\n        /* \"@openzeppelin/contracts/access/AccessControl.sol\":6248:6465  if (!hasRole(role, account)) {... */\n    tag_239:\n        /* \"@openzeppelin/contracts/access/AccessControl.sol\":6449:6454  false */\n      0x00\n        /* \"@openzeppelin/contracts/access/AccessControl.sol\":6442:6454  return false */\n      swap1\n      pop\n        /* \"@openzeppelin/contracts/access/AccessControl.sol\":6155:6471  function _grantRole(bytes32 role, address account) internal virtual returns (bool) {... */\n    tag_237:\n      swap3\n      swap2\n      pop\n      pop\n      jump\t// out\n        /* \"@openzeppelin/contracts/utils/Context.sol\":656:752  function _msgSender() internal view virtual returns (address) {... */\n    tag_124:\n        /* \"@openzeppelin/contracts/utils/Context.sol\":709:716  address */\n      0x00\n        /* \"@openzeppelin/contracts/utils/Context.sol\":735:745  msg.sender */\n      caller\n        /* \"@openzeppelin/contracts/utils/Context.sol\":728:745  return msg.sender */\n      swap1\n      pop\n        /* \"@openzeppelin/contracts/utils/Context.sol\":656:752  function _msgSender() internal view virtual returns (address) {... */\n      swap1\n      jump\t// out\n        /* \"@openzeppelin/contracts/access/AccessControl.sol\":6708:7025  function _revokeRole(bytes32 role, address account) internal virtual returns (bool) {... */\n    tag_127:\n        /* \"@openzeppelin/contracts/access/AccessControl.sol\":6786:6790  bool */\n      0x00\n        /* \"@openzeppelin/contracts/access/AccessControl.sol\":6806:6828  hasRole(role, account) */\n      tag_244\n        /* \"@openzeppelin/contracts/access/AccessControl.sol\":6814:6818  role */\n      dup4\n        /* \"@openzeppelin/contracts/access/AccessControl.sol\":6820:6827  account */\n      dup4\n        /* \"@openzeppelin/contracts/access/AccessControl.sol\":6806:6813  hasRole */\n      tag_69\n        /* \"@openzeppelin/contracts/access/AccessControl.sol\":6806:6828  hasRole(role, account) */\n      jump\t// in\n    tag_244:\n        /* \"@openzeppelin/contracts/access/AccessControl.sol\":6802:7019  if (hasRole(role, account)) {... */\n      iszero\n      tag_245\n      jumpi\n        /* \"@openzeppelin/contracts/access/AccessControl.sol\":6876:6881  false */\n      0x00\n        /* \"@openzeppelin/contracts/access/AccessControl.sol\":6844:6850  _roles */\n      0x01\n        /* \"@openzeppelin/contracts/access/AccessControl.sol\":6844:6856  _roles[role] */\n      0x00\n        /* \"@openzeppelin/contracts/access/AccessControl.sol\":6851:6855  role */\n      dup6\n        /* \"@openzeppelin/contracts/access/AccessControl.sol\":6844:6856  _roles[role] */\n      dup2\n      mstore\n      0x20\n      add\n      swap1\n      dup2\n      mstore\n      0x20\n      add\n      0x00\n      keccak256\n        /* \"@openzeppelin/contracts/access/AccessControl.sol\":6844:6864  _roles[role].hasRole */\n      0x00\n      add\n        /* \"@openzeppelin/contracts/access/AccessControl.sol\":6844:6873  _roles[role].hasRole[account] */\n      0x00\n        /* \"@openzeppelin/contracts/access/AccessControl.sol\":6865:6872  account */\n      dup5\n        /* \"@openzeppelin/contracts/access/AccessControl.sol\":6844:6873  _roles[role].hasRole[account] */\n      0xffffffffffffffffffffffffffffffffffffffff\n      and\n      0xffffffffffffffffffffffffffffffffffffffff\n      and\n      dup2\n      mstore\n      0x20\n      add\n      swap1\n      dup2\n      mstore\n      0x20\n      add\n      0x00\n      keccak256\n      0x00\n        /* \"@openzeppelin/contracts/access/AccessControl.sol\":6844:6881  _roles[role].hasRole[account] = false */\n      0x0100\n      exp\n      dup2\n      sload\n      dup2\n      0xff\n      mul\n      not\n      and\n      swap1\n      dup4\n      iszero\n      iszero\n      mul\n      or\n      swap1\n      sstore\n      pop\n        /* \"@openzeppelin/contracts/access/AccessControl.sol\":6927:6939  _msgSender() */\n      tag_246\n        /* \"@openzeppelin/contracts/access/AccessControl.sol\":6927:6937  _msgSender */\n      tag_124\n        /* \"@openzeppelin/contracts/access/AccessControl.sol\":6927:6939  _msgSender() */\n      jump\t// in\n    tag_246:\n        /* \"@openzeppelin/contracts/access/AccessControl.sol\":6900:6940  RoleRevoked(role, account, _msgSender()) */\n      0xffffffffffffffffffffffffffffffffffffffff\n      and\n        /* \"@openzeppelin/contracts/access/AccessControl.sol\":6918:6925  account */\n      dup3\n        /* \"@openzeppelin/contracts/access/AccessControl.sol\":6900:6940  RoleRevoked(role, account, _msgSender()) */\n      0xffffffffffffffffffffffffffffffffffffffff\n      and\n        /* \"@openzeppelin/contracts/access/AccessControl.sol\":6912:6916  role */\n      dup5\n        /* \"@openzeppelin/contracts/access/AccessControl.sol\":6900:6940  RoleRevoked(role, account, _msgSender()) */\n      0xf6391f5c32d9c69d2a47ea670b442974b53935d1edc7fd64eb21e047a839171b\n      mload(0x40)\n      mload(0x40)\n      dup1\n      swap2\n      sub\n      swap1\n      log4\n        /* \"@openzeppelin/contracts/access/AccessControl.sol\":6961:6965  true */\n      0x01\n        /* \"@openzeppelin/contracts/access/AccessControl.sol\":6954:6965  return true */\n      swap1\n      pop\n      jump(tag_243)\n        /* \"@openzeppelin/contracts/access/AccessControl.sol\":6802:7019  if (hasRole(role, account)) {... */\n    tag_245:\n        /* \"@openzeppelin/contracts/access/AccessControl.sol\":7003:7008  false */\n      0x00\n        /* \"@openzeppelin/contracts/access/AccessControl.sol\":6996:7008  return false */\n      swap1\n      pop\n        /* \"@openzeppelin/contracts/access/AccessControl.sol\":6708:7025  function _revokeRole(bytes32 role, address account) internal virtual returns (bool) {... */\n    tag_243:\n      swap3\n      swap2\n      pop\n      pop\n      jump\t// out\n        /* \"@openzeppelin/contracts/utils/ReentrancyGuard.sol\":2575:2882  function _nonReentrantBefore() private {... */\n    tag_130:\n        /* \"@openzeppelin/contracts/utils/ReentrancyGuard.sol\":1899:1900  2 */\n      0x02\n        /* \"@openzeppelin/contracts/utils/ReentrancyGuard.sol\":2702:2709  _status */\n      sload(0x00)\n        /* \"@openzeppelin/contracts/utils/ReentrancyGuard.sol\":2702:2720  _status == ENTERED */\n      sub\n        /* \"@openzeppelin/contracts/utils/ReentrancyGuard.sol\":2698:2784  if (_status == ENTERED) {... */\n      tag_249\n      jumpi\n        /* \"@openzeppelin/contracts/utils/ReentrancyGuard.sol\":2743:2773  ReentrancyGuardReentrantCall() */\n      mload(0x40)\n      0x3ee5aeb500000000000000000000000000000000000000000000000000000000\n      dup2\n      mstore\n      0x04\n      add\n      mload(0x40)\n      dup1\n      swap2\n      sub\n      swap1\n      revert\n        /* \"@openzeppelin/contracts/utils/ReentrancyGuard.sol\":2698:2784  if (_status == ENTERED) {... */\n    tag_249:\n        /* \"@openzeppelin/contracts/utils/ReentrancyGuard.sol\":1899:1900  2 */\n      0x02\n        /* \"@openzeppelin/contracts/utils/ReentrancyGuard.sol\":2858:2865  _status */\n      0x00\n        /* \"@openzeppelin/contracts/utils/ReentrancyGuard.sol\":2858:2875  _status = ENTERED */\n      dup2\n      swap1\n      sstore\n      pop\n        /* \"@openzeppelin/contracts/utils/ReentrancyGuard.sol\":2575:2882  function _nonReentrantBefore() private {... */\n      jump\t// out\n        /* \"@openzeppelin/contracts/utils/ReentrancyGuard.sol\":2888:3096  function _nonReentrantAfter() private {... */\n    tag_170:\n        /* \"@openzeppelin/contracts/utils/ReentrancyGuard.sol\":1857:1858  1 */\n      0x01\n        /* \"@openzeppelin/contracts/utils/ReentrancyGuard.sol\":3068:3075  _status */\n      0x00\n        /* \"@openzeppelin/contracts/utils/ReentrancyGuard.sol\":3068:3089  _status = NOT_ENTERED */\n      dup2\n      swap1\n      sstore\n      pop\n        /* \"@openzeppelin/contracts/utils/ReentrancyGuard.sol\":2888:3096  function _nonReentrantAfter() private {... */\n      jump\t// out\n        /* \"@openzeppelin/contracts/access/AccessControl.sol\":3408:3605  function _checkRole(bytes32 role, address account) internal view virtual {... */\n    tag_236:\n        /* \"@openzeppelin/contracts/access/AccessControl.sol\":3496:3518  hasRole(role, account) */\n      tag_252\n        /* \"@openzeppelin/contracts/access/AccessControl.sol\":3504:3508  role */\n      dup3\n        /* \"@openzeppelin/contracts/access/AccessControl.sol\":3510:3517  account */\n      dup3\n        /* \"@openzeppelin/contracts/access/AccessControl.sol\":3496:3503  hasRole */\n      tag_69\n        /* \"@openzeppelin/contracts/access/AccessControl.sol\":3496:3518  hasRole(role, account) */\n      jump\t// in\n    tag_252:\n        /* \"@openzeppelin/contracts/access/AccessControl.sol\":3491:3599  if (!hasRole(role, account)) {... */\n      tag_253\n      jumpi\n        /* \"@openzeppelin/contracts/access/AccessControl.sol\":3574:3581  account */\n      dup1\n        /* \"@openzeppelin/contracts/access/AccessControl.sol\":3583:3587  role */\n      dup3\n        /* \"@openzeppelin/contracts/access/AccessControl.sol\":3541:3588  AccessControlUnauthorizedAccount(account, role) */\n      mload(0x40)\n      0xe2517d3f00000000000000000000000000000000000000000000000000000000\n      dup2\n      mstore\n      0x04\n      add\n      tag_254\n      swap3\n      swap2\n      swap1\n      tag_255\n      jump\t// in\n    tag_254:\n      mload(0x40)\n      dup1\n      swap2\n      sub\n      swap1\n      revert\n        /* \"@openzeppelin/contracts/access/AccessControl.sol\":3491:3599  if (!hasRole(role, account)) {... */\n    tag_253:\n        /* \"@openzeppelin/contracts/access/AccessControl.sol\":3408:3605  function _checkRole(bytes32 role, address account) internal view virtual {... */\n      pop\n      pop\n      jump\t// out\n        /* \"#utility.yul\":88:205   */\n    tag_257:\n        /* \"#utility.yul\":197:198   */\n      0x00\n        /* \"#utility.yul\":194:195   */\n      0x00\n        /* \"#utility.yul\":187:199   */\n      revert\n        /* \"#utility.yul\":334:483   */\n    tag_259:\n        /* \"#utility.yul\":370:377   */\n      0x00\n        /* \"#utility.yul\":410:476   */\n      0xffffffff00000000000000000000000000000000000000000000000000000000\n        /* \"#utility.yul\":403:408   */\n      dup3\n        /* \"#utility.yul\":399:477   */\n      and\n        /* \"#utility.yul\":388:477   */\n      swap1\n      pop\n        /* \"#utility.yul\":334:483   */\n      swap2\n      swap1\n      pop\n      jump\t// out\n        /* \"#utility.yul\":489:609   */\n    tag_260:\n        /* \"#utility.yul\":561:584   */\n      tag_307\n        /* \"#utility.yul\":578:583   */\n      dup2\n        /* \"#utility.yul\":561:584   */\n      tag_259\n      jump\t// in\n    tag_307:\n        /* \"#utility.yul\":554:559   */\n      dup2\n        /* \"#utility.yul\":551:585   */\n      eq\n        /* \"#utility.yul\":541:603   */\n      tag_308\n      jumpi\n        /* \"#utility.yul\":599:600   */\n      0x00\n        /* \"#utility.yul\":596:597   */\n      0x00\n        /* \"#utility.yul\":589:601   */\n      revert\n        /* \"#utility.yul\":541:603   */\n    tag_308:\n        /* \"#utility.yul\":489:609   */\n      pop\n      jump\t// out\n        /* \"#utility.yul\":615:752   */\n    tag_261:\n        /* \"#utility.yul\":660:665   */\n      0x00\n        /* \"#utility.yul\":698:704   */\n      dup2\n        /* \"#utility.yul\":685:705   */\n      calldataload\n        /* \"#utility.yul\":676:705   */\n      swap1\n      pop\n        /* \"#utility.yul\":714:746   */\n      tag_310\n        /* \"#utility.yul\":740:745   */\n      dup2\n        /* \"#utility.yul\":714:746   */\n      tag_260\n      jump\t// in\n    tag_310:\n        /* \"#utility.yul\":615:752   */\n      swap3\n      swap2\n      pop\n      pop\n      jump\t// out\n        /* \"#utility.yul\":758:1085   */\n    tag_29:\n        /* \"#utility.yul\":816:822   */\n      0x00\n        /* \"#utility.yul\":865:867   */\n      0x20\n        /* \"#utility.yul\":853:862   */\n      dup3\n        /* \"#utility.yul\":844:851   */\n      dup5\n        /* \"#utility.yul\":840:863   */\n      sub\n        /* \"#utility.yul\":836:868   */\n      slt\n        /* \"#utility.yul\":833:952   */\n      iszero\n      tag_312\n      jumpi\n        /* \"#utility.yul\":871:950   */\n      tag_313\n      tag_257\n      jump\t// in\n    tag_313:\n        /* \"#utility.yul\":833:952   */\n    tag_312:\n        /* \"#utility.yul\":991:992   */\n      0x00\n        /* \"#utility.yul\":1016:1068   */\n      tag_314\n        /* \"#utility.yul\":1060:1067   */\n      dup5\n        /* \"#utility.yul\":1051:1057   */\n      dup3\n        /* \"#utility.yul\":1040:1049   */\n      dup6\n        /* \"#utility.yul\":1036:1058   */\n      add\n        /* \"#utility.yul\":1016:1068   */\n      tag_261\n      jump\t// in\n    tag_314:\n        /* \"#utility.yul\":1006:1068   */\n      swap2\n      pop\n        /* \"#utility.yul\":962:1078   */\n      pop\n        /* \"#utility.yul\":758:1085   */\n      swap3\n      swap2\n      pop\n      pop\n      jump\t// out\n        /* \"#utility.yul\":1091:1181   */\n    tag_262:\n        /* \"#utility.yul\":1125:1132   */\n      0x00\n        /* \"#utility.yul\":1168:1173   */\n      dup2\n        /* \"#utility.yul\":1161:1174   */\n      iszero\n        /* \"#utility.yul\":1154:1175   */\n      iszero\n        /* \"#utility.yul\":1143:1175   */\n      swap1\n      pop\n        /* \"#utility.yul\":1091:1181   */\n      swap2\n      swap1\n      pop\n      jump\t// out\n        /* \"#utility.yul\":1187:1296   */\n    tag_263:\n        /* \"#utility.yul\":1268:1289   */\n      tag_317\n        /* \"#utility.yul\":1283:1288   */\n      dup2\n        /* \"#utility.yul\":1268:1289   */\n      tag_262\n      jump\t// in\n    tag_317:\n        /* \"#utility.yul\":1263:1266   */\n      dup3\n        /* \"#utility.yul\":1256:1290   */\n      mstore\n        /* \"#utility.yul\":1187:1296   */\n      pop\n      pop\n      jump\t// out\n        /* \"#utility.yul\":1302:1512   */\n    tag_32:\n        /* \"#utility.yul\":1389:1393   */\n      0x00\n        /* \"#utility.yul\":1427:1429   */\n      0x20\n        /* \"#utility.yul\":1416:1425   */\n      dup3\n        /* \"#utility.yul\":1412:1430   */\n      add\n        /* \"#utility.yul\":1404:1430   */\n      swap1\n      pop\n        /* \"#utility.yul\":1440:1505   */\n      tag_319\n        /* \"#utility.yul\":1502:1503   */\n      0x00\n        /* \"#utility.yul\":1491:1500   */\n      dup4\n        /* \"#utility.yul\":1487:1504   */\n      add\n        /* \"#utility.yul\":1478:1484   */\n      dup5\n        /* \"#utility.yul\":1440:1505   */\n      tag_263\n      jump\t// in\n    tag_319:\n        /* \"#utility.yul\":1302:1512   */\n      swap3\n      swap2\n      pop\n      pop\n      jump\t// out\n        /* \"#utility.yul\":1518:1595   */\n    tag_264:\n        /* \"#utility.yul\":1555:1562   */\n      0x00\n        /* \"#utility.yul\":1584:1589   */\n      dup2\n        /* \"#utility.yul\":1573:1589   */\n      swap1\n      pop\n        /* \"#utility.yul\":1518:1595   */\n      swap2\n      swap1\n      pop\n      jump\t// out\n        /* \"#utility.yul\":1601:1723   */\n    tag_265:\n        /* \"#utility.yul\":1674:1698   */\n      tag_322\n        /* \"#utility.yul\":1692:1697   */\n      dup2\n        /* \"#utility.yul\":1674:1698   */\n      tag_264\n      jump\t// in\n    tag_322:\n        /* \"#utility.yul\":1667:1672   */\n      dup2\n        /* \"#utility.yul\":1664:1699   */\n      eq\n        /* \"#utility.yul\":1654:1717   */\n      tag_323\n      jumpi\n        /* \"#utility.yul\":1713:1714   */\n      0x00\n        /* \"#utility.yul\":1710:1711   */\n      0x00\n        /* \"#utility.yul\":1703:1715   */\n      revert\n        /* \"#utility.yul\":1654:1717   */\n    tag_323:\n        /* \"#utility.yul\":1601:1723   */\n      pop\n      jump\t// out\n        /* \"#utility.yul\":1729:1868   */\n    tag_266:\n        /* \"#utility.yul\":1775:1780   */\n      0x00\n        /* \"#utility.yul\":1813:1819   */\n      dup2\n        /* \"#utility.yul\":1800:1820   */\n      calldataload\n        /* \"#utility.yul\":1791:1820   */\n      swap1\n      pop\n        /* \"#utility.yul\":1829:1862   */\n      tag_325\n        /* \"#utility.yul\":1856:1861   */\n      dup2\n        /* \"#utility.yul\":1829:1862   */\n      tag_265\n      jump\t// in\n    tag_325:\n        /* \"#utility.yul\":1729:1868   */\n      swap3\n      swap2\n      pop\n      pop\n      jump\t// out\n        /* \"#utility.yul\":1874:2203   */\n    tag_35:\n        /* \"#utility.yul\":1933:1939   */\n      0x00\n        /* \"#utility.yul\":1982:1984   */\n      0x20\n        /* \"#utility.yul\":1970:1979   */\n      dup3\n        /* \"#utility.yul\":1961:1968   */\n      dup5\n        /* \"#utility.yul\":1957:1980   */\n      sub\n        /* \"#utility.yul\":1953:1985   */\n      slt\n        /* \"#utility.yul\":1950:2069   */\n      iszero\n      tag_327\n      jumpi\n        /* \"#utility.yul\":1988:2067   */\n      tag_328\n      tag_257\n      jump\t// in\n    tag_328:\n        /* \"#utility.yul\":1950:2069   */\n    tag_327:\n        /* \"#utility.yul\":2108:2109   */\n      0x00\n        /* \"#utility.yul\":2133:2186   */\n      tag_329\n        /* \"#utility.yul\":2178:2185   */\n      dup5\n        /* \"#utility.yul\":2169:2175   */\n      dup3\n        /* \"#utility.yul\":2158:2167   */\n      dup6\n        /* \"#utility.yul\":2154:2176   */\n      add\n        /* \"#utility.yul\":2133:2186   */\n      tag_266\n      jump\t// in\n    tag_329:\n        /* \"#utility.yul\":2123:2186   */\n      swap2\n      pop\n        /* \"#utility.yul\":2079:2196   */\n      pop\n        /* \"#utility.yul\":1874:2203   */\n      swap3\n      swap2\n      pop\n      pop\n      jump\t// out\n        /* \"#utility.yul\":2209:2327   */\n    tag_267:\n        /* \"#utility.yul\":2296:2320   */\n      tag_331\n        /* \"#utility.yul\":2314:2319   */\n      dup2\n        /* \"#utility.yul\":2296:2320   */\n      tag_264\n      jump\t// in\n    tag_331:\n        /* \"#utility.yul\":2291:2294   */\n      dup3\n        /* \"#utility.yul\":2284:2321   */\n      mstore\n        /* \"#utility.yul\":2209:2327   */\n      pop\n      pop\n      jump\t// out\n        /* \"#utility.yul\":2333:2555   */\n    tag_38:\n        /* \"#utility.yul\":2426:2430   */\n      0x00\n        /* \"#utility.yul\":2464:2466   */\n      0x20\n        /* \"#utility.yul\":2453:2462   */\n      dup3\n        /* \"#utility.yul\":2449:2467   */\n      add\n        /* \"#utility.yul\":2441:2467   */\n      swap1\n      pop\n        /* \"#utility.yul\":2477:2548   */\n      tag_333\n        /* \"#utility.yul\":2545:2546   */\n      0x00\n        /* \"#utility.yul\":2534:2543   */\n      dup4\n        /* \"#utility.yul\":2530:2547   */\n      add\n        /* \"#utility.yul\":2521:2527   */\n      dup5\n        /* \"#utility.yul\":2477:2548   */\n      tag_267\n      jump\t// in\n    tag_333:\n        /* \"#utility.yul\":2333:2555   */\n      swap3\n      swap2\n      pop\n      pop\n      jump\t// out\n        /* \"#utility.yul\":2561:2687   */\n    tag_268:\n        /* \"#utility.yul\":2598:2605   */\n      0x00\n        /* \"#utility.yul\":2638:2680   */\n      0xffffffffffffffffffffffffffffffffffffffff\n        /* \"#utility.yul\":2631:2636   */\n      dup3\n        /* \"#utility.yul\":2627:2681   */\n      and\n        /* \"#utility.yul\":2616:2681   */\n      swap1\n      pop\n        /* \"#utility.yul\":2561:2687   */\n      swap2\n      swap1\n      pop\n      jump\t// out\n        /* \"#utility.yul\":2693:2789   */\n    tag_269:\n        /* \"#utility.yul\":2730:2737   */\n      0x00\n        /* \"#utility.yul\":2759:2783   */\n      tag_336\n        /* \"#utility.yul\":2777:2782   */\n      dup3\n        /* \"#utility.yul\":2759:2783   */\n      tag_268\n      jump\t// in\n    tag_336:\n        /* \"#utility.yul\":2748:2783   */\n      swap1\n      pop\n        /* \"#utility.yul\":2693:2789   */\n      swap2\n      swap1\n      pop\n      jump\t// out\n        /* \"#utility.yul\":2795:2917   */\n    tag_270:\n        /* \"#utility.yul\":2868:2892   */\n      tag_338\n        /* \"#utility.yul\":2886:2891   */\n      dup2\n        /* \"#utility.yul\":2868:2892   */\n      tag_269\n      jump\t// in\n    tag_338:\n        /* \"#utility.yul\":2861:2866   */\n      dup2\n        /* \"#utility.yul\":2858:2893   */\n      eq\n        /* \"#utility.yul\":2848:2911   */\n      tag_339\n      jumpi\n        /* \"#utility.yul\":2907:2908   */\n      0x00\n        /* \"#utility.yul\":2904:2905   */\n      0x00\n        /* \"#utility.yul\":2897:2909   */\n      revert\n        /* \"#utility.yul\":2848:2911   */\n    tag_339:\n        /* \"#utility.yul\":2795:2917   */\n      pop\n      jump\t// out\n        /* \"#utility.yul\":2923:3062   */\n    tag_271:\n        /* \"#utility.yul\":2969:2974   */\n      0x00\n        /* \"#utility.yul\":3007:3013   */\n      dup2\n        /* \"#utility.yul\":2994:3014   */\n      calldataload\n        /* \"#utility.yul\":2985:3014   */\n      swap1\n      pop\n        /* \"#utility.yul\":3023:3056   */\n      tag_341\n        /* \"#utility.yul\":3050:3055   */\n      dup2\n        /* \"#utility.yul\":3023:3056   */\n      tag_270\n      jump\t// in\n    tag_341:\n        /* \"#utility.yul\":2923:3062   */\n      swap3\n      swap2\n      pop\n      pop\n      jump\t// out\n        /* \"#utility.yul\":3068:3542   */\n    tag_41:\n        /* \"#utility.yul\":3136:3142   */\n      0x00\n        /* \"#utility.yul\":3144:3150   */\n      0x00\n        /* \"#utility.yul\":3193:3195   */\n      0x40\n        /* \"#utility.yul\":3181:3190   */\n      dup4\n        /* \"#utility.yul\":3172:3179   */\n      dup6\n        /* \"#utility.yul\":3168:3191   */\n      sub\n        /* \"#utility.yul\":3164:3196   */\n      slt\n        /* \"#utility.yul\":3161:3280   */\n      iszero\n      tag_343\n      jumpi\n        /* \"#utility.yul\":3199:3278   */\n      tag_344\n      tag_257\n      jump\t// in\n    tag_344:\n        /* \"#utility.yul\":3161:3280   */\n    tag_343:\n        /* \"#utility.yul\":3319:3320   */\n      0x00\n        /* \"#utility.yul\":3344:3397   */\n      tag_345\n        /* \"#utility.yul\":3389:3396   */\n      dup6\n        /* \"#utility.yul\":3380:3386   */\n      dup3\n        /* \"#utility.yul\":3369:3378   */\n      dup7\n        /* \"#utility.yul\":3365:3387   */\n      add\n        /* \"#utility.yul\":3344:3397   */\n      tag_266\n      jump\t// in\n    tag_345:\n        /* \"#utility.yul\":3334:3397   */\n      swap3\n      pop\n        /* \"#utility.yul\":3290:3407   */\n      pop\n        /* \"#utility.yul\":3446:3448   */\n      0x20\n        /* \"#utility.yul\":3472:3525   */\n      tag_346\n        /* \"#utility.yul\":3517:3524   */\n      dup6\n        /* \"#utility.yul\":3508:3514   */\n      dup3\n        /* \"#utility.yul\":3497:3506   */\n      dup7\n        /* \"#utility.yul\":3493:3515   */\n      add\n        /* \"#utility.yul\":3472:3525   */\n      tag_271\n      jump\t// in\n    tag_346:\n        /* \"#utility.yul\":3462:3525   */\n      swap2\n      pop\n        /* \"#utility.yul\":3417:3535   */\n      pop\n        /* \"#utility.yul\":3068:3542   */\n      swap3\n      pop\n      swap3\n      swap1\n      pop\n      jump\t// out\n        /* \"#utility.yul\":3548:3666   */\n    tag_272:\n        /* \"#utility.yul\":3635:3659   */\n      tag_348\n        /* \"#utility.yul\":3653:3658   */\n      dup2\n        /* \"#utility.yul\":3635:3659   */\n      tag_269\n      jump\t// in\n    tag_348:\n        /* \"#utility.yul\":3630:3633   */\n      dup3\n        /* \"#utility.yul\":3623:3660   */\n      mstore\n        /* \"#utility.yul\":3548:3666   */\n      pop\n      pop\n      jump\t// out\n        /* \"#utility.yul\":3672:3894   */\n    tag_49:\n        /* \"#utility.yul\":3765:3769   */\n      0x00\n        /* \"#utility.yul\":3803:3805   */\n      0x20\n        /* \"#utility.yul\":3792:3801   */\n      dup3\n        /* \"#utility.yul\":3788:3806   */\n      add\n        /* \"#utility.yul\":3780:3806   */\n      swap1\n      pop\n        /* \"#utility.yul\":3816:3887   */\n      tag_350\n        /* \"#utility.yul\":3884:3885   */\n      0x00\n        /* \"#utility.yul\":3873:3882   */\n      dup4\n        /* \"#utility.yul\":3869:3886   */\n      add\n        /* \"#utility.yul\":3860:3866   */\n      dup5\n        /* \"#utility.yul\":3816:3887   */\n      tag_272\n      jump\t// in\n    tag_350:\n        /* \"#utility.yul\":3672:3894   */\n      swap3\n      swap2\n      pop\n      pop\n      jump\t// out\n        /* \"#utility.yul\":3900:3977   */\n    tag_273:\n        /* \"#utility.yul\":3937:3944   */\n      0x00\n        /* \"#utility.yul\":3966:3971   */\n      dup2\n        /* \"#utility.yul\":3955:3971   */\n      swap1\n      pop\n        /* \"#utility.yul\":3900:3977   */\n      swap2\n      swap1\n      pop\n      jump\t// out\n        /* \"#utility.yul\":3983:4105   */\n    tag_274:\n        /* \"#utility.yul\":4056:4080   */\n      tag_353\n        /* \"#utility.yul\":4074:4079   */\n      dup2\n        /* \"#utility.yul\":4056:4080   */\n      tag_273\n      jump\t// in\n    tag_353:\n        /* \"#utility.yul\":4049:4054   */\n      dup2\n        /* \"#utility.yul\":4046:4081   */\n      eq\n        /* \"#utility.yul\":4036:4099   */\n      tag_354\n      jumpi\n        /* \"#utility.yul\":4095:4096   */\n      0x00\n        /* \"#utility.yul\":4092:4093   */\n      0x00\n        /* \"#utility.yul\":4085:4097   */\n      revert\n        /* \"#utility.yul\":4036:4099   */\n    tag_354:\n        /* \"#utility.yul\":3983:4105   */\n      pop\n      jump\t// out\n        /* \"#utility.yul\":4111:4250   */\n    tag_275:\n        /* \"#utility.yul\":4157:4162   */\n      0x00\n        /* \"#utility.yul\":4195:4201   */\n      dup2\n        /* \"#utility.yul\":4182:4202   */\n      calldataload\n        /* \"#utility.yul\":4173:4202   */\n      swap1\n      pop\n        /* \"#utility.yul\":4211:4244   */\n      tag_356\n        /* \"#utility.yul\":4238:4243   */\n      dup2\n        /* \"#utility.yul\":4211:4244   */\n      tag_274\n      jump\t// in\n    tag_356:\n        /* \"#utility.yul\":4111:4250   */\n      swap3\n      swap2\n      pop\n      pop\n      jump\t// out\n        /* \"#utility.yul\":4256:4875   */\n    tag_55:\n        /* \"#utility.yul\":4333:4339   */\n      0x00\n        /* \"#utility.yul\":4341:4347   */\n      0x00\n        /* \"#utility.yul\":4349:4355   */\n      0x00\n        /* \"#utility.yul\":4398:4400   */\n      0x60\n        /* \"#utility.yul\":4386:4395   */\n      dup5\n        /* \"#utility.yul\":4377:4384   */\n      dup7\n        /* \"#utility.yul\":4373:4396   */\n      sub\n        /* \"#utility.yul\":4369:4401   */\n      slt\n        /* \"#utility.yul\":4366:4485   */\n      iszero\n      tag_358\n      jumpi\n        /* \"#utility.yul\":4404:4483   */\n      tag_359\n      tag_257\n      jump\t// in\n    tag_359:\n        /* \"#utility.yul\":4366:4485   */\n    tag_358:\n        /* \"#utility.yul\":4524:4525   */\n      0x00\n        /* \"#utility.yul\":4549:4602   */\n      tag_360\n        /* \"#utility.yul\":4594:4601   */\n      dup7\n        /* \"#utility.yul\":4585:4591   */\n      dup3\n        /* \"#utility.yul\":4574:4583   */\n      dup8\n        /* \"#utility.yul\":4570:4592   */\n      add\n        /* \"#utility.yul\":4549:4602   */\n      tag_275\n      jump\t// in\n    tag_360:\n        /* \"#utility.yul\":4539:4602   */\n      swap4\n      pop\n        /* \"#utility.yul\":4495:4612   */\n      pop\n        /* \"#utility.yul\":4651:4653   */\n      0x20\n        /* \"#utility.yul\":4677:4730   */\n      tag_361\n        /* \"#utility.yul\":4722:4729   */\n      dup7\n        /* \"#utility.yul\":4713:4719   */\n      dup3\n        /* \"#utility.yul\":4702:4711   */\n      dup8\n        /* \"#utility.yul\":4698:4720   */\n      add\n        /* \"#utility.yul\":4677:4730   */\n      tag_275\n      jump\t// in\n    tag_361:\n        /* \"#utility.yul\":4667:4730   */\n      swap3\n      pop\n        /* \"#utility.yul\":4622:4740   */\n      pop\n        /* \"#utility.yul\":4779:4781   */\n      0x40\n        /* \"#utility.yul\":4805:4858   */\n      tag_362\n        /* \"#utility.yul\":4850:4857   */\n      dup7\n        /* \"#utility.yul\":4841:4847   */\n      dup3\n        /* \"#utility.yul\":4830:4839   */\n      dup8\n        /* \"#utility.yul\":4826:4848   */\n      add\n        /* \"#utility.yul\":4805:4858   */\n      tag_275\n      jump\t// in\n    tag_362:\n        /* \"#utility.yul\":4795:4858   */\n      swap2\n      pop\n        /* \"#utility.yul\":4750:4868   */\n      pop\n        /* \"#utility.yul\":4256:4875   */\n      swap3\n      pop\n      swap3\n      pop\n      swap3\n      jump\t// out\n        /* \"#utility.yul\":4881:4941   */\n    tag_276:\n        /* \"#utility.yul\":4909:4912   */\n      0x00\n        /* \"#utility.yul\":4930:4935   */\n      dup2\n        /* \"#utility.yul\":4923:4935   */\n      swap1\n      pop\n        /* \"#utility.yul\":4881:4941   */\n      swap2\n      swap1\n      pop\n      jump\t// out\n        /* \"#utility.yul\":4947:5089   */\n    tag_277:\n        /* \"#utility.yul\":4997:5006   */\n      0x00\n        /* \"#utility.yul\":5030:5083   */\n      tag_365\n        /* \"#utility.yul\":5048:5082   */\n      tag_366\n        /* \"#utility.yul\":5057:5081   */\n      tag_367\n        /* \"#utility.yul\":5075:5080   */\n      dup5\n        /* \"#utility.yul\":5057:5081   */\n      tag_268\n      jump\t// in\n    tag_367:\n        /* \"#utility.yul\":5048:5082   */\n      tag_276\n      jump\t// in\n    tag_366:\n        /* \"#utility.yul\":5030:5083   */\n      tag_268\n      jump\t// in\n    tag_365:\n        /* \"#utility.yul\":5017:5083   */\n      swap1\n      pop\n        /* \"#utility.yul\":4947:5089   */\n      swap2\n      swap1\n      pop\n      jump\t// out\n        /* \"#utility.yul\":5095:5221   */\n    tag_278:\n        /* \"#utility.yul\":5145:5154   */\n      0x00\n        /* \"#utility.yul\":5178:5215   */\n      tag_369\n        /* \"#utility.yul\":5209:5214   */\n      dup3\n        /* \"#utility.yul\":5178:5215   */\n      tag_277\n      jump\t// in\n    tag_369:\n        /* \"#utility.yul\":5165:5215   */\n      swap1\n      pop\n        /* \"#utility.yul\":5095:5221   */\n      swap2\n      swap1\n      pop\n      jump\t// out\n        /* \"#utility.yul\":5227:5374   */\n    tag_279:\n        /* \"#utility.yul\":5298:5307   */\n      0x00\n        /* \"#utility.yul\":5331:5368   */\n      tag_371\n        /* \"#utility.yul\":5362:5367   */\n      dup3\n        /* \"#utility.yul\":5331:5368   */\n      tag_278\n      jump\t// in\n    tag_371:\n        /* \"#utility.yul\":5318:5368   */\n      swap1\n      pop\n        /* \"#utility.yul\":5227:5374   */\n      swap2\n      swap1\n      pop\n      jump\t// out\n        /* \"#utility.yul\":5380:5553   */\n    tag_280:\n        /* \"#utility.yul\":5488:5546   */\n      tag_373\n        /* \"#utility.yul\":5540:5545   */\n      dup2\n        /* \"#utility.yul\":5488:5546   */\n      tag_279\n      jump\t// in\n    tag_373:\n        /* \"#utility.yul\":5483:5486   */\n      dup3\n        /* \"#utility.yul\":5476:5547   */\n      mstore\n        /* \"#utility.yul\":5380:5553   */\n      pop\n      pop\n      jump\t// out\n        /* \"#utility.yul\":5559:5823   */\n    tag_60:\n        /* \"#utility.yul\":5673:5677   */\n      0x00\n        /* \"#utility.yul\":5711:5713   */\n      0x20\n        /* \"#utility.yul\":5700:5709   */\n      dup3\n        /* \"#utility.yul\":5696:5714   */\n      add\n        /* \"#utility.yul\":5688:5714   */\n      swap1\n      pop\n        /* \"#utility.yul\":5724:5816   */\n      tag_375\n        /* \"#utility.yul\":5813:5814   */\n      0x00\n        /* \"#utility.yul\":5802:5811   */\n      dup4\n        /* \"#utility.yul\":5798:5815   */\n      add\n        /* \"#utility.yul\":5789:5795   */\n      dup5\n        /* \"#utility.yul\":5724:5816   */\n      tag_280\n      jump\t// in\n    tag_375:\n        /* \"#utility.yul\":5559:5823   */\n      swap3\n      swap2\n      pop\n      pop\n      jump\t// out\n        /* \"#utility.yul\":5829:6303   */\n    tag_63:\n        /* \"#utility.yul\":5897:5903   */\n      0x00\n        /* \"#utility.yul\":5905:5911   */\n      0x00\n        /* \"#utility.yul\":5954:5956   */\n      0x40\n        /* \"#utility.yul\":5942:5951   */\n      dup4\n        /* \"#utility.yul\":5933:5940   */\n      dup6\n        /* \"#utility.yul\":5929:5952   */\n      sub\n        /* \"#utility.yul\":5925:5957   */\n      slt\n        /* \"#utility.yul\":5922:6041   */\n      iszero\n      tag_377\n      jumpi\n        /* \"#utility.yul\":5960:6039   */\n      tag_378\n      tag_257\n      jump\t// in\n    tag_378:\n        /* \"#utility.yul\":5922:6041   */\n    tag_377:\n        /* \"#utility.yul\":6080:6081   */\n      0x00\n        /* \"#utility.yul\":6105:6158   */\n      tag_379\n        /* \"#utility.yul\":6150:6157   */\n      dup6\n        /* \"#utility.yul\":6141:6147   */\n      dup3\n        /* \"#utility.yul\":6130:6139   */\n      dup7\n        /* \"#utility.yul\":6126:6148   */\n      add\n        /* \"#utility.yul\":6105:6158   */\n      tag_275\n      jump\t// in\n    tag_379:\n        /* \"#utility.yul\":6095:6158   */\n      swap3\n      pop\n        /* \"#utility.yul\":6051:6168   */\n      pop\n        /* \"#utility.yul\":6207:6209   */\n      0x20\n        /* \"#utility.yul\":6233:6286   */\n      tag_380\n        /* \"#utility.yul\":6278:6285   */\n      dup6\n        /* \"#utility.yul\":6269:6275   */\n      dup3\n        /* \"#utility.yul\":6258:6267   */\n      dup7\n        /* \"#utility.yul\":6254:6276   */\n      add\n        /* \"#utility.yul\":6233:6286   */\n      tag_271\n      jump\t// in\n    tag_380:\n        /* \"#utility.yul\":6223:6286   */\n      swap2\n      pop\n        /* \"#utility.yul\":6178:6296   */\n      pop\n        /* \"#utility.yul\":5829:6303   */\n      swap3\n      pop\n      swap3\n      swap1\n      pop\n      jump\t// out\n        /* \"#utility.yul\":6309:6427   */\n    tag_281:\n        /* \"#utility.yul\":6396:6420   */\n      tag_382\n        /* \"#utility.yul\":6414:6419   */\n      dup2\n        /* \"#utility.yul\":6396:6420   */\n      tag_273\n      jump\t// in\n    tag_382:\n        /* \"#utility.yul\":6391:6394   */\n      dup3\n        /* \"#utility.yul\":6384:6421   */\n      mstore\n        /* \"#utility.yul\":6309:6427   */\n      pop\n      pop\n      jump\t// out\n        /* \"#utility.yul\":6433:6655   */\n    tag_66:\n        /* \"#utility.yul\":6526:6530   */\n      0x00\n        /* \"#utility.yul\":6564:6566   */\n      0x20\n        /* \"#utility.yul\":6553:6562   */\n      dup3\n        /* \"#utility.yul\":6549:6567   */\n      add\n        /* \"#utility.yul\":6541:6567   */\n      swap1\n      pop\n        /* \"#utility.yul\":6577:6648   */\n      tag_384\n        /* \"#utility.yul\":6645:6646   */\n      0x00\n        /* \"#utility.yul\":6634:6643   */\n      dup4\n        /* \"#utility.yul\":6630:6647   */\n      add\n        /* \"#utility.yul\":6621:6627   */\n      dup5\n        /* \"#utility.yul\":6577:6648   */\n      tag_281\n      jump\t// in\n    tag_384:\n        /* \"#utility.yul\":6433:6655   */\n      swap3\n      swap2\n      pop\n      pop\n      jump\t// out\n        /* \"#utility.yul\":6661:6990   */\n    tag_83:\n        /* \"#utility.yul\":6720:6726   */\n      0x00\n        /* \"#utility.yul\":6769:6771   */\n      0x20\n        /* \"#utility.yul\":6757:6766   */\n      dup3\n        /* \"#utility.yul\":6748:6755   */\n      dup5\n        /* \"#utility.yul\":6744:6767   */\n      sub\n        /* \"#utility.yul\":6740:6772   */\n      slt\n        /* \"#utility.yul\":6737:6856   */\n      iszero\n      tag_386\n      jumpi\n        /* \"#utility.yul\":6775:6854   */\n      tag_387\n      tag_257\n      jump\t// in\n    tag_387:\n        /* \"#utility.yul\":6737:6856   */\n    tag_386:\n        /* \"#utility.yul\":6895:6896   */\n      0x00\n        /* \"#utility.yul\":6920:6973   */\n      tag_388\n        /* \"#utility.yul\":6965:6972   */\n      dup5\n        /* \"#utility.yul\":6956:6962   */\n      dup3\n        /* \"#utility.yul\":6945:6954   */\n      dup6\n        /* \"#utility.yul\":6941:6963   */\n      add\n        /* \"#utility.yul\":6920:6973   */\n      tag_275\n      jump\t// in\n    tag_388:\n        /* \"#utility.yul\":6910:6973   */\n      swap2\n      pop\n        /* \"#utility.yul\":6866:6983   */\n      pop\n        /* \"#utility.yul\":6661:6990   */\n      swap3\n      swap2\n      pop\n      pop\n      jump\t// out\n        /* \"#utility.yul\":6996:7325   */\n    tag_103:\n        /* \"#utility.yul\":7055:7061   */\n      0x00\n        /* \"#utility.yul\":7104:7106   */\n      0x20\n        /* \"#utility.yul\":7092:7101   */\n      dup3\n        /* \"#utility.yul\":7083:7090   */\n      dup5\n        /* \"#utility.yul\":7079:7102   */\n      sub\n        /* \"#utility.yul\":7075:7107   */\n      slt\n        /* \"#utility.yul\":7072:7191   */\n      iszero\n      tag_390\n      jumpi\n        /* \"#utility.yul\":7110:7189   */\n      tag_391\n      tag_257\n      jump\t// in\n    tag_391:\n        /* \"#utility.yul\":7072:7191   */\n    tag_390:\n        /* \"#utility.yul\":7230:7231   */\n      0x00\n        /* \"#utility.yul\":7255:7308   */\n      tag_392\n        /* \"#utility.yul\":7300:7307   */\n      dup5\n        /* \"#utility.yul\":7291:7297   */\n      dup3\n        /* \"#utility.yul\":7280:7289   */\n      dup6\n        /* \"#utility.yul\":7276:7298   */\n      add\n        /* \"#utility.yul\":7255:7308   */\n      tag_271\n      jump\t// in\n    tag_392:\n        /* \"#utility.yul\":7245:7308   */\n      swap2\n      pop\n        /* \"#utility.yul\":7201:7318   */\n      pop\n        /* \"#utility.yul\":6996:7325   */\n      swap3\n      swap2\n      pop\n      pop\n      jump\t// out\n        /* \"#utility.yul\":7331:7761   */\n    tag_109:\n        /* \"#utility.yul\":7474:7478   */\n      0x00\n        /* \"#utility.yul\":7512:7514   */\n      0x60\n        /* \"#utility.yul\":7501:7510   */\n      dup3\n        /* \"#utility.yul\":7497:7515   */\n      add\n        /* \"#utility.yul\":7489:7515   */\n      swap1\n      pop\n        /* \"#utility.yul\":7525:7596   */\n      tag_394\n        /* \"#utility.yul\":7593:7594   */\n      0x00\n        /* \"#utility.yul\":7582:7591   */\n      dup4\n        /* \"#utility.yul\":7578:7595   */\n      add\n        /* \"#utility.yul\":7569:7575   */\n      dup7\n        /* \"#utility.yul\":7525:7596   */\n      tag_281\n      jump\t// in\n    tag_394:\n        /* \"#utility.yul\":7606:7678   */\n      tag_395\n        /* \"#utility.yul\":7674:7676   */\n      0x20\n        /* \"#utility.yul\":7663:7672   */\n      dup4\n        /* \"#utility.yul\":7659:7677   */\n      add\n        /* \"#utility.yul\":7650:7656   */\n      dup6\n        /* \"#utility.yul\":7606:7678   */\n      tag_281\n      jump\t// in\n    tag_395:\n        /* \"#utility.yul\":7688:7754   */\n      tag_396\n        /* \"#utility.yul\":7750:7752   */\n      0x40\n        /* \"#utility.yul\":7739:7748   */\n      dup4\n        /* \"#utility.yul\":7735:7753   */\n      add\n        /* \"#utility.yul\":7726:7732   */\n      dup5\n        /* \"#utility.yul\":7688:7754   */\n      tag_263\n      jump\t// in\n    tag_396:\n        /* \"#utility.yul\":7331:7761   */\n      swap5\n      swap4\n      pop\n      pop\n      pop\n      pop\n      jump\t// out\n        /* \"#utility.yul\":7767:7936   */\n    tag_282:\n        /* \"#utility.yul\":7851:7862   */\n      0x00\n        /* \"#utility.yul\":7885:7891   */\n      dup3\n        /* \"#utility.yul\":7880:7883   */\n      dup3\n        /* \"#utility.yul\":7873:7892   */\n      mstore\n        /* \"#utility.yul\":7925:7929   */\n      0x20\n        /* \"#utility.yul\":7920:7923   */\n      dup3\n        /* \"#utility.yul\":7916:7930   */\n      add\n        /* \"#utility.yul\":7901:7930   */\n      swap1\n      pop\n        /* \"#utility.yul\":7767:7936   */\n      swap3\n      swap2\n      pop\n      pop\n      jump\t// out\n        /* \"#utility.yul\":7942:8108   */\n    tag_283:\n        /* \"#utility.yul\":8082:8100   */\n      0x506c61796572206e6f7420666f756e6400000000000000000000000000000000\n        /* \"#utility.yul\":8078:8079   */\n      0x00\n        /* \"#utility.yul\":8070:8076   */\n      dup3\n        /* \"#utility.yul\":8066:8080   */\n      add\n        /* \"#utility.yul\":8059:8101   */\n      mstore\n        /* \"#utility.yul\":7942:8108   */\n      pop\n      jump\t// out\n        /* \"#utility.yul\":8114:8480   */\n    tag_284:\n        /* \"#utility.yul\":8256:8259   */\n      0x00\n        /* \"#utility.yul\":8277:8344   */\n      tag_400\n        /* \"#utility.yul\":8341:8343   */\n      0x10\n        /* \"#utility.yul\":8336:8339   */\n      dup4\n        /* \"#utility.yul\":8277:8344   */\n      tag_282\n      jump\t// in\n    tag_400:\n        /* \"#utility.yul\":8270:8344   */\n      swap2\n      pop\n        /* \"#utility.yul\":8353:8446   */\n      tag_401\n        /* \"#utility.yul\":8442:8445   */\n      dup3\n        /* \"#utility.yul\":8353:8446   */\n      tag_283\n      jump\t// in\n    tag_401:\n        /* \"#utility.yul\":8471:8473   */\n      0x20\n        /* \"#utility.yul\":8466:8469   */\n      dup3\n        /* \"#utility.yul\":8462:8474   */\n      add\n        /* \"#utility.yul\":8455:8474   */\n      swap1\n      pop\n        /* \"#utility.yul\":8114:8480   */\n      swap2\n      swap1\n      pop\n      jump\t// out\n        /* \"#utility.yul\":8486:8905   */\n    tag_134:\n        /* \"#utility.yul\":8652:8656   */\n      0x00\n        /* \"#utility.yul\":8690:8692   */\n      0x20\n        /* \"#utility.yul\":8679:8688   */\n      dup3\n        /* \"#utility.yul\":8675:8693   */\n      add\n        /* \"#utility.yul\":8667:8693   */\n      swap1\n      pop\n        /* \"#utility.yul\":8739:8748   */\n      dup2\n        /* \"#utility.yul\":8733:8737   */\n      dup2\n        /* \"#utility.yul\":8729:8749   */\n      sub\n        /* \"#utility.yul\":8725:8726   */\n      0x00\n        /* \"#utility.yul\":8714:8723   */\n      dup4\n        /* \"#utility.yul\":8710:8727   */\n      add\n        /* \"#utility.yul\":8703:8750   */\n      mstore\n        /* \"#utility.yul\":8767:8898   */\n      tag_403\n        /* \"#utility.yul\":8893:8897   */\n      dup2\n        /* \"#utility.yul\":8767:8898   */\n      tag_284\n      jump\t// in\n    tag_403:\n        /* \"#utility.yul\":8759:8898   */\n      swap1\n      pop\n        /* \"#utility.yul\":8486:8905   */\n      swap2\n      swap1\n      pop\n      jump\t// out\n        /* \"#utility.yul\":8911:9069   */\n    tag_285:\n        /* \"#utility.yul\":9051:9061   */\n      0x5a65726f2046544b000000000000000000000000000000000000000000000000\n        /* \"#utility.yul\":9047:9048   */\n      0x00\n        /* \"#utility.yul\":9039:9045   */\n      dup3\n        /* \"#utility.yul\":9035:9049   */\n      add\n        /* \"#utility.yul\":9028:9062   */\n      mstore\n        /* \"#utility.yul\":8911:9069   */\n      pop\n      jump\t// out\n        /* \"#utility.yul\":9075:9440   */\n    tag_286:\n        /* \"#utility.yul\":9217:9220   */\n      0x00\n        /* \"#utility.yul\":9238:9304   */\n      tag_406\n        /* \"#utility.yul\":9302:9303   */\n      0x08\n        /* \"#utility.yul\":9297:9300   */\n      dup4\n        /* \"#utility.yul\":9238:9304   */\n      tag_282\n      jump\t// in\n    tag_406:\n        /* \"#utility.yul\":9231:9304   */\n      swap2\n      pop\n        /* \"#utility.yul\":9313:9406   */\n      tag_407\n        /* \"#utility.yul\":9402:9405   */\n      dup3\n        /* \"#utility.yul\":9313:9406   */\n      tag_285\n      jump\t// in\n    tag_407:\n        /* \"#utility.yul\":9431:9433   */\n      0x20\n        /* \"#utility.yul\":9426:9429   */\n      dup3\n        /* \"#utility.yul\":9422:9434   */\n      add\n        /* \"#utility.yul\":9415:9434   */\n      swap1\n      pop\n        /* \"#utility.yul\":9075:9440   */\n      swap2\n      swap1\n      pop\n      jump\t// out\n        /* \"#utility.yul\":9446:9865   */\n    tag_137:\n        /* \"#utility.yul\":9612:9616   */\n      0x00\n        /* \"#utility.yul\":9650:9652   */\n      0x20\n        /* \"#utility.yul\":9639:9648   */\n      dup3\n        /* \"#utility.yul\":9635:9653   */\n      add\n        /* \"#utility.yul\":9627:9653   */\n      swap1\n      pop\n        /* \"#utility.yul\":9699:9708   */\n      dup2\n        /* \"#utility.yul\":9693:9697   */\n      dup2\n        /* \"#utility.yul\":9689:9709   */\n      sub\n        /* \"#utility.yul\":9685:9686   */\n      0x00\n        /* \"#utility.yul\":9674:9683   */\n      dup4\n        /* \"#utility.yul\":9670:9687   */\n      add\n        /* \"#utility.yul\":9663:9710   */\n      mstore\n        /* \"#utility.yul\":9727:9858   */\n      tag_409\n        /* \"#utility.yul\":9853:9857   */\n      dup2\n        /* \"#utility.yul\":9727:9858   */\n      tag_286\n      jump\t// in\n    tag_409:\n        /* \"#utility.yul\":9719:9858   */\n      swap1\n      pop\n        /* \"#utility.yul\":9446:9865   */\n      swap2\n      swap1\n      pop\n      jump\t// out\n        /* \"#utility.yul\":9871:10313   */\n    tag_139:\n        /* \"#utility.yul\":10020:10024   */\n      0x00\n        /* \"#utility.yul\":10058:10060   */\n      0x60\n        /* \"#utility.yul\":10047:10056   */\n      dup3\n        /* \"#utility.yul\":10043:10061   */\n      add\n        /* \"#utility.yul\":10035:10061   */\n      swap1\n      pop\n        /* \"#utility.yul\":10071:10142   */\n      tag_411\n        /* \"#utility.yul\":10139:10140   */\n      0x00\n        /* \"#utility.yul\":10128:10137   */\n      dup4\n        /* \"#utility.yul\":10124:10141   */\n      add\n        /* \"#utility.yul\":10115:10121   */\n      dup7\n        /* \"#utility.yul\":10071:10142   */\n      tag_272\n      jump\t// in\n    tag_411:\n        /* \"#utility.yul\":10152:10224   */\n      tag_412\n        /* \"#utility.yul\":10220:10222   */\n      0x20\n        /* \"#utility.yul\":10209:10218   */\n      dup4\n        /* \"#utility.yul\":10205:10223   */\n      add\n        /* \"#utility.yul\":10196:10202   */\n      dup6\n        /* \"#utility.yul\":10152:10224   */\n      tag_272\n      jump\t// in\n    tag_412:\n        /* \"#utility.yul\":10234:10306   */\n      tag_413\n        /* \"#utility.yul\":10302:10304   */\n      0x40\n        /* \"#utility.yul\":10291:10300   */\n      dup4\n        /* \"#utility.yul\":10287:10305   */\n      add\n        /* \"#utility.yul\":10278:10284   */\n      dup5\n        /* \"#utility.yul\":10234:10306   */\n      tag_281\n      jump\t// in\n    tag_413:\n        /* \"#utility.yul\":9871:10313   */\n      swap5\n      swap4\n      pop\n      pop\n      pop\n      pop\n      jump\t// out\n        /* \"#utility.yul\":10319:10435   */\n    tag_287:\n        /* \"#utility.yul\":10389:10410   */\n      tag_415\n        /* \"#utility.yul\":10404:10409   */\n      dup2\n        /* \"#utility.yul\":10389:10410   */\n      tag_262\n      jump\t// in\n    tag_415:\n        /* \"#utility.yul\":10382:10387   */\n      dup2\n        /* \"#utility.yul\":10379:10411   */\n      eq\n        /* \"#utility.yul\":10369:10429   */\n      tag_416\n      jumpi\n        /* \"#utility.yul\":10425:10426   */\n      0x00\n        /* \"#utility.yul\":10422:10423   */\n      0x00\n        /* \"#utility.yul\":10415:10427   */\n      revert\n        /* \"#utility.yul\":10369:10429   */\n    tag_416:\n        /* \"#utility.yul\":10319:10435   */\n      pop\n      jump\t// out\n        /* \"#utility.yul\":10441:10578   */\n    tag_288:\n        /* \"#utility.yul\":10495:10500   */\n      0x00\n        /* \"#utility.yul\":10526:10532   */\n      dup2\n        /* \"#utility.yul\":10520:10533   */\n      mload\n        /* \"#utility.yul\":10511:10533   */\n      swap1\n      pop\n        /* \"#utility.yul\":10542:10572   */\n      tag_418\n        /* \"#utility.yul\":10566:10571   */\n      dup2\n        /* \"#utility.yul\":10542:10572   */\n      tag_287\n      jump\t// in\n    tag_418:\n        /* \"#utility.yul\":10441:10578   */\n      swap3\n      swap2\n      pop\n      pop\n      jump\t// out\n        /* \"#utility.yul\":10584:10929   */\n    tag_143:\n        /* \"#utility.yul\":10651:10657   */\n      0x00\n        /* \"#utility.yul\":10700:10702   */\n      0x20\n        /* \"#utility.yul\":10688:10697   */\n      dup3\n        /* \"#utility.yul\":10679:10686   */\n      dup5\n        /* \"#utility.yul\":10675:10698   */\n      sub\n        /* \"#utility.yul\":10671:10703   */\n      slt\n        /* \"#utility.yul\":10668:10787   */\n      iszero\n      tag_420\n      jumpi\n        /* \"#utility.yul\":10706:10785   */\n      tag_421\n      tag_257\n      jump\t// in\n    tag_421:\n        /* \"#utility.yul\":10668:10787   */\n    tag_420:\n        /* \"#utility.yul\":10826:10827   */\n      0x00\n        /* \"#utility.yul\":10851:10912   */\n      tag_422\n        /* \"#utility.yul\":10904:10911   */\n      dup5\n        /* \"#utility.yul\":10895:10901   */\n      dup3\n        /* \"#utility.yul\":10884:10893   */\n      dup6\n        /* \"#utility.yul\":10880:10902   */\n      add\n        /* \"#utility.yul\":10851:10912   */\n      tag_288\n      jump\t// in\n    tag_422:\n        /* \"#utility.yul\":10841:10912   */\n      swap2\n      pop\n        /* \"#utility.yul\":10797:10922   */\n      pop\n        /* \"#utility.yul\":10584:10929   */\n      swap3\n      swap2\n      pop\n      pop\n      jump\t// out\n        /* \"#utility.yul\":10935:11115   */\n    tag_289:\n        /* \"#utility.yul\":10983:11060   */\n      0x4e487b7100000000000000000000000000000000000000000000000000000000\n        /* \"#utility.yul\":10980:10981   */\n      0x00\n        /* \"#utility.yul\":10973:11061   */\n      mstore\n        /* \"#utility.yul\":11080:11084   */\n      0x11\n        /* \"#utility.yul\":11077:11078   */\n      0x04\n        /* \"#utility.yul\":11070:11085   */\n      mstore\n        /* \"#utility.yul\":11104:11108   */\n      0x24\n        /* \"#utility.yul\":11101:11102   */\n      0x00\n        /* \"#utility.yul\":11094:11109   */\n      revert\n        /* \"#utility.yul\":11121:11531   */\n    tag_145:\n        /* \"#utility.yul\":11161:11168   */\n      0x00\n        /* \"#utility.yul\":11184:11204   */\n      tag_425\n        /* \"#utility.yul\":11202:11203   */\n      dup3\n        /* \"#utility.yul\":11184:11204   */\n      tag_273\n      jump\t// in\n    tag_425:\n        /* \"#utility.yul\":11179:11204   */\n      swap2\n      pop\n        /* \"#utility.yul\":11218:11238   */\n      tag_426\n        /* \"#utility.yul\":11236:11237   */\n      dup4\n        /* \"#utility.yul\":11218:11238   */\n      tag_273\n      jump\t// in\n    tag_426:\n        /* \"#utility.yul\":11213:11238   */\n      swap3\n      pop\n        /* \"#utility.yul\":11273:11274   */\n      dup3\n        /* \"#utility.yul\":11270:11271   */\n      dup3\n        /* \"#utility.yul\":11266:11275   */\n      mul\n        /* \"#utility.yul\":11295:11325   */\n      tag_427\n        /* \"#utility.yul\":11313:11324   */\n      dup2\n        /* \"#utility.yul\":11295:11325   */\n      tag_273\n      jump\t// in\n    tag_427:\n        /* \"#utility.yul\":11284:11325   */\n      swap2\n      pop\n        /* \"#utility.yul\":11474:11475   */\n      dup3\n        /* \"#utility.yul\":11465:11472   */\n      dup3\n        /* \"#utility.yul\":11461:11476   */\n      div\n        /* \"#utility.yul\":11458:11459   */\n      dup5\n        /* \"#utility.yul\":11455:11477   */\n      eq\n        /* \"#utility.yul\":11435:11436   */\n      dup4\n        /* \"#utility.yul\":11428:11437   */\n      iszero\n        /* \"#utility.yul\":11408:11491   */\n      or\n        /* \"#utility.yul\":11385:11524   */\n      tag_428\n      jumpi\n        /* \"#utility.yul\":11504:11522   */\n      tag_429\n      tag_289\n      jump\t// in\n    tag_429:\n        /* \"#utility.yul\":11385:11524   */\n    tag_428:\n        /* \"#utility.yul\":11169:11531   */\n      pop\n        /* \"#utility.yul\":11121:11531   */\n      swap3\n      swap2\n      pop\n      pop\n      jump\t// out\n        /* \"#utility.yul\":11537:11717   */\n    tag_290:\n        /* \"#utility.yul\":11585:11662   */\n      0x4e487b7100000000000000000000000000000000000000000000000000000000\n        /* \"#utility.yul\":11582:11583   */\n      0x00\n        /* \"#utility.yul\":11575:11663   */\n      mstore\n        /* \"#utility.yul\":11682:11686   */\n      0x12\n        /* \"#utility.yul\":11679:11680   */\n      0x04\n        /* \"#utility.yul\":11672:11687   */\n      mstore\n        /* \"#utility.yul\":11706:11710   */\n      0x24\n        /* \"#utility.yul\":11703:11704   */\n      0x00\n        /* \"#utility.yul\":11696:11711   */\n      revert\n        /* \"#utility.yul\":11723:11908   */\n    tag_147:\n        /* \"#utility.yul\":11763:11764   */\n      0x00\n        /* \"#utility.yul\":11780:11800   */\n      tag_432\n        /* \"#utility.yul\":11798:11799   */\n      dup3\n        /* \"#utility.yul\":11780:11800   */\n      tag_273\n      jump\t// in\n    tag_432:\n        /* \"#utility.yul\":11775:11800   */\n      swap2\n      pop\n        /* \"#utility.yul\":11814:11834   */\n      tag_433\n        /* \"#utility.yul\":11832:11833   */\n      dup4\n        /* \"#utility.yul\":11814:11834   */\n      tag_273\n      jump\t// in\n    tag_433:\n        /* \"#utility.yul\":11809:11834   */\n      swap3\n      pop\n        /* \"#utility.yul\":11853:11854   */\n      dup3\n        /* \"#utility.yul\":11843:11878   */\n      tag_434\n      jumpi\n        /* \"#utility.yul\":11858:11876   */\n      tag_435\n      tag_290\n      jump\t// in\n    tag_435:\n        /* \"#utility.yul\":11843:11878   */\n    tag_434:\n        /* \"#utility.yul\":11900:11901   */\n      dup3\n        /* \"#utility.yul\":11897:11898   */\n      dup3\n        /* \"#utility.yul\":11893:11902   */\n      div\n        /* \"#utility.yul\":11888:11902   */\n      swap1\n      pop\n        /* \"#utility.yul\":11723:11908   */\n      swap3\n      swap2\n      pop\n      pop\n      jump\t// out\n        /* \"#utility.yul\":11914:12108   */\n    tag_149:\n        /* \"#utility.yul\":11954:11958   */\n      0x00\n        /* \"#utility.yul\":11974:11994   */\n      tag_437\n        /* \"#utility.yul\":11992:11993   */\n      dup3\n        /* \"#utility.yul\":11974:11994   */\n      tag_273\n      jump\t// in\n    tag_437:\n        /* \"#utility.yul\":11969:11994   */\n      swap2\n      pop\n        /* \"#utility.yul\":12008:12028   */\n      tag_438\n        /* \"#utility.yul\":12026:12027   */\n      dup4\n        /* \"#utility.yul\":12008:12028   */\n      tag_273\n      jump\t// in\n    tag_438:\n        /* \"#utility.yul\":12003:12028   */\n      swap3\n      pop\n        /* \"#utility.yul\":12052:12053   */\n      dup3\n        /* \"#utility.yul\":12049:12050   */\n      dup3\n        /* \"#utility.yul\":12045:12054   */\n      sub\n        /* \"#utility.yul\":12037:12054   */\n      swap1\n      pop\n        /* \"#utility.yul\":12076:12077   */\n      dup2\n        /* \"#utility.yul\":12070:12074   */\n      dup2\n        /* \"#utility.yul\":12067:12078   */\n      gt\n        /* \"#utility.yul\":12064:12101   */\n      iszero\n      tag_439\n      jumpi\n        /* \"#utility.yul\":12081:12099   */\n      tag_440\n      tag_289\n      jump\t// in\n    tag_440:\n        /* \"#utility.yul\":12064:12101   */\n    tag_439:\n        /* \"#utility.yul\":11914:12108   */\n      swap3\n      swap2\n      pop\n      pop\n      jump\t// out\n        /* \"#utility.yul\":12114:12446   */\n    tag_152:\n        /* \"#utility.yul\":12235:12239   */\n      0x00\n        /* \"#utility.yul\":12273:12275   */\n      0x40\n        /* \"#utility.yul\":12262:12271   */\n      dup3\n        /* \"#utility.yul\":12258:12276   */\n      add\n        /* \"#utility.yul\":12250:12276   */\n      swap1\n      pop\n        /* \"#utility.yul\":12286:12357   */\n      tag_442\n        /* \"#utility.yul\":12354:12355   */\n      0x00\n        /* \"#utility.yul\":12343:12352   */\n      dup4\n        /* \"#utility.yul\":12339:12356   */\n      add\n        /* \"#utility.yul\":12330:12336   */\n      dup6\n        /* \"#utility.yul\":12286:12357   */\n      tag_272\n      jump\t// in\n    tag_442:\n        /* \"#utility.yul\":12367:12439   */\n      tag_443\n        /* \"#utility.yul\":12435:12437   */\n      0x20\n        /* \"#utility.yul\":12424:12433   */\n      dup4\n        /* \"#utility.yul\":12420:12438   */\n      add\n        /* \"#utility.yul\":12411:12417   */\n      dup5\n        /* \"#utility.yul\":12367:12439   */\n      tag_281\n      jump\t// in\n    tag_443:\n        /* \"#utility.yul\":12114:12446   */\n      swap4\n      swap3\n      pop\n      pop\n      pop\n      jump\t// out\n        /* \"#utility.yul\":12452:12619   */\n    tag_291:\n        /* \"#utility.yul\":12592:12611   */\n      0x536c697070616765206578636565646564000000000000000000000000000000\n        /* \"#utility.yul\":12588:12589   */\n      0x00\n        /* \"#utility.yul\":12580:12586   */\n      dup3\n        /* \"#utility.yul\":12576:12590   */\n      add\n        /* \"#utility.yul\":12569:12612   */\n      mstore\n        /* \"#utility.yul\":12452:12619   */\n      pop\n      jump\t// out\n        /* \"#utility.yul\":12625:12991   */\n    tag_292:\n        /* \"#utility.yul\":12767:12770   */\n      0x00\n        /* \"#utility.yul\":12788:12855   */\n      tag_446\n        /* \"#utility.yul\":12852:12854   */\n      0x11\n        /* \"#utility.yul\":12847:12850   */\n      dup4\n        /* \"#utility.yul\":12788:12855   */\n      tag_282\n      jump\t// in\n    tag_446:\n        /* \"#utility.yul\":12781:12855   */\n      swap2\n      pop\n        /* \"#utility.yul\":12864:12957   */\n      tag_447\n        /* \"#utility.yul\":12953:12956   */\n      dup3\n        /* \"#utility.yul\":12864:12957   */\n      tag_291\n      jump\t// in\n    tag_447:\n        /* \"#utility.yul\":12982:12984   */\n      0x20\n        /* \"#utility.yul\":12977:12980   */\n      dup3\n        /* \"#utility.yul\":12973:12985   */\n      add\n        /* \"#utility.yul\":12966:12985   */\n      swap1\n      pop\n        /* \"#utility.yul\":12625:12991   */\n      swap2\n      swap1\n      pop\n      jump\t// out\n        /* \"#utility.yul\":12997:13416   */\n    tag_162:\n        /* \"#utility.yul\":13163:13167   */\n      0x00\n        /* \"#utility.yul\":13201:13203   */\n      0x20\n        /* \"#utility.yul\":13190:13199   */\n      dup3\n        /* \"#utility.yul\":13186:13204   */\n      add\n        /* \"#utility.yul\":13178:13204   */\n      swap1\n      pop\n        /* \"#utility.yul\":13250:13259   */\n      dup2\n        /* \"#utility.yul\":13244:13248   */\n      dup2\n        /* \"#utility.yul\":13240:13260   */\n      sub\n        /* \"#utility.yul\":13236:13237   */\n      0x00\n        /* \"#utility.yul\":13225:13234   */\n      dup4\n        /* \"#utility.yul\":13221:13238   */\n      add\n        /* \"#utility.yul\":13214:13261   */\n      mstore\n        /* \"#utility.yul\":13278:13409   */\n      tag_449\n        /* \"#utility.yul\":13404:13408   */\n      dup2\n        /* \"#utility.yul\":13278:13409   */\n      tag_292\n      jump\t// in\n    tag_449:\n        /* \"#utility.yul\":13270:13409   */\n      swap1\n      pop\n        /* \"#utility.yul\":12997:13416   */\n      swap2\n      swap1\n      pop\n      jump\t// out\n        /* \"#utility.yul\":13422:13613   */\n    tag_164:\n        /* \"#utility.yul\":13462:13465   */\n      0x00\n        /* \"#utility.yul\":13481:13501   */\n      tag_451\n        /* \"#utility.yul\":13499:13500   */\n      dup3\n        /* \"#utility.yul\":13481:13501   */\n      tag_273\n      jump\t// in\n    tag_451:\n        /* \"#utility.yul\":13476:13501   */\n      swap2\n      pop\n        /* \"#utility.yul\":13515:13535   */\n      tag_452\n        /* \"#utility.yul\":13533:13534   */\n      dup4\n        /* \"#utility.yul\":13515:13535   */\n      tag_273\n      jump\t// in\n    tag_452:\n        /* \"#utility.yul\":13510:13535   */\n      swap3\n      pop\n        /* \"#utility.yul\":13558:13559   */\n      dup3\n        /* \"#utility.yul\":13555:13556   */\n      dup3\n        /* \"#utility.yul\":13551:13560   */\n      add\n        /* \"#utility.yul\":13544:13560   */\n      swap1\n      pop\n        /* \"#utility.yul\":13579:13582   */\n      dup1\n        /* \"#utility.yul\":13576:13577   */\n      dup3\n        /* \"#utility.yul\":13573:13583   */\n      gt\n        /* \"#utility.yul\":13570:13606   */\n      iszero\n      tag_453\n      jumpi\n        /* \"#utility.yul\":13586:13604   */\n      tag_454\n      tag_289\n      jump\t// in\n    tag_454:\n        /* \"#utility.yul\":13570:13606   */\n    tag_453:\n        /* \"#utility.yul\":13422:13613   */\n      swap3\n      swap2\n      pop\n      pop\n      jump\t// out\n        /* \"#utility.yul\":13619:14172   */\n    tag_168:\n        /* \"#utility.yul\":13796:13800   */\n      0x00\n        /* \"#utility.yul\":13834:13837   */\n      0x80\n        /* \"#utility.yul\":13823:13832   */\n      dup3\n        /* \"#utility.yul\":13819:13838   */\n      add\n        /* \"#utility.yul\":13811:13838   */\n      swap1\n      pop\n        /* \"#utility.yul\":13848:13919   */\n      tag_456\n        /* \"#utility.yul\":13916:13917   */\n      0x00\n        /* \"#utility.yul\":13905:13914   */\n      dup4\n        /* \"#utility.yul\":13901:13918   */\n      add\n        /* \"#utility.yul\":13892:13898   */\n      dup8\n        /* \"#utility.yul\":13848:13919   */\n      tag_281\n      jump\t// in\n    tag_456:\n        /* \"#utility.yul\":13929:14001   */\n      tag_457\n        /* \"#utility.yul\":13997:13999   */\n      0x20\n        /* \"#utility.yul\":13986:13995   */\n      dup4\n        /* \"#utility.yul\":13982:14000   */\n      add\n        /* \"#utility.yul\":13973:13979   */\n      dup7\n        /* \"#utility.yul\":13929:14001   */\n      tag_281\n      jump\t// in\n    tag_457:\n        /* \"#utility.yul\":14011:14083   */\n      tag_458\n        /* \"#utility.yul\":14079:14081   */\n      0x40\n        /* \"#utility.yul\":14068:14077   */\n      dup4\n        /* \"#utility.yul\":14064:14082   */\n      add\n        /* \"#utility.yul\":14055:14061   */\n      dup6\n        /* \"#utility.yul\":14011:14083   */\n      tag_281\n      jump\t// in\n    tag_458:\n        /* \"#utility.yul\":14093:14165   */\n      tag_459\n        /* \"#utility.yul\":14161:14163   */\n      0x60\n        /* \"#utility.yul\":14150:14159   */\n      dup4\n        /* \"#utility.yul\":14146:14164   */\n      add\n        /* \"#utility.yul\":14137:14143   */\n      dup5\n        /* \"#utility.yul\":14093:14165   */\n      tag_281\n      jump\t// in\n    tag_459:\n        /* \"#utility.yul\":13619:14172   */\n      swap6\n      swap5\n      pop\n      pop\n      pop\n      pop\n      pop\n      jump\t// out\n        /* \"#utility.yul\":14178:14340   */\n    tag_293:\n        /* \"#utility.yul\":14318:14332   */\n      0x46656520746f6f20686967680000000000000000000000000000000000000000\n        /* \"#utility.yul\":14314:14315   */\n      0x00\n        /* \"#utility.yul\":14306:14312   */\n      dup3\n        /* \"#utility.yul\":14302:14316   */\n      add\n        /* \"#utility.yul\":14295:14333   */\n      mstore\n        /* \"#utility.yul\":14178:14340   */\n      pop\n      jump\t// out\n        /* \"#utility.yul\":14346:14712   */\n    tag_294:\n        /* \"#utility.yul\":14488:14491   */\n      0x00\n        /* \"#utility.yul\":14509:14576   */\n      tag_462\n        /* \"#utility.yul\":14573:14575   */\n      0x0c\n        /* \"#utility.yul\":14568:14571   */\n      dup4\n        /* \"#utility.yul\":14509:14576   */\n      tag_282\n      jump\t// in\n    tag_462:\n        /* \"#utility.yul\":14502:14576   */\n      swap2\n      pop\n        /* \"#utility.yul\":14585:14678   */\n      tag_463\n        /* \"#utility.yul\":14674:14677   */\n      dup3\n        /* \"#utility.yul\":14585:14678   */\n      tag_293\n      jump\t// in\n    tag_463:\n        /* \"#utility.yul\":14703:14705   */\n      0x20\n        /* \"#utility.yul\":14698:14701   */\n      dup3\n        /* \"#utility.yul\":14694:14706   */\n      add\n        /* \"#utility.yul\":14687:14706   */\n      swap1\n      pop\n        /* \"#utility.yul\":14346:14712   */\n      swap2\n      swap1\n      pop\n      jump\t// out\n        /* \"#utility.yul\":14718:15137   */\n    tag_178:\n        /* \"#utility.yul\":14884:14888   */\n      0x00\n        /* \"#utility.yul\":14922:14924   */\n      0x20\n        /* \"#utility.yul\":14911:14920   */\n      dup3\n        /* \"#utility.yul\":14907:14925   */\n      add\n        /* \"#utility.yul\":14899:14925   */\n      swap1\n      pop\n        /* \"#utility.yul\":14971:14980   */\n      dup2\n        /* \"#utility.yul\":14965:14969   */\n      dup2\n        /* \"#utility.yul\":14961:14981   */\n      sub\n        /* \"#utility.yul\":14957:14958   */\n      0x00\n        /* \"#utility.yul\":14946:14955   */\n      dup4\n        /* \"#utility.yul\":14942:14959   */\n      add\n        /* \"#utility.yul\":14935:14982   */\n      mstore\n        /* \"#utility.yul\":14999:15130   */\n      tag_465\n        /* \"#utility.yul\":15125:15129   */\n      dup2\n        /* \"#utility.yul\":14999:15130   */\n      tag_294\n      jump\t// in\n    tag_465:\n        /* \"#utility.yul\":14991:15130   */\n      swap1\n      pop\n        /* \"#utility.yul\":14718:15137   */\n      swap2\n      swap1\n      pop\n      jump\t// out\n        /* \"#utility.yul\":15143:15312   */\n    tag_295:\n        /* \"#utility.yul\":15283:15304   */\n      0x496e73756666696369656e742073686172657300000000000000000000000000\n        /* \"#utility.yul\":15279:15280   */\n      0x00\n        /* \"#utility.yul\":15271:15277   */\n      dup3\n        /* \"#utility.yul\":15267:15281   */\n      add\n        /* \"#utility.yul\":15260:15305   */\n      mstore\n        /* \"#utility.yul\":15143:15312   */\n      pop\n      jump\t// out\n        /* \"#utility.yul\":15318:15684   */\n    tag_296:\n        /* \"#utility.yul\":15460:15463   */\n      0x00\n        /* \"#utility.yul\":15481:15548   */\n      tag_468\n        /* \"#utility.yul\":15545:15547   */\n      0x13\n        /* \"#utility.yul\":15540:15543   */\n      dup4\n        /* \"#utility.yul\":15481:15548   */\n      tag_282\n      jump\t// in\n    tag_468:\n        /* \"#utility.yul\":15474:15548   */\n      swap2\n      pop\n        /* \"#utility.yul\":15557:15650   */\n      tag_469\n        /* \"#utility.yul\":15646:15649   */\n      dup3\n        /* \"#utility.yul\":15557:15650   */\n      tag_295\n      jump\t// in\n    tag_469:\n        /* \"#utility.yul\":15675:15677   */\n      0x20\n        /* \"#utility.yul\":15670:15673   */\n      dup3\n        /* \"#utility.yul\":15666:15678   */\n      add\n        /* \"#utility.yul\":15659:15678   */\n      swap1\n      pop\n        /* \"#utility.yul\":15318:15684   */\n      swap2\n      swap1\n      pop\n      jump\t// out\n        /* \"#utility.yul\":15690:16109   */\n    tag_196:\n        /* \"#utility.yul\":15856:15860   */\n      0x00\n        /* \"#utility.yul\":15894:15896   */\n      0x20\n        /* \"#utility.yul\":15883:15892   */\n      dup3\n        /* \"#utility.yul\":15879:15897   */\n      add\n        /* \"#utility.yul\":15871:15897   */\n      swap1\n      pop\n        /* \"#utility.yul\":15943:15952   */\n      dup2\n        /* \"#utility.yul\":15937:15941   */\n      dup2\n        /* \"#utility.yul\":15933:15953   */\n      sub\n        /* \"#utility.yul\":15929:15930   */\n      0x00\n        /* \"#utility.yul\":15918:15927   */\n      dup4\n        /* \"#utility.yul\":15914:15931   */\n      add\n        /* \"#utility.yul\":15907:15954   */\n      mstore\n        /* \"#utility.yul\":15971:16102   */\n      tag_471\n        /* \"#utility.yul\":16097:16101   */\n      dup2\n        /* \"#utility.yul\":15971:16102   */\n      tag_296\n      jump\t// in\n    tag_471:\n        /* \"#utility.yul\":15963:16102   */\n      swap1\n      pop\n        /* \"#utility.yul\":15690:16109   */\n      swap2\n      swap1\n      pop\n      jump\t// out\n        /* \"#utility.yul\":16115:16278   */\n    tag_297:\n        /* \"#utility.yul\":16255:16270   */\n      0x506c617965722065786973747300000000000000000000000000000000000000\n        /* \"#utility.yul\":16251:16252   */\n      0x00\n        /* \"#utility.yul\":16243:16249   */\n      dup3\n        /* \"#utility.yul\":16239:16253   */\n      add\n        /* \"#utility.yul\":16232:16271   */\n      mstore\n        /* \"#utility.yul\":16115:16278   */\n      pop\n      jump\t// out\n        /* \"#utility.yul\":16284:16650   */\n    tag_298:\n        /* \"#utility.yul\":16426:16429   */\n      0x00\n        /* \"#utility.yul\":16447:16514   */\n      tag_474\n        /* \"#utility.yul\":16511:16513   */\n      0x0d\n        /* \"#utility.yul\":16506:16509   */\n      dup4\n        /* \"#utility.yul\":16447:16514   */\n      tag_282\n      jump\t// in\n    tag_474:\n        /* \"#utility.yul\":16440:16514   */\n      swap2\n      pop\n        /* \"#utility.yul\":16523:16616   */\n      tag_475\n        /* \"#utility.yul\":16612:16615   */\n      dup3\n        /* \"#utility.yul\":16523:16616   */\n      tag_297\n      jump\t// in\n    tag_475:\n        /* \"#utility.yul\":16641:16643   */\n      0x20\n        /* \"#utility.yul\":16636:16639   */\n      dup3\n        /* \"#utility.yul\":16632:16644   */\n      add\n        /* \"#utility.yul\":16625:16644   */\n      swap1\n      pop\n        /* \"#utility.yul\":16284:16650   */\n      swap2\n      swap1\n      pop\n      jump\t// out\n        /* \"#utility.yul\":16656:17075   */\n    tag_223:\n        /* \"#utility.yul\":16822:16826   */\n      0x00\n        /* \"#utility.yul\":16860:16862   */\n      0x20\n        /* \"#utility.yul\":16849:16858   */\n      dup3\n        /* \"#utility.yul\":16845:16863   */\n      add\n        /* \"#utility.yul\":16837:16863   */\n      swap1\n      pop\n        /* \"#utility.yul\":16909:16918   */\n      dup2\n        /* \"#utility.yul\":16903:16907   */\n      dup2\n        /* \"#utility.yul\":16899:16919   */\n      sub\n        /* \"#utility.yul\":16895:16896   */\n      0x00\n        /* \"#utility.yul\":16884:16893   */\n      dup4\n        /* \"#utility.yul\":16880:16897   */\n      add\n        /* \"#utility.yul\":16873:16920   */\n      mstore\n        /* \"#utility.yul\":16937:17068   */\n      tag_477\n        /* \"#utility.yul\":17063:17067   */\n      dup2\n        /* \"#utility.yul\":16937:17068   */\n      tag_298\n      jump\t// in\n    tag_477:\n        /* \"#utility.yul\":16929:17068   */\n      swap1\n      pop\n        /* \"#utility.yul\":16656:17075   */\n      swap2\n      swap1\n      pop\n      jump\t// out\n        /* \"#utility.yul\":17081:17247   */\n    tag_299:\n        /* \"#utility.yul\":17221:17239   */\n      0x496e76616c696420747265617375727900000000000000000000000000000000\n        /* \"#utility.yul\":17217:17218   */\n      0x00\n        /* \"#utility.yul\":17209:17215   */\n      dup3\n        /* \"#utility.yul\":17205:17219   */\n      add\n        /* \"#utility.yul\":17198:17240   */\n      mstore\n        /* \"#utility.yul\":17081:17247   */\n      pop\n      jump\t// out\n        /* \"#utility.yul\":17253:17619   */\n    tag_300:\n        /* \"#utility.yul\":17395:17398   */\n      0x00\n        /* \"#utility.yul\":17416:17483   */\n      tag_480\n        /* \"#utility.yul\":17480:17482   */\n      0x10\n        /* \"#utility.yul\":17475:17478   */\n      dup4\n        /* \"#utility.yul\":17416:17483   */\n      tag_282\n      jump\t// in\n    tag_480:\n        /* \"#utility.yul\":17409:17483   */\n      swap2\n      pop\n        /* \"#utility.yul\":17492:17585   */\n      tag_481\n        /* \"#utility.yul\":17581:17584   */\n      dup3\n        /* \"#utility.yul\":17492:17585   */\n      tag_299\n      jump\t// in\n    tag_481:\n        /* \"#utility.yul\":17610:17612   */\n      0x20\n        /* \"#utility.yul\":17605:17608   */\n      dup3\n        /* \"#utility.yul\":17601:17613   */\n      add\n        /* \"#utility.yul\":17594:17613   */\n      swap1\n      pop\n        /* \"#utility.yul\":17253:17619   */\n      swap2\n      swap1\n      pop\n      jump\t// out\n        /* \"#utility.yul\":17625:18044   */\n    tag_230:\n        /* \"#utility.yul\":17791:17795   */\n      0x00\n        /* \"#utility.yul\":17829:17831   */\n      0x20\n        /* \"#utility.yul\":17818:17827   */\n      dup3\n        /* \"#utility.yul\":17814:17832   */\n      add\n        /* \"#utility.yul\":17806:17832   */\n      swap1\n      pop\n        /* \"#utility.yul\":17878:17887   */\n      dup2\n        /* \"#utility.yul\":17872:17876   */\n      dup2\n        /* \"#utility.yul\":17868:17888   */\n      sub\n        /* \"#utility.yul\":17864:17865   */\n      0x00\n        /* \"#utility.yul\":17853:17862   */\n      dup4\n        /* \"#utility.yul\":17849:17866   */\n      add\n        /* \"#utility.yul\":17842:17889   */\n      mstore\n        /* \"#utility.yul\":17906:18037   */\n      tag_483\n        /* \"#utility.yul\":18032:18036   */\n      dup2\n        /* \"#utility.yul\":17906:18037   */\n      tag_300\n      jump\t// in\n    tag_483:\n        /* \"#utility.yul\":17898:18037   */\n      swap1\n      pop\n        /* \"#utility.yul\":17625:18044   */\n      swap2\n      swap1\n      pop\n      jump\t// out\n        /* \"#utility.yul\":18050:18382   */\n    tag_255:\n        /* \"#utility.yul\":18171:18175   */\n      0x00\n        /* \"#utility.yul\":18209:18211   */\n      0x40\n        /* \"#utility.yul\":18198:18207   */\n      dup3\n        /* \"#utility.yul\":18194:18212   */\n      add\n        /* \"#utility.yul\":18186:18212   */\n      swap1\n      pop\n        /* \"#utility.yul\":18222:18293   */\n      tag_485\n        /* \"#utility.yul\":18290:18291   */\n      0x00\n        /* \"#utility.yul\":18279:18288   */\n      dup4\n        /* \"#utility.yul\":18275:18292   */\n      add\n        /* \"#utility.yul\":18266:18272   */\n      dup6\n        /* \"#utility.yul\":18222:18293   */\n      tag_272\n      jump\t// in\n    tag_485:\n        /* \"#utility.yul\":18303:18375   */\n      tag_486\n        /* \"#utility.yul\":18371:18373   */\n      0x20\n        /* \"#utility.yul\":18360:18369   */\n      dup4\n        /* \"#utility.yul\":18356:18374   */\n      add\n        /* \"#utility.yul\":18347:18353   */\n      dup5\n        /* \"#utility.yul\":18303:18375   */\n      tag_267\n      jump\t// in\n    tag_486:\n        /* \"#utility.yul\":18050:18382   */\n      swap4\n      swap3\n      pop\n      pop\n      pop\n      jump\t// out\n\n    auxdata: 0xa264697066735822122016eb768de2c563ba5df8d7eeea42676a3acdb994f1ad847f65cc327b64a2c6eb64736f6c634300081b0033\n}\n",
				"bytecode": {
					"linkReferences": {},
					"object": "60a060405260c8600355348015610014575f5ffd5b5060405161228538038061228583398181016040528101906100369190610362565b60015f819055505f73ffffffffffffffffffffffffffffffffffffffff168373ffffffffffffffffffffffffffffffffffffffff16141580156100a557505f73ffffffffffffffffffffffffffffffffffffffff168273ffffffffffffffffffffffffffffffffffffffff1614155b6100e4576040517f08c379a00000000000000000000000000000000000000000000000000000000081526004016100db9061040c565b60405180910390fd5b8273ffffffffffffffffffffffffffffffffffffffff1660808173ffffffffffffffffffffffffffffffffffffffff16815250508160025f6101000a81548173ffffffffffffffffffffffffffffffffffffffff021916908373ffffffffffffffffffffffffffffffffffffffff16021790555061016a5f5f1b826101a460201b60201c565b5061019b7fa49807205ce4d355092ef5a8a18f56e8913cf4a201fbe287825b095693c21775826101a460201b60201c565b5050505061042a565b5f6101b5838361029960201b60201c565b61028f576001805f8581526020019081526020015f205f015f8473ffffffffffffffffffffffffffffffffffffffff1673ffffffffffffffffffffffffffffffffffffffff1681526020019081526020015f205f6101000a81548160ff02191690831515021790555061022c6102fd60201b60201c565b73ffffffffffffffffffffffffffffffffffffffff168273ffffffffffffffffffffffffffffffffffffffff16847f2f8788117e7eff1d82e926ec794901d17c78024a50270940304540a733656f0d60405160405180910390a460019050610293565b5f90505b92915050565b5f60015f8481526020019081526020015f205f015f8373ffffffffffffffffffffffffffffffffffffffff1673ffffffffffffffffffffffffffffffffffffffff1681526020019081526020015f205f9054906101000a900460ff16905092915050565b5f33905090565b5f5ffd5b5f73ffffffffffffffffffffffffffffffffffffffff82169050919050565b5f61033182610308565b9050919050565b61034181610327565b811461034b575f5ffd5b50565b5f8151905061035c81610338565b92915050565b5f5f5f6060848603121561037957610378610304565b5b5f6103868682870161034e565b93505060206103978682870161034e565b92505060406103a88682870161034e565b9150509250925092565b5f82825260208201905092915050565b7f496e76616c6964206164647265737365730000000000000000000000000000005f82015250565b5f6103f66011836103b2565b9150610401826103c2565b602082019050919050565b5f6020820190508181035f830152610423816103ea565b9050919050565b608051611e2761045e5f395f818161064b0152818161071e0152818161094d01528181610daa0152610e4e0152611e275ff3fe608060405234801561000f575f5ffd5b5060043610610135575f3560e01c8063924cca9a116100b6578063d547741f1161007a578063d547741f1461035f578063d67c68721461037b578063e1a4521814610397578063ec4a8b17146103b5578063f0f44260146103d1578063f71d96cb146103ed57610135565b8063924cca9a146102a7578063a217fddf146102c5578063ad954878146102e3578063b0d54bcf14610313578063bca7d4e11461032f57610135565b806375b238fc116100fd57806375b238fc146101ef5780637aabf58a1461020d5780638301b93d14610229578063851987051461024757806391d148541461027757610135565b806301ffc9a714610139578063248a9ca3146101695780632f2ff15d1461019957806336568abe146101b557806361d027b3146101d1575b5f5ffd5b610153600480360381019061014e9190611531565b61041f565b6040516101609190611576565b60405180910390f35b610183600480360381019061017e91906115c2565b610498565b60405161019091906115fc565b60405180910390f35b6101b360048036038101906101ae919061166f565b6104b5565b005b6101cf60048036038101906101ca919061166f565b6104d7565b005b6101d9610552565b6040516101e691906116bc565b60405180910390f35b6101f7610577565b60405161020491906115fc565b60405180910390f35b61022760048036038101906102229190611708565b61059b565b005b61023161094b565b60405161023e91906117b3565b60405180910390f35b610261600480360381019061025c91906117cc565b61096f565b60405161026e9190611819565b60405180910390f35b610291600480360381019061028c919061166f565b6109c5565b60405161029e9190611576565b60405180910390f35b6102af610a29565b6040516102bc9190611819565b60405180910390f35b6102cd610a2f565b6040516102da91906115fc565b60405180910390f35b6102fd60048036038101906102f891906117cc565b610a35565b60405161030a9190611819565b60405180910390f35b61032d60048036038101906103289190611832565b610a55565b005b61034960048036038101906103449190611832565b610b06565b6040516103569190611819565b60405180910390f35b6103796004803603810190610374919061166f565b610b65565b005b61039560048036038101906103909190611708565b610b87565b005b61039f610f6f565b6040516103ac9190611819565b60405180910390f35b6103cf60048036038101906103ca9190611832565b610f75565b005b6103eb60048036038101906103e6919061185d565b61109e565b005b61040760048036038101906104029190611832565b6111b1565b60405161041693929190611888565b60405180910390f35b5f7f7965db0b000000000000000000000000000000000000000000000000000000007bffffffffffffffffffffffffffffffffffffffffffffffffffffffff1916827bffffffffffffffffffffffffffffffffffffffffffffffffffffffff191614806104915750610490826111e3565b5b9050919050565b5f60015f8381526020019081526020015f20600101549050919050565b6104be82610498565b6104c78161124c565b6104d18383611260565b50505050565b6104df611349565b73ffffffffffffffffffffffffffffffffffffffff168173ffffffffffffffffffffffffffffffffffffffff1614610543576040517f6697b23200000000000000000000000000000000000000000000000000000000815260040160405180910390fd5b61054d8282611350565b505050565b60025f9054906101000a900473ffffffffffffffffffffffffffffffffffffffff1681565b7fa49807205ce4d355092ef5a8a18f56e8913cf4a201fbe287825b095693c2177581565b6105a361143a565b5f60045f8581526020019081526020015f209050806002015f9054906101000a900460ff16610607576040517f08c379a00000000000000000000000000000000000000000000000000000000081526004016105fe90611917565b60405180910390fd5b5f8311610649576040517f08c379a00000000000000000000000000000000000000000000000000000000081526004016106409061197f565b60405180910390fd5b7f000000000000000000000000000000000000000000000000000000000000000073ffffffffffffffffffffffffffffffffffffffff166323b872dd3330866040518463ffffffff1660e01b81526004016106a69392919061199d565b6020604051808303815f875af11580156106c2573d5f5f3e3d5ffd5b505050506040513d601f19601f820116820180604052508101906106e691906119fc565b505f612710600354856106f99190611a54565b6107039190611ac2565b90505f81856107129190611af2565b90505f8211156107da577f000000000000000000000000000000000000000000000000000000000000000073ffffffffffffffffffffffffffffffffffffffff1663a9059cbb60025f9054906101000a900473ffffffffffffffffffffffffffffffffffffffff16846040518363ffffffff1660e01b8152600401610798929190611b25565b6020604051808303815f875af11580156107b4573d5f5f3e3d5ffd5b505050506040513d601f19601f820116820180604052508101906107d891906119fc565b505b5f5f845f0154036107ed5781905061080e565b8360010154845f0154836108019190611a54565b61080b9190611ac2565b90505b84811015610851576040517f08c379a000000000000000000000000000000000000000000000000000000000815260040161084890611b96565b60405180910390fd5b80845f015f8282546108639190611bb4565b9250508190555081846001015f82825461087d9190611bb4565b925050819055508060055f8981526020019081526020015f205f3373ffffffffffffffffffffffffffffffffffffffff1673ffffffffffffffffffffffffffffffffffffffff1681526020019081526020015f205f8282546108df9190611bb4565b925050819055503373ffffffffffffffffffffffffffffffffffffffff167fe64e13a60f1ed7c5d8e721fe57012e0227812f9fc5b0538a9aa611ea8507c655888884876040516109329493929190611be7565b60405180910390a25050505061094661147e565b505050565b7f000000000000000000000000000000000000000000000000000000000000000081565b5f60055f8481526020019081526020015f205f8373ffffffffffffffffffffffffffffffffffffffff1673ffffffffffffffffffffffffffffffffffffffff1681526020019081526020015f2054905092915050565b5f60015f8481526020019081526020015f205f015f8373ffffffffffffffffffffffffffffffffffffffff1673ffffffffffffffffffffffffffffffffffffffff1681526020019081526020015f205f9054906101000a900460ff16905092915050565b60035481565b5f5f1b81565b6005602052815f5260405f20602052805f5260405f205f91509150505481565b7fa49807205ce4d355092ef5a8a18f56e8913cf4a201fbe287825b095693c21775610a7f8161124c565b6103e8821115610ac4576040517f08c379a0000000000000000000000000000000000000000000000000000000008152600401610abb90611c74565b60405180910390fd5b816003819055507fa3dfe13986da4bcfdc32f544ebe130cb8ec20a2afc45e7c3994975076a08e57882604051610afa9190611819565b60405180910390a15050565b5f5f60045f8481526020019081526020015f2090505f815f015403610b3657670de0b6b3a7640000915050610b60565b805f0154670de0b6b3a76400008260010154610b529190611a54565b610b5c9190611ac2565b9150505b919050565b610b6e82610498565b610b778161124c565b610b818383611350565b50505050565b610b8f61143a565b5f60045f8581526020019081526020015f209050806002015f9054906101000a900460ff16610bf3576040517f08c379a0000000000000000000000000000000000000000000000000000000008152600401610bea90611917565b60405180910390fd5b8260055f8681526020019081526020015f205f3373ffffffffffffffffffffffffffffffffffffffff1673ffffffffffffffffffffffffffffffffffffffff1681526020019081526020015f20541015610c82576040517f08c379a0000000000000000000000000000000000000000000000000000000008152600401610c7990611cdc565b60405180910390fd5b5f815f0154826001015485610c979190611a54565b610ca19190611ac2565b90505f61271060035483610cb59190611a54565b610cbf9190611ac2565b90505f8183610cce9190611af2565b905084811015610d13576040517f08c379a0000000000000000000000000000000000000000000000000000000008152600401610d0a90611b96565b60405180910390fd5b85845f015f828254610d259190611af2565b9250508190555082846001015f828254610d3f9190611af2565b925050819055508560055f8981526020019081526020015f205f3373ffffffffffffffffffffffffffffffffffffffff1673ffffffffffffffffffffffffffffffffffffffff1681526020019081526020015f205f828254610da19190611af2565b925050819055507f000000000000000000000000000000000000000000000000000000000000000073ffffffffffffffffffffffffffffffffffffffff1663a9059cbb33836040518363ffffffff1660e01b8152600401610e03929190611b25565b6020604051808303815f875af1158015610e1f573d5f5f3e3d5ffd5b505050506040513d601f19601f82011682018060405250810190610e4391906119fc565b505f821115610f0a577f000000000000000000000000000000000000000000000000000000000000000073ffffffffffffffffffffffffffffffffffffffff1663a9059cbb60025f9054906101000a900473ffffffffffffffffffffffffffffffffffffffff16846040518363ffffffff1660e01b8152600401610ec8929190611b25565b6020604051808303815f875af1158015610ee4573d5f5f3e3d5ffd5b505050506040513d601f19601f82011682018060405250810190610f0891906119fc565b505b3373ffffffffffffffffffffffffffffffffffffffff167f2c68d33e5c92efc182eec06ac794258dfedcc114aac3b5fa9bdc19a4b7871f1a88888486604051610f569493929190611be7565b60405180910390a250505050610f6a61147e565b505050565b61271081565b7fa49807205ce4d355092ef5a8a18f56e8913cf4a201fbe287825b095693c21775610f9f8161124c565b60045f8381526020019081526020015f206002015f9054906101000a900460ff1615611000576040517f08c379a0000000000000000000000000000000000000000000000000000000008152600401610ff790611d44565b60405180910390fd5b60405180606001604052805f81526020015f81526020016001151581525060045f8481526020019081526020015f205f820151815f0155602082015181600101556040820151816002015f6101000a81548160ff0219169083151502179055509050507f5af403e238a3f8f7d43c05ff2fac53c833e031e8fb8ec011b3c8e073d870ad7b826040516110929190611819565b60405180910390a15050565b7fa49807205ce4d355092ef5a8a18f56e8913cf4a201fbe287825b095693c217756110c88161124c565b5f73ffffffffffffffffffffffffffffffffffffffff168273ffffffffffffffffffffffffffffffffffffffff1603611136576040517f08c379a000000000000000000000000000000000000000000000000000000000815260040161112d90611dac565b60405180910390fd5b8160025f6101000a81548173ffffffffffffffffffffffffffffffffffffffff021916908373ffffffffffffffffffffffffffffffffffffffff1602179055507f7dae230f18360d76a040c81f050aa14eb9d6dc7901b20fc5d855e2a20fe814d1826040516111a591906116bc565b60405180910390a15050565b6004602052805f5260405f205f91509050805f015490806001015490806002015f9054906101000a900460ff16905083565b5f7f01ffc9a7000000000000000000000000000000000000000000000000000000007bffffffffffffffffffffffffffffffffffffffffffffffffffffffff1916827bffffffffffffffffffffffffffffffffffffffffffffffffffffffff1916149050919050565b61125d81611258611349565b611487565b50565b5f61126b83836109c5565b61133f576001805f8581526020019081526020015f205f015f8473ffffffffffffffffffffffffffffffffffffffff1673ffffffffffffffffffffffffffffffffffffffff1681526020019081526020015f205f6101000a81548160ff0219169083151502179055506112dc611349565b73ffffffffffffffffffffffffffffffffffffffff168273ffffffffffffffffffffffffffffffffffffffff16847f2f8788117e7eff1d82e926ec794901d17c78024a50270940304540a733656f0d60405160405180910390a460019050611343565b5f90505b92915050565b5f33905090565b5f61135b83836109c5565b15611430575f60015f8581526020019081526020015f205f015f8473ffffffffffffffffffffffffffffffffffffffff1673ffffffffffffffffffffffffffffffffffffffff1681526020019081526020015f205f6101000a81548160ff0219169083151502179055506113cd611349565b73ffffffffffffffffffffffffffffffffffffffff168273ffffffffffffffffffffffffffffffffffffffff16847ff6391f5c32d9c69d2a47ea670b442974b53935d1edc7fd64eb21e047a839171b60405160405180910390a460019050611434565b5f90505b92915050565b60025f5403611475576040517f3ee5aeb500000000000000000000000000000000000000000000000000000000815260040160405180910390fd5b60025f81905550565b60015f81905550565b61149182826109c5565b6114d45780826040517fe2517d3f0000000000000000000000000000000000000000000000000000000081526004016114cb929190611dca565b60405180910390fd5b5050565b5f5ffd5b5f7fffffffff0000000000000000000000000000000000000000000000000000000082169050919050565b611510816114dc565b811461151a575f5ffd5b50565b5f8135905061152b81611507565b92915050565b5f60208284031215611546576115456114d8565b5b5f6115538482850161151d565b91505092915050565b5f8115159050919050565b6115708161155c565b82525050565b5f6020820190506115895f830184611567565b92915050565b5f819050919050565b6115a18161158f565b81146115ab575f5ffd5b50565b5f813590506115bc81611598565b92915050565b5f602082840312156115d7576115d66114d8565b5b5f6115e4848285016115ae565b91505092915050565b6115f68161158f565b82525050565b5f60208201905061160f5f8301846115ed565b92915050565b5f73ffffffffffffffffffffffffffffffffffffffff82169050919050565b5f61163e82611615565b9050919050565b61164e81611634565b8114611658575f5ffd5b50565b5f8135905061166981611645565b92915050565b5f5f60408385031215611685576116846114d8565b5b5f611692858286016115ae565b92505060206116a38582860161165b565b9150509250929050565b6116b681611634565b82525050565b5f6020820190506116cf5f8301846116ad565b92915050565b5f819050919050565b6116e7816116d5565b81146116f1575f5ffd5b50565b5f81359050611702816116de565b92915050565b5f5f5f6060848603121561171f5761171e6114d8565b5b5f61172c868287016116f4565b935050602061173d868287016116f4565b925050604061174e868287016116f4565b9150509250925092565b5f819050919050565b5f61177b61177661177184611615565b611758565b611615565b9050919050565b5f61178c82611761565b9050919050565b5f61179d82611782565b9050919050565b6117ad81611793565b82525050565b5f6020820190506117c65f8301846117a4565b92915050565b5f5f604083850312156117e2576117e16114d8565b5b5f6117ef858286016116f4565b92505060206118008582860161165b565b9150509250929050565b611813816116d5565b82525050565b5f60208201905061182c5f83018461180a565b92915050565b5f60208284031215611847576118466114d8565b5b5f611854848285016116f4565b91505092915050565b5f60208284031215611872576118716114d8565b5b5f61187f8482850161165b565b91505092915050565b5f60608201905061189b5f83018661180a565b6118a8602083018561180a565b6118b56040830184611567565b949350505050565b5f82825260208201905092915050565b7f506c61796572206e6f7420666f756e64000000000000000000000000000000005f82015250565b5f6119016010836118bd565b915061190c826118cd565b602082019050919050565b5f6020820190508181035f83015261192e816118f5565b9050919050565b7f5a65726f2046544b0000000000000000000000000000000000000000000000005f82015250565b5f6119696008836118bd565b915061197482611935565b602082019050919050565b5f6020820190508181035f8301526119968161195d565b9050919050565b5f6060820190506119b05f8301866116ad565b6119bd60208301856116ad565b6119ca604083018461180a565b949350505050565b6119db8161155c565b81146119e5575f5ffd5b50565b5f815190506119f6816119d2565b92915050565b5f60208284031215611a1157611a106114d8565b5b5f611a1e848285016119e8565b91505092915050565b7f4e487b71000000000000000000000000000000000000000000000000000000005f52601160045260245ffd5b5f611a5e826116d5565b9150611a69836116d5565b9250828202611a77816116d5565b91508282048414831517611a8e57611a8d611a27565b5b5092915050565b7f4e487b71000000000000000000000000000000000000000000000000000000005f52601260045260245ffd5b5f611acc826116d5565b9150611ad7836116d5565b925082611ae757611ae6611a95565b5b828204905092915050565b5f611afc826116d5565b9150611b07836116d5565b9250828203905081811115611b1f57611b1e611a27565b5b92915050565b5f604082019050611b385f8301856116ad565b611b45602083018461180a565b9392505050565b7f536c6970706167652065786365656465640000000000000000000000000000005f82015250565b5f611b806011836118bd565b9150611b8b82611b4c565b602082019050919050565b5f6020820190508181035f830152611bad81611b74565b9050919050565b5f611bbe826116d5565b9150611bc9836116d5565b9250828201905080821115611be157611be0611a27565b5b92915050565b5f608082019050611bfa5f83018761180a565b611c07602083018661180a565b611c14604083018561180a565b611c21606083018461180a565b95945050505050565b7f46656520746f6f206869676800000000000000000000000000000000000000005f82015250565b5f611c5e600c836118bd565b9150611c6982611c2a565b602082019050919050565b5f6020820190508181035f830152611c8b81611c52565b9050919050565b7f496e73756666696369656e7420736861726573000000000000000000000000005f82015250565b5f611cc66013836118bd565b9150611cd182611c92565b602082019050919050565b5f6020820190508181035f830152611cf381611cba565b9050919050565b7f506c6179657220657869737473000000000000000000000000000000000000005f82015250565b5f611d2e600d836118bd565b9150611d3982611cfa565b602082019050919050565b5f6020820190508181035f830152611d5b81611d22565b9050919050565b7f496e76616c6964207472656173757279000000000000000000000000000000005f82015250565b5f611d966010836118bd565b9150611da182611d62565b602082019050919050565b5f6020820190508181035f830152611dc381611d8a565b9050919050565b5f604082019050611ddd5f8301856116ad565b611dea60208301846115ed565b939250505056fea264697066735822122016eb768de2c563ba5df8d7eeea42676a3acdb994f1ad847f65cc327b64a2c6eb64736f6c634300081b0033",
					"opcodes": "PUSH1 0xA0 PUSH1 0x40 MSTORE PUSH1 0xC8 PUSH1 0x3 SSTORE CALLVALUE DUP1 ISZERO PUSH2 0x14 JUMPI PUSH0 PUSH0 REVERT JUMPDEST POP PUSH1 0x40 MLOAD PUSH2 0x2285 CODESIZE SUB DUP1 PUSH2 0x2285 DUP4 CODECOPY DUP2 DUP2 ADD PUSH1 0x40 MSTORE DUP2 ADD SWAP1 PUSH2 0x36 SWAP2 SWAP1 PUSH2 0x362 JUMP JUMPDEST PUSH1 0x1 PUSH0 DUP2 SWAP1 SSTORE POP PUSH0 PUSH20 0xFFFFFFFFFFFFFFFFFFFFFFFFFFFFFFFFFFFFFFFF AND DUP4 PUSH20 0xFFFFFFFFFFFFFFFFFFFFFFFFFFFFFFFFFFFFFFFF AND EQ ISZERO DUP1 ISZERO PUSH2 0xA5 JUMPI POP PUSH0 PUSH20 0xFFFFFFFFFFFFFFFFFFFFFFFFFFFFFFFFFFFFFFFF AND DUP3 PUSH20 0xFFFFFFFFFFFFFFFFFFFFFFFFFFFFFFFFFFFFFFFF AND EQ ISZERO JUMPDEST PUSH2 0xE4 JUMPI PUSH1 0x40 MLOAD PUSH32 0x8C379A000000000000000000000000000000000000000000000000000000000 DUP2 MSTORE PUSH1 0x4 ADD PUSH2 0xDB SWAP1 PUSH2 0x40C JUMP JUMPDEST PUSH1 0x40 MLOAD DUP1 SWAP2 SUB SWAP1 REVERT JUMPDEST DUP3 PUSH20 0xFFFFFFFFFFFFFFFFFFFFFFFFFFFFFFFFFFFFFFFF AND PUSH1 0x80 DUP2 PUSH20 0xFFFFFFFFFFFFFFFFFFFFFFFFFFFFFFFFFFFFFFFF AND DUP2 MSTORE POP POP DUP2 PUSH1 0x2 PUSH0 PUSH2 0x100 EXP DUP2 SLOAD DUP2 PUSH20 0xFFFFFFFFFFFFFFFFFFFFFFFFFFFFFFFFFFFFFFFF MUL NOT AND SWAP1 DUP4 PUSH20 0xFFFFFFFFFFFFFFFFFFFFFFFFFFFFFFFFFFFFFFFF AND MUL OR SWAP1 SSTORE POP PUSH2 0x16A PUSH0 PUSH0 SHL DUP3 PUSH2 0x1A4 PUSH1 0x20 SHL PUSH1 0x20 SHR JUMP JUMPDEST POP PUSH2 0x19B PUSH32 0xA49807205CE4D355092EF5A8A18F56E8913CF4A201FBE287825B095693C21775 DUP3 PUSH2 0x1A4 PUSH1 0x20 SHL PUSH1 0x20 SHR JUMP JUMPDEST POP POP POP POP PUSH2 0x42A JUMP JUMPDEST PUSH0 PUSH2 0x1B5 DUP4 DUP4 PUSH2 0x299 PUSH1 0x20 SHL PUSH1 0x20 SHR JUMP JUMPDEST PUSH2 0x28F JUMPI PUSH1 0x1 DUP1 PUSH0 DUP6 DUP2 MSTORE PUSH1 0x20 ADD SWAP1 DUP2 MSTORE PUSH1 0x20 ADD PUSH0 KECCAK256 PUSH0 ADD PUSH0 DUP5 PUSH20 0xFFFFFFFFFFFFFFFFFFFFFFFFFFFFFFFFFFFFFFFF AND PUSH20 0xFFFFFFFFFFFFFFFFFFFFFFFFFFFFFFFFFFFFFFFF AND DUP2 MSTORE PUSH1 0x20 ADD SWAP1 DUP2 MSTORE PUSH1 0x20 ADD PUSH0 KECCAK256 PUSH0 PUSH2 0x100 EXP DUP2 SLOAD DUP2 PUSH1 0xFF MUL NOT AND SWAP1 DUP4 ISZERO ISZERO MUL OR SWAP1 SSTORE POP PUSH2 0x22C PUSH2 0x2FD PUSH1 0x20 SHL PUSH1 0x20 SHR JUMP JUMPDEST PUSH20 0xFFFFFFFFFFFFFFFFFFFFFFFFFFFFFFFFFFFFFFFF AND DUP3 PUSH20 0xFFFFFFFFFFFFFFFFFFFFFFFFFFFFFFFFFFFFFFFF AND DUP5 PUSH32 0x2F8788117E7EFF1D82E926EC794901D17C78024A50270940304540A733656F0D PUSH1 0x40 MLOAD PUSH1 0x40 MLOAD DUP1 SWAP2 SUB SWAP1 LOG4 PUSH1 0x1 SWAP1 POP PUSH2 0x293 JUMP JUMPDEST PUSH0 SWAP1 POP JUMPDEST SWAP3 SWAP2 POP POP JUMP JUMPDEST PUSH0 PUSH1 0x1 PUSH0 DUP5 DUP2 MSTORE PUSH1 0x20 ADD SWAP1 DUP2 MSTORE PUSH1 0x20 ADD PUSH0 KECCAK256 PUSH0 ADD PUSH0 DUP4 PUSH20 0xFFFFFFFFFFFFFFFFFFFFFFFFFFFFFFFFFFFFFFFF AND PUSH20 0xFFFFFFFFFFFFFFFFFFFFFFFFFFFFFFFFFFFFFFFF AND DUP2 MSTORE PUSH1 0x20 ADD SWAP1 DUP2 MSTORE PUSH1 0x20 ADD PUSH0 KECCAK256 PUSH0 SWAP1 SLOAD SWAP1 PUSH2 0x100 EXP SWAP1 DIV PUSH1 0xFF AND SWAP1 POP SWAP3 SWAP2 POP POP JUMP JUMPDEST PUSH0 CALLER SWAP1 POP SWAP1 JUMP JUMPDEST PUSH0 PUSH0 REVERT JUMPDEST PUSH0 PUSH20 0xFFFFFFFFFFFFFFFFFFFFFFFFFFFFFFFFFFFFFFFF DUP3 AND SWAP1 POP SWAP2 SWAP1 POP JUMP JUMPDEST PUSH0 PUSH2 0x331 DUP3 PUSH2 0x308 JUMP JUMPDEST SWAP1 POP SWAP2 SWAP1 POP JUMP JUMPDEST PUSH2 0x341 DUP2 PUSH2 0x327 JUMP JUMPDEST DUP2 EQ PUSH2 0x34B JUMPI PUSH0 PUSH0 REVERT JUMPDEST POP JUMP JUMPDEST PUSH0 DUP2 MLOAD SWAP1 POP PUSH2 0x35C DUP2 PUSH2 0x338 JUMP JUMPDEST SWAP3 SWAP2 POP POP JUMP JUMPDEST PUSH0 PUSH0 PUSH0 PUSH1 0x60 DUP5 DUP7 SUB SLT ISZERO PUSH2 0x379 JUMPI PUSH2 0x378 PUSH2 0x304 JUMP JUMPDEST JUMPDEST PUSH0 PUSH2 0x386 DUP7 DUP3 DUP8 ADD PUSH2 0x34E JUMP JUMPDEST SWAP4 POP POP PUSH1 0x20 PUSH2 0x397 DUP7 DUP3 DUP8 ADD PUSH2 0x34E JUMP JUMPDEST SWAP3 POP POP PUSH1 0x40 PUSH2 0x3A8 DUP7 DUP3 DUP8 ADD PUSH2 0x34E JUMP JUMPDEST SWAP2 POP POP SWAP3 POP SWAP3 POP SWAP3 JUMP JUMPDEST PUSH0 DUP3 DUP3 MSTORE PUSH1 0x20 DUP3 ADD SWAP1 POP SWAP3 SWAP2 POP POP JUMP JUMPDEST PUSH32 0x496E76616C696420616464726573736573000000000000000000000000000000 PUSH0 DUP3 ADD MSTORE POP JUMP JUMPDEST PUSH0 PUSH2 0x3F6 PUSH1 0x11 DUP4 PUSH2 0x3B2 JUMP JUMPDEST SWAP2 POP PUSH2 0x401 DUP3 PUSH2 0x3C2 JUMP JUMPDEST PUSH1 0x20 DUP3 ADD SWAP1 POP SWAP2 SWAP1 POP JUMP JUMPDEST PUSH0 PUSH1 0x20 DUP3 ADD SWAP1 POP DUP2 DUP2 SUB PUSH0 DUP4 ADD MSTORE PUSH2 0x423 DUP2 PUSH2 0x3EA JUMP JUMPDEST SWAP1 POP SWAP2 SWAP1 POP JUMP JUMPDEST PUSH1 0x80 MLOAD PUSH2 0x1E27 PUSH2 0x45E PUSH0 CODECOPY PUSH0 DUP2 DUP2 PUSH2 0x64B ADD MSTORE DUP2 DUP2 PUSH2 0x71E ADD MSTORE DUP2 DUP2 PUSH2 0x94D ADD MSTORE DUP2 DUP2 PUSH2 0xDAA ADD MSTORE PUSH2 0xE4E ADD MSTORE PUSH2 0x1E27 PUSH0 RETURN INVALID PUSH1 0x80 PUSH1 0x40 MSTORE CALLVALUE DUP1 ISZERO PUSH2 0xF JUMPI PUSH0 PUSH0 REVERT JUMPDEST POP PUSH1 0x4 CALLDATASIZE LT PUSH2 0x135 JUMPI PUSH0 CALLDATALOAD PUSH1 0xE0 SHR DUP1 PUSH4 0x924CCA9A GT PUSH2 0xB6 JUMPI DUP1 PUSH4 0xD547741F GT PUSH2 0x7A JUMPI DUP1 PUSH4 0xD547741F EQ PUSH2 0x35F JUMPI DUP1 PUSH4 0xD67C6872 EQ PUSH2 0x37B JUMPI DUP1 PUSH4 0xE1A45218 EQ PUSH2 0x397 JUMPI DUP1 PUSH4 0xEC4A8B17 EQ PUSH2 0x3B5 JUMPI DUP1 PUSH4 0xF0F44260 EQ PUSH2 0x3D1 JUMPI DUP1 PUSH4 0xF71D96CB EQ PUSH2 0x3ED JUMPI PUSH2 0x135 JUMP JUMPDEST DUP1 PUSH4 0x924CCA9A EQ PUSH2 0x2A7 JUMPI DUP1 PUSH4 0xA217FDDF EQ PUSH2 0x2C5 JUMPI DUP1 PUSH4 0xAD954878 EQ PUSH2 0x2E3 JUMPI DUP1 PUSH4 0xB0D54BCF EQ PUSH2 0x313 JUMPI DUP1 PUSH4 0xBCA7D4E1 EQ PUSH2 0x32F JUMPI PUSH2 0x135 JUMP JUMPDEST DUP1 PUSH4 0x75B238FC GT PUSH2 0xFD JUMPI DUP1 PUSH4 0x75B238FC EQ PUSH2 0x1EF JUMPI DUP1 PUSH4 0x7AABF58A EQ PUSH2 0x20D JUMPI DUP1 PUSH4 0x8301B93D EQ PUSH2 0x229 JUMPI DUP1 PUSH4 0x85198705 EQ PUSH2 0x247 JUMPI DUP1 PUSH4 0x91D14854 EQ PUSH2 0x277 JUMPI PUSH2 0x135 JUMP JUMPDEST DUP1 PUSH4 0x1FFC9A7 EQ PUSH2 0x139 JUMPI DUP1 PUSH4 0x248A9CA3 EQ PUSH2 0x169 JUMPI DUP1 PUSH4 0x2F2FF15D EQ PUSH2 0x199 JUMPI DUP1 PUSH4 0x36568ABE EQ PUSH2 0x1B5 JUMPI DUP1 PUSH4 0x61D027B3 EQ PUSH2 0x1D1 JUMPI JUMPDEST PUSH0 PUSH0 REVERT JUMPDEST PUSH2 0x153 PUSH1 0x4 DUP1 CALLDATASIZE SUB DUP2 ADD SWAP1 PUSH2 0x14E SWAP2 SWAP1 PUSH2 0x1531 JUMP JUMPDEST PUSH2 0x41F JUMP JUMPDEST PUSH1 0x40 MLOAD PUSH2 0x160 SWAP2 SWAP1 PUSH2 0x1576 JUMP JUMPDEST PUSH1 0x40 MLOAD DUP1 SWAP2 SUB SWAP1 RETURN JUMPDEST PUSH2 0x183 PUSH1 0x4 DUP1 CALLDATASIZE SUB DUP2 ADD SWAP1 PUSH2 0x17E SWAP2 SWAP1 PUSH2 0x15C2 JUMP JUMPDEST PUSH2 0x498 JUMP JUMPDEST PUSH1 0x40 MLOAD PUSH2 0x190 SWAP2 SWAP1 PUSH2 0x15FC JUMP JUMPDEST PUSH1 0x40 MLOAD DUP1 SWAP2 SUB SWAP1 RETURN JUMPDEST PUSH2 0x1B3 PUSH1 0x4 DUP1 CALLDATASIZE SUB DUP2 ADD SWAP1 PUSH2 0x1AE SWAP2 SWAP1 PUSH2 0x166F JUMP JUMPDEST PUSH2 0x4B5 JUMP JUMPDEST STOP JUMPDEST PUSH2 0x1CF PUSH1 0x4 DUP1 CALLDATASIZE SUB DUP2 ADD SWAP1 PUSH2 0x1CA SWAP2 SWAP1 PUSH2 0x166F JUMP JUMPDEST PUSH2 0x4D7 JUMP JUMPDEST STOP JUMPDEST PUSH2 0x1D9 PUSH2 0x552 JUMP JUMPDEST PUSH1 0x40 MLOAD PUSH2 0x1E6 SWAP2 SWAP1 PUSH2 0x16BC JUMP JUMPDEST PUSH1 0x40 MLOAD DUP1 SWAP2 SUB SWAP1 RETURN JUMPDEST PUSH2 0x1F7 PUSH2 0x577 JUMP JUMPDEST PUSH1 0x40 MLOAD PUSH2 0x204 SWAP2 SWAP1 PUSH2 0x15FC JUMP JUMPDEST PUSH1 0x40 MLOAD DUP1 SWAP2 SUB SWAP1 RETURN JUMPDEST PUSH2 0x227 PUSH1 0x4 DUP1 CALLDATASIZE SUB DUP2 ADD SWAP1 PUSH2 0x222 SWAP2 SWAP1 PUSH2 0x1708 JUMP JUMPDEST PUSH2 0x59B JUMP JUMPDEST STOP JUMPDEST PUSH2 0x231 PUSH2 0x94B JUMP JUMPDEST PUSH1 0x40 MLOAD PUSH2 0x23E SWAP2 SWAP1 PUSH2 0x17B3 JUMP JUMPDEST PUSH1 0x40 MLOAD DUP1 SWAP2 SUB SWAP1 RETURN JUMPDEST PUSH2 0x261 PUSH1 0x4 DUP1 CALLDATASIZE SUB DUP2 ADD SWAP1 PUSH2 0x25C SWAP2 SWAP1 PUSH2 0x17CC JUMP JUMPDEST PUSH2 0x96F JUMP JUMPDEST PUSH1 0x40 MLOAD PUSH2 0x26E SWAP2 SWAP1 PUSH2 0x1819 JUMP JUMPDEST PUSH1 0x40 MLOAD DUP1 SWAP2 SUB SWAP1 RETURN JUMPDEST PUSH2 0x291 PUSH1 0x4 DUP1 CALLDATASIZE SUB DUP2 ADD SWAP1 PUSH2 0x28C SWAP2 SWAP1 PUSH2 0x166F JUMP JUMPDEST PUSH2 0x9C5 JUMP JUMPDEST PUSH1 0x40 MLOAD PUSH2 0x29E SWAP2 SWAP1 PUSH2 0x1576 JUMP JUMPDEST PUSH1 0x40 MLOAD DUP1 SWAP2 SUB SWAP1 RETURN JUMPDEST PUSH2 0x2AF PUSH2 0xA29 JUMP JUMPDEST PUSH1 0x40 MLOAD PUSH2 0x2BC SWAP2 SWAP1 PUSH2 0x1819 JUMP JUMPDEST PUSH1 0x40 MLOAD DUP1 SWAP2 SUB SWAP1 RETURN JUMPDEST PUSH2 0x2CD PUSH2 0xA2F JUMP JUMPDEST PUSH1 0x40 MLOAD PUSH2 0x2DA SWAP2 SWAP1 PUSH2 0x15FC JUMP JUMPDEST PUSH1 0x40 MLOAD DUP1 SWAP2 SUB SWAP1 RETURN JUMPDEST PUSH2 0x2FD PUSH1 0x4 DUP1 CALLDATASIZE SUB DUP2 ADD SWAP1 PUSH2 0x2F8 SWAP2 SWAP1 PUSH2 0x17CC JUMP JUMPDEST PUSH2 0xA35 JUMP JUMPDEST PUSH1 0x40 MLOAD PUSH2 0x30A SWAP2 SWAP1 PUSH2 0x1819 JUMP JUMPDEST PUSH1 0x40 MLOAD DUP1 SWAP2 SUB SWAP1 RETURN JUMPDEST PUSH2 0x32D PUSH1 0x4 DUP1 CALLDATASIZE SUB DUP2 ADD SWAP1 PUSH2 0x328 SWAP2 SWAP1 PUSH2 0x1832 JUMP JUMPDEST PUSH2 0xA55 JUMP JUMPDEST STOP JUMPDEST PUSH2 0x349 PUSH1 0x4 DUP1 CALLDATASIZE SUB DUP2 ADD SWAP1 PUSH2 0x344 SWAP2 SWAP1 PUSH2 0x1832 JUMP JUMPDEST PUSH2 0xB06 JUMP JUMPDEST PUSH1 0x40 MLOAD PUSH2 0x356 SWAP2 SWAP1 PUSH2 0x1819 JUMP JUMPDEST PUSH1 0x40 MLOAD DUP1 SWAP2 SUB SWAP1 RETURN JUMPDEST PUSH2 0x379 PUSH1 0x4 DUP1 CALLDATASIZE SUB DUP2 ADD SWAP1 PUSH2 0x374 SWAP2 SWAP1 PUSH2 0x166F JUMP JUMPDEST PUSH2 0xB65 JUMP JUMPDEST STOP JUMPDEST PUSH2 0x395 PUSH1 0x4 DUP1 CALLDATASIZE SUB DUP2 ADD SWAP1 PUSH2 0x390 SWAP2 SWAP1 PUSH2 0x1708 JUMP JUMPDEST PUSH2 0xB87 JUMP JUMPDEST STOP JUMPDEST PUSH2 0x39F PUSH2 0xF6F JUMP JUMPDEST PUSH1 0x40 MLOAD PUSH2 0x3AC SWAP2 SWAP1 PUSH2 0x1819 JUMP JUMPDEST PUSH1 0x40 MLOAD DUP1 SWAP2 SUB SWAP1 RETURN JUMPDEST PUSH2 0x3CF PUSH1 0x4 DUP1 CALLDATASIZE SUB DUP2 ADD SWAP1 PUSH2 0x3CA SWAP2 SWAP1 PUSH2 0x1832 JUMP JUMPDEST PUSH2 0xF75 JUMP JUMPDEST STOP JUMPDEST PUSH2 0x3EB PUSH1 0x4 DUP1 CALLDATASIZE SUB DUP2 ADD SWAP1 PUSH2 0x3E6 SWAP2 SWAP1 PUSH2 0x185D JUMP JUMPDEST PUSH2 0x109E JUMP JUMPDEST STOP JUMPDEST PUSH2 0x407 PUSH1 0x4 DUP1 CALLDATASIZE SUB DUP2 ADD SWAP1 PUSH2 0x402 SWAP2 SWAP1 PUSH2 0x1832 JUMP JUMPDEST PUSH2 0x11B1 JUMP JUMPDEST PUSH1 0x40 MLOAD PUSH2 0x416 SWAP4 SWAP3 SWAP2 SWAP1 PUSH2 0x1888 JUMP JUMPDEST PUSH1 0x40 MLOAD DUP1 SWAP2 SUB SWAP1 RETURN JUMPDEST PUSH0 PUSH32 0x7965DB0B00000000000000000000000000000000000000000000000000000000 PUSH28 0xFFFFFFFFFFFFFFFFFFFFFFFFFFFFFFFFFFFFFFFFFFFFFFFFFFFFFFFF NOT AND DUP3 PUSH28 0xFFFFFFFFFFFFFFFFFFFFFFFFFFFFFFFFFFFFFFFFFFFFFFFFFFFFFFFF NOT AND EQ DUP1 PUSH2 0x491 JUMPI POP PUSH2 0x490 DUP3 PUSH2 0x11E3 JUMP JUMPDEST JUMPDEST SWAP1 POP SWAP2 SWAP1 POP JUMP JUMPDEST PUSH0 PUSH1 0x1 PUSH0 DUP4 DUP2 MSTORE PUSH1 0x20 ADD SWAP1 DUP2 MSTORE PUSH1 0x20 ADD PUSH0 KECCAK256 PUSH1 0x1 ADD SLOAD SWAP1 POP SWAP2 SWAP1 POP JUMP JUMPDEST PUSH2 0x4BE DUP3 PUSH2 0x498 JUMP JUMPDEST PUSH2 0x4C7 DUP2 PUSH2 0x124C JUMP JUMPDEST PUSH2 0x4D1 DUP4 DUP4 PUSH2 0x1260 JUMP JUMPDEST POP POP POP POP JUMP JUMPDEST PUSH2 0x4DF PUSH2 0x1349 JUMP JUMPDEST PUSH20 0xFFFFFFFFFFFFFFFFFFFFFFFFFFFFFFFFFFFFFFFF AND DUP2 PUSH20 0xFFFFFFFFFFFFFFFFFFFFFFFFFFFFFFFFFFFFFFFF AND EQ PUSH2 0x543 JUMPI PUSH1 0x40 MLOAD PUSH32 0x6697B23200000000000000000000000000000000000000000000000000000000 DUP2 MSTORE PUSH1 0x4 ADD PUSH1 0x40 MLOAD DUP1 SWAP2 SUB SWAP1 REVERT JUMPDEST PUSH2 0x54D DUP3 DUP3 PUSH2 0x1350 JUMP JUMPDEST POP POP POP JUMP JUMPDEST PUSH1 0x2 PUSH0 SWAP1 SLOAD SWAP1 PUSH2 0x100 EXP SWAP1 DIV PUSH20 0xFFFFFFFFFFFFFFFFFFFFFFFFFFFFFFFFFFFFFFFF AND DUP2 JUMP JUMPDEST PUSH32 0xA49807205CE4D355092EF5A8A18F56E8913CF4A201FBE287825B095693C21775 DUP2 JUMP JUMPDEST PUSH2 0x5A3 PUSH2 0x143A JUMP JUMPDEST PUSH0 PUSH1 0x4 PUSH0 DUP6 DUP2 MSTORE PUSH1 0x20 ADD SWAP1 DUP2 MSTORE PUSH1 0x20 ADD PUSH0 KECCAK256 SWAP1 POP DUP1 PUSH1 0x2 ADD PUSH0 SWAP1 SLOAD SWAP1 PUSH2 0x100 EXP SWAP1 DIV PUSH1 0xFF AND PUSH2 0x607 JUMPI PUSH1 0x40 MLOAD PUSH32 0x8C379A000000000000000000000000000000000000000000000000000000000 DUP2 MSTORE PUSH1 0x4 ADD PUSH2 0x5FE SWAP1 PUSH2 0x1917 JUMP JUMPDEST PUSH1 0x40 MLOAD DUP1 SWAP2 SUB SWAP1 REVERT JUMPDEST PUSH0 DUP4 GT PUSH2 0x649 JUMPI PUSH1 0x40 MLOAD PUSH32 0x8C379A000000000000000000000000000000000000000000000000000000000 DUP2 MSTORE PUSH1 0x4 ADD PUSH2 0x640 SWAP1 PUSH2 0x197F JUMP JUMPDEST PUSH1 0x40 MLOAD DUP1 SWAP2 SUB SWAP1 REVERT JUMPDEST PUSH32 0x0 PUSH20 0xFFFFFFFFFFFFFFFFFFFFFFFFFFFFFFFFFFFFFFFF AND PUSH4 0x23B872DD CALLER ADDRESS DUP7 PUSH1 0x40 MLOAD DUP5 PUSH4 0xFFFFFFFF AND PUSH1 0xE0 SHL DUP2 MSTORE PUSH1 0x4 ADD PUSH2 0x6A6 SWAP4 SWAP3 SWAP2 SWAP1 PUSH2 0x199D JUMP JUMPDEST PUSH1 0x20 PUSH1 0x40 MLOAD DUP1 DUP4 SUB DUP2 PUSH0 DUP8 GAS CALL ISZERO DUP1 ISZERO PUSH2 0x6C2 JUMPI RETURNDATASIZE PUSH0 PUSH0 RETURNDATACOPY RETURNDATASIZE PUSH0 REVERT JUMPDEST POP POP POP POP PUSH1 0x40 MLOAD RETURNDATASIZE PUSH1 0x1F NOT PUSH1 0x1F DUP3 ADD AND DUP3 ADD DUP1 PUSH1 0x40 MSTORE POP DUP2 ADD SWAP1 PUSH2 0x6E6 SWAP2 SWAP1 PUSH2 0x19FC JUMP JUMPDEST POP PUSH0 PUSH2 0x2710 PUSH1 0x3 SLOAD DUP6 PUSH2 0x6F9 SWAP2 SWAP1 PUSH2 0x1A54 JUMP JUMPDEST PUSH2 0x703 SWAP2 SWAP1 PUSH2 0x1AC2 JUMP JUMPDEST SWAP1 POP PUSH0 DUP2 DUP6 PUSH2 0x712 SWAP2 SWAP1 PUSH2 0x1AF2 JUMP JUMPDEST SWAP1 POP PUSH0 DUP3 GT ISZERO PUSH2 0x7DA JUMPI PUSH32 0x0 PUSH20 0xFFFFFFFFFFFFFFFFFFFFFFFFFFFFFFFFFFFFFFFF AND PUSH4 0xA9059CBB PUSH1 0x2 PUSH0 SWAP1 SLOAD SWAP1 PUSH2 0x100 EXP SWAP1 DIV PUSH20 0xFFFFFFFFFFFFFFFFFFFFFFFFFFFFFFFFFFFFFFFF AND DUP5 PUSH1 0x40 MLOAD DUP4 PUSH4 0xFFFFFFFF AND PUSH1 0xE0 SHL DUP2 MSTORE PUSH1 0x4 ADD PUSH2 0x798 SWAP3 SWAP2 SWAP1 PUSH2 0x1B25 JUMP JUMPDEST PUSH1 0x20 PUSH1 0x40 MLOAD DUP1 DUP4 SUB DUP2 PUSH0 DUP8 GAS CALL ISZERO DUP1 ISZERO PUSH2 0x7B4 JUMPI RETURNDATASIZE PUSH0 PUSH0 RETURNDATACOPY RETURNDATASIZE PUSH0 REVERT JUMPDEST POP POP POP POP PUSH1 0x40 MLOAD RETURNDATASIZE PUSH1 0x1F NOT PUSH1 0x1F DUP3 ADD AND DUP3 ADD DUP1 PUSH1 0x40 MSTORE POP DUP2 ADD SWAP1 PUSH2 0x7D8 SWAP2 SWAP1 PUSH2 0x19FC JUMP JUMPDEST POP JUMPDEST PUSH0 PUSH0 DUP5 PUSH0 ADD SLOAD SUB PUSH2 0x7ED JUMPI DUP2 SWAP1 POP PUSH2 0x80E JUMP JUMPDEST DUP4 PUSH1 0x1 ADD SLOAD DUP5 PUSH0 ADD SLOAD DUP4 PUSH2 0x801 SWAP2 SWAP1 PUSH2 0x1A54 JUMP JUMPDEST PUSH2 0x80B SWAP2 SWAP1 PUSH2 0x1AC2 JUMP JUMPDEST SWAP1 POP JUMPDEST DUP5 DUP2 LT ISZERO PUSH2 0x851 JUMPI PUSH1 0x40 MLOAD PUSH32 0x8C379A000000000000000000000000000000000000000000000000000000000 DUP2 MSTORE PUSH1 0x4 ADD PUSH2 0x848 SWAP1 PUSH2 0x1B96 JUMP JUMPDEST PUSH1 0x40 MLOAD DUP1 SWAP2 SUB SWAP1 REVERT JUMPDEST DUP1 DUP5 PUSH0 ADD PUSH0 DUP3 DUP3 SLOAD PUSH2 0x863 SWAP2 SWAP1 PUSH2 0x1BB4 JUMP JUMPDEST SWAP3 POP POP DUP2 SWAP1 SSTORE POP DUP2 DUP5 PUSH1 0x1 ADD PUSH0 DUP3 DUP3 SLOAD PUSH2 0x87D SWAP2 SWAP1 PUSH2 0x1BB4 JUMP JUMPDEST SWAP3 POP POP DUP2 SWAP1 SSTORE POP DUP1 PUSH1 0x5 PUSH0 DUP10 DUP2 MSTORE PUSH1 0x20 ADD SWAP1 DUP2 MSTORE PUSH1 0x20 ADD PUSH0 KECCAK256 PUSH0 CALLER PUSH20 0xFFFFFFFFFFFFFFFFFFFFFFFFFFFFFFFFFFFFFFFF AND PUSH20 0xFFFFFFFFFFFFFFFFFFFFFFFFFFFFFFFFFFFFFFFF AND DUP2 MSTORE PUSH1 0x20 ADD SWAP1 DUP2 MSTORE PUSH1 0x20 ADD PUSH0 KECCAK256 PUSH0 DUP3 DUP3 SLOAD PUSH2 0x8DF SWAP2 SWAP1 PUSH2 0x1BB4 JUMP JUMPDEST SWAP3 POP POP DUP2 SWAP1 SSTORE POP CALLER PUSH20 0xFFFFFFFFFFFFFFFFFFFFFFFFFFFFFFFFFFFFFFFF AND PUSH32 0xE64E13A60F1ED7C5D8E721FE57012E0227812F9FC5B0538A9AA611EA8507C655 DUP9 DUP9 DUP5 DUP8 PUSH1 0x40 MLOAD PUSH2 0x932 SWAP5 SWAP4 SWAP3 SWAP2 SWAP1 PUSH2 0x1BE7 JUMP JUMPDEST PUSH1 0x40 MLOAD DUP1 SWAP2 SUB SWAP1 LOG2 POP POP POP POP PUSH2 0x946 PUSH2 0x147E JUMP JUMPDEST POP POP POP JUMP JUMPDEST PUSH32 0x0 DUP2 JUMP JUMPDEST PUSH0 PUSH1 0x5 PUSH0 DUP5 DUP2 MSTORE PUSH1 0x20 ADD SWAP1 DUP2 MSTORE PUSH1 0x20 ADD PUSH0 KECCAK256 PUSH0 DUP4 PUSH20 0xFFFFFFFFFFFFFFFFFFFFFFFFFFFFFFFFFFFFFFFF AND PUSH20 0xFFFFFFFFFFFFFFFFFFFFFFFFFFFFFFFFFFFFFFFF AND DUP2 MSTORE PUSH1 0x20 ADD SWAP1 DUP2 MSTORE PUSH1 0x20 ADD PUSH0 KECCAK256 SLOAD SWAP1 POP SWAP3 SWAP2 POP POP JUMP JUMPDEST PUSH0 PUSH1 0x1 PUSH0 DUP5 DUP2 MSTORE PUSH1 0x20 ADD SWAP1 DUP2 MSTORE PUSH1 0x20 ADD PUSH0 KECCAK256 PUSH0 ADD PUSH0 DUP4 PUSH20 0xFFFFFFFFFFFFFFFFFFFFFFFFFFFFFFFFFFFFFFFF AND PUSH20 0xFFFFFFFFFFFFFFFFFFFFFFFFFFFFFFFFFFFFFFFF AND DUP2 MSTORE PUSH1 0x20 ADD SWAP1 DUP2 MSTORE PUSH1 0x20 ADD PUSH0 KECCAK256 PUSH0 SWAP1 SLOAD SWAP1 PUSH2 0x100 EXP SWAP1 DIV PUSH1 0xFF AND SWAP1 POP SWAP3 SWAP2 POP POP JUMP JUMPDEST PUSH1 0x3 SLOAD DUP2 JUMP JUMPDEST PUSH0 PUSH0 SHL DUP2 JUMP JUMPDEST PUSH1 0x5 PUSH1 0x20 MSTORE DUP2 PUSH0 MSTORE PUSH1 0x40 PUSH0 KECCAK256 PUSH1 0x20 MSTORE DUP1 PUSH0 MSTORE PUSH1 0x40 PUSH0 KECCAK256 PUSH0 SWAP2 POP SWAP2 POP POP SLOAD DUP2 JUMP JUMPDEST PUSH32 0xA49807205CE4D355092EF5A8A18F56E8913CF4A201FBE287825B095693C21775 PUSH2 0xA7F DUP2 PUSH2 0x124C JUMP JUMPDEST PUSH2 0x3E8 DUP3 GT ISZERO PUSH2 0xAC4 JUMPI PUSH1 0x40 MLOAD PUSH32 0x8C379A000000000000000000000000000000000000000000000000000000000 DUP2 MSTORE PUSH1 0x4 ADD PUSH2 0xABB SWAP1 PUSH2 0x1C74 JUMP JUMPDEST PUSH1 0x40 MLOAD DUP1 SWAP2 SUB SWAP1 REVERT JUMPDEST DUP2 PUSH1 0x3 DUP2 SWAP1 SSTORE POP PUSH32 0xA3DFE13986DA4BCFDC32F544EBE130CB8EC20A2AFC45E7C3994975076A08E578 DUP3 PUSH1 0x40 MLOAD PUSH2 0xAFA SWAP2 SWAP1 PUSH2 0x1819 JUMP JUMPDEST PUSH1 0x40 MLOAD DUP1 SWAP2 SUB SWAP1 LOG1 POP POP JUMP JUMPDEST PUSH0 PUSH0 PUSH1 0x4 PUSH0 DUP5 DUP2 MSTORE PUSH1 0x20 ADD SWAP1 DUP2 MSTORE PUSH1 0x20 ADD PUSH0 KECCAK256 SWAP1 POP PUSH0 DUP2 PUSH0 ADD SLOAD SUB PUSH2 0xB36 JUMPI PUSH8 0xDE0B6B3A7640000 SWAP2 POP POP PUSH2 0xB60 JUMP JUMPDEST DUP1 PUSH0 ADD SLOAD PUSH8 0xDE0B6B3A7640000 DUP3 PUSH1 0x1 ADD SLOAD PUSH2 0xB52 SWAP2 SWAP1 PUSH2 0x1A54 JUMP JUMPDEST PUSH2 0xB5C SWAP2 SWAP1 PUSH2 0x1AC2 JUMP JUMPDEST SWAP2 POP POP JUMPDEST SWAP2 SWAP1 POP JUMP JUMPDEST PUSH2 0xB6E DUP3 PUSH2 0x498 JUMP JUMPDEST PUSH2 0xB77 DUP2 PUSH2 0x124C JUMP JUMPDEST PUSH2 0xB81 DUP4 DUP4 PUSH2 0x1350 JUMP JUMPDEST POP POP POP POP JUMP JUMPDEST PUSH2 0xB8F PUSH2 0x143A JUMP JUMPDEST PUSH0 PUSH1 0x4 PUSH0 DUP6 DUP2 MSTORE PUSH1 0x20 ADD SWAP1 DUP2 MSTORE PUSH1 0x20 ADD PUSH0 KECCAK256 SWAP1 POP DUP1 PUSH1 0x2 ADD PUSH0 SWAP1 SLOAD SWAP1 PUSH2 0x100 EXP SWAP1 DIV PUSH1 0xFF AND PUSH2 0xBF3 JUMPI PUSH1 0x40 MLOAD PUSH32 0x8C379A000000000000000000000000000000000000000000000000000000000 DUP2 MSTORE PUSH1 0x4 ADD PUSH2 0xBEA SWAP1 PUSH2 0x1917 JUMP JUMPDEST PUSH1 0x40 MLOAD DUP1 SWAP2 SUB SWAP1 REVERT JUMPDEST DUP3 PUSH1 0x5 PUSH0 DUP7 DUP2 MSTORE PUSH1 0x20 ADD SWAP1 DUP2 MSTORE PUSH1 0x20 ADD PUSH0 KECCAK256 PUSH0 CALLER PUSH20 0xFFFFFFFFFFFFFFFFFFFFFFFFFFFFFFFFFFFFFFFF AND PUSH20 0xFFFFFFFFFFFFFFFFFFFFFFFFFFFFFFFFFFFFFFFF AND DUP2 MSTORE PUSH1 0x20 ADD SWAP1 DUP2 MSTORE PUSH1 0x20 ADD PUSH0 KECCAK256 SLOAD LT ISZERO PUSH2 0xC82 JUMPI PUSH1 0x40 MLOAD PUSH32 0x8C379A000000000000000000000000000000000000000000000000000000000 DUP2 MSTORE PUSH1 0x4 ADD PUSH2 0xC79 SWAP1 PUSH2 0x1CDC JUMP JUMPDEST PUSH1 0x40 MLOAD DUP1 SWAP2 SUB SWAP1 REVERT JUMPDEST PUSH0 DUP2 PUSH0 ADD SLOAD DUP3 PUSH1 0x1 ADD SLOAD DUP6 PUSH2 0xC97 SWAP2 SWAP1 PUSH2 0x1A54 JUMP JUMPDEST PUSH2 0xCA1 SWAP2 SWAP1 PUSH2 0x1AC2 JUMP JUMPDEST SWAP1 POP PUSH0 PUSH2 0x2710 PUSH1 0x3 SLOAD DUP4 PUSH2 0xCB5 SWAP2 SWAP1 PUSH2 0x1A54 JUMP JUMPDEST PUSH2 0xCBF SWAP2 SWAP1 PUSH2 0x1AC2 JUMP JUMPDEST SWAP1 POP PUSH0 DUP2 DUP4 PUSH2 0xCCE SWAP2 SWAP1 PUSH2 0x1AF2 JUMP JUMPDEST SWAP1 POP DUP5 DUP2 LT ISZERO PUSH2 0xD13 JUMPI PUSH1 0x40 MLOAD PUSH32 0x8C379A000000000000000000000000000000000000000000000000000000000 DUP2 MSTORE PUSH1 0x4 ADD PUSH2 0xD0A SWAP1 PUSH2 0x1B96 JUMP JUMPDEST PUSH1 0x40 MLOAD DUP1 SWAP2 SUB SWAP1 REVERT JUMPDEST DUP6 DUP5 PUSH0 ADD PUSH0 DUP3 DUP3 SLOAD PUSH2 0xD25 SWAP2 SWAP1 PUSH2 0x1AF2 JUMP JUMPDEST SWAP3 POP POP DUP2 SWAP1 SSTORE POP DUP3 DUP5 PUSH1 0x1 ADD PUSH0 DUP3 DUP3 SLOAD PUSH2 0xD3F SWAP2 SWAP1 PUSH2 0x1AF2 JUMP JUMPDEST SWAP3 POP POP DUP2 SWAP1 SSTORE POP DUP6 PUSH1 0x5 PUSH0 DUP10 DUP2 MSTORE PUSH1 0x20 ADD SWAP1 DUP2 MSTORE PUSH1 0x20 ADD PUSH0 KECCAK256 PUSH0 CALLER PUSH20 0xFFFFFFFFFFFFFFFFFFFFFFFFFFFFFFFFFFFFFFFF AND PUSH20 0xFFFFFFFFFFFFFFFFFFFFFFFFFFFFFFFFFFFFFFFF AND DUP2 MSTORE PUSH1 0x20 ADD SWAP1 DUP2 MSTORE PUSH1 0x20 ADD PUSH0 KECCAK256 PUSH0 DUP3 DUP3 SLOAD PUSH2 0xDA1 SWAP2 SWAP1 PUSH2 0x1AF2 JUMP JUMPDEST SWAP3 POP POP DUP2 SWAP1 SSTORE POP PUSH32 0x0 PUSH20 0xFFFFFFFFFFFFFFFFFFFFFFFFFFFFFFFFFFFFFFFF AND PUSH4 0xA9059CBB CALLER DUP4 PUSH1 0x40 MLOAD DUP4 PUSH4 0xFFFFFFFF AND PUSH1 0xE0 SHL DUP2 MSTORE PUSH1 0x4 ADD PUSH2 0xE03 SWAP3 SWAP2 SWAP1 PUSH2 0x1B25 JUMP JUMPDEST PUSH1 0x20 PUSH1 0x40 MLOAD DUP1 DUP4 SUB DUP2 PUSH0 DUP8 GAS CALL ISZERO DUP1 ISZERO PUSH2 0xE1F JUMPI RETURNDATASIZE PUSH0 PUSH0 RETURNDATACOPY RETURNDATASIZE PUSH0 REVERT JUMPDEST POP POP POP POP PUSH1 0x40 MLOAD RETURNDATASIZE PUSH1 0x1F NOT PUSH1 0x1F DUP3 ADD AND DUP3 ADD DUP1 PUSH1 0x40 MSTORE POP DUP2 ADD SWAP1 PUSH2 0xE43 SWAP2 SWAP1 PUSH2 0x19FC JUMP JUMPDEST POP PUSH0 DUP3 GT ISZERO PUSH2 0xF0A JUMPI PUSH32 0x0 PUSH20 0xFFFFFFFFFFFFFFFFFFFFFFFFFFFFFFFFFFFFFFFF AND PUSH4 0xA9059CBB PUSH1 0x2 PUSH0 SWAP1 SLOAD SWAP1 PUSH2 0x100 EXP SWAP1 DIV PUSH20 0xFFFFFFFFFFFFFFFFFFFFFFFFFFFFFFFFFFFFFFFF AND DUP5 PUSH1 0x40 MLOAD DUP4 PUSH4 0xFFFFFFFF AND PUSH1 0xE0 SHL DUP2 MSTORE PUSH1 0x4 ADD PUSH2 0xEC8 SWAP3 SWAP2 SWAP1 PUSH2 0x1B25 JUMP JUMPDEST PUSH1 0x20 PUSH1 0x40 MLOAD DUP1 DUP4 SUB DUP2 PUSH0 DUP8 GAS CALL ISZERO DUP1 ISZERO PUSH2 0xEE4 JUMPI RETURNDATASIZE PUSH0 PUSH0 RETURNDATACOPY RETURNDATASIZE PUSH0 REVERT JUMPDEST POP POP POP POP PUSH1 0x40 MLOAD RETURNDATASIZE PUSH1 0x1F NOT PUSH1 0x1F DUP3 ADD AND DUP3 ADD DUP1 PUSH1 0x40 MSTORE POP DUP2 ADD SWAP1 PUSH2 0xF08 SWAP2 SWAP1 PUSH2 0x19FC JUMP JUMPDEST POP JUMPDEST CALLER PUSH20 0xFFFFFFFFFFFFFFFFFFFFFFFFFFFFFFFFFFFFFFFF AND PUSH32 0x2C68D33E5C92EFC182EEC06AC794258DFEDCC114AAC3B5FA9BDC19A4B7871F1A DUP9 DUP9 DUP5 DUP7 PUSH1 0x40 MLOAD PUSH2 0xF56 SWAP5 SWAP4 SWAP3 SWAP2 SWAP1 PUSH2 0x1BE7 JUMP JUMPDEST PUSH1 0x40 MLOAD DUP1 SWAP2 SUB SWAP1 LOG2 POP POP POP POP PUSH2 0xF6A PUSH2 0x147E JUMP JUMPDEST POP POP POP JUMP JUMPDEST PUSH2 0x2710 DUP2 JUMP JUMPDEST PUSH32 0xA49807205CE4D355092EF5A8A18F56E8913CF4A201FBE287825B095693C21775 PUSH2 0xF9F DUP2 PUSH2 0x124C JUMP JUMPDEST PUSH1 0x4 PUSH0 DUP4 DUP2 MSTORE PUSH1 0x20 ADD SWAP1 DUP2 MSTORE PUSH1 0x20 ADD PUSH0 KECCAK256 PUSH1 0x2 ADD PUSH0 SWAP1 SLOAD SWAP1 PUSH2 0x100 EXP SWAP1 DIV PUSH1 0xFF AND ISZERO PUSH2 0x1000 JUMPI PUSH1 0x40 MLOAD PUSH32 0x8C379A000000000000000000000000000000000000000000000000000000000 DUP2 MSTORE PUSH1 0x4 ADD PUSH2 0xFF7 SWAP1 PUSH2 0x1D44 JUMP JUMPDEST PUSH1 0x40 MLOAD DUP1 SWAP2 SUB SWAP1 REVERT JUMPDEST PUSH1 0x40 MLOAD DUP1 PUSH1 0x60 ADD PUSH1 0x40 MSTORE DUP1 PUSH0 DUP2 MSTORE PUSH1 0x20 ADD PUSH0 DUP2 MSTORE PUSH1 0x20 ADD PUSH1 0x1 ISZERO ISZERO DUP2 MSTORE POP PUSH1 0x4 PUSH0 DUP5 DUP2 MSTORE PUSH1 0x20 ADD SWAP1 DUP2 MSTORE PUSH1 0x20 ADD PUSH0 KECCAK256 PUSH0 DUP3 ADD MLOAD DUP2 PUSH0 ADD SSTORE PUSH1 0x20 DUP3 ADD MLOAD DUP2 PUSH1 0x1 ADD SSTORE PUSH1 0x40 DUP3 ADD MLOAD DUP2 PUSH1 0x2 ADD PUSH0 PUSH2 0x100 EXP DUP2 SLOAD DUP2 PUSH1 0xFF MUL NOT AND SWAP1 DUP4 ISZERO ISZERO MUL OR SWAP1 SSTORE POP SWAP1 POP POP PUSH32 0x5AF403E238A3F8F7D43C05FF2FAC53C833E031E8FB8EC011B3C8E073D870AD7B DUP3 PUSH1 0x40 MLOAD PUSH2 0x1092 SWAP2 SWAP1 PUSH2 0x1819 JUMP JUMPDEST PUSH1 0x40 MLOAD DUP1 SWAP2 SUB SWAP1 LOG1 POP POP JUMP JUMPDEST PUSH32 0xA49807205CE4D355092EF5A8A18F56E8913CF4A201FBE287825B095693C21775 PUSH2 0x10C8 DUP2 PUSH2 0x124C JUMP JUMPDEST PUSH0 PUSH20 0xFFFFFFFFFFFFFFFFFFFFFFFFFFFFFFFFFFFFFFFF AND DUP3 PUSH20 0xFFFFFFFFFFFFFFFFFFFFFFFFFFFFFFFFFFFFFFFF AND SUB PUSH2 0x1136 JUMPI PUSH1 0x40 MLOAD PUSH32 0x8C379A000000000000000000000000000000000000000000000000000000000 DUP2 MSTORE PUSH1 0x4 ADD PUSH2 0x112D SWAP1 PUSH2 0x1DAC JUMP JUMPDEST PUSH1 0x40 MLOAD DUP1 SWAP2 SUB SWAP1 REVERT JUMPDEST DUP2 PUSH1 0x2 PUSH0 PUSH2 0x100 EXP DUP2 SLOAD DUP2 PUSH20 0xFFFFFFFFFFFFFFFFFFFFFFFFFFFFFFFFFFFFFFFF MUL NOT AND SWAP1 DUP4 PUSH20 0xFFFFFFFFFFFFFFFFFFFFFFFFFFFFFFFFFFFFFFFF AND MUL OR SWAP1 SSTORE POP PUSH32 0x7DAE230F18360D76A040C81F050AA14EB9D6DC7901B20FC5D855E2A20FE814D1 DUP3 PUSH1 0x40 MLOAD PUSH2 0x11A5 SWAP2 SWAP1 PUSH2 0x16BC JUMP JUMPDEST PUSH1 0x40 MLOAD DUP1 SWAP2 SUB SWAP1 LOG1 POP POP JUMP JUMPDEST PUSH1 0x4 PUSH1 0x20 MSTORE DUP1 PUSH0 MSTORE PUSH1 0x40 PUSH0 KECCAK256 PUSH0 SWAP2 POP SWAP1 POP DUP1 PUSH0 ADD SLOAD SWAP1 DUP1 PUSH1 0x1 ADD SLOAD SWAP1 DUP1 PUSH1 0x2 ADD PUSH0 SWAP1 SLOAD SWAP1 PUSH2 0x100 EXP SWAP1 DIV PUSH1 0xFF AND SWAP1 POP DUP4 JUMP JUMPDEST PUSH0 PUSH32 0x1FFC9A700000000000000000000000000000000000000000000000000000000 PUSH28 0xFFFFFFFFFFFFFFFFFFFFFFFFFFFFFFFFFFFFFFFFFFFFFFFFFFFFFFFF NOT AND DUP3 PUSH28 0xFFFFFFFFFFFFFFFFFFFFFFFFFFFFFFFFFFFFFFFFFFFFFFFFFFFFFFFF NOT AND EQ SWAP1 POP SWAP2 SWAP1 POP JUMP JUMPDEST PUSH2 0x125D DUP2 PUSH2 0x1258 PUSH2 0x1349 JUMP JUMPDEST PUSH2 0x1487 JUMP JUMPDEST POP JUMP JUMPDEST PUSH0 PUSH2 0x126B DUP4 DUP4 PUSH2 0x9C5 JUMP JUMPDEST PUSH2 0x133F JUMPI PUSH1 0x1 DUP1 PUSH0 DUP6 DUP2 MSTORE PUSH1 0x20 ADD SWAP1 DUP2 MSTORE PUSH1 0x20 ADD PUSH0 KECCAK256 PUSH0 ADD PUSH0 DUP5 PUSH20 0xFFFFFFFFFFFFFFFFFFFFFFFFFFFFFFFFFFFFFFFF AND PUSH20 0xFFFFFFFFFFFFFFFFFFFFFFFFFFFFFFFFFFFFFFFF AND DUP2 MSTORE PUSH1 0x20 ADD SWAP1 DUP2 MSTORE PUSH1 0x20 ADD PUSH0 KECCAK256 PUSH0 PUSH2 0x100 EXP DUP2 SLOAD DUP2 PUSH1 0xFF MUL NOT AND SWAP1 DUP4 ISZERO ISZERO MUL OR SWAP1 SSTORE POP PUSH2 0x12DC PUSH2 0x1349 JUMP JUMPDEST PUSH20 0xFFFFFFFFFFFFFFFFFFFFFFFFFFFFFFFFFFFFFFFF AND DUP3 PUSH20 0xFFFFFFFFFFFFFFFFFFFFFFFFFFFFFFFFFFFFFFFF AND DUP5 PUSH32 0x2F8788117E7EFF1D82E926EC794901D17C78024A50270940304540A733656F0D PUSH1 0x40 MLOAD PUSH1 0x40 MLOAD DUP1 SWAP2 SUB SWAP1 LOG4 PUSH1 0x1 SWAP1 POP PUSH2 0x1343 JUMP JUMPDEST PUSH0 SWAP1 POP JUMPDEST SWAP3 SWAP2 POP POP JUMP JUMPDEST PUSH0 CALLER SWAP1 POP SWAP1 JUMP JUMPDEST PUSH0 PUSH2 0x135B DUP4 DUP4 PUSH2 0x9C5 JUMP JUMPDEST ISZERO PUSH2 0x1430 JUMPI PUSH0 PUSH1 0x1 PUSH0 DUP6 DUP2 MSTORE PUSH1 0x20 ADD SWAP1 DUP2 MSTORE PUSH1 0x20 ADD PUSH0 KECCAK256 PUSH0 ADD PUSH0 DUP5 PUSH20 0xFFFFFFFFFFFFFFFFFFFFFFFFFFFFFFFFFFFFFFFF AND PUSH20 0xFFFFFFFFFFFFFFFFFFFFFFFFFFFFFFFFFFFFFFFF AND DUP2 MSTORE PUSH1 0x20 ADD SWAP1 DUP2 MSTORE PUSH1 0x20 ADD PUSH0 KECCAK256 PUSH0 PUSH2 0x100 EXP DUP2 SLOAD DUP2 PUSH1 0xFF MUL NOT AND SWAP1 DUP4 ISZERO ISZERO MUL OR SWAP1 SSTORE POP PUSH2 0x13CD PUSH2 0x1349 JUMP JUMPDEST PUSH20 0xFFFFFFFFFFFFFFFFFFFFFFFFFFFFFFFFFFFFFFFF AND DUP3 PUSH20 0xFFFFFFFFFFFFFFFFFFFFFFFFFFFFFFFFFFFFFFFF AND DUP5 PUSH32 0xF6391F5C32D9C69D2A47EA670B442974B53935D1EDC7FD64EB21E047A839171B PUSH1 0x40 MLOAD PUSH1 0x40 MLOAD DUP1 SWAP2 SUB SWAP1 LOG4 PUSH1 0x1 SWAP1 POP PUSH2 0x1434 JUMP JUMPDEST PUSH0 SWAP1 POP JUMPDEST SWAP3 SWAP2 POP POP JUMP JUMPDEST PUSH1 0x2 PUSH0 SLOAD SUB PUSH2 0x1475 JUMPI PUSH1 0x40 MLOAD PUSH32 0x3EE5AEB500000000000000000000000000000000000000000000000000000000 DUP2 MSTORE PUSH1 0x4 ADD PUSH1 0x40 MLOAD DUP1 SWAP2 SUB SWAP1 REVERT JUMPDEST PUSH1 0x2 PUSH0 DUP2 SWAP1 SSTORE POP JUMP JUMPDEST PUSH1 0x1 PUSH0 DUP2 SWAP1 SSTORE POP JUMP JUMPDEST PUSH2 0x1491 DUP3 DUP3 PUSH2 0x9C5 JUMP JUMPDEST PUSH2 0x14D4 JUMPI DUP1 DUP3 PUSH1 0x40 MLOAD PUSH32 0xE2517D3F00000000000000000000000000000000000000000000000000000000 DUP2 MSTORE PUSH1 0x4 ADD PUSH2 0x14CB SWAP3 SWAP2 SWAP1 PUSH2 0x1DCA JUMP JUMPDEST PUSH1 0x40 MLOAD DUP1 SWAP2 SUB SWAP1 REVERT JUMPDEST POP POP JUMP JUMPDEST PUSH0 PUSH0 REVERT JUMPDEST PUSH0 PUSH32 0xFFFFFFFF00000000000000000000000000000000000000000000000000000000 DUP3 AND SWAP1 POP SWAP2 SWAP1 POP JUMP JUMPDEST PUSH2 0x1510 DUP2 PUSH2 0x14DC JUMP JUMPDEST DUP2 EQ PUSH2 0x151A JUMPI PUSH0 PUSH0 REVERT JUMPDEST POP JUMP JUMPDEST PUSH0 DUP2 CALLDATALOAD SWAP1 POP PUSH2 0x152B DUP2 PUSH2 0x1507 JUMP JUMPDEST SWAP3 SWAP2 POP POP JUMP JUMPDEST PUSH0 PUSH1 0x20 DUP3 DUP5 SUB SLT ISZERO PUSH2 0x1546 JUMPI PUSH2 0x1545 PUSH2 0x14D8 JUMP JUMPDEST JUMPDEST PUSH0 PUSH2 0x1553 DUP5 DUP3 DUP6 ADD PUSH2 0x151D JUMP JUMPDEST SWAP2 POP POP SWAP3 SWAP2 POP POP JUMP JUMPDEST PUSH0 DUP2 ISZERO ISZERO SWAP1 POP SWAP2 SWAP1 POP JUMP JUMPDEST PUSH2 0x1570 DUP2 PUSH2 0x155C JUMP JUMPDEST DUP3 MSTORE POP POP JUMP JUMPDEST PUSH0 PUSH1 0x20 DUP3 ADD SWAP1 POP PUSH2 0x1589 PUSH0 DUP4 ADD DUP5 PUSH2 0x1567 JUMP JUMPDEST SWAP3 SWAP2 POP POP JUMP JUMPDEST PUSH0 DUP2 SWAP1 POP SWAP2 SWAP1 POP JUMP JUMPDEST PUSH2 0x15A1 DUP2 PUSH2 0x158F JUMP JUMPDEST DUP2 EQ PUSH2 0x15AB JUMPI PUSH0 PUSH0 REVERT JUMPDEST POP JUMP JUMPDEST PUSH0 DUP2 CALLDATALOAD SWAP1 POP PUSH2 0x15BC DUP2 PUSH2 0x1598 JUMP JUMPDEST SWAP3 SWAP2 POP POP JUMP JUMPDEST PUSH0 PUSH1 0x20 DUP3 DUP5 SUB SLT ISZERO PUSH2 0x15D7 JUMPI PUSH2 0x15D6 PUSH2 0x14D8 JUMP JUMPDEST JUMPDEST PUSH0 PUSH2 0x15E4 DUP5 DUP3 DUP6 ADD PUSH2 0x15AE JUMP JUMPDEST SWAP2 POP POP SWAP3 SWAP2 POP POP JUMP JUMPDEST PUSH2 0x15F6 DUP2 PUSH2 0x158F JUMP JUMPDEST DUP3 MSTORE POP POP JUMP JUMPDEST PUSH0 PUSH1 0x20 DUP3 ADD SWAP1 POP PUSH2 0x160F PUSH0 DUP4 ADD DUP5 PUSH2 0x15ED JUMP JUMPDEST SWAP3 SWAP2 POP POP JUMP JUMPDEST PUSH0 PUSH20 0xFFFFFFFFFFFFFFFFFFFFFFFFFFFFFFFFFFFFFFFF DUP3 AND SWAP1 POP SWAP2 SWAP1 POP JUMP JUMPDEST PUSH0 PUSH2 0x163E DUP3 PUSH2 0x1615 JUMP JUMPDEST SWAP1 POP SWAP2 SWAP1 POP JUMP JUMPDEST PUSH2 0x164E DUP2 PUSH2 0x1634 JUMP JUMPDEST DUP2 EQ PUSH2 0x1658 JUMPI PUSH0 PUSH0 REVERT JUMPDEST POP JUMP JUMPDEST PUSH0 DUP2 CALLDATALOAD SWAP1 POP PUSH2 0x1669 DUP2 PUSH2 0x1645 JUMP JUMPDEST SWAP3 SWAP2 POP POP JUMP JUMPDEST PUSH0 PUSH0 PUSH1 0x40 DUP4 DUP6 SUB SLT ISZERO PUSH2 0x1685 JUMPI PUSH2 0x1684 PUSH2 0x14D8 JUMP JUMPDEST JUMPDEST PUSH0 PUSH2 0x1692 DUP6 DUP3 DUP7 ADD PUSH2 0x15AE JUMP JUMPDEST SWAP3 POP POP PUSH1 0x20 PUSH2 0x16A3 DUP6 DUP3 DUP7 ADD PUSH2 0x165B JUMP JUMPDEST SWAP2 POP POP SWAP3 POP SWAP3 SWAP1 POP JUMP JUMPDEST PUSH2 0x16B6 DUP2 PUSH2 0x1634 JUMP JUMPDEST DUP3 MSTORE POP POP JUMP JUMPDEST PUSH0 PUSH1 0x20 DUP3 ADD SWAP1 POP PUSH2 0x16CF PUSH0 DUP4 ADD DUP5 PUSH2 0x16AD JUMP JUMPDEST SWAP3 SWAP2 POP POP JUMP JUMPDEST PUSH0 DUP2 SWAP1 POP SWAP2 SWAP1 POP JUMP JUMPDEST PUSH2 0x16E7 DUP2 PUSH2 0x16D5 JUMP JUMPDEST DUP2 EQ PUSH2 0x16F1 JUMPI PUSH0 PUSH0 REVERT JUMPDEST POP JUMP JUMPDEST PUSH0 DUP2 CALLDATALOAD SWAP1 POP PUSH2 0x1702 DUP2 PUSH2 0x16DE JUMP JUMPDEST SWAP3 SWAP2 POP POP JUMP JUMPDEST PUSH0 PUSH0 PUSH0 PUSH1 0x60 DUP5 DUP7 SUB SLT ISZERO PUSH2 0x171F JUMPI PUSH2 0x171E PUSH2 0x14D8 JUMP JUMPDEST JUMPDEST PUSH0 PUSH2 0x172C DUP7 DUP3 DUP8 ADD PUSH2 0x16F4 JUMP JUMPDEST SWAP4 POP POP PUSH1 0x20 PUSH2 0x173D DUP7 DUP3 DUP8 ADD PUSH2 0x16F4 JUMP JUMPDEST SWAP3 POP POP PUSH1 0x40 PUSH2 0x174E DUP7 DUP3 DUP8 ADD PUSH2 0x16F4 JUMP JUMPDEST SWAP2 POP POP SWAP3 POP SWAP3 POP SWAP3 JUMP JUMPDEST PUSH0 DUP2 SWAP1 POP SWAP2 SWAP1 POP JUMP JUMPDEST PUSH0 PUSH2 0x177B PUSH2 0x1776 PUSH2 0x1771 DUP5 PUSH2 0x1615 JUMP JUMPDEST PUSH2 0x1758 JUMP JUMPDEST PUSH2 0x1615 JUMP JUMPDEST SWAP1 POP SWAP2 SWAP1 POP JUMP JUMPDEST PUSH0 PUSH2 0x178C DUP3 PUSH2 0x1761 JUMP JUMPDEST SWAP1 POP SWAP2 SWAP1 POP JUMP JUMPDEST PUSH0 PUSH2 0x179D DUP3 PUSH2 0x1782 JUMP JUMPDEST SWAP1 POP SWAP2 SWAP1 POP JUMP JUMPDEST PUSH2 0x17AD DUP2 PUSH2 0x1793 JUMP JUMPDEST DUP3 MSTORE POP POP JUMP JUMPDEST PUSH0 PUSH1 0x20 DUP3 ADD SWAP1 POP PUSH2 0x17C6 PUSH0 DUP4 ADD DUP5 PUSH2 0x17A4 JUMP JUMPDEST SWAP3 SWAP2 POP POP JUMP JUMPDEST PUSH0 PUSH0 PUSH1 0x40 DUP4 DUP6 SUB SLT ISZERO PUSH2 0x17E2 JUMPI PUSH2 0x17E1 PUSH2 0x14D8 JUMP JUMPDEST JUMPDEST PUSH0 PUSH2 0x17EF DUP6 DUP3 DUP7 ADD PUSH2 0x16F4 JUMP JUMPDEST SWAP3 POP POP PUSH1 0x20 PUSH2 0x1800 DUP6 DUP3 DUP7 ADD PUSH2 0x165B JUMP JUMPDEST SWAP2 POP POP SWAP3 POP SWAP3 SWAP1 POP JUMP JUMPDEST PUSH2 0x1813 DUP2 PUSH2 0x16D5 JUMP JUMPDEST DUP3 MSTORE POP POP JUMP JUMPDEST PUSH0 PUSH1 0x20 DUP3 ADD SWAP1 POP PUSH2 0x182C PUSH0 DUP4 ADD DUP5 PUSH2 0x180A JUMP JUMPDEST SWAP3 SWAP2 POP POP JUMP JUMPDEST PUSH0 PUSH1 0x20 DUP3 DUP5 SUB SLT ISZERO PUSH2 0x1847 JUMPI PUSH2 0x1846 PUSH2 0x14D8 JUMP JUMPDEST JUMPDEST PUSH0 PUSH2 0x1854 DUP5 DUP3 DUP6 ADD PUSH2 0x16F4 JUMP JUMPDEST SWAP2 POP POP SWAP3 SWAP2 POP POP JUMP JUMPDEST PUSH0 PUSH1 0x20 DUP3 DUP5 SUB SLT ISZERO PUSH2 0x1872 JUMPI PUSH2 0x1871 PUSH2 0x14D8 JUMP JUMPDEST JUMPDEST PUSH0 PUSH2 0x187F DUP5 DUP3 DUP6 ADD PUSH2 0x165B JUMP JUMPDEST SWAP2 POP POP SWAP3 SWAP2 POP POP JUMP JUMPDEST PUSH0 PUSH1 0x60 DUP3 ADD SWAP1 POP PUSH2 0x189B PUSH0 DUP4 ADD DUP7 PUSH2 0x180A JUMP JUMPDEST PUSH2 0x18A8 PUSH1 0x20 DUP4 ADD DUP6 PUSH2 0x180A JUMP JUMPDEST PUSH2 0x18B5 PUSH1 0x40 DUP4 ADD DUP5 PUSH2 0x1567 JUMP JUMPDEST SWAP5 SWAP4 POP POP POP POP JUMP JUMPDEST PUSH0 DUP3 DUP3 MSTORE PUSH1 0x20 DUP3 ADD SWAP1 POP SWAP3 SWAP2 POP POP JUMP JUMPDEST PUSH32 0x506C61796572206E6F7420666F756E6400000000000000000000000000000000 PUSH0 DUP3 ADD MSTORE POP JUMP JUMPDEST PUSH0 PUSH2 0x1901 PUSH1 0x10 DUP4 PUSH2 0x18BD JUMP JUMPDEST SWAP2 POP PUSH2 0x190C DUP3 PUSH2 0x18CD JUMP JUMPDEST PUSH1 0x20 DUP3 ADD SWAP1 POP SWAP2 SWAP1 POP JUMP JUMPDEST PUSH0 PUSH1 0x20 DUP3 ADD SWAP1 POP DUP2 DUP2 SUB PUSH0 DUP4 ADD MSTORE PUSH2 0x192E DUP2 PUSH2 0x18F5 JUMP JUMPDEST SWAP1 POP SWAP2 SWAP1 POP JUMP JUMPDEST PUSH32 0x5A65726F2046544B000000000000000000000000000000000000000000000000 PUSH0 DUP3 ADD MSTORE POP JUMP JUMPDEST PUSH0 PUSH2 0x1969 PUSH1 0x8 DUP4 PUSH2 0x18BD JUMP JUMPDEST SWAP2 POP PUSH2 0x1974 DUP3 PUSH2 0x1935 JUMP JUMPDEST PUSH1 0x20 DUP3 ADD SWAP1 POP SWAP2 SWAP1 POP JUMP JUMPDEST PUSH0 PUSH1 0x20 DUP3 ADD SWAP1 POP DUP2 DUP2 SUB PUSH0 DUP4 ADD MSTORE PUSH2 0x1996 DUP2 PUSH2 0x195D JUMP JUMPDEST SWAP1 POP SWAP2 SWAP1 POP JUMP JUMPDEST PUSH0 PUSH1 0x60 DUP3 ADD SWAP1 POP PUSH2 0x19B0 PUSH0 DUP4 ADD DUP7 PUSH2 0x16AD JUMP JUMPDEST PUSH2 0x19BD PUSH1 0x20 DUP4 ADD DUP6 PUSH2 0x16AD JUMP JUMPDEST PUSH2 0x19CA PUSH1 0x40 DUP4 ADD DUP5 PUSH2 0x180A JUMP JUMPDEST SWAP5 SWAP4 POP POP POP POP JUMP JUMPDEST PUSH2 0x19DB DUP2 PUSH2 0x155C JUMP JUMPDEST DUP2 EQ PUSH2 0x19E5 JUMPI PUSH0 PUSH0 REVERT JUMPDEST POP JUMP JUMPDEST PUSH0 DUP2 MLOAD SWAP1 POP PUSH2 0x19F6 DUP2 PUSH2 0x19D2 JUMP JUMPDEST SWAP3 SWAP2 POP POP JUMP JUMPDEST PUSH0 PUSH1 0x20 DUP3 DUP5 SUB SLT ISZERO PUSH2 0x1A11 JUMPI PUSH2 0x1A10 PUSH2 0x14D8 JUMP JUMPDEST JUMPDEST PUSH0 PUSH2 0x1A1E DUP5 DUP3 DUP6 ADD PUSH2 0x19E8 JUMP JUMPDEST SWAP2 POP POP SWAP3 SWAP2 POP POP JUMP JUMPDEST PUSH32 0x4E487B7100000000000000000000000000000000000000000000000000000000 PUSH0 MSTORE PUSH1 0x11 PUSH1 0x4 MSTORE PUSH1 0x24 PUSH0 REVERT JUMPDEST PUSH0 PUSH2 0x1A5E DUP3 PUSH2 0x16D5 JUMP JUMPDEST SWAP2 POP PUSH2 0x1A69 DUP4 PUSH2 0x16D5 JUMP JUMPDEST SWAP3 POP DUP3 DUP3 MUL PUSH2 0x1A77 DUP2 PUSH2 0x16D5 JUMP JUMPDEST SWAP2 POP DUP3 DUP3 DIV DUP5 EQ DUP4 ISZERO OR PUSH2 0x1A8E JUMPI PUSH2 0x1A8D PUSH2 0x1A27 JUMP JUMPDEST JUMPDEST POP SWAP3 SWAP2 POP POP JUMP JUMPDEST PUSH32 0x4E487B7100000000000000000000000000000000000000000000000000000000 PUSH0 MSTORE PUSH1 0x12 PUSH1 0x4 MSTORE PUSH1 0x24 PUSH0 REVERT JUMPDEST PUSH0 PUSH2 0x1ACC DUP3 PUSH2 0x16D5 JUMP JUMPDEST SWAP2 POP PUSH2 0x1AD7 DUP4 PUSH2 0x16D5 JUMP JUMPDEST SWAP3 POP DUP3 PUSH2 0x1AE7 JUMPI PUSH2 0x1AE6 PUSH2 0x1A95 JUMP JUMPDEST JUMPDEST DUP3 DUP3 DIV SWAP1 POP SWAP3 SWAP2 POP POP JUMP JUMPDEST PUSH0 PUSH2 0x1AFC DUP3 PUSH2 0x16D5 JUMP JUMPDEST SWAP2 POP PUSH2 0x1B07 DUP4 PUSH2 0x16D5 JUMP JUMPDEST SWAP3 POP DUP3 DUP3 SUB SWAP1 POP DUP2 DUP2 GT ISZERO PUSH2 0x1B1F JUMPI PUSH2 0x1B1E PUSH2 0x1A27 JUMP JUMPDEST JUMPDEST SWAP3 SWAP2 POP POP JUMP JUMPDEST PUSH0 PUSH1 0x40 DUP3 ADD SWAP1 POP PUSH2 0x1B38 PUSH0 DUP4 ADD DUP6 PUSH2 0x16AD JUMP JUMPDEST PUSH2 0x1B45 PUSH1 0x20 DUP4 ADD DUP5 PUSH2 0x180A JUMP JUMPDEST SWAP4 SWAP3 POP POP POP JUMP JUMPDEST PUSH32 0x536C697070616765206578636565646564000000000000000000000000000000 PUSH0 DUP3 ADD MSTORE POP JUMP JUMPDEST PUSH0 PUSH2 0x1B80 PUSH1 0x11 DUP4 PUSH2 0x18BD JUMP JUMPDEST SWAP2 POP PUSH2 0x1B8B DUP3 PUSH2 0x1B4C JUMP JUMPDEST PUSH1 0x20 DUP3 ADD SWAP1 POP SWAP2 SWAP1 POP JUMP JUMPDEST PUSH0 PUSH1 0x20 DUP3 ADD SWAP1 POP DUP2 DUP2 SUB PUSH0 DUP4 ADD MSTORE PUSH2 0x1BAD DUP2 PUSH2 0x1B74 JUMP JUMPDEST SWAP1 POP SWAP2 SWAP1 POP JUMP JUMPDEST PUSH0 PUSH2 0x1BBE DUP3 PUSH2 0x16D5 JUMP JUMPDEST SWAP2 POP PUSH2 0x1BC9 DUP4 PUSH2 0x16D5 JUMP JUMPDEST SWAP3 POP DUP3 DUP3 ADD SWAP1 POP DUP1 DUP3 GT ISZERO PUSH2 0x1BE1 JUMPI PUSH2 0x1BE0 PUSH2 0x1A27 JUMP JUMPDEST JUMPDEST SWAP3 SWAP2 POP POP JUMP JUMPDEST PUSH0 PUSH1 0x80 DUP3 ADD SWAP1 POP PUSH2 0x1BFA PUSH0 DUP4 ADD DUP8 PUSH2 0x180A JUMP JUMPDEST PUSH2 0x1C07 PUSH1 0x20 DUP4 ADD DUP7 PUSH2 0x180A JUMP JUMPDEST PUSH2 0x1C14 PUSH1 0x40 DUP4 ADD DUP6 PUSH2 0x180A JUMP JUMPDEST PUSH2 0x1C21 PUSH1 0x60 DUP4 ADD DUP5 PUSH2 0x180A JUMP JUMPDEST SWAP6 SWAP5 POP POP POP POP POP JUMP JUMPDEST PUSH32 0x46656520746F6F20686967680000000000000000000000000000000000000000 PUSH0 DUP3 ADD MSTORE POP JUMP JUMPDEST PUSH0 PUSH2 0x1C5E PUSH1 0xC DUP4 PUSH2 0x18BD JUMP JUMPDEST SWAP2 POP PUSH2 0x1C69 DUP3 PUSH2 0x1C2A JUMP JUMPDEST PUSH1 0x20 DUP3 ADD SWAP1 POP SWAP2 SWAP1 POP JUMP JUMPDEST PUSH0 PUSH1 0x20 DUP3 ADD SWAP1 POP DUP2 DUP2 SUB PUSH0 DUP4 ADD MSTORE PUSH2 0x1C8B DUP2 PUSH2 0x1C52 JUMP JUMPDEST SWAP1 POP SWAP2 SWAP1 POP JUMP JUMPDEST PUSH32 0x496E73756666696369656E742073686172657300000000000000000000000000 PUSH0 DUP3 ADD MSTORE POP JUMP JUMPDEST PUSH0 PUSH2 0x1CC6 PUSH1 0x13 DUP4 PUSH2 0x18BD JUMP JUMPDEST SWAP2 POP PUSH2 0x1CD1 DUP3 PUSH2 0x1C92 JUMP JUMPDEST PUSH1 0x20 DUP3 ADD SWAP1 POP SWAP2 SWAP1 POP JUMP JUMPDEST PUSH0 PUSH1 0x20 DUP3 ADD SWAP1 POP DUP2 DUP2 SUB PUSH0 DUP4 ADD MSTORE PUSH2 0x1CF3 DUP2 PUSH2 0x1CBA JUMP JUMPDEST SWAP1 POP SWAP2 SWAP1 POP JUMP JUMPDEST PUSH32 0x506C617965722065786973747300000000000000000000000000000000000000 PUSH0 DUP3 ADD MSTORE POP JUMP JUMPDEST PUSH0 PUSH2 0x1D2E PUSH1 0xD DUP4 PUSH2 0x18BD JUMP JUMPDEST SWAP2 POP PUSH2 0x1D39 DUP3 PUSH2 0x1CFA JUMP JUMPDEST PUSH1 0x20 DUP3 ADD SWAP1 POP SWAP2 SWAP1 POP JUMP JUMPDEST PUSH0 PUSH1 0x20 DUP3 ADD SWAP1 POP DUP2 DUP2 SUB PUSH0 DUP4 ADD MSTORE PUSH2 0x1D5B DUP2 PUSH2 0x1D22 JUMP JUMPDEST SWAP1 POP SWAP2 SWAP1 POP JUMP JUMPDEST PUSH32 0x496E76616C696420747265617375727900000000000000000000000000000000 PUSH0 DUP3 ADD MSTORE POP JUMP JUMPDEST PUSH0 PUSH2 0x1D96 PUSH1 0x10 DUP4 PUSH2 0x18BD JUMP JUMPDEST SWAP2 POP PUSH2 0x1DA1 DUP3 PUSH2 0x1D62 JUMP JUMPDEST PUSH1 0x20 DUP3 ADD SWAP1 POP SWAP2 SWAP1 POP JUMP JUMPDEST PUSH0 PUSH1 0x20 DUP3 ADD SWAP1 POP DUP2 DUP2 SUB PUSH0 DUP4 ADD MSTORE PUSH2 0x1DC3 DUP2 PUSH2 0x1D8A JUMP JUMPDEST SWAP1 POP SWAP2 SWAP1 POP JUMP JUMPDEST PUSH0 PUSH1 0x40 DUP3 ADD SWAP1 POP PUSH2 0x1DDD PUSH0 DUP4 ADD DUP6 PUSH2 0x16AD JUMP JUMPDEST PUSH2 0x1DEA PUSH1 0x20 DUP4 ADD DUP5 PUSH2 0x15ED JUMP JUMPDEST SWAP4 SWAP3 POP POP POP JUMP INVALID LOG2 PUSH5 0x6970667358 0x22 SLT KECCAK256 AND 0xEB PUSH23 0x8DE2C563BA5DF8D7EEEA42676A3ACDB994F1AD847F65CC ORIGIN PUSH28 0x64A2C6EB64736F6C634300081B003300000000000000000000000000 "
				},
				"gasEstimates": {
					"creation": {
						"codeDepositCost": "1543800",
						"executionCost": "infinite",
						"totalCost": "infinite"
					},
					"external": {
						"ADMIN_ROLE()": "348",
						"BPS_DENOMINATOR()": "391",
						"DEFAULT_ADMIN_ROLE()": "374",
						"addPlayer(uint256)": "infinite",
						"buyShares(uint256,uint256,uint256)": "infinite",
						"ftk()": "infinite",
						"getRoleAdmin(bytes32)": "infinite",
						"getSharePrice(uint256)": "infinite",
						"grantRole(bytes32,address)": "infinite",
						"hasRole(bytes32,address)": "3232",
						"players(uint256)": "infinite",
						"renounceRole(bytes32,address)": "infinite",
						"revokeRole(bytes32,address)": "infinite",
						"sellShares(uint256,uint256,uint256)": "infinite",
						"setTradingFee(uint256)": "infinite",
						"setTreasury(address)": "infinite",
						"supportsInterface(bytes4)": "741",
						"tradingFeeBps()": "2448",
						"treasury()": "2620",
						"userBalance(uint256,address)": "infinite",
						"userShares(uint256,address)": "infinite"
					}
				},
				"methodIdentifiers": {
					"ADMIN_ROLE()": "75b238fc",
					"BPS_DENOMINATOR()": "e1a45218",
					"DEFAULT_ADMIN_ROLE()": "a217fddf",
					"addPlayer(uint256)": "ec4a8b17",
					"buyShares(uint256,uint256,uint256)": "7aabf58a",
					"ftk()": "8301b93d",
					"getRoleAdmin(bytes32)": "248a9ca3",
					"getSharePrice(uint256)": "bca7d4e1",
					"grantRole(bytes32,address)": "2f2ff15d",
					"hasRole(bytes32,address)": "91d14854",
					"players(uint256)": "f71d96cb",
					"renounceRole(bytes32,address)": "36568abe",
					"revokeRole(bytes32,address)": "d547741f",
					"sellShares(uint256,uint256,uint256)": "d67c6872",
					"setTradingFee(uint256)": "b0d54bcf",
					"setTreasury(address)": "f0f44260",
					"supportsInterface(bytes4)": "01ffc9a7",
					"tradingFeeBps()": "924cca9a",
					"treasury()": "61d027b3",
					"userBalance(uint256,address)": "85198705",
					"userShares(uint256,address)": "ad954878"
				}
			},
			"storageLayout": {
				"storage": [
					{
						"astId": 498,
						"contract": "contracts/PlayerMarket.sol:PlayerMarket",
						"label": "_status",
						"offset": 0,
						"slot": "0",
						"type": "t_uint256"
					},
					{
						"astId": 27,
						"contract": "contracts/PlayerMarket.sol:PlayerMarket",
						"label": "_roles",
						"offset": 0,
						"slot": "1",
						"type": "t_mapping(t_bytes32,t_struct(RoleData)22_storage)"
					},
					{
						"astId": 631,
						"contract": "contracts/PlayerMarket.sol:PlayerMarket",
						"label": "treasury",
						"offset": 0,
						"slot": "2",
						"type": "t_address"
					},
					{
						"astId": 634,
						"contract": "contracts/PlayerMarket.sol:PlayerMarket",
						"label": "tradingFeeBps",
						"offset": 0,
						"slot": "3",
						"type": "t_uint256"
					},
					{
						"astId": 649,
						"contract": "contracts/PlayerMarket.sol:PlayerMarket",
						"label": "players",
						"offset": 0,
						"slot": "4",
						"type": "t_mapping(t_uint256,t_struct(PlayerPool)644_storage)"
					},
					{
						"astId": 655,
						"contract": "contracts/PlayerMarket.sol:PlayerMarket",
						"label": "userShares",
						"offset": 0,
						"slot": "5",
						"type": "t_mapping(t_uint256,t_mapping(t_address,t_uint256))"
					}
				],
				"types": {
					"t_address": {
						"encoding": "inplace",
						"label": "address",
						"numberOfBytes": "20"
					},
					"t_bool": {
						"encoding": "inplace",
						"label": "bool",
						"numberOfBytes": "1"
					},
					"t_bytes32": {
						"encoding": "inplace",
						"label": "bytes32",
						"numberOfBytes": "32"
					},
					"t_mapping(t_address,t_bool)": {
						"encoding": "mapping",
						"key": "t_address",
						"label": "mapping(address => bool)",
						"numberOfBytes": "32",
						"value": "t_bool"
					},
					"t_mapping(t_address,t_uint256)": {
						"encoding": "mapping",
						"key": "t_address",
						"label": "mapping(address => uint256)",
						"numberOfBytes": "32",
						"value": "t_uint256"
					},
					"t_mapping(t_bytes32,t_struct(RoleData)22_storage)": {
						"encoding": "mapping",
						"key": "t_bytes32",
						"label": "mapping(bytes32 => struct AccessControl.RoleData)",
						"numberOfBytes": "32",
						"value": "t_struct(RoleData)22_storage"
					},
					"t_mapping(t_uint256,t_mapping(t_address,t_uint256))": {
						"encoding": "mapping",
						"key": "t_uint256",
						"label": "mapping(uint256 => mapping(address => uint256))",
						"numberOfBytes": "32",
						"value": "t_mapping(t_address,t_uint256)"
					},
					"t_mapping(t_uint256,t_struct(PlayerPool)644_storage)": {
						"encoding": "mapping",
						"key": "t_uint256",
						"label": "mapping(uint256 => struct PlayerMarket.PlayerPool)",
						"numberOfBytes": "32",
						"value": "t_struct(PlayerPool)644_storage"
					},
					"t_struct(PlayerPool)644_storage": {
						"encoding": "inplace",
						"label": "struct PlayerMarket.PlayerPool",
						"members": [
							{
								"astId": 639,
								"contract": "contracts/PlayerMarket.sol:PlayerMarket",
								"label": "totalShares",
								"offset": 0,
								"slot": "0",
								"type": "t_uint256"
							},
							{
								"astId": 641,
								"contract": "contracts/PlayerMarket.sol:PlayerMarket",
								"label": "ftkLiquidity",
								"offset": 0,
								"slot": "1",
								"type": "t_uint256"
							},
							{
								"astId": 643,
								"contract": "contracts/PlayerMarket.sol:PlayerMarket",
								"label": "exists",
								"offset": 0,
								"slot": "2",
								"type": "t_bool"
							}
						],
						"numberOfBytes": "96"
					},
					"t_struct(RoleData)22_storage": {
						"encoding": "inplace",
						"label": "struct AccessControl.RoleData",
						"members": [
							{
								"astId": 19,
								"contract": "contracts/PlayerMarket.sol:PlayerMarket",
								"label": "hasRole",
								"offset": 0,
								"slot": "0",
								"type": "t_mapping(t_address,t_bool)"
							},
							{
								"astId": 21,
								"contract": "contracts/PlayerMarket.sol:PlayerMarket",
								"label": "adminRole",
								"offset": 0,
								"slot": "1",
								"type": "t_bytes32"
							}
						],
						"numberOfBytes": "64"
					},
					"t_uint256": {
						"encoding": "inplace",
						"label": "uint256",
						"numberOfBytes": "32"
					}
				}
			},
			"userdoc": {
				"kind": "user",
				"methods": {},
				"version": 1
			}
		}
	}
}